{
  "address": "0x3E4B9A01BD2429f66ecBf271f6B312812a6d4603",
  "abi": [
    {
      "anonymous": false,
      "inputs": [
        {
          "indexed": false,
          "internalType": "uint256",
          "name": "blockNumber",
          "type": "uint256"
        }
      ],
      "name": "HashRequest",
      "type": "event"
    },
    {
      "inputs": [
        {
          "internalType": "uint256",
          "name": "blockNumber",
          "type": "uint256"
        }
      ],
      "name": "get",
      "outputs": [
        {
          "internalType": "bytes32",
          "name": "",
          "type": "bytes32"
        }
      ],
      "stateMutability": "view",
      "type": "function"
    },
    {
      "inputs": [],
      "name": "getBlockToActualise",
      "outputs": [
        {
          "internalType": "uint256",
          "name": "",
          "type": "uint256"
        }
      ],
      "stateMutability": "view",
      "type": "function"
    },
    {
      "inputs": [
        {
          "internalType": "uint256",
          "name": "blockNumber",
          "type": "uint256"
        }
      ],
      "name": "getOrCompute",
      "outputs": [
        {
          "internalType": "bytes32",
          "name": "",
          "type": "bytes32"
        }
      ],
      "stateMutability": "view",
      "type": "function"
    },
    {
      "inputs": [],
      "name": "request",
      "outputs": [],
      "stateMutability": "nonpayable",
      "type": "function"
    },
    {
      "inputs": [],
      "name": "save",
      "outputs": [],
      "stateMutability": "nonpayable",
      "type": "function"
    }
  ],
  "transactionHash": "0x5b266e993862cf7efb74500f56f343f617739ff71a351b8d504ed54b06e0be07",
  "args": [],
  "numDeployments": 1,
  "solcInputHash": "3705cadeb86e4cfd473ba34c32cdc277",
  "bytecode": "0x6080806040523461001657610245908161001c8239f35b600080fdfe604060808152600436101561001357600080fd5b600090813560e01c8063338cdca11461010257806342dad49e146100c5578063803ee1d91461009e5780639507d39a146100775763d88d7f461461005657600080fd5b346100735781600319360112610073576020906001549051908152f35b5080fd5b50346100735760203660031901126100735780602092600435815280845220549051908152f35b5034610073576020366003190112610073576020906100be600435610168565b9051908152f35b5034610073578160031936011261007357600154904382106100e5578280f35b6100ee826101b2565b918352826020528220558060015538808280f35b5034610073578160031936011261007357600154438110610121578280f35b7fa21755eabd8128750f344a2d1ce0cd3e1a2f2eb74ac9642568c437ca76f9005a918161014f6020936101b2565b908552848352818520554360015551438152a138808280f35b806000526000602052604060002054908115610182575090565b61018c91506101b2565b90565b9190820391821161019c57565b634e487b7160e01b600052601160045260246000fd5b61010080821080156101fb575b156101c957504090565b906101d4904361018f565b90600019828181011161019c576101ec92084361018f565b6001810180911161019c574090565b5060ff19430143811161019c5782116101bf56fea2646970667358221220b1d83342ca47e01f06b81f7594f74c357ddc646013cb45a625cf90ef0c88986264736f6c63430008140033",
  "devdoc": {
    "kind": "dev",
    "methods": {},
    "version": 1
  },
  "userdoc": {
    "kind": "user",
    "methods": {},
    "version": 1
  },
  "storageLayout": {
    "storage": [
      {
        "astId": 13238,
        "contract": "src/utils/BlockHashRegister.sol:BlockHashRegister",
        "label": "_blockHashes",
        "offset": 0,
        "slot": "0",
        "type": "t_mapping(t_uint256,t_bytes32)"
      },
      {
        "astId": 13240,
        "contract": "src/utils/BlockHashRegister.sol:BlockHashRegister",
        "label": "_blockToActualise",
        "offset": 0,
        "slot": "1",
        "type": "t_uint256"
      }
    ],
    "types": {
      "t_bytes32": {
        "encoding": "inplace",
        "label": "bytes32",
        "numberOfBytes": "32"
      },
      "t_mapping(t_uint256,t_bytes32)": {
        "encoding": "mapping",
        "key": "t_uint256",
        "label": "mapping(uint256 => bytes32)",
        "numberOfBytes": "32",
        "value": "t_bytes32"
      },
      "t_uint256": {
        "encoding": "inplace",
        "label": "uint256",
        "numberOfBytes": "32"
      }
    }
  }
}