{
  "address": "0x73FdDd748C0554786bd9B354dEd32D2e767280c1",
  "abi": [
    {
      "anonymous": false,
      "inputs": [
        {
          "indexed": true,
          "internalType": "uint256",
          "name": "seller",
          "type": "uint256"
        },
        {
          "indexed": true,
          "internalType": "uint256",
          "name": "buyer",
          "type": "uint256"
        },
        {
          "components": [
            {
              "internalType": "uint256",
              "name": "characterId",
              "type": "uint256"
            },
            {
              "internalType": "uint256[8]",
              "name": "amounts",
              "type": "uint256[8]"
            },
            {
              "internalType": "uint256[]",
              "name": "gears",
              "type": "uint256[]"
            }
          ],
          "indexed": false,
          "internalType": "struct DungeonTokenTransferer.Offer",
          "name": "sale",
          "type": "tuple"
        },
        {
          "components": [
            {
              "internalType": "uint256",
              "name": "characterId",
              "type": "uint256"
            },
            {
              "internalType": "uint256[8]",
              "name": "amounts",
              "type": "uint256[8]"
            },
            {
              "internalType": "uint256[]",
              "name": "gears",
              "type": "uint256[]"
            }
          ],
          "indexed": false,
          "internalType": "struct DungeonTokenTransferer.Offer",
          "name": "price",
          "type": "tuple"
        }
      ],
      "name": "Exchange",
      "type": "event"
    },
    {
      "anonymous": false,
      "inputs": [
        {
          "indexed": true,
          "internalType": "uint256",
          "name": "seller",
          "type": "uint256"
        },
        {
          "indexed": true,
          "internalType": "uint256",
          "name": "buyer",
          "type": "uint256"
        },
        {
          "indexed": true,
          "internalType": "uint256",
          "name": "gearId",
          "type": "uint256"
        },
        {
          "indexed": false,
          "internalType": "uint256",
          "name": "price",
          "type": "uint256"
        }
      ],
      "name": "GearSale",
      "type": "event"
    },
    {
      "inputs": [],
      "name": "MAX_GEARS",
      "outputs": [
        {
          "internalType": "uint256",
          "name": "",
          "type": "uint256"
        }
      ],
      "stateMutability": "view",
      "type": "function"
    },
    {
      "inputs": [
        {
          "internalType": "uint256",
          "name": "characterId",
          "type": "uint256"
        },
        {
          "internalType": "uint256[]",
          "name": "amounts",
          "type": "uint256[]"
        }
      ],
      "name": "batchTransferElementsIn",
      "outputs": [],
      "stateMutability": "nonpayable",
      "type": "function"
    },
    {
      "inputs": [
        {
          "internalType": "uint256",
          "name": "from",
          "type": "uint256"
        },
        {
          "internalType": "address",
          "name": "to",
          "type": "address"
        },
        {
          "internalType": "uint256[]",
          "name": "amounts",
          "type": "uint256[]"
        }
      ],
      "name": "batchTransferElementsOut",
      "outputs": [],
      "stateMutability": "nonpayable",
      "type": "function"
    },
    {
      "inputs": [
        {
          "internalType": "uint256",
          "name": "characterId",
          "type": "uint256"
        },
        {
          "internalType": "uint256[]",
          "name": "ids",
          "type": "uint256[]"
        }
      ],
      "name": "batchTransferGearIn",
      "outputs": [],
      "stateMutability": "nonpayable",
      "type": "function"
    },
    {
      "inputs": [
        {
          "internalType": "uint256",
          "name": "from",
          "type": "uint256"
        },
        {
          "internalType": "address",
          "name": "to",
          "type": "address"
        },
        {
          "internalType": "uint256[]",
          "name": "ids",
          "type": "uint256[]"
        }
      ],
      "name": "batchTransferGearOut",
      "outputs": [],
      "stateMutability": "nonpayable",
      "type": "function"
    },
    {
      "inputs": [
        {
          "internalType": "uint256",
          "name": "from",
          "type": "uint256"
        },
        {
          "internalType": "uint256",
          "name": "id",
          "type": "uint256"
        }
      ],
      "name": "drop",
      "outputs": [],
      "stateMutability": "nonpayable",
      "type": "function"
    },
    {
      "inputs": [
        {
          "internalType": "uint256",
          "name": "from",
          "type": "uint256"
        },
        {
          "internalType": "uint256[]",
          "name": "amounts",
          "type": "uint256[]"
        }
      ],
      "name": "dropElements",
      "outputs": [],
      "stateMutability": "nonpayable",
      "type": "function"
    },
    {
      "inputs": [
        {
          "components": [
            {
              "internalType": "uint256",
              "name": "characterId",
              "type": "uint256"
            },
            {
              "internalType": "uint256[8]",
              "name": "amounts",
              "type": "uint256[8]"
            },
            {
              "internalType": "uint256[]",
              "name": "gears",
              "type": "uint256[]"
            }
          ],
          "internalType": "struct DungeonTokenTransferer.Offer",
          "name": "seller",
          "type": "tuple"
        },
        {
          "components": [
            {
              "internalType": "uint256",
              "name": "characterId",
              "type": "uint256"
            },
            {
              "internalType": "uint256[8]",
              "name": "amounts",
              "type": "uint256[8]"
            },
            {
              "internalType": "uint256[]",
              "name": "gears",
              "type": "uint256[]"
            }
          ],
          "internalType": "struct DungeonTokenTransferer.Offer",
          "name": "buyer",
          "type": "tuple"
        }
      ],
      "name": "exchange",
      "outputs": [],
      "stateMutability": "nonpayable",
      "type": "function"
    },
    {
      "inputs": [
        {
          "internalType": "uint256",
          "name": "from",
          "type": "uint256"
        },
        {
          "internalType": "uint256",
          "name": "id",
          "type": "uint256"
        }
      ],
      "name": "pick",
      "outputs": [],
      "stateMutability": "nonpayable",
      "type": "function"
    },
    {
      "inputs": [
        {
          "internalType": "uint256",
          "name": "from",
          "type": "uint256"
        },
        {
          "internalType": "uint256",
          "name": "id",
          "type": "uint256"
        },
        {
          "internalType": "uint256",
          "name": "amount",
          "type": "uint256"
        }
      ],
      "name": "pickElement",
      "outputs": [],
      "stateMutability": "nonpayable",
      "type": "function"
    },
    {
      "inputs": [
        {
          "internalType": "contract DungeonInfoFacet",
          "name": "dungeon",
          "type": "address"
        },
        {
          "internalType": "contract Player",
          "name": "player",
          "type": "address"
        },
        {
          "internalType": "contract Gears",
          "name": "gears",
          "type": "address"
        },
        {
          "internalType": "contract Elements",
          "name": "elements",
          "type": "address"
        },
        {
          "internalType": "contract Characters",
          "name": "characters",
          "type": "address"
        }
      ],
      "name": "postUpgrade",
      "outputs": [],
      "stateMutability": "nonpayable",
      "type": "function"
    },
    {
      "inputs": [
        {
          "internalType": "uint256",
          "name": "characterId",
          "type": "uint256"
        },
        {
          "internalType": "uint256",
          "name": "deadCharacterId",
          "type": "uint256"
        },
        {
          "internalType": "uint256",
          "name": "id",
          "type": "uint256"
        },
        {
          "internalType": "uint256",
          "name": "amount",
          "type": "uint256"
        }
      ],
      "name": "scavengeElements",
      "outputs": [],
      "stateMutability": "nonpayable",
      "type": "function"
    },
    {
      "inputs": [
        {
          "internalType": "uint256",
          "name": "characterId",
          "type": "uint256"
        },
        {
          "internalType": "uint256",
          "name": "deadCharacterId",
          "type": "uint256"
        },
        {
          "internalType": "uint256",
          "name": "id",
          "type": "uint256"
        }
      ],
      "name": "scavengeGear",
      "outputs": [],
      "stateMutability": "nonpayable",
      "type": "function"
    },
    {
      "inputs": [
        {
          "internalType": "uint256",
          "name": "seller",
          "type": "uint256"
        },
        {
          "internalType": "uint256",
          "name": "buyer",
          "type": "uint256"
        },
        {
          "internalType": "uint256",
          "name": "gearId",
          "type": "uint256"
        },
        {
          "internalType": "uint256",
          "name": "coins",
          "type": "uint256"
        }
      ],
      "name": "sellGear",
      "outputs": [],
      "stateMutability": "nonpayable",
      "type": "function"
    },
    {
      "inputs": [
        {
          "internalType": "uint256",
          "name": "from",
          "type": "uint256"
        },
        {
          "internalType": "uint256",
          "name": "to",
          "type": "uint256"
        },
        {
          "internalType": "uint256",
          "name": "id",
          "type": "uint256"
        },
        {
          "internalType": "uint256",
          "name": "amount",
          "type": "uint256"
        }
      ],
      "name": "subTransferElementsFrom",
      "outputs": [],
      "stateMutability": "nonpayable",
      "type": "function"
    },
    {
      "inputs": [
        {
          "internalType": "uint256",
          "name": "from",
          "type": "uint256"
        },
        {
          "internalType": "uint256",
          "name": "to",
          "type": "uint256"
        },
        {
          "internalType": "uint256",
          "name": "id",
          "type": "uint256"
        }
      ],
      "name": "subTransferGearFrom",
      "outputs": [],
      "stateMutability": "nonpayable",
      "type": "function"
    }
  ],
  "transactionHash": "0x29745eceb3886496ef57792c7bccec15068f57355874fb7711d4cb2812eb292c",
  "args": [],
  "numDeployments": 1,
  "solcInputHash": "3705cadeb86e4cfd473ba34c32cdc277",
  "bytecode": "0x60808060405234610016576123bd908161001c8239f35b600080fdfe60406080815260048036101561001457600080fd5b600091823560e01c8063024a271e14611afc5780630309451f146118975780630bd7041d146117c25783816328548237146116b15781634a0dfcb61461150a578163563bcd8d146113ca5781637e6975b9146111305750806386d5b7d514610fb65780639a6e7a8314610f9657838163a62f455014610e3d578163b832e0a914610d6957508063c4ca06361461098f57838163c68167781461087157508063c983e092146105ae578063dfe11fd51461024d5763ffa62977146100d657600080fd5b34610249576020916100e736611d6a565b9093919260018060a01b039361010285600354163314611db0565b84600254169284519788809563283171d960e11b8252848683015260249a8b915afa93841561023f578994610207575b50885b818110610140578980f35b61014b81838a611f66565b3580610161575b5061015c90611f41565b610135565b60019a999a90818301918284116101f55790898c9d9c9392541690813b156101f15789516311aa10fb60e01b8152808901888152602081018b905260408101949094526060840191909152918391839182908490829060800103925af180156101e7576101cf575b50610152565b6101d890611df3565b6101e35789386101c9565b8980fd5b88513d84823e3d90fd5b8380fd5b634e487b7160e01b8c52601187528c8cfd5b9093506020813d8211610237575b8161022260209383611e1d565b8101031261023257519238610132565b600080fd5b3d9150610215565b85513d8b823e3d90fd5b8280fd5b50346102495761025c36611d6a565b60028054855163283171d960e11b81528088018690529196939560249590946001600160a01b03949092602090819086908a9082908a165afa9485156105a4578b95610575575b506102ad85612200565b858a541687518091636790d2b560e01b82528787830152818b6101609485935afa918d831561056a57906102fa93929192610532575b5050600160ff1b8714908115610524575b50611eeb565b8a60019561030b8888541691612258565b90803b1561024957895163c9b902e360e01b8152808801878152600660208201526040810193909352918391839182908490829060600103925af1801561049357908a93929161050b575b50508087865416895193848092630607176160e31b8252888a8301525afa908115610501578c916104d1575b5061038f91503314611fdc565b895b81811061039c578a80f35b6103a781838b611f66565b35806103bd575b506103b890611f41565b610391565b858201908183116104bf57908c918c89808a541691541690803b156104bb578b51637f4c824d60e11b815233818b019081526001600160a01b0390931660208401526040830185905260608301849052918591839182908490829060800103925af180156104b15790849161049d575b50508888541691823b156101f157608488858e9581958f958c849751998a9889976311aa10fb60e01b8952880152860152604485015260648401525af180156104935761047b575b506103ae565b61048490611df3565b61048f578a38610475565b8a80fd5b89513d84823e3d90fd5b6104a690611df3565b61024957823861042d565b8b513d86823e3d90fd5b8480fd5b634e487b7160e01b8d5260118652898dfd5b905081813d83116104fa575b6104e78183611e1d565b810103126102325761038f905138610382565b503d6104dd565b88513d8e823e3d90fd5b61051791929350611df3565b61048f5787908b38610356565b6005915060ff1614386102f4565b6105519250803d10610563575b6105498183611e1d565b810190611e62565b505097505050505050505038806102e3565b503d61053f565b8a51903d90823e3d90fd5b9080955081813d831161059d575b61058d8183611e1d565b81010312610232575193386102a3565b503d610583565b87513d8d823e3d90fd5b5034610249576020916105c036611d05565b9094929360018060a01b03916105db83600354163314611db0565b60029280845416918651998a809463283171d960e11b82528a8783015260249c8d915afa9283156105a4578b9361083e575b5061061783612200565b8185541687518091636790d2b560e01b82528587830152818d6101609485935afa918d831561056a579061066393929192610816575b5050600160ff1b85149081156105245750611eeb565b8a6001936106748486541691612258565b90803b1561024957895163c9b902e360e01b81528088018c8152600660208201526040810193909352918391839182908490829060600103925af1801561049357610802575b505b8181106106c7578b80f35b6106d281838c611f66565b35806106e8575b506106e390611f41565b6106bc565b84829d9c9d01908183116107f057908c9d9c9185875416803b156101f157838f9160848f918f8d918580925197889687956311aa10fb60e01b87528601528401528860448401528760648401525af180156107e6579084916107d2575b50508587541690868a541691803b156104bb578c51637f4c824d60e11b81526001600160a01b03938416818c01908152938d16602085015260408401949094526060830191909152839183919082908490829060800103925af180156107c8576107b0575b506106d9565b6107b990611df3565b6107c4578b386107aa565b8b80fd5b8a513d84823e3d90fd5b6107db90611df3565b610249578238610745565b8c513d86823e3d90fd5b634e487b7160e01b8d52601187528d8dfd5b61080b90611df3565b61048f578a386106ba565b61082c9250803d10610563576105498183611e1d565b5050975050505050505050388061064d565b9092506020813d8211610869575b8161085960209383611e1d565b810103126102325751913861060d565b3d915061084c565b8084843461098b5761088236611d9a565b6003546001600160a01b039492919061089e9086163314611db0565b846002541684519563283171d960e11b87528385880152602087602481855afa96871561098157889761094b575b5087541691823b1561094757879461091886928851998a97889687956316ce431360e31b8752860190949392606092608083019660018060a01b03168352602083015260408201520152565b03925af190811561093e575061092b5750f35b61093490611df3565b61093b5780f35b80fd5b513d84823e3d90fd5b8780fd5b975095506020873d8211610979575b8161096760209383611e1d565b810103126102325787965195896108cc565b3d915061095a565b86513d8a823e3d90fd5b5050fd5b5034610249576003199080823601126101f1578383359267ffffffffffffffff80851161024957848601610140808488360301126104bb576024908135938411610b8e578389019484360301126104bb579397969493828101908781015b60088b10610bf157505050908692918395610124809801928235948035985b610a16868661216e565b9050811015610ad05787546002546001600160a01b039182169116610a4583610a3f8a8a61216e565b90611f66565b35823b1561048f578b516316ce431360e31b81526001600160a01b03909216828801908152602081018b9052604081018e9052606081019190915290918a9183919082908490829060800103925af18015610ac657908991610ab2575b5050610aad90611f41565b610a0c565b610abb90611df3565b61094757878d610aa2565b8a513d8b823e3d90fd5b509298949794019250845b610ae5848461216e565b9050811015610ba05785546002546001600160a01b039081169116610b0e83610a3f888861216e565b3591813b15610b9c5789516316ce431360e31b81526001600160a01b0390911685820190815260208101899052604081018c90526060810193909352918891839182908490829060800103925af18015610b9257908791610b7a575b5050610b7590611f41565b610adb565b610b8390611df3565b610b8e57858b610b6a565b8580fd5b88513d89823e3d90fd5b8880fd5b8585897fd475a0c010a34f4afb9b3cafe6a6005f2f2603913ec4cd25d812b510d5caa9078c8b610beb89610bdd83519484869586528501906121a4565b9083820360208501526121a4565b0390a380f35b60019897989a8b8101808211610d57578b9c610c1283879e9b9c9d9e61215d565b35610cc0575b610c22838561215d565b35610c3e575b5050610c3390611f41565b9a50989695986109ed565b546001600160a01b0316610c52838561215d565b35813b1561048f578a918e838c8f8c95610c9a9151988997889687956311aa10fb60e01b87523591359086019094939260609260808301968352602083015260408201520152565b03925af18015610ac65790899115610c2857610cb590611df3565b610947578738610c28565b80546001600160a01b0316610cd5848861215d565b3590803b156107c4578a8f918d928f8c610d208997879351988997889687956311aa10fb60e01b87523591359086019094939260609260808301968352602083015260408201520152565b03925af18015610d4d57908b91610d39575b5050610c18565b610d4290611df3565b6101e3578938610d32565b8c513d8d823e3d90fd5b634e487b7160e01b8c5260118b52838cfd5b8084843461098b57610d7a36611cba565b602460018060a0979594971b03610d9681600354163314611db0565b6020816002541687519384809263283171d960e11b8252888a8301525afa918215610981578892610e07575b506001541691823b1561094757879461091886928851998a97889687956311aa10fb60e01b875286019094939260609260808301968352602083015260408201520152565b975090506020873d8211610e35575b81610e2360209383611e1d565b81010312610232578796519089610dc2565b3d9150610e16565b8084843461098b57610e4e36611d9a565b6003549193916001600160a01b0390610e6a9082163314611db0565b806002541684519263283171d960e11b845286858501526020928385602481865afa948515610f8c578995610f5a575b5088541692865163c9a59e4760e01b815288878201528181602481885afa918215610f50578a92610f1b575b5050600a610ed49110612021565b823b1561094757879461091886928851998a97889687956316ce431360e31b8752860190949392606092608083019660018060a01b03168352602083015260408201520152565b819a508092503d8311610f49575b610f338183611e1d565b8101031261023257610ed4600a8a995191610ec6565b503d610f29565b88513d8c823e3d90fd5b985093508288813d8111610f85575b610f738183611e1d565b8101031261023257889751938a610e9a565b503d610f69565b87513d8b823e3d90fd5b838234610fb25781600319360112610fb25760209051600a8152f35b5080fd5b503461024957610fc536611d4c565b9193909460018060a01b0390816002541633036110f6579087918160015416803b156101f15783809160848751809481936311aa10fb60e01b83528d888401528c6024840152600660448401528b60648401525af180156110ec579084916110d8575b5082905416916002541690823b156101f15784516316ce431360e31b81526001600160a01b039092169082019081526020810187905260408101889052606081018990529091839183919082908490829060800103925af180156110ce576110ba575b50507f198e2ac2be3d740936b958f72f2ff48636882d544f3f03603725be8ae80f4f859160209151908152a480f35b6110c390611df3565b610b8e57853861108b565b83513d84823e3d90fd5b6110e190611df3565b610249578238611028565b85513d86823e3d90fd5b606490602084519162461bcd60e51b835282015260146024820152731bdb9b1e48191d5b99d95bdb88185b1b1bddd95960621b6044820152fd5b8084843461098b5761114136611d6a565b93919060018060a01b039081600254168551809163283171d960e11b8252858783015281602460209485935afa908115610f8c578991611399575b5061118681612200565b836002541687518091636790d2b560e01b825283898301528160246101609485935afa91821561138f57906111d392918c92611367575b5050600160ff1b83149081156113595750611eeb565b6111e1846001541691612258565b90803b156101e357875163c9b902e360e01b8152808801878152600660208201526040810193909352918a91839182908490829060600103925af18015610f8c57908991611345575b505060248184875416885192838092630607176160e31b8252898b8301525afa918215610f8c578992611311575b5050611265903314611fdc565b81875416826002541690803b15610b9c578289918993838961129c8c519788968795869463f3993d1160e01b865233908601611fb0565b03925af18015610981579088916112f9575b5082905416916002541690823b1561094757879461091886928851998a9788968795637ba764f760e01b87528601528560248601526044850152608060648501526084840191611f8c565b61130290611df3565b61130d5786896112ae565b8680fd5b8199508092503d831161133e575b6113298183611e1d565b8101031261023257611265889751908a611258565b503d61131f565b61134e90611df3565b61094757878a61122a565b6005915060ff16148c6102f4565b61137d9250803d10610563576105498183611e1d565b50509750505050505050508c806111bd565b89513d8d823e3d90fd5b809950828092503d83116113c3575b6113b28183611e1d565b81010312610232578897518a61117c565b503d6113a8565b8084843461098b576113db36611d4c565b90949260018060a01b036113f481600354163314611db0565b600254865163283171d960e11b8082528782018590526020928416908383602481855afa928315611500578c936114cd575b50839060248b518094819382528b8d8301525afa92831561138f578b93611499575b505090611455911461205e565b6001541691823b1561094757879461091886928851998a97889687956311aa10fb60e01b875286019094939260609260808301968352602083015260408201520152565b80929b508193503d83116114c6575b6114b28183611e1d565b81010312610232575189986114558c611448565b503d6114a8565b9b509150828b813d81116114f9575b6114e68183611e1d565b8101031261023257828c9b519290611426565b503d6114dc565b8a513d8e823e3d90fd5b8084843461098b5761151b36611cba565b6003549294926001600160a01b03906115379082163314611db0565b8060025416908551809262d8301960e41b825285878301528160246101609586935afa908115610f8c5789938a92611672575b505061157583612200565b600254875163283171d960e11b81528781018a905290831693602082602481885afa91821561138f578b9261163b575b506115f0926115bb61ffff936115e4931461205e565b908160f81c9161ffff808260e81c169363ffffffff8360c81c1691808460b81c169360a81c1693565b50505090501615612119565b87541691823b1561094757879461091886928851998a97889687956316ce431360e31b8752860190949392606092608083019660018060a01b03168352602083015260408201520152565b915099506020813d821161166a575b8161165760209383611e1d565b8101031261023257518a996115f06115a5565b3d915061164a565b61169693945080919250903d106116aa575b61168e8183611e1d565b8101906120aa565b505050505050505092919050918a8061156a565b503d611684565b8084843461098b576116c236611d4c565b9094929160018060a01b036116dc81600354163314611db0565b80600254168651809162d8301960e41b825284888301528160246101609384935afa918215610f50578a918b93611795575b50508061171c602492612200565b602084600254168a519384809263283171d960e11b82528b8d8301525afa91821561138f578b9261175e575b50611455926115bb61ffff936115e4931461205e565b915099506020813d821161178d575b8161177a60209383611e1d565b8101031261023257518a99611455611748565b3d915061176d565b602493506117af9250803d106116aa5761168e8183611e1d565b505050505050505092919050908c61170e565b505034610fb25760a0366003190112610fb2576001600160a01b038135818116908190036101f1576024358281168091036104bb57604435838116809103610b8e576064359184831680930361130d5760843594808616809603610947577fb53127684a568b3173ae13b9f8a6016e243e63b6e8ee1178d6a717850b5d610380548216806118895750555b6bffffffffffffffffffffffff60a01b938460025416176002558360035416176003558286541617855581600154161760015582541617905580f35b91505033031561184d578680fd5b50919034610fb2576118a836611d05565b959260018060a0969493961b03966118c588600354163314611db0565b8760025416855180809263283171d960e11b82528588830152602093849160249485915afa908115610f50578a91611acf575b5061190281612200565b8a6002541688518091636790d2b560e01b8252838a83015281856101609485935afa918215611500579061194e92918d92611aa7575b5050600160ff1b83149081156105245750611eeb565b61195c8b6001541691612258565b90803b1561048f57885163c9b902e360e01b8152808901878152600660208201526040810193909352918b91839182908490829060600103925af18015610f5057908a91611a93575b5093918a8a5416945b8481106119e8575050505086976002541690823b1561094757879461091886928851998a978896879563f3993d1160e01b87528601611fb0565b6119f381868c611f66565b89516369f648a160e01b8152903589820152828185818a5afa908115611500579085918d91611a62575b5003611a3157611a2c90611f41565b6119ae565b885162461bcd60e51b8152808901839052600c818501526b3737ba1039bab127bbb732b960a11b6044820152606490fd5b809250848092503d8311611a8c575b611a7b8183611e1d565b810103126102325784905138611a1d565b503d611a71565b611a9c90611df3565b610b9c5788386119a5565b611abd9250803d10610563576105498183611e1d565b50509750505050505050503880611938565b90508281813d8311611af5575b611ae68183611e1d565b810103126102325751386118f8565b503d611adc565b50346102495782611b0c36611cba565b909460018060a01b0391611b2583600354163314611db0565b82600254169186519363283171d960e11b80865286838701526020958681602481895afa908115610ac6578991611c8d575b5089519182528a848301528682602481895afa908115610ac6578991611c5c575b611b8392501461205e565b86541693875163c9a59e4760e01b815286838201528181602481895afa918215611c52578892611c21575b5050600a611bbc9110612021565b833b15610b8e57611c0186928851998a97889687956316ce431360e31b8752860190949392606092608083019660018060a01b03168352602083015260408201520152565b03925af190811561093e5750611c15575080f35b611c1e90611df3565b80f35b90809250813d8311611c4b575b611c388183611e1d565b8101031261130d5751600a611bbc611bae565b503d611c2e565b89513d8a823e3d90fd5b90508682813d8311611c86575b611c738183611e1d565b81010312610b9c57611b83915190611b78565b503d611c69565b90508681813d8311611cb3575b611ca48183611e1d565b81010312610b9c575138611b57565b503d611c9a565b606090600319011261023257600435906024359060443590565b9181601f840112156102325782359167ffffffffffffffff8311610232576020808501948460051b01011161023257565b606060031982011261023257600435916024356001600160a01b038116810361023257916044359067ffffffffffffffff821161023257611d4891600401611cd4565b9091565b60809060031901126102325760043590602435906044359060643590565b90604060031983011261023257600435916024359067ffffffffffffffff821161023257611d4891600401611cd4565b6040906003190112610232576004359060243590565b15611db757565b60405162461bcd60e51b81526020600482015260146024820152731bdb9b1e481c1b185e595c9cc8185b1b1bddd95960621b6044820152606490fd5b67ffffffffffffffff8111611e0757604052565b634e487b7160e01b600052604160045260246000fd5b90601f8019910116810190811067ffffffffffffffff821117611e0757604052565b519060ff8216820361023257565b519067ffffffffffffffff8216820361023257565b908161016091031261023257805191602082015191611e8360408201611e3f565b91611e9060608301611e3f565b91611e9d60808201611e3f565b91611eaa60a08301611e3f565b9160c081015180151581036102325791611ec660e08301611e4d565b91611ed46101008201611e3f565b91610140611ee56101208401611e4d565b92015190565b15611ef257565b60405162461bcd60e51b815260206004820152602160248201527f63616e206f6e6c79207472616e7366657220696e207370656369616c20726f6f6044820152606d60f81b6064820152608490fd5b6000198114611f505760010190565b634e487b7160e01b600052601160045260246000fd5b9190811015611f765760051b0190565b634e487b7160e01b600052603260045260246000fd5b81835290916001600160fb1b0383116102325760209260051b809284830137010190565b6001600160a01b03918216815291166020820152606060408201819052611fd993910191611f8c565b90565b15611fe357565b60405162461bcd60e51b815260206004820152601660248201527539bab127bbb732b91034b9903737ba1039b2b73232b960511b6044820152606490fd5b1561202857565b60405162461bcd60e51b815260206004820152600e60248201526d546f6f206d616e7920676561727360901b6044820152606490fd5b1561206557565b60405162461bcd60e51b815260206004820152601760248201527f6e65656420746f20626520696e2073616d6520726f6f6d0000000000000000006044820152606490fd5b9081610160910312610232578051916120c560208301611e3f565b9160408101519160608201519160808101519160a08201519160c08101519160e0820151916101008101518060070b8103610232579161014061012083015192015160018060a01b03811681036102325790565b1561212057565b60405162461bcd60e51b815260206004820152601560248201527418da185c9858dd195c881a5cc81b9bdd0819195859605a1b6044820152606490fd5b906008811015611f765760051b0190565b903590601e1981360301821215610232570180359067ffffffffffffffff821161023257602001918160051b3603831361023257565b803582526101006020820160208401376101209081810135601e198236030181121561023257016020813591019167ffffffffffffffff8211610232578160051b3603831361023257611fd99361014080928201520191611f8c565b6002546001600160a01b031690813b156102325760009160248392604051948593849263236501cf60e21b845260048401525af1801561224c576122415750565b61224a90611df3565b565b6040513d6000823e3d90fd5b612261906122de565b6001600160ff1b0381168103611f505760069060011b048015600014611fd95750600190565b60070b90677fffffffffffffff198212677fffffffffffffff831317611f5057565b600160ff1b8114611f505760000390565b906801000000000000000060008382039312818412811691841390151617611f5057565b67ffffffffffffffff6122f581831660070b612287565b60070b9060008212612374575b612313919260401c1660070b612287565b60070b60008112612366575b678000000000000000808313612356575b8113612348575b80821315612343575090565b905090565b612351906122ba565b612337565b91612360906122ba565b91612330565b61236f906122a9565b61231f565b612380612313926122a9565b915061230256fea264697066735822122082e8805918e57894c219f1e7a53af143a308342eb4214b4601241d5dd1ddd9ef64736f6c63430008140033",
  "devdoc": {
    "kind": "dev",
    "methods": {},
    "version": 1
  },
  "userdoc": {
    "kind": "user",
    "methods": {},
    "version": 1
  },
  "storageLayout": {
    "storage": [
      {
        "astId": 6941,
        "contract": "src/dungeon/DungeonTokenTransferer.sol:DungeonTokenTransferer",
        "label": "_gears",
        "offset": 0,
        "slot": "0",
        "type": "t_contract(Gears)13114"
      },
      {
        "astId": 6944,
        "contract": "src/dungeon/DungeonTokenTransferer.sol:DungeonTokenTransferer",
        "label": "_elements",
        "offset": 0,
        "slot": "1",
        "type": "t_contract(Elements)13095"
      },
      {
        "astId": 6947,
        "contract": "src/dungeon/DungeonTokenTransferer.sol:DungeonTokenTransferer",
        "label": "_dungeon",
        "offset": 0,
        "slot": "2",
        "type": "t_contract(DungeonInfoFacet)5342"
      },
      {
        "astId": 6950,
        "contract": "src/dungeon/DungeonTokenTransferer.sol:DungeonTokenTransferer",
        "label": "_player",
        "offset": 0,
        "slot": "3",
        "type": "t_contract(Player)10953"
      },
      {
        "astId": 6953,
        "contract": "src/dungeon/DungeonTokenTransferer.sol:DungeonTokenTransferer",
        "label": "_characters",
        "offset": 0,
        "slot": "4",
        "type": "t_contract(Characters)464"
      }
    ],
    "types": {
      "t_contract(Characters)464": {
        "encoding": "inplace",
        "label": "contract Characters",
        "numberOfBytes": "20"
      },
      "t_contract(DungeonInfoFacet)5342": {
        "encoding": "inplace",
        "label": "contract DungeonInfoFacet",
        "numberOfBytes": "20"
      },
      "t_contract(Elements)13095": {
        "encoding": "inplace",
        "label": "contract Elements",
        "numberOfBytes": "20"
      },
      "t_contract(Gears)13114": {
        "encoding": "inplace",
        "label": "contract Gears",
        "numberOfBytes": "20"
      },
      "t_contract(Player)10953": {
        "encoding": "inplace",
        "label": "contract Player",
        "numberOfBytes": "20"
      }
    }
  }
}