{
  "address": "0x454B68A1236C8A89359cCA4e782322aB86BAC4E2",
  "abi": [
    {
      "inputs": [
        {
          "internalType": "address",
          "name": "backendAddress",
          "type": "address"
        }
      ],
      "stateMutability": "nonpayable",
      "type": "constructor"
    },
    {
      "inputs": [
        {
          "internalType": "uint256",
          "name": "id",
          "type": "uint256"
        },
        {
          "internalType": "address[]",
          "name": "players",
          "type": "address[]"
        },
        {
          "internalType": "uint256[]",
          "name": "amounts",
          "type": "uint256[]"
        }
      ],
      "name": "batchMineVaultElements",
      "outputs": [],
      "stateMutability": "nonpayable",
      "type": "function"
    },
    {
      "inputs": [
        {
          "internalType": "uint256",
          "name": "characterId",
          "type": "uint256"
        },
        {
          "internalType": "uint256",
          "name": "monsterId",
          "type": "uint256"
        }
      ],
      "name": "characterDefeated",
      "outputs": [],
      "stateMutability": "nonpayable",
      "type": "function"
    },
    {
      "inputs": [
        {
          "internalType": "uint256",
          "name": "characterId",
          "type": "uint256"
        },
        {
          "internalType": "uint256",
          "name": "monsterId",
          "type": "uint256"
        },
        {
          "internalType": "int16",
          "name": "hpChange",
          "type": "int16"
        },
        {
          "internalType": "int16",
          "name": "elemChange",
          "type": "int16"
        }
      ],
      "name": "characterEscaped",
      "outputs": [],
      "stateMutability": "nonpayable",
      "type": "function"
    },
    {
      "inputs": [
        {
          "internalType": "address",
          "name": "to",
          "type": "address"
        },
        {
          "internalType": "bytes",
          "name": "data",
          "type": "bytes"
        }
      ],
      "name": "forward",
      "outputs": [
        {
          "internalType": "bool",
          "name": "success",
          "type": "bool"
        }
      ],
      "stateMutability": "payable",
      "type": "function"
    },
    {
      "inputs": [
        {
          "internalType": "uint256",
          "name": "location",
          "type": "uint256"
        },
        {
          "internalType": "address",
          "name": "benefactor",
          "type": "address"
        },
        {
          "internalType": "uint16[8]",
          "name": "income",
          "type": "uint16[8]"
        }
      ],
      "name": "generateRoomIncome",
      "outputs": [],
      "stateMutability": "nonpayable",
      "type": "function"
    },
    {
      "inputs": [],
      "name": "getDungeonAndBackendAddress",
      "outputs": [
        {
          "internalType": "contract DungeonAdminFacet",
          "name": "dungeon",
          "type": "address"
        },
        {
          "internalType": "address",
          "name": "backendAddress",
          "type": "address"
        }
      ],
      "stateMutability": "view",
      "type": "function"
    },
    {
      "inputs": [
        {
          "internalType": "uint256",
          "name": "location",
          "type": "uint256"
        },
        {
          "internalType": "uint256",
          "name": "monsterId",
          "type": "uint256"
        },
        {
          "components": [
            {
              "internalType": "uint256",
              "name": "characterId",
              "type": "uint256"
            },
            {
              "internalType": "int16",
              "name": "hpChange",
              "type": "int16"
            },
            {
              "internalType": "uint16",
              "name": "xpGained",
              "type": "uint16"
            },
            {
              "internalType": "uint256",
              "name": "gear",
              "type": "uint256"
            },
            {
              "internalType": "int64",
              "name": "durabilityChange",
              "type": "int64"
            },
            {
              "internalType": "int16[8]",
              "name": "balanceChange",
              "type": "int16[8]"
            },
            {
              "internalType": "uint16[8]",
              "name": "bounty",
              "type": "uint16[8]"
            }
          ],
          "internalType": "struct DungeonAdmin.MonsterReward[]",
          "name": "rewards",
          "type": "tuple[]"
        }
      ],
      "name": "monsterDefeated",
      "outputs": [],
      "stateMutability": "nonpayable",
      "type": "function"
    },
    {
      "inputs": [
        {
          "internalType": "contract DungeonAdminFacet",
          "name": "dungeon",
          "type": "address"
        },
        {
          "internalType": "address",
          "name": "backendAddress",
          "type": "address"
        }
      ],
      "name": "setDungeonAndBackend",
      "outputs": [],
      "stateMutability": "nonpayable",
      "type": "function"
    },
    {
      "inputs": [
        {
          "internalType": "uint256",
          "name": "characterId",
          "type": "uint256"
        },
        {
          "internalType": "uint256",
          "name": "location",
          "type": "uint256"
        }
      ],
      "name": "teleportCharacter",
      "outputs": [],
      "stateMutability": "nonpayable",
      "type": "function"
    },
    {
      "inputs": [
        {
          "internalType": "uint256",
          "name": "characterId",
          "type": "uint256"
        },
        {
          "internalType": "uint256",
          "name": "monsterId",
          "type": "uint256"
        },
        {
          "internalType": "int16",
          "name": "hpChange",
          "type": "int16"
        },
        {
          "internalType": "uint16",
          "name": "xpGained",
          "type": "uint16"
        },
        {
          "internalType": "uint256",
          "name": "gear",
          "type": "uint256"
        },
        {
          "internalType": "int64",
          "name": "durabilityChange",
          "type": "int64"
        },
        {
          "internalType": "int16[8]",
          "name": "balanceChange",
          "type": "int16[8]"
        }
      ],
      "name": "updateCharacter",
      "outputs": [],
      "stateMutability": "nonpayable",
      "type": "function"
    },
    {
      "inputs": [
        {
          "internalType": "uint256",
          "name": "character",
          "type": "uint256"
        },
        {
          "internalType": "uint64",
          "name": "id",
          "type": "uint64"
        },
        {
          "internalType": "uint8",
          "name": "status",
          "type": "uint8"
        },
        {
          "internalType": "string",
          "name": "data",
          "type": "string"
        }
      ],
      "name": "updateQuest",
      "outputs": [],
      "stateMutability": "nonpayable",
      "type": "function"
    },
    {
      "inputs": [
        {
          "internalType": "uint256",
          "name": "character",
          "type": "uint256"
        },
        {
          "internalType": "uint256",
          "name": "location",
          "type": "uint256"
        },
        {
          "internalType": "uint256",
          "name": "data",
          "type": "uint256"
        },
        {
          "internalType": "uint256[8]",
          "name": "amountsPayed",
          "type": "uint256[8]"
        }
      ],
      "name": "updateRoomData",
      "outputs": [],
      "stateMutability": "nonpayable",
      "type": "function"
    }
  ],
  "transactionHash": "0xb4eb6b4241941a19df6c60abe6b47acc7a5c4f6819f939c92710e4a4274857fe",
  "args": [
    "0x78fAf6C26b364141fAd67c544A2DdE6Bc985baf4"
  ],
  "numDeployments": 1,
  "solcInputHash": "3705cadeb86e4cfd473ba34c32cdc277",
  "bytecode": "0x60803461007457601f610da638819003918201601f19168301916001600160401b038311848410176100795780849260209460405283398101031261007457516001600160a01b0381169081900361007457600180546001600160a01b031916919091179055604051610d1690816100908239f35b600080fd5b634e487b7160e01b600052604160045260246000fdfe6080604052600436101561001257600080fd5b6000803560e01c80630604ba1314610a975780633090f65814610a33578063398f2168146109165780633ec37113146108e55780635dad2bb71461085d5780636fadcf72146106d85780639434e4e8146105ec578063ab5360601461058a578063b2f2dff9146104fc578063d8468f8f1461044e578063e6d48fe7146103d75763e8cc286e146100a157600080fd5b346103c95760603660031901126103c9576044359067ffffffffffffffff8083116103315736602384011215610331578260040135116103c9573660246102a0846004013502840101116103c95761010460018060a01b03600154163314610c74565b80546001600160a01b0316803b1561033157818091602460405180948193637507a1c960e01b835260043560048401525af180156103cc579082916103b5575b505b82600401358110610155575080f35b81546001600160a01b031661017282600486013560248701610cb9565b3590602061018884876004013560248901610cb9565b01358060010b810361036c5760406101a885886004013560248a01610cb9565b013561ffff811681036103b15760606101c986896004013560248b01610cb9565b013560806101df878a6004013560248c01610cb9565b0135918260070b83036103ad5760a0610200888b6004013560248d01610cb9565b0193853b156103a957604051630604ba1360e01b81526004810197909752602480359088015260010b604487015261ffff166064860152608485015260070b60a4840152600060c484015b6008821061038457505050816101c4818680945af1801561033557908391610370575b505081546001600160a01b031661028d82600486013560248701610cb9565b35906101a06102a484876004013560248901610cb9565b01813b1561036c57604051631ced22a360e31b81526004803590820152602481019390935284918391600090604484015b60088310610340575050508183610144925af180156103355790839161031d575b5050600019811461030957600101610146565b634e487b7160e01b82526011600452602482fd5b61032690610c12565b6103315781386102f6565b5080fd5b6040513d85823e3d90fd5b8193955060019294506020919061ffff61035a8493610bbc565b168152019201920184928794926102d5565b8480fd5b61037990610c12565b61033157813861026e565b602080600192610396869b999b610bae565b840b81520193019101909196949661024b565b8880fd5b8780fd5b8580fd5b6103be90610c12565b6103c9578038610144565b80fd5b6040513d84823e3d90fd5b50346103c957806103e736610c5e565b9060018060a01b036103fe81600154163314610c74565b83541691823b15610449576044849283604051958694859363e6d48fe760e01b8552600485015260248401525af180156103cc576104395750f35b61044290610c12565b6103c95780f35b505050fd5b50346103c9576101403660031901126103c957610469610bcb565b90610144913683116103315760018060a01b03600161048c828254163314610c74565b8184541691823b1561036c5760405163d8468f8f60e01b8152600480359082015293166024840152600060448085015b600883106104dc5786808781818c81838c5af180156103cc576104395750f35b839061ffff6104ea84610bbc565b168152920191602091820191016104bc565b50346103c9576101603660031901126103c95780610164368111610587576001546001600160a01b03906105339082163314610c74565b82541690813b1561058357829182916040518094819363b2f2dff960e01b83526004356004840152602435602484015260443560448401526101006064808501375af180156103cc576104395750f35b5050fd5b50fd5b50346103c9578061059a36610c5e565b9060018060a01b036105b181600154163314610c74565b83541691823b15610449576044849283604051958694859363055a9b0360e51b8552600485015260248401525af180156103cc576104395750f35b50346103c95760803660031901126103c9578060243567ffffffffffffffff8082168092036105835760443560ff8116809103610449576064359082821161036c573660238301121561036c57816004013592831161036c57366024848401011161036c576001546001600160a01b039061066a9082163314610c74565b85541690813b156103b1578560a4602496868397604051998a98899788956312869c9d60e31b875260043560048801528387015260448601526080606486015282608486015201848401378181018301849052601f01601f191681010301925af180156103cc576104395750f35b5060403660031901126103c9576001600160a01b039060043582811691908290036108585767ffffffffffffffff9260243584811161085457366023820112156108545780600401359485116108405760405191602095601f19926107448885601f8501160186610c3c565b81855236602483830101116103b15787828196989594936024899401838b01378801015261077781600154163314610c74565b845416906040519586936337d6e7b960e11b855260048501526040602485015280519081604486015285875b83811061082857505050838092601f838960648096860101520116810103019134905af191821561081b5781926107e1575b50506040519015158152f35b9091508281813d8311610814575b6107f98183610c3c565b8101031261033157519081151582036103c9575038806107d5565b503d6107ef565b50604051903d90823e3d90fd5b8281018201518a8201606401528996508791016107a3565b634e487b7160e01b83526041600452602483fd5b8280fd5b600080fd5b50346103c95760803660031901126103c957610877610b9e565b6064358060010b0361085857819060018060a01b0361089b81600154163314610c74565b82541690813b1561058357829160648392604051948593849263cf747b4960e01b84526004356004850152602435602485015260010b60448401525af180156103cc576104395750f35b50346103c957806003193601126103c95754600154604080516001600160a01b039384168152919092166020820152f35b50346103c957600319906060368301126103c95767ffffffffffffffff6024358181116108545761094b903690600401610be1565b9091604435908111610a2f57610965903690600401610be1565b92909160018060a01b0393600196610981868954163314610c74565b8587541692833b156103ad579560405196630731e42d60e31b8852806064890160043560048b0152606060248b01525260848801959189905b828210610a0a575050505085840301604486015280835294955085946001600160fb1b0381116103b1578560208682968196829560051b809285830137010301925af180156103cc576104395750f35b90919296873590828216809203610858579081526020908101970192918b01906109ba565b8380fd5b50346103c95760403660031901126103c9576001600160a01b036004358181169081900361085457610a63610bcb565b9160015492610a758285163314610c74565b6bffffffffffffffffffffffff60a01b92838654161785551691161760015580f35b50346103c9576101c03660031901126103c957610ab2610b9e565b60643561ffff81168091036108545760a435908160070b809203610a2f576101c49136831161036c5760018060a01b0390600191610af4818454163314610c74565b86541692833b15610b9a57604051630604ba1360e01b81526004803590820152602480359082015295830b60448701526064860152608480359086015260a48501528492849290918460c48086015b60088310610b6e57505050508383915af180156103cc57610b62575080f35b610b6b90610c12565b80f35b90929496508491939550610b8183610bae565b820b815260208091019201920186949288969492610b43565b8680fd5b604435908160010b820361085857565b35908160010b820361085857565b359061ffff8216820361085857565b602435906001600160a01b038216820361085857565b9181601f840112156108585782359167ffffffffffffffff8311610858576020808501948460051b01011161085857565b67ffffffffffffffff8111610c2657604052565b634e487b7160e01b600052604160045260246000fd5b90601f8019910116810190811067ffffffffffffffff821117610c2657604052565b6040906003190112610858576004359060243590565b15610c7b57565b60405162461bcd60e51b81526020600482015260166024820152751393d517d055551213d49256915117d09050d2d1539160521b6044820152606490fd5b9190811015610cca576102a0020190565b634e487b7160e01b600052603260045260246000fdfea26469706673582212201aa159fbe162dd985cc3540ed0f56559e087754eec46ff2cc8a985ef5d738d2364736f6c63430008140033",
  "devdoc": {
    "kind": "dev",
    "methods": {},
    "version": 1
  },
  "userdoc": {
    "kind": "user",
    "methods": {},
    "version": 1
  },
  "storageLayout": {
    "storage": [
      {
        "astId": 1149,
        "contract": "src/dungeon/DungeonAdmin.sol:DungeonAdmin",
        "label": "_dungeon",
        "offset": 0,
        "slot": "0",
        "type": "t_contract(DungeonAdminFacet)2511"
      },
      {
        "astId": 1151,
        "contract": "src/dungeon/DungeonAdmin.sol:DungeonAdmin",
        "label": "_backendAddress",
        "offset": 0,
        "slot": "1",
        "type": "t_address"
      }
    ],
    "types": {
      "t_address": {
        "encoding": "inplace",
        "label": "address",
        "numberOfBytes": "20"
      },
      "t_contract(DungeonAdminFacet)2511": {
        "encoding": "inplace",
        "label": "contract DungeonAdminFacet",
        "numberOfBytes": "20"
      }
    }
  }
}