{
  "address": "0xc1c320BDdf32C15aD161Ba6056b99f7AeBF24c67",
  "abi": [
    {
      "anonymous": false,
      "inputs": [
        {
          "indexed": true,
          "internalType": "address",
          "name": "owner",
          "type": "address"
        },
        {
          "indexed": true,
          "internalType": "address",
          "name": "operator",
          "type": "address"
        },
        {
          "indexed": false,
          "internalType": "bool",
          "name": "approved",
          "type": "bool"
        }
      ],
      "name": "ApprovalForAll",
      "type": "event"
    },
    {
      "anonymous": false,
      "inputs": [
        {
          "indexed": true,
          "internalType": "uint256",
          "name": "id",
          "type": "uint256"
        },
        {
          "indexed": true,
          "internalType": "uint256",
          "name": "data",
          "type": "uint256"
        }
      ],
      "name": "DataUpdate",
      "type": "event"
    },
    {
      "anonymous": false,
      "inputs": [
        {
          "indexed": true,
          "internalType": "uint256",
          "name": "from",
          "type": "uint256"
        },
        {
          "indexed": true,
          "internalType": "uint256",
          "name": "to",
          "type": "uint256"
        },
        {
          "indexed": true,
          "internalType": "uint256",
          "name": "id",
          "type": "uint256"
        }
      ],
      "name": "SubTransfer",
      "type": "event"
    },
    {
      "anonymous": false,
      "inputs": [
        {
          "indexed": true,
          "internalType": "address",
          "name": "from",
          "type": "address"
        },
        {
          "indexed": true,
          "internalType": "address",
          "name": "to",
          "type": "address"
        },
        {
          "indexed": true,
          "internalType": "uint256",
          "name": "id",
          "type": "uint256"
        }
      ],
      "name": "Transfer",
      "type": "event"
    },
    {
      "inputs": [
        {
          "internalType": "address",
          "name": "from",
          "type": "address"
        },
        {
          "internalType": "address",
          "name": "to",
          "type": "address"
        },
        {
          "internalType": "uint256[]",
          "name": "ids",
          "type": "uint256[]"
        }
      ],
      "name": "batchTransferFrom",
      "outputs": [],
      "stateMutability": "nonpayable",
      "type": "function"
    },
    {
      "inputs": [
        {
          "internalType": "uint256",
          "name": "id",
          "type": "uint256"
        }
      ],
      "name": "getData",
      "outputs": [
        {
          "internalType": "uint256",
          "name": "",
          "type": "uint256"
        }
      ],
      "stateMutability": "view",
      "type": "function"
    },
    {
      "inputs": [
        {
          "internalType": "address",
          "name": "owner",
          "type": "address"
        },
        {
          "internalType": "address",
          "name": "operator",
          "type": "address"
        }
      ],
      "name": "isApprovedForAll",
      "outputs": [
        {
          "internalType": "bool",
          "name": "",
          "type": "bool"
        }
      ],
      "stateMutability": "view",
      "type": "function"
    },
    {
      "inputs": [
        {
          "internalType": "uint256",
          "name": "subOwner",
          "type": "uint256"
        },
        {
          "internalType": "uint256",
          "name": "data",
          "type": "uint256"
        }
      ],
      "name": "mint",
      "outputs": [
        {
          "internalType": "uint256",
          "name": "id",
          "type": "uint256"
        }
      ],
      "stateMutability": "nonpayable",
      "type": "function"
    },
    {
      "inputs": [
        {
          "internalType": "uint256",
          "name": "id",
          "type": "uint256"
        },
        {
          "internalType": "uint256",
          "name": "subOwner",
          "type": "uint256"
        }
      ],
      "name": "mintId",
      "outputs": [],
      "stateMutability": "nonpayable",
      "type": "function"
    },
    {
      "inputs": [
        {
          "internalType": "uint256",
          "name": "id",
          "type": "uint256"
        }
      ],
      "name": "ownerOf",
      "outputs": [
        {
          "internalType": "address",
          "name": "",
          "type": "address"
        }
      ],
      "stateMutability": "view",
      "type": "function"
    },
    {
      "inputs": [
        {
          "internalType": "address",
          "name": "dungeon",
          "type": "address"
        }
      ],
      "name": "postUpgrade",
      "outputs": [],
      "stateMutability": "nonpayable",
      "type": "function"
    },
    {
      "inputs": [
        {
          "internalType": "address",
          "name": "operator",
          "type": "address"
        },
        {
          "internalType": "bool",
          "name": "approved",
          "type": "bool"
        }
      ],
      "name": "setApprovalForAll",
      "outputs": [],
      "stateMutability": "nonpayable",
      "type": "function"
    },
    {
      "inputs": [
        {
          "internalType": "uint256",
          "name": "id",
          "type": "uint256"
        },
        {
          "internalType": "uint256",
          "name": "data",
          "type": "uint256"
        }
      ],
      "name": "setData",
      "outputs": [],
      "stateMutability": "nonpayable",
      "type": "function"
    },
    {
      "inputs": [
        {
          "internalType": "uint256",
          "name": "subOwner",
          "type": "uint256"
        }
      ],
      "name": "subBalanceOf",
      "outputs": [
        {
          "internalType": "uint256",
          "name": "",
          "type": "uint256"
        }
      ],
      "stateMutability": "view",
      "type": "function"
    },
    {
      "inputs": [
        {
          "internalType": "address",
          "name": "owner",
          "type": "address"
        },
        {
          "internalType": "uint256",
          "name": "from",
          "type": "uint256"
        },
        {
          "internalType": "uint256",
          "name": "to",
          "type": "uint256"
        },
        {
          "internalType": "uint256[]",
          "name": "ids",
          "type": "uint256[]"
        }
      ],
      "name": "subBatchTransferFrom",
      "outputs": [],
      "stateMutability": "nonpayable",
      "type": "function"
    },
    {
      "inputs": [
        {
          "internalType": "uint256",
          "name": "id",
          "type": "uint256"
        }
      ],
      "name": "subBurn",
      "outputs": [],
      "stateMutability": "nonpayable",
      "type": "function"
    },
    {
      "inputs": [
        {
          "internalType": "uint256",
          "name": "id",
          "type": "uint256"
        }
      ],
      "name": "subOwnerOf",
      "outputs": [
        {
          "internalType": "uint256",
          "name": "",
          "type": "uint256"
        }
      ],
      "stateMutability": "view",
      "type": "function"
    },
    {
      "inputs": [
        {
          "internalType": "address",
          "name": "owner",
          "type": "address"
        },
        {
          "internalType": "uint256",
          "name": "from",
          "type": "uint256"
        },
        {
          "internalType": "uint256",
          "name": "to",
          "type": "uint256"
        },
        {
          "internalType": "uint256",
          "name": "id",
          "type": "uint256"
        }
      ],
      "name": "subTransferFrom",
      "outputs": [],
      "stateMutability": "nonpayable",
      "type": "function"
    },
    {
      "inputs": [
        {
          "internalType": "address",
          "name": "from",
          "type": "address"
        },
        {
          "internalType": "address",
          "name": "to",
          "type": "address"
        },
        {
          "internalType": "uint256",
          "name": "id",
          "type": "uint256"
        }
      ],
      "name": "transferFrom",
      "outputs": [],
      "stateMutability": "nonpayable",
      "type": "function"
    }
  ],
  "transactionHash": "0x519a25419f4b65e2bdf059f49fe4c017ace04c73fecdd3887d047cec68f37382",
  "args": [],
  "numDeployments": 1,
  "solcInputHash": "3705cadeb86e4cfd473ba34c32cdc277",
  "bytecode": "0x6080806040523461001657610de5908161001c8239f35b600080fdfe608060408181526004908136101561001657600080fd5b600092833560e01c9081630178fe3f14610b8c575080631b2ef1ca14610ab157806323b872dd146109625780634848b1a514610894578063603d4ca0146107c15780636352211e1461074d5780636611a8d4146106b557806369f648a11461068d5780637ba764f7146104f0578063a22cb4651461046b578063b67218981461034e578063c79b2430146102d6578063c9a59e47146102af578063e985e9c51461025d5763f3993d11146100c957600080fd5b34610259576060366003190112610259576100e2610bcc565b6100ea610be2565b9260443567ffffffffffffffff81116102555761010a9036908301610bf8565b90946001600160a01b03908116939192918190610128861515610d36565b16923384148015610237575b156101f457875b818110610146578880f35b806101556101bc92848b610d10565b35808b52808b8a60026101738b8a6020948486528620541614610c9d565b83835281528b822080546001600160a01b0319168c179055600381528b82208054918a91836101c1575b50505050899150600080516020610d90833981519152818a92a4610c6b565b61013b565b849055828452528b82206101d58154610c90565b9055600080516020610d708339815191528280a4808b3888818061019d565b855162461bcd60e51b8152602081850152601d60248201527f4e4f545f415554484f52495a45445f42415443485f5452414e534645520000006044820152606490fd5b50838852600660205285882033895260205260ff8689205416610134565b8580fd5b8280fd5b8382346102ab57806003193601126102ab5760ff8160209361027d610bcc565b610285610be2565b6001600160a01b0391821683526006875283832091168252855220549151911615158152f35b5080fd5b50903461025957602036600319011261025957602092818392358252845220549051908152f35b833461034b57602036600319011261034b576102f0610bcc565b7fb53127684a568b3173ae13b9f8a6016e243e63b6e8ee1178d6a717850b5d610380546001600160a01b039291839182168061033d5750555b82546001600160a01b031916911617815580f35b915050330315610329578280fd5b80fd5b50903461025957608036600319011261025957610369610bcc565b6064359260443592602435926001600160a01b0390811690338214801561044d575b1561040a57906103a8918789526002602052848920541614610c9d565b8486526003602052818620546103bf848214610cd5565b858752600360205284838820558652806020528186206103df8154610c90565b905583865260205284206103f38154610c6b565b9055600080516020610d708339815191528480a480f35b835162461bcd60e51b8152602081850152601b60248201527f4e4f545f415554484f52495a45445f5355425f5452414e5346455200000000006044820152606490fd5b50818852600660205283882033895260205260ff848920541661038b565b8382346102ab57806003193601126102ab57610485610bcc565b90602435908115158092036104ec5733845260066020528084209260018060a01b03169283855260205280842060ff1981541660ff8416179055519081527f17307eab39ab6107e8899845ad3d59bd9653f200f220920489ca2b5937696c3160203392a380f35b8380fd5b5090346102595760803660031901126102595761050b610bcc565b9160443560243560643567ffffffffffffffff8111610689576105319036908601610bf8565b956001600160a01b0390811690338214801561066b575b1561061e5787895b8a87878484106105b857505094505050505052826020528185208054908582039182116105a55755845281602052832090815492830180931161059257505580f35b634e487b7160e01b845260119052602483fd5b634e487b7160e01b875260118552602487fd5b600080516020610d708339815191526105d585610617978b610d10565b35938481528c6020600281526105f18a83852054168c14610c9d565b8683526106078560039384845285205414610cd5565b86835252838d82205580a4610c6b565b8890610550565b855162461bcd60e51b8152602081890152602160248201527f4e4f545f415554484f52495a45445f5355425f42415443485f5452414e5346456044820152602960f91b6064820152608490fd5b508189526006602052858920338a5260205260ff868a205416610548565b8680fd5b5090346102595760203660031901126102595760209282913581526003845220549051908152f35b509034610259576106c536610bb1565b91819360018060a01b03916106de838854163314610c29565b838752600360205284828820558487526020528086206106fe8154610c6b565b9055818654169083875260026020528620906001600160601b0360a01b82541617905584541684600080516020610d908339815191528180a482600080516020610d708339815191528180a480f35b50913461034b57602036600319011261034b57813581526002602052829020546001600160a01b0316908115610787575060209151908152f35b606490602084519162461bcd60e51b835282015260146024820152731d1bdad95b88191bd95cc81b9bdd08195e1a5cdd60621b6044820152fd5b503461025957602090816003193601126104ec578235928385526002835260018060a01b038286205416338114908115610878575b50156108375790849291848452600383528184209284845494558385525282206108208154610c90565b9055600080516020610d708339815191528280a480f35b82606492519162461bcd60e51b8352820152601760248201527f4e4f545f415554484f52495a45445f5355425f4255524e0000000000000000006044820152fd5b8652506006835281852033865283528185205460ff16386107f6565b509034610259576108a436610bb1565b929091828552600260205260018060a01b038286205416338114908115610943575b50156109015750829082855260086020528420557f9b0b427d54b1902d475dd6da2557b731e9aa63c7a9bd8d6021eef24f2d0eaf488380a380f35b6020606492519162461bcd60e51b8352820152601760248201527f4e4f545f415554484f52495a45445f5345545f444154410000000000000000006044820152fd5b90508552600660205281852033865260205260ff8286205416386108c6565b5090346102595760603660031901126102595761097d610bcc565b90610986610be2565b604435936001600160a01b039182169391929183906109a6861515610d36565b16923384148015610a93575b15610a50579186916109d38588958686526002602052838620541614610c9d565b8383526002602052808320866001600160601b0360a01b82541617905560036020528083209182549283610a1c575b50505050600080516020610d90833981519152915080a480f35b8490558284526020528220610a318154610c90565b9055600080516020610d708339815191528280a4828438808080610a02565b815162461bcd60e51b8152602081850152601760248201527f4e4f545f415554484f52495a45445f5452414e534645520000000000000000006044820152606490fd5b50838752600660205281872033885260205260ff82882054166109b2565b509190346102ab57602092610ac536610bb1565b9360018060a01b0393610adc858354163314610c29565b610ae7600154610c6b565b94859485928360015583855260038a5285828620558585528952808420610b0e8154610c6b565b90558184541683855260028a52818520906001600160601b0360a01b8254161790556008895287818520555196827f9b0b427d54b1902d475dd6da2557b731e9aa63c7a9bd8d6021eef24f2d0eaf488580a382541682600080516020610d908339815191528180a4600080516020610d708339815191528180a48152f35b929050346104ec5760203660031901126104ec57926020933581526008845220548152f35b6040906003190112610bc7576004359060243590565b600080fd5b600435906001600160a01b0382168203610bc757565b602435906001600160a01b0382168203610bc757565b9181601f84011215610bc75782359167ffffffffffffffff8311610bc7576020808501948460051b010111610bc757565b15610c3057565b60405162461bcd60e51b81526020600482015260136024820152721393d517d055551213d49256915117d3525395606a1b6044820152606490fd5b6000198114610c7a5760010190565b634e487b7160e01b600052601160045260246000fd5b8015610c7a576000190190565b15610ca457565b60405162461bcd60e51b81526020600482015260096024820152683737ba1037bbb732b960b91b6044820152606490fd5b15610cdc57565b60405162461bcd60e51b815260206004820152600c60248201526b3737ba1039bab127b73bb2b960a11b6044820152606490fd5b9190811015610d205760051b0190565b634e487b7160e01b600052603260045260246000fd5b15610d3d57565b60405162461bcd60e51b815260206004820152600a602482015269696e76616c696420746f60b01b6044820152606490fdfe8641d9f2365a4c17a0f807e0ba24c82176c417f81cbdde43da4954c1c402704dddf252ad1be2c89b69c2b068fc378daa952ba7f163c4a11628f55a4df523b3efa264697066735822122085eaf32ae344138610ccbecb1e992a112c9f868d8d5bd55fa5d94396e034115064736f6c63430008140033",
  "devdoc": {
    "kind": "dev",
    "methods": {},
    "version": 1
  },
  "userdoc": {
    "kind": "user",
    "methods": {},
    "version": 1
  },
  "storageLayout": {
    "storage": [
      {
        "astId": 13043,
        "contract": "src/tokens/Rooms.sol:Rooms",
        "label": "_minter",
        "offset": 0,
        "slot": "0",
        "type": "t_address"
      },
      {
        "astId": 13045,
        "contract": "src/tokens/Rooms.sol:Rooms",
        "label": "_lastId",
        "offset": 0,
        "slot": "1",
        "type": "t_uint256"
      },
      {
        "astId": 13049,
        "contract": "src/tokens/Rooms.sol:Rooms",
        "label": "_owners",
        "offset": 0,
        "slot": "2",
        "type": "t_mapping(t_uint256,t_address)"
      },
      {
        "astId": 13053,
        "contract": "src/tokens/Rooms.sol:Rooms",
        "label": "_subOwners",
        "offset": 0,
        "slot": "3",
        "type": "t_mapping(t_uint256,t_uint256)"
      },
      {
        "astId": 13057,
        "contract": "src/tokens/Rooms.sol:Rooms",
        "label": "_subNumNFTPerAddress",
        "offset": 0,
        "slot": "4",
        "type": "t_mapping(t_uint256,t_uint256)"
      },
      {
        "astId": 13061,
        "contract": "src/tokens/Rooms.sol:Rooms",
        "label": "_numNFTPerAddress",
        "offset": 0,
        "slot": "5",
        "type": "t_mapping(t_address,t_uint256)"
      },
      {
        "astId": 13067,
        "contract": "src/tokens/Rooms.sol:Rooms",
        "label": "_operatorsForAll",
        "offset": 0,
        "slot": "6",
        "type": "t_mapping(t_address,t_mapping(t_address,t_bool))"
      },
      {
        "astId": 13071,
        "contract": "src/tokens/Rooms.sol:Rooms",
        "label": "_operators",
        "offset": 0,
        "slot": "7",
        "type": "t_mapping(t_uint256,t_address)"
      },
      {
        "astId": 13075,
        "contract": "src/tokens/Rooms.sol:Rooms",
        "label": "_data",
        "offset": 0,
        "slot": "8",
        "type": "t_mapping(t_uint256,t_uint256)"
      }
    ],
    "types": {
      "t_address": {
        "encoding": "inplace",
        "label": "address",
        "numberOfBytes": "20"
      },
      "t_bool": {
        "encoding": "inplace",
        "label": "bool",
        "numberOfBytes": "1"
      },
      "t_mapping(t_address,t_bool)": {
        "encoding": "mapping",
        "key": "t_address",
        "label": "mapping(address => bool)",
        "numberOfBytes": "32",
        "value": "t_bool"
      },
      "t_mapping(t_address,t_mapping(t_address,t_bool))": {
        "encoding": "mapping",
        "key": "t_address",
        "label": "mapping(address => mapping(address => bool))",
        "numberOfBytes": "32",
        "value": "t_mapping(t_address,t_bool)"
      },
      "t_mapping(t_address,t_uint256)": {
        "encoding": "mapping",
        "key": "t_address",
        "label": "mapping(address => uint256)",
        "numberOfBytes": "32",
        "value": "t_uint256"
      },
      "t_mapping(t_uint256,t_address)": {
        "encoding": "mapping",
        "key": "t_uint256",
        "label": "mapping(uint256 => address)",
        "numberOfBytes": "32",
        "value": "t_address"
      },
      "t_mapping(t_uint256,t_uint256)": {
        "encoding": "mapping",
        "key": "t_uint256",
        "label": "mapping(uint256 => uint256)",
        "numberOfBytes": "32",
        "value": "t_uint256"
      },
      "t_uint256": {
        "encoding": "inplace",
        "label": "uint256",
        "numberOfBytes": "32"
      }
    }
  }
}