{
  "address": "0xC11aa02eE6d4d3353100493A3C83b5b62630eE0A",
  "abi": [
    {
      "anonymous": false,
      "inputs": [
        {
          "indexed": true,
          "internalType": "uint256",
          "name": "characterId",
          "type": "uint256"
        },
        {
          "indexed": true,
          "internalType": "uint256",
          "name": "oldLocation",
          "type": "uint256"
        },
        {
          "indexed": true,
          "internalType": "uint256",
          "name": "newLocation",
          "type": "uint256"
        },
        {
          "indexed": false,
          "internalType": "uint8",
          "name": "mode",
          "type": "uint8"
        },
        {
          "indexed": false,
          "internalType": "uint256",
          "name": "path",
          "type": "uint256"
        }
      ],
      "name": "CharacterMoved",
      "type": "event"
    },
    {
      "anonymous": false,
      "inputs": [
        {
          "indexed": true,
          "internalType": "uint256",
          "name": "characterId",
          "type": "uint256"
        },
        {
          "indexed": false,
          "internalType": "uint256",
          "name": "monsterId",
          "type": "uint256"
        }
      ],
      "name": "Death",
      "type": "event"
    },
    {
      "anonymous": false,
      "inputs": [
        {
          "indexed": true,
          "internalType": "uint256",
          "name": "characterId",
          "type": "uint256"
        },
        {
          "indexed": true,
          "internalType": "address",
          "name": "player",
          "type": "address"
        },
        {
          "indexed": false,
          "internalType": "string",
          "name": "name",
          "type": "string"
        }
      ],
      "name": "Enter",
      "type": "event"
    },
    {
      "anonymous": false,
      "inputs": [
        {
          "indexed": false,
          "internalType": "uint256",
          "name": "characterId",
          "type": "uint256"
        },
        {
          "indexed": false,
          "internalType": "uint256",
          "name": "gearId",
          "type": "uint256"
        },
        {
          "indexed": false,
          "internalType": "uint8",
          "name": "slotType",
          "type": "uint8"
        }
      ],
      "name": "Equip",
      "type": "event"
    },
    {
      "anonymous": false,
      "inputs": [
        {
          "indexed": true,
          "internalType": "uint256",
          "name": "characterId",
          "type": "uint256"
        },
        {
          "indexed": false,
          "internalType": "uint16",
          "name": "hp",
          "type": "uint16"
        }
      ],
      "name": "Heal",
      "type": "event"
    },
    {
      "anonymous": false,
      "inputs": [
        {
          "indexed": true,
          "internalType": "uint256",
          "name": "characterId",
          "type": "uint256"
        },
        {
          "indexed": false,
          "internalType": "uint16",
          "name": "newLevel",
          "type": "uint16"
        }
      ],
      "name": "LevelUp",
      "type": "event"
    },
    {
      "anonymous": false,
      "inputs": [
        {
          "indexed": true,
          "internalType": "uint256",
          "name": "characterId",
          "type": "uint256"
        },
        {
          "indexed": true,
          "internalType": "uint64",
          "name": "id",
          "type": "uint64"
        },
        {
          "indexed": true,
          "internalType": "uint8",
          "name": "status",
          "type": "uint8"
        },
        {
          "indexed": false,
          "internalType": "string",
          "name": "data",
          "type": "string"
        }
      ],
      "name": "QuestUpdate",
      "type": "event"
    },
    {
      "anonymous": false,
      "inputs": [
        {
          "indexed": true,
          "internalType": "uint256",
          "name": "areaLocation",
          "type": "uint256"
        },
        {
          "indexed": false,
          "internalType": "uint64",
          "name": "blockNumber",
          "type": "uint64"
        }
      ],
      "name": "RandomEvent",
      "type": "event"
    },
    {
      "anonymous": false,
      "inputs": [
        {
          "indexed": true,
          "internalType": "uint256",
          "name": "characterId",
          "type": "uint256"
        },
        {
          "indexed": false,
          "internalType": "uint256",
          "name": "gearId",
          "type": "uint256"
        }
      ],
      "name": "Recycle",
      "type": "event"
    },
    {
      "anonymous": false,
      "inputs": [
        {
          "indexed": true,
          "internalType": "uint256",
          "name": "deadCharacterId",
          "type": "uint256"
        },
        {
          "indexed": false,
          "internalType": "uint256",
          "name": "newCharacterId",
          "type": "uint256"
        }
      ],
      "name": "Resurrect",
      "type": "event"
    },
    {
      "anonymous": false,
      "inputs": [
        {
          "indexed": true,
          "internalType": "uint256",
          "name": "location",
          "type": "uint256"
        },
        {
          "indexed": false,
          "internalType": "bytes32",
          "name": "blockHash",
          "type": "bytes32"
        },
        {
          "indexed": false,
          "internalType": "uint8",
          "name": "exits",
          "type": "uint8"
        },
        {
          "indexed": false,
          "internalType": "uint8",
          "name": "kind",
          "type": "uint8"
        }
      ],
      "name": "RoomActualised",
      "type": "event"
    },
    {
      "anonymous": false,
      "inputs": [
        {
          "indexed": true,
          "internalType": "uint256",
          "name": "location",
          "type": "uint256"
        },
        {
          "indexed": false,
          "internalType": "uint64",
          "name": "blockNumber",
          "type": "uint64"
        },
        {
          "indexed": false,
          "internalType": "uint8",
          "name": "direction",
          "type": "uint8"
        }
      ],
      "name": "RoomDiscovered",
      "type": "event"
    },
    {
      "anonymous": false,
      "inputs": [
        {
          "indexed": true,
          "internalType": "uint256",
          "name": "location",
          "type": "uint256"
        },
        {
          "indexed": true,
          "internalType": "address",
          "name": "owner",
          "type": "address"
        },
        {
          "indexed": false,
          "internalType": "uint256",
          "name": "id",
          "type": "uint256"
        },
        {
          "indexed": false,
          "internalType": "uint256",
          "name": "amount",
          "type": "uint256"
        }
      ],
      "name": "RoomIncome",
      "type": "event"
    },
    {
      "anonymous": false,
      "inputs": [
        {
          "indexed": true,
          "internalType": "uint256",
          "name": "location",
          "type": "uint256"
        },
        {
          "indexed": false,
          "internalType": "string",
          "name": "name",
          "type": "string"
        },
        {
          "indexed": false,
          "internalType": "uint256",
          "name": "characterId",
          "type": "uint256"
        }
      ],
      "name": "RoomName",
      "type": "event"
    },
    {
      "anonymous": false,
      "inputs": [
        {
          "indexed": true,
          "internalType": "address",
          "name": "owner",
          "type": "address"
        },
        {
          "indexed": false,
          "internalType": "uint256",
          "name": "tax",
          "type": "uint256"
        },
        {
          "indexed": false,
          "internalType": "uint256",
          "name": "newDueDate",
          "type": "uint256"
        }
      ],
      "name": "RoomTaxPay",
      "type": "event"
    },
    {
      "inputs": [
        {
          "internalType": "uint256",
          "name": "location",
          "type": "uint256"
        }
      ],
      "name": "getAreaTypeForRoom",
      "outputs": [
        {
          "internalType": "uint8",
          "name": "",
          "type": "uint8"
        }
      ],
      "stateMutability": "view",
      "type": "function"
    },
    {
      "inputs": [
        {
          "internalType": "uint256",
          "name": "characterId",
          "type": "uint256"
        }
      ],
      "name": "getCharacterInfo",
      "outputs": [
        {
          "internalType": "uint256",
          "name": "location",
          "type": "uint256"
        },
        {
          "internalType": "uint8",
          "name": "direction",
          "type": "uint8"
        },
        {
          "internalType": "uint256",
          "name": "data",
          "type": "uint256"
        },
        {
          "internalType": "uint256",
          "name": "attackGear",
          "type": "uint256"
        },
        {
          "internalType": "uint256",
          "name": "defenseGear",
          "type": "uint256"
        },
        {
          "internalType": "uint256",
          "name": "accessory1",
          "type": "uint256"
        },
        {
          "internalType": "uint256",
          "name": "accessory2",
          "type": "uint256"
        },
        {
          "internalType": "uint256",
          "name": "accessory3",
          "type": "uint256"
        },
        {
          "internalType": "int64",
          "name": "floors",
          "type": "int64"
        },
        {
          "internalType": "uint256",
          "name": "taxDueDate",
          "type": "uint256"
        },
        {
          "internalType": "address",
          "name": "player",
          "type": "address"
        }
      ],
      "stateMutability": "view",
      "type": "function"
    },
    {
      "inputs": [
        {
          "internalType": "uint256",
          "name": "characterId",
          "type": "uint256"
        }
      ],
      "name": "getCharacterLocation",
      "outputs": [
        {
          "internalType": "uint256",
          "name": "location",
          "type": "uint256"
        }
      ],
      "stateMutability": "view",
      "type": "function"
    },
    {
      "inputs": [
        {
          "internalType": "uint256",
          "name": "location",
          "type": "uint256"
        }
      ],
      "name": "getCustomRoomName",
      "outputs": [
        {
          "internalType": "string",
          "name": "name",
          "type": "string"
        }
      ],
      "stateMutability": "view",
      "type": "function"
    },
    {
      "inputs": [
        {
          "internalType": "uint256",
          "name": "characterId",
          "type": "uint256"
        },
        {
          "internalType": "uint64",
          "name": "id",
          "type": "uint64"
        }
      ],
      "name": "getQuest",
      "outputs": [
        {
          "internalType": "uint8",
          "name": "status",
          "type": "uint8"
        },
        {
          "internalType": "string",
          "name": "data",
          "type": "string"
        }
      ],
      "stateMutability": "view",
      "type": "function"
    },
    {
      "inputs": [
        {
          "internalType": "uint256",
          "name": "location",
          "type": "uint256"
        }
      ],
      "name": "getRoomInfo",
      "outputs": [
        {
          "internalType": "uint256",
          "name": "blockNumber",
          "type": "uint256"
        },
        {
          "internalType": "uint256",
          "name": "monsterBlockNumber",
          "type": "uint256"
        },
        {
          "internalType": "uint8",
          "name": "direction",
          "type": "uint8"
        },
        {
          "internalType": "uint8",
          "name": "areaAtDiscovery",
          "type": "uint8"
        },
        {
          "internalType": "uint8",
          "name": "lastRoomIndex",
          "type": "uint8"
        },
        {
          "internalType": "uint8",
          "name": "index",
          "type": "uint8"
        },
        {
          "internalType": "bool",
          "name": "actualised",
          "type": "bool"
        },
        {
          "internalType": "uint64",
          "name": "numActiveCharacters",
          "type": "uint64"
        },
        {
          "internalType": "uint8",
          "name": "kind",
          "type": "uint8"
        },
        {
          "internalType": "uint64",
          "name": "randomEvent",
          "type": "uint64"
        },
        {
          "internalType": "uint256",
          "name": "discoverer",
          "type": "uint256"
        }
      ],
      "stateMutability": "view",
      "type": "function"
    },
    {
      "inputs": [
        {
          "internalType": "uint256",
          "name": "characterId",
          "type": "uint256"
        },
        {
          "internalType": "uint256",
          "name": "location1",
          "type": "uint256"
        },
        {
          "internalType": "uint256",
          "name": "location2",
          "type": "uint256"
        }
      ],
      "name": "isUnlocked",
      "outputs": [
        {
          "internalType": "bool",
          "name": "",
          "type": "bool"
        }
      ],
      "stateMutability": "view",
      "type": "function"
    }
  ],
  "transactionHash": "0x94708f4e391844120ff29e682f90e92011e5d684e6576ece17719c54b0114a91",
  "args": [],
  "numDeployments": 2,
  "linkedData": {
    "readOnlyDungeon": "0x60806040523461001a576040516128cc61002082396128cc90f35b600080fdfe6080604052600436101561001257600080fd5b60003560e01c80630ececfea14610152578063213ee1431461014d5780632f5877961461014857806330ad9329146101435780633683dee11461013e578063467b47931461013957806356b5c381146101345780637a9234741461012f5780639f7cb08e1461012a578063a48378ff14610125578063acda69ca14610120578063b0ca9dfe1461011b578063c3aab23c14610116578063d5763a8014610111578063d667fd041461010c578063ed53a62414610107578063f090aca814610102578063f6940ac7146100fd578063fcaf8951146100f85763ff5335fa0361015757610887565b61086b565b61083b565b6107d9565b6107ba565b610728565b6106bf565b61064e565b6105fc565b6105da565b61054c565b610518565b610499565b610452565b610436565b6103af565b61033b565b6102d8565b610293565b6101cb565b600080fd5b805b0361015757565b905035906101728261015c565b565b9190604083820312610157576101979061018e8185610165565b93602001610165565b90565b9052565b6001600160401b031690565b61019a9061019e565b908152604081019291610172916020905b01906101aa565b34610157576101e46101de366004610174565b90612758565b906101fa6101f160405190565b928392836101b3565b0390f35b60ff811661015e565b90503590610172826101fe565b909160c0828403126101575761022a8383610165565b926102388160208501610165565b926102468260408301610207565b926101976102578460608501610207565b936102658160808601610207565b9360a001610207565b60ff918216815291166020820152606081019291610172916040905b019060ff169052565b34610157576101fa6102b56102a9366004610214565b94939093929192611472565b6040519193919384938461026e565b906020828203126101575761019791610165565b34610157576101fa6102f36102ee3660046102c4565b610c64565b6040519182918290815260200190565b6101c461017294610331606094989795610327608086019a600087019060070b9052565b60070b6020850152565b60070b6040830152565b34610157576101fa6103566103513660046102c4565b610996565b9061036394929460405190565b94859485610303565b9091606082840312610157576101976103858484610165565b936103938160208601610165565b93604001610207565b9081526040810192916101729160200152565b34610157576103c86103c236600461036c565b916110f9565b906101fa6103d560405190565b9283928361039c565b909182601f83011215610157578135916001600160401b03831161015757602001926020830284011161015757565b906020828203126101575781356001600160401b0381116101575761043292016103de565b9091565b34610157576101fa6102f361044c36600461040d565b906126a2565b34610157576101fa6102f3610468366004610174565b9061286f565b61ffff811661015e565b905035906101728261046e565b906020828203126101575761019791610478565b34610157576101fa6102f36104af366004610485565b61263d565b919461050161050c929897956104f660a0966104ec6101729a6104e260c08a019e60008b019061ffff169052565b60ff166020890152565b60ff166040870152565b61ffff166060850152565b61ffff166080830152565b019063ffffffff169052565b34610157576101fa61053361052e3660046102c4565b6122c1565b9261054396949692919260405190565b968796876104b4565b34610157576101fa6102f36105623660046102c4565b611415565b63ffffffff811661015e565b9050359061017282610567565b909160c082840312610157576105968383610478565b926105a48160208501610207565b926105b28260408301610207565b926101976105c38460608501610478565b936105d18160808601610478565b9360a001610573565b34610157576101fa6102f36105f0366004610580565b949390939291926121ed565b34610157576101fa6102f3610612366004610174565b9061274e565b906020828203126101575761019791610207565b61ffff909116815260608101939261017292909160409161028a906020830152565b34610157576101fa610669610664366004610618565b612379565b6040519193919384938461062c565b61015e8160070b90565b9050359061017282610678565b9091606082840312610157576101976106a88484610682565b936106b68160208601610682565b93604001610682565b34610157576101fa6102f36106d536600461068f565b916108a2565b909594926101729461071b61028a9261071060809661070560a088019c600089019061ffff169052565b61ffff166020870152565b61ffff166040850152565b63ffffffff166060830152565b34610157576101fa61074361073e3660046102c4565b612100565b9161075095939560405190565b958695866106db565b80151561015e565b9050359061017282610759565b919060a083820312610157576107848184610165565b926107928260208301610165565b926101976107a38460408501610165565b936107b18160608601610761565b93608001610207565b34610157576101fa6102f36107d036600461076e565b93929092610a66565b34610157576101fa6102f36107ef366004610174565b906125ef565b61015e8161019e565b90503590610172826107f5565b9091606082840312610157576101976108248484610165565b936108328160208601610165565b936040016107fe565b34610157576101fa61085761085136600461080b565b91610db0565b6040519182918260ff909116815260200190565b34610157576101fa61085761088136600461036c565b916120f5565b34610157576101fa6102f361089d3660046102c4565b61264a565b610197929190610919565b6108bd6101976101979260070b90565b61019e565b6101976101976101979261019e565b6101976101976101979290565b634e487b7160e01b600052601160045260246000fd5b8181029291811591840414171561090757565b6108de565b9190820180921161090757565b9061095461099061098a9261098a61097d6109546109776101979961093c600090565b5061097261096c610959610954600160ff1b946108ad565b6108c2565b610966600160801b6108d1565b906108f4565b916108d1565b61090c565b936108ad565b610966600160401b6108d1565b9061090c565b926108ad565b6109a39060005b506109fd565b929391929091565b6108bd6101976101979290565b6109c76101976101979261019e565b60070b90565b634e487b7160e01b600052601260045260246000fd5b906109ed565b9190565b9081156109f8570490565b6109cd565b90610a0f610a0a836109ab565b6109b8565b91610a31610a0a610a2c610a26600160401b6108d1565b846109e3565b6109ab565b91610197610a2c610a52610a0a82610a4c600160801b6108d1565b876109e3565b93610a60600160ff1b6108d1565b906109e3565b6101979493929190610b4a565b610a806101976101979290565b60ff1690565b6101976001610a73565b610197600f610a73565b610aa99060ff165b9160ff1690565b019060ff821161090757565b61019a9060ff1660f81b90565b60019392610adf602083610ad98295610ae7979052565b01918252565b018092610ab5565b0190565b634e487b7160e01b600052604160045260246000fd5b90601f01601f191681019081106001600160401b03821117610b2257604052565b610aeb565b610197906108d1565b81156109f8570690565b6101976101976101979260ff1690565b929093610b55600090565b50610b64610aa2610a80610a86565b03610c5657610b71610a90565b8091610c3b575b50610be76109e9610be1610bd1610b8f6006610a73565b610bb9610b9b60405190565b8092610bad60208301918d8d84610ac2565b90810382520382610b01565b610bcb610bc4825190565b9160200190565b20610b27565b610bdb60646108d1565b90610b30565b92610b3a565b10610bf95750505061019760006108d1565b610c2c610c3192610bb961019795610c116007610a73565b92610bad610c1e60405190565b948593602085019384610ac2565b610b30565b61098a60016108d1565b610c509150610c4a600a610a73565b90610a9a565b38610b78565b5050505061019760006108d1565b61019790610ceb565b6109c76101976101979290565b60070b60016001603f1b031981146109075760000390565b610ca19060070b5b9160070b90565b019060016001603f1b03821360016001603f1b031983121761090757565b610ccb9060070b610c9a565b9081156109f85760016001603f1b03198114600019831416610907570590565b610d5161019791610d03610cfd600090565b916109fd565b50939091600090610d1382610c6d565b610d1d8260070b90565b12610d9857610d39610d4991610d336004610c6d565b90610c92565b610d436009610c6d565b90610cbf565b935b50610c6d565b610d5b8260070b90565b12610d7757610d39610d7191610d336004610c6d565b90610919565b610d93610d39610d89610d7193610c7a565b610d336004610c6d565b610c7a565b610d93610d39610d89610daa93610c7a565b93610d4b565b610197929190610e7d565b610197600a610a73565b6108bd6101976101979260ff1690565b610de1610de79161019e565b9161019e565b0290610df28261019e565b91820361090757565b9190820391821161090757565b6101976019610a73565b610e1f6101976101979290565b61ffff1690565b6101976064610e12565b610e1f6101976101979260ff1690565b610e4c9060070b610c9a565b9081156109f8570790565b610e676101976101979260070b90565b60000b90565b610a806101976101979260000b90565b91610e8783611070565b908115610fb9575b5015610ea15750506101976006610a73565b610ec0610954610eb084610fd6565b610eba60096109ab565b90610dd5565b610eca60006108d1565b8111610fa0575b610ee46109e9610edf610e08565b610b3a565b10610f9457610f27610f1c610bad610bb9610f2c94610f03600c610a73565b90610f0d60405190565b93849260208401928a84610ac2565b610bdb6127106108d1565b610a73565b610f40610f3a610e1f610e26565b91610e30565b11610f8957610f51610197916109fd565b50915050610f84610f7e610f79610f74600194610f6e6005610c6d565b90610e40565b610e57565b610e6d565b91610a73565b610a9a565b506101976006610a73565b50506101976006610a73565b610fb490610fae60046108d1565b90610dfb565b610ed1565b9050610fce610de1610fc9610dbb565b610dc5565b101538610e8f565b610fe190600061099d565b50819050600083610ff182610c6d565b610ffb8260070b90565b1261105a575b5061100b90610c6d565b6110158260070b90565b1261104a575b506110268160070b90565b6110308360070b90565b13156110405750610197906108ad565b61019791506108ad565b6110549150610c7a565b3861101b565b61100b91945061106990610c7a565b9390611001565b61107b90600061099d565b50506000199161108a83610c6d565b6110948260070b90565b121592836110db575b50826110c2575b50816110ae575090565b90506110bd610c9a6001610c6d565b131590565b9091506110d2610c9a6001610c6d565b131590386110a4565b6110e6919350610c6d565b6110f08260070b90565b1215913861109d565b610432929190611118565b6101976002610a73565b6101976004610a73565b9092909161112660006108d1565b9361113f6111348686611317565b610a60610edf610e08565b85811461129f575b60029061118f61115f611159846108d1565b836109e3565b61098a83610c2c610bad610bb96111766064610a73565b8d61118060405190565b9384928d602085019384610ac2565b9587871461128d575b6111a0611104565b6111ac60ff8716610aa2565b14611265575b9161098a916111f3949360086111c7816108d1565b8311611245575b50610bb96111e86111e2610c2c94956108d1565b856109e3565b95610c116065610a73565b938414611233575b611210610aa2611209610a86565b9260ff1690565b1461121757565b916112309061098a61122a610edf61110e565b826109e3565b91565b925061123f60016108d1565b926111fb565b610c2c92506111e86111e261125c610bb9936108d1565b945050506111ce565b959161098a916112816111f3959461098a61122a610edf61110e565b979193945091506111b2565b955061129960016108d1565b95611198565b506112aa60016108d1565b611147565b6112bb9060070b610c9a565b90039060016001603f1b0319821260016001603f1b0383131761090757565b6101976101976101979260070b90565b600160ff1b81146109075760000390565b9190808303926000909112801582851316918412161761090757565b61134361133e61132c6113369361099d600090565b50509390946109fd565b5050946112af565b6112da565b91600091611350836108d1565b84126113f6575b61133e6113679261096c926112af565b81126113e8575b6001603f1b61137c816108d1565b83136113ca575b61138c906108d1565b81136113af575b808213156113a55750610197906108d1565b61019791506108d1565b6113c5906113c0600160401b6108d1565b6112fb565b611393565b9161138c906113e0906113c0600160401b6108d1565b929050611383565b6113f1906112ea565b61136e565b9261133e6113679261140a61096c936112ea565b959250925050611357565b6101979061142b565b610197600160ff1b6108d1565b61143661019761141e565b8103611447575061019760006108d1565b61145e6101979161145860006108d1565b90611317565b61097261096c600192610a60610edf610e08565b611480959493929190611487565b9192909190565b959492906114a3610432959361149b600090565b508289611af3565b966114ce565b6101976005610a73565b6101976003610a73565b60ff1660ff81146109075760010190565b949360006114e66114de88610ceb565b9594976109fd565b5050600093916114f8610c9a86610c6d565b1490816119b0575b501561152357505050505050611514611104565b9161151f6001610a73565b1790565b95909691929394965b60ff87165b60ff8716116119a657506115456003610a73565b611590610f2761158687610bb98a8d610bad8861156160405190565b95869460208601948592610adf6001610ae794610ad9602088610adf859b9a83999052565b610bdb60146108d1565b906115b261159e6001610a73565b85166115ad610aa26001610a73565b141590565b90818061197d575b156115eb575050506115316115e26115d0611104565b936115db6001610a73565b17966114bd565b9592905061152c565b6116076115f86002610a73565b86166115ad610aa26002610a73565b91828061192f575b1561163157505050506115316115e26116266114b3565b936115db6002610a73565b61164d61163e6004610a73565b87166115ad610aa26004610a73565b91828061188c575b156116785750505050506115316115e261166d61110e565b936115db6004610a73565b6116946116856008610a73565b88166115ad610aa26008610a73565b94856116d7575b50505050506000146116c0576115316115e26116b56114a9565b936115db6008610a73565b6115316115e26116d1969396610a86565b936114bd565b6116e691929394955060ff1690565b14928315611875575b8315611851575b831561182d575b8315611809575b83156117d8575b83156117a7575b8315611776575b831561172d575b505050388080808061169b565b9091925061173b604d610a73565b60ff891614928361176e575b5082611766575b508161175e575b50388080611720565b905038611755565b91503861174e565b925038611747565b9250611782604e610a73565b60ff891614806117a0575b80611799575b92611719565b5082611793565b508161178d565b92506117b3604e610a73565b60ff891614806117d1575b806117ca575b92611712565b50816117c4565b50806117be565b92506117e4604e610a73565b60ff89161480611802575b806117fb575b9261170b565b50826117f5565b50806117ef565b9250611815604f610a73565b60ff89161480611826575b92611704565b5081611820565b9250611839604f610a73565b60ff8916148061184a575b926116fd565b5082611844565b925061185d604f610a73565b60ff8916148061186e575b926116f6565b5080611868565b92506118816050610a73565b60ff891614926116ef565b506118976002610a73565b60ff861614801561191a575b80156118fd575b80156118e0575b8061165557506118c1604e610a73565b60ff8b1614806118d9575b8015611655575083611655565b50816118cc565b506118eb604f610a73565b60ff8b161480156118b15750836118b1565b50611908604f610a73565b60ff8b161480156118aa5750816118aa565b506119256050610a73565b60ff8b16146118a3565b5061193a6001610a73565b60ff8516148015611968575b8061160f5750611956604f610a73565b60ff8a1614801561160f57508061160f565b506119736050610a73565b60ff8a1614611946565b5061198786610a73565b60ff841614806115ba575061199c6050610a73565b60ff8916146115ba565b9650935093505050565b90506119be610c9a85610c6d565b1438611500565b6101976057610a73565b939190925b600182116119e0575050565b90919280820481116109075760018316611a02575b8002929160011c906119d4565b938402936119f5565b9291928115611a8e578015611a86578080600114611a7d57600214611a685760208210610133821016604e8310600b83101617611a5e5792611a519181939460016119cf565b8092048111610907570290565b0a91821161090757565b5060ff81116109075760020a91821161090757565b50600193505050565b506000925050565b506001925050565b61019791611aa9610aa260ff9360ff1690565b90611a0b565b6101976028610a73565b6101976000610a73565b611acf9060ff16610aa2565b90039060ff821161090757565b611ae89060ff16610aa2565b029060ff8216610df2565b90600092611b0084610a73565b90611b0961110e565b611b1560ff8316610aa2565b03611dcd575050611b26600f610a73565b925b611b53611b35606f610a73565b610bb9611b4160405190565b8092610bad6020830191888a84610ac2565b611b65610f27606492610bdb846108d1565b90611b82610a80611b74611aaf565b611b7d84610a73565b611ac3565b60ff83161015611d91575050611b9790610a73565b905b600491611ba583610a73565b60ff821610611bd657505061151f9150611bd1610f7e600f92611bcb610f7e6002610a73565b90611a96565b611adc565b6003611be181610a73565b60ff831603611c8c575050611c14610f27611c0b611c2e9495610bb9611c1e95610c116070610a73565b610bdb866108d1565b610c4a6001610a73565b611c286007610a73565b90611adc565b611c386015610a73565b60ff821603611c5c575061151f90611bd1610f7e600d92611bcb610f7e6002610a73565b611c69610aa2601c610a73565b14611c72575090565b61151f90611bd1610f7e600b92611bcb610f7e6002610a73565b9091600292611c9a84610a73565b60ff821603611d2c5750610f7e611c14610f27611cc7611cd1969798610bb9611c2896610c116070610a73565b610bdb60066108d1565b611cdb600f610a73565b60ff821603611cfd5750611bd1610f7e61151f93611bcb610f7e600595610a73565b611d0a610aa26012610a73565b14611d1457505090565b611bd1610f7e61151f93611bcb610f7e600a95610a73565b90929150611d3d610aa26001610a73565b14611d4a575b5050505090565b611bcb611d7a611d80611d7a610f27611d71611d8799610bb9611c2899610c116070610a73565b610bdb896108d1565b93610a73565b9283611a96565b1738808080611d43565b610aa2610a80611da692611b7d610f7e610dbb565b10159050611dbe57611db86001610a73565b90611b99565b611dc86002610a73565b611db8565b611dd89491946119c5565b90611de36001610a73565b91611e04611df060405190565b610bb98160208101610bad888b8d84610ac2565b90611e1d610aa2610a80610f27606495610bdb876108d1565b116120d3575b90849291611e2f611aaf565b611e64610aa2610a80610f27611e5b8c610bb9611e4c6002610a73565b9b8c92610bad610c1e60405190565b610bdb876108d1565b11611e73575b50505050611b28565b8690611e8198949598610e08565b87611e8c6003610a73565b91611eba610aa2610a80610f27611d71611ea560405190565b610bb9818c610bad8c8c602085019384610ac2565b1115611f735750505050611ecc611ab9565b611ed860ff8316610aa2565b148015611f58575b15611efe575050611ef16008610a73565b1717925b38808080611e6a565b9091959250611f0b610a86565b611f1760ff8316610aa2565b14908115611f41575b50611f2c575b50611ef5565b909317611f396004610a73565b179238611f26565b9050611f51610aa26112096114b3565b1438611f20565b50611f61611104565b611f6d60ff8316610aa2565b14611ee0565b610f27611f9d93610bdb61096c610f7e95610bb9610a809660329e9c9e9a610bad610c1e60405190565b111561203a57611fab611ab9565b611fb760ff8316610aa2565b03611fd15750509050611fca6008610a73565b1792611ef5565b611fd9610a86565b611fe560ff8316610aa2565b03611ff457505017925b611ef5565b909250611fff611104565b61200b60ff8316610aa2565b0361201857501792611ef5565b9094915061202a610aa26112096114b3565b03611fef5792611fca6004610a73565b612045939193611ab9565b61205160ff8316610aa2565b0361205f5750501792611ef5565b9091925061206b610a86565b61207760ff8316610aa2565b03612088575050611fca6004610a73565b612090611104565b61209c60ff8316610aa2565b036120ad575050611fca6008610a73565b6120be610aa26112099794976114b3565b146120c95750611ef5565b9093179238611f26565b955090816120eb85936120e66002610a73565b611a96565b9690919250611e23565b610197929190611af3565b61210990612143565b919394909293929190565b610197906121286109e96101979460ff1690565b901c90565b61213a6101976101979290565b63ffffffff1690565b9061215a610f2761215460f8610a73565b84612114565b9161216e61216860e8610a73565b82612114565b6121876121826201000092610bdb846108d1565b610e12565b936121ea6121826121b96121b46121a76121a160c8610a73565b88612114565b610bdb600160201b6108d1565b61212d565b93610bdb61096c6121d9612182611c0b6121d360b8610a73565b8b612114565b976121e460a8610a73565b90612114565b93565b610197959493929190612238565b6101979061220f6109e96101979460ff1690565b901b90565b6101976101976101979261ffff1690565b6101976101976101979263ffffffff1690565b6122b161228d61098a9561098a6122a761228d6101979b9a9761098a61229d610be161098a9a61098a6122936122bb9f61227d61228d91612277600090565b50610b3a565b61228760f8610a73565b906121fb565b92612214565b61228760e8610a73565b61228760e0610a73565b61228760d0610a73565b61228760c0610a73565b91612225565b6122ce9060005b506122da565b94959394929391929091565b906122eb610f2761215460f8610a73565b6122f861215460e8610a73565b61230c6121826201000092610bdb846108d1565b9361232b610f2761232061215460e0610a73565b610bdb6101006108d1565b936101976121b461236b61218261235a61218261235161234b60d0610a73565b89612114565b610bdb8a6108d1565b96610bdb61096c61234b60c0610a73565b93610bdb600160201b6108d1565b61238e61148091612388600090565b50610e30565b612438565b906101726123a060405190565b9283610b01565b6001600160401b038111610b225760200290565b6123c7610197916123a7565b612393565b634e487b7160e01b600052603260045260246000fd5b90600b8110156123f3576020020190565b6123cc565b6124099061ffff165b9161ffff1690565b019061ffff821161090757565b61019791611aa9610aa261ffff9361ffff1690565b6109ed9061ffff16612401565b9061256661255e612449600b6123bb565b612461600061245781610e12565b61ffff1690830152565b61247961246e600a610e12565b61ffff166020830152565b6124916124866031610e12565b61ffff166040830152565b6124a961249e6077610e12565b61ffff166060830152565b6124b661050160d0610e12565b6124cf6124c4610148610e12565b61ffff1660a0830152565b6124e86124dd61020c610e12565b61ffff1660c0830152565b6125016124f661033a610e12565b61ffff1660e0830152565b61251b61250f6104f5610e12565b61ffff16610100830152565b612535612529610e46610e12565b61ffff16610120830152565b61254f612543611aee610e12565b61ffff16610140830152565b61255885612214565b906123e2565b5161ffff1690565b9160089061257382610e12565b61ffff8216111561259557505061258b6101ec6108d1565b905b610197610dbb565b6125e9916125de6125d86125c86125b86125e4956125b36001610e12565b6123f8565b6125c26003610a73565b90612416565b6125d26005610e12565b9061242b565b91610e12565b906123f8565b612214565b9061258d565b61019791906126189061261361096c6126229461260a600090565b50600293611317565b6108f4565b610a6060056108d1565b61262c60006108d1565b8103610197575061019760016108d1565b6101979061019790612214565b6101979061266f6126229161265d600090565b5061261361096c60029261145861141e565b610a6060066108d1565b60001981146109075760010190565b91908110156123f3576020020190565b356101978161015c565b906126ad60006108d1565b91825b828410156126e6576126da6126e09161098a6126d56126d0888888612688565b612698565b6126ed565b93612679565b926126b0565b9250505090565b6126f89060006122c8565b50939150915060019161272d6124016127256125e461271c6002966125d288610e12565b6125b388610e12565b9561ffff1690565b1461273757505090565b610197929161097261096c6111e261098a946108d1565b6101979190611317565b61043291906127da916127d4610f276127926127746066610a73565b610bb961278060405190565b8092610bad6020830191898b84610ac2565b610bdb61096c610bad610bb96127b0610f27600996610bdb886108d1565b976127bb6067610a73565b906127c560405190565b93849260208401928d84610ac2565b916127fd565b9061019760026109ab565b6127f19060070b610c9a565b0290610df28260070b90565b610d7161019793610d33610a0a61285d6128639661285761286961284161283b61282c61283b9b61099d600090565b509d9160099491949d8e610c6d565b906127e5565b95610d33610a0a61285d6004996128578b610c6d565b906112af565b92610dc5565b9a610c6d565b91610c6d565b6101979161261361019792612882600090565b5061097261096c600192610a60600a6108d156fea264697066735822122041f4fbeca2d12742f854361aff4432345def4b764975da853386133d3d0f292e64736f6c63430008140033"
  },
  "solcInputHash": "dd8ef9e4cb12f6b7c300326f49f4b58b",
  "bytecode": "0x60806040523461001a57604051610ccb6100208239610ccb90f35b600080fdfe6080604052600436101561001257600080fd5b60003560e01c80630d830190146100825780635062e3b21461007d5780636790d2b5146100785780638803bb4314610073578063d8c413eb1461006e578063e447bcbf146100695763f01f448603610087576103df565b61039f565b6102bf565b610291565b610227565b610172565b610134565b600080fd5b805b0361008757565b905035906100a28261008c565b565b90602082820312610087576100b891610095565b90565b9052565b6001600160a01b031690565b6100bb906100bf565b98969492909b9a99979593916101608a019c60008b016100f2919052565b60ff1660208a015260408901526060880152608087015260a086015260c085015260e084015260070b610100830152610120820152610140016100a2916100cb565b346100875761016e61014f61014a3660046100a4565b610590565b976101659b999b97919796929695939560405190565b9b8c9b8c6100d4565b0390f35b346100875761016e61018d6101883660046100a4565b6104b2565b6040519182918290815260200190565b6001600160401b031690565b6100bb9061019d565b98969492909b9a99979593916101608a019c60008b016101d0919052565b60208a015260ff16604089015260ff16606088015260ff16608087015260ff1660a0860152151560c085015260e08401610209916101a9565b60ff166101008301526101208201610220916101a9565b6101400152565b346100875761016e61024261023d3660046100a4565b6107e9565b976102589b999b97919796929695939560405190565b9b8c9b8c6101b2565b9091606082840312610087576100b861027a8484610095565b936102888160208601610095565b93604001610095565b346100875761016e6102ad6102a7366004610261565b91610406565b60405191829182901515815260200190565b346100875761016e6102da6102d53660046100a4565b610474565b6040519182918260ff909116815260200190565b61008e8161019d565b905035906100a2826102ee565b9190604083820312610087576100b89061031e8185610095565b936020016102f7565b60005b83811061033a5750506000910152565b818101518382015260200161032a565b61036b61037460209361037e9361035f815190565b80835293849260200190565b95869101610327565b601f01601f191690565b0190565b60ff90911681526100b8916040820191602081840391015261034a565b34610087576103b86103b2366004610304565b906109af565b9061016e6103c560405190565b92839283610382565b60208082526100b89291019061034a565b346100875761016e6103fa6103f53660046100a4565b61097a565b604051918291826103ce565b6100b892919061044b565b6100b86100b86100b89290565b9061042890610411565b600052602052604060002090565b6100b8905b60ff1690565b6100b89054610436565b9161046a61046f9261046a6100b895610462600090565b50600b61041e565b61041e565b610441565b6100b890600061049b6100b892610489600090565b50610495600291610a99565b9061041e565b01610441565b6100b89081565b6100b890546104a1565b6100b8906104c26000918261041e565b016104a8565b6100b890546100bf565b6100b8906100bf906001600160a01b031682565b6100b8906104d2565b6100b8906104e6565b634e487b7160e01b600052604160045260246000fd5b90601f01601f191681019081106001600160401b0382111761052f57604052565b6104f8565b905051906100a28261008c565b90602082820312610087576100b891610534565b6040513d6000823e3d90fd5b6100b89060081c5b60070b90565b6100b89054610561565b6100bf6100b86100b89290565b90610428906104ef565b600061059f6100b8838361041e565b916105ab8284016104a8565b9360018401926105ba84610441565b946105ea60206105d26105cd60066104c8565b6104ef565b630178fe3f906105e160405190565b93849260e01b90565b82526004820188905260249082905afa9081156106f85783916106fd575b5094610616600283016104a8565b94610623600384016104a8565b94610691610633600486016104a8565b956020610657610651600661064a60058b016104a8565b99016104a8565b9661056f565b946106656105cd60066104c8565b610683633038bb0861067660405190565b9687948593849360e01b90565b835260048301526024820190565b03915afa80156106f8576106b4926106af92916106ca575b50610579565b6104e6565b6106c76106c282600d610586565b6104a8565b91565b6106eb915060203d81116106f1575b6106e3818361050e565b810190610541565b386106a9565b503d6106d9565b610555565b610715915060203d81116106f1576106e3818361050e565b38610608565b6100b89061019d565b61019d565b6100b8905461071b565b6100b86100b86100b89261019d565b6100b89060401c61019d565b6100b89054610742565b6100b89060c01c61043b565b6100b89054610758565b6100b89060d81c61043b565b6100b8905461076e565b6100b89060e01c61043b565b6100b89054610784565b6100b89060e81c61043b565b6100b8905461079a565b6100b89060801c61019d565b6100b890546107b0565b6100b89060d01c61043b565b6100b890546107c6565b61043b6100b86100b89290565b6107f86100b86001928361041e565b908161080b61080682610729565b610733565b936108186108068361074e565b9361082283610764565b9361082c8461077a565b9361083681610790565b93610840826107a6565b9361085361084d846107bc565b936107d2565b916100b88361086c61086560006107dc565b9160ff1690565b14159561087b60028501610729565b93016104a8565b634e487b7160e01b600052602260045260246000fd5b90600160028304921680156108b8575b60208310146108b357565b610882565b91607f16916108a8565b805460009392916108df6108d583610898565b8085529360200190565b916001811690811561093157506001146108f857505050565b61090b9192939450600052602060002090565b916000925b81841061091d5750500190565b805484840152602090930192600101610910565b92949550505060ff1916825215156020020190565b906100b8916108c2565b906100a261096a9261096160405190565b93848092610946565b038361050e565b6100b890610950565b6109916100b891610989606090565b50600e61041e565b610971565b6107246100b86100b89261019d565b9061042890610996565b6109cf916109ca6100b8926109c2600090565b50600c61041e565b6109a5565b906100b860016109de84610441565b9301610971565b6105696100b86100b89290565b634e487b7160e01b600052601160045260246000fd5b60070b60016001603f1b03198114610a205760000390565b6109f2565b610a349060070b5b9160070b90565b019060016001603f1b03821360016001603f1b0319831217610a2057565b634e487b7160e01b600052601260045260246000fd5b610a749060070b610a2d565b908115610a945760016001603f1b03198114600019831416610a20570590565b610a52565b610aff6100b891610ab1610aab600090565b91610b84565b50939091600090610ac1826109e5565b610acb8260070b90565b12610b4657610ae7610af791610ae160046109e5565b90610a25565b610af160096109e5565b90610a68565b935b506109e5565b610b098260070b90565b12610b2557610ae7610b1f91610ae160046109e5565b90610c1d565b610b41610ae7610b37610b1f93610a08565b610ae160046109e5565b610a08565b610b41610ae7610b37610b5893610a08565b93610af9565b6107246100b86100b89290565b6105696100b86100b89261019d565b8115610a94570490565b90610b96610b9183610b5e565b610b6b565b91610bb8610b91610bb3610bad600160401b610411565b84610b7a565b610b5e565b916100b8610bb3610bd9610b9182610bd3600160801b610411565b87610b7a565b93610be7600160ff1b610411565b90610b7a565b6107246100b86100b89260070b90565b81810292918115918404141715610a2057565b91908201809211610a2057565b90610806610c8f610c8992610c89610c7c610806610c766100b899610c40600090565b50610c71610c6b610c58610806600160ff1b94610bed565b610c65600160801b610411565b90610bfd565b91610411565b610c10565b93610bed565b610c65600160401b610411565b90610c10565b92610bed56fea264697066735822122064af827a4a4af5f03a3b99797d8acf2d9d232205364b80283b08fee09328c8ea64736f6c63430008140033",
  "devdoc": {
    "kind": "dev",
    "methods": {},
    "version": 1
  },
  "userdoc": {
    "kind": "user",
    "methods": {},
    "version": 1
  },
  "storageLayout": {
    "storage": [
      {
        "astId": 3448,
        "contract": "src/dungeon/DungeonInfoFacet.sol:DungeonInfoFacet",
        "label": "_characters",
        "offset": 0,
        "slot": "0",
        "type": "t_mapping(t_uint256,t_struct(Character)3430_storage)"
      },
      {
        "astId": 3453,
        "contract": "src/dungeon/DungeonInfoFacet.sol:DungeonInfoFacet",
        "label": "_rooms",
        "offset": 0,
        "slot": "1",
        "type": "t_mapping(t_uint256,t_struct(Room)3413_storage)"
      },
      {
        "astId": 3458,
        "contract": "src/dungeon/DungeonInfoFacet.sol:DungeonInfoFacet",
        "label": "_areas",
        "offset": 0,
        "slot": "2",
        "type": "t_mapping(t_uint256,t_struct(Area)3443_storage)"
      },
      {
        "astId": 3466,
        "contract": "src/dungeon/DungeonInfoFacet.sol:DungeonInfoFacet",
        "label": "_areaCounter",
        "offset": 0,
        "slot": "3",
        "type": "t_struct(AreaCounter)3463_storage"
      },
      {
        "astId": 3468,
        "contract": "src/dungeon/DungeonInfoFacet.sol:DungeonInfoFacet",
        "label": "_adminContract",
        "offset": 0,
        "slot": "4",
        "type": "t_address"
      },
      {
        "astId": 3471,
        "contract": "src/dungeon/DungeonInfoFacet.sol:DungeonInfoFacet",
        "label": "_blockHashRegister",
        "offset": 0,
        "slot": "5",
        "type": "t_contract(BlockHashRegister)14269"
      },
      {
        "astId": 3474,
        "contract": "src/dungeon/DungeonInfoFacet.sol:DungeonInfoFacet",
        "label": "_charactersContract",
        "offset": 0,
        "slot": "6",
        "type": "t_contract(Characters)743"
      },
      {
        "astId": 3477,
        "contract": "src/dungeon/DungeonInfoFacet.sol:DungeonInfoFacet",
        "label": "_elementsContract",
        "offset": 0,
        "slot": "7",
        "type": "t_contract(Elements)13818"
      },
      {
        "astId": 3480,
        "contract": "src/dungeon/DungeonInfoFacet.sol:DungeonInfoFacet",
        "label": "_gearsContract",
        "offset": 0,
        "slot": "8",
        "type": "t_contract(Gears)13837"
      },
      {
        "astId": 3483,
        "contract": "src/dungeon/DungeonInfoFacet.sol:DungeonInfoFacet",
        "label": "_roomsContract",
        "offset": 0,
        "slot": "9",
        "type": "t_contract(Rooms)13904"
      },
      {
        "astId": 3486,
        "contract": "src/dungeon/DungeonInfoFacet.sol:DungeonInfoFacet",
        "label": "_playerContract",
        "offset": 0,
        "slot": "10",
        "type": "t_contract(Player)11695"
      },
      {
        "astId": 3494,
        "contract": "src/dungeon/DungeonInfoFacet.sol:DungeonInfoFacet",
        "label": "_unlockedExits",
        "offset": 0,
        "slot": "11",
        "type": "t_mapping(t_uint256,t_mapping(t_uint256,t_mapping(t_uint256,t_bool)))"
      },
      {
        "astId": 3506,
        "contract": "src/dungeon/DungeonInfoFacet.sol:DungeonInfoFacet",
        "label": "_quests",
        "offset": 0,
        "slot": "12",
        "type": "t_mapping(t_uint256,t_mapping(t_uint64,t_struct(Quest)3499_storage))"
      },
      {
        "astId": 3510,
        "contract": "src/dungeon/DungeonInfoFacet.sol:DungeonInfoFacet",
        "label": "_taxDueDate",
        "offset": 0,
        "slot": "13",
        "type": "t_mapping(t_address,t_uint256)"
      },
      {
        "astId": 3514,
        "contract": "src/dungeon/DungeonInfoFacet.sol:DungeonInfoFacet",
        "label": "_customRoomNames",
        "offset": 0,
        "slot": "14",
        "type": "t_mapping(t_uint256,t_string_storage)"
      },
      {
        "astId": 3518,
        "contract": "src/dungeon/DungeonInfoFacet.sol:DungeonInfoFacet",
        "label": "_allowedForwardTargets",
        "offset": 0,
        "slot": "15",
        "type": "t_mapping(t_address,t_bool)"
      },
      {
        "astId": 3524,
        "contract": "src/dungeon/DungeonInfoFacet.sol:DungeonInfoFacet",
        "label": "_allowedForwardSelectors",
        "offset": 0,
        "slot": "16",
        "type": "t_mapping(t_address,t_mapping(t_bytes4,t_bool))"
      }
    ],
    "types": {
      "t_address": {
        "encoding": "inplace",
        "label": "address",
        "numberOfBytes": "20"
      },
      "t_bool": {
        "encoding": "inplace",
        "label": "bool",
        "numberOfBytes": "1"
      },
      "t_bytes4": {
        "encoding": "inplace",
        "label": "bytes4",
        "numberOfBytes": "4"
      },
      "t_contract(BlockHashRegister)14269": {
        "encoding": "inplace",
        "label": "contract BlockHashRegister",
        "numberOfBytes": "20"
      },
      "t_contract(Characters)743": {
        "encoding": "inplace",
        "label": "contract Characters",
        "numberOfBytes": "20"
      },
      "t_contract(Elements)13818": {
        "encoding": "inplace",
        "label": "contract Elements",
        "numberOfBytes": "20"
      },
      "t_contract(Gears)13837": {
        "encoding": "inplace",
        "label": "contract Gears",
        "numberOfBytes": "20"
      },
      "t_contract(Player)11695": {
        "encoding": "inplace",
        "label": "contract Player",
        "numberOfBytes": "20"
      },
      "t_contract(Rooms)13904": {
        "encoding": "inplace",
        "label": "contract Rooms",
        "numberOfBytes": "20"
      },
      "t_int64": {
        "encoding": "inplace",
        "label": "int64",
        "numberOfBytes": "8"
      },
      "t_mapping(t_address,t_bool)": {
        "encoding": "mapping",
        "key": "t_address",
        "label": "mapping(address => bool)",
        "numberOfBytes": "32",
        "value": "t_bool"
      },
      "t_mapping(t_address,t_mapping(t_bytes4,t_bool))": {
        "encoding": "mapping",
        "key": "t_address",
        "label": "mapping(address => mapping(bytes4 => bool))",
        "numberOfBytes": "32",
        "value": "t_mapping(t_bytes4,t_bool)"
      },
      "t_mapping(t_address,t_uint256)": {
        "encoding": "mapping",
        "key": "t_address",
        "label": "mapping(address => uint256)",
        "numberOfBytes": "32",
        "value": "t_uint256"
      },
      "t_mapping(t_bytes4,t_bool)": {
        "encoding": "mapping",
        "key": "t_bytes4",
        "label": "mapping(bytes4 => bool)",
        "numberOfBytes": "32",
        "value": "t_bool"
      },
      "t_mapping(t_uint256,t_bool)": {
        "encoding": "mapping",
        "key": "t_uint256",
        "label": "mapping(uint256 => bool)",
        "numberOfBytes": "32",
        "value": "t_bool"
      },
      "t_mapping(t_uint256,t_mapping(t_uint256,t_bool))": {
        "encoding": "mapping",
        "key": "t_uint256",
        "label": "mapping(uint256 => mapping(uint256 => bool))",
        "numberOfBytes": "32",
        "value": "t_mapping(t_uint256,t_bool)"
      },
      "t_mapping(t_uint256,t_mapping(t_uint256,t_mapping(t_uint256,t_bool)))": {
        "encoding": "mapping",
        "key": "t_uint256",
        "label": "mapping(uint256 => mapping(uint256 => mapping(uint256 => bool)))",
        "numberOfBytes": "32",
        "value": "t_mapping(t_uint256,t_mapping(t_uint256,t_bool))"
      },
      "t_mapping(t_uint256,t_mapping(t_uint64,t_struct(Quest)3499_storage))": {
        "encoding": "mapping",
        "key": "t_uint256",
        "label": "mapping(uint256 => mapping(uint64 => struct DungeonDataLayout.Quest))",
        "numberOfBytes": "32",
        "value": "t_mapping(t_uint64,t_struct(Quest)3499_storage)"
      },
      "t_mapping(t_uint256,t_string_storage)": {
        "encoding": "mapping",
        "key": "t_uint256",
        "label": "mapping(uint256 => string)",
        "numberOfBytes": "32",
        "value": "t_string_storage"
      },
      "t_mapping(t_uint256,t_struct(Area)3443_storage)": {
        "encoding": "mapping",
        "key": "t_uint256",
        "label": "mapping(uint256 => struct DungeonDataLayout.Area)",
        "numberOfBytes": "32",
        "value": "t_struct(Area)3443_storage"
      },
      "t_mapping(t_uint256,t_struct(Character)3430_storage)": {
        "encoding": "mapping",
        "key": "t_uint256",
        "label": "mapping(uint256 => struct DungeonDataLayout.Character)",
        "numberOfBytes": "32",
        "value": "t_struct(Character)3430_storage"
      },
      "t_mapping(t_uint256,t_struct(Room)3413_storage)": {
        "encoding": "mapping",
        "key": "t_uint256",
        "label": "mapping(uint256 => struct DungeonDataLayout.Room)",
        "numberOfBytes": "32",
        "value": "t_struct(Room)3413_storage"
      },
      "t_mapping(t_uint64,t_struct(Quest)3499_storage)": {
        "encoding": "mapping",
        "key": "t_uint64",
        "label": "mapping(uint64 => struct DungeonDataLayout.Quest)",
        "numberOfBytes": "32",
        "value": "t_struct(Quest)3499_storage"
      },
      "t_string_storage": {
        "encoding": "bytes",
        "label": "string",
        "numberOfBytes": "32"
      },
      "t_struct(Area)3443_storage": {
        "encoding": "inplace",
        "label": "struct DungeonDataLayout.Area",
        "members": [
          {
            "astId": 3432,
            "contract": "src/dungeon/DungeonInfoFacet.sol:DungeonInfoFacet",
            "label": "areaType",
            "offset": 0,
            "slot": "0",
            "type": "t_uint8"
          },
          {
            "astId": 3434,
            "contract": "src/dungeon/DungeonInfoFacet.sol:DungeonInfoFacet",
            "label": "discovered",
            "offset": 1,
            "slot": "0",
            "type": "t_uint8"
          },
          {
            "astId": 3436,
            "contract": "src/dungeon/DungeonInfoFacet.sol:DungeonInfoFacet",
            "label": "lastRoomIndex",
            "offset": 2,
            "slot": "0",
            "type": "t_uint8"
          },
          {
            "astId": 3438,
            "contract": "src/dungeon/DungeonInfoFacet.sol:DungeonInfoFacet",
            "label": "currentIndex",
            "offset": 3,
            "slot": "0",
            "type": "t_uint8"
          },
          {
            "astId": 3440,
            "contract": "src/dungeon/DungeonInfoFacet.sol:DungeonInfoFacet",
            "label": "lastRoom",
            "offset": 0,
            "slot": "1",
            "type": "t_uint256"
          },
          {
            "astId": 3442,
            "contract": "src/dungeon/DungeonInfoFacet.sol:DungeonInfoFacet",
            "label": "eventBlockNumber",
            "offset": 0,
            "slot": "2",
            "type": "t_uint64"
          }
        ],
        "numberOfBytes": "96"
      },
      "t_struct(AreaCounter)3463_storage": {
        "encoding": "inplace",
        "label": "struct DungeonDataLayout.AreaCounter",
        "members": [
          {
            "astId": 3460,
            "contract": "src/dungeon/DungeonInfoFacet.sol:DungeonInfoFacet",
            "label": "lastPeriod",
            "offset": 0,
            "slot": "0",
            "type": "t_uint64"
          },
          {
            "astId": 3462,
            "contract": "src/dungeon/DungeonInfoFacet.sol:DungeonInfoFacet",
            "label": "numAreas",
            "offset": 8,
            "slot": "0",
            "type": "t_uint64"
          }
        ],
        "numberOfBytes": "32"
      },
      "t_struct(Character)3430_storage": {
        "encoding": "inplace",
        "label": "struct DungeonDataLayout.Character",
        "members": [
          {
            "astId": 3415,
            "contract": "src/dungeon/DungeonInfoFacet.sol:DungeonInfoFacet",
            "label": "location",
            "offset": 0,
            "slot": "0",
            "type": "t_uint256"
          },
          {
            "astId": 3417,
            "contract": "src/dungeon/DungeonInfoFacet.sol:DungeonInfoFacet",
            "label": "direction",
            "offset": 0,
            "slot": "1",
            "type": "t_uint8"
          },
          {
            "astId": 3419,
            "contract": "src/dungeon/DungeonInfoFacet.sol:DungeonInfoFacet",
            "label": "floors",
            "offset": 1,
            "slot": "1",
            "type": "t_int64"
          },
          {
            "astId": 3421,
            "contract": "src/dungeon/DungeonInfoFacet.sol:DungeonInfoFacet",
            "label": "slot_1",
            "offset": 0,
            "slot": "2",
            "type": "t_uint256"
          },
          {
            "astId": 3423,
            "contract": "src/dungeon/DungeonInfoFacet.sol:DungeonInfoFacet",
            "label": "slot_2",
            "offset": 0,
            "slot": "3",
            "type": "t_uint256"
          },
          {
            "astId": 3425,
            "contract": "src/dungeon/DungeonInfoFacet.sol:DungeonInfoFacet",
            "label": "slot_3",
            "offset": 0,
            "slot": "4",
            "type": "t_uint256"
          },
          {
            "astId": 3427,
            "contract": "src/dungeon/DungeonInfoFacet.sol:DungeonInfoFacet",
            "label": "slot_4",
            "offset": 0,
            "slot": "5",
            "type": "t_uint256"
          },
          {
            "astId": 3429,
            "contract": "src/dungeon/DungeonInfoFacet.sol:DungeonInfoFacet",
            "label": "slot_5",
            "offset": 0,
            "slot": "6",
            "type": "t_uint256"
          }
        ],
        "numberOfBytes": "224"
      },
      "t_struct(Quest)3499_storage": {
        "encoding": "inplace",
        "label": "struct DungeonDataLayout.Quest",
        "members": [
          {
            "astId": 3496,
            "contract": "src/dungeon/DungeonInfoFacet.sol:DungeonInfoFacet",
            "label": "status",
            "offset": 0,
            "slot": "0",
            "type": "t_uint8"
          },
          {
            "astId": 3498,
            "contract": "src/dungeon/DungeonInfoFacet.sol:DungeonInfoFacet",
            "label": "data",
            "offset": 0,
            "slot": "1",
            "type": "t_string_storage"
          }
        ],
        "numberOfBytes": "64"
      },
      "t_struct(Room)3413_storage": {
        "encoding": "inplace",
        "label": "struct DungeonDataLayout.Room",
        "members": [
          {
            "astId": 3392,
            "contract": "src/dungeon/DungeonInfoFacet.sol:DungeonInfoFacet",
            "label": "blockNumber",
            "offset": 0,
            "slot": "0",
            "type": "t_uint64"
          },
          {
            "astId": 3394,
            "contract": "src/dungeon/DungeonInfoFacet.sol:DungeonInfoFacet",
            "label": "monsterBlockNumber",
            "offset": 8,
            "slot": "0",
            "type": "t_uint64"
          },
          {
            "astId": 3396,
            "contract": "src/dungeon/DungeonInfoFacet.sol:DungeonInfoFacet",
            "label": "numActiveCharacters",
            "offset": 16,
            "slot": "0",
            "type": "t_uint64"
          },
          {
            "astId": 3398,
            "contract": "src/dungeon/DungeonInfoFacet.sol:DungeonInfoFacet",
            "label": "direction",
            "offset": 24,
            "slot": "0",
            "type": "t_uint8"
          },
          {
            "astId": 3400,
            "contract": "src/dungeon/DungeonInfoFacet.sol:DungeonInfoFacet",
            "label": "exits",
            "offset": 25,
            "slot": "0",
            "type": "t_uint8"
          },
          {
            "astId": 3402,
            "contract": "src/dungeon/DungeonInfoFacet.sol:DungeonInfoFacet",
            "label": "kind",
            "offset": 26,
            "slot": "0",
            "type": "t_uint8"
          },
          {
            "astId": 3404,
            "contract": "src/dungeon/DungeonInfoFacet.sol:DungeonInfoFacet",
            "label": "areaAtDiscovery",
            "offset": 27,
            "slot": "0",
            "type": "t_uint8"
          },
          {
            "astId": 3406,
            "contract": "src/dungeon/DungeonInfoFacet.sol:DungeonInfoFacet",
            "label": "lastRoomIndex",
            "offset": 28,
            "slot": "0",
            "type": "t_uint8"
          },
          {
            "astId": 3408,
            "contract": "src/dungeon/DungeonInfoFacet.sol:DungeonInfoFacet",
            "label": "index",
            "offset": 29,
            "slot": "0",
            "type": "t_uint8"
          },
          {
            "astId": 3410,
            "contract": "src/dungeon/DungeonInfoFacet.sol:DungeonInfoFacet",
            "label": "discoverer",
            "offset": 0,
            "slot": "1",
            "type": "t_uint256"
          },
          {
            "astId": 3412,
            "contract": "src/dungeon/DungeonInfoFacet.sol:DungeonInfoFacet",
            "label": "randomEvent",
            "offset": 0,
            "slot": "2",
            "type": "t_uint64"
          }
        ],
        "numberOfBytes": "96"
      },
      "t_uint256": {
        "encoding": "inplace",
        "label": "uint256",
        "numberOfBytes": "32"
      },
      "t_uint64": {
        "encoding": "inplace",
        "label": "uint64",
        "numberOfBytes": "8"
      },
      "t_uint8": {
        "encoding": "inplace",
        "label": "uint8",
        "numberOfBytes": "1"
      }
    }
  }
}