{
  "address": "0xC68f88461cF59d0dd44ab008C9579CeC743dDC7E",
  "abi": [
    {
      "anonymous": false,
      "inputs": [
        {
          "indexed": true,
          "internalType": "uint256",
          "name": "characterId",
          "type": "uint256"
        },
        {
          "indexed": true,
          "internalType": "uint256",
          "name": "oldLocation",
          "type": "uint256"
        },
        {
          "indexed": true,
          "internalType": "uint256",
          "name": "newLocation",
          "type": "uint256"
        },
        {
          "indexed": false,
          "internalType": "uint8",
          "name": "mode",
          "type": "uint8"
        },
        {
          "indexed": false,
          "internalType": "uint256",
          "name": "path",
          "type": "uint256"
        }
      ],
      "name": "CharacterMoved",
      "type": "event"
    },
    {
      "anonymous": false,
      "inputs": [
        {
          "indexed": true,
          "internalType": "uint256",
          "name": "characterId",
          "type": "uint256"
        },
        {
          "indexed": false,
          "internalType": "uint256",
          "name": "monsterId",
          "type": "uint256"
        }
      ],
      "name": "Death",
      "type": "event"
    },
    {
      "anonymous": false,
      "inputs": [
        {
          "indexed": true,
          "internalType": "uint256",
          "name": "characterId",
          "type": "uint256"
        },
        {
          "indexed": true,
          "internalType": "address",
          "name": "player",
          "type": "address"
        },
        {
          "indexed": false,
          "internalType": "string",
          "name": "name",
          "type": "string"
        }
      ],
      "name": "Enter",
      "type": "event"
    },
    {
      "anonymous": false,
      "inputs": [
        {
          "indexed": false,
          "internalType": "uint256",
          "name": "characterId",
          "type": "uint256"
        },
        {
          "indexed": false,
          "internalType": "uint256",
          "name": "gearId",
          "type": "uint256"
        },
        {
          "indexed": false,
          "internalType": "uint8",
          "name": "slotType",
          "type": "uint8"
        }
      ],
      "name": "Equip",
      "type": "event"
    },
    {
      "anonymous": false,
      "inputs": [
        {
          "indexed": true,
          "internalType": "uint256",
          "name": "characterId",
          "type": "uint256"
        },
        {
          "indexed": false,
          "internalType": "uint16",
          "name": "hp",
          "type": "uint16"
        }
      ],
      "name": "Heal",
      "type": "event"
    },
    {
      "anonymous": false,
      "inputs": [
        {
          "indexed": true,
          "internalType": "uint256",
          "name": "characterId",
          "type": "uint256"
        },
        {
          "indexed": false,
          "internalType": "uint16",
          "name": "newLevel",
          "type": "uint16"
        }
      ],
      "name": "LevelUp",
      "type": "event"
    },
    {
      "anonymous": false,
      "inputs": [
        {
          "indexed": true,
          "internalType": "uint256",
          "name": "characterId",
          "type": "uint256"
        },
        {
          "indexed": true,
          "internalType": "uint64",
          "name": "id",
          "type": "uint64"
        },
        {
          "indexed": true,
          "internalType": "uint8",
          "name": "status",
          "type": "uint8"
        },
        {
          "indexed": false,
          "internalType": "string",
          "name": "data",
          "type": "string"
        }
      ],
      "name": "QuestUpdate",
      "type": "event"
    },
    {
      "anonymous": false,
      "inputs": [
        {
          "indexed": true,
          "internalType": "uint256",
          "name": "areaLocation",
          "type": "uint256"
        },
        {
          "indexed": false,
          "internalType": "uint64",
          "name": "blockNumber",
          "type": "uint64"
        }
      ],
      "name": "RandomEvent",
      "type": "event"
    },
    {
      "anonymous": false,
      "inputs": [
        {
          "indexed": true,
          "internalType": "uint256",
          "name": "characterId",
          "type": "uint256"
        },
        {
          "indexed": false,
          "internalType": "uint256",
          "name": "gearId",
          "type": "uint256"
        }
      ],
      "name": "Recycle",
      "type": "event"
    },
    {
      "anonymous": false,
      "inputs": [
        {
          "indexed": true,
          "internalType": "uint256",
          "name": "deadCharacterId",
          "type": "uint256"
        },
        {
          "indexed": false,
          "internalType": "uint256",
          "name": "newCharacterId",
          "type": "uint256"
        }
      ],
      "name": "Resurrect",
      "type": "event"
    },
    {
      "anonymous": false,
      "inputs": [
        {
          "indexed": true,
          "internalType": "uint256",
          "name": "location",
          "type": "uint256"
        },
        {
          "indexed": false,
          "internalType": "bytes32",
          "name": "blockHash",
          "type": "bytes32"
        },
        {
          "indexed": false,
          "internalType": "uint8",
          "name": "exits",
          "type": "uint8"
        },
        {
          "indexed": false,
          "internalType": "uint8",
          "name": "kind",
          "type": "uint8"
        }
      ],
      "name": "RoomActualised",
      "type": "event"
    },
    {
      "anonymous": false,
      "inputs": [
        {
          "indexed": true,
          "internalType": "uint256",
          "name": "location",
          "type": "uint256"
        },
        {
          "indexed": false,
          "internalType": "uint64",
          "name": "blockNumber",
          "type": "uint64"
        },
        {
          "indexed": false,
          "internalType": "uint8",
          "name": "direction",
          "type": "uint8"
        }
      ],
      "name": "RoomDiscovered",
      "type": "event"
    },
    {
      "anonymous": false,
      "inputs": [
        {
          "indexed": true,
          "internalType": "uint256",
          "name": "location",
          "type": "uint256"
        },
        {
          "indexed": true,
          "internalType": "address",
          "name": "owner",
          "type": "address"
        },
        {
          "indexed": false,
          "internalType": "uint256",
          "name": "id",
          "type": "uint256"
        },
        {
          "indexed": false,
          "internalType": "uint256",
          "name": "amount",
          "type": "uint256"
        }
      ],
      "name": "RoomIncome",
      "type": "event"
    },
    {
      "anonymous": false,
      "inputs": [
        {
          "indexed": true,
          "internalType": "uint256",
          "name": "location",
          "type": "uint256"
        },
        {
          "indexed": false,
          "internalType": "string",
          "name": "name",
          "type": "string"
        },
        {
          "indexed": false,
          "internalType": "uint256",
          "name": "characterId",
          "type": "uint256"
        }
      ],
      "name": "RoomName",
      "type": "event"
    },
    {
      "anonymous": false,
      "inputs": [
        {
          "indexed": true,
          "internalType": "address",
          "name": "owner",
          "type": "address"
        },
        {
          "indexed": false,
          "internalType": "uint256",
          "name": "tax",
          "type": "uint256"
        },
        {
          "indexed": false,
          "internalType": "uint256",
          "name": "newDueDate",
          "type": "uint256"
        }
      ],
      "name": "RoomTaxPay",
      "type": "event"
    },
    {
      "inputs": [
        {
          "internalType": "uint256",
          "name": "id",
          "type": "uint256"
        },
        {
          "internalType": "address[]",
          "name": "players",
          "type": "address[]"
        },
        {
          "internalType": "uint256[]",
          "name": "amounts",
          "type": "uint256[]"
        }
      ],
      "name": "batchMineVaultElements",
      "outputs": [],
      "stateMutability": "nonpayable",
      "type": "function"
    },
    {
      "inputs": [
        {
          "internalType": "uint256",
          "name": "characterId",
          "type": "uint256"
        },
        {
          "internalType": "uint256",
          "name": "monsterId",
          "type": "uint256"
        }
      ],
      "name": "characterDefeated",
      "outputs": [],
      "stateMutability": "nonpayable",
      "type": "function"
    },
    {
      "inputs": [
        {
          "internalType": "uint256",
          "name": "characterId",
          "type": "uint256"
        },
        {
          "internalType": "uint256",
          "name": "monsterId",
          "type": "uint256"
        },
        {
          "internalType": "int16",
          "name": "hpChange",
          "type": "int16"
        }
      ],
      "name": "characterEscaped",
      "outputs": [],
      "stateMutability": "nonpayable",
      "type": "function"
    },
    {
      "inputs": [
        {
          "internalType": "uint256",
          "name": "location",
          "type": "uint256"
        },
        {
          "internalType": "uint256",
          "name": "characterId",
          "type": "uint256"
        },
        {
          "internalType": "uint16[8]",
          "name": "amounts",
          "type": "uint16[8]"
        }
      ],
      "name": "claimBounty",
      "outputs": [],
      "stateMutability": "nonpayable",
      "type": "function"
    },
    {
      "inputs": [
        {
          "internalType": "address",
          "name": "to",
          "type": "address"
        },
        {
          "internalType": "bytes",
          "name": "data",
          "type": "bytes"
        }
      ],
      "name": "forward",
      "outputs": [
        {
          "internalType": "bool",
          "name": "success",
          "type": "bool"
        }
      ],
      "stateMutability": "payable",
      "type": "function"
    },
    {
      "inputs": [
        {
          "internalType": "uint256",
          "name": "location",
          "type": "uint256"
        },
        {
          "internalType": "address",
          "name": "benefactor",
          "type": "address"
        },
        {
          "internalType": "uint16[8]",
          "name": "income",
          "type": "uint16[8]"
        }
      ],
      "name": "generateRoomIncome",
      "outputs": [],
      "stateMutability": "nonpayable",
      "type": "function"
    },
    {
      "inputs": [
        {
          "internalType": "uint256",
          "name": "characterId",
          "type": "uint256"
        },
        {
          "internalType": "uint256",
          "name": "elementId",
          "type": "uint256"
        },
        {
          "internalType": "uint256",
          "name": "amount",
          "type": "uint256"
        }
      ],
      "name": "mintElements",
      "outputs": [],
      "stateMutability": "nonpayable",
      "type": "function"
    },
    {
      "inputs": [
        {
          "internalType": "uint256",
          "name": "location",
          "type": "uint256"
        }
      ],
      "name": "monsterDefeated",
      "outputs": [],
      "stateMutability": "nonpayable",
      "type": "function"
    },
    {
      "inputs": [
        {
          "internalType": "address",
          "name": "blockHashRegister",
          "type": "address"
        },
        {
          "internalType": "contract Player",
          "name": "playerContract",
          "type": "address"
        },
        {
          "internalType": "address payable",
          "name": "owner",
          "type": "address"
        },
        {
          "internalType": "address",
          "name": "adminContract",
          "type": "address"
        }
      ],
      "name": "postUpgrade",
      "outputs": [],
      "stateMutability": "nonpayable",
      "type": "function"
    },
    {
      "inputs": [
        {
          "internalType": "contract Characters",
          "name": "characters",
          "type": "address"
        },
        {
          "internalType": "contract Elements",
          "name": "elements",
          "type": "address"
        },
        {
          "internalType": "contract Gears",
          "name": "gears",
          "type": "address"
        },
        {
          "internalType": "contract Rooms",
          "name": "rooms",
          "type": "address"
        }
      ],
      "name": "start",
      "outputs": [],
      "stateMutability": "nonpayable",
      "type": "function"
    },
    {
      "inputs": [
        {
          "internalType": "uint256",
          "name": "characterId",
          "type": "uint256"
        },
        {
          "internalType": "uint256",
          "name": "location",
          "type": "uint256"
        }
      ],
      "name": "teleportCharacter",
      "outputs": [],
      "stateMutability": "nonpayable",
      "type": "function"
    },
    {
      "inputs": [
        {
          "internalType": "uint256",
          "name": "characterId",
          "type": "uint256"
        },
        {
          "internalType": "uint256",
          "name": "monsterId",
          "type": "uint256"
        },
        {
          "internalType": "int16",
          "name": "hpChange",
          "type": "int16"
        },
        {
          "internalType": "uint16",
          "name": "xpGained",
          "type": "uint16"
        },
        {
          "internalType": "uint256",
          "name": "gearData",
          "type": "uint256"
        },
        {
          "internalType": "int64",
          "name": "durabilityChange",
          "type": "int64"
        },
        {
          "internalType": "int16[8]",
          "name": "balanceChange",
          "type": "int16[8]"
        }
      ],
      "name": "updateCharacter",
      "outputs": [],
      "stateMutability": "nonpayable",
      "type": "function"
    },
    {
      "inputs": [
        {
          "internalType": "uint256",
          "name": "character",
          "type": "uint256"
        },
        {
          "internalType": "uint64",
          "name": "id",
          "type": "uint64"
        },
        {
          "internalType": "uint8",
          "name": "status",
          "type": "uint8"
        },
        {
          "internalType": "string",
          "name": "data",
          "type": "string"
        }
      ],
      "name": "updateQuest",
      "outputs": [],
      "stateMutability": "nonpayable",
      "type": "function"
    },
    {
      "inputs": [
        {
          "internalType": "uint256",
          "name": "characterId",
          "type": "uint256"
        },
        {
          "internalType": "uint256",
          "name": "location",
          "type": "uint256"
        },
        {
          "internalType": "uint256",
          "name": "data",
          "type": "uint256"
        },
        {
          "internalType": "uint256[8]",
          "name": "amountsPayed",
          "type": "uint256[8]"
        }
      ],
      "name": "updateRoomData",
      "outputs": [],
      "stateMutability": "nonpayable",
      "type": "function"
    }
  ],
  "transactionHash": "0xc748bcd435dd26b7d87a4344fb8a7cd644711dfc091e58cdec91475b30eb93b1",
  "args": [],
  "numDeployments": 4,
  "linkedData": {
    "readOnlyDungeon": "0x60808060405234610016576119f4908161001c8239f35b600080fdfe608060408181526004918236101561001657600080fd5b600090813560e01c9081630ececfea14610e3457508063213ee14314610a235780632f58779614610a0457806330ad9329146109ba5780633683dee114610893578063467b47931461075557806356b5c381146106f25780637a923474146106c95780639f7cb08e14610649578063a48378ff1461062a578063acda69ca14610556578063b0ca9dfe1461053a578063c3aab23c146103f9578063d5763a80146103ad578063d667fd0414610356578063ed53a62414610318578063f090aca8146102fc578063f6940ac714610152578063fcaf8951146101285763ff5335fa1461010057600080fd5b34610125576020366003190112610125575061011e6020923561197a565b9051908152f35b80fd5b50903461014e5760209060ff61014661014036610f23565b9161153a565b915191168152f35b5080fd5b50346101255760031960603682011261014e578335906044359067ffffffffffffffff918281168091036102f85761018984611015565b505060001960079290920b828112159392846102e9575b50836102dd575b50826102cc575b5081156102c0575b50156101d157505050506020915060ff6006915b5191168152f35b6009826101dd85611253565b16029182169182036102ad57819082610286575b50601911905061027657606460ff6127108551602081019085825260243588820152600360fa1b60608201526041815261022a81611051565b5190200616116102765761023f600591611015565b5091505060070b0760ff166001019260ff841161026357505060ff602092916101ca565b634e487b7160e01b825260119052602490fd5b50506020915060ff6006916101ca565b9050810190811161029a57601990386101f1565b634e487b7160e01b835260118552602483fd5b634e487b7160e01b845260118652602484fd5b600a91501015386101b6565b600191925060070b131590386101ae565b600112159250386101a7565b600783900b12159350386101a0565b8480fd5b50903461014e5760209061011e61031236610f47565b9061194a565b50346101255760a036600319011261012557606435908115158203610125575060209261011e91610347610f13565b916044359060243590356110c5565b5091346103a95760203660031901126103a95760a092503581519161ffff808360e81c168452808360a81c1660208501528260b81c169083015263ffffffff8160c81c16606083015260f81c6080820152f35b8280fd5b5091346103a95760603660031901126103a957358060070b81036103a957602435908160070b82036103f557604435938460070b850361012557509261011e91602094610f91565b8380fd5b50903461014e57602036600319011261014e5782359160ff83169283810361014e578251610160810181811067ffffffffffffffff821117610527578452828152600a60208201526031848201526077606082015260d0608082015261014860a082015261020c60c082015261033a60e08201526104f5610100820152610e46610120820152611aee610140820152600b8510156105145790611fe0929161ffff93849260051b1601511693600881116000146104cd5750505060609250600a906101ec5b81519384526020840152820152f35b826005816104e6816104e0600896611937565b16611482565b1604160190828211610501575060609450600a9291166104be565b634e487b7160e01b815260118652602490fd5b634e487b7160e01b835260328652602483fd5b634e487b7160e01b845260418752602484fd5b50903461014e5760209061011e61055036610f47565b9061140b565b50903461014e5760c036600319011261014e57610571610f5d565b60243560ff811681036103f557610586610efe565b906064359161ffff9384841684036106265760843594851685036106265760a4359663ffffffff88168098036101255750602096936105fb610621946105e961011e989561060e9561ffff60e81b9060e81b169060ff60f81b9060f81b16610f6e565b60e09190911b60ff60e01b1690610f6e565b60d09190911b61ffff60d01b1690610f6e565b60c09190911b61ffff60c01b1690610f6e565b610f6e565b8680fd5b5034610125576020366003190112610125575061011e60209235611457565b5034610125576020366003190112610125575063ffffffff61069560c09335908160f81c61ffff808460e81c169360ff8160e01c169363ffffffff838360d01c16938360c01c16921690565b949190929660ff8151988161ffff97888097168c521660208b015216908801521660608601521660808401521660a0820152f35b50903461014e57602036600319011261014e5760209061ffff6106ea610f5d565b169051908152f35b509190346103a957600a919261070736610f47565b939004600101806001116107425783810293818504149015171561072f576020838351908152f35b634e487b7160e01b815260118452602490fd5b634e487b7160e01b825260118552602482fd5b50903461014e57602036600319011261014e5782359167ffffffffffffffff908184116101255736602385011215610125578385013591821161012557602494600594368785881b830101116103a95794929190819582945b8486106107bf576020888851908152f35b9091929394966107fd8989841b85010135908160f81c61ffff808460e81c169360ff8160e01c169363ffffffff838360d01c16938360c01c16921690565b509360019350617fff925061081590841c8316611937565b9061ffff80808416961691161461085c575b50505061083391610f6e565b96600019811461084a5760010194939291906107ae565b634e487b7160e01b8552601184528885fd5b8293921c16820180921161088157610833929161087891610f6e565b90913880610827565b634e487b7160e01b8752601186528a87fd5b5034610125576108a236610f23565b9091925060196108b18461136a565b0480156109b2575b6108f76108ee8287516020810190888252878a820152601960fa1b6060820152604181526108e681611051565b5190206110a5565b8260011c610f6e565b9182156109a9575b60ff169384600214610991575b61094e929360088311610988575b6109459183918851906020820192835289820152606560f81b6060820152604181526108e681611051565b9060011c610f6e565b91821561097f575b60011461096a575b82519182526020820152f35b90806109799160021c90610f6e565b9061095e565b60019250610956565b6008925061091a565b6109a28361094e9460021c90610f6e565b925061090c565b600192506108ff565b5060016108b9565b5034610125576020366003190112610125575067ffffffffffffffff6109e260809335611015565b92949182519560070b865260070b602086015260070b90840152166060820152f35b5034610125576020366003190112610125575061011e602092356111cb565b50903461014e5760c036600319011261014e57823592602492833593610a47610efe565b916064359360ff9485811681036103a957610a60610f13565b9060a435958787168097036102f857610a7a908a8c61153a565b9884610a90610a888d6111cb565b94939c611015565b50509060070b159081610e28575b5015610acc57505050505050505060609381600160029217915b818551961686521660208501521690820152f35b9a939699909294979598915b8681169b8b8d11610e12575082516020810187815260f89290921b6001600160f81b031916818501526041808201869052600360f81b606183015260428252608082019067ffffffffffffffff821183831017610e02575084525190206001908c90868316831415906014900689168180610df0575b15610b7f5750505080600295179b5b878114610b6d5701939a93610ad8565b634e487b7160e01b8a52601189528a8afd5b600292888416841415928380610dc4575b15610ba35750505050600395179b610b5d565b8c808b969394959616141580928193610d51575b5015610bcc575050505050878095179b610b5d565b60089485808c1614159485610bfc575b5050505050600014610bf257600595179b610b5d565b50939a8490610b5d565b600391929394955014938415610d46575b8415610d2d575b8415610d14575b8415610cfb575b8415610cd5575b8415610caf575b8415610c89575b8415610c4c575b505050508d38808080610bdc565b604d149350909183610c81575b5082610c79575b5081610c71575b5038808f80610c3e565b905038610c67565b915038610c60565b925038610c59565b9350604e841480610ca8575b80610ca1575b93610c37565b5080610c9b565b5082610c95565b9350604e841480610cce575b80610cc7575b93610c30565b5082610cc1565b5081610cbb565b9350604e841480610cf4575b80610ced575b93610c29565b5080610ce7565b5081610ce1565b9350604f841480610d0d575b93610c22565b5082610d07565b9350604f841480610d26575b93610c1b565b5080610d20565b9350604f841480610d3f575b93610c14565b5081610d39565b605081149450610c0d565b905084148015610dba575b8015610da8575b8015610d96575b8015610d77575b38610bb7565b50604e831480610d8f575b8015610d71575084610d71565b5080610d82565b50604f83148015610d6a575084610d6a565b50604f83148015610d63575080610d63565b5060508314610d5c565b508583148015610de6575b80610b905750604f82148015610b90575080610b90565b5060508214610dcf565b50801580610b4e575060508314610b4e565b634e487b7160e01b8c528a528b8bfd5b9550509850965050925060609650819350610ab8565b905060070b1538610a9e565b918491503461012557836003193601126101255750610ed5610eea610ef093610eda610ed5610ee4610eda963593610eca60ff60098c82826024359660208101908c82528885820152603360f91b606082015260418152610e9481611051565b51902006169481519060208201928b8452820152606760f81b606082015260418152610ebf81611051565b519020061695611015565b5099919890986119a9565b6112cb565b9060070b906111a3565b946119a9565b90610f91565b815190815260026020820152f35b6044359060ff82168203610f0e57565b600080fd5b6084359060ff82168203610f0e57565b6060906003190112610f0e57600435906024359060443560ff81168103610f0e5790565b6040906003190112610f0e576004359060243590565b6004359061ffff82168203610f0e57565b91908201809211610f7b57565b634e487b7160e01b600052601160045260246000fd5b909167ffffffffffffffff9067ffffffffffffffff60801b608082901b16908216808204600160801b1490151715610f7b57600160ff1b908101908110610f7b576fffffffffffffffff00000000000000008285169460401b1693808504600160401b1490151715610f7b576110129361100a91610f6e565b911690610f6e565b90565b67ffffffffffffffff9081811660070b92828260401c1660070b928260801c1660070b9160ff1c90565b60ff60019116019060ff8211610f7b57565b6080810190811067ffffffffffffffff82111761106d57604052565b634e487b7160e01b600052604160045260246000fd5b90601f8019910116810190811067ffffffffffffffff82111761106d57604052565b81156110af570690565b634e487b7160e01b600052601260045260246000fd5b9192909360ff600191160361115c57600f90611154575b60ff60646040516020810190858252876040820152600360f91b60608201526041815261110881611051565b5190200691161161111b57505050600090565b6111469260405190602082019283526040820152600760f81b6060820152604181526108e681611051565b60018101809111610f7b5790565b5060196110dc565b50505050600090565b60070b677fffffffffffffff198114610f7b5760000390565b60070b60040190677fffffffffffffff8213677fffffffffffffff19831217610f7b57565b9060070b9060070b0190677fffffffffffffff198212677fffffffffffffff831317610f7b57565b6111d761101291611015565b509160079190600081840b12611234576111f260099161117e565b830b05915b600082820b126112155761120c60099261117e565b900b0590610f91565b60099061122c611227610eea94611165565b61117e565b900b05611165565b600961124561122761124d93611165565b840b05611165565b916111f7565b61125c90611015565b50819050826000600782900b126112b9575b5060008160070b126112a9575b508060070b8260070b1360001461129a575067ffffffffffffffff1690565b905067ffffffffffffffff1690565b6112b39150611165565b3861127b565b6112c4919350611165565b913861126e565b60070b6003190190677fffffffffffffff198212677fffffffffffffff831317610f7b57565b60070b90677fffffffffffffff198212677fffffffffffffff831317610f7b57565b600791820b910b0390677fffffffffffffff198212677fffffffffffffff831317610f7b57565b600160ff1b8114610f7b5760000390565b90600160401b60008382039312818412811691841390151617610f7b57565b61137661137f91611015565b505091906112f1565b60070b90600082126113f6575b611395906112f1565b60070b600081126113e8575b6780000000000000008083136113d8575b81136113ca575b808213156113c5575090565b905090565b6113d39061134b565b6113b9565b916113e29061134b565b916113b2565b6113f19061133a565b6113a1565b906114036113959161133a565b91905061138c565b9061142d61141b61142593611015565b5050939092611015565b505092611313565b60070b9060008212611444575b6113959192611313565b6114506113959261133a565b915061143a565b600160ff1b81036114685750600090565b61147360199161136a565b0460010180600111610f7b5790565b801561151157808060011461150a57600214611504576001908161013382101682600b831016176114f357906003815b8082116114ca5750508161ffff048111610f7b570290565b90928061ffff048111610f7b578184166114ea575b800292811c906114b2565b809202916114df565b600391500a9061ffff8211610f7b57565b50600890565b5050600190565b50600090565b80156115345760ff8111610f7b576001901b9060ff8211610f7b57565b50600190565b909160ff916004916000908416838103611738575050600f935b8360646040516020810190858252846040820152606f60f81b60608201526041815261157f81611051565b5190200616600090603c811060001461171c5750508360005b168381106115ab57505050505060f01790565b8491906003810361163c5750604080516020810194855290810191909152600760fc1b60608201526007926115fe91600391906115f581606181015b03601f198101835282611083565b5190201661103f565b160291821691820361162757506015810361161a575060d01790565b601c036110125760b01790565b601190634e487b7160e01b6000525260246000fd5b909150600281036116b257506116898460066003946115e761167f8496604051928391602083019586909160419282526020820152600760fc1b60408201520190565b519020061661103f565b16029182169182036116275750600f81036116a5575060501790565b6012036110125760a01790565b6001919293959450146116c7575b5050905090565b604080516020810193845290810191909152600760fc1b6060820152611700916003916116f781606181016115e7565b51902016611517565b821b91610ff060f08416931683036116275750178038806116c0565b605a91501060001461173057836001611598565b836002611598565b6040959195856064825160208101908782528685820152600160f81b60608201526041815261176681611051565b5190200616605711611926575b856064825160208101908782528685820152600160f91b60608201526041815261179c81611051565b51902006166028116117b0575b5050611554565b85818487939995995183606460208301836117e1868d84909160419282526020820152600360f81b60408201520190565b03936117f5601f1995868101835282611083565b5190200616601911156118565750505050508015801561184c575b156118225750600a17935b38806117a9565b80600196929614908115611841575b501561181b57936005179361181b565b905060031438611831565b5080600214611810565b9151602081018881526040820192909252600360f81b6060820152606192830181526064926118859082611083565b5190200616603211156118da5750806118a257506008179361181b565b600181036118b55750600117935b61181b565b600281036118c757506002179361181b565b6003959195036118b0579382179361181b565b9190806118ed575060029150179361181b565b600181036118fd5750179361181b565b9091506002810361191257506008179361181b565b6003959195036118b057936001179361181b565b955061193181611517565b95611773565b9061ffff809216600101918211610f7b57565b906119549161140b565b6001600160ff1b0381168103610f7b5760059060011b0480156000146110125750600190565b6119839061136a565b6001600160ff1b0381168103610f7b5760069060011b0480156000146110125750600190565b60099060070b02908160070b918203610f7b5756fea26469706673582212203c4c43883a7319f368409400962e63e23b1d5d86c7925e44e3f62a0da6e003f964736f6c63430008140033"
  },
  "solcInputHash": "90ef69df07aa634af9adf868f6be93e6",
  "bytecode": "0x6080806040523461001657614b26908161001c8239f35b600080fdfe6080604052600436101561001257600080fd5b60003560e01c80630604ba13146100f757806322988b1d146100f2578063398f2168146100ed57806363c75325146100e85780636fadcf72146100e35780637507a1c9146100de5780639434e4e8146100d9578063ab536060146100d4578063b2f2dff9146100cf578063cf747b49146100ca578063d8468f8f146100c5578063e6d48fe7146100c0578063e7691518146100bb5763f3f543ba146100b657600080fd5b61177b565b611666565b61151d565b6113c4565b611104565b610ecf565b610ded565b610d7a565b610b95565b610af9565b6109b4565b61089a565b610749565b610134565b8060010b0361010757565b600080fd5b61ffff81160361010757565b906064916101641161010757565b906044916101441161010757565b34610107576101c03660031901126101075760048035604435610156816100fc565b606435916101638361010c565b6084359360a4359260079084820b9586860361010757366101c4116101075761019660018060a01b03855416331461190c565b6005546101b3906001600160a01b03165b6001600160a01b031690565b95863b15610107576040988951809863216d6a4f60e11b8252818860009b8c80945af180156102fa57610725575b50866101f7816000526000602052604060002090565b9182546001600160401b03610226610219836000526001602052604060002090565b546001600160401b031690565b16610716575b508061062b575b5050875b60ff811660088110156103ae5761025061025591611a54565b611a7c565b90898260010b818113600014610303575050865461027b906001600160a01b03166101a7565b61028482611a9b565b92813b156102ff578d516302acc94b60e01b8152808b018c815260ff909516602086015261ffff919091166040850152928b91849182908490829060600103925af19182156102fa576102dc926102e1575b50611a28565b610237565b806102ee6102f492610a67565b806118f5565b386102d6565b611900565b8b80fd5b12610313575b6102dc9150611a28565b8654610327906001600160a01b03166101a7565b9161034761034061034061033a85611a9b565b93611abe565b61ffff1690565b92803b156102ff578d5163c9b902e360e01b8152808b018c815260ff909316602084015260408301949094528b9184919082908490829060600103925af19182156102fa576102dc9261039b575b50610309565b806102ee6103a892610a67565b38610395565b5050926104029194508799989295966103c681612542565b9160010b806105b5575b506103fd8a83016103f361ffff809a166103ee835163ffffffff1690565b611ad1565b63ffffffff169052565b61243d565b61040a578480f35b60028101805461041981612976565b608081015161ffff1691868316610513575b505050506003019182549061043f82612976565b9261044f608085015161ffff1690565b91821661045d575b50508480f35b836103409361048d61048561049294606061049a990196610480885161ffff1690565b614ab4565b61ffff168552565b6128c4565b5161ffff1690565b156104a9575b80808080610457565b6008546104be906001600160a01b03166101a7565b905491813b1561050f579351630301ea6560e51b8152938401918252839182908490829060200103925af180156102fa576104fc575b8181806104a0565b806102ee61050992610a67565b386104f4565b8380fd5b91610492826105379461048d6104858a6060610340980196610480885161ffff1690565b15610545575b80808061042b565b60085461055a906001600160a01b03166101a7565b9054813b156105b1578751630301ea6560e51b81528681019182529691879182908490829060200103925af19081156102fa57879560039261059e575b509061053d565b806102ee6105ab92610a67565b38610597565b8680fd5b6105ea61ffff916104926105e260808701926105d3845161ffff1690565b606089015161ffff1690614ab4565b61ffff168252565b16156105f7575b386103d0565b8951602435815281907fd02b8bdc1eb9eb4a85fe2b27c68fbe1eec04f697f660cc4cf3bb2cee4456f49090602090a26105f1565b600854610640906001600160a01b03166101a7565b8c519163c9a59e4760e01b8352898380610664602097889483019190602083019252565b0381855afa9182156102fa578b8f8c8f9161068e600a8a986106b49a86916106f9575b50106119d5565b5196879586948593630d9778e560e11b8552840160209093929193604081019481520152565b03925af180156102fa576106cb575b889150610233565b816106ea92903d106106f2575b6106e28183610a9a565b8101906119c6565b5038806106c3565b503d6106d8565b61071091508a3d8c116106f2576106e28183610a9a565b38610687565b61071f90611efd565b3861022c565b806102ee61073292610a67565b386101e1565b6001600160a01b0381160361010757565b346101075760006080366003190112610867576004359061076982610738565b60243561077581610738565b610780604435610738565b6064359061078d82610738565b7fc8fcad8db84d3cc18b4c41d551ea0ee66dd599cde068d998e57d5e09332c131c546001600160a01b039182916107c79083163314611894565b16806001600160601b0360a01b600a541617600a55803b1561050f57838091600460405180948193630354740160e31b83525af180156102fa5761084e575b5061082e9061084b93941660018060a01b03166001600160601b0360a01b6005541617600555565b60018060a01b03166001600160601b0360a01b6004541617600455565b80f35b9061084b9361085f61082e93610a67565b935090610806565b80fd5b9181601f84011215610107578235916001600160401b038311610107576020808501948460051b01011161010757565b346101075760603660031901126101075760048035906001600160401b0390602435828111610107576108d0903690830161086a565b939092604435908111610107576108ea903690840161086a565b93909460018060a01b039061090382865416331461190c565b60005b81811061090f57005b60075483166001600160a01b03169061093161092c828588611e54565b611e64565b9161093d828a8c611e54565b3592813b15610107576040805163a41dab8160e01b81526001600160a01b03909216828b01908152602081018a90529081019490945292600091849182908490829060600103925af19182156102fa5761099c926109a1575b50611b6c565b610906565b806102ee6109ae92610a67565b38610996565b346101075760006060366003190112610867578060018060a01b036109fd817fc8fcad8db84d3cc18b4c41d551ea0ee66dd599cde068d998e57d5e09332c131c54163314611894565b60075416803b15610a4e5781906064604051809481936302acc94b60e01b83526004356004840152602435602484015260443560448401525af180156102fa57610a45575080f35b61084b90610a67565b50fd5b634e487b7160e01b600052604160045260246000fd5b6001600160401b038111610a7a57604052565b610a51565b608081019081106001600160401b03821117610a7a57604052565b90601f801991011681019081106001600160401b03821117610a7a57604052565b6040519060a082018281106001600160401b03821117610a7a57604052565b6040519060c082018281106001600160401b03821117610a7a57604052565b604036600319011261010757600435610b1181610738565b6024356001600160401b03918282116101075736602383011215610107578160040135928311610a7a5760405190610b53601f8501601f191660200183610a9a565b8382523660248585010111610107576000602085610b91966024610b7f9701838701378401015261194f565b60405190151581529081906020820190565b0390f35b3461010757602036600319011261010757600435610bbe60018060a01b0360045416331461190c565b600554610bd3906001600160a01b03166101a7565b90813b1561010757604051809263216d6a4f60e11b82528160046000958680945af180156102fa57610d67575b506002610c17826000526001602052604060002090565b6001600160401b03610c3082546001600160401b031690565b16610d59575b8054610c559060401c6001600160401b03165b6001600160401b031690565b610d42575b01610c6f610c4982546001600160401b031690565b610d2d575b50600954610c8a906001600160a01b03166101a7565b604051630178fe3f60e01b81526004810183905291602083602481855afa80156102fa5784938491610d0f575b50610cc0575050f35b813b15610d0b57604051634848b1a560e01b815260048101919091526000602482015291908290604490829084905af180156102fa57610cfe575080f35b806102ee61084b92610a67565b5050fd5b610d27915060203d81116106f2576106e28183610a9a565b38610cb7565b805467ffffffffffffffff1916905538610c74565b805467ffffffffffffffff60401b19168155610c5a565b610d6283611efd565b610c36565b806102ee610d7492610a67565b38610c00565b34610107576080366003190112610107576024356001600160401b038082168203610107576044359160ff8316830361010757606435928284116101075736602385011215610107578360040135928311610107573660248486010111610107576024610deb940191600435611c21565b005b3461010757604036600319011261010757600435610e2a60018060a01b03610e1a8160045416331461190c565b600554166001600160a01b031690565b803b15610107576000809160046040518094819363216d6a4f60e11b83525af180156102fa57610ebc575b50610e73610e6d826000526000602052604060002090565b54611efd565b610e8c610e7f82612542565b600060808201528261243d565b60405160243581527fd02b8bdc1eb9eb4a85fe2b27c68fbe1eec04f697f660cc4cf3bb2cee4456f49090602090a2005b806102ee610ec992610a67565b38610e55565b346101075761016036600319011261010757602435610eed36610118565b600480546001600160a01b039290610f08908416331461190c565b610f19610f1485613451565b611af3565b600954610f2e906001600160a01b03166101a7565b92604093845180916369f648a160e01b825260209182918180610f588c8b83019190602083019252565b03915afa9182156102fa576000926110e5575b50600654610f81906001600160a01b03166101a7565b8187518092630607176160e31b82528180610fa48b358c83019190602083019252565b03915afa9081156102fa57610fc4926000926110c8575b50508214611b34565b60005b60088110611036575050600954610fe992506001600160a01b031690506101a7565b803b15610107579151634848b1a560e01b8152908101928352604435602084015291600091839182908490829060400103925af180156102fa5761102957005b806102ee610deb92610a67565b60075461104b906001600160a01b03166101a7565b9061105581611b7b565b61105f8287611a6b565b35833b15610107578851637f4c824d60e11b81526001600160a01b0386881616818a019081526000602082018190526040820194909452606081019290925293849182908490829060800103925af19182156102fa576110c3926109a15750611b6c565b610fc7565b6110de9250803d106106f2576106e28183610a9a565b3880610fbb565b816110fd9293503d84116106f2576106e28183610a9a565b9038610f6b565b3461010757606036600319011261010757600435604435611124816100fc565b61113960018060a01b0360045416331461190c565b60055461114e906001600160a01b03166101a7565b90813b156101075760405192839263216d6a4f60e11b84528360046000968780945af19283156102fa5761084b936113b1575b50611196816000526000602052604060002090565b906112438254936111a685611efd565b866111b084612542565b916111e460808401916111da6111cb610340855161ffff1690565b6001600160401b031660070b90565b9060010b90611bcb565b606084015161ffff16838260070b61ffff9283811660070b82136113a5575b5013611392575050604051602435815285907fd02b8bdc1eb9eb4a85fe2b27c68fbe1eec04f697f660cc4cf3bb2cee4456f49090602090a2525b8261243d565b600182019161126f61126761126161125c865460ff1690565b611a89565b60031690565b809584612ae3565b80928254907f3042d0c278ec3b2d8bf290d27da7bb56226996146c187fc01f6f448b6283da72604051806112b48a82919091602060ff60408301946000845216910152565b0390a46112c082611efd565b80546001600160401b036112f16112e1836000526001602052604060002090565b5460801c6001600160401b031690565b1661135e575b5061134e61130f836000526001602052604060002090565b80546113269060801c6001600160401b0316611c09565b815467ffffffffffffffff60801b191660809190911b67ffffffffffffffff60801b16179055565b559060ff1660ff19825416179055565b61137561138c916000526001602052604060002090565b80546113269060801c6001600160401b0316611bf3565b386112f7565b6113a093501661ffff169052565b61123d565b61ffff16855238611203565b806102ee6113be92610a67565b38611181565b346101075761014036600319011261010757600460243581356113e682610738565b6113ef36610126565b9060018060a01b039261140684865416331461190c565b60005b60ff8116906008821015610deb5761143e61034061143961143261142c85611a9b565b60ff1690565b9488611a6b565b611ae9565b9182611455575b506114509150611a28565b611409565b60075461146a906001600160a01b03166101a7565b803b15610107576040805163a41dab8160e01b81526001600160a01b038716818c019081526020810185905280830187905291929091600091839182908490829060600103925af180156102fa576114509588937f41d17e4a29add7df9dab104b7b914e73209c448b1fd78b8ca04efc5e24df1abb936115019361150a575b50519485526020850152868a16939081906040820190565b0390a338611445565b806102ee61151792610a67565b386114e9565b346101075760403660031901126101075760043560243561154960018060a01b0360045416331461190c565b60055461155e906001600160a01b03166101a7565b91823b15610107576000809360046040518096819363216d6a4f60e11b83525af19283156102fa57610deb93611653575b506115a4816000526000602052604060002090565b8281546115b081611efd565b837f3042d0c278ec3b2d8bf290d27da7bb56226996146c187fc01f6f448b6283da72604051806115ec8190600460206040840193600181520152565b0390a460016115fa84613c76565b5093915050019061160f825460081c60070b90565b8160070b9060070b12611624575b5050612f01565b61164c919081549060081b68ffffffffffffffff00169068ffffffffffffffff001916179055565b388061161d565b806102ee61166092610a67565b3861158f565b34610107576101403660031901126101075760243561168436610126565b90600461169b60018060a01b03825416331461190c565b6116a58135613d2d565b9160005b60ff8116906008821015610deb576116c76103406114398489611a6b565b6116db575b6116d69150611a28565b6116a9565b6007546116f0906001600160a01b03166101a7565b6117066114396116ff84611a9b565b9489611a6b565b813b1561010757604080516311aa10fb60e01b81528088018981526020810188905260ff9096169186019190915261ffff909116606085015292600091849182908490829060800103925af19182156102fa576116d692611768575b506116cc565b806102ee61177592610a67565b38611762565b346101075760803660031901126101075761184460043561179b81610738565b602435906117a882610738565b604435916117b583610738565b606435926117c284610738565b7fc8fcad8db84d3cc18b4c41d551ea0ee66dd599cde068d998e57d5e09332c131c546001600160a01b039283916117fc9083163314611894565b816001600160601b0360a01b9516856006541617600655168360075416176007551690600854161760085560018060a01b03166001600160601b0360a01b6009541617600955565b600160ff1b600052600160205261188c60ff6118857fe209ec102481142efb7be62c549d278b9d65c9410e465059ec2d8758d3fc5cf55b5460d01c60ff1690565b1615611e6e565b610deb613545565b1561189b57565b60405162461bcd60e51b815260206004820152602c60248201527f4f6e6c79206f776e657220697320616c6c6f77656420746f20706572666f726d60448201526b103a3434b99030b1ba34b7b760a11b6064820152608490fd5b600091031261010757565b6040513d6000823e3d90fd5b1561191357565b60405162461bcd60e51b81526020600482015260146024820152732727aa2fa0aaaa2427a924ad22a22fa0a226a4a760611b6044820152606490fd5b600091829161196960018060a01b0360045416331461190c565b6020825192019034905af1801561197d5790565b60405162461bcd60e51b815260206004820152601160248201527019985a5b1959081d1bc8199bdc9dd85c99607a1b6044820152606490fd5b6000526002602052604060002090565b90816020910312610107575190565b156119dc57565b60405162461bcd60e51b815260206004820152600e60248201526d546f6f206d616e7920676561727360901b6044820152606490fd5b634e487b7160e01b600052601160045260246000fd5b60ff1660ff8114611a395760010190565b611a12565b634e487b7160e01b600052603260045260246000fd5b6008811015611a665760051b60c40190565b611a3e565b906008811015611a665760051b0190565b35611a86816100fc565b90565b60ff60029116019060ff8211611a3957565b60ff60019116019060ff8211611a3957565b60ff166001019060ff8211611a3957565b60010b617fff198114611a395760000390565b91909163ffffffff80809416911601918211611a3957565b35611a868161010c565b15611afa57565b60405162461bcd60e51b8152602060048201526012602482015271726f6f6d206973206e6f742061637469766560701b6044820152606490fd5b15611b3b57565b60405162461bcd60e51b81526020600482015260096024820152683737ba1037bbb732b960b91b6044820152606490fd5b6000198114611a395760010190565b9060018201809211611a3957565b90620697808201809211611a3957565b91908201809211611a3957565b60070b60040190677fffffffffffffff8213677fffffffffffffff19831217611a3957565b9060070b9060070b0190677fffffffffffffff198212677fffffffffffffff831317611a3957565b6001600160401b03168015611a39576000190190565b6001600160401b03809116908114611a395760010190565b91909293611c3a60018060a01b0360045416331461190c565b600093838552602094600c865260408120956001600160401b038093169687835281526040822091611c7686849060ff1660ff19825416179055565b6001809301938511610a7a57611c9685611c908654611d9e565b86611dd8565b8091601f8611600114611d075750928480611cf79460ff97947f3553d84d9f5bc81eeb57eac4d5a1fee928d026da4f389c33c1cebfaf3931fda0999793611cfc575b501b906000198460031b1c19161790555b604051938493169783611e2c565b0390a4565b8c0135925038611cd8565b601f92919219861690611d1f86600052602060002090565b93905b8b838310611d88575050509285927f3553d84d9f5bc81eeb57eac4d5a1fee928d026da4f389c33c1cebfaf3931fda097959260ff97611cf79610611d6e575b505082811b019055611ce9565b8b0135600019600386901b60f8161c191690553880611d61565b8401358555938501939283019290810190611d22565b90600182811c92168015611dce575b6020831014611db857565b634e487b7160e01b600052602260045260246000fd5b91607f1691611dad565b90601f8111611de657505050565b600091825260208220906020601f850160051c83019410611e22575b601f0160051c01915b828110611e1757505050565b818155600101611e0b565b9092508290611e02565b90918060409360208452816020850152848401376000828201840152601f01601f1916010190565b9190811015611a665760051b0190565b35611a8681610738565b15611e7557565b60405162461bcd60e51b815260206004820152601760248201527f64756e67656f6e20616c726561647920737461727465640000000000000000006044820152606490fd5b15611ec157565b60405162461bcd60e51b81526020600482015260146024820152731c9bdbdb481b9bdd0818dc99585d1959081e595d60621b6044820152606490fd5b611f11816000526001602052604060002090565b9081546001600160401b03811692611f2a841515611eba565b60ff809260d01c1615611f4f575b5050611f4d9150611f4890614967565b612669565b565b600554611f9694602091611f6b906001600160a01b03166101a7565b6040518080988194634a83e9cd60e11b8352600483019190916001600160401b036020820193169052565b03915afa9384156102fa57600094612208575b50831561220257611fba8484612240565b60016120b26120ab86867f8850140926f0260fe1b422b7a0d93e7d5734e521eae9ac8969ed512cc383451561209861200e88548a8160e81c16908b8160e01c16908c808260d81c169160c01c168888613fde565b8a5460ff60d01b60d084901b1661ffff60c81b1990911660ff60c81b60c886901b1617178b559591929061204186614967565b96612056886000526002602052604060002090565b908d612067835460ff9060081c1690565b8282169116036121e7575b50506040519384938491604091949360ff80926060860197865216602085015216910152565b0390a26000526002602052604060002090565b5460ff1690565b910193845490816120c5575b5050611f38565b6120e56005916120de6120d785612542565b5160ff1690565b9087613dd2565b91909484161115612172575b505060075461210991506001600160a01b03166101a7565b925490833b15610107576040516302acc94b60e01b81526004810192909252600660248301526044820152916000908390606490829084905af19081156102fa57611f4d92611f489261215f575b8192816120be565b806102ee61216c92610a67565b38612157565b600754612187906001600160a01b03166101a7565b803b15610107576040516302acc94b60e01b8152600481019390935260ff9390931660248301526044820152906000908290606490829084905af180156102fa576121d4575b80806120f1565b806102ee6121e192610a67565b386121cd565b815461ff00191660089190911b61ff00161790553880612072565b50505050565b61222191945060203d81116106f2576106e28183610a9a565b9238611fa9565b9060016001600160401b0380931601918211611a3957565b61224990614967565b60ff61225f826000526002602052604060002090565b54161561226a575050565b600660ff6122b06122bf6001600160401b03948560035460401c169661228f82614910565b8015612432575b156123615750849283916000526002602052604060002090565b9060ff1660ff19825416179055565b16036122c9575050565b806201437042041680916122e56003546001600160401b031690565b161461232b5761230c91506001600160401b03166001600160401b03196003541617600355565b611f4d600160401b67ffffffffffffffff60401b196003541617600355565b50612338611f4d91612228565b67ffffffffffffffff60401b6003549160401b169067ffffffffffffffff60401b191617600355565b6019612377610c496123728561489a565b614745565b80612424575b1061241a57846123d061142c6064936040516123c5816123b760208201948a86909160419282526020820152600360fa1b60408201520190565b03601f198101835282610a9a565b519020612710900690565b1611612406576123f360056123e483613c76565b5091505060070b078516611aad565b9283916000526002602052604060002090565b849283916000526002602052604060002090565b50849283916119b6565b61242d90613d1e565b61237d565b50600a881015612296565b906124df906124886124d961034060806124cf6124b461248e61246d61246761142c8a5160ff1690565b60f81b90565b61248861248261034060208c015161ffff1690565b60e81b90565b90611b99565b6124886124ae6124a560408b015163ffffffff1690565b63ffffffff1690565b60c81b90565b6124886124c961034060608a015161ffff1690565b60b81b90565b94015161ffff1690565b60a81b90565b6006549091906124f7906001600160a01b03166101a7565b91823b1561010757604051634848b1a560e01b815260048101929092526024820152906000908290604490829084905af180156102fa576125355750565b806102ee611f4d92610a67565b60405160a081018181106001600160401b03821117610a7a576125b7926080926020926040526000938185809352828582015282604082015282606082015201526125976101a760065460018060a01b031690565b6040518080968194630178fe3f60e01b8352600483019190602083019252565b03915afa80156102fa576126406126036126289261263595611a86959161264b575b50908160f81c9161ffff808260e81c169363ffffffff8360c81c1691808460b81c169360a81c1693565b97929590919361261d612614610abb565b60ff909a168a52565b61ffff166020890152565b63ffffffff166040870152565b61ffff166060850152565b61ffff166080830152565b612663915060203d81116106f2576106e28183610a9a565b386125d9565b600261267f826000526002602052604060002090565b0180546001600160401b0390811692836126995750505050565b6005546126b594602091611f6b906001600160a01b03166101a7565b03915afa9384156102fa576000946127a7575b50831561220257612741936126dc91613f38565b906126fa6126e9826127c7565b916000526001602052604060002090565b60028082019461271186546001600160401b031690565b1614159182612786575b8261277d575b508161276c575b5061274a575b5050805467ffffffffffffffff19169055565b38808080612202565b815467ffffffffffffffff19166001600160401b03909116179055388061272e565b5460d01c60ff161515905038612728565b15915038612721565b91506127a0610c4982546001600160401b039060801c1690565b159161271b565b6127c091945060203d81116106f2576106e28183610a9a565b92386126c8565b6127ee6127de826000526001602052604060002090565b5460401c6001600160401b031690565b906001600160401b03821691821561289e576005546128479160209161281c906001600160a01b03166101a7565b6040518080958194634a83e9cd60e11b8352600483019190916001600160401b036020820193169052565b03915afa9081156102fa576000916128a6575b50801561289e57611a869261287f610c49610219856000526001602052604060002090565b149061289861187b846000526001602052604060002090565b92613d4c565b505050600090565b6128be915060203d81116106f2576106e28183610a9a565b3861285a565b9061291c906128d5815161ffff1690565b906128e4602082015160ff1690565b604082015160ff16606083015161ffff169161291660a061290a608087015161ffff1690565b95015163ffffffff1690565b94614a43565b6008549091906124f7906001600160a01b03166101a7565b6040519060c082018281106001600160401b03821117610a7a576040528160a06000918281528260208201528260408201528260608201528260808201520152565b60206129ba91612984612934565b5060085461299a906001600160a01b03166101a7565b6040518080958194630178fe3f60e01b8352600483019190602083019252565b03915afa9081156102fa57612a4c612a57612a37612a0f612a4195611a8695600091612a64575b50908160f81c61ffff808460e81c169360ff8160e01c169363ffffffff838360d01c16938360c01c16921690565b979499929193612a2d612a23979297610ada565b61ffff909c168c52565b60ff1660208b0152565b60ff166040890152565b61ffff166060870152565b61ffff166080850152565b63ffffffff1660a0830152565b612a7c915060203d81116106f2576106e28183610a9a565b386129e1565b60070b677fffffffffffffff198114611a39576000190190565b60070b677fffffffffffffff8114611a395760010190565b8015612ad15760ff8111611a39576001901b9060ff8211611a3957565b50600190565b60ff611a869116612ab4565b9091612aee83613c76565b5060ff848116969390929190828189612cde575050612b0f612b1693612a82565b905b613c9f565b94612b2b836000526001602052604060002090565b90612b40876000526001602052604060002090565b82546001600160401b0380821693612b70612b6b611261612b65875495861694612ab4565b9b611a89565b612ad7565b948181108015612cd6575b15612c0c57505050505050612b95905460ff9060c81c1690565b81841680928583161614612be557505050505050505b60405162461bcd60e51b815260206004820152601260248201527163616e74206d6f766520746869732077617960701b6044820152606490fd5b8593600f9160041c161614612bfb575b50505090565b612c0492612d99565b388181612bf5565b90919395509791939711600014612c43575050905460c81c60ff16905081841680928583161614612be55750505050505050612bab565b8481979594939716918285838a60c81c161614908115612cc3575b50612c725750505050505050505050612bab565b889687871115612cac5750505082612c9c612c9384935460ff9060c81c1690565b60041c600f1690565b169216911614612bfb5750505090565b60cc1c16600f16149250612bfb9150505750505090565b60c81c8616851686861614905038612c5e565b508115612b7b565b60018a03612cf557505091612b11612b1693612a9c565b909360028a03612d0d575050612b0f612b1693612a9c565b9150925087600314600014612d2857612b11612b1693612a82565b60405162461bcd60e51b815260206004820152601460248201527334b6b837b9b9b4b13632903234b932b1ba34b7b760611b6044820152606490fd5b15612d6b57565b60405162461bcd60e51b81526020600482015260066024820152656e6f206b657960d01b6044820152606490fd5b909182818111612ed8575b50612dda612dd66120ab83612dc787612dc788600052600b602052604060002090565b90600052602052604060002090565b1590565b612de357505050565b600754612df8906001600160a01b03166101a7565b604051635986e3e560e11b81526004810184905260076024820152602081604481855afa80156102fa57612e3691600091612eba575b501515612d64565b803b156101075760405163c9b902e360e01b8152600481018490526007602482015260016044820152906000908290606490829084905af19384156102fa57612dc7612e9a94612dc793611f4d97612ea7575b50600052600b602052604060002090565b805460ff19166001179055565b806102ee612eb492610a67565b38612e89565b612ed2915060203d81116106f2576106e28183610a9a565b38612e2e565b92509138612da4565b8115612eeb570690565b634e487b7160e01b600052601260045260246000fd5b612f15816000526000602052604060002090565b612f2a81546000526001602052604060002090565b92612f3f816000526001602052604060002090565b80546000956001600160401b03918281166131525750612f5f86856138d6565b612f6884614967565b966002612f7f896000526002602052604060002090565b01612f94610c4982546001600160401b031690565b1580613147575b613012575b5050611f4d9650612ffa94926001949282612fc9612fea94546001600160401b039060801c1690565b918216612fff575b505080546113269060801c6001600160401b0316611c09565b815501805460ff19166004179055565b613405565b61132661300b92611bf3565b3880612fd1565b8382161561309b575b92612fea92611f4d997f644c4d4ff52c1efcb89d373879c1d7e01d3f8b7e60cc19f9bdf5da38cd90c14d61308b85613071612ffa9c9a9760019c9a906001600160401b03166001600160401b0319825416179055565b6040516001600160401b0390911681529081906020820190565b0390a29250929481949650612fa0565b959390508294924316946130b96101a760055460018060a01b031690565b92833b15610107576000809460046040518097819363338cdca160e01b83525af1998a156102fa577f644c4d4ff52c1efcb89d373879c1d7e01d3f8b7e60cc19f9bdf5da38cd90c14d61308b8961307160019b611f4d9f9d612fea9a612ffa9f613134575b50979a9c50505095989a5050509950925061301b565b806102ee61314192610a67565b3861311e565b506003430615612f9b565b604090838082841c161591826133f7575b5050806133d8575b8061336f575b6132d2575b61317f85611efd565b613188856134d2565b6001600160a01b038116918215158061325a575b6131a9575b505050612f5f565b6007546131be906001600160a01b03166101a7565b803b1561010757815163a41dab8160e01b81526001600160a01b0393909316600484015260086024840152600160448401526000908390606490829084905af19081156102fa5787927f41d17e4a29add7df9dab104b7b914e73209c448b1fd78b8ca04efc5e24df1abb92613247575b50516008815260016020820152604090a33880806131a1565b806102ee61325492610a67565b3861322e565b50600654613298906020908b90613279906001600160a01b03166101a7565b84518080958194630607176160e31b8352600483019190602083019252565b03915afa9081156102fa576000916132b4575b5083141561319c565b6132cc915060203d81116106f2576106e28183610a9a565b386132ab565b60055443841698506132ec906001600160a01b03166101a7565b803b156101075760008091600484518094819363338cdca160e01b83525af180156102fa5761335c575b50835461332e9060401c6001600160401b0316610c49565b61317657835467ffffffffffffffff60401b1916604089901b67ffffffffffffffff60401b16178455613176565b806102ee61336992610a67565b38613316565b50600954613385906001600160a01b03166101a7565b8151630178fe3f60e01b81526004810187905290602090829060249082905afa9081156102fa5789916133ba575b5015613171565b6133d2915060203d81116106f2576106e28183610a9a565b386133b3565b506002836133ef828701546001600160401b031690565b16141561316b565b60801c161590508338613163565b61340e81612542565b608081019161ffff9283815116846060850151168110613430575b5050505050565b60010193808511611a39576134479416905261243d565b3880808080613429565b6009546040516331a9108f60e11b815260048101929092526001600160a01b03906020908390602490829085165afa9182156102fa57600092613496575b5016301490565b90916020823d82116134ca575b816134b060209383610a9a565b810103126108675750516134c381610738565b903861348f565b3d91506134a3565b6134db81613451565b1561353f576009546040516369f648a160e01b815260048101929092526001600160a01b0391906020908290602490829086165afa9081156102fa5760009161352357501690565b61353b915060203d81116106f2576106e28183610a9a565b1690565b50600090565b600160ff1b60005260026020527f273ff7d24090d0ae93766d322996b27de23d70a15bfcdb2567df35a7695e10fd80547f273ff7d24090d0ae93766d322996b27de23d70a15bfcdb2567df35a7695e10fc90806138ac575b506007546135b3906001600160a01b03166101a7565b90813b156101075760405163c9b902e360e01b815260006004820181905260086024830152604482018190529283908290606490829084905af180156102fa57613899575b50600160ff1b60005260016020527fe209ec102481142efb7be62c549d278b9d65c9410e465059ec2d8758d3fc5cf5805443604081901b67ffffffffffffffff60401b166001600160401b039190911678ff0000000000000000ffffffffffffffffffffffffffffffff19909216821717600160c21b17808355835460ff60d81b1990911660d09190911b60ff60d81b1617825591613705906136eb9080546136e19060181c60ff166136c76136ad82611a28565b845463ff000000191660189190911b63ff00000016178455565b855460ff60e81b191660e89190911b60ff60e81b16178555565b5460101c60ff1690565b825460ff60e01b191660e09190911b60ff60e01b16178255565b60018101839055600160ff1b9384905560055461372a906001600160a01b03166101a7565b803b1561050f5783809160046040518094819363338cdca160e01b83525af180156102fa57613886575b5060065461376a906001600160a01b03166101a7565b604051630607176160e31b81526000600482015290602090829060249082905afa9081156102fa578491613868575b506137a381613b97565b6009546137b8906001600160a01b03166101a7565b90813b15613864576040516319846a3560e21b8152600160ff1b6004820152602481019190915293908490818381604481015b03925af19081156102fa577fa97399cd19a5b00b49b7d10d188180e100139a0501c9c9b4fe21dab5b915162f9361382c92613851575b505460c01c60ff1690565b604080516001600160401b03909316835260ff9091166020830152819081015b0390a2565b806102ee61385e92610a67565b38613821565b8480fd5b613880915060203d81116106f2576106e28183610a9a565b38613799565b806102ee61389392610a67565b38613754565b806102ee6138a692610a67565b386135f8565b6138b590611efd565b805462ff0000600882901c1662ff000019909116178155600082553861359d565b906138e36119b683614967565b60018101805480613b6d575b50600754613905906001600160a01b03166101a7565b9261390f85613f0d565b843b156101075760405163c9b902e360e01b81526004810183905260086024820152604481019190915260009485908290606490829084905af180156102fa57613b5a575b508461396a816000526001602052604060002090565b92613a3e613a246001600160401b0343169661399c8888906001600160401b03166001600160401b0319825416179055565b8654600160c21b78ff0000000000000000ffffffffffffffff00000000000000001990911667ffffffffffffffff60401b60408b901b161717808855815460ff60d81b60d09190911b1660ff60d81b1990911617875580546136e19060181c60ff16613a0a6136ad82611a28565b885460ff60e81b191660e89190911b60ff60e81b16178855565b855460ff60e01b191660e09190911b60ff60e01b16178555565b6001840183905555600554613a5b906001600160a01b03166101a7565b803b15613864579084809260046040518095819363338cdca160e01b83525af19081156102fa57613ac492602092613b47575b50600654613aa4906001600160a01b03166101a7565b6040518080958194630607176160e31b8352600483019190602083019252565b03915afa9081156102fa578491613b29575b50613ae081613b97565b600954613af5906001600160a01b03166101a7565b90813b15613864576040516319846a3560e21b815260048101879052602481019190915293908490818381604481016137eb565b613b41915060203d81116106f2576106e28183610a9a565b38613ad6565b806102ee613b5492610a67565b38613a8e565b806102ee613b6792610a67565b38613954565b613b7690611efd565b815462ff0000600882901c1662ff00001990911617825560008155386138ef565b80151580613c0b575b613ba75750565b7fc24affdb20f6529973515c5398461c1f6228edbfac531ab49e56a11433a86c9f61384c613bd442611b89565b6001600160a01b039093166000818152600d6020526040902090939081905560405191829182919060206040840193600081520152565b50600954613c21906001600160a01b03166101a7565b60405163c9a59e4760e01b81526004810183905290602090829060249082905afa9081156102fa57600091613c58575b5015613ba0565b613c70915060203d81116106f2576106e28183610a9a565b38613c51565b6001600160401b039081811660070b92828260401c1660070b928260801c1660070b9160ff1c90565b67ffffffffffffffff60801b608084901b16926001600160401b03908116808504600160801b1490151715611a3957600160ff1b9284840194858511611a395767ffffffffffffffff60401b8383169260401b1691808304600160401b1490151715611a39570191838301809511611a3957160101809111611a395790565b600319810191908211611a3957565b600160ff1b810190808211611a3957600360fe1b01908110611a395790565b91909260ff600191160361289e57600f90613dca575b60ff60646040516020810190858252866040820152600360f91b606082015260418152613d8e81610a7f565b51902006911611613da0575050600090565b613dc5916040519160208301526040820152600760f81b606082015260418152610a7f565b600190565b506019613d62565b92919091613de9613de2856147b9565b6019900490565b8015613f05575b60405194613e45613e3c836020890189613e208a8784909160419282526020820152601960fa1b60408201520190565b0399613e34601f199b8c8101835282610a9a565b519020612ee1565b8360011c611b99565b938415613efc575b60ff169586600214613ee2575b613ead93949560088411613ed9575b604080516020810194855290810191909152606560f81b6060820152613ea4928492909190613e349082606181015b03908101835282610a9a565b9060011c611b99565b928315613ed0575b600114613ebe57565b9180613ecd9160021c90611b99565b91565b60019350613eb5565b60089350613e69565b613ef485613ead959660021c90611b99565b949350613e5a565b60019450613e4d565b506001613df0565b600160ff1b8103613f1e5750600090565b613f296019916147b9565b0460010180600111611a395790565b613fc3612b0f613fc892613fc8613fc3613fd2613fd897613fb860ff6009818160405160208101908b8252876040820152603360f91b606082015260418152613f8081610a7f565b51902006169360405160208101918a83526040820152606760f81b606082015260418152613fad81610a7f565b519020061695613c76565b5099919890986149ef565b614760565b9060070b90611bcb565b946149ef565b90600290565b95949290614076949260ff60009116806004146000146141dd575050600f5b8760405160ff61404c61142c602084018461402e898884909160419282526020820152606f60f81b60408201520190565b0394614042601f1996878101835282610a9a565b5190206064900690565b60009116603c8110156141bf57505060ff60005b166004811061407a5750505060f0175b966143b4565b9091565b600381036140f457506140cd6140c861142c60ff946140d2946140bf6040519182613e988c602083019687909160419282526020820152600760fc1b60408201520190565b51902060031690565b611a9b565b614a19565b16601581036140e5575060d0175b614070565b601c036140e05760b017614070565b6002810361416957506141436140c861142c60ff94614148946141396040519182613e988c602083019687909160419282526020820152600760fc1b60408201520190565b5190206006900690565b614a04565b16600f810361415a5750605017614070565b6012036140e05760a017614070565b600114614178575b5050614070565b6040805160208101938452908101859052600760fc1b60608201526141b7926141b292612b6b9261142c92916140bf908260618101613e98565b614a2e565b178738614171565b605a9150106000146141d45760ff6001614060565b60ff6002614060565b60408051602081018b8152918101859052600160f81b60608201529061420d9061142c908190846061810161402e565b6057116143a3575b60408051602081018c8152918101869052600160f91b60608201526061838101825261424b9261142c9283926140429082610a9a565b60281161425a575b5050613ffd565b60408051602081018c8152918101869052600360f81b6060820152606183810182528c926142949261142c92839291906140429082610a9a565b601911156142e7575050801580156142dd575b156142b85750600a175b3880614253565b806001149081156142d2575b50156142b1576005176142b1565b9050600314386142c4565b50806002146142a7565b6040805160208101928352908101869052600360f81b606082015261431c9261142c9283929091614042908260618101613e98565b60321115614364578061433257506008176142b1565b6001810361434457506001175b6142b1565b6002810361435557506002176142b1565b60030361433f576004176142b1565b8061437257506002176142b1565b6001810361438357506004176142b1565b6002810361439457506008176142b1565b60030361433f576001176142b1565b91506143ae81612ab4565b91614215565b94939060006143cd6143c588614967565b959497613c76565b50509060070b159081614739575b50156143ef57505050505060016002921790565b959493955b60ff90818516908285168211614730575090869161445461142c8a60405161444a816123b78a8d6020840196879160429391835260ff60f81b9060f81b1660208301526021820152600360f81b60418201520190565b5190206014900690565b916001928380861614159283809461471c575b15614486575050505061447f91506002961793611a28565b92946143f4565b600294929386861686141580806146ee575b156144b25750505050505061447f91506003961793611a28565b6004969293949587808a16141580948195614679575b50156144e3575050505050505061447f915080961793611a28565b909192939495965060088080991614159586614522575b505050505050600014614516575061447f906005961793611a28565b61447f91509593611a28565b6003929394959650161493841561466e575b8415614655575b841561463c575b8415614623575b84156145fd575b84156145d7575b84156145b1575b8415614574575b505050503880808080806144fa565b604d1493509091836145a9575b50826145a1575b5081614599575b5038808080614565565b90503861458f565b915038614588565b925038614581565b9350604e8414806145d0575b806145c9575b9361455e565b50806145c3565b50826145bd565b9350604e8414806145f6575b806145ef575b93614557565b50826145e9565b50816145e3565b9350604e84148061461c575b80614615575b93614550565b508061460f565b5081614609565b9350604f841480614635575b93614549565b508261462f565b9350604f84148061464e575b93614542565b5080614648565b9350604f841480614667575b9361453b565b5081614661565b605081149450614534565b90508187161480156146e4575b80156146d2575b80156146c0575b80156146a1575b386144c8565b50604e8514806146b9575b801561469b57508161469b565b50826146ac565b50604f85148015614694575081614694565b50604f8514801561468d57508261468d565b5060508514614686565b5084868516148015614712575b806144985750604f83148015614498575081614498565b50605083146146fb565b508282161580614467575060508114614467565b97505050505050565b905060070b15386143db565b9060096001600160401b0380931602918216918203611a3957565b60070b6003190190677fffffffffffffff198212677fffffffffffffff831317611a3957565b60070b90677fffffffffffffff198212677fffffffffffffff831317611a3957565b600160ff1b8114611a395760000390565b6147c56147ce91613c76565b50509190614786565b60070b906000821261486c575b6147e490614786565b60070b6000811261485e575b67800000000000000080831361483b575b8113614819575b80821315614814575090565b905090565b600160401b600082820392128183128116918313901516171561480857611a12565b91600160401b60008282039212818312811691831390151617611a395791614801565b614867906147a8565b6147f0565b906148796147e4916147a8565b9190506147db565b60070b677fffffffffffffff198114611a395760000390565b6148a390613c76565b50819050826000600782900b126148fe575b5060008160070b126148ee575b508060070b8260070b136000146148e057506001600160401b031690565b90506001600160401b031690565b6148f89150614881565b386148c2565b614909919350614881565b91386148b5565b61491990613c76565b505060001960079290920b828112159283614958575b508261494c575b5081614940575090565b6001915060070b131590565b60011215915038614936565b600783900b121592503861492f565b614973611a8691613c76565b509160079190600081840b126149d05761498e600991611ba6565b830b05915b600082820b126149b1576149a8600992611ba6565b900b0590613c9f565b6009906149c86149c3612b0f94614881565b611ba6565b900b05614881565b60096149e16149c36149e993614881565b840b05614881565b91614993565b60099060070b02908160070b918203611a3957565b60ff60039116029060ff8216918203611a3957565b60ff60079116029060ff8216918203611a3957565b60041b90610ff060f0831692168203611a3957565b60e81b61ffff60e81b1660f89290921b6001600160f81b031916918201949392918510611a395760e01b60ff60e01b168401938410611a395760d01b61ffff60d01b168301928310611a395760c01b61ffff60c01b168201918210611a395763ffffffff168101809111611a395790565b9091614ac89061ffff80931660070b611bcb565b918260070b9082811660070b8213614ae9575060001261353b575050600090565b925050509056fea264697066735822122085dd8f5bf886ee8bbaf1240d14bf4d4e861f62936c08d0d43535bf169b4eb18b64736f6c63430008140033",
  "devdoc": {
    "kind": "dev",
    "methods": {},
    "version": 1
  },
  "userdoc": {
    "kind": "user",
    "methods": {},
    "version": 1
  },
  "storageLayout": {
    "storage": [
      {
        "astId": 3084,
        "contract": "src/dungeon/DungeonAdminFacet.sol:DungeonAdminFacet",
        "label": "_characters",
        "offset": 0,
        "slot": "0",
        "type": "t_mapping(t_uint256,t_struct(Character)3066_storage)"
      },
      {
        "astId": 3089,
        "contract": "src/dungeon/DungeonAdminFacet.sol:DungeonAdminFacet",
        "label": "_rooms",
        "offset": 0,
        "slot": "1",
        "type": "t_mapping(t_uint256,t_struct(Room)3049_storage)"
      },
      {
        "astId": 3094,
        "contract": "src/dungeon/DungeonAdminFacet.sol:DungeonAdminFacet",
        "label": "_areas",
        "offset": 0,
        "slot": "2",
        "type": "t_mapping(t_uint256,t_struct(Area)3079_storage)"
      },
      {
        "astId": 3102,
        "contract": "src/dungeon/DungeonAdminFacet.sol:DungeonAdminFacet",
        "label": "_areaCounter",
        "offset": 0,
        "slot": "3",
        "type": "t_struct(AreaCounter)3099_storage"
      },
      {
        "astId": 3104,
        "contract": "src/dungeon/DungeonAdminFacet.sol:DungeonAdminFacet",
        "label": "_adminContract",
        "offset": 0,
        "slot": "4",
        "type": "t_address"
      },
      {
        "astId": 3107,
        "contract": "src/dungeon/DungeonAdminFacet.sol:DungeonAdminFacet",
        "label": "_blockHashRegister",
        "offset": 0,
        "slot": "5",
        "type": "t_contract(BlockHashRegister)13556"
      },
      {
        "astId": 3110,
        "contract": "src/dungeon/DungeonAdminFacet.sol:DungeonAdminFacet",
        "label": "_charactersContract",
        "offset": 0,
        "slot": "6",
        "type": "t_contract(Characters)464"
      },
      {
        "astId": 3113,
        "contract": "src/dungeon/DungeonAdminFacet.sol:DungeonAdminFacet",
        "label": "_elementsContract",
        "offset": 0,
        "slot": "7",
        "type": "t_contract(Elements)13239"
      },
      {
        "astId": 3116,
        "contract": "src/dungeon/DungeonAdminFacet.sol:DungeonAdminFacet",
        "label": "_gearsContract",
        "offset": 0,
        "slot": "8",
        "type": "t_contract(Gears)13258"
      },
      {
        "astId": 3119,
        "contract": "src/dungeon/DungeonAdminFacet.sol:DungeonAdminFacet",
        "label": "_roomsContract",
        "offset": 0,
        "slot": "9",
        "type": "t_contract(Rooms)13325"
      },
      {
        "astId": 3122,
        "contract": "src/dungeon/DungeonAdminFacet.sol:DungeonAdminFacet",
        "label": "_playerContract",
        "offset": 0,
        "slot": "10",
        "type": "t_contract(Player)11097"
      },
      {
        "astId": 3130,
        "contract": "src/dungeon/DungeonAdminFacet.sol:DungeonAdminFacet",
        "label": "_unlockedExits",
        "offset": 0,
        "slot": "11",
        "type": "t_mapping(t_uint256,t_mapping(t_uint256,t_mapping(t_uint256,t_bool)))"
      },
      {
        "astId": 3142,
        "contract": "src/dungeon/DungeonAdminFacet.sol:DungeonAdminFacet",
        "label": "_quests",
        "offset": 0,
        "slot": "12",
        "type": "t_mapping(t_uint256,t_mapping(t_uint64,t_struct(Quest)3135_storage))"
      },
      {
        "astId": 3146,
        "contract": "src/dungeon/DungeonAdminFacet.sol:DungeonAdminFacet",
        "label": "_taxDueDate",
        "offset": 0,
        "slot": "13",
        "type": "t_mapping(t_address,t_uint256)"
      },
      {
        "astId": 3150,
        "contract": "src/dungeon/DungeonAdminFacet.sol:DungeonAdminFacet",
        "label": "_customRoomNames",
        "offset": 0,
        "slot": "14",
        "type": "t_mapping(t_uint256,t_string_storage)"
      }
    ],
    "types": {
      "t_address": {
        "encoding": "inplace",
        "label": "address",
        "numberOfBytes": "20"
      },
      "t_bool": {
        "encoding": "inplace",
        "label": "bool",
        "numberOfBytes": "1"
      },
      "t_contract(BlockHashRegister)13556": {
        "encoding": "inplace",
        "label": "contract BlockHashRegister",
        "numberOfBytes": "20"
      },
      "t_contract(Characters)464": {
        "encoding": "inplace",
        "label": "contract Characters",
        "numberOfBytes": "20"
      },
      "t_contract(Elements)13239": {
        "encoding": "inplace",
        "label": "contract Elements",
        "numberOfBytes": "20"
      },
      "t_contract(Gears)13258": {
        "encoding": "inplace",
        "label": "contract Gears",
        "numberOfBytes": "20"
      },
      "t_contract(Player)11097": {
        "encoding": "inplace",
        "label": "contract Player",
        "numberOfBytes": "20"
      },
      "t_contract(Rooms)13325": {
        "encoding": "inplace",
        "label": "contract Rooms",
        "numberOfBytes": "20"
      },
      "t_int64": {
        "encoding": "inplace",
        "label": "int64",
        "numberOfBytes": "8"
      },
      "t_mapping(t_address,t_uint256)": {
        "encoding": "mapping",
        "key": "t_address",
        "label": "mapping(address => uint256)",
        "numberOfBytes": "32",
        "value": "t_uint256"
      },
      "t_mapping(t_uint256,t_bool)": {
        "encoding": "mapping",
        "key": "t_uint256",
        "label": "mapping(uint256 => bool)",
        "numberOfBytes": "32",
        "value": "t_bool"
      },
      "t_mapping(t_uint256,t_mapping(t_uint256,t_bool))": {
        "encoding": "mapping",
        "key": "t_uint256",
        "label": "mapping(uint256 => mapping(uint256 => bool))",
        "numberOfBytes": "32",
        "value": "t_mapping(t_uint256,t_bool)"
      },
      "t_mapping(t_uint256,t_mapping(t_uint256,t_mapping(t_uint256,t_bool)))": {
        "encoding": "mapping",
        "key": "t_uint256",
        "label": "mapping(uint256 => mapping(uint256 => mapping(uint256 => bool)))",
        "numberOfBytes": "32",
        "value": "t_mapping(t_uint256,t_mapping(t_uint256,t_bool))"
      },
      "t_mapping(t_uint256,t_mapping(t_uint64,t_struct(Quest)3135_storage))": {
        "encoding": "mapping",
        "key": "t_uint256",
        "label": "mapping(uint256 => mapping(uint64 => struct DungeonDataLayout.Quest))",
        "numberOfBytes": "32",
        "value": "t_mapping(t_uint64,t_struct(Quest)3135_storage)"
      },
      "t_mapping(t_uint256,t_string_storage)": {
        "encoding": "mapping",
        "key": "t_uint256",
        "label": "mapping(uint256 => string)",
        "numberOfBytes": "32",
        "value": "t_string_storage"
      },
      "t_mapping(t_uint256,t_struct(Area)3079_storage)": {
        "encoding": "mapping",
        "key": "t_uint256",
        "label": "mapping(uint256 => struct DungeonDataLayout.Area)",
        "numberOfBytes": "32",
        "value": "t_struct(Area)3079_storage"
      },
      "t_mapping(t_uint256,t_struct(Character)3066_storage)": {
        "encoding": "mapping",
        "key": "t_uint256",
        "label": "mapping(uint256 => struct DungeonDataLayout.Character)",
        "numberOfBytes": "32",
        "value": "t_struct(Character)3066_storage"
      },
      "t_mapping(t_uint256,t_struct(Room)3049_storage)": {
        "encoding": "mapping",
        "key": "t_uint256",
        "label": "mapping(uint256 => struct DungeonDataLayout.Room)",
        "numberOfBytes": "32",
        "value": "t_struct(Room)3049_storage"
      },
      "t_mapping(t_uint64,t_struct(Quest)3135_storage)": {
        "encoding": "mapping",
        "key": "t_uint64",
        "label": "mapping(uint64 => struct DungeonDataLayout.Quest)",
        "numberOfBytes": "32",
        "value": "t_struct(Quest)3135_storage"
      },
      "t_string_storage": {
        "encoding": "bytes",
        "label": "string",
        "numberOfBytes": "32"
      },
      "t_struct(Area)3079_storage": {
        "encoding": "inplace",
        "label": "struct DungeonDataLayout.Area",
        "members": [
          {
            "astId": 3068,
            "contract": "src/dungeon/DungeonAdminFacet.sol:DungeonAdminFacet",
            "label": "areaType",
            "offset": 0,
            "slot": "0",
            "type": "t_uint8"
          },
          {
            "astId": 3070,
            "contract": "src/dungeon/DungeonAdminFacet.sol:DungeonAdminFacet",
            "label": "discovered",
            "offset": 1,
            "slot": "0",
            "type": "t_uint8"
          },
          {
            "astId": 3072,
            "contract": "src/dungeon/DungeonAdminFacet.sol:DungeonAdminFacet",
            "label": "lastRoomIndex",
            "offset": 2,
            "slot": "0",
            "type": "t_uint8"
          },
          {
            "astId": 3074,
            "contract": "src/dungeon/DungeonAdminFacet.sol:DungeonAdminFacet",
            "label": "currentIndex",
            "offset": 3,
            "slot": "0",
            "type": "t_uint8"
          },
          {
            "astId": 3076,
            "contract": "src/dungeon/DungeonAdminFacet.sol:DungeonAdminFacet",
            "label": "lastRoom",
            "offset": 0,
            "slot": "1",
            "type": "t_uint256"
          },
          {
            "astId": 3078,
            "contract": "src/dungeon/DungeonAdminFacet.sol:DungeonAdminFacet",
            "label": "eventBlockNumber",
            "offset": 0,
            "slot": "2",
            "type": "t_uint64"
          }
        ],
        "numberOfBytes": "96"
      },
      "t_struct(AreaCounter)3099_storage": {
        "encoding": "inplace",
        "label": "struct DungeonDataLayout.AreaCounter",
        "members": [
          {
            "astId": 3096,
            "contract": "src/dungeon/DungeonAdminFacet.sol:DungeonAdminFacet",
            "label": "lastPeriod",
            "offset": 0,
            "slot": "0",
            "type": "t_uint64"
          },
          {
            "astId": 3098,
            "contract": "src/dungeon/DungeonAdminFacet.sol:DungeonAdminFacet",
            "label": "numAreas",
            "offset": 8,
            "slot": "0",
            "type": "t_uint64"
          }
        ],
        "numberOfBytes": "32"
      },
      "t_struct(Character)3066_storage": {
        "encoding": "inplace",
        "label": "struct DungeonDataLayout.Character",
        "members": [
          {
            "astId": 3051,
            "contract": "src/dungeon/DungeonAdminFacet.sol:DungeonAdminFacet",
            "label": "location",
            "offset": 0,
            "slot": "0",
            "type": "t_uint256"
          },
          {
            "astId": 3053,
            "contract": "src/dungeon/DungeonAdminFacet.sol:DungeonAdminFacet",
            "label": "direction",
            "offset": 0,
            "slot": "1",
            "type": "t_uint8"
          },
          {
            "astId": 3055,
            "contract": "src/dungeon/DungeonAdminFacet.sol:DungeonAdminFacet",
            "label": "floors",
            "offset": 1,
            "slot": "1",
            "type": "t_int64"
          },
          {
            "astId": 3057,
            "contract": "src/dungeon/DungeonAdminFacet.sol:DungeonAdminFacet",
            "label": "slot_1",
            "offset": 0,
            "slot": "2",
            "type": "t_uint256"
          },
          {
            "astId": 3059,
            "contract": "src/dungeon/DungeonAdminFacet.sol:DungeonAdminFacet",
            "label": "slot_2",
            "offset": 0,
            "slot": "3",
            "type": "t_uint256"
          },
          {
            "astId": 3061,
            "contract": "src/dungeon/DungeonAdminFacet.sol:DungeonAdminFacet",
            "label": "slot_3",
            "offset": 0,
            "slot": "4",
            "type": "t_uint256"
          },
          {
            "astId": 3063,
            "contract": "src/dungeon/DungeonAdminFacet.sol:DungeonAdminFacet",
            "label": "slot_4",
            "offset": 0,
            "slot": "5",
            "type": "t_uint256"
          },
          {
            "astId": 3065,
            "contract": "src/dungeon/DungeonAdminFacet.sol:DungeonAdminFacet",
            "label": "slot_5",
            "offset": 0,
            "slot": "6",
            "type": "t_uint256"
          }
        ],
        "numberOfBytes": "224"
      },
      "t_struct(Quest)3135_storage": {
        "encoding": "inplace",
        "label": "struct DungeonDataLayout.Quest",
        "members": [
          {
            "astId": 3132,
            "contract": "src/dungeon/DungeonAdminFacet.sol:DungeonAdminFacet",
            "label": "status",
            "offset": 0,
            "slot": "0",
            "type": "t_uint8"
          },
          {
            "astId": 3134,
            "contract": "src/dungeon/DungeonAdminFacet.sol:DungeonAdminFacet",
            "label": "data",
            "offset": 0,
            "slot": "1",
            "type": "t_string_storage"
          }
        ],
        "numberOfBytes": "64"
      },
      "t_struct(Room)3049_storage": {
        "encoding": "inplace",
        "label": "struct DungeonDataLayout.Room",
        "members": [
          {
            "astId": 3028,
            "contract": "src/dungeon/DungeonAdminFacet.sol:DungeonAdminFacet",
            "label": "blockNumber",
            "offset": 0,
            "slot": "0",
            "type": "t_uint64"
          },
          {
            "astId": 3030,
            "contract": "src/dungeon/DungeonAdminFacet.sol:DungeonAdminFacet",
            "label": "monsterBlockNumber",
            "offset": 8,
            "slot": "0",
            "type": "t_uint64"
          },
          {
            "astId": 3032,
            "contract": "src/dungeon/DungeonAdminFacet.sol:DungeonAdminFacet",
            "label": "numActiveCharacters",
            "offset": 16,
            "slot": "0",
            "type": "t_uint64"
          },
          {
            "astId": 3034,
            "contract": "src/dungeon/DungeonAdminFacet.sol:DungeonAdminFacet",
            "label": "direction",
            "offset": 24,
            "slot": "0",
            "type": "t_uint8"
          },
          {
            "astId": 3036,
            "contract": "src/dungeon/DungeonAdminFacet.sol:DungeonAdminFacet",
            "label": "exits",
            "offset": 25,
            "slot": "0",
            "type": "t_uint8"
          },
          {
            "astId": 3038,
            "contract": "src/dungeon/DungeonAdminFacet.sol:DungeonAdminFacet",
            "label": "kind",
            "offset": 26,
            "slot": "0",
            "type": "t_uint8"
          },
          {
            "astId": 3040,
            "contract": "src/dungeon/DungeonAdminFacet.sol:DungeonAdminFacet",
            "label": "areaAtDiscovery",
            "offset": 27,
            "slot": "0",
            "type": "t_uint8"
          },
          {
            "astId": 3042,
            "contract": "src/dungeon/DungeonAdminFacet.sol:DungeonAdminFacet",
            "label": "lastRoomIndex",
            "offset": 28,
            "slot": "0",
            "type": "t_uint8"
          },
          {
            "astId": 3044,
            "contract": "src/dungeon/DungeonAdminFacet.sol:DungeonAdminFacet",
            "label": "index",
            "offset": 29,
            "slot": "0",
            "type": "t_uint8"
          },
          {
            "astId": 3046,
            "contract": "src/dungeon/DungeonAdminFacet.sol:DungeonAdminFacet",
            "label": "discoverer",
            "offset": 0,
            "slot": "1",
            "type": "t_uint256"
          },
          {
            "astId": 3048,
            "contract": "src/dungeon/DungeonAdminFacet.sol:DungeonAdminFacet",
            "label": "randomEvent",
            "offset": 0,
            "slot": "2",
            "type": "t_uint64"
          }
        ],
        "numberOfBytes": "96"
      },
      "t_uint256": {
        "encoding": "inplace",
        "label": "uint256",
        "numberOfBytes": "32"
      },
      "t_uint64": {
        "encoding": "inplace",
        "label": "uint64",
        "numberOfBytes": "8"
      },
      "t_uint8": {
        "encoding": "inplace",
        "label": "uint8",
        "numberOfBytes": "1"
      }
    }
  }
}