{
  "address": "0x8869562753Fc19e12A06bff8a9eB492A6E510D6e",
  "abi": [
    {
      "anonymous": false,
      "inputs": [
        {
          "indexed": true,
          "internalType": "uint256",
          "name": "characterId",
          "type": "uint256"
        },
        {
          "indexed": true,
          "internalType": "uint256",
          "name": "oldLocation",
          "type": "uint256"
        },
        {
          "indexed": true,
          "internalType": "uint256",
          "name": "newLocation",
          "type": "uint256"
        },
        {
          "indexed": false,
          "internalType": "uint8",
          "name": "mode",
          "type": "uint8"
        },
        {
          "indexed": false,
          "internalType": "uint256",
          "name": "path",
          "type": "uint256"
        }
      ],
      "name": "CharacterMoved",
      "type": "event"
    },
    {
      "anonymous": false,
      "inputs": [
        {
          "indexed": true,
          "internalType": "uint256",
          "name": "characterId",
          "type": "uint256"
        },
        {
          "indexed": false,
          "internalType": "uint256",
          "name": "monsterId",
          "type": "uint256"
        }
      ],
      "name": "Death",
      "type": "event"
    },
    {
      "anonymous": false,
      "inputs": [
        {
          "indexed": true,
          "internalType": "uint256",
          "name": "characterId",
          "type": "uint256"
        },
        {
          "indexed": true,
          "internalType": "address",
          "name": "player",
          "type": "address"
        },
        {
          "indexed": false,
          "internalType": "string",
          "name": "name",
          "type": "string"
        }
      ],
      "name": "Enter",
      "type": "event"
    },
    {
      "anonymous": false,
      "inputs": [
        {
          "indexed": false,
          "internalType": "uint256",
          "name": "characterId",
          "type": "uint256"
        },
        {
          "indexed": false,
          "internalType": "uint256",
          "name": "gearId",
          "type": "uint256"
        },
        {
          "indexed": false,
          "internalType": "uint8",
          "name": "slotType",
          "type": "uint8"
        }
      ],
      "name": "Equip",
      "type": "event"
    },
    {
      "anonymous": false,
      "inputs": [
        {
          "indexed": true,
          "internalType": "uint256",
          "name": "characterId",
          "type": "uint256"
        },
        {
          "indexed": false,
          "internalType": "uint16",
          "name": "hp",
          "type": "uint16"
        }
      ],
      "name": "Heal",
      "type": "event"
    },
    {
      "anonymous": false,
      "inputs": [
        {
          "indexed": true,
          "internalType": "uint256",
          "name": "characterId",
          "type": "uint256"
        },
        {
          "indexed": false,
          "internalType": "uint16",
          "name": "newLevel",
          "type": "uint16"
        }
      ],
      "name": "LevelUp",
      "type": "event"
    },
    {
      "anonymous": false,
      "inputs": [
        {
          "indexed": true,
          "internalType": "uint256",
          "name": "characterId",
          "type": "uint256"
        },
        {
          "indexed": true,
          "internalType": "uint64",
          "name": "id",
          "type": "uint64"
        },
        {
          "indexed": true,
          "internalType": "uint8",
          "name": "status",
          "type": "uint8"
        },
        {
          "indexed": false,
          "internalType": "string",
          "name": "data",
          "type": "string"
        }
      ],
      "name": "QuestUpdate",
      "type": "event"
    },
    {
      "anonymous": false,
      "inputs": [
        {
          "indexed": true,
          "internalType": "uint256",
          "name": "areaLocation",
          "type": "uint256"
        },
        {
          "indexed": false,
          "internalType": "uint64",
          "name": "blockNumber",
          "type": "uint64"
        }
      ],
      "name": "RandomEvent",
      "type": "event"
    },
    {
      "anonymous": false,
      "inputs": [
        {
          "indexed": true,
          "internalType": "uint256",
          "name": "characterId",
          "type": "uint256"
        },
        {
          "indexed": false,
          "internalType": "uint256",
          "name": "gearId",
          "type": "uint256"
        }
      ],
      "name": "Recycle",
      "type": "event"
    },
    {
      "anonymous": false,
      "inputs": [
        {
          "indexed": true,
          "internalType": "uint256",
          "name": "deadCharacterId",
          "type": "uint256"
        },
        {
          "indexed": false,
          "internalType": "uint256",
          "name": "newCharacterId",
          "type": "uint256"
        }
      ],
      "name": "Resurrect",
      "type": "event"
    },
    {
      "anonymous": false,
      "inputs": [
        {
          "indexed": true,
          "internalType": "uint256",
          "name": "location",
          "type": "uint256"
        },
        {
          "indexed": false,
          "internalType": "bytes32",
          "name": "blockHash",
          "type": "bytes32"
        },
        {
          "indexed": false,
          "internalType": "uint8",
          "name": "exits",
          "type": "uint8"
        },
        {
          "indexed": false,
          "internalType": "uint8",
          "name": "kind",
          "type": "uint8"
        }
      ],
      "name": "RoomActualised",
      "type": "event"
    },
    {
      "anonymous": false,
      "inputs": [
        {
          "indexed": true,
          "internalType": "uint256",
          "name": "location",
          "type": "uint256"
        },
        {
          "indexed": false,
          "internalType": "uint64",
          "name": "blockNumber",
          "type": "uint64"
        },
        {
          "indexed": false,
          "internalType": "uint8",
          "name": "direction",
          "type": "uint8"
        }
      ],
      "name": "RoomDiscovered",
      "type": "event"
    },
    {
      "anonymous": false,
      "inputs": [
        {
          "indexed": true,
          "internalType": "uint256",
          "name": "location",
          "type": "uint256"
        },
        {
          "indexed": true,
          "internalType": "address",
          "name": "owner",
          "type": "address"
        },
        {
          "indexed": false,
          "internalType": "uint256",
          "name": "id",
          "type": "uint256"
        },
        {
          "indexed": false,
          "internalType": "uint256",
          "name": "amount",
          "type": "uint256"
        }
      ],
      "name": "RoomIncome",
      "type": "event"
    },
    {
      "anonymous": false,
      "inputs": [
        {
          "indexed": true,
          "internalType": "uint256",
          "name": "location",
          "type": "uint256"
        },
        {
          "indexed": false,
          "internalType": "string",
          "name": "name",
          "type": "string"
        },
        {
          "indexed": false,
          "internalType": "uint256",
          "name": "characterId",
          "type": "uint256"
        }
      ],
      "name": "RoomName",
      "type": "event"
    },
    {
      "anonymous": false,
      "inputs": [
        {
          "indexed": true,
          "internalType": "address",
          "name": "owner",
          "type": "address"
        },
        {
          "indexed": false,
          "internalType": "uint256",
          "name": "tax",
          "type": "uint256"
        },
        {
          "indexed": false,
          "internalType": "uint256",
          "name": "newDueDate",
          "type": "uint256"
        }
      ],
      "name": "RoomTaxPay",
      "type": "event"
    },
    {
      "inputs": [],
      "name": "TAX_PERIOD",
      "outputs": [
        {
          "internalType": "uint256",
          "name": "",
          "type": "uint256"
        }
      ],
      "stateMutability": "view",
      "type": "function"
    },
    {
      "inputs": [
        {
          "internalType": "uint256",
          "name": "characterId",
          "type": "uint256"
        },
        {
          "internalType": "uint256",
          "name": "location",
          "type": "uint256"
        }
      ],
      "name": "abandonRoom",
      "outputs": [],
      "stateMutability": "nonpayable",
      "type": "function"
    },
    {
      "inputs": [
        {
          "internalType": "uint256",
          "name": "characterId",
          "type": "uint256"
        },
        {
          "internalType": "uint256",
          "name": "location",
          "type": "uint256"
        }
      ],
      "name": "activateRoom",
      "outputs": [],
      "stateMutability": "nonpayable",
      "type": "function"
    },
    {
      "inputs": [
        {
          "internalType": "uint256",
          "name": "characterId",
          "type": "uint256"
        },
        {
          "internalType": "uint256",
          "name": "location",
          "type": "uint256"
        },
        {
          "internalType": "uint256[8]",
          "name": "amounts",
          "type": "uint256[8]"
        }
      ],
      "name": "addBounty",
      "outputs": [],
      "stateMutability": "nonpayable",
      "type": "function"
    },
    {
      "inputs": [
        {
          "internalType": "uint256",
          "name": "characterId",
          "type": "uint256"
        }
      ],
      "name": "buyRoom",
      "outputs": [],
      "stateMutability": "nonpayable",
      "type": "function"
    },
    {
      "inputs": [
        {
          "internalType": "uint256",
          "name": "characterId",
          "type": "uint256"
        },
        {
          "internalType": "uint256",
          "name": "location",
          "type": "uint256"
        }
      ],
      "name": "deactivateRoom",
      "outputs": [],
      "stateMutability": "nonpayable",
      "type": "function"
    },
    {
      "inputs": [
        {
          "internalType": "uint256",
          "name": "characterId",
          "type": "uint256"
        },
        {
          "internalType": "uint256",
          "name": "location",
          "type": "uint256"
        },
        {
          "internalType": "string",
          "name": "name",
          "type": "string"
        }
      ],
      "name": "nameRoom",
      "outputs": [],
      "stateMutability": "nonpayable",
      "type": "function"
    },
    {
      "inputs": [
        {
          "internalType": "uint256",
          "name": "characterId",
          "type": "uint256"
        },
        {
          "internalType": "uint256",
          "name": "periods",
          "type": "uint256"
        }
      ],
      "name": "payRoomsTax",
      "outputs": [],
      "stateMutability": "nonpayable",
      "type": "function"
    },
    {
      "inputs": [
        {
          "internalType": "uint256",
          "name": "characterId",
          "type": "uint256"
        },
        {
          "internalType": "uint256[]",
          "name": "gearIds",
          "type": "uint256[]"
        }
      ],
      "name": "recycle",
      "outputs": [],
      "stateMutability": "nonpayable",
      "type": "function"
    }
  ],
  "transactionHash": "0x7367bd740ec587f44760227ddb1ade2894ebefab8bf698122c51d81157c29bd1",
  "args": [],
  "numDeployments": 4,
  "linkedData": {
    "readOnlyDungeon": "0x60806040523461001a576040516128cc61002082396128cc90f35b600080fdfe6080604052600436101561001257600080fd5b60003560e01c80630ececfea14610152578063213ee1431461014d5780632f5877961461014857806330ad9329146101435780633683dee11461013e578063467b47931461013957806356b5c381146101345780637a9234741461012f5780639f7cb08e1461012a578063a48378ff14610125578063acda69ca14610120578063b0ca9dfe1461011b578063c3aab23c14610116578063d5763a8014610111578063d667fd041461010c578063ed53a62414610107578063f090aca814610102578063f6940ac7146100fd578063fcaf8951146100f85763ff5335fa0361015757610887565b61086b565b61083b565b6107d9565b6107ba565b610728565b6106bf565b61064e565b6105fc565b6105da565b61054c565b610518565b610499565b610452565b610436565b6103af565b61033b565b6102d8565b610293565b6101cb565b600080fd5b805b0361015757565b905035906101728261015c565b565b9190604083820312610157576101979061018e8185610165565b93602001610165565b90565b9052565b6001600160401b031690565b61019a9061019e565b908152604081019291610172916020905b01906101aa565b34610157576101e46101de366004610174565b90612758565b906101fa6101f160405190565b928392836101b3565b0390f35b60ff811661015e565b90503590610172826101fe565b909160c0828403126101575761022a8383610165565b926102388160208501610165565b926102468260408301610207565b926101976102578460608501610207565b936102658160808601610207565b9360a001610207565b60ff918216815291166020820152606081019291610172916040905b019060ff169052565b34610157576101fa6102b56102a9366004610214565b94939093929192611472565b6040519193919384938461026e565b906020828203126101575761019791610165565b34610157576101fa6102f36102ee3660046102c4565b610c64565b6040519182918290815260200190565b6101c461017294610331606094989795610327608086019a600087019060070b9052565b60070b6020850152565b60070b6040830152565b34610157576101fa6103566103513660046102c4565b610996565b9061036394929460405190565b94859485610303565b9091606082840312610157576101976103858484610165565b936103938160208601610165565b93604001610207565b9081526040810192916101729160200152565b34610157576103c86103c236600461036c565b916110f9565b906101fa6103d560405190565b9283928361039c565b909182601f83011215610157578135916001600160401b03831161015757602001926020830284011161015757565b906020828203126101575781356001600160401b0381116101575761043292016103de565b9091565b34610157576101fa6102f361044c36600461040d565b906126a2565b34610157576101fa6102f3610468366004610174565b9061286f565b61ffff811661015e565b905035906101728261046e565b906020828203126101575761019791610478565b34610157576101fa6102f36104af366004610485565b61263d565b919461050161050c929897956104f660a0966104ec6101729a6104e260c08a019e60008b019061ffff169052565b60ff166020890152565b60ff166040870152565b61ffff166060850152565b61ffff166080830152565b019063ffffffff169052565b34610157576101fa61053361052e3660046102c4565b6122c1565b9261054396949692919260405190565b968796876104b4565b34610157576101fa6102f36105623660046102c4565b611415565b63ffffffff811661015e565b9050359061017282610567565b909160c082840312610157576105968383610478565b926105a48160208501610207565b926105b28260408301610207565b926101976105c38460608501610478565b936105d18160808601610478565b9360a001610573565b34610157576101fa6102f36105f0366004610580565b949390939291926121ed565b34610157576101fa6102f3610612366004610174565b9061274e565b906020828203126101575761019791610207565b61ffff909116815260608101939261017292909160409161028a906020830152565b34610157576101fa610669610664366004610618565b612379565b6040519193919384938461062c565b61015e8160070b90565b9050359061017282610678565b9091606082840312610157576101976106a88484610682565b936106b68160208601610682565b93604001610682565b34610157576101fa6102f36106d536600461068f565b916108a2565b909594926101729461071b61028a9261071060809661070560a088019c600089019061ffff169052565b61ffff166020870152565b61ffff166040850152565b63ffffffff166060830152565b34610157576101fa61074361073e3660046102c4565b612100565b9161075095939560405190565b958695866106db565b80151561015e565b9050359061017282610759565b919060a083820312610157576107848184610165565b926107928260208301610165565b926101976107a38460408501610165565b936107b18160608601610761565b93608001610207565b34610157576101fa6102f36107d036600461076e565b93929092610a66565b34610157576101fa6102f36107ef366004610174565b906125ef565b61015e8161019e565b90503590610172826107f5565b9091606082840312610157576101976108248484610165565b936108328160208601610165565b936040016107fe565b34610157576101fa61085761085136600461080b565b91610db0565b6040519182918260ff909116815260200190565b34610157576101fa61085761088136600461036c565b916120f5565b34610157576101fa6102f361089d3660046102c4565b61264a565b610197929190610919565b6108bd6101976101979260070b90565b61019e565b6101976101976101979261019e565b6101976101976101979290565b634e487b7160e01b600052601160045260246000fd5b8181029291811591840414171561090757565b6108de565b9190820180921161090757565b9061095461099061098a9261098a61097d6109546109776101979961093c600090565b5061097261096c610959610954600160ff1b946108ad565b6108c2565b610966600160801b6108d1565b906108f4565b916108d1565b61090c565b936108ad565b610966600160401b6108d1565b9061090c565b926108ad565b6109a39060005b506109fd565b929391929091565b6108bd6101976101979290565b6109c76101976101979261019e565b60070b90565b634e487b7160e01b600052601260045260246000fd5b906109ed565b9190565b9081156109f8570490565b6109cd565b90610a0f610a0a836109ab565b6109b8565b91610a31610a0a610a2c610a26600160401b6108d1565b846109e3565b6109ab565b91610197610a2c610a52610a0a82610a4c600160801b6108d1565b876109e3565b93610a60600160ff1b6108d1565b906109e3565b6101979493929190610b4a565b610a806101976101979290565b60ff1690565b6101976001610a73565b610197600f610a73565b610aa99060ff165b9160ff1690565b019060ff821161090757565b61019a9060ff1660f81b90565b60019392610adf602083610ad98295610ae7979052565b01918252565b018092610ab5565b0190565b634e487b7160e01b600052604160045260246000fd5b90601f01601f191681019081106001600160401b03821117610b2257604052565b610aeb565b610197906108d1565b81156109f8570690565b6101976101976101979260ff1690565b929093610b55600090565b50610b64610aa2610a80610a86565b03610c5657610b71610a90565b8091610c3b575b50610be76109e9610be1610bd1610b8f6006610a73565b610bb9610b9b60405190565b8092610bad60208301918d8d84610ac2565b90810382520382610b01565b610bcb610bc4825190565b9160200190565b20610b27565b610bdb60646108d1565b90610b30565b92610b3a565b10610bf95750505061019760006108d1565b610c2c610c3192610bb961019795610c116007610a73565b92610bad610c1e60405190565b948593602085019384610ac2565b610b30565b61098a60016108d1565b610c509150610c4a600a610a73565b90610a9a565b38610b78565b5050505061019760006108d1565b61019790610ceb565b6109c76101976101979290565b60070b60016001603f1b031981146109075760000390565b610ca19060070b5b9160070b90565b019060016001603f1b03821360016001603f1b031983121761090757565b610ccb9060070b610c9a565b9081156109f85760016001603f1b03198114600019831416610907570590565b610d5161019791610d03610cfd600090565b916109fd565b50939091600090610d1382610c6d565b610d1d8260070b90565b12610d9857610d39610d4991610d336004610c6d565b90610c92565b610d436009610c6d565b90610cbf565b935b50610c6d565b610d5b8260070b90565b12610d7757610d39610d7191610d336004610c6d565b90610919565b610d93610d39610d89610d7193610c7a565b610d336004610c6d565b610c7a565b610d93610d39610d89610daa93610c7a565b93610d4b565b610197929190610e7d565b610197600a610a73565b6108bd6101976101979260ff1690565b610de1610de79161019e565b9161019e565b0290610df28261019e565b91820361090757565b9190820391821161090757565b6101976019610a73565b610e1f6101976101979290565b61ffff1690565b6101976064610e12565b610e1f6101976101979260ff1690565b610e4c9060070b610c9a565b9081156109f8570790565b610e676101976101979260070b90565b60000b90565b610a806101976101979260000b90565b91610e8783611070565b908115610fb9575b5015610ea15750506101976006610a73565b610ec0610954610eb084610fd6565b610eba60096109ab565b90610dd5565b610eca60006108d1565b8111610fa0575b610ee46109e9610edf610e08565b610b3a565b10610f9457610f27610f1c610bad610bb9610f2c94610f03600c610a73565b90610f0d60405190565b93849260208401928a84610ac2565b610bdb6127106108d1565b610a73565b610f40610f3a610e1f610e26565b91610e30565b11610f8957610f51610197916109fd565b50915050610f84610f7e610f79610f74600194610f6e6005610c6d565b90610e40565b610e57565b610e6d565b91610a73565b610a9a565b506101976006610a73565b50506101976006610a73565b610fb490610fae60046108d1565b90610dfb565b610ed1565b9050610fce610de1610fc9610dbb565b610dc5565b101538610e8f565b610fe190600061099d565b50819050600083610ff182610c6d565b610ffb8260070b90565b1261105a575b5061100b90610c6d565b6110158260070b90565b1261104a575b506110268160070b90565b6110308360070b90565b13156110405750610197906108ad565b61019791506108ad565b6110549150610c7a565b3861101b565b61100b91945061106990610c7a565b9390611001565b61107b90600061099d565b50506000199161108a83610c6d565b6110948260070b90565b121592836110db575b50826110c2575b50816110ae575090565b90506110bd610c9a6001610c6d565b131590565b9091506110d2610c9a6001610c6d565b131590386110a4565b6110e6919350610c6d565b6110f08260070b90565b1215913861109d565b610432929190611118565b6101976002610a73565b6101976004610a73565b9092909161112660006108d1565b9361113f6111348686611317565b610a60610edf610e08565b85811461129f575b60029061118f61115f611159846108d1565b836109e3565b61098a83610c2c610bad610bb96111766064610a73565b8d61118060405190565b9384928d602085019384610ac2565b9587871461128d575b6111a0611104565b6111ac60ff8716610aa2565b14611265575b9161098a916111f3949360086111c7816108d1565b8311611245575b50610bb96111e86111e2610c2c94956108d1565b856109e3565b95610c116065610a73565b938414611233575b611210610aa2611209610a86565b9260ff1690565b1461121757565b916112309061098a61122a610edf61110e565b826109e3565b91565b925061123f60016108d1565b926111fb565b610c2c92506111e86111e261125c610bb9936108d1565b945050506111ce565b959161098a916112816111f3959461098a61122a610edf61110e565b979193945091506111b2565b955061129960016108d1565b95611198565b506112aa60016108d1565b611147565b6112bb9060070b610c9a565b90039060016001603f1b0319821260016001603f1b0383131761090757565b6101976101976101979260070b90565b600160ff1b81146109075760000390565b9190808303926000909112801582851316918412161761090757565b61134361133e61132c6113369361099d600090565b50509390946109fd565b5050946112af565b6112da565b91600091611350836108d1565b84126113f6575b61133e6113679261096c926112af565b81126113e8575b6001603f1b61137c816108d1565b83136113ca575b61138c906108d1565b81136113af575b808213156113a55750610197906108d1565b61019791506108d1565b6113c5906113c0600160401b6108d1565b6112fb565b611393565b9161138c906113e0906113c0600160401b6108d1565b929050611383565b6113f1906112ea565b61136e565b9261133e6113679261140a61096c936112ea565b959250925050611357565b6101979061142b565b610197600160ff1b6108d1565b61143661019761141e565b8103611447575061019760006108d1565b61145e6101979161145860006108d1565b90611317565b61097261096c600192610a60610edf610e08565b611480959493929190611487565b9192909190565b959492906114a3610432959361149b600090565b508289611af3565b966114ce565b6101976005610a73565b6101976003610a73565b60ff1660ff81146109075760010190565b949360006114e66114de88610ceb565b9594976109fd565b5050600093916114f8610c9a86610c6d565b1490816119b0575b501561152357505050505050611514611104565b9161151f6001610a73565b1790565b95909691929394965b60ff87165b60ff8716116119a657506115456003610a73565b611590610f2761158687610bb98a8d610bad8861156160405190565b95869460208601948592610adf6001610ae794610ad9602088610adf859b9a83999052565b610bdb60146108d1565b906115b261159e6001610a73565b85166115ad610aa26001610a73565b141590565b90818061197d575b156115eb575050506115316115e26115d0611104565b936115db6001610a73565b17966114bd565b9592905061152c565b6116076115f86002610a73565b86166115ad610aa26002610a73565b91828061192f575b1561163157505050506115316115e26116266114b3565b936115db6002610a73565b61164d61163e6004610a73565b87166115ad610aa26004610a73565b91828061188c575b156116785750505050506115316115e261166d61110e565b936115db6004610a73565b6116946116856008610a73565b88166115ad610aa26008610a73565b94856116d7575b50505050506000146116c0576115316115e26116b56114a9565b936115db6008610a73565b6115316115e26116d1969396610a86565b936114bd565b6116e691929394955060ff1690565b14928315611875575b8315611851575b831561182d575b8315611809575b83156117d8575b83156117a7575b8315611776575b831561172d575b505050388080808061169b565b9091925061173b604d610a73565b60ff891614928361176e575b5082611766575b508161175e575b50388080611720565b905038611755565b91503861174e565b925038611747565b9250611782604e610a73565b60ff891614806117a0575b80611799575b92611719565b5082611793565b508161178d565b92506117b3604e610a73565b60ff891614806117d1575b806117ca575b92611712565b50816117c4565b50806117be565b92506117e4604e610a73565b60ff89161480611802575b806117fb575b9261170b565b50826117f5565b50806117ef565b9250611815604f610a73565b60ff89161480611826575b92611704565b5081611820565b9250611839604f610a73565b60ff8916148061184a575b926116fd565b5082611844565b925061185d604f610a73565b60ff8916148061186e575b926116f6565b5080611868565b92506118816050610a73565b60ff891614926116ef565b506118976002610a73565b60ff861614801561191a575b80156118fd575b80156118e0575b8061165557506118c1604e610a73565b60ff8b1614806118d9575b8015611655575083611655565b50816118cc565b506118eb604f610a73565b60ff8b161480156118b15750836118b1565b50611908604f610a73565b60ff8b161480156118aa5750816118aa565b506119256050610a73565b60ff8b16146118a3565b5061193a6001610a73565b60ff8516148015611968575b8061160f5750611956604f610a73565b60ff8a1614801561160f57508061160f565b506119736050610a73565b60ff8a1614611946565b5061198786610a73565b60ff841614806115ba575061199c6050610a73565b60ff8916146115ba565b9650935093505050565b90506119be610c9a85610c6d565b1438611500565b6101976057610a73565b939190925b600182116119e0575050565b90919280820481116109075760018316611a02575b8002929160011c906119d4565b938402936119f5565b9291928115611a8e578015611a86578080600114611a7d57600214611a685760208210610133821016604e8310600b83101617611a5e5792611a519181939460016119cf565b8092048111610907570290565b0a91821161090757565b5060ff81116109075760020a91821161090757565b50600193505050565b506000925050565b506001925050565b61019791611aa9610aa260ff9360ff1690565b90611a0b565b6101976028610a73565b6101976000610a73565b611acf9060ff16610aa2565b90039060ff821161090757565b611ae89060ff16610aa2565b029060ff8216610df2565b90600092611b0084610a73565b90611b0961110e565b611b1560ff8316610aa2565b03611dcd575050611b26600f610a73565b925b611b53611b35606f610a73565b610bb9611b4160405190565b8092610bad6020830191888a84610ac2565b611b65610f27606492610bdb846108d1565b90611b82610a80611b74611aaf565b611b7d84610a73565b611ac3565b60ff83161015611d91575050611b9790610a73565b905b600491611ba583610a73565b60ff821610611bd657505061151f9150611bd1610f7e600f92611bcb610f7e6002610a73565b90611a96565b611adc565b6003611be181610a73565b60ff831603611c8c575050611c14610f27611c0b611c2e9495610bb9611c1e95610c116070610a73565b610bdb866108d1565b610c4a6001610a73565b611c286007610a73565b90611adc565b611c386015610a73565b60ff821603611c5c575061151f90611bd1610f7e600d92611bcb610f7e6002610a73565b611c69610aa2601c610a73565b14611c72575090565b61151f90611bd1610f7e600b92611bcb610f7e6002610a73565b9091600292611c9a84610a73565b60ff821603611d2c5750610f7e611c14610f27611cc7611cd1969798610bb9611c2896610c116070610a73565b610bdb60066108d1565b611cdb600f610a73565b60ff821603611cfd5750611bd1610f7e61151f93611bcb610f7e600595610a73565b611d0a610aa26012610a73565b14611d1457505090565b611bd1610f7e61151f93611bcb610f7e600a95610a73565b90929150611d3d610aa26001610a73565b14611d4a575b5050505090565b611bcb611d7a611d80611d7a610f27611d71611d8799610bb9611c2899610c116070610a73565b610bdb896108d1565b93610a73565b9283611a96565b1738808080611d43565b610aa2610a80611da692611b7d610f7e610dbb565b10159050611dbe57611db86001610a73565b90611b99565b611dc86002610a73565b611db8565b611dd89491946119c5565b90611de36001610a73565b91611e04611df060405190565b610bb98160208101610bad888b8d84610ac2565b90611e1d610aa2610a80610f27606495610bdb876108d1565b116120d3575b90849291611e2f611aaf565b611e64610aa2610a80610f27611e5b8c610bb9611e4c6002610a73565b9b8c92610bad610c1e60405190565b610bdb876108d1565b11611e73575b50505050611b28565b8690611e8198949598610e08565b87611e8c6003610a73565b91611eba610aa2610a80610f27611d71611ea560405190565b610bb9818c610bad8c8c602085019384610ac2565b1115611f735750505050611ecc611ab9565b611ed860ff8316610aa2565b148015611f58575b15611efe575050611ef16008610a73565b1717925b38808080611e6a565b9091959250611f0b610a86565b611f1760ff8316610aa2565b14908115611f41575b50611f2c575b50611ef5565b909317611f396004610a73565b179238611f26565b9050611f51610aa26112096114b3565b1438611f20565b50611f61611104565b611f6d60ff8316610aa2565b14611ee0565b610f27611f9d93610bdb61096c610f7e95610bb9610a809660329e9c9e9a610bad610c1e60405190565b111561203a57611fab611ab9565b611fb760ff8316610aa2565b03611fd15750509050611fca6008610a73565b1792611ef5565b611fd9610a86565b611fe560ff8316610aa2565b03611ff457505017925b611ef5565b909250611fff611104565b61200b60ff8316610aa2565b0361201857501792611ef5565b9094915061202a610aa26112096114b3565b03611fef5792611fca6004610a73565b612045939193611ab9565b61205160ff8316610aa2565b0361205f5750501792611ef5565b9091925061206b610a86565b61207760ff8316610aa2565b03612088575050611fca6004610a73565b612090611104565b61209c60ff8316610aa2565b036120ad575050611fca6008610a73565b6120be610aa26112099794976114b3565b146120c95750611ef5565b9093179238611f26565b955090816120eb85936120e66002610a73565b611a96565b9690919250611e23565b610197929190611af3565b61210990612143565b919394909293929190565b610197906121286109e96101979460ff1690565b901c90565b61213a6101976101979290565b63ffffffff1690565b9061215a610f2761215460f8610a73565b84612114565b9161216e61216860e8610a73565b82612114565b6121876121826201000092610bdb846108d1565b610e12565b936121ea6121826121b96121b46121a76121a160c8610a73565b88612114565b610bdb600160201b6108d1565b61212d565b93610bdb61096c6121d9612182611c0b6121d360b8610a73565b8b612114565b976121e460a8610a73565b90612114565b93565b610197959493929190612238565b6101979061220f6109e96101979460ff1690565b901b90565b6101976101976101979261ffff1690565b6101976101976101979263ffffffff1690565b6122b161228d61098a9561098a6122a761228d6101979b9a9761098a61229d610be161098a9a61098a6122936122bb9f61227d61228d91612277600090565b50610b3a565b61228760f8610a73565b906121fb565b92612214565b61228760e8610a73565b61228760e0610a73565b61228760d0610a73565b61228760c0610a73565b91612225565b6122ce9060005b506122da565b94959394929391929091565b906122eb610f2761215460f8610a73565b6122f861215460e8610a73565b61230c6121826201000092610bdb846108d1565b9361232b610f2761232061215460e0610a73565b610bdb6101006108d1565b936101976121b461236b61218261235a61218261235161234b60d0610a73565b89612114565b610bdb8a6108d1565b96610bdb61096c61234b60c0610a73565b93610bdb600160201b6108d1565b61238e61148091612388600090565b50610e30565b612438565b906101726123a060405190565b9283610b01565b6001600160401b038111610b225760200290565b6123c7610197916123a7565b612393565b634e487b7160e01b600052603260045260246000fd5b90600b8110156123f3576020020190565b6123cc565b6124099061ffff165b9161ffff1690565b019061ffff821161090757565b61019791611aa9610aa261ffff9361ffff1690565b6109ed9061ffff16612401565b9061256661255e612449600b6123bb565b612461600061245781610e12565b61ffff1690830152565b61247961246e600a610e12565b61ffff166020830152565b6124916124866031610e12565b61ffff166040830152565b6124a961249e6077610e12565b61ffff166060830152565b6124b661050160d0610e12565b6124cf6124c4610148610e12565b61ffff1660a0830152565b6124e86124dd61020c610e12565b61ffff1660c0830152565b6125016124f661033a610e12565b61ffff1660e0830152565b61251b61250f6104f5610e12565b61ffff16610100830152565b612535612529610e46610e12565b61ffff16610120830152565b61254f612543611aee610e12565b61ffff16610140830152565b61255885612214565b906123e2565b5161ffff1690565b9160089061257382610e12565b61ffff8216111561259557505061258b6101ec6108d1565b905b610197610dbb565b6125e9916125de6125d86125c86125b86125e4956125b36001610e12565b6123f8565b6125c26003610a73565b90612416565b6125d26005610e12565b9061242b565b91610e12565b906123f8565b612214565b9061258d565b61019791906126189061261361096c6126229461260a600090565b50600293611317565b6108f4565b610a6060056108d1565b61262c60006108d1565b8103610197575061019760016108d1565b6101979061019790612214565b6101979061266f6126229161265d600090565b5061261361096c60029261145861141e565b610a6060066108d1565b60001981146109075760010190565b91908110156123f3576020020190565b356101978161015c565b906126ad60006108d1565b91825b828410156126e6576126da6126e09161098a6126d56126d0888888612688565b612698565b6126ed565b93612679565b926126b0565b9250505090565b6126f89060006122c8565b50939150915060019161272d6124016127256125e461271c6002966125d288610e12565b6125b388610e12565b9561ffff1690565b1461273757505090565b610197929161097261096c6111e261098a946108d1565b6101979190611317565b61043291906127da916127d4610f276127926127746066610a73565b610bb961278060405190565b8092610bad6020830191898b84610ac2565b610bdb61096c610bad610bb96127b0610f27600996610bdb886108d1565b976127bb6067610a73565b906127c560405190565b93849260208401928d84610ac2565b916127fd565b9061019760026109ab565b6127f19060070b610c9a565b0290610df28260070b90565b610d7161019793610d33610a0a61285d6128639661285761286961284161283b61282c61283b9b61099d600090565b509d9160099491949d8e610c6d565b906127e5565b95610d33610a0a61285d6004996128578b610c6d565b906112af565b92610dc5565b9a610c6d565b91610c6d565b6101979161261361019792612882600090565b5061097261096c600192610a60600a6108d156fea264697066735822122041f4fbeca2d12742f854361aff4432345def4b764975da853386133d3d0f292e64736f6c63430008140033"
  },
  "solcInputHash": "0fc8db5c515bcc17ef2329a4e01d28fa",
  "bytecode": "0x60806040523461001a5760405161428e610020823961428e90f35b600080fdfe6080604052600436101561001257600080fd5b60003560e01c8063136f6b5a146100a25780631ef1720a1461009d5780632c44b2cf146100985780634636e9f114610093578063714dfc591461008e57806387908b7f14610089578063abcac4f414610084578063ed8f9cf91461007f5763fee80491036100a75761032b565b6102d4565b610294565b61024b565b610232565b610219565b610200565b6101c1565b610138565b600080fd5b805b036100a757565b905035906100c2826100ac565b565b909182601f830112156100a7578135916001600160401b0383116100a75760200192600183028401116100a757565b916060838303126100a75761010882846100b5565b9261011683602083016100b5565b9260408201356001600160401b0381116100a75761013492016100c4565b9091565b346100a75761015461014b3660046100f3565b929190916116a7565b604051005b0390f35b909182601f830112156100a7578135916001600160401b0383116100a75760200192602083028401116100a757565b9190916040818403126100a7576101a383826100b5565b9260208201356001600160401b0381116100a757610134920161015d565b346100a7576101546101d436600461018c565b91610874565b91906040838203126100a7576101fd906101f481856100b5565b936020016100b5565b90565b346100a7576101546102133660046101da565b90611305565b346100a75761015461022c3660046101da565b9061108a565b346100a7576101546102453660046101da565b90611a7f565b346100a75761015461025e3660046101da565b90610e9f565b60009103126100a757565b6101fd6101fd6101fd9290565b6101fd6206978061026f565b6101fd61027c565b9052565b346100a7576102a4366004610264565b6101596102af610288565b6040515b9182918290815260200190565b906020828203126100a7576101fd916100b5565b346100a7576101546102e73660046102c0565b610c79565b91906101008301116100a757565b9091610140828403126100a7576101fd61031484846100b5565b9361032281602086016100b5565b936040016102ec565b346100a75761015461033e3660046102fa565b91611bdb565b6101fd905b6001600160a01b031690565b6101fd9054610344565b6101fd90610349906001600160a01b031682565b6101fd9061035f565b6101fd90610373565b0190565b1561039057565b60405162461bcd60e51b81526020600482015260146024820152731bdb9b1e481c1b185e595c9cc8185b1b1bddd95960621b6044820152606490fd5b906100c292916103ff336103f96103f36103ee6103e9600a610355565b61037c565b610349565b91610349565b14610389565b6105d3565b6104116101fd6101fd9290565b61ffff1690565b1561041f57565b60405162461bcd60e51b81526020600482015260166024820152751e5bdd5c8818da185c9858dd195c881a5cc81919585960521b6044820152606490fd5b634e487b7160e01b600052601160045260246000fd5b60001981146104825760010190565b61045d565b634e487b7160e01b600052603260045260246000fd5b91908110156104ad576020020190565b610487565b356101fd816100ac565b634e487b7160e01b600052604160045260246000fd5b90601f01601f191681019081106001600160401b038211176104f357604052565b6104bc565b905051906100c2826100ac565b906020828203126100a7576101fd916104f8565b6040513d6000823e3d90fd5b1561052c57565b60405162461bcd60e51b81526020600482015260176024820152763430b9903a379031329037bbb732b91037b31033b2b0b960491b6044820152606490fd5b9190820180921161048257565b6105856101fd6101fd9290565b60ff1690565b6101fd6008610578565b6101fd6101fd6101fd9260ff1690565b61029090610595565b9081526060810193926100c29290916040916105cf905b60208301906105a5565b0152565b9291926105ed60806105e483612439565b015161ffff1690565b9361060e60009561060861060088610404565b9161ffff1690565b11610418565b6106178561026f565b92835b828510156107f55761066061063861063387868661049d565b6104b2565b9160206106486103e96008610355565b6369f648a19061065760405190565b94859260e01b90565b82526004820186905260249082905afa80156107aa5761068b610692916106b0948c916107dd575090565b8714610525565b60206106a16103e96008610355565b630178fe3f9061065760405190565b82526004820186905260249082905afa9182156107aa576106e2926106dc918b916107af575b5061343b565b9061056b565b946106f06103e96008610355565b9163603d4ca092803b156100a757610716938a9161070d60405190565b95869260e01b90565b825260048201849052602490829084905af19283156107aa576107789361077e575b507f87f4b7ea340c6b16973214300a3cbbb5afaf6c92389d1e81f95ffe0c07edcfb66107706107668861026f565b926102b360405190565b0390a2610473565b9361061a565b61079d908a3d8c116107a3575b61079581836104d2565b810190610264565b38610738565b503d61078b565b610519565b6107d0915060203d81116107d6575b6107c881836104d2565b810190610505565b386106d6565b503d6107be565b6101fd915060203d81116107d6576107c881836104d2565b929350505092919261080a6103e96007610355565b916302acc94b9261081961058b565b93813b156100a757856108419161084c829661083460405190565b9889978896879560e01b90565b8552600485016105ae565b03925af180156107aa5761085e575050565b816100c292903d106107a35761079581836104d2565b906100c292916103cc565b6100c29061089a336103f96103f36103ee6103e9600a610355565b6109cd565b906108a99061026f565b600052602052604060002090565b6101fd9081565b6101fd90546108b7565b6103496101fd6101fd9290565b906108a99061037c565b156108e657565b60405162461bcd60e51b815260206004820152600e60248201526d1b9bdd08199bdc9958db1bdcd95960921b6044820152606490fd5b6101fd6006610578565b6102909061026f565b9081526060810193926100c292909160409161094a906105c5565b0190610926565b61029090610349565b6105cf6100c29461098360609498979561097c608086019a6000870190610951565b6020850152565b6040830152565b9160001960089290920291821b911b5b9181191691161790565b91906109b56101fd6109bd9361026f565b90835461098a565b9055565b6100c2916000916109a4565b60006109e3816109dd848261089f565b016108be565b610a0d60206109f56103e96009610355565b6369f648a190610a0460405190565b93849260e01b90565b82526004820185905260249082905afa9081156107aa578391610c5b575b50600d91610a40610a3b836108c8565b610373565b94610a67610a56610a5188876108d5565b6108be565b4290610a61565b9190565b106108df565b610a746103e96007610355565b9063c9b902e3610a8261091c565b600293803b156100a757610aab898094610ab7610a9e60405190565b9889968795869460e01b90565b8452896004850161092f565b03925af19081156107aa57610b0892602092610c3f575b50610adc6103e96006610355565b610afa633038bb08610aed60405190565b9586948593849360e01b90565b835260048301526024820190565b03915afa9081156107aa578591610c21575b50610b24816127b4565b610b316103e96009610355565b9063b672189891610b413061037c565b91813b156100a757878094610b768897610b6b94610b5e60405190565b9a8b988997889660e01b90565b86526004860161095a565b03925af19081156107aa57610bac92602092610c05575b50610b9b6103e96009610355565b610afa63c9a59e47610aed60405190565b03915afa9081156107aa578391610be7575b50610bcb610a5d8461026f565b14610bd557505050565b6100c292610be2916108d5565b6109c1565b610bff915060203d81116107d6576107c881836104d2565b38610bbe565b610c1b90863d88116107a35761079581836104d2565b38610b8d565b610c39915060203d81116107d6576107c881836104d2565b38610b1a565b610c5590883d8a116107a35761079581836104d2565b38610ace565b610c73915060203d81116107d6576107c881836104d2565b38610a2b565b6100c29061087f565b906100c291610c9e336103f96103f36103ee6103e9600a610355565b610ced565b15610caa57565b60405162461bcd60e51b81526020600482015260096024820152683737ba1037bbb732b960b91b6044820152606490fd5b6101fd9081906001600160a01b031681565b90610d10916020610d016103e96009610355565b6369f648a19061070d60405190565b82526004820185905260249082905afa9283156107aa57600093610e79575b506020610d4391610adc6103e96006610355565b03915afa9081156107aa57610d6991610d61916000916107dd575090565b835b14610ca3565b610d766103e96009610355565b63b672189890610d853061037c565b90610d97610d9283610373565b610cdb565b813b156100a75760008094610dc18897610b6b94610db460405190565b998a988997889660e01b90565b03925af180156107aa57610e63575b50610df26020610de36103e96009610355565b63c9a59e4790610a0460405190565b82526004820185905260249082905afa9081156107aa57600091610e45575b50600090610e21610a5d8361026f565b14610e2a575050565b610be26100c292610e3f610a3b600d926108c8565b906108d5565b610e5d915060203d81116107d6576107c881836104d2565b38610e11565b610e7390600061079581836104d2565b38610dd0565b610d43919350610e97602091823d81116107d6576107c881836104d2565b939150610d2f565b906100c291610c82565b906100c291610ec5336103f96103f36103ee6103e9600a610355565b610f33565b6101fd906108c8565b61094a6100c294610eff606094989795610ef5608086019a6000870190610951565b6020850190610951565b60408301906105a5565b6040906105cf6100c29496959396610f2960608401986000850190610951565b6020830190610951565b90610f47916020610d016103e96009610355565b82526004820185905260249082905afa9283156107aa57600093611064575b506020610f7a91610adc6103e96006610355565b03915afa9081156107aa57610f9891610d61916000916107dd575090565b610fa56103e96007610355565b90610fb7610a3b63fe99049a946108c8565b91600093610fc485610eca565b610fcc61091c565b92606492813b156100a75787610fea91610ff6829661083460405190565b85528c60048601610ed3565b03925af180156107aa57611048575b506110136103e96009610355565b6323b872dd906110223061037c565b91813b156100a7578561103d9161084c829661083460405190565b855260048501610f09565b61105e90843d86116107a35761079581836104d2565b38611005565b610f7a919350611082602091823d81116107d6576107c881836104d2565b939150610f66565b906100c291610ea9565b906100c2916110b0336103f96103f36103ee6103e9600a610355565b611149565b6100ae81610349565b905051906100c2826110b5565b906020828203126100a7576101fd916110be565b156110e657565b60405162461bcd60e51b815260206004820152600f60248201526e1b9bdd0819195858dd1a5d985d1959608a1b6044820152606490fd5b6105cf6100c29461098360609498979561113f608086019a6000870190610951565b6020850190610926565b90602061117b9261115d6103e96006610355565b610afa633038bb0861116e60405190565b9687948593849360e01b90565b03915afa9182156107aa576000926112e5575b506111b060206111a16103e96009610355565b636352211e90610a0460405190565b82526004820185905260249082905afa9081156107aa576111dd91610d92916000916112b7575b50610373565b9161120e6112086111ed3061037c565b926101fd6112006101fd610d9287610373565b8714156110df565b84610d63565b61121b6103e96009610355565b6323b872dd61122c610a3b866108c8565b823b156100a757839261103d600080946112498961083460405190565b03925af180156107aa576112a1575b50611262836127b4565b61126f6103e96009610355565b9063b672189891600094813b156100a7578580959461084c829661129694610db460405190565b86526004860161111d565b6112b190600061079581836104d2565b38611258565b6112d8915060203d81116112de575b6112d081836104d2565b8101906110cb565b386111d7565b503d6112c6565b6112fe91925060203d81116107d6576107c881836104d2565b903861118e565b906100c291611094565b906100c293929161132d336103f96103f36103ee6103e9600a610355565b61151f565b634e487b7160e01b600052602260045260246000fd5b9060016002830492168015611368575b602083101461136357565b611332565b91607f1691611358565b81811061137d575050565b8061138b60006001936109c1565b01611372565b9190601f81116113a057505050565b6113b26100c293600052602060002090565b906020601f8401819004830193106113d4575b6020601f909101040190611372565b90915081906113c5565b9060001960089091021c191690565b816113f7916113de565b906002021790565b91906001600160401b0382116104f3576114238261141d8554611348565b85611391565b600090601f8311600114611451576109bd929160009183611446575b50506113ed565b01359050388061143f565b601f1983169161146685600052602060002090565b92815b8181106114a45750916002939185600196941061148a575b50505002019055565b61149a910135601f8416906113de565b9055388080611481565b91936020600181928787013581550195019201611469565b906100c292916113ff565b90826000939282370152565b91906114f1816114ea816103859560209181520190565b80956114c7565b601f01601f191690565b93929061151a6020916100c294604088019188830360008a01526114d3565b940152565b92909161153460206109f56103e96009610355565b82526004820187905260249082905afa9081156107aa57600091611689575b5061157560206115666103e96006610355565b633038bb0890610a0460405190565b82526004820189905260249082905afa9081156107aa576115a59161159f916000916107dd575090565b82610d63565b6115b26103e96007610355565b6115c3610a3b63fe99049a936108c8565b916000926115d084610eca565b926115d961091c565b6014823b156100a757869461160186926115f694610db460405190565b865260048601610ed3565b03925af180156107aa5761166c575b5050611627828261162286600e61089f565b6114bc565b6116676116547f833228afd99eefed411de081e6bf23c4c4e2945e33997a07725ee65de5e23d519461026f565b9461165e60405190565b938493846114fb565b0390a2565b8161168292903d106107a35761079581836104d2565b3880611610565b6116a1915060203d81116107d6576107c881836104d2565b38611553565b906100c293929161130f565b906100c2916116cf336103f96103f36103ee6103e9600a610355565b611841565b156116db57565b60405162461bcd60e51b81526020600482015260126024820152711bdb99481c195c9a5bd908185d1b19585cdd60721b6044820152606490fd5b1561171c57565b60405162461bcd60e51b81526020600482015260126024820152713737ba10323ab733b2b7b71035b2b2b832b960711b6044820152606490fd5b1561175d57565b60405162461bcd60e51b8152602060048201526012602482015271185b1c9958591e48199bdc9958db1bdcd95960721b6044820152606490fd5b6105cf6100c294610eff606094989795610ef5608086019a6000870190610951565b8181029291811591840414171561048257565b906000199061099a565b906117e66101fd6109bd9261026f565b82546117cc565b156117f457565b60405162461bcd60e51b815260206004820152601260248201527163616e6e6f7420707265706179206d6f726560701b6044820152606490fd5b9081526040810192916100c29160200152565b611869602060009261185c6118558561026f565b86116116d4565b610adc6103e96006610355565b03915afa9081156107aa5761188991610a3b918491611a61575b506108c8565b906118bb602061189c6103e96009610355565b63c9a59e4790610afa6118b1610d9288610373565b92610aed60405190565b03915afa9081156107aa578291611a43575b506118e16118da8361026f565b8211611715565b600d93611911816118f5610a5187896108d5565b9361190c4295611905610a5d8890565b1015611756565b61420f565b9461191f6103e96007610355565b9263fe99049a61192e86610eca565b9461193761091c565b90803b156100a75761196188809461196c8d8d9661195460405190565b9c8d988997889660e01b90565b865260048601611797565b03925af19283156107aa576119ed610a5d6101fd6119f3946119f899610a51998c99611a26575b50506119cc6119aa6119a361027c565b96876117b9565b6119c66119b78b8b6108d5565b916119c1836108be565b61056b565b906117d6565b6106dc6119dc610a518a8a6108d5565b956119e7600261026f565b906117b9565b106117ed565b6108d5565b611a106000805160206142398339815191529261037c565b92611667611a1d60405190565b9283928361182e565b81611a3c92903d106107a35761079581836104d2565b3880611993565b611a5b915060203d81116107d6576107c881836104d2565b386118cd565b611a79915060203d81116107d6576107c881836104d2565b38611883565b906100c2916116b3565b906100c29291611aa6336103f96103f36103ee6103e9600a610355565b611adb565b9060088110156104ad576020020190565b6105cf6100c29461098360609498979561097c608086019a6000870152565b90929192611ae881611dd3565b600091611af48361026f565b6008811015611bd357611b0a6106338288611aab565b611b16610a5d8661026f565b11611b2a575b611b2590610473565b611af4565b611b376103e96007610355565b906311aa10fb611b4685612879565b611b59611b53600161026f565b8461056b565b93611b67610633858c611aab565b92813b156100a75788611b8f91611b9b8296611b8260405190565b998a978896879560e01b90565b85528c60048601611abc565b03925af19182156107aa57611b2592611bb7575b509050611b1c565b611bcd90863d88116107a35761079581836104d2565b38611baf565b505050509050565b906100c29291611a89565b6001600160401b031690565b6101fd90611be6565b611be6565b6101fd9054611bf2565b611bfb6101fd6101fd9290565b15611c1e57565b60405162461bcd60e51b81526020600482015260146024820152731c9bdbdb481b9bdd0818dc99585d1959081e595d60621b6044820152606490fd5b6101fd9060d01c610585565b6101fd9054611c5a565b6101fd6101fd6101fd92611be6565b61029090611c70565b6020810192916100c29190611c7f565b6101fd9060c01c610585565b6101fd9054611c98565b6101fd9060d81c610585565b6101fd9054611cae565b6101fd9060e01c610585565b6101fd9054611cc4565b6101fd9060e81c610585565b6101fd9054611cda565b9060ff60c81b9060c81b61099a565b6105856101fd6101fd9260ff1690565b90611d1f6101fd6109bd92611cff565b8254611cf0565b9060ff60d01b9060d01b61099a565b90611d456101fd6109bd92611cff565b8254611d26565b6101fd9060081c610585565b6101fd9054611d4c565b9061ff009060081b61099a565b90611d7f6101fd6109bd92611cff565b8254611d62565b90815260ff91821660208201529116604082015260600190565b6101fd90610585565b6101fd9054611da0565b9081526060810193926100c29290916040916105cf906020830190610926565b600190611de36101fd828461089f565b611dec81611c00565b90611e0b600092611e05611dff85611c0a565b91611be6565b11611c17565b81810193611e1885611c66565b611e2b611e2485610578565b9160ff1690565b14611e47575b5050506100c29150611e42906137b7565b61250b565b611e8f93946020611e5b6103e96005610355565b639507d39a90611e84611e6d85611c00565b92611e7760405190565b998a948593849360e01b90565b835260048301611c88565b03915afa9485156107aa578495612161575b5084611eaf610a5d8661026f565b14612109575b83611f92611f9892611ec7888a6122ed565b611f0e611efa8a611ed784611ca4565b611ee085611cba565b611ee986611cd0565b918d611ef488611ce6565b94612c64565b929084611f0984839597611d0f565b611d35565b8a611f18816137b7565b9360029387611f2a6101fd888861089f565b0190611f3582611d58565b611f4160ff8316611e24565b036120f9575b50508b611f8a611f777f8850140926f0260fe1b422b7a0d93e7d5734e521eae9ac8969ed512cc38345159461026f565b94611f8160405190565b93849384611d86565b0390a261089f565b01611da9565b910192611fa4846108be565b611fb0610a5d8561026f565b03611fbe575b849350611e31565b611fe990611fe284611fda611fd5889997986108be565b612439565b015160ff1690565b9084612a35565b611ff66005939293610578565b60ff83161115612091575b50506120106103e96007610355565b61201e6302acc94b956108be565b90600695813b156100a7578561204991612054829661203c60405190565b9a8b978896879560e01b90565b855260048501611db3565b03925af19182156107aa576100c293611e4293612074575b829450611fb6565b8161208a92903d106107a35761079581836104d2565b388061206c565b61209e6103e96007610355565b6302acc94b906120ad886108be565b91813b156100a75787610841916120c8829661083460405190565b03925af180156107aa576120dd575b80612001565b6120f390843d86116107a35761079581836104d2565b386120d7565b61210291611d6f565b3880611f47565b935043612131610a5d6101fd61212661212189611c00565b611c70565b6106dc61010061026f565b111561215a57611f9883611f9261215061214a88611c00565b896121d5565b9692505050611eb5565b5050505050565b61217a91955060203d81116107d6576107c881836104d2565b9338611ea1565b61029090611be6565b60608082526017908201527644554e47454f4e5f455850495245445f534545445f563160481b60808201529092916100c2916040906121ce60a08201966020830152565b0190612181565b6121ee916121fa9160405193849260208401928361218a565b908103825203826104d2565b61220c612205825190565b9160200190565b2090565b6101fd9060401c611be6565b6101fd9054612210565b9060ff9061099a565b9061223f6101fd6109bd92611cff565b8254612226565b634e487b7160e01b600052601260045260246000fd5b905b908115612269570490565b612246565b611dff61227a91611be6565b01906001600160401b03821161048257565b90600160401b600160801b039060401b61099a565b611bfb6101fd6101fd92611be6565b906122c06101fd6109bd926122a1565b825461228c565b906001600160401b039061099a565b906122e66101fd6109bd926122a1565b82546122c7565b6122f6906137b7565b6002906123086000611f92838561089f565b91600092612318611e2485610578565b14612324575b50505050565b61235290836003019361234c61234461233c8761221c565b8098876132ba565b94859361089f565b0161222f565b61235f611e246006610578565b0361236c575b808061231e565b61238a6123854261237f6201437061026f565b9061225c565b611c0a565b9161239482611c00565b6123a0611dff85611be6565b146123ca57506123b36123c392826122d6565b6123bd6001611c0a565b906122b0565b3880612365565b6123e392506123bd906123dd6001611c0a565b9061226e565b6123c3565b906100c26123f560405190565b92836104d2565b6101fd60a06123e8565b61240e6123fc565b906000825260208080808086016000815201600081520160008152016000905250565b6101fd612406565b602061246691612447612431565b506124556103e96006610355565b610afa630178fe3f610aed60405190565b03915afa80156107aa576124b46124cc61248f6101fd936124c1956000916124d7575b506140c6565b9792959091936124a96124a06123fc565b60ff909a168a52565b61ffff166020890152565b63ffffffff166040870152565b61ffff166060850152565b61ffff166080830152565b6124ef915060203d81116107d6576107c881836104d2565b38612489565b6101fd9060801c611be6565b6101fd90546124f5565b60028061251b6101fd848361089f565b019061252682611c00565b9060009061253382611c0a565b61253c84611be6565b03612548575050505050565b60206125799361255b6103e96005610355565b611e84639507d39a61256c60405190565b9788948593849360e01b90565b03915afa9283156107aa578293612678575b506125958261026f565b831461215a576125ab6126019361260796612bd1565b90836125c46101fd6125bc84612698565b93600161089f565b848101946125dd611dff6125d788611c00565b92611c0a565b14159283612658575b83612641575b5082612621575b5050612611575b5050611c0a565b906122d6565b388080808061215a565b61261a916122d6565b38806125fa565b61262c925001611c66565b612638611e2485610578565b141583386125f3565b909250612650610a5d8361026f565b1491386125ec565b9250612665828201612501565b612671611dff84611c0a565b14926125e6565b61269191935060203d81116107d6576107c881836104d2565b913861258b565b60016126af60006126a9848461089f565b0161221c565b916000906126bc82611c0a565b6126c585611be6565b1461278c576126eb60206126dc6103e96005610355565b639507d39a90610a0460405190565b825281806126fc8a60048301611c88565b03915afa9081156107aa57839161276e575b506127188361026f565b81146127605761275a6127546101fd96612742611dff611bfb8861273c898c61089f565b01611c00565b149461274e858861089f565b01611c66565b9461026f565b91612910565b505090506101fd915061026f565b612786915060203d81116107d6576107c881836104d2565b3861270e565b5090506101fd915061026f565b9160206100c29294936105cf60408201966000830190610926565b6127c0610a3b826108c8565b6000916127cf610a5d8461026f565b141580612831575b6127df575050565b6127ef426106dc6206978061026f565b612803816127fe84600d6108d5565b6117d6565b61281b6000805160206142398339815191529261037c565b9261166761282860405190565b92839283612799565b50612840610a5182600d6108d5565b61284c610a5d8461026f565b146127d7565b6101fd600160ff1b61026f565b9190820391821161048257565b6101fd600160fe1b61026f565b6128976101fd91612888600090565b50612891612852565b9061285f565b6106dc61286c565b6101fd6001610578565b6101fd600f610578565b6128bf9060ff16611e24565b019060ff821161048257565b6102909060ff1660f81b90565b600193926128f56020836128ef8295610385979052565b01918252565b0180926128cb565b6101fd9061026f565b8115612269570690565b92909361291b600090565b5061292a611e2461058561289f565b03612a09576129376128a9565b80916129ee575b5061299a610a5d6129946129846129556006610578565b61297361296160405190565b80926121ee60208301918d8d846128d8565b61297e612205825190565b206128fd565b61298e606461026f565b90612906565b92610595565b106129ac575050506101fd600061026f565b6129df6129e4926129736101fd956129c46007610578565b926121ee6129d160405190565b9485936020850193846128d8565b612906565b6106dc600161026f565b612a0391506129fd600a610578565b906128b3565b3861293e565b505050506101fd600061026f565b6101fd6019610578565b6101fd6002610578565b6101fd6004610578565b90929091612a43600061026f565b93612a61612a518686613512565b61237f612a5c612a17565b610595565b858114612bc1575b600290612ab1612a81612a7b8461026f565b8361225c565b6106dc836129df6121ee612973612a986064610578565b8d612aa260405190565b9384928d6020850193846128d8565b95878714612baf575b612ac2612a21565b612ace60ff8716611e24565b14612b87575b916106dc91612b1594936008612ae98161026f565b8311612b67575b50612973612b0a612b046129df949561026f565b8561225c565b956129c46065610578565b938414612b55575b612b32611e24612b2b61289f565b9260ff1690565b14612b3957565b91612b52906106dc612b4c612a5c612a2b565b8261225c565b91565b9250612b61600161026f565b92612b1d565b6129df9250612b0a612b04612b7e6129739361026f565b94505050612af0565b95916106dc91612ba3612b1595946106dc612b4c612a5c612a2b565b97919394509150612ad4565b9550612bbb600161026f565b95612aba565b50612bcc600161026f565b612a69565b612c5991612c53612c24612c06612be86066610578565b612973612bf460405190565b80926121ee6020830191898b846128d8565b61298e612c4d6121ee612973612c29612c2460099661298e8861026f565b610578565b97612c346067610578565b90612c3e60405190565b93849260208401928d846128d8565b9161026f565b916138f5565b906101fd6002611c0a565b95949290612c806101349593612c78600090565b508289613a95565b96612cbe565b612c936101fd6101fd9290565b60070b90565b6101fd6005610578565b6101fd6003610578565b60ff1660ff81146104825760010190565b94936000612cd6612cce886137b7565b9594976131cb565b505060009391612cef612ce886612c86565b9160070b90565b1490816131a7575b5015612d1a57505050505050612d0b612a21565b91612d166001610578565b1790565b95909691929394965b60ff87165b60ff87161161319d5750612d3c6003610578565b612d87612c24612d7d876129738a8d6121ee88612d5860405190565b958694602086019485926128f56001610385946128ef6020886128f5859b9a83999052565b61298e601461026f565b90612da9612d956001610578565b8516612da4611e246001610578565b141590565b908180613174575b15612de257505050612d28612dd9612dc7612a21565b93612dd26001610578565b1796612cad565b95929050612d23565b612dfe612def6002610578565b8616612da4611e246002610578565b918280613126575b15612e285750505050612d28612dd9612e1d612ca3565b93612dd26002610578565b612e44612e356004610578565b8716612da4611e246004610578565b918280613083575b15612e6f575050505050612d28612dd9612e64612a2b565b93612dd26004610578565b612e8b612e7c6008610578565b8816612da4611e246008610578565b9485612ece575b5050505050600014612eb757612d28612dd9612eac612c99565b93612dd26008610578565b612d28612dd9612ec896939661289f565b93612cad565b612edd91929394955060ff1690565b1492831561306c575b8315613048575b8315613024575b8315613000575b8315612fcf575b8315612f9e575b8315612f6d575b8315612f24575b5050503880808080612e92565b90919250612f32604d610578565b60ff8916149283612f65575b5082612f5d575b5081612f55575b50388080612f17565b905038612f4c565b915038612f45565b925038612f3e565b9250612f79604e610578565b60ff89161480612f97575b80612f90575b92612f10565b5082612f8a565b5081612f84565b9250612faa604e610578565b60ff89161480612fc8575b80612fc1575b92612f09565b5081612fbb565b5080612fb5565b9250612fdb604e610578565b60ff89161480612ff9575b80612ff2575b92612f02565b5082612fec565b5080612fe6565b925061300c604f610578565b60ff8916148061301d575b92612efb565b5081613017565b9250613030604f610578565b60ff89161480613041575b92612ef4565b508261303b565b9250613054604f610578565b60ff89161480613065575b92612eed565b508061305f565b92506130786050610578565b60ff89161492612ee6565b5061308e6002610578565b60ff8616148015613111575b80156130f4575b80156130d7575b80612e4c57506130b8604e610578565b60ff8b1614806130d0575b8015612e4c575083612e4c565b50816130c3565b506130e2604f610578565b60ff8b161480156130a85750836130a8565b506130ff604f610578565b60ff8b161480156130a15750816130a1565b5061311c6050610578565b60ff8b161461309a565b506131316001610578565b60ff851614801561315f575b80612e06575061314d604f610578565b60ff8a16148015612e06575080612e06565b5061316a6050610578565b60ff8a161461313d565b5061317e86610578565b60ff84161480612db157506131936050610578565b60ff891614612db1565b9650935093505050565b90506131b5612ce885612c86565b1438612cf7565b612c936101fd6101fd92611be6565b906131dd6131d883611c0a565b6131bc565b916131fa6131d86123856131f4600160401b61026f565b8461225c565b916101fd61238561321b6131d882613215600160801b61026f565b8761225c565b9361237f600160ff1b61026f565b6101fd600a610578565b611bfb6101fd6101fd9260ff1690565b611dff61324f91611be6565b029061325a82611be6565b91820361048257565b6101fd6064610404565b6104116101fd6101fd9260ff1690565b6132899060070b612ce8565b908115612269570790565b6132a46101fd6101fd9260070b90565b60000b90565b6105856101fd6101fd9260000b90565b916132c4836136d8565b9081156133e6575b50156132de5750506101fd6006610578565b6132fd6121216132ed8461363e565b6132f76009611c0a565b90613243565b613307600061026f565b81116133d3575b61331c610a5d612a5c612a17565b106133c757612c246133546121ee61297361335f9461333b600c610578565b9061334560405190565b93849260208401928a846128d8565b61298e61271061026f565b61337361336d610411613263565b9161326d565b116133bc576133846101fd916131cb565b509150506133b76133b16133ac6133a76001946133a16005612c86565b9061327d565b613294565b6132aa565b91610578565b6128b3565b506101fd6006610578565b50506101fd6006610578565b6133e190612891600461026f565b61330e565b90506133fb611dff6133f6613229565b613233565b1015386132cc565b61225e9061ffff16610600565b61341d9061ffff16610600565b019061ffff821161048257565b6101fd6101fd6101fd9261ffff1690565b61344490614170565b50939150915060019161348961060061348161347c61346e60029661346888610404565b90613403565b61347788610404565b613410565b61342a565b9561ffff1690565b1461349357505090565b6101fd92916119c1612c4d612b046106dc9461026f565b6134b69060070b612ce8565b90039060016001603f1b0319821260016001603f1b0383131761048257565b6101fd6101fd6101fd9260070b90565b600160ff1b81146104825760000390565b9190808303926000909112801582851316918412161761048257565b61354461353f61352d61353793613527600090565b506131cb565b50509390946131cb565b5050946134aa565b6134d5565b916000916135518361026f565b84126135f7575b61353f61356892612c4d926134aa565b81126135e9575b6001603f1b61357d8161026f565b83136135cb575b61358d9061026f565b81136135b0575b808213156135a657506101fd9061026f565b6101fd915061026f565b6135c6906135c1600160401b61026f565b6134f6565b613594565b9161358d906135e1906135c1600160401b61026f565b929050613584565b6135f2906134e5565b61356f565b9261353f6135689261360b612c4d936134e5565b959250925050613558565b60070b60016001603f1b031981146104825760000390565b611bfb6101fd6101fd9260070b90565b613649906000613527565b5081905060008361365982612c86565b6136638260070b90565b126136c2575b5061367390612c86565b61367d8260070b90565b126136b2575b5061368e8160070b90565b6136988360070b90565b13156136a857506101fd9061362e565b6101fd915061362e565b6136bc9150613616565b38613683565b6136739194506136d190613616565b9390613669565b6136e3906000613527565b5050600019916136f283612c86565b6136fc8260070b90565b12159283613743575b508261372a575b5081613716575090565b9050613725612ce86001612c86565b131590565b90915061373a612ce86001612c86565b1315903861370c565b61374e919350612c86565b6137588260070b90565b12159138613705565b61376d9060070b612ce8565b019060016001603f1b03821360016001603f1b031983121761048257565b6137979060070b612ce8565b9081156122695760016001603f1b03198114600019831416610482570590565b61381d6101fd916137cf6137c9600090565b916131cb565b509390916000906137df82612c86565b6137e98260070b90565b1261386457613805613815916137ff6004612c86565b90613761565b61380f6009612c86565b9061378b565b935b50612c86565b6138278260070b90565b126138435761380561383d916137ff6004612c86565b9061387c565b61385f61380561385561383d93613616565b6137ff6004612c86565b613616565b61385f61380561385561387693613616565b93613817565b906121216138d76106dc926106dc6138ca6121216138c46101fd9961389f600090565b506119c1612c4d6138b7612121600160ff1b9461362e565b6119e7600160801b61026f565b9361362e565b6119e7600160401b61026f565b9261362e565b6138e99060070b612ce8565b029061325a8260070b90565b61383d6101fd936137ff6131d861395561395b9661394f6139616139396139336139246139339b613527600090565b509d9160099491949d8e612c86565b906138dd565b956137ff6131d861395560049961394f8b612c86565b906134aa565b92613233565b9a612c86565b91612c86565b6101fd6057610578565b939190925b60018211613982575050565b909192808204811161048257600183166139a4575b8002929160011c90613976565b93840293613997565b9291928115613a30578015613a28578080600114613a1f57600214613a0a5760208210610133821016604e8310600b83101617613a0057926139f3918193946001613971565b8092048111610482570290565b0a91821161048257565b5060ff81116104825760020a91821161048257565b50600193505050565b506000925050565b506001925050565b6101fd91613a4b611e2460ff9360ff1690565b906139ad565b6101fd6028610578565b6101fd6000610578565b613a719060ff16611e24565b90039060ff821161048257565b613a8a9060ff16611e24565b029060ff821661325a565b90600092613aa284610578565b90613aab612a2b565b613ab760ff8316611e24565b03613d6f575050613ac8600f610578565b925b613af5613ad7606f610578565b612973613ae360405190565b80926121ee6020830191888a846128d8565b613b07612c2460649261298e8461026f565b90613b24610585613b16613a51565b613b1f84610578565b613a65565b60ff83161015613d33575050613b3990610578565b905b600491613b4783610578565b60ff821610613b78575050612d169150613b736133b1600f92613b6d6133b16002610578565b90613a38565b613a7e565b6003613b8381610578565b60ff831603613c2e575050613bb6612c24613bad613bd09495612973613bc0956129c46070610578565b61298e8661026f565b6129fd6001610578565b613bca6007610578565b90613a7e565b613bda6015610578565b60ff821603613bfe5750612d1690613b736133b1600d92613b6d6133b16002610578565b613c0b611e24601c610578565b14613c14575090565b612d1690613b736133b1600b92613b6d6133b16002610578565b9091600292613c3c84610578565b60ff821603613cce57506133b1613bb6612c24613c69613c73969798612973613bca966129c46070610578565b61298e600661026f565b613c7d600f610578565b60ff821603613c9f5750613b736133b1612d1693613b6d6133b1600595610578565b613cac611e246012610578565b14613cb657505090565b613b736133b1612d1693613b6d6133b1600a95610578565b90929150613cdf611e246001610578565b14613cec575b5050505090565b613b6d613d1c613d22613d1c612c24613d13613d2999612973613bca996129c46070610578565b61298e8961026f565b93610578565b9283613a38565b1738808080613ce5565b611e24610585613d4892613b1f6133b1613229565b10159050613d6057613d5a6001610578565b90613b3b565b613d6a6002610578565b613d5a565b613d7a949194613967565b90613d856001610578565b91613da6613d9260405190565b61297381602081016121ee888b8d846128d8565b90613dbf611e24610585612c2460649561298e8761026f565b11614075575b90849291613dd1613a51565b613e06611e24610585612c24613dfd8c612973613dee6002610578565b9b8c926121ee6129d160405190565b61298e8761026f565b11613e15575b50505050613aca565b8690613e2398949598612a17565b87613e2e6003610578565b91613e5c611e24610585612c24613d13613e4760405190565b612973818c6121ee8c8c6020850193846128d8565b1115613f155750505050613e6e613a5b565b613e7a60ff8316611e24565b148015613efa575b15613ea0575050613e936008610578565b1717925b38808080613e0c565b9091959250613ead61289f565b613eb960ff8316611e24565b14908115613ee3575b50613ece575b50613e97565b909317613edb6004610578565b179238613ec8565b9050613ef3611e24612b2b612ca3565b1438613ec2565b50613f03612a21565b613f0f60ff8316611e24565b14613e82565b612c24613f3f9361298e612c4d6133b1956129736105859660329e9c9e9a6121ee6129d160405190565b1115613fdc57613f4d613a5b565b613f5960ff8316611e24565b03613f735750509050613f6c6008610578565b1792613e97565b613f7b61289f565b613f8760ff8316611e24565b03613f9657505017925b613e97565b909250613fa1612a21565b613fad60ff8316611e24565b03613fba57501792613e97565b90949150613fcc611e24612b2b612ca3565b03613f915792613f6c6004610578565b613fe7939193613a5b565b613ff360ff8316611e24565b036140015750501792613e97565b9091925061400d61289f565b61401960ff8316611e24565b0361402a575050613f6c6004610578565b614032612a21565b61403e60ff8316611e24565b0361404f575050613f6c6008610578565b614060611e24612b2b979497612ca3565b1461406b5750613e97565b9093179238613ec8565b9550908161408d85936140886002610578565b613a38565b9690919250613dc5565b6101fd906140ab610a5d6101fd9460ff1690565b901c90565b6140bd6101fd6101fd9290565b63ffffffff1690565b906140dd612c246140d760f8610578565b84614097565b916140f16140eb60e8610578565b82614097565b61410a614105620100009261298e8461026f565b610404565b9361416d61410561413c61413761412a61412460c8610578565b88614097565b61298e600160201b61026f565b6140b0565b9361298e612c4d61415c614105613bad61415660b8610578565b8b614097565b9761416760a8610578565b90614097565b93565b90614181612c246140d760f8610578565b61418e6140d760e8610578565b6141a2614105620100009261298e8461026f565b936141c1612c246141b66140d760e0610578565b61298e61010061026f565b936101fd6141376142016141056141f06141056141e76141e160d0610578565b89614097565b61298e8a61026f565b9661298e612c4d6141e160c0610578565b9361298e600160201b61026f565b906142336101fd9261421f600090565b506119c1612c4d60019261237f600a61026f565b6117b956fec24affdb20f6529973515c5398461c1f6228edbfac531ab49e56a11433a86c9fa264697066735822122025cec60ef6e6b4907c0707f0b7fc8c2c8d27e608db8ef054782aad5769a934a364736f6c63430008140033",
  "devdoc": {
    "kind": "dev",
    "methods": {},
    "version": 1
  },
  "userdoc": {
    "kind": "user",
    "methods": {},
    "version": 1
  },
  "storageLayout": {
    "storage": [
      {
        "astId": 3423,
        "contract": "src/dungeon/DungeonActionsFacet.sol:DungeonActionsFacet",
        "label": "_characters",
        "offset": 0,
        "slot": "0",
        "type": "t_mapping(t_uint256,t_struct(Character)3405_storage)"
      },
      {
        "astId": 3428,
        "contract": "src/dungeon/DungeonActionsFacet.sol:DungeonActionsFacet",
        "label": "_rooms",
        "offset": 0,
        "slot": "1",
        "type": "t_mapping(t_uint256,t_struct(Room)3388_storage)"
      },
      {
        "astId": 3433,
        "contract": "src/dungeon/DungeonActionsFacet.sol:DungeonActionsFacet",
        "label": "_areas",
        "offset": 0,
        "slot": "2",
        "type": "t_mapping(t_uint256,t_struct(Area)3418_storage)"
      },
      {
        "astId": 3441,
        "contract": "src/dungeon/DungeonActionsFacet.sol:DungeonActionsFacet",
        "label": "_areaCounter",
        "offset": 0,
        "slot": "3",
        "type": "t_struct(AreaCounter)3438_storage"
      },
      {
        "astId": 3443,
        "contract": "src/dungeon/DungeonActionsFacet.sol:DungeonActionsFacet",
        "label": "_adminContract",
        "offset": 0,
        "slot": "4",
        "type": "t_address"
      },
      {
        "astId": 3446,
        "contract": "src/dungeon/DungeonActionsFacet.sol:DungeonActionsFacet",
        "label": "_blockHashRegister",
        "offset": 0,
        "slot": "5",
        "type": "t_contract(BlockHashRegister)13344"
      },
      {
        "astId": 3449,
        "contract": "src/dungeon/DungeonActionsFacet.sol:DungeonActionsFacet",
        "label": "_charactersContract",
        "offset": 0,
        "slot": "6",
        "type": "t_contract(Characters)743"
      },
      {
        "astId": 3452,
        "contract": "src/dungeon/DungeonActionsFacet.sol:DungeonActionsFacet",
        "label": "_elementsContract",
        "offset": 0,
        "slot": "7",
        "type": "t_contract(Elements)12944"
      },
      {
        "astId": 3455,
        "contract": "src/dungeon/DungeonActionsFacet.sol:DungeonActionsFacet",
        "label": "_gearsContract",
        "offset": 0,
        "slot": "8",
        "type": "t_contract(Gears)12963"
      },
      {
        "astId": 3458,
        "contract": "src/dungeon/DungeonActionsFacet.sol:DungeonActionsFacet",
        "label": "_roomsContract",
        "offset": 0,
        "slot": "9",
        "type": "t_contract(Rooms)13030"
      },
      {
        "astId": 3461,
        "contract": "src/dungeon/DungeonActionsFacet.sol:DungeonActionsFacet",
        "label": "_playerContract",
        "offset": 0,
        "slot": "10",
        "type": "t_contract(Player)11309"
      },
      {
        "astId": 3469,
        "contract": "src/dungeon/DungeonActionsFacet.sol:DungeonActionsFacet",
        "label": "_unlockedExits",
        "offset": 0,
        "slot": "11",
        "type": "t_mapping(t_uint256,t_mapping(t_uint256,t_mapping(t_uint256,t_bool)))"
      },
      {
        "astId": 3481,
        "contract": "src/dungeon/DungeonActionsFacet.sol:DungeonActionsFacet",
        "label": "_quests",
        "offset": 0,
        "slot": "12",
        "type": "t_mapping(t_uint256,t_mapping(t_uint64,t_struct(Quest)3474_storage))"
      },
      {
        "astId": 3485,
        "contract": "src/dungeon/DungeonActionsFacet.sol:DungeonActionsFacet",
        "label": "_taxDueDate",
        "offset": 0,
        "slot": "13",
        "type": "t_mapping(t_address,t_uint256)"
      },
      {
        "astId": 3489,
        "contract": "src/dungeon/DungeonActionsFacet.sol:DungeonActionsFacet",
        "label": "_customRoomNames",
        "offset": 0,
        "slot": "14",
        "type": "t_mapping(t_uint256,t_string_storage)"
      },
      {
        "astId": 3493,
        "contract": "src/dungeon/DungeonActionsFacet.sol:DungeonActionsFacet",
        "label": "_allowedForwardTargets",
        "offset": 0,
        "slot": "15",
        "type": "t_mapping(t_address,t_bool)"
      },
      {
        "astId": 3499,
        "contract": "src/dungeon/DungeonActionsFacet.sol:DungeonActionsFacet",
        "label": "_allowedForwardSelectors",
        "offset": 0,
        "slot": "16",
        "type": "t_mapping(t_address,t_mapping(t_bytes4,t_bool))"
      }
    ],
    "types": {
      "t_address": {
        "encoding": "inplace",
        "label": "address",
        "numberOfBytes": "20"
      },
      "t_bool": {
        "encoding": "inplace",
        "label": "bool",
        "numberOfBytes": "1"
      },
      "t_bytes4": {
        "encoding": "inplace",
        "label": "bytes4",
        "numberOfBytes": "4"
      },
      "t_contract(BlockHashRegister)13344": {
        "encoding": "inplace",
        "label": "contract BlockHashRegister",
        "numberOfBytes": "20"
      },
      "t_contract(Characters)743": {
        "encoding": "inplace",
        "label": "contract Characters",
        "numberOfBytes": "20"
      },
      "t_contract(Elements)12944": {
        "encoding": "inplace",
        "label": "contract Elements",
        "numberOfBytes": "20"
      },
      "t_contract(Gears)12963": {
        "encoding": "inplace",
        "label": "contract Gears",
        "numberOfBytes": "20"
      },
      "t_contract(Player)11309": {
        "encoding": "inplace",
        "label": "contract Player",
        "numberOfBytes": "20"
      },
      "t_contract(Rooms)13030": {
        "encoding": "inplace",
        "label": "contract Rooms",
        "numberOfBytes": "20"
      },
      "t_int64": {
        "encoding": "inplace",
        "label": "int64",
        "numberOfBytes": "8"
      },
      "t_mapping(t_address,t_bool)": {
        "encoding": "mapping",
        "key": "t_address",
        "label": "mapping(address => bool)",
        "numberOfBytes": "32",
        "value": "t_bool"
      },
      "t_mapping(t_address,t_mapping(t_bytes4,t_bool))": {
        "encoding": "mapping",
        "key": "t_address",
        "label": "mapping(address => mapping(bytes4 => bool))",
        "numberOfBytes": "32",
        "value": "t_mapping(t_bytes4,t_bool)"
      },
      "t_mapping(t_address,t_uint256)": {
        "encoding": "mapping",
        "key": "t_address",
        "label": "mapping(address => uint256)",
        "numberOfBytes": "32",
        "value": "t_uint256"
      },
      "t_mapping(t_bytes4,t_bool)": {
        "encoding": "mapping",
        "key": "t_bytes4",
        "label": "mapping(bytes4 => bool)",
        "numberOfBytes": "32",
        "value": "t_bool"
      },
      "t_mapping(t_uint256,t_bool)": {
        "encoding": "mapping",
        "key": "t_uint256",
        "label": "mapping(uint256 => bool)",
        "numberOfBytes": "32",
        "value": "t_bool"
      },
      "t_mapping(t_uint256,t_mapping(t_uint256,t_bool))": {
        "encoding": "mapping",
        "key": "t_uint256",
        "label": "mapping(uint256 => mapping(uint256 => bool))",
        "numberOfBytes": "32",
        "value": "t_mapping(t_uint256,t_bool)"
      },
      "t_mapping(t_uint256,t_mapping(t_uint256,t_mapping(t_uint256,t_bool)))": {
        "encoding": "mapping",
        "key": "t_uint256",
        "label": "mapping(uint256 => mapping(uint256 => mapping(uint256 => bool)))",
        "numberOfBytes": "32",
        "value": "t_mapping(t_uint256,t_mapping(t_uint256,t_bool))"
      },
      "t_mapping(t_uint256,t_mapping(t_uint64,t_struct(Quest)3474_storage))": {
        "encoding": "mapping",
        "key": "t_uint256",
        "label": "mapping(uint256 => mapping(uint64 => struct DungeonDataLayout.Quest))",
        "numberOfBytes": "32",
        "value": "t_mapping(t_uint64,t_struct(Quest)3474_storage)"
      },
      "t_mapping(t_uint256,t_string_storage)": {
        "encoding": "mapping",
        "key": "t_uint256",
        "label": "mapping(uint256 => string)",
        "numberOfBytes": "32",
        "value": "t_string_storage"
      },
      "t_mapping(t_uint256,t_struct(Area)3418_storage)": {
        "encoding": "mapping",
        "key": "t_uint256",
        "label": "mapping(uint256 => struct DungeonDataLayout.Area)",
        "numberOfBytes": "32",
        "value": "t_struct(Area)3418_storage"
      },
      "t_mapping(t_uint256,t_struct(Character)3405_storage)": {
        "encoding": "mapping",
        "key": "t_uint256",
        "label": "mapping(uint256 => struct DungeonDataLayout.Character)",
        "numberOfBytes": "32",
        "value": "t_struct(Character)3405_storage"
      },
      "t_mapping(t_uint256,t_struct(Room)3388_storage)": {
        "encoding": "mapping",
        "key": "t_uint256",
        "label": "mapping(uint256 => struct DungeonDataLayout.Room)",
        "numberOfBytes": "32",
        "value": "t_struct(Room)3388_storage"
      },
      "t_mapping(t_uint64,t_struct(Quest)3474_storage)": {
        "encoding": "mapping",
        "key": "t_uint64",
        "label": "mapping(uint64 => struct DungeonDataLayout.Quest)",
        "numberOfBytes": "32",
        "value": "t_struct(Quest)3474_storage"
      },
      "t_string_storage": {
        "encoding": "bytes",
        "label": "string",
        "numberOfBytes": "32"
      },
      "t_struct(Area)3418_storage": {
        "encoding": "inplace",
        "label": "struct DungeonDataLayout.Area",
        "members": [
          {
            "astId": 3407,
            "contract": "src/dungeon/DungeonActionsFacet.sol:DungeonActionsFacet",
            "label": "areaType",
            "offset": 0,
            "slot": "0",
            "type": "t_uint8"
          },
          {
            "astId": 3409,
            "contract": "src/dungeon/DungeonActionsFacet.sol:DungeonActionsFacet",
            "label": "discovered",
            "offset": 1,
            "slot": "0",
            "type": "t_uint8"
          },
          {
            "astId": 3411,
            "contract": "src/dungeon/DungeonActionsFacet.sol:DungeonActionsFacet",
            "label": "lastRoomIndex",
            "offset": 2,
            "slot": "0",
            "type": "t_uint8"
          },
          {
            "astId": 3413,
            "contract": "src/dungeon/DungeonActionsFacet.sol:DungeonActionsFacet",
            "label": "currentIndex",
            "offset": 3,
            "slot": "0",
            "type": "t_uint8"
          },
          {
            "astId": 3415,
            "contract": "src/dungeon/DungeonActionsFacet.sol:DungeonActionsFacet",
            "label": "lastRoom",
            "offset": 0,
            "slot": "1",
            "type": "t_uint256"
          },
          {
            "astId": 3417,
            "contract": "src/dungeon/DungeonActionsFacet.sol:DungeonActionsFacet",
            "label": "eventBlockNumber",
            "offset": 0,
            "slot": "2",
            "type": "t_uint64"
          }
        ],
        "numberOfBytes": "96"
      },
      "t_struct(AreaCounter)3438_storage": {
        "encoding": "inplace",
        "label": "struct DungeonDataLayout.AreaCounter",
        "members": [
          {
            "astId": 3435,
            "contract": "src/dungeon/DungeonActionsFacet.sol:DungeonActionsFacet",
            "label": "lastPeriod",
            "offset": 0,
            "slot": "0",
            "type": "t_uint64"
          },
          {
            "astId": 3437,
            "contract": "src/dungeon/DungeonActionsFacet.sol:DungeonActionsFacet",
            "label": "numAreas",
            "offset": 8,
            "slot": "0",
            "type": "t_uint64"
          }
        ],
        "numberOfBytes": "32"
      },
      "t_struct(Character)3405_storage": {
        "encoding": "inplace",
        "label": "struct DungeonDataLayout.Character",
        "members": [
          {
            "astId": 3390,
            "contract": "src/dungeon/DungeonActionsFacet.sol:DungeonActionsFacet",
            "label": "location",
            "offset": 0,
            "slot": "0",
            "type": "t_uint256"
          },
          {
            "astId": 3392,
            "contract": "src/dungeon/DungeonActionsFacet.sol:DungeonActionsFacet",
            "label": "direction",
            "offset": 0,
            "slot": "1",
            "type": "t_uint8"
          },
          {
            "astId": 3394,
            "contract": "src/dungeon/DungeonActionsFacet.sol:DungeonActionsFacet",
            "label": "floors",
            "offset": 1,
            "slot": "1",
            "type": "t_int64"
          },
          {
            "astId": 3396,
            "contract": "src/dungeon/DungeonActionsFacet.sol:DungeonActionsFacet",
            "label": "slot_1",
            "offset": 0,
            "slot": "2",
            "type": "t_uint256"
          },
          {
            "astId": 3398,
            "contract": "src/dungeon/DungeonActionsFacet.sol:DungeonActionsFacet",
            "label": "slot_2",
            "offset": 0,
            "slot": "3",
            "type": "t_uint256"
          },
          {
            "astId": 3400,
            "contract": "src/dungeon/DungeonActionsFacet.sol:DungeonActionsFacet",
            "label": "slot_3",
            "offset": 0,
            "slot": "4",
            "type": "t_uint256"
          },
          {
            "astId": 3402,
            "contract": "src/dungeon/DungeonActionsFacet.sol:DungeonActionsFacet",
            "label": "slot_4",
            "offset": 0,
            "slot": "5",
            "type": "t_uint256"
          },
          {
            "astId": 3404,
            "contract": "src/dungeon/DungeonActionsFacet.sol:DungeonActionsFacet",
            "label": "slot_5",
            "offset": 0,
            "slot": "6",
            "type": "t_uint256"
          }
        ],
        "numberOfBytes": "224"
      },
      "t_struct(Quest)3474_storage": {
        "encoding": "inplace",
        "label": "struct DungeonDataLayout.Quest",
        "members": [
          {
            "astId": 3471,
            "contract": "src/dungeon/DungeonActionsFacet.sol:DungeonActionsFacet",
            "label": "status",
            "offset": 0,
            "slot": "0",
            "type": "t_uint8"
          },
          {
            "astId": 3473,
            "contract": "src/dungeon/DungeonActionsFacet.sol:DungeonActionsFacet",
            "label": "data",
            "offset": 0,
            "slot": "1",
            "type": "t_string_storage"
          }
        ],
        "numberOfBytes": "64"
      },
      "t_struct(Room)3388_storage": {
        "encoding": "inplace",
        "label": "struct DungeonDataLayout.Room",
        "members": [
          {
            "astId": 3367,
            "contract": "src/dungeon/DungeonActionsFacet.sol:DungeonActionsFacet",
            "label": "blockNumber",
            "offset": 0,
            "slot": "0",
            "type": "t_uint64"
          },
          {
            "astId": 3369,
            "contract": "src/dungeon/DungeonActionsFacet.sol:DungeonActionsFacet",
            "label": "monsterBlockNumber",
            "offset": 8,
            "slot": "0",
            "type": "t_uint64"
          },
          {
            "astId": 3371,
            "contract": "src/dungeon/DungeonActionsFacet.sol:DungeonActionsFacet",
            "label": "numActiveCharacters",
            "offset": 16,
            "slot": "0",
            "type": "t_uint64"
          },
          {
            "astId": 3373,
            "contract": "src/dungeon/DungeonActionsFacet.sol:DungeonActionsFacet",
            "label": "direction",
            "offset": 24,
            "slot": "0",
            "type": "t_uint8"
          },
          {
            "astId": 3375,
            "contract": "src/dungeon/DungeonActionsFacet.sol:DungeonActionsFacet",
            "label": "exits",
            "offset": 25,
            "slot": "0",
            "type": "t_uint8"
          },
          {
            "astId": 3377,
            "contract": "src/dungeon/DungeonActionsFacet.sol:DungeonActionsFacet",
            "label": "kind",
            "offset": 26,
            "slot": "0",
            "type": "t_uint8"
          },
          {
            "astId": 3379,
            "contract": "src/dungeon/DungeonActionsFacet.sol:DungeonActionsFacet",
            "label": "areaAtDiscovery",
            "offset": 27,
            "slot": "0",
            "type": "t_uint8"
          },
          {
            "astId": 3381,
            "contract": "src/dungeon/DungeonActionsFacet.sol:DungeonActionsFacet",
            "label": "lastRoomIndex",
            "offset": 28,
            "slot": "0",
            "type": "t_uint8"
          },
          {
            "astId": 3383,
            "contract": "src/dungeon/DungeonActionsFacet.sol:DungeonActionsFacet",
            "label": "index",
            "offset": 29,
            "slot": "0",
            "type": "t_uint8"
          },
          {
            "astId": 3385,
            "contract": "src/dungeon/DungeonActionsFacet.sol:DungeonActionsFacet",
            "label": "discoverer",
            "offset": 0,
            "slot": "1",
            "type": "t_uint256"
          },
          {
            "astId": 3387,
            "contract": "src/dungeon/DungeonActionsFacet.sol:DungeonActionsFacet",
            "label": "randomEvent",
            "offset": 0,
            "slot": "2",
            "type": "t_uint64"
          }
        ],
        "numberOfBytes": "96"
      },
      "t_uint256": {
        "encoding": "inplace",
        "label": "uint256",
        "numberOfBytes": "32"
      },
      "t_uint64": {
        "encoding": "inplace",
        "label": "uint64",
        "numberOfBytes": "8"
      },
      "t_uint8": {
        "encoding": "inplace",
        "label": "uint8",
        "numberOfBytes": "1"
      }
    }
  }
}