{
  "address": "0xcB5B2800d74718F5ce93b3873a79e20BD1d7f491",
  "abi": [
    {
      "anonymous": false,
      "inputs": [
        {
          "indexed": true,
          "internalType": "uint256",
          "name": "characterId",
          "type": "uint256"
        },
        {
          "indexed": true,
          "internalType": "uint256",
          "name": "oldLocation",
          "type": "uint256"
        },
        {
          "indexed": true,
          "internalType": "uint256",
          "name": "newLocation",
          "type": "uint256"
        },
        {
          "indexed": false,
          "internalType": "uint8",
          "name": "mode",
          "type": "uint8"
        },
        {
          "indexed": false,
          "internalType": "uint256",
          "name": "path",
          "type": "uint256"
        }
      ],
      "name": "CharacterMoved",
      "type": "event"
    },
    {
      "anonymous": false,
      "inputs": [
        {
          "indexed": true,
          "internalType": "uint256",
          "name": "characterId",
          "type": "uint256"
        },
        {
          "indexed": false,
          "internalType": "uint256",
          "name": "monsterId",
          "type": "uint256"
        }
      ],
      "name": "Death",
      "type": "event"
    },
    {
      "anonymous": false,
      "inputs": [
        {
          "indexed": true,
          "internalType": "uint256",
          "name": "characterId",
          "type": "uint256"
        },
        {
          "indexed": true,
          "internalType": "address",
          "name": "player",
          "type": "address"
        },
        {
          "indexed": false,
          "internalType": "string",
          "name": "name",
          "type": "string"
        }
      ],
      "name": "Enter",
      "type": "event"
    },
    {
      "anonymous": false,
      "inputs": [
        {
          "indexed": false,
          "internalType": "uint256",
          "name": "characterId",
          "type": "uint256"
        },
        {
          "indexed": false,
          "internalType": "uint256",
          "name": "gearId",
          "type": "uint256"
        },
        {
          "indexed": false,
          "internalType": "uint8",
          "name": "slotType",
          "type": "uint8"
        }
      ],
      "name": "Equip",
      "type": "event"
    },
    {
      "anonymous": false,
      "inputs": [
        {
          "indexed": true,
          "internalType": "uint256",
          "name": "characterId",
          "type": "uint256"
        },
        {
          "indexed": false,
          "internalType": "uint16",
          "name": "hp",
          "type": "uint16"
        }
      ],
      "name": "Heal",
      "type": "event"
    },
    {
      "anonymous": false,
      "inputs": [
        {
          "indexed": true,
          "internalType": "uint256",
          "name": "characterId",
          "type": "uint256"
        },
        {
          "indexed": false,
          "internalType": "uint16",
          "name": "newLevel",
          "type": "uint16"
        }
      ],
      "name": "LevelUp",
      "type": "event"
    },
    {
      "anonymous": false,
      "inputs": [
        {
          "indexed": true,
          "internalType": "uint256",
          "name": "characterId",
          "type": "uint256"
        },
        {
          "indexed": true,
          "internalType": "uint64",
          "name": "id",
          "type": "uint64"
        },
        {
          "indexed": true,
          "internalType": "uint8",
          "name": "status",
          "type": "uint8"
        },
        {
          "indexed": false,
          "internalType": "string",
          "name": "data",
          "type": "string"
        }
      ],
      "name": "QuestUpdate",
      "type": "event"
    },
    {
      "anonymous": false,
      "inputs": [
        {
          "indexed": true,
          "internalType": "uint256",
          "name": "areaLocation",
          "type": "uint256"
        },
        {
          "indexed": false,
          "internalType": "uint64",
          "name": "blockNumber",
          "type": "uint64"
        }
      ],
      "name": "RandomEvent",
      "type": "event"
    },
    {
      "anonymous": false,
      "inputs": [
        {
          "indexed": true,
          "internalType": "uint256",
          "name": "characterId",
          "type": "uint256"
        },
        {
          "indexed": false,
          "internalType": "uint256",
          "name": "gearId",
          "type": "uint256"
        }
      ],
      "name": "Recycle",
      "type": "event"
    },
    {
      "anonymous": false,
      "inputs": [
        {
          "indexed": true,
          "internalType": "uint256",
          "name": "deadCharacterId",
          "type": "uint256"
        },
        {
          "indexed": false,
          "internalType": "uint256",
          "name": "newCharacterId",
          "type": "uint256"
        }
      ],
      "name": "Resurrect",
      "type": "event"
    },
    {
      "anonymous": false,
      "inputs": [
        {
          "indexed": true,
          "internalType": "uint256",
          "name": "location",
          "type": "uint256"
        },
        {
          "indexed": false,
          "internalType": "bytes32",
          "name": "blockHash",
          "type": "bytes32"
        },
        {
          "indexed": false,
          "internalType": "uint8",
          "name": "exits",
          "type": "uint8"
        },
        {
          "indexed": false,
          "internalType": "uint8",
          "name": "kind",
          "type": "uint8"
        }
      ],
      "name": "RoomActualised",
      "type": "event"
    },
    {
      "anonymous": false,
      "inputs": [
        {
          "indexed": true,
          "internalType": "uint256",
          "name": "location",
          "type": "uint256"
        },
        {
          "indexed": false,
          "internalType": "uint64",
          "name": "blockNumber",
          "type": "uint64"
        },
        {
          "indexed": false,
          "internalType": "uint8",
          "name": "direction",
          "type": "uint8"
        }
      ],
      "name": "RoomDiscovered",
      "type": "event"
    },
    {
      "anonymous": false,
      "inputs": [
        {
          "indexed": true,
          "internalType": "uint256",
          "name": "location",
          "type": "uint256"
        },
        {
          "indexed": true,
          "internalType": "address",
          "name": "owner",
          "type": "address"
        },
        {
          "indexed": false,
          "internalType": "uint256",
          "name": "id",
          "type": "uint256"
        },
        {
          "indexed": false,
          "internalType": "uint256",
          "name": "amount",
          "type": "uint256"
        }
      ],
      "name": "RoomIncome",
      "type": "event"
    },
    {
      "anonymous": false,
      "inputs": [
        {
          "indexed": true,
          "internalType": "uint256",
          "name": "location",
          "type": "uint256"
        },
        {
          "indexed": false,
          "internalType": "string",
          "name": "name",
          "type": "string"
        },
        {
          "indexed": false,
          "internalType": "uint256",
          "name": "characterId",
          "type": "uint256"
        }
      ],
      "name": "RoomName",
      "type": "event"
    },
    {
      "anonymous": false,
      "inputs": [
        {
          "indexed": true,
          "internalType": "address",
          "name": "owner",
          "type": "address"
        },
        {
          "indexed": false,
          "internalType": "uint256",
          "name": "tax",
          "type": "uint256"
        },
        {
          "indexed": false,
          "internalType": "uint256",
          "name": "newDueDate",
          "type": "uint256"
        }
      ],
      "name": "RoomTaxPay",
      "type": "event"
    },
    {
      "inputs": [
        {
          "internalType": "uint256",
          "name": "location",
          "type": "uint256"
        }
      ],
      "name": "actualiseRoom",
      "outputs": [],
      "stateMutability": "nonpayable",
      "type": "function"
    },
    {
      "inputs": [
        {
          "internalType": "address",
          "name": "sender",
          "type": "address"
        },
        {
          "internalType": "uint256",
          "name": "characterId",
          "type": "uint256"
        },
        {
          "internalType": "string",
          "name": "name",
          "type": "string"
        },
        {
          "internalType": "uint8",
          "name": "class",
          "type": "uint8"
        },
        {
          "internalType": "uint256",
          "name": "location",
          "type": "uint256"
        }
      ],
      "name": "enter",
      "outputs": [],
      "stateMutability": "payable",
      "type": "function"
    },
    {
      "inputs": [
        {
          "internalType": "uint256",
          "name": "characterId",
          "type": "uint256"
        }
      ],
      "name": "exit",
      "outputs": [],
      "stateMutability": "nonpayable",
      "type": "function"
    },
    {
      "inputs": [
        {
          "internalType": "uint256",
          "name": "characterId",
          "type": "uint256"
        },
        {
          "internalType": "uint8",
          "name": "direction",
          "type": "uint8"
        }
      ],
      "name": "move",
      "outputs": [],
      "stateMutability": "nonpayable",
      "type": "function"
    },
    {
      "inputs": [
        {
          "internalType": "uint256",
          "name": "characterId",
          "type": "uint256"
        },
        {
          "internalType": "uint8[]",
          "name": "directions",
          "type": "uint8[]"
        }
      ],
      "name": "movePath",
      "outputs": [],
      "stateMutability": "nonpayable",
      "type": "function"
    },
    {
      "inputs": [
        {
          "internalType": "uint256",
          "name": "characterId",
          "type": "uint256"
        },
        {
          "internalType": "uint256",
          "name": "teleportLocation",
          "type": "uint256"
        }
      ],
      "name": "teleport",
      "outputs": [],
      "stateMutability": "nonpayable",
      "type": "function"
    }
  ],
  "transactionHash": "0x7ce24637bb55c21a358b18376190382e6190a992aa3ac286a7c73de29890b343",
  "args": [],
  "numDeployments": 2,
  "linkedData": {
    "readOnlyDungeon": "0x60808060405234610016576119f4908161001c8239f35b600080fdfe608060408181526004918236101561001657600080fd5b600090813560e01c9081630ececfea14610e3457508063213ee14314610a235780632f58779614610a0457806330ad9329146109ba5780633683dee114610893578063467b47931461075557806356b5c381146106f25780637a923474146106c95780639f7cb08e14610649578063a48378ff1461062a578063acda69ca14610556578063b0ca9dfe1461053a578063c3aab23c146103f9578063d5763a80146103ad578063d667fd0414610356578063ed53a62414610318578063f090aca8146102fc578063f6940ac714610152578063fcaf8951146101285763ff5335fa1461010057600080fd5b34610125576020366003190112610125575061011e6020923561197a565b9051908152f35b80fd5b50903461014e5760209060ff61014661014036610f23565b9161153a565b915191168152f35b5080fd5b50346101255760031960603682011261014e578335906044359067ffffffffffffffff918281168091036102f85761018984611015565b505060001960079290920b828112159392846102e9575b50836102dd575b50826102cc575b5081156102c0575b50156101d157505050506020915060ff6006915b5191168152f35b6009826101dd85611253565b16029182169182036102ad57819082610286575b50601911905061027657606460ff6127108551602081019085825260243588820152600360fa1b60608201526041815261022a81611051565b5190200616116102765761023f600591611015565b5091505060070b0760ff166001019260ff841161026357505060ff602092916101ca565b634e487b7160e01b825260119052602490fd5b50506020915060ff6006916101ca565b9050810190811161029a57601990386101f1565b634e487b7160e01b835260118552602483fd5b634e487b7160e01b845260118652602484fd5b600a91501015386101b6565b600191925060070b131590386101ae565b600112159250386101a7565b600783900b12159350386101a0565b8480fd5b50903461014e5760209061011e61031236610f47565b9061194a565b50346101255760a036600319011261012557606435908115158203610125575060209261011e91610347610f13565b916044359060243590356110c5565b5091346103a95760203660031901126103a95760a092503581519161ffff808360e81c168452808360a81c1660208501528260b81c169083015263ffffffff8160c81c16606083015260f81c6080820152f35b8280fd5b5091346103a95760603660031901126103a957358060070b81036103a957602435908160070b82036103f557604435938460070b850361012557509261011e91602094610f91565b8380fd5b50903461014e57602036600319011261014e5782359160ff83169283810361014e578251610160810181811067ffffffffffffffff821117610527578452828152600a60208201526031848201526077606082015260d0608082015261014860a082015261020c60c082015261033a60e08201526104f5610100820152610e46610120820152611aee610140820152600b8510156105145790611fe0929161ffff93849260051b1601511693600881116000146104cd5750505060609250600a906101ec5b81519384526020840152820152f35b826005816104e6816104e0600896611937565b16611482565b1604160190828211610501575060609450600a9291166104be565b634e487b7160e01b815260118652602490fd5b634e487b7160e01b835260328652602483fd5b634e487b7160e01b845260418752602484fd5b50903461014e5760209061011e61055036610f47565b9061140b565b50903461014e5760c036600319011261014e57610571610f5d565b60243560ff811681036103f557610586610efe565b906064359161ffff9384841684036106265760843594851685036106265760a4359663ffffffff88168098036101255750602096936105fb610621946105e961011e989561060e9561ffff60e81b9060e81b169060ff60f81b9060f81b16610f6e565b60e09190911b60ff60e01b1690610f6e565b60d09190911b61ffff60d01b1690610f6e565b60c09190911b61ffff60c01b1690610f6e565b610f6e565b8680fd5b5034610125576020366003190112610125575061011e60209235611457565b5034610125576020366003190112610125575063ffffffff61069560c09335908160f81c61ffff808460e81c169360ff8160e01c169363ffffffff838360d01c16938360c01c16921690565b949190929660ff8151988161ffff97888097168c521660208b015216908801521660608601521660808401521660a0820152f35b50903461014e57602036600319011261014e5760209061ffff6106ea610f5d565b169051908152f35b509190346103a957600a919261070736610f47565b939004600101806001116107425783810293818504149015171561072f576020838351908152f35b634e487b7160e01b815260118452602490fd5b634e487b7160e01b825260118552602482fd5b50903461014e57602036600319011261014e5782359167ffffffffffffffff908184116101255736602385011215610125578385013591821161012557602494600594368785881b830101116103a95794929190819582945b8486106107bf576020888851908152f35b9091929394966107fd8989841b85010135908160f81c61ffff808460e81c169360ff8160e01c169363ffffffff838360d01c16938360c01c16921690565b509360019350617fff925061081590841c8316611937565b9061ffff80808416961691161461085c575b50505061083391610f6e565b96600019811461084a5760010194939291906107ae565b634e487b7160e01b8552601184528885fd5b8293921c16820180921161088157610833929161087891610f6e565b90913880610827565b634e487b7160e01b8752601186528a87fd5b5034610125576108a236610f23565b9091925060196108b18461136a565b0480156109b2575b6108f76108ee8287516020810190888252878a820152601960fa1b6060820152604181526108e681611051565b5190206110a5565b8260011c610f6e565b9182156109a9575b60ff169384600214610991575b61094e929360088311610988575b6109459183918851906020820192835289820152606560f81b6060820152604181526108e681611051565b9060011c610f6e565b91821561097f575b60011461096a575b82519182526020820152f35b90806109799160021c90610f6e565b9061095e565b60019250610956565b6008925061091a565b6109a28361094e9460021c90610f6e565b925061090c565b600192506108ff565b5060016108b9565b5034610125576020366003190112610125575067ffffffffffffffff6109e260809335611015565b92949182519560070b865260070b602086015260070b90840152166060820152f35b5034610125576020366003190112610125575061011e602092356111cb565b50903461014e5760c036600319011261014e57823592602492833593610a47610efe565b916064359360ff9485811681036103a957610a60610f13565b9060a435958787168097036102f857610a7a908a8c61153a565b9884610a90610a888d6111cb565b94939c611015565b50509060070b159081610e28575b5015610acc57505050505050505060609381600160029217915b818551961686521660208501521690820152f35b9a939699909294979598915b8681169b8b8d11610e12575082516020810187815260f89290921b6001600160f81b031916818501526041808201869052600360f81b606183015260428252608082019067ffffffffffffffff821183831017610e02575084525190206001908c90868316831415906014900689168180610df0575b15610b7f5750505080600295179b5b878114610b6d5701939a93610ad8565b634e487b7160e01b8a52601189528a8afd5b600292888416841415928380610dc4575b15610ba35750505050600395179b610b5d565b8c808b969394959616141580928193610d51575b5015610bcc575050505050878095179b610b5d565b60089485808c1614159485610bfc575b5050505050600014610bf257600595179b610b5d565b50939a8490610b5d565b600391929394955014938415610d46575b8415610d2d575b8415610d14575b8415610cfb575b8415610cd5575b8415610caf575b8415610c89575b8415610c4c575b505050508d38808080610bdc565b604d149350909183610c81575b5082610c79575b5081610c71575b5038808f80610c3e565b905038610c67565b915038610c60565b925038610c59565b9350604e841480610ca8575b80610ca1575b93610c37565b5080610c9b565b5082610c95565b9350604e841480610cce575b80610cc7575b93610c30565b5082610cc1565b5081610cbb565b9350604e841480610cf4575b80610ced575b93610c29565b5080610ce7565b5081610ce1565b9350604f841480610d0d575b93610c22565b5082610d07565b9350604f841480610d26575b93610c1b565b5080610d20565b9350604f841480610d3f575b93610c14565b5081610d39565b605081149450610c0d565b905084148015610dba575b8015610da8575b8015610d96575b8015610d77575b38610bb7565b50604e831480610d8f575b8015610d71575084610d71565b5080610d82565b50604f83148015610d6a575084610d6a565b50604f83148015610d63575080610d63565b5060508314610d5c565b508583148015610de6575b80610b905750604f82148015610b90575080610b90565b5060508214610dcf565b50801580610b4e575060508314610b4e565b634e487b7160e01b8c528a528b8bfd5b9550509850965050925060609650819350610ab8565b905060070b1538610a9e565b918491503461012557836003193601126101255750610ed5610eea610ef093610eda610ed5610ee4610eda963593610eca60ff60098c82826024359660208101908c82528885820152603360f91b606082015260418152610e9481611051565b51902006169481519060208201928b8452820152606760f81b606082015260418152610ebf81611051565b519020061695611015565b5099919890986119a9565b6112cb565b9060070b906111a3565b946119a9565b90610f91565b815190815260026020820152f35b6044359060ff82168203610f0e57565b600080fd5b6084359060ff82168203610f0e57565b6060906003190112610f0e57600435906024359060443560ff81168103610f0e5790565b6040906003190112610f0e576004359060243590565b6004359061ffff82168203610f0e57565b91908201809211610f7b57565b634e487b7160e01b600052601160045260246000fd5b909167ffffffffffffffff9067ffffffffffffffff60801b608082901b16908216808204600160801b1490151715610f7b57600160ff1b908101908110610f7b576fffffffffffffffff00000000000000008285169460401b1693808504600160401b1490151715610f7b576110129361100a91610f6e565b911690610f6e565b90565b67ffffffffffffffff9081811660070b92828260401c1660070b928260801c1660070b9160ff1c90565b60ff60019116019060ff8211610f7b57565b6080810190811067ffffffffffffffff82111761106d57604052565b634e487b7160e01b600052604160045260246000fd5b90601f8019910116810190811067ffffffffffffffff82111761106d57604052565b81156110af570690565b634e487b7160e01b600052601260045260246000fd5b9192909360ff600191160361115c57600f90611154575b60ff60646040516020810190858252876040820152600360f91b60608201526041815261110881611051565b5190200691161161111b57505050600090565b6111469260405190602082019283526040820152600760f81b6060820152604181526108e681611051565b60018101809111610f7b5790565b5060196110dc565b50505050600090565b60070b677fffffffffffffff198114610f7b5760000390565b60070b60040190677fffffffffffffff8213677fffffffffffffff19831217610f7b57565b9060070b9060070b0190677fffffffffffffff198212677fffffffffffffff831317610f7b57565b6111d761101291611015565b509160079190600081840b12611234576111f260099161117e565b830b05915b600082820b126112155761120c60099261117e565b900b0590610f91565b60099061122c611227610eea94611165565b61117e565b900b05611165565b600961124561122761124d93611165565b840b05611165565b916111f7565b61125c90611015565b50819050826000600782900b126112b9575b5060008160070b126112a9575b508060070b8260070b1360001461129a575067ffffffffffffffff1690565b905067ffffffffffffffff1690565b6112b39150611165565b3861127b565b6112c4919350611165565b913861126e565b60070b6003190190677fffffffffffffff198212677fffffffffffffff831317610f7b57565b60070b90677fffffffffffffff198212677fffffffffffffff831317610f7b57565b600791820b910b0390677fffffffffffffff198212677fffffffffffffff831317610f7b57565b600160ff1b8114610f7b5760000390565b90600160401b60008382039312818412811691841390151617610f7b57565b61137661137f91611015565b505091906112f1565b60070b90600082126113f6575b611395906112f1565b60070b600081126113e8575b6780000000000000008083136113d8575b81136113ca575b808213156113c5575090565b905090565b6113d39061134b565b6113b9565b916113e29061134b565b916113b2565b6113f19061133a565b6113a1565b906114036113959161133a565b91905061138c565b9061142d61141b61142593611015565b5050939092611015565b505092611313565b60070b9060008212611444575b6113959192611313565b6114506113959261133a565b915061143a565b600160ff1b81036114685750600090565b61147360199161136a565b0460010180600111610f7b5790565b801561151157808060011461150a57600214611504576001908161013382101682600b831016176114f357906003815b8082116114ca5750508161ffff048111610f7b570290565b90928061ffff048111610f7b578184166114ea575b800292811c906114b2565b809202916114df565b600391500a9061ffff8211610f7b57565b50600890565b5050600190565b50600090565b80156115345760ff8111610f7b576001901b9060ff8211610f7b57565b50600190565b909160ff916004916000908416838103611738575050600f935b8360646040516020810190858252846040820152606f60f81b60608201526041815261157f81611051565b5190200616600090603c811060001461171c5750508360005b168381106115ab57505050505060f01790565b8491906003810361163c5750604080516020810194855290810191909152600760fc1b60608201526007926115fe91600391906115f581606181015b03601f198101835282611083565b5190201661103f565b160291821691820361162757506015810361161a575060d01790565b601c036110125760b01790565b601190634e487b7160e01b6000525260246000fd5b909150600281036116b257506116898460066003946115e761167f8496604051928391602083019586909160419282526020820152600760fc1b60408201520190565b519020061661103f565b16029182169182036116275750600f81036116a5575060501790565b6012036110125760a01790565b6001919293959450146116c7575b5050905090565b604080516020810193845290810191909152600760fc1b6060820152611700916003916116f781606181016115e7565b51902016611517565b821b91610ff060f08416931683036116275750178038806116c0565b605a91501060001461173057836001611598565b836002611598565b6040959195856064825160208101908782528685820152600160f81b60608201526041815261176681611051565b5190200616605711611926575b856064825160208101908782528685820152600160f91b60608201526041815261179c81611051565b51902006166028116117b0575b5050611554565b85818487939995995183606460208301836117e1868d84909160419282526020820152600360f81b60408201520190565b03936117f5601f1995868101835282611083565b5190200616601911156118565750505050508015801561184c575b156118225750600a17935b38806117a9565b80600196929614908115611841575b501561181b57936005179361181b565b905060031438611831565b5080600214611810565b9151602081018881526040820192909252600360f81b6060820152606192830181526064926118859082611083565b5190200616603211156118da5750806118a257506008179361181b565b600181036118b55750600117935b61181b565b600281036118c757506002179361181b565b6003959195036118b0579382179361181b565b9190806118ed575060029150179361181b565b600181036118fd5750179361181b565b9091506002810361191257506008179361181b565b6003959195036118b057936001179361181b565b955061193181611517565b95611773565b9061ffff809216600101918211610f7b57565b906119549161140b565b6001600160ff1b0381168103610f7b5760059060011b0480156000146110125750600190565b6119839061136a565b6001600160ff1b0381168103610f7b5760069060011b0480156000146110125750600190565b60099060070b02908160070b918203610f7b5756fea26469706673582212203c4c43883a7319f368409400962e63e23b1d5d86c7925e44e3f62a0da6e003f964736f6c63430008140033"
  },
  "solcInputHash": "90ef69df07aa634af9adf868f6be93e6",
  "bytecode": "0x6080806040523461001657614364908161001c8239f35b600080fdfe6080604052600436101561001257600080fd5b6000803560e01c80632d3e085114611b7e5780634f28b6d2146119215780636a4e248414610bf95780637f8661a114610a675780638d94073c146109fa5763a23782b31461005f57600080fd5b60a03660031901126106dd576004356001600160a01b03811690036106dd576001600160401b03604435116106dd573660236044350112156106dd576001600160401b0360443560040135116106dd57366024604435600401356044350101116106dd5760643560ff8116810361080b576100e560018060a01b03600a54163314611ca5565b6006546040516331a9108f60e11b815260248035600483015284926001600160a01b03169190602090829081855afa9081156108f35783916109cb575b506001600160a01b0316301461092a57803b15610912576040516323b872dd60e01b8152600480356001600160a01b0316908201523060248083019190915235604482015290829082908183816064810103925af180156106e057610916575b50505b60065482906001600160a01b0316803b1561091257818091604460405180948193637fbddc4760e01b8352602435600484015260018060a01b036004351660248401525af180156106e0576108fe575b5050600654604051630178fe3f60e01b81526024803560048301529091602091839182906001600160a01b03165afa9081156108f35783916108c1575b5015610346575b506084358015158061032a575b80610318575b1561030d575b60243582528160205280604083205581526001602052610291604082206102656001600160401b03825460801c16611da2565b90805467ffffffffffffffff60801b191660809290921b67ffffffffffffffff60801b16919091179055565b604051602081526044356004013560208201526044356004013560246044350160408301376004604435810135828101604090810185905291356001600160a01b031692602435927f1ef8e6b9c3066d754206fef3b8d359e66eccb916e044a69e2a40ac01e1220e2b92601f01601f191682018290030190a380f35b50600160ff1b610232565b50600a61032482614088565b1061022c565b508082526001602052600260ff604084205460d01c1614610226565b61037e9060ff6040519161035983611d11565b1681528260208201528260408201526010606082015260106080820152602435611dc7565b600854604051630d9778e560e11b8152602480356004830152600167078000000005000560c11b0190820152906020908290604490829086906001600160a01b03165af19081156106e057829161088f575b50600060a06040516103e181611d2c565b82815282602082015282604082015282606082015282608082015201526024602060018060a01b036008541660405192838092630178fe3f60e01b82528660048301525afa9081156107d55760009161085d575b5061ffff8160e81c16906040519161044c83611d2c565b80835260ff8260e01c16602084015263ffffffff60408401928060f81c845261ffff8160d01c16606086015261ffff8160c01c1660808601521660a08401526107685751600116156107335760ff602082015116610818577f9661c1f94255e8f19fda183859db8ad335498fb1e361acc4bd925a68d1bcaf819160ff6020606093602435600052600082528360026040600020015501511660405191602435835260208301526040820152a1600854604051630d9778e560e11b8152602480356004830152600467078000008005000560c11b0190820152906020908290604490829086906001600160a01b03165af19081156106e05782916107e1575b50600060a060405161055b81611d2c565b82815282602082015282604082015282606082015282608082015201526024602060018060a01b036008541660405192838092630178fe3f60e01b82528660048301525afa9081156107d5576000916107a3575b5061ffff8160e81c1690604051916105c683611d2c565b80835260ff8260e01c16602084015263ffffffff60408401928060f81c845261ffff8160d01c16606086015261ffff8160c01c1660808601521660a084015261076857516001161561073357600160ff602083015116036106ee577f9661c1f94255e8f19fda183859db8ad335498fb1e361acc4bd925a68d1bcaf819160ff6020606093602435600052600082528360036040600020015501511660405191602435835260208301526040820152a160075481906001600160a01b0316803b156106eb578180916064604051809481936302acc94b60e01b8352602435600484015260086024840152600a60448401525af180156106e0576106c9575b50610219565b6106d290611ce8565b6106dd5780386106c3565b80fd5b6040513d84823e3d90fd5b50fd5b60405162461bcd60e51b815260206004820152601b60248201527f6f6e6c7920646566656e73652067656172206f6e20736c6f74203100000000006044820152606490fd5b60405162461bcd60e51b815260206004820152600d60248201526c696e76616c696420636c61737360981b6044820152606490fd5b60405162461bcd60e51b81526020600482015260136024820152720cecac2e44098caeccad840e8dede40d0d2ced606b1b6044820152606490fd5b906020823d6020116107cd575b816107bd60209383611d62565b810103126106dd575051386105af565b3d91506107b0565b6040513d6000823e3d90fd5b90506020813d602011610810575b816107fc60209383611d62565b8101031261080b57513861054a565b600080fd5b3d91506107ef565b60405162461bcd60e51b815260206004820152601a60248201527f6f6e6c792061747461636b2067656172206f6e20736c6f7420300000000000006044820152606490fd5b906020823d602011610887575b8161087760209383611d62565b810103126106dd57505138610435565b3d915061086a565b90506020813d6020116108b9575b816108aa60209383611d62565b8101031261080b5751386103d0565b3d915061089d565b90506020813d6020116108eb575b816108dc60209383611d62565b8101031261080b575138610212565b3d91506108cf565b6040513d85823e3d90fd5b61090790611ce8565b6109125781386101d5565b5080fd5b61091f90611ce8565b610912578138610182565b6024915060209060405192838092630607176160e31b8252823560048301525afa9081156108f3578391610999575b50156101855760405162461bcd60e51b815260206004820152601260248201527130b63932b0b23c9034b710323ab733b2b7b760711b6044820152606490fd5b90506020813d6020116109c3575b816109b460209383611d62565b8101031261080b575138610959565b3d91506109a7565b6109ed915060203d6020116109f3575b6109e58183611d62565b810190611d83565b38610122565b503d6109db565b50346106dd5760203660031901126106dd5760055481906001600160a01b0316803b156106eb5781809160046040518094819363216d6a4f60e11b83525af180156106e057610a53575b50610a50600435611f4a565b80f35b610a5c90611ce8565b6106dd578038610a44565b50346106dd57602090816003193601126106dd57600a54600435926001600160a01b0391610a989083163314611ca5565b838352828152604083205493600160ff1b8501610bb4578394845260018252604084206001600160401b03815460801c169081610ba1575b50508260065416604051630607176160e31b81528260048201528381602481855afa938415610b96578694610b63575b5050803b15610b5f576040516323b872dd60e01b8152306004820152939092166001600160a01b031660248401526044830152829082908183816064810103925af180156106e057610b4f5750f35b610b5890611ce8565b6106dd5780f35b8480fd5b819650809294503d8311610b8f575b610b7c8183611d62565b8101031261080b57849351913880610b00565b503d610b72565b6040513d88823e3d90fd5b610265610bad92611e88565b3880610ad0565b60405162461bcd60e51b815260048101839052601a60248201527f6e65656420746f2072656163682074686520656e7472616e63650000000000006044820152606490fd5b50346106dd5760403660031901126106dd57610c2060018060a01b03600a54163314611ca5565b60055481906001600160a01b0316803b156106eb5781809160046040518094819363216d6a4f60e11b83525af180156106e05761190d575b5050610c7761ffff6080610c6d600435612ce3565b0151161515611e9e565b6004358152806020526040812054610c8e81611f4a565b610ca0610c9a82612fac565b15611ee3565b8082526001602052600260ff604084205460d01c16036118c85760243582526001602052600260ff604084205460d01c160361188357610ce1602435613e37565b5091505060043583528260205260016040842001549060070b9060081c60070b1261184a57808252600160205260408220805467ffffffffffffffff60401b19169055610d3060243582613f94565b6001600160a01b03610d4183613934565b168381156117dc5750600582046116cb575b506007546001600160a01b0316906005810481039081116116b5578184923b156112865760405163c9b902e360e01b8152600480359082015260066024820152604481019290925282908290606490829084905af180156106e0576116a1575b50505b604051906001825260046020830152602435917f3042d0c278ec3b2d8bf290d27da7bb56226996146c187fc01f6f448b6283da72604060043592a4600090600435825281602052604082208054835260016020526040832090602435845260408420849281546001600160401b038116156000146114025750610e3a602435614291565b86526002602052604086206001810154806113d8575b5060075487906001600160a01b0316610e6a602435613f69565b90803b156112865760405163c9b902e360e01b8152600480359082015260086024820152604481019290925282908290606490829084905af180156106e0576113c4575b50506024358752600160205260408720906001600160401b0343166001600160401b0319835416178255610eeb6001600160401b03431683611f22565b8154600160c21b60ff60c01b19821681178455825460ff60d81b60d09190911b1663ff0000ff60c01b1990921691909117178255805463ff000000610f3660ff601884901c166139ff565b60181b1663ff000000198216178255825460ff60e81b60d092831b1660ff60e81b19821681178555835460ff60e01b931b9290921661ffff60e01b1990911690911717825560043560018084019190915560243591015560055487906001600160a01b0316803b156109125781809160046040518094819363338cdca160e01b83525af180156106e0576113b0575b50600654604051630607176160e31b8152600480359082015290602090829060249082906001600160a01b03165afa9081156106e057829161137b575b5080151580611303575b61128a575b6009546001600160a01b031690813b156112865782916044839260405194859384926319846a3560e21b8452602435600485015260248401525af180156106e05761126e575b505060ff905460c01c16604051906001600160401b034316825260208201527fa97399cd19a5b00b49b7d10d188180e100139a0501c9c9b4fe21dab5b915162f604060243592a25b6110aa602435614291565b808752600260205260026040882001946001600160401b038654161580611263575b611192575b50506001935090816001600160401b03611109935460801c16908161117f575b50506102656001600160401b03825460801c16611da2565b602435815501600460ff19825416179055611125600435612ce3565b6080810161ffff81511661ffff6060840151168110611142578380f35b6001019361ffff851161116b575061ffff6111639394169052600435611dc7565b803880808380f35b634e487b7160e01b81526011600452602490fd5b61026561118b92611e88565b38806110f1565b6001600160401b038116156111f8575b907f644c4d4ff52c1efcb89d373879c1d7e01d3f8b7e60cc19f9bdf5da38cd90c14d60206001976001600160401b036111099796951690816001600160401b0319825416179055604051908152a29091386110d1565b50600554436001600160401b03169088906001600160a01b0316803b156109125781809160046040518094819363338cdca160e01b83525af180156106e057611243575b50506111a2565b611251909594939295611ce8565b61125f57909192873861123c565b8780fd5b5060034306156110cc565b61127790611ce8565b611282578638611057565b8680fd5b8280fd5b905062069780420142116112ef57879060018060a01b038116808352600d60205262069780420160408420557fc24affdb20f6529973515c5398461c1f6228edbfac531ab49e56a11433a86c9f604080518581526206978042016020820152a2611011565b634e487b7160e01b88526011600452602488fd5b5060095460405163c9a59e4760e01b81526004810183905290602090829060249082906001600160a01b03165afa9081156108f3578391611346575b501561100c565b9250506020823d602011611373575b8161136260209383611d62565b8101031261080b578891513861133f565b3d9150611355565b9150506020813d6020116113a8575b8161139760209383611d62565b8101031261080b5787905138611002565b3d915061138a565b6113b990611ce8565b611282578638610fc5565b6113cd90611ce8565b611282578638610eae565b6113e190611f4a565b805462ff00008160081c169062ff0000191617815586600182015538610e50565b6001600160401b038160401c1615908161168c575b5080611675575b80611600575b61157d575b611434602435611f4a565b6001600160a01b03611447602435613934565b16801515806114fa575b61145c575b5061109f565b60075487906001600160a01b0316803b156109125781809160646040518094819363a41dab8160e01b835288600484015260086024840152600160448401525af180156106e0576114e6575b505060405160088152600160208201527f41d17e4a29add7df9dab104b7b914e73209c448b1fd78b8ca04efc5e24df1abb604060243592a338611456565b6114ef90611ce8565b6112825786386114a8565b50600654604051630607176160e31b8152600480359082015290602090829060249082906001600160a01b03165afa908115611572578891611540575b50811415611451565b90506020813d60201161156a575b8161155b60209383611d62565b8101031261080b575138611537565b3d915061154e565b6040513d8a823e3d90fd5b600554436001600160401b0316945086906001600160a01b0316803b1561091257819060046040518094819363338cdca160e01b83525af180156115f5576115e2575b506001600160401b03825460401c16611429576115dd8483611f22565b611429565b6115ee90969196611ce8565b94386115c0565b6040513d89823e3d90fd5b50600954604051630178fe3f60e01b81526024803560048301529091602091839182906001600160a01b03165afa9081156115f5578791611643575b5015611424565b90506020813d60201161166d575b8161165e60209383611d62565b8101031261128257513861163c565b3d9150611651565b5060026001600160401b038184015416141561141e565b6001600160401b03915060801c161538611417565b6116aa90611ce8565b610912578138610db3565b634e487b7160e01b600052601160045260246000fd5b60075484906001600160a01b0316803b15610912578180916084604051809481936311aa10fb60e01b835260043560048401528160248401526006604484015260058a0460648401525af180156106e0576117c8575b506007546001600160a01b0316803b1561091257818091608460405180948193637f4c824d60e11b83523060048401528860248401526006604484015260058a0460648401525af180156106e0576117b0575b5050827f41d17e4a29add7df9dab104b7b914e73209c448b1fd78b8ca04efc5e24df1abb6040805160068152600586046020820152a338610d53565b6117b990611ce8565b6117c4578338611774565b8380fd5b6117d190611ce8565b6117c4578338611721565b600754909291506001600160a01b0316803b156112865760405163c9b902e360e01b8152600480359082015260066024820152604481019290925282908290606490829084905af180156106e057611836575b5050610db6565b61183f90611ce8565b61091257813861182f565b60405162461bcd60e51b8152602060048201526011602482015270199b1bdbdc881b9bdd08185b1b1bddd959607a1b6044820152606490fd5b60405162461bcd60e51b815260206004820152601f60248201527f64657374696e6174696f6e20726f6f6d206e6f7420612074656c65706f7274006044820152606490fd5b60405162461bcd60e51b815260206004820152601b60248201527f63757272656e7420726f6f6d206e6f7420612074656c65706f727400000000006044820152606490fd5b61191690611ce8565b6106dd578038610c58565b50346106dd5760403660031901126106dd576001600160401b0390602480356004358482116117c457366023830112156117c45781600401359485116117c4576005368487831b85010111610b5f57600a546001600160a01b03906119899082163314611ca5565b86151580611b74575b15611b3057815416803b15611b2c5785809160046040518094819363216d6a4f60e11b83525af18015610b9657908691611b18575b508290526020859052604085209592936119e861ffff6080610c6d86612ce3565b8654936119f485611f4a565b6119fd85612fac565b95611a088715611ee3565b85885260019283918260205260408a2067ffffffffffffffff60401b1981541690556008958a998b965b611a7a575b8b610a508c8f8c8e8d827f3042d0c278ec3b2d8bf290d27da7bb56226996146c187fc01f6f448b6283da72604084965493815190600282526020820152a4613095565b60ff9a91929394959699979a9187838c161080928193611b0f575b5015611b06575015611af35783611fe08a841b1684010135908116808203611aef5790611ac9611ad092829c60041b611dba565b9789613a77565b97611ae3611add8a612fac565b916139ff565b95949392919084611a32565b8b80fd5b634e487b7160e01b8b526032600452838bfd5b9a979950611a37565b90501538611a95565b611b2190611ce8565b610b5f5784386119c7565b8580fd5b60405162461bcd60e51b815260206004820152601c818701527f696e76616c6964206e756d626572206f6620646972656374696f6e73000000006044820152606490fd5b5081871115611992565b50346106dd5760403660031901126106dd576004359060243560ff81169283820361128657600a546001600160a01b0390611bbc9082163314611ca5565b60055416803b156117c45783809160046040518094819363216d6a4f60e11b83525af18015611c9a57611c82575b50808394604092610a50955285602052828620611c0e61ffff6080610c6d86612ce3565b54611c1881611f4a565b611c24610c9a82612fac565b8087526001602052838720805467ffffffffffffffff60401b19169055827f3042d0c278ec3b2d8bf290d27da7bb56226996146c187fc01f6f448b6283da72611c6e878484613a77565b9586948151908b82526020820152a4613095565b90610a5093611c92604093611ce8565b935090611bea565b6040513d86823e3d90fd5b15611cac57565b60405162461bcd60e51b81526020600482015260146024820152731bdb9b1e481c1b185e595c9cc8185b1b1bddd95960621b6044820152606490fd5b6001600160401b038111611cfb57604052565b634e487b7160e01b600052604160045260246000fd5b60a081019081106001600160401b03821117611cfb57604052565b60c081019081106001600160401b03821117611cfb57604052565b608081019081106001600160401b03821117611cfb57604052565b90601f801991011681019081106001600160401b03821117611cfb57604052565b9081602091031261080b57516001600160a01b038116810361080b5790565b6001600160401b038091169081146116b55760010190565b919082018092116116b557565b90611e3790611e21611e0c611df560ff60f81b845160f81b1661ffff60e81b602086015160e81b1690611dba565b604084015160c81b63ffffffff60c81b1690611dba565b606083015160b81b61ffff60b81b1690611dba565b60809091015160a81b61ffff60a81b1690611dba565b6006546001600160a01b03169190823b1561080b576044600092836040519586948593634848b1a560e01b8552600485015260248401525af180156107d557611e7d5750565b611e8690611ce8565b565b6001600160401b031680156116b5576000190190565b15611ea557565b60405162461bcd60e51b81526020600482015260166024820152751e5bdd5c8818da185c9858dd195c881a5cc81919585960521b6044820152606490fd5b15611eea57565b60405162461bcd60e51b815260206004820152601060248201526f6d6f6e7374657220626c6f636b696e6760801b6044820152606490fd5b9067ffffffffffffffff60401b82549160401b169067ffffffffffffffff60401b1916179055565b60008181526001602052604081208054906001600160401b038216918215612ca75760d01c60ff1615611f8c575b505050611f87611e8691614291565b612dc6565b600554604051634a83e9cd60e11b81526004810193909352602090839060249082906001600160a01b03165afa9182156108f3578392612c73575b508115612c6d57611fd784614291565b808452600260205260ff60408520541615612a46575b5080548360c082901c60ff166004810361286f575050600f5b60ff6064604051886020820152866040820152606f60f81b60608201526041815261203081611d47565b602081519101200616603c8110600014612855575060ff855b16600481106126e7575060f0175b8461206187614291565b60ff8460e01c1660ff8560d81c16926120798a613e37565b50509060070b1590816126db575b5015612344575050506060879260ff7f8850140926f0260fe1b422b7a0d93e7d5734e521eae9ac8969ed512cc383451593600160029117965b61ffff60c81b191683831660c81b1781831660d01b1788556120e186614291565b96878b52600260205260408b2090815490848116858360081c160361232b575b50505081604051938a8552166020840152166040820152a283526002602052600160ff6040852054169101918254918261213d575b5050611f78565b60ff61214884612ce3565b511692601961215688614129565b048015612323575b61219e6121958260405160208101908c8252886040820152601960fa1b60608201526041815261218d81611d47565b519020613075565b8260011c611dba565b93841561231a575b856002146122fe575b906121f291600882116122f5575b816121e99160405160208101918d83526040820152606560f81b60608201526041815261218d81611d47565b9060011c611dba565b9384156122ec575b6001146122d7575b6005821115612275575b50505060018060a01b03600754169154823b156117c45790606484928360405195869485936302acc94b60e01b855260048501526006602485015260448401525af180156106e057612261575b808080612136565b61226b8291611ce8565b6106dd5780612259565b6007546001600160a01b0316803b15611282578692918360649260405196879586946302acc94b60e01b86526004860152602485015260448401525af18015611c9a576122c4575b808061220c565b6122d090939193611ce8565b91386122bd565b92806122e69160021c90611dba565b92612202565b600194506121fa565b600891506121bd565b9390612311826121f29360021c90611dba565b949091506121af565b600194506121a6565b50600161215e565b61ff009060081b169061ff001916179055388080612101565b9994989391999796959290975b60ff8a60e81c1660ff8a16116126a457506040518a602082015260ff60f81b8960f81b166040820152866041820152600360f81b6061820152604281528060808101106001600160401b0360808301111761269057601481608060ff9301604052602081519101200616600180831614159081809261267b575b156123e85750506123e1600160029217986139ff565b9790612351565b600283811614158080612648575b1561240d575050506123e1600260039217986139ff565b6004848116141580806125d0575b1561243257505050506123e16004809217986139ff565b6008938480871614159384612468575b5050505060001461245b576123e19060059217986139ff565b50966123e16001916139ff565b6003149350909183156125c2575b83156125a6575b831561258a575b831561256e575b8315612545575b831561251c575b83156124f3575b83156124b3575b50505038808080612442565b60ff8d16604d1493509091836124eb575b50826124e3575b50816124db575b503880806124a7565b9050386124d2565b9150386124cb565b9250386124c4565b9250604e60ff8d161480612515575b8061250e575b926124a0565b5082612508565b5081612502565b9250604e60ff8d16148061253e575b80612537575b92612499565b5081612531565b508061252b565b9250604e60ff8d161480612567575b80612560575b92612492565b508261255a565b5080612554565b9250604f60ff8d161480612583575b9261248b565b508161257d565b9250604f60ff8d16148061259f575b92612484565b5082612599565b9250604f60ff8d1614806125bb575b9261247d565b50806125b5565b60ff8d166050149350612476565b5060028314801561263b575b8015612626575b8015612611575b8061241b5750604e60ff8d16148061260a575b801561241b57508161241b565b50836125fd565b50604f60ff8d161480156125ea5750816125ea565b50604f60ff8d161480156125e35750836125e3565b50605060ff8d16146125dc565b5060018214801561266e575b806123f65750604f60ff8c161480156123f65750826123f6565b50605060ff8c1614612654565b508015806123cb5750605060ff8b16146123cb565b634e487b7160e01b88526041600452602488fd5b60609291959a507f8850140926f0260fe1b422b7a0d93e7d5734e521eae9ac8969ed512cc3834515939697985060ff90859a6120c0565b905060070b1538612087565b6003810361278057506040805160208101888152918101869052600760fc1b606082015260079160ff916127389160039161272f81606181015b03601f198101835282611d62565b51902016613a65565b16028060ff81160361276c5760ff8116601503612759575060d0175b612057565b60ff601c9116036127545760b017612057565b634e487b7160e01b86526011600452602486fd5b600281036127fc5750600360ff6127c98160068a6040516127bf816127218d602083019586909160419282526020820152600760fc1b60408201520190565b5190200616613a65565b16028060ff81160361276c5760ff8116600f036127e95750605017612057565b60ff60129116036127545760a017612057565b600103612754576040805160208101888152918101869052600760fc1b606082015261283b916003916128328160618101612721565b51902016613a42565b60041b610ff0811660f082160361276c5760f01617612057565b605a11156128665760ff6001612049565b60ff6002612049565b60ff606460405160208101908a8252886040820152600160f81b60608201526041815261289b81611d47565b5190200616605711612a35575b60ff606460405160208101908a8252886040820152600160f91b6060820152604181526128d481611d47565b51902006166028116128e7575b50612006565b6040805160208101898152918101879052600360f81b6060820152604181528891601f199160ff9160649161291d606182611d62565b5190200616601911156129745750508015801561296a575b156129455750600a175b386128e1565b8060011490811561295f575b501561293f5760051761293f565b905060031438612951565b5080600214612935565b6040805160208101938452908101889052600360f81b60608201526061918201815260ff926064929091906129a99082611d62565b5190200616603211156129f657806129c4575060081761293f565b600181036129d657506001175b61293f565b600281036129e7575060021761293f565b6003036129d15760041761293f565b80612a04575060021761293f565b60018103612a15575060041761293f565b60028103612a26575060081761293f565b6003036129d15760011761293f565b9050612a4081613a42565b906128a8565b6001600160401b0360035460401c1690612a5f81613e37565b505060001960079290920b828112159283612c5e575b5082612c52575b5081612c43575b508015612c38575b15612b575760069081905b8652600260205260ff604087209116908160ff198254161790550315611fed576001600160401b036201437042041660035491816001600160401b0384161415600014612b075750600160401b91506fffffffffffffffffffffffffffffffff196003541617176003555b38611fed565b60019150016001600160401b038111612b435767ffffffffffffffff60401b9060401b169067ffffffffffffffff60401b191617600355612b01565b634e487b7160e01b85526011600452602485fd5b60096001600160401b03612b6a836141ce565b1602806001600160401b0381160361276c576001600160401b03811680612c0e575b6019119050612c0457606460ff6127106040516020810190858252886040820152600360fa1b606082015260418152612bc481611d47565b519020061611612c0457612bd781613e37565b5091505060ff60058260070b0781166001011161276c5790600560069260070b0760ff1660010190612a96565b6006908190612a96565b506001600160401b03811660031981011161276c576019906001600160401b031660031901612b8c565b50600a821015612a8b565b6001915060070b131538612a83565b60011215915038612a7c565b600783900b1215925038612a75565b50505050565b9091506020813d602011612c9f575b81612c8f60209383611d62565b8101031261128657519038611fc7565b3d9150612c82565b60405162461bcd60e51b81526020600482015260146024820152731c9bdbdb481b9bdd0818dc99585d1959081e595d60621b6044820152606490fd5b604090815190612cf282611d11565b6000908183528160806020948286820152828782015282606082015201528260018060a01b0360065416916024865180948193630178fe3f60e01b835260048301525afa918215612dbb578092612d8b575b5050825192612d5284611d11565b8160f81c845261ffff92838360e81c169085015263ffffffff8260c81c1690840152818160b81c16606084015260a81c16608082015290565b9091508282813d8311612db4575b612da38183611d62565b810103126106dd5750513880612d44565b503d612d99565b8451903d90823e3d90fd5b6000908082526020600281526040600281852001936001600160401b0393848654169081612df8575b50505050505050565b6005548451634a83e9cd60e11b815260048101939093528590839060249082906001600160a01b03165afa918215612fa2578392612f73575b508115612def57612ec6612ec1612ed6612edc93612ec6612ec1612ed0600198612eb660ff60098f8f9083838351838101908d82528986820152603360f91b606082015260418152612e8281611d47565b5190200616958251918201928b8452820152606760f81b606082015260418152612eab81611d47565b519020061695613e37565b509991989098614319565b613fc4565b9060070b90614269565b94614319565b90613e60565b93612ee685612fac565b9483525220916002830192835492600283851614159283612f64575b5082612f5b575b5081612f4a575b50612f33575b5050805467ffffffffffffffff1916905538808080808080612def565b67ffffffffffffffff191660021790553880612f16565b60ff91505460d01c16151538612f10565b15915038612f09565b825460801c1615925038612f02565b9091508481813d8311612f9b575b612f8b8183611d62565b8101031261128657519038612e31565b503d612f81565b84513d85823e3d90fd5b600090808252602090600182526001600160401b039182604085205460401c16801561306e57600554604051634a83e9cd60e11b81526004810183905292908190849060249082906001600160a01b03165afa928315610b9657869361303f575b508215613037578560016040928661303499525220549360ff8560d01c1694161491613edb565b90565b505050505090565b9080935081813d8311613067575b6130578183611d62565b81010312611b2c5751913861300d565b503d61304d565b5050505090565b811561307f570690565b634e487b7160e01b600052601260045260246000fd5b9092916000938285528460205260408520908154865260016020526040862081875260408720908782546001600160401b0381161560001461369e57506130db84614291565b895260026020528860408120600181015480613674575b506007546001600160a01b031661310887613f69565b90803b156117c45760405163c9b902e360e01b8152600481018c905260086024820152604481019290925283908290606490829084905af19081156108f3578391613660575b50869052600160205285600160408420926001600160401b0343166001600160401b031985541617845561318b6001600160401b03431685611f22565b835460ff60c01b60c08d901b1660ff60c01b19821681178655825460ff60d81b60d09190911b1663ff0000ff60c01b1990921617178455805463ff0000006131d960ff601884901c166139ff565b60181b1663ff000000198216178255845460ff60e81b60d092831b1660ff60e81b19821681178755835460ff60e01b931b9290921661ffff60e01b199091169091171784558184018c905501556005546001600160a01b0316803b156112865782809160046040518094819363338cdca160e01b83525af19081156108f357839161364c575b5050600654604051630607176160e31b8152600481018b905290602090829060249082906001600160a01b03165afa9081156108f3578391613617575b508015158061359f575b613524575b6009546001600160a01b031690813b156117c45783916044839260405196879384926319846a3560e21b84528d600485015260248401525af19283156135175787936134fa575b5050604060ff7fa97399cd19a5b00b49b7d10d188180e100139a0501c9c9b4fe21dab5b915162f925460c01c168151906001600160401b03431682526020820152a25b61333e84614291565b90818a526002602052600260408b2001906001600160401b0382541615806134ef575b613411575b505050916133a060ff9492846001600160401b036001965460801c16908161117f5750506102656001600160401b03825460801c16611da2565b815501911660ff198254161790556133b781612ce3565b906080820161ffff808251168160608601511681106133da575b50505050509050565b6001018181116133fd576133f2959650169052611dc7565b8038808080806133d1565b634e487b7160e01b87526011600452602487fd5b6001600160401b0381161561347e575b926133a0927f644c4d4ff52c1efcb89d373879c1d7e01d3f8b7e60cc19f9bdf5da38cd90c14d602060ff9997946001600160401b0360019a981690816001600160401b0319825416179055604051908152a2929481949650613366565b50600554436001600160401b0316908b906001600160a01b0316803b156109125781809160046040518094819363338cdca160e01b83525af180156106e0576134c9575b5050613421565b6134da909896939795929498611ce8565b6134eb579294909395918a386134c2565b8a80fd5b506003430615613361565b61350691929350611ce8565b6135135784908a386132f2565b8980fd5b50604051903d90823e3d90fd5b909150620697804201421161358b57908a9160018060a01b038116808452600d60205262069780420160408520557fc24affdb20f6529973515c5398461c1f6228edbfac531ab49e56a11433a86c9f604080518681526206978042016020820152a26132ab565b634e487b7160e01b8b52601160045260248bfd5b5060095460405163c9a59e4760e01b81526004810183905290602090829060249082906001600160a01b03165afa908115611c9a5784916135e2575b50156132a6565b9350506020833d60201161360f575b816135fe60209383611d62565b8101031261080b578b9251386135db565b3d91506135f1565b9250506020823d602011613644575b8161363360209383611d62565b8101031261080b578a91513861329c565b3d9150613626565b61365590611ce8565b61091257813861325f565b61366990611ce8565b61091257813861314e565b61367d90611f4a565b805462ff00008160081c169062ff00001916178155816001820155386130f2565b6001600160401b038160401c1615908161391f575b5080613908575b80613893575b613810575b6136ce84611f4a565b6001600160a01b036136df85613934565b168015158061378e575b6136f4575b50613335565b6007548a906001600160a01b0316803b156109125781809160646040518094819363a41dab8160e01b835288600484015260086024840152600160448401525af180156106e05761377a575b5050847f41d17e4a29add7df9dab104b7b914e73209c448b1fd78b8ca04efc5e24df1abb604080516008815260016020820152a3386136ee565b61378390611ce8565b613513578938613740565b50600654604051630607176160e31b8152600481018a905290602090829060249082906001600160a01b03165afa908115613805578b916137d3575b508114156136e9565b90506020813d6020116137fd575b816137ee60209383611d62565b8101031261080b5751386137ca565b3d91506137e1565b6040513d8d823e3d90fd5b50600554436001600160401b03169089906001600160a01b0316803b1561091257819060046040518094819363338cdca160e01b83525af1801561388857613875575b506001600160401b03835460401c166136c5576138708184611f22565b6136c5565b61388190999199611ce8565b9738613853565b6040513d8c823e3d90fd5b50600954604051630178fe3f60e01b81526004810186905290602090829060249082906001600160a01b03165afa908115613888578a916138d6575b50156136c0565b90506020813d602011613900575b816138f160209383611d62565b810103126135135751386138cf565b3d91506138e4565b5060026001600160401b03818501541614156136ba565b6001600160401b03915060801c1615386136b3565b6009546040516331a9108f60e11b8152600481018390526001600160a01b0392918316916020918281602481875afa9081156107d5576000916139e2575b50841630036139d95781906024604051809581936369f648a160e01b835260048301525afa9081156107d5576000916139ad575b5090501690565b82813d83116139d2575b6139c18183611d62565b810103126106dd57505180386139a6565b503d6139b7565b50505050600090565b6139f99150833d85116109f3576109e58183611d62565b38613972565b60ff1660ff81146116b55760010190565b60070b677fffffffffffffff1981146116b5576000190190565b60070b677fffffffffffffff81146116b55760010190565b8015613a5f5760ff81116116b5576001901b9060ff82116116b557565b50600190565b60ff60019116019060ff82116116b557565b90613a8181613e37565b5060ff9586169392828186613c38575050612ed6613aa393613a10565b613e60565b936000828152600160205260408120908681526040812082546001600160401b03808216938354918216906002613ad98b613a42565b9a019088821161116b57506003613af09116613a42565b948181108015613c30575b15613b8157505050505050548184168092858360c81c161614613b5a57505050505050505b60405162461bcd60e51b815260206004820152601260248201527163616e74206d6f766520746869732077617960701b6044820152606490fd5b8593600f9160cc1c161614613b70575b50505090565b613b7992613cbe565b388181613b6a565b90919395509791939711600014613bb357505050548184168092858360c81c161614613b5a5750505050505050613b20565b8481979594939716918285838a60c81c161614908115613c1d575b50613be25750505050505050505050613b20565b889687871115613c065750505082600f915460cc1c1616911614613b705750505090565b60cc1c16600f16149250613b709150505750505090565b60c81c8616851686861614905038613bce565b508115613afb565b60018703613c4f57505091613a9e613aa393613a2a565b909360028703613c67575050612ed6613aa393613a2a565b9150925084600314600014613c8257613a9e613aa393613a10565b60405162461bcd60e51b815260206004820152601460248201527334b6b837b9b9b4b13632903234b932b1ba34b7b760611b6044820152606490fd5b9181818111613e2e575b50600091838352602090600b82526040948585208286528352858520848652835260ff868620541615613cfe575b505050505050565b600780548751635986e3e560e11b81526004810184905260248101929092526001600160a01b0316908481604481855afa908115613e24578791613df7575b5015613dca57803b15611b2c57858091606489518094819363c9b902e360e01b835287600484015260076024840152600160448401525af18015613dc057613dad575b508452600b825284842090845281528383209183525220805460ff19166001179055388080808080613cf6565b613db990959195611ce8565b9338613d80565b87513d88823e3d90fd5b865162461bcd60e51b81526004810185905260066024820152656e6f206b657960d01b6044820152606490fd5b90508481813d8311613e1d575b613e0e8183611d62565b81010312611282575138613d3d565b503d613e04565b88513d89823e3d90fd5b91509038613cc8565b6001600160401b039081811660070b92828260401c1660070b928260801c1660070b9160ff1c90565b90916001600160401b039067ffffffffffffffff60801b608082901b16908216808204600160801b14901517156116b557600160ff1b9081019081106116b55767ffffffffffffffff60401b8285169460401b1693808504600160401b14901517156116b55761303493613ed391611dba565b911690611dba565b91909260ff6001911603613f6157600f90613f59575b60ff60646040516020810190858252866040820152600360f91b606082015260418152613f1d81611d47565b51902006911611613f2f575050600090565b613f54916040519160208301526040820152600760f81b606082015260418152611d47565b600190565b506019613ef1565b505050600090565b600160ff1b8103613f7a5750600090565b613f85601991614129565b04600101806001116116b55790565b90613f9e91614169565b6001600160ff1b03811681036116b55760059060011b0480156000146130345750600190565b60070b6003190190677fffffffffffffff198212677fffffffffffffff8313176116b557565b60070b60000390677fffffffffffffff198212677fffffffffffffff8313176116b557565b60070b90677fffffffffffffff198212677fffffffffffffff8313176116b557565b600791820b910b0390677fffffffffffffff198212677fffffffffffffff8313176116b557565b600160ff1b81146116b55760000390565b90600160401b600083820393128184128116918413901516176116b557565b61409461409d91613e37565b50509190613fea565b60070b9060008212614114575b6140b390613fea565b60070b60008112614106575b6780000000000000008083136140f6575b81136140e8575b808213156140e3575090565b905090565b6140f190614069565b6140d7565b9161410090614069565b916140d0565b61410f90614058565b6140bf565b906141216140b391614058565b9190506140aa565b61413561413e91613e37565b5050919061400f565b60070b9060008212614154575b6140b39061400f565b906141616140b391614058565b91905061414b565b9061418b61417961418393613e37565b5050939092613e37565b505092614031565b60070b90600082126141a2575b6140b39192614031565b6141ae6140b392614058565b9150614198565b60070b677fffffffffffffff1981146116b55760000390565b6141d790613e37565b50819050826000600782900b12614232575b5060008160070b12614222575b508060070b8260070b1360001461421457506001600160401b031690565b90506001600160401b031690565b61422c91506141b5565b386141f6565b61423d9193506141b5565b91386141e9565b60070b60040190677fffffffffffffff8213677fffffffffffffff198312176116b557565b9060070b9060070b0190677fffffffffffffff198212677fffffffffffffff8313176116b557565b61429d61303491613e37565b509160079190600081840b126142fa576142b8600991614244565b830b05915b600082820b126142db576142d2600992614244565b900b0590613e60565b6009906142f26142ed612ed6946141b5565b614244565b900b056141b5565b600961430b6142ed614313936141b5565b840b056141b5565b916142bd565b60099060070b02908160070b9182036116b55756fea2646970667358221220d50836293d0760e61046f7b23f7b9f402f72ab0ec6e4df3aab0ca6b64459086264736f6c63430008140033",
  "devdoc": {
    "kind": "dev",
    "methods": {},
    "version": 1
  },
  "userdoc": {
    "kind": "user",
    "methods": {},
    "version": 1
  },
  "storageLayout": {
    "storage": [
      {
        "astId": 3084,
        "contract": "src/dungeon/DungeonMovementFacet.sol:DungeonMovementFacet",
        "label": "_characters",
        "offset": 0,
        "slot": "0",
        "type": "t_mapping(t_uint256,t_struct(Character)3066_storage)"
      },
      {
        "astId": 3089,
        "contract": "src/dungeon/DungeonMovementFacet.sol:DungeonMovementFacet",
        "label": "_rooms",
        "offset": 0,
        "slot": "1",
        "type": "t_mapping(t_uint256,t_struct(Room)3049_storage)"
      },
      {
        "astId": 3094,
        "contract": "src/dungeon/DungeonMovementFacet.sol:DungeonMovementFacet",
        "label": "_areas",
        "offset": 0,
        "slot": "2",
        "type": "t_mapping(t_uint256,t_struct(Area)3079_storage)"
      },
      {
        "astId": 3102,
        "contract": "src/dungeon/DungeonMovementFacet.sol:DungeonMovementFacet",
        "label": "_areaCounter",
        "offset": 0,
        "slot": "3",
        "type": "t_struct(AreaCounter)3099_storage"
      },
      {
        "astId": 3104,
        "contract": "src/dungeon/DungeonMovementFacet.sol:DungeonMovementFacet",
        "label": "_adminContract",
        "offset": 0,
        "slot": "4",
        "type": "t_address"
      },
      {
        "astId": 3107,
        "contract": "src/dungeon/DungeonMovementFacet.sol:DungeonMovementFacet",
        "label": "_blockHashRegister",
        "offset": 0,
        "slot": "5",
        "type": "t_contract(BlockHashRegister)13556"
      },
      {
        "astId": 3110,
        "contract": "src/dungeon/DungeonMovementFacet.sol:DungeonMovementFacet",
        "label": "_charactersContract",
        "offset": 0,
        "slot": "6",
        "type": "t_contract(Characters)464"
      },
      {
        "astId": 3113,
        "contract": "src/dungeon/DungeonMovementFacet.sol:DungeonMovementFacet",
        "label": "_elementsContract",
        "offset": 0,
        "slot": "7",
        "type": "t_contract(Elements)13239"
      },
      {
        "astId": 3116,
        "contract": "src/dungeon/DungeonMovementFacet.sol:DungeonMovementFacet",
        "label": "_gearsContract",
        "offset": 0,
        "slot": "8",
        "type": "t_contract(Gears)13258"
      },
      {
        "astId": 3119,
        "contract": "src/dungeon/DungeonMovementFacet.sol:DungeonMovementFacet",
        "label": "_roomsContract",
        "offset": 0,
        "slot": "9",
        "type": "t_contract(Rooms)13325"
      },
      {
        "astId": 3122,
        "contract": "src/dungeon/DungeonMovementFacet.sol:DungeonMovementFacet",
        "label": "_playerContract",
        "offset": 0,
        "slot": "10",
        "type": "t_contract(Player)11097"
      },
      {
        "astId": 3130,
        "contract": "src/dungeon/DungeonMovementFacet.sol:DungeonMovementFacet",
        "label": "_unlockedExits",
        "offset": 0,
        "slot": "11",
        "type": "t_mapping(t_uint256,t_mapping(t_uint256,t_mapping(t_uint256,t_bool)))"
      },
      {
        "astId": 3142,
        "contract": "src/dungeon/DungeonMovementFacet.sol:DungeonMovementFacet",
        "label": "_quests",
        "offset": 0,
        "slot": "12",
        "type": "t_mapping(t_uint256,t_mapping(t_uint64,t_struct(Quest)3135_storage))"
      },
      {
        "astId": 3146,
        "contract": "src/dungeon/DungeonMovementFacet.sol:DungeonMovementFacet",
        "label": "_taxDueDate",
        "offset": 0,
        "slot": "13",
        "type": "t_mapping(t_address,t_uint256)"
      },
      {
        "astId": 3150,
        "contract": "src/dungeon/DungeonMovementFacet.sol:DungeonMovementFacet",
        "label": "_customRoomNames",
        "offset": 0,
        "slot": "14",
        "type": "t_mapping(t_uint256,t_string_storage)"
      }
    ],
    "types": {
      "t_address": {
        "encoding": "inplace",
        "label": "address",
        "numberOfBytes": "20"
      },
      "t_bool": {
        "encoding": "inplace",
        "label": "bool",
        "numberOfBytes": "1"
      },
      "t_contract(BlockHashRegister)13556": {
        "encoding": "inplace",
        "label": "contract BlockHashRegister",
        "numberOfBytes": "20"
      },
      "t_contract(Characters)464": {
        "encoding": "inplace",
        "label": "contract Characters",
        "numberOfBytes": "20"
      },
      "t_contract(Elements)13239": {
        "encoding": "inplace",
        "label": "contract Elements",
        "numberOfBytes": "20"
      },
      "t_contract(Gears)13258": {
        "encoding": "inplace",
        "label": "contract Gears",
        "numberOfBytes": "20"
      },
      "t_contract(Player)11097": {
        "encoding": "inplace",
        "label": "contract Player",
        "numberOfBytes": "20"
      },
      "t_contract(Rooms)13325": {
        "encoding": "inplace",
        "label": "contract Rooms",
        "numberOfBytes": "20"
      },
      "t_int64": {
        "encoding": "inplace",
        "label": "int64",
        "numberOfBytes": "8"
      },
      "t_mapping(t_address,t_uint256)": {
        "encoding": "mapping",
        "key": "t_address",
        "label": "mapping(address => uint256)",
        "numberOfBytes": "32",
        "value": "t_uint256"
      },
      "t_mapping(t_uint256,t_bool)": {
        "encoding": "mapping",
        "key": "t_uint256",
        "label": "mapping(uint256 => bool)",
        "numberOfBytes": "32",
        "value": "t_bool"
      },
      "t_mapping(t_uint256,t_mapping(t_uint256,t_bool))": {
        "encoding": "mapping",
        "key": "t_uint256",
        "label": "mapping(uint256 => mapping(uint256 => bool))",
        "numberOfBytes": "32",
        "value": "t_mapping(t_uint256,t_bool)"
      },
      "t_mapping(t_uint256,t_mapping(t_uint256,t_mapping(t_uint256,t_bool)))": {
        "encoding": "mapping",
        "key": "t_uint256",
        "label": "mapping(uint256 => mapping(uint256 => mapping(uint256 => bool)))",
        "numberOfBytes": "32",
        "value": "t_mapping(t_uint256,t_mapping(t_uint256,t_bool))"
      },
      "t_mapping(t_uint256,t_mapping(t_uint64,t_struct(Quest)3135_storage))": {
        "encoding": "mapping",
        "key": "t_uint256",
        "label": "mapping(uint256 => mapping(uint64 => struct DungeonDataLayout.Quest))",
        "numberOfBytes": "32",
        "value": "t_mapping(t_uint64,t_struct(Quest)3135_storage)"
      },
      "t_mapping(t_uint256,t_string_storage)": {
        "encoding": "mapping",
        "key": "t_uint256",
        "label": "mapping(uint256 => string)",
        "numberOfBytes": "32",
        "value": "t_string_storage"
      },
      "t_mapping(t_uint256,t_struct(Area)3079_storage)": {
        "encoding": "mapping",
        "key": "t_uint256",
        "label": "mapping(uint256 => struct DungeonDataLayout.Area)",
        "numberOfBytes": "32",
        "value": "t_struct(Area)3079_storage"
      },
      "t_mapping(t_uint256,t_struct(Character)3066_storage)": {
        "encoding": "mapping",
        "key": "t_uint256",
        "label": "mapping(uint256 => struct DungeonDataLayout.Character)",
        "numberOfBytes": "32",
        "value": "t_struct(Character)3066_storage"
      },
      "t_mapping(t_uint256,t_struct(Room)3049_storage)": {
        "encoding": "mapping",
        "key": "t_uint256",
        "label": "mapping(uint256 => struct DungeonDataLayout.Room)",
        "numberOfBytes": "32",
        "value": "t_struct(Room)3049_storage"
      },
      "t_mapping(t_uint64,t_struct(Quest)3135_storage)": {
        "encoding": "mapping",
        "key": "t_uint64",
        "label": "mapping(uint64 => struct DungeonDataLayout.Quest)",
        "numberOfBytes": "32",
        "value": "t_struct(Quest)3135_storage"
      },
      "t_string_storage": {
        "encoding": "bytes",
        "label": "string",
        "numberOfBytes": "32"
      },
      "t_struct(Area)3079_storage": {
        "encoding": "inplace",
        "label": "struct DungeonDataLayout.Area",
        "members": [
          {
            "astId": 3068,
            "contract": "src/dungeon/DungeonMovementFacet.sol:DungeonMovementFacet",
            "label": "areaType",
            "offset": 0,
            "slot": "0",
            "type": "t_uint8"
          },
          {
            "astId": 3070,
            "contract": "src/dungeon/DungeonMovementFacet.sol:DungeonMovementFacet",
            "label": "discovered",
            "offset": 1,
            "slot": "0",
            "type": "t_uint8"
          },
          {
            "astId": 3072,
            "contract": "src/dungeon/DungeonMovementFacet.sol:DungeonMovementFacet",
            "label": "lastRoomIndex",
            "offset": 2,
            "slot": "0",
            "type": "t_uint8"
          },
          {
            "astId": 3074,
            "contract": "src/dungeon/DungeonMovementFacet.sol:DungeonMovementFacet",
            "label": "currentIndex",
            "offset": 3,
            "slot": "0",
            "type": "t_uint8"
          },
          {
            "astId": 3076,
            "contract": "src/dungeon/DungeonMovementFacet.sol:DungeonMovementFacet",
            "label": "lastRoom",
            "offset": 0,
            "slot": "1",
            "type": "t_uint256"
          },
          {
            "astId": 3078,
            "contract": "src/dungeon/DungeonMovementFacet.sol:DungeonMovementFacet",
            "label": "eventBlockNumber",
            "offset": 0,
            "slot": "2",
            "type": "t_uint64"
          }
        ],
        "numberOfBytes": "96"
      },
      "t_struct(AreaCounter)3099_storage": {
        "encoding": "inplace",
        "label": "struct DungeonDataLayout.AreaCounter",
        "members": [
          {
            "astId": 3096,
            "contract": "src/dungeon/DungeonMovementFacet.sol:DungeonMovementFacet",
            "label": "lastPeriod",
            "offset": 0,
            "slot": "0",
            "type": "t_uint64"
          },
          {
            "astId": 3098,
            "contract": "src/dungeon/DungeonMovementFacet.sol:DungeonMovementFacet",
            "label": "numAreas",
            "offset": 8,
            "slot": "0",
            "type": "t_uint64"
          }
        ],
        "numberOfBytes": "32"
      },
      "t_struct(Character)3066_storage": {
        "encoding": "inplace",
        "label": "struct DungeonDataLayout.Character",
        "members": [
          {
            "astId": 3051,
            "contract": "src/dungeon/DungeonMovementFacet.sol:DungeonMovementFacet",
            "label": "location",
            "offset": 0,
            "slot": "0",
            "type": "t_uint256"
          },
          {
            "astId": 3053,
            "contract": "src/dungeon/DungeonMovementFacet.sol:DungeonMovementFacet",
            "label": "direction",
            "offset": 0,
            "slot": "1",
            "type": "t_uint8"
          },
          {
            "astId": 3055,
            "contract": "src/dungeon/DungeonMovementFacet.sol:DungeonMovementFacet",
            "label": "floors",
            "offset": 1,
            "slot": "1",
            "type": "t_int64"
          },
          {
            "astId": 3057,
            "contract": "src/dungeon/DungeonMovementFacet.sol:DungeonMovementFacet",
            "label": "slot_1",
            "offset": 0,
            "slot": "2",
            "type": "t_uint256"
          },
          {
            "astId": 3059,
            "contract": "src/dungeon/DungeonMovementFacet.sol:DungeonMovementFacet",
            "label": "slot_2",
            "offset": 0,
            "slot": "3",
            "type": "t_uint256"
          },
          {
            "astId": 3061,
            "contract": "src/dungeon/DungeonMovementFacet.sol:DungeonMovementFacet",
            "label": "slot_3",
            "offset": 0,
            "slot": "4",
            "type": "t_uint256"
          },
          {
            "astId": 3063,
            "contract": "src/dungeon/DungeonMovementFacet.sol:DungeonMovementFacet",
            "label": "slot_4",
            "offset": 0,
            "slot": "5",
            "type": "t_uint256"
          },
          {
            "astId": 3065,
            "contract": "src/dungeon/DungeonMovementFacet.sol:DungeonMovementFacet",
            "label": "slot_5",
            "offset": 0,
            "slot": "6",
            "type": "t_uint256"
          }
        ],
        "numberOfBytes": "224"
      },
      "t_struct(Quest)3135_storage": {
        "encoding": "inplace",
        "label": "struct DungeonDataLayout.Quest",
        "members": [
          {
            "astId": 3132,
            "contract": "src/dungeon/DungeonMovementFacet.sol:DungeonMovementFacet",
            "label": "status",
            "offset": 0,
            "slot": "0",
            "type": "t_uint8"
          },
          {
            "astId": 3134,
            "contract": "src/dungeon/DungeonMovementFacet.sol:DungeonMovementFacet",
            "label": "data",
            "offset": 0,
            "slot": "1",
            "type": "t_string_storage"
          }
        ],
        "numberOfBytes": "64"
      },
      "t_struct(Room)3049_storage": {
        "encoding": "inplace",
        "label": "struct DungeonDataLayout.Room",
        "members": [
          {
            "astId": 3028,
            "contract": "src/dungeon/DungeonMovementFacet.sol:DungeonMovementFacet",
            "label": "blockNumber",
            "offset": 0,
            "slot": "0",
            "type": "t_uint64"
          },
          {
            "astId": 3030,
            "contract": "src/dungeon/DungeonMovementFacet.sol:DungeonMovementFacet",
            "label": "monsterBlockNumber",
            "offset": 8,
            "slot": "0",
            "type": "t_uint64"
          },
          {
            "astId": 3032,
            "contract": "src/dungeon/DungeonMovementFacet.sol:DungeonMovementFacet",
            "label": "numActiveCharacters",
            "offset": 16,
            "slot": "0",
            "type": "t_uint64"
          },
          {
            "astId": 3034,
            "contract": "src/dungeon/DungeonMovementFacet.sol:DungeonMovementFacet",
            "label": "direction",
            "offset": 24,
            "slot": "0",
            "type": "t_uint8"
          },
          {
            "astId": 3036,
            "contract": "src/dungeon/DungeonMovementFacet.sol:DungeonMovementFacet",
            "label": "exits",
            "offset": 25,
            "slot": "0",
            "type": "t_uint8"
          },
          {
            "astId": 3038,
            "contract": "src/dungeon/DungeonMovementFacet.sol:DungeonMovementFacet",
            "label": "kind",
            "offset": 26,
            "slot": "0",
            "type": "t_uint8"
          },
          {
            "astId": 3040,
            "contract": "src/dungeon/DungeonMovementFacet.sol:DungeonMovementFacet",
            "label": "areaAtDiscovery",
            "offset": 27,
            "slot": "0",
            "type": "t_uint8"
          },
          {
            "astId": 3042,
            "contract": "src/dungeon/DungeonMovementFacet.sol:DungeonMovementFacet",
            "label": "lastRoomIndex",
            "offset": 28,
            "slot": "0",
            "type": "t_uint8"
          },
          {
            "astId": 3044,
            "contract": "src/dungeon/DungeonMovementFacet.sol:DungeonMovementFacet",
            "label": "index",
            "offset": 29,
            "slot": "0",
            "type": "t_uint8"
          },
          {
            "astId": 3046,
            "contract": "src/dungeon/DungeonMovementFacet.sol:DungeonMovementFacet",
            "label": "discoverer",
            "offset": 0,
            "slot": "1",
            "type": "t_uint256"
          },
          {
            "astId": 3048,
            "contract": "src/dungeon/DungeonMovementFacet.sol:DungeonMovementFacet",
            "label": "randomEvent",
            "offset": 0,
            "slot": "2",
            "type": "t_uint64"
          }
        ],
        "numberOfBytes": "96"
      },
      "t_uint256": {
        "encoding": "inplace",
        "label": "uint256",
        "numberOfBytes": "32"
      },
      "t_uint64": {
        "encoding": "inplace",
        "label": "uint64",
        "numberOfBytes": "8"
      },
      "t_uint8": {
        "encoding": "inplace",
        "label": "uint8",
        "numberOfBytes": "1"
      }
    }
  }
}