{
  "address": "0x1a11B79cE7AfE3D2Fb33049FeE4a63e77bD9Ad8C",
  "abi": [
    {
      "anonymous": false,
      "inputs": [
        {
          "indexed": true,
          "internalType": "uint256",
          "name": "characterId",
          "type": "uint256"
        },
        {
          "indexed": true,
          "internalType": "uint256",
          "name": "oldLocation",
          "type": "uint256"
        },
        {
          "indexed": true,
          "internalType": "uint256",
          "name": "newLocation",
          "type": "uint256"
        },
        {
          "indexed": false,
          "internalType": "uint8",
          "name": "mode",
          "type": "uint8"
        },
        {
          "indexed": false,
          "internalType": "uint256",
          "name": "path",
          "type": "uint256"
        }
      ],
      "name": "CharacterMoved",
      "type": "event"
    },
    {
      "anonymous": false,
      "inputs": [
        {
          "indexed": true,
          "internalType": "uint256",
          "name": "characterId",
          "type": "uint256"
        },
        {
          "indexed": false,
          "internalType": "uint256",
          "name": "monsterId",
          "type": "uint256"
        }
      ],
      "name": "Death",
      "type": "event"
    },
    {
      "anonymous": false,
      "inputs": [
        {
          "indexed": true,
          "internalType": "uint256",
          "name": "characterId",
          "type": "uint256"
        },
        {
          "indexed": true,
          "internalType": "address",
          "name": "player",
          "type": "address"
        },
        {
          "indexed": false,
          "internalType": "string",
          "name": "name",
          "type": "string"
        }
      ],
      "name": "Enter",
      "type": "event"
    },
    {
      "anonymous": false,
      "inputs": [
        {
          "indexed": false,
          "internalType": "uint256",
          "name": "characterId",
          "type": "uint256"
        },
        {
          "indexed": false,
          "internalType": "uint256",
          "name": "gearId",
          "type": "uint256"
        },
        {
          "indexed": false,
          "internalType": "uint8",
          "name": "slotType",
          "type": "uint8"
        }
      ],
      "name": "Equip",
      "type": "event"
    },
    {
      "anonymous": false,
      "inputs": [
        {
          "indexed": true,
          "internalType": "uint256",
          "name": "characterId",
          "type": "uint256"
        },
        {
          "indexed": false,
          "internalType": "uint16",
          "name": "hp",
          "type": "uint16"
        }
      ],
      "name": "Heal",
      "type": "event"
    },
    {
      "anonymous": false,
      "inputs": [
        {
          "indexed": true,
          "internalType": "uint256",
          "name": "characterId",
          "type": "uint256"
        },
        {
          "indexed": false,
          "internalType": "uint16",
          "name": "newLevel",
          "type": "uint16"
        }
      ],
      "name": "LevelUp",
      "type": "event"
    },
    {
      "anonymous": false,
      "inputs": [
        {
          "indexed": true,
          "internalType": "uint256",
          "name": "characterId",
          "type": "uint256"
        },
        {
          "indexed": true,
          "internalType": "uint64",
          "name": "id",
          "type": "uint64"
        },
        {
          "indexed": true,
          "internalType": "uint8",
          "name": "status",
          "type": "uint8"
        },
        {
          "indexed": false,
          "internalType": "string",
          "name": "data",
          "type": "string"
        }
      ],
      "name": "QuestUpdate",
      "type": "event"
    },
    {
      "anonymous": false,
      "inputs": [
        {
          "indexed": true,
          "internalType": "uint256",
          "name": "areaLocation",
          "type": "uint256"
        },
        {
          "indexed": false,
          "internalType": "uint64",
          "name": "blockNumber",
          "type": "uint64"
        }
      ],
      "name": "RandomEvent",
      "type": "event"
    },
    {
      "anonymous": false,
      "inputs": [
        {
          "indexed": true,
          "internalType": "uint256",
          "name": "characterId",
          "type": "uint256"
        },
        {
          "indexed": false,
          "internalType": "uint256",
          "name": "gearId",
          "type": "uint256"
        }
      ],
      "name": "Recycle",
      "type": "event"
    },
    {
      "anonymous": false,
      "inputs": [
        {
          "indexed": true,
          "internalType": "uint256",
          "name": "deadCharacterId",
          "type": "uint256"
        },
        {
          "indexed": false,
          "internalType": "uint256",
          "name": "newCharacterId",
          "type": "uint256"
        }
      ],
      "name": "Resurrect",
      "type": "event"
    },
    {
      "anonymous": false,
      "inputs": [
        {
          "indexed": true,
          "internalType": "uint256",
          "name": "location",
          "type": "uint256"
        },
        {
          "indexed": false,
          "internalType": "bytes32",
          "name": "blockHash",
          "type": "bytes32"
        },
        {
          "indexed": false,
          "internalType": "uint8",
          "name": "exits",
          "type": "uint8"
        },
        {
          "indexed": false,
          "internalType": "uint8",
          "name": "kind",
          "type": "uint8"
        }
      ],
      "name": "RoomActualised",
      "type": "event"
    },
    {
      "anonymous": false,
      "inputs": [
        {
          "indexed": true,
          "internalType": "uint256",
          "name": "location",
          "type": "uint256"
        },
        {
          "indexed": false,
          "internalType": "uint64",
          "name": "blockNumber",
          "type": "uint64"
        },
        {
          "indexed": false,
          "internalType": "uint8",
          "name": "direction",
          "type": "uint8"
        }
      ],
      "name": "RoomDiscovered",
      "type": "event"
    },
    {
      "anonymous": false,
      "inputs": [
        {
          "indexed": true,
          "internalType": "uint256",
          "name": "location",
          "type": "uint256"
        },
        {
          "indexed": true,
          "internalType": "address",
          "name": "owner",
          "type": "address"
        },
        {
          "indexed": false,
          "internalType": "uint256",
          "name": "id",
          "type": "uint256"
        },
        {
          "indexed": false,
          "internalType": "uint256",
          "name": "amount",
          "type": "uint256"
        }
      ],
      "name": "RoomIncome",
      "type": "event"
    },
    {
      "anonymous": false,
      "inputs": [
        {
          "indexed": true,
          "internalType": "uint256",
          "name": "location",
          "type": "uint256"
        },
        {
          "indexed": false,
          "internalType": "string",
          "name": "name",
          "type": "string"
        },
        {
          "indexed": false,
          "internalType": "uint256",
          "name": "characterId",
          "type": "uint256"
        }
      ],
      "name": "RoomName",
      "type": "event"
    },
    {
      "anonymous": false,
      "inputs": [
        {
          "indexed": true,
          "internalType": "address",
          "name": "owner",
          "type": "address"
        },
        {
          "indexed": false,
          "internalType": "uint256",
          "name": "tax",
          "type": "uint256"
        },
        {
          "indexed": false,
          "internalType": "uint256",
          "name": "newDueDate",
          "type": "uint256"
        }
      ],
      "name": "RoomTaxPay",
      "type": "event"
    },
    {
      "inputs": [
        {
          "internalType": "uint256",
          "name": "characterId",
          "type": "uint256"
        },
        {
          "internalType": "uint16",
          "name": "hp",
          "type": "uint16"
        }
      ],
      "name": "heal",
      "outputs": [],
      "stateMutability": "nonpayable",
      "type": "function"
    },
    {
      "inputs": [
        {
          "internalType": "uint256",
          "name": "characterId",
          "type": "uint256"
        }
      ],
      "name": "levelUp",
      "outputs": [],
      "stateMutability": "nonpayable",
      "type": "function"
    },
    {
      "inputs": [
        {
          "internalType": "uint256",
          "name": "characterId",
          "type": "uint256"
        },
        {
          "internalType": "uint256[]",
          "name": "gearIds",
          "type": "uint256[]"
        },
        {
          "internalType": "uint8[]",
          "name": "slots",
          "type": "uint8[]"
        }
      ],
      "name": "multiEquip",
      "outputs": [],
      "stateMutability": "nonpayable",
      "type": "function"
    },
    {
      "inputs": [
        {
          "internalType": "uint256",
          "name": "characterId",
          "type": "uint256"
        }
      ],
      "name": "resurrectFrom",
      "outputs": [],
      "stateMutability": "nonpayable",
      "type": "function"
    }
  ],
  "transactionHash": "0x8fe879ebb793535b31d179e2cb17f106251e64dcb38d39873633b6a9fd0a7b40",
  "args": [],
  "numDeployments": 4,
  "linkedData": {
    "readOnlyDungeon": "0x60806040523461001a576040516128cc61002082396128cc90f35b600080fdfe6080604052600436101561001257600080fd5b60003560e01c80630ececfea14610152578063213ee1431461014d5780632f5877961461014857806330ad9329146101435780633683dee11461013e578063467b47931461013957806356b5c381146101345780637a9234741461012f5780639f7cb08e1461012a578063a48378ff14610125578063acda69ca14610120578063b0ca9dfe1461011b578063c3aab23c14610116578063d5763a8014610111578063d667fd041461010c578063ed53a62414610107578063f090aca814610102578063f6940ac7146100fd578063fcaf8951146100f85763ff5335fa0361015757610887565b61086b565b61083b565b6107d9565b6107ba565b610728565b6106bf565b61064e565b6105fc565b6105da565b61054c565b610518565b610499565b610452565b610436565b6103af565b61033b565b6102d8565b610293565b6101cb565b600080fd5b805b0361015757565b905035906101728261015c565b565b9190604083820312610157576101979061018e8185610165565b93602001610165565b90565b9052565b6001600160401b031690565b61019a9061019e565b908152604081019291610172916020905b01906101aa565b34610157576101e46101de366004610174565b90612758565b906101fa6101f160405190565b928392836101b3565b0390f35b60ff811661015e565b90503590610172826101fe565b909160c0828403126101575761022a8383610165565b926102388160208501610165565b926102468260408301610207565b926101976102578460608501610207565b936102658160808601610207565b9360a001610207565b60ff918216815291166020820152606081019291610172916040905b019060ff169052565b34610157576101fa6102b56102a9366004610214565b94939093929192611472565b6040519193919384938461026e565b906020828203126101575761019791610165565b34610157576101fa6102f36102ee3660046102c4565b610c64565b6040519182918290815260200190565b6101c461017294610331606094989795610327608086019a600087019060070b9052565b60070b6020850152565b60070b6040830152565b34610157576101fa6103566103513660046102c4565b610996565b9061036394929460405190565b94859485610303565b9091606082840312610157576101976103858484610165565b936103938160208601610165565b93604001610207565b9081526040810192916101729160200152565b34610157576103c86103c236600461036c565b916110f9565b906101fa6103d560405190565b9283928361039c565b909182601f83011215610157578135916001600160401b03831161015757602001926020830284011161015757565b906020828203126101575781356001600160401b0381116101575761043292016103de565b9091565b34610157576101fa6102f361044c36600461040d565b906126a2565b34610157576101fa6102f3610468366004610174565b9061286f565b61ffff811661015e565b905035906101728261046e565b906020828203126101575761019791610478565b34610157576101fa6102f36104af366004610485565b61263d565b919461050161050c929897956104f660a0966104ec6101729a6104e260c08a019e60008b019061ffff169052565b60ff166020890152565b60ff166040870152565b61ffff166060850152565b61ffff166080830152565b019063ffffffff169052565b34610157576101fa61053361052e3660046102c4565b6122c1565b9261054396949692919260405190565b968796876104b4565b34610157576101fa6102f36105623660046102c4565b611415565b63ffffffff811661015e565b9050359061017282610567565b909160c082840312610157576105968383610478565b926105a48160208501610207565b926105b28260408301610207565b926101976105c38460608501610478565b936105d18160808601610478565b9360a001610573565b34610157576101fa6102f36105f0366004610580565b949390939291926121ed565b34610157576101fa6102f3610612366004610174565b9061274e565b906020828203126101575761019791610207565b61ffff909116815260608101939261017292909160409161028a906020830152565b34610157576101fa610669610664366004610618565b612379565b6040519193919384938461062c565b61015e8160070b90565b9050359061017282610678565b9091606082840312610157576101976106a88484610682565b936106b68160208601610682565b93604001610682565b34610157576101fa6102f36106d536600461068f565b916108a2565b909594926101729461071b61028a9261071060809661070560a088019c600089019061ffff169052565b61ffff166020870152565b61ffff166040850152565b63ffffffff166060830152565b34610157576101fa61074361073e3660046102c4565b612100565b9161075095939560405190565b958695866106db565b80151561015e565b9050359061017282610759565b919060a083820312610157576107848184610165565b926107928260208301610165565b926101976107a38460408501610165565b936107b18160608601610761565b93608001610207565b34610157576101fa6102f36107d036600461076e565b93929092610a66565b34610157576101fa6102f36107ef366004610174565b906125ef565b61015e8161019e565b90503590610172826107f5565b9091606082840312610157576101976108248484610165565b936108328160208601610165565b936040016107fe565b34610157576101fa61085761085136600461080b565b91610db0565b6040519182918260ff909116815260200190565b34610157576101fa61085761088136600461036c565b916120f5565b34610157576101fa6102f361089d3660046102c4565b61264a565b610197929190610919565b6108bd6101976101979260070b90565b61019e565b6101976101976101979261019e565b6101976101976101979290565b634e487b7160e01b600052601160045260246000fd5b8181029291811591840414171561090757565b6108de565b9190820180921161090757565b9061095461099061098a9261098a61097d6109546109776101979961093c600090565b5061097261096c610959610954600160ff1b946108ad565b6108c2565b610966600160801b6108d1565b906108f4565b916108d1565b61090c565b936108ad565b610966600160401b6108d1565b9061090c565b926108ad565b6109a39060005b506109fd565b929391929091565b6108bd6101976101979290565b6109c76101976101979261019e565b60070b90565b634e487b7160e01b600052601260045260246000fd5b906109ed565b9190565b9081156109f8570490565b6109cd565b90610a0f610a0a836109ab565b6109b8565b91610a31610a0a610a2c610a26600160401b6108d1565b846109e3565b6109ab565b91610197610a2c610a52610a0a82610a4c600160801b6108d1565b876109e3565b93610a60600160ff1b6108d1565b906109e3565b6101979493929190610b4a565b610a806101976101979290565b60ff1690565b6101976001610a73565b610197600f610a73565b610aa99060ff165b9160ff1690565b019060ff821161090757565b61019a9060ff1660f81b90565b60019392610adf602083610ad98295610ae7979052565b01918252565b018092610ab5565b0190565b634e487b7160e01b600052604160045260246000fd5b90601f01601f191681019081106001600160401b03821117610b2257604052565b610aeb565b610197906108d1565b81156109f8570690565b6101976101976101979260ff1690565b929093610b55600090565b50610b64610aa2610a80610a86565b03610c5657610b71610a90565b8091610c3b575b50610be76109e9610be1610bd1610b8f6006610a73565b610bb9610b9b60405190565b8092610bad60208301918d8d84610ac2565b90810382520382610b01565b610bcb610bc4825190565b9160200190565b20610b27565b610bdb60646108d1565b90610b30565b92610b3a565b10610bf95750505061019760006108d1565b610c2c610c3192610bb961019795610c116007610a73565b92610bad610c1e60405190565b948593602085019384610ac2565b610b30565b61098a60016108d1565b610c509150610c4a600a610a73565b90610a9a565b38610b78565b5050505061019760006108d1565b61019790610ceb565b6109c76101976101979290565b60070b60016001603f1b031981146109075760000390565b610ca19060070b5b9160070b90565b019060016001603f1b03821360016001603f1b031983121761090757565b610ccb9060070b610c9a565b9081156109f85760016001603f1b03198114600019831416610907570590565b610d5161019791610d03610cfd600090565b916109fd565b50939091600090610d1382610c6d565b610d1d8260070b90565b12610d9857610d39610d4991610d336004610c6d565b90610c92565b610d436009610c6d565b90610cbf565b935b50610c6d565b610d5b8260070b90565b12610d7757610d39610d7191610d336004610c6d565b90610919565b610d93610d39610d89610d7193610c7a565b610d336004610c6d565b610c7a565b610d93610d39610d89610daa93610c7a565b93610d4b565b610197929190610e7d565b610197600a610a73565b6108bd6101976101979260ff1690565b610de1610de79161019e565b9161019e565b0290610df28261019e565b91820361090757565b9190820391821161090757565b6101976019610a73565b610e1f6101976101979290565b61ffff1690565b6101976064610e12565b610e1f6101976101979260ff1690565b610e4c9060070b610c9a565b9081156109f8570790565b610e676101976101979260070b90565b60000b90565b610a806101976101979260000b90565b91610e8783611070565b908115610fb9575b5015610ea15750506101976006610a73565b610ec0610954610eb084610fd6565b610eba60096109ab565b90610dd5565b610eca60006108d1565b8111610fa0575b610ee46109e9610edf610e08565b610b3a565b10610f9457610f27610f1c610bad610bb9610f2c94610f03600c610a73565b90610f0d60405190565b93849260208401928a84610ac2565b610bdb6127106108d1565b610a73565b610f40610f3a610e1f610e26565b91610e30565b11610f8957610f51610197916109fd565b50915050610f84610f7e610f79610f74600194610f6e6005610c6d565b90610e40565b610e57565b610e6d565b91610a73565b610a9a565b506101976006610a73565b50506101976006610a73565b610fb490610fae60046108d1565b90610dfb565b610ed1565b9050610fce610de1610fc9610dbb565b610dc5565b101538610e8f565b610fe190600061099d565b50819050600083610ff182610c6d565b610ffb8260070b90565b1261105a575b5061100b90610c6d565b6110158260070b90565b1261104a575b506110268160070b90565b6110308360070b90565b13156110405750610197906108ad565b61019791506108ad565b6110549150610c7a565b3861101b565b61100b91945061106990610c7a565b9390611001565b61107b90600061099d565b50506000199161108a83610c6d565b6110948260070b90565b121592836110db575b50826110c2575b50816110ae575090565b90506110bd610c9a6001610c6d565b131590565b9091506110d2610c9a6001610c6d565b131590386110a4565b6110e6919350610c6d565b6110f08260070b90565b1215913861109d565b610432929190611118565b6101976002610a73565b6101976004610a73565b9092909161112660006108d1565b9361113f6111348686611317565b610a60610edf610e08565b85811461129f575b60029061118f61115f611159846108d1565b836109e3565b61098a83610c2c610bad610bb96111766064610a73565b8d61118060405190565b9384928d602085019384610ac2565b9587871461128d575b6111a0611104565b6111ac60ff8716610aa2565b14611265575b9161098a916111f3949360086111c7816108d1565b8311611245575b50610bb96111e86111e2610c2c94956108d1565b856109e3565b95610c116065610a73565b938414611233575b611210610aa2611209610a86565b9260ff1690565b1461121757565b916112309061098a61122a610edf61110e565b826109e3565b91565b925061123f60016108d1565b926111fb565b610c2c92506111e86111e261125c610bb9936108d1565b945050506111ce565b959161098a916112816111f3959461098a61122a610edf61110e565b979193945091506111b2565b955061129960016108d1565b95611198565b506112aa60016108d1565b611147565b6112bb9060070b610c9a565b90039060016001603f1b0319821260016001603f1b0383131761090757565b6101976101976101979260070b90565b600160ff1b81146109075760000390565b9190808303926000909112801582851316918412161761090757565b61134361133e61132c6113369361099d600090565b50509390946109fd565b5050946112af565b6112da565b91600091611350836108d1565b84126113f6575b61133e6113679261096c926112af565b81126113e8575b6001603f1b61137c816108d1565b83136113ca575b61138c906108d1565b81136113af575b808213156113a55750610197906108d1565b61019791506108d1565b6113c5906113c0600160401b6108d1565b6112fb565b611393565b9161138c906113e0906113c0600160401b6108d1565b929050611383565b6113f1906112ea565b61136e565b9261133e6113679261140a61096c936112ea565b959250925050611357565b6101979061142b565b610197600160ff1b6108d1565b61143661019761141e565b8103611447575061019760006108d1565b61145e6101979161145860006108d1565b90611317565b61097261096c600192610a60610edf610e08565b611480959493929190611487565b9192909190565b959492906114a3610432959361149b600090565b508289611af3565b966114ce565b6101976005610a73565b6101976003610a73565b60ff1660ff81146109075760010190565b949360006114e66114de88610ceb565b9594976109fd565b5050600093916114f8610c9a86610c6d565b1490816119b0575b501561152357505050505050611514611104565b9161151f6001610a73565b1790565b95909691929394965b60ff87165b60ff8716116119a657506115456003610a73565b611590610f2761158687610bb98a8d610bad8861156160405190565b95869460208601948592610adf6001610ae794610ad9602088610adf859b9a83999052565b610bdb60146108d1565b906115b261159e6001610a73565b85166115ad610aa26001610a73565b141590565b90818061197d575b156115eb575050506115316115e26115d0611104565b936115db6001610a73565b17966114bd565b9592905061152c565b6116076115f86002610a73565b86166115ad610aa26002610a73565b91828061192f575b1561163157505050506115316115e26116266114b3565b936115db6002610a73565b61164d61163e6004610a73565b87166115ad610aa26004610a73565b91828061188c575b156116785750505050506115316115e261166d61110e565b936115db6004610a73565b6116946116856008610a73565b88166115ad610aa26008610a73565b94856116d7575b50505050506000146116c0576115316115e26116b56114a9565b936115db6008610a73565b6115316115e26116d1969396610a86565b936114bd565b6116e691929394955060ff1690565b14928315611875575b8315611851575b831561182d575b8315611809575b83156117d8575b83156117a7575b8315611776575b831561172d575b505050388080808061169b565b9091925061173b604d610a73565b60ff891614928361176e575b5082611766575b508161175e575b50388080611720565b905038611755565b91503861174e565b925038611747565b9250611782604e610a73565b60ff891614806117a0575b80611799575b92611719565b5082611793565b508161178d565b92506117b3604e610a73565b60ff891614806117d1575b806117ca575b92611712565b50816117c4565b50806117be565b92506117e4604e610a73565b60ff89161480611802575b806117fb575b9261170b565b50826117f5565b50806117ef565b9250611815604f610a73565b60ff89161480611826575b92611704565b5081611820565b9250611839604f610a73565b60ff8916148061184a575b926116fd565b5082611844565b925061185d604f610a73565b60ff8916148061186e575b926116f6565b5080611868565b92506118816050610a73565b60ff891614926116ef565b506118976002610a73565b60ff861614801561191a575b80156118fd575b80156118e0575b8061165557506118c1604e610a73565b60ff8b1614806118d9575b8015611655575083611655565b50816118cc565b506118eb604f610a73565b60ff8b161480156118b15750836118b1565b50611908604f610a73565b60ff8b161480156118aa5750816118aa565b506119256050610a73565b60ff8b16146118a3565b5061193a6001610a73565b60ff8516148015611968575b8061160f5750611956604f610a73565b60ff8a1614801561160f57508061160f565b506119736050610a73565b60ff8a1614611946565b5061198786610a73565b60ff841614806115ba575061199c6050610a73565b60ff8916146115ba565b9650935093505050565b90506119be610c9a85610c6d565b1438611500565b6101976057610a73565b939190925b600182116119e0575050565b90919280820481116109075760018316611a02575b8002929160011c906119d4565b938402936119f5565b9291928115611a8e578015611a86578080600114611a7d57600214611a685760208210610133821016604e8310600b83101617611a5e5792611a519181939460016119cf565b8092048111610907570290565b0a91821161090757565b5060ff81116109075760020a91821161090757565b50600193505050565b506000925050565b506001925050565b61019791611aa9610aa260ff9360ff1690565b90611a0b565b6101976028610a73565b6101976000610a73565b611acf9060ff16610aa2565b90039060ff821161090757565b611ae89060ff16610aa2565b029060ff8216610df2565b90600092611b0084610a73565b90611b0961110e565b611b1560ff8316610aa2565b03611dcd575050611b26600f610a73565b925b611b53611b35606f610a73565b610bb9611b4160405190565b8092610bad6020830191888a84610ac2565b611b65610f27606492610bdb846108d1565b90611b82610a80611b74611aaf565b611b7d84610a73565b611ac3565b60ff83161015611d91575050611b9790610a73565b905b600491611ba583610a73565b60ff821610611bd657505061151f9150611bd1610f7e600f92611bcb610f7e6002610a73565b90611a96565b611adc565b6003611be181610a73565b60ff831603611c8c575050611c14610f27611c0b611c2e9495610bb9611c1e95610c116070610a73565b610bdb866108d1565b610c4a6001610a73565b611c286007610a73565b90611adc565b611c386015610a73565b60ff821603611c5c575061151f90611bd1610f7e600d92611bcb610f7e6002610a73565b611c69610aa2601c610a73565b14611c72575090565b61151f90611bd1610f7e600b92611bcb610f7e6002610a73565b9091600292611c9a84610a73565b60ff821603611d2c5750610f7e611c14610f27611cc7611cd1969798610bb9611c2896610c116070610a73565b610bdb60066108d1565b611cdb600f610a73565b60ff821603611cfd5750611bd1610f7e61151f93611bcb610f7e600595610a73565b611d0a610aa26012610a73565b14611d1457505090565b611bd1610f7e61151f93611bcb610f7e600a95610a73565b90929150611d3d610aa26001610a73565b14611d4a575b5050505090565b611bcb611d7a611d80611d7a610f27611d71611d8799610bb9611c2899610c116070610a73565b610bdb896108d1565b93610a73565b9283611a96565b1738808080611d43565b610aa2610a80611da692611b7d610f7e610dbb565b10159050611dbe57611db86001610a73565b90611b99565b611dc86002610a73565b611db8565b611dd89491946119c5565b90611de36001610a73565b91611e04611df060405190565b610bb98160208101610bad888b8d84610ac2565b90611e1d610aa2610a80610f27606495610bdb876108d1565b116120d3575b90849291611e2f611aaf565b611e64610aa2610a80610f27611e5b8c610bb9611e4c6002610a73565b9b8c92610bad610c1e60405190565b610bdb876108d1565b11611e73575b50505050611b28565b8690611e8198949598610e08565b87611e8c6003610a73565b91611eba610aa2610a80610f27611d71611ea560405190565b610bb9818c610bad8c8c602085019384610ac2565b1115611f735750505050611ecc611ab9565b611ed860ff8316610aa2565b148015611f58575b15611efe575050611ef16008610a73565b1717925b38808080611e6a565b9091959250611f0b610a86565b611f1760ff8316610aa2565b14908115611f41575b50611f2c575b50611ef5565b909317611f396004610a73565b179238611f26565b9050611f51610aa26112096114b3565b1438611f20565b50611f61611104565b611f6d60ff8316610aa2565b14611ee0565b610f27611f9d93610bdb61096c610f7e95610bb9610a809660329e9c9e9a610bad610c1e60405190565b111561203a57611fab611ab9565b611fb760ff8316610aa2565b03611fd15750509050611fca6008610a73565b1792611ef5565b611fd9610a86565b611fe560ff8316610aa2565b03611ff457505017925b611ef5565b909250611fff611104565b61200b60ff8316610aa2565b0361201857501792611ef5565b9094915061202a610aa26112096114b3565b03611fef5792611fca6004610a73565b612045939193611ab9565b61205160ff8316610aa2565b0361205f5750501792611ef5565b9091925061206b610a86565b61207760ff8316610aa2565b03612088575050611fca6004610a73565b612090611104565b61209c60ff8316610aa2565b036120ad575050611fca6008610a73565b6120be610aa26112099794976114b3565b146120c95750611ef5565b9093179238611f26565b955090816120eb85936120e66002610a73565b611a96565b9690919250611e23565b610197929190611af3565b61210990612143565b919394909293929190565b610197906121286109e96101979460ff1690565b901c90565b61213a6101976101979290565b63ffffffff1690565b9061215a610f2761215460f8610a73565b84612114565b9161216e61216860e8610a73565b82612114565b6121876121826201000092610bdb846108d1565b610e12565b936121ea6121826121b96121b46121a76121a160c8610a73565b88612114565b610bdb600160201b6108d1565b61212d565b93610bdb61096c6121d9612182611c0b6121d360b8610a73565b8b612114565b976121e460a8610a73565b90612114565b93565b610197959493929190612238565b6101979061220f6109e96101979460ff1690565b901b90565b6101976101976101979261ffff1690565b6101976101976101979263ffffffff1690565b6122b161228d61098a9561098a6122a761228d6101979b9a9761098a61229d610be161098a9a61098a6122936122bb9f61227d61228d91612277600090565b50610b3a565b61228760f8610a73565b906121fb565b92612214565b61228760e8610a73565b61228760e0610a73565b61228760d0610a73565b61228760c0610a73565b91612225565b6122ce9060005b506122da565b94959394929391929091565b906122eb610f2761215460f8610a73565b6122f861215460e8610a73565b61230c6121826201000092610bdb846108d1565b9361232b610f2761232061215460e0610a73565b610bdb6101006108d1565b936101976121b461236b61218261235a61218261235161234b60d0610a73565b89612114565b610bdb8a6108d1565b96610bdb61096c61234b60c0610a73565b93610bdb600160201b6108d1565b61238e61148091612388600090565b50610e30565b612438565b906101726123a060405190565b9283610b01565b6001600160401b038111610b225760200290565b6123c7610197916123a7565b612393565b634e487b7160e01b600052603260045260246000fd5b90600b8110156123f3576020020190565b6123cc565b6124099061ffff165b9161ffff1690565b019061ffff821161090757565b61019791611aa9610aa261ffff9361ffff1690565b6109ed9061ffff16612401565b9061256661255e612449600b6123bb565b612461600061245781610e12565b61ffff1690830152565b61247961246e600a610e12565b61ffff166020830152565b6124916124866031610e12565b61ffff166040830152565b6124a961249e6077610e12565b61ffff166060830152565b6124b661050160d0610e12565b6124cf6124c4610148610e12565b61ffff1660a0830152565b6124e86124dd61020c610e12565b61ffff1660c0830152565b6125016124f661033a610e12565b61ffff1660e0830152565b61251b61250f6104f5610e12565b61ffff16610100830152565b612535612529610e46610e12565b61ffff16610120830152565b61254f612543611aee610e12565b61ffff16610140830152565b61255885612214565b906123e2565b5161ffff1690565b9160089061257382610e12565b61ffff8216111561259557505061258b6101ec6108d1565b905b610197610dbb565b6125e9916125de6125d86125c86125b86125e4956125b36001610e12565b6123f8565b6125c26003610a73565b90612416565b6125d26005610e12565b9061242b565b91610e12565b906123f8565b612214565b9061258d565b61019791906126189061261361096c6126229461260a600090565b50600293611317565b6108f4565b610a6060056108d1565b61262c60006108d1565b8103610197575061019760016108d1565b6101979061019790612214565b6101979061266f6126229161265d600090565b5061261361096c60029261145861141e565b610a6060066108d1565b60001981146109075760010190565b91908110156123f3576020020190565b356101978161015c565b906126ad60006108d1565b91825b828410156126e6576126da6126e09161098a6126d56126d0888888612688565b612698565b6126ed565b93612679565b926126b0565b9250505090565b6126f89060006122c8565b50939150915060019161272d6124016127256125e461271c6002966125d288610e12565b6125b388610e12565b9561ffff1690565b1461273757505090565b610197929161097261096c6111e261098a946108d1565b6101979190611317565b61043291906127da916127d4610f276127926127746066610a73565b610bb961278060405190565b8092610bad6020830191898b84610ac2565b610bdb61096c610bad610bb96127b0610f27600996610bdb886108d1565b976127bb6067610a73565b906127c560405190565b93849260208401928d84610ac2565b916127fd565b9061019760026109ab565b6127f19060070b610c9a565b0290610df28260070b90565b610d7161019793610d33610a0a61285d6128639661285761286961284161283b61282c61283b9b61099d600090565b509d9160099491949d8e610c6d565b906127e5565b95610d33610a0a61285d6004996128578b610c6d565b906112af565b92610dc5565b9a610c6d565b91610c6d565b6101979161261361019792612882600090565b5061097261096c600192610a60600a6108d156fea264697066735822122041f4fbeca2d12742f854361aff4432345def4b764975da853386133d3d0f292e64736f6c63430008140033"
  },
  "solcInputHash": "0fc8db5c515bcc17ef2329a4e01d28fa",
  "bytecode": "0x60806040523461001a5760405161436f610020823961436f90f35b600080fdfe6080604052600436101561001257600080fd5b60003560e01c80630ce90ec214610052578063222799001461004d578063d0604dd7146100485763f474541f036100575761019c565b6100fb565b6100e2565b61008b565b600080fd5b805b0361005757565b905035906100728261005c565b565b906020828203126100575761008891610065565b90565b34610057576100a361009e366004610074565b6109e6565b604051005b61ffff811661005e565b90503590610072826100a8565b919060408382031261005757610088906100d98185610065565b936020016100b2565b34610057576100a36100f53660046100bf565b90610691565b34610057576100a361010e366004610074565b610e89565b909182601f83011215610057578135916001600160401b03831161005757602001926020830284011161005757565b606081830312610057576101568282610065565b9260208201356001600160401b0381116100575783610176918401610113565b909390929060408201356001600160401b038111610057576101989201610113565b9091565b34610057576100a36101af366004610142565b93929092610fb7565b610088905b6001600160a01b031690565b61008890546101b8565b610088906101bd906001600160a01b031682565b610088906101d3565b610088906101e7565b0190565b1561020457565b60405162461bcd60e51b81526020600482015260146024820152731bdb9b1e481c1b185e595c9cc8185b1b1bddd95960621b6044820152606490fd5b90610072916102723361026c61026661026161025c600a6101c9565b6101f0565b6101bd565b916101bd565b146101fd565b61049c565b6102846100886100889290565b61ffff1690565b1561029257565b60405162461bcd60e51b815260206004820152601a602482015279796f75206861766520746f206865616c20736f6d657468696e6760301b6044820152606490fd5b634e487b7160e01b600052604160045260246000fd5b90601f01601f191681019081106001600160401b0382111761030b57604052565b6102d4565b600091031261005757565b6040513d6000823e3d90fd5b1561032e57565b60405162461bcd60e51b81526020600482015260166024820152751e5bdd5c8818da185c9858dd195c881a5cc81919585960521b6044820152606490fd5b6100886100886100889290565b906103839061036c565b600052602052604060002090565b6100889081565b6100889054610391565b6100889060d01c5b60ff1690565b61008890546103a2565b6103aa6100886100889290565b61008860036103ba565b156103d857565b60405162461bcd60e51b815260206004820152601760248201527663757272656e7420726f6f6d206e6f742074656d706c6560481b6044820152606490fd5b6104286100886100889261ffff1690565b60010b90565b61043e6100886100889260010b90565b60070b90565b634e487b7160e01b600052601160045260246000fd5b61046b9061ffff165b9161ffff1690565b90039061ffff821161047957565b610444565b61008860066103ba565b6100886100886100889260ff1690565b9052565b9060006104b66104ab82610277565b61ffff84161161028b565b6104c361025c60056101c9565b916342dad49e92803b15610057576104e99383916104e060405190565b95869260e01b90565b8252600490829084905af192831561068c5761060361060b92869261061196610660575b506105f66105c061051d85611996565b9261059361057861055d8a610557608089019a61055161053f8d5161ffff1690565b61054b61046386610277565b11610327565b82610379565b01610398565b996105678b6111b2565b6105728b6001610379565b016103b0565b61058d6105866103aa6103c7565b9160ff1690565b146103d1565b855161ffff16906105ba6105b56105af606088015161ffff1690565b92610417565b61042e565b916142bf565b956105de6105d96105d3875161ffff1690565b8961045a565b61357b565b906105ef6105ea61047e565b610488565b908a612431565b61ffff8516835286611825565b5161ffff1690565b9061045a565b9061065b61063f7fb572bcfe7c1f09d996241a68f1d4c1eac6f97533ddff5bdf47aaa2ac9730292a9261036c565b9261064960405190565b9182918261ffff909116815260200190565b0390a2565b61067f90863d8811610685575b61067781836102ea565b810190610310565b3861050d565b503d61066d565b61031b565b9061007291610240565b610072906106b63361026c61026661026161025c600a6101c9565b6107bf565b156106c257565b60405162461bcd60e51b81526020600482015260156024820152746f6e6c792039206c6576656c7320666f72206e6f7760581b6044820152606490fd5b61ffff1661ffff81146104795760010190565b6102846100886100889260ff1690565b61072f9061ffff16610463565b019061ffff821161047957565b61074d6100886100889261ffff1690565b63ffffffff1690565b1561075d57565b60405162461bcd60e51b815260206004820152600d60248201526c06e6f7420656e6f75676820787609c1b6044820152606490fd5b61049890610488565b9081526060810193926100729290916040916107bb906020830190610792565b0152565b6107cc61025c60056101c9565b6342dad49e90803b15610057576107f2916000916107e960405190565b93849260e01b90565b8252600490829084905af1801561068c576109d0575b506108e16000610827610822826105576100888783610379565b6111b2565b61083083611996565b906020820191610858610845845161ffff1690565b6108526104636009610277565b106106bb565b6109176108bd6108e960808401610880610874825161ffff1690565b61054b61046389610277565b61089f610897610892895161ffff1690565b6106ff565b61ffff168852565b6108b36108ae885161ffff1690565b613216565b9991949099610712565b6106036108d960608901926108d4845161ffff1690565b610722565b61ffff168252565b61ffff169052565b610910610906610900604086015163ffffffff1690565b9261073c565b9163ffffffff1690565b1015610756565b61092461025c60076101c9565b63c9b902e39061093261047e565b90803b156100575761095985809461096561094c60405190565b9a8b968795869460e01b90565b84528d6004850161079b565b03925af191821561068c5761098594610603936109b3575b505084611825565b9061065b61063f7ff9c0df78f5971a6ba2a9b0be5ece0fa71b8c42571ddc8c7cebc6807816bdc7739261036c565b816109c992903d106106855761067781836102ea565b388061097d565b6109e090600061067781836102ea565b38610808565b6100729061069b565b61007290610a0a3361026c61026661026161025c600a6101c9565b610b3d565b15610a1657565b60405162461bcd60e51b815260206004820152601560248201527418da185c9858dd195c881a5cc81b9bdd0819195859605a1b6044820152606490fd5b905051906100728261005c565b906020828203126100575761008891610a53565b6104989061036c565b9081526040810192916100729160200190610a74565b6020810192916100729190610a74565b6100889060081c61043e565b6100889054610aa3565b90610100600160481b039060081b5b9181191691161790565b61043e6100886100889260070b90565b90610af2610088610af992610ad2565b8254610ab9565b9055565b6101bd6100886100889290565b610498906101bd565b6040906107bb6100729496959396610b3360608401986000850190610b0a565b6020830190610b0a565b610b4a61025c60056101c9565b6342dad49e90803b1561005757610b67916000916107e960405190565b8252600490829084905af1801561068c57610e73575b50600090610b8e6100888284610379565b91610b9d610822828501610398565b610bee610ba983611996565b936080850194610bd0610bbe875161ffff1690565b610bca61046387610277565b14610a0f565b6020610bdf61025c60066101c9565b633038bb08906104e060405190565b82526004820188905260249082905afa92831561068c578493610e53575b50610c1a61025c60066101c9565b95637fbddc4796803b1561005757610c40978691610c3760405190565b998a9260e01b90565b8252818381610c53828d60048401610a7d565b03925af196871561068c57610c8697610e37575b506020610c7761025c60066101c9565b63a0712d6890610c3760405190565b8252818881610c988260048301610a93565b03925af196871561068c578597610df0575b50610d1d92610cfc83610cf6600194610ce8610cdb610cd46108ae6020610d0b9b015161ffff1690565b505061073c565b63ffffffff166040850152565b606083015161ffff166108e1565b89611825565b610d0588611d18565b01610aaf565b6001610d178786610379565b01610ae2565b610d2a61025c60066101c9565b906323b872dd90610d4b610d46610d40306101f0565b92610afd565b6101e7565b92803b1561005757610d73858094610d7e8a610d6660405190565b9889978896879560e01b90565b855260048501610b13565b03925af1801561068c57610dd3575b505061065b610dbc7f9864b8944e5b257db2545835b30ecab5f0bb520af28a793c225ce15f52e64bce9261036c565b92610dc660405190565b9182918290815260200190565b81610de992903d106106855761067781836102ea565b3880610d8d565b600191975092610cfc610d0b93610cf6610e23610d1d9760203d8111610e30575b610e1b81836102ea565b810190610a60565b9a94505093505092610caa565b503d610e11565b610e4d90863d88116106855761067781836102ea565b38610c67565b610e6c91935060203d8111610e3057610e1b81836102ea565b9138610c0c565b610e8390600061067781836102ea565b38610b7d565b610072906109ef565b9061007294939291610eb13361026c61026661026161025c600a6101c9565b610f0d565b60001981146104795760010190565b634e487b7160e01b600052603260045260246000fd5b9190811015610eeb576020020190565b610ec5565b356100888161005c565b60ff811661005e565b3561008881610efa565b9493919091610f1b86611996565b91610f2b608084015161ffff1690565b610f3d60009161054b61046384610277565b610f468161036c565b82811015610fac5780610fa28a898989610f9c610f97878c610f91610f8c610fa79c8f8f610f8690610f7d60208c015161ffff1690565b9a015160ff1690565b99610edb565b610ef0565b96610edb565b610f03565b936120b2565b610eb6565b610f46565b505050505050509050565b9061007294939291610e92565b6001600160401b031690565b61008890610fc4565b610fc4565b6100889054610fd0565b610fd96100886100889290565b15610ffc57565b60405162461bcd60e51b81526020600482015260146024820152731c9bdbdb481b9bdd0818dc99585d1959081e595d60621b6044820152606490fd5b61008861008861008892610fc4565b61049890611038565b6020810192916100729190611047565b9190820180921161047957565b6100889060c01c6103aa565b610088905461106d565b6100889060d81c6103aa565b6100889054611083565b6100889060e01c6103aa565b6100889054611099565b6100889060e81c6103aa565b61008890546110af565b9060ff60c81b9060c81b610ac8565b6103aa6100886100889260ff1690565b906110f4610088610af9926110d4565b82546110c5565b9060ff60d01b9060d01b610ac8565b9061111a610088610af9926110d4565b82546110fb565b6100889060081c6103aa565b6100889054611121565b9061ff009060081b610ac8565b90611154610088610af9926110d4565b8254611137565b90815260ff9091166020820152606081019291610072916040905b019060ff169052565b610088906103aa565b610088905461117f565b9081526060810193926100729290916040916107bb906020830190610a74565b6001906111c26100888284610379565b6111cb81610fde565b906111ea6000926111e46111de85610fe8565b91610fc4565b11610ff5565b818101936111f7856103b0565b611203610586856103ba565b1461121f575b505050610072915061121a90613891565b611a83565b6112679394602061123361025c60056101c9565b639507d39a9061125c61124585610fde565b9261124f60405190565b998a948593849360e01b90565b835260048301611050565b03915afa94851561068c57849561154e575b508461128b6112878661036c565b9190565b146114f0575b8361136e611374926112a3888a6116da565b6112ea6112d68a6112b384611079565b6112bc8561108f565b6112c5866110a5565b918d6112d0886110bb565b94612b32565b9290846112e5848395976110e4565b61110a565b8a6112f481613891565b93600293876113066100888888610379565b01906113118261112d565b61131d60ff8316610586565b036114e0575b50508b6113666113537f8850140926f0260fe1b422b7a0d93e7d5734e521eae9ac8969ed512cc38345159461036c565b9461135d60405190565b9384938461115b565b0390a2610379565b01611188565b91019261138084610398565b61138c6112878561036c565b0361139a575b849350611209565b6113c5906113be846113b66113b188999798610398565b611996565b015160ff1690565b908461290e565b6113d260059392936103ba565b60ff8316111561146d575b50506113ec61025c60076101c9565b6113fa6302acc94b95610398565b90600695813b15610057578561142591611430829661141860405190565b9a8b978896879560e01b90565b855260048501611192565b03925af191821561068c576100729361121a93611450575b829450611392565b8161146692903d106106855761067781836102ea565b3880611448565b61147a61025c60076101c9565b6302acc94b9061148988610398565b91813b1561005757876114a4916114af8296610d6660405190565b85526004850161079b565b03925af1801561068c576114c4575b806113dd565b6114da90843d86116106855761067781836102ea565b386114be565b6114e991611144565b3880611323565b93504361151e61128761008861150d61150889610fde565b611038565b61151861010061036c565b90611060565b1115611547576113748361136e61153d61153788610fde565b896115c2565b9692505050611291565b5050505050565b61156791955060203d8111610e3057610e1b81836102ea565b9338611279565b61049890610fc4565b60608082526017908201527644554e47454f4e5f455850495245445f534545445f563160481b6080820152909291610072916040906115bb60a08201966020830152565b019061156e565b6115db916115e791604051938492602084019283611577565b908103825203826102ea565b6115f96115f2825190565b9160200190565b2090565b6100889060401c610fc4565b61008890546115fd565b9060ff90610ac8565b9061162c610088610af9926110d4565b8254611613565b634e487b7160e01b600052601260045260246000fd5b905b908115611656570490565b611633565b6111de61166791610fc4565b01906001600160401b03821161047957565b90600160401b600160801b039060401b610ac8565b610fd961008861008892610fc4565b906116ad610088610af99261168e565b8254611679565b906001600160401b0390610ac8565b906116d3610088610af99261168e565b82546116b4565b6116e390613891565b6002906116f5600061136e8385610379565b91600092611705610586856103ba565b14611711575b50505050565b61173f90836003019361173961173161172987611609565b80988761342c565b948593610379565b0161161c565b61174c61058660066103ba565b03611759575b808061170b565b6117776117724261176c6201437061036c565b90611649565b610fe8565b9161178182610fde565b61178d6111de85610fc4565b146117b757506117a06117b092826116c3565b6117aa6001610fe8565b9061169d565b3880611752565b6117d092506117aa906117ca6001610fe8565b9061165b565b6117b0565b610088906117e96112876100889460ff1690565b901b90565b6100886100886100889261ffff1690565b6100886100886100889263ffffffff1690565b9081526040810192916100729160200152565b906118dc906115186118d261187460806118c86118a961188361185f61184f6105ea8a5160ff1690565b61185960f86103ba565b906117d5565b61151861187961187460208c015161ffff1690565b6117ee565b61185960e86103ba565b61151861189f61189a60408b015163ffffffff1690565b6117ff565b61185960c86103ba565b6115186118be61187460608a015161ffff1690565b61185960b86103ba565b94015161ffff1690565b61185960a86103ba565b906118ea61025c60066101c9565b90634848b1a591803b15610057576119186000809461192361190b60405190565b9788968795869460e01b90565b845260048401611812565b03925af1801561068c576119345750565b61007290600061067781836102ea565b9061007261195160405190565b92836102ea565b61008860a0611944565b61196a611958565b9060008252602080808080860160005b815201600081520160008152016000905250565b610088611962565b60206119de916119a461198e565b506119b261025c60066101c9565b6119d0630178fe3f6119c360405190565b9586948593849360e01b90565b835260048301526024820190565b03915afa801561068c57611a2c611a44611a0761008893611a3995600091611a4f575b506140d6565b979295909193611a21611a18611958565b60ff909a168a52565b61ffff166020890152565b63ffffffff166040870152565b61ffff166060850152565b61ffff166080830152565b611a67915060203d8111610e3057610e1b81836102ea565b38611a01565b6100889060801c610fc4565b6100889054611a6d565b600280611a936100888483610379565b0190611a9e82610fde565b90600090611aab82610fe8565b611ab484610fc4565b03611ac0575050505050565b6020611af193611ad361025c60056101c9565b61125c639507d39a611ae460405190565b9788948593849360e01b90565b03915afa92831561068c578293611bf0575b50611b0d8261036c565b831461154757611b23611b7993611b7f96612a9f565b9083611b3c610088611b3484611c10565b936001610379565b84810194611b556111de611b4f88610fde565b92610fe8565b14159283611bd0575b83611bb9575b5082611b99575b5050611b89575b5050610fe8565b906116c3565b3880808080611547565b611b92916116c3565b3880611b72565b611ba49250016103b0565b611bb0610586856103ba565b14158338611b6b565b909250611bc86112878361036c565b149138611b64565b9250611bdd828201611a79565b611be96111de84610fe8565b1492611b5e565b611c0991935060203d8111610e3057610e1b81836102ea565b9138611b03565b6001611c276000611c218484610379565b01611609565b91600090611c3482610fe8565b611c3d85610fc4565b14611cfe57611c636020611c5461025c60056101c9565b639507d39a906107e960405190565b82528180611c748a60048301611050565b03915afa90811561068c578391611ce0575b50611c908361036c565b8114611cd257611ccc611cc661008896611cba6111de610fd988611cb4898c610379565b01610fde565b14946105728588610379565b9461036c565b916127e9565b50509050610088915061036c565b611cf8915060203d8111610e3057610e1b81836102ea565b38611c86565b509050610088915061036c565b61074d6100886100889290565b600090600190600f600a611dbe611d2e86610277565b91611d4a611d44611d3e896103ba565b956103ba565b91610277565b95611d83611d64611d5a83611d0b565b8980868a8a614180565b92611d706004936103ba565b9880611d7b85611d0b565b928b89614180565b6020611d9261025c60086101c9565b93631b2ef1ca94898c611da460405190565b809981958294611db48c60e01b90565b84528a8401611812565b03925af1801561068c5789602094611de689611e0d948c998591611e51575b50818b8b6120b2565b611e16611df661025c60086101c9565b94611e0060405190565b9b8c978896879560e01b90565b85528401611812565b03925af193841561068c576100729694611e31575b506120b2565b611e4a91945060203d8111610e3057610e1b81836102ea565b9238611e2b565b611e689150893d8111610e3057610e1b81836102ea565b38611ddd565b15611e7557565b60405162461bcd60e51b81526020600482015260136024820152720cecac2e44098caeccad840e8dede40d0d2ced606b1b6044820152606490fd5b6103aa90611ec46105866100889460ff1690565b901c90565b15611ed057565b60405162461bcd60e51b815260206004820152600d60248201526c696e76616c696420636c61737360981b6044820152606490fd5b15611f0c57565b60405162461bcd60e51b815260206004820152601a6024820152791bdb9b1e481858d8d95cdcdbdc9a595cc81bdb881cdb1bdd080d60321b6044820152606490fd5b9060001990610ac8565b90611f68610088610af99261036c565b8254611f4e565b15611f7657565b60405162461bcd60e51b815260206004820152601a6024820152796f6e6c79206163636573736f72696573206f6e20736c6f74203360301b6044820152606490fd5b15611fbf57565b60405162461bcd60e51b815260206004820152601a60248201527937b7363c9030b1b1b2b9b9b7b934b2b99037b71039b637ba101960311b6044820152606490fd5b1561200857565b60405162461bcd60e51b815260206004820152601b60248201527a6f6e6c7920646566656e73652067656172206f6e20736c6f74203160281b6044820152606490fd5b1561205257565b60405162461bcd60e51b815260206004820152601a60248201527906f6e6c792061747461636b2067656172206f6e20736c6f7420360341b6044820152606490fd5b908152606081019392610072929091604091611176905b6020830152565b939084846020936120fb61216d966120ee6120cc856122e8565b966120e76104636120df8a5161ffff1690565b9261ffff1690565b1115611e6e565b604086015160ff16611eb0565b600190612107826103ba565b169161212260009361211b610586866103ba565b1415611ec9565b61212b836103ba565b60ff8216036121aa5750506121676113b6936002926121626121508989015160ff1690565b61215c610586846103ba565b1461204b565b610379565b01611f58565b916121a57f9661c1f94255e8f19fda183859db8ad335498fb1e361acc4bd925a68d1bcaf819361219c60405190565b93849384612094565b0390a1565b6121b3826103ba565b60ff8216036121ef57506121ea93600392612162612167936121e46105866121de8c8c015160ff1690565b926103ba565b14612001565b6113b6565b600291506121fc826103ba565b60ff82160361222d57506121ea93600492612162612167936122276105866121de8c8c015160ff1690565b14611fb8565b61223760036103ba565b60ff82160361226857506121ea93600592612162612167936122626105866121de8c8c015160ff1690565b14611f6f565b61227561058660046103ba565b14612284575b505050506113b6565b6122ab93600692612162612167936122a56105866121de8c8c015160ff1690565b14611f05565b8484388061227b565b61008860c0611944565b6122c66122b4565b90600082526020808080808087016000815201600061197a565b6100886122be565b6020612304916122f66122e0565b506119b261025c60086101c9565b03915afa90811561068c5761236e6123796123596123316123639561008895600091612386575b506141ef565b97949992919361234f6123459792976122b4565b61ffff909c168c52565b60ff1660208b0152565b60ff166040890152565b61ffff166060870152565b61ffff166080850152565b63ffffffff1660a0830152565b61239e915060203d8111610e3057610e1b81836102ea565b3861232b565b61008890610afd565b9081526060810193926100729290916040916107bb906120ab565b6107bb610072946123f16060949897956123e7608086019a6000870152565b6020850190610a74565b6040830152565b6107bb610072946123f160609498979561241a608086019a6000870190610b0a565b6020850190610b0a565b9190820391821161047957565b92909261243d84612650565b60009461244c610261876123a4565b612455836101bd565b146126225761246d612467600561036c565b85611649565b916124778761036c565b83116124ea575b505061249c61249061025c60076101c9565b9163c9b902e394612424565b92813b1561005757856124b7916124c28296610d6660405190565b8552600485016123ad565b03925af1801561068c576124d4575050565b8161007292903d106106855761067781836102ea565b6124f761025c60076101c9565b6311aa10fb90803b1561005757858992916125298480946125348a8e61251c60405190565b998a988997889660e01b90565b8652600486016123c8565b03925af1801561068c57612606575b5061255161025c60076101c9565b63fe99049a61255f306101f0565b823b1561005757839261257c8b80946125878a8e61251c60405190565b8652600486016123f8565b03925af1801561068c576125ea575b506125ca6125c47f41d17e4a29add7df9dab104b7b914e73209c448b1fd78b8ca04efc5e24df1abb9361036c565b916101f0565b916125d460405190565b806125e0868a83611812565b0390a3388061247e565b61260090883d8a116106855761067781836102ea565b38612596565b61261c90883d8a116106855761067781836102ea565b38612543565b505061263161025c60076101c9565b63c9b902e3813b1561005757856124b7916124c28296610d6660405190565b612659816126f6565b156126c15760206126829161267161025c60096101c9565b6119d06369f648a16119c360405190565b03915afa90811561068c5761008891610d46916000916126a3575b50610afd565b6126bb915060203d8111610e3057610e1b81836102ea565b3861269d565b5061008860006123a4565b61005e816101bd565b90505190610072826126cc565b9060208282031261005757610088916126d5565b602061272391612704600090565b5061271261025c60096101c9565b6119d0636352211e6119c360405190565b03915afa90811561068c5760009161274a575b50612746610266610261306101f0565b1490565b61276b915060203d8111612771575b61276381836102ea565b8101906126e2565b38612736565b503d612759565b61008860016103ba565b610088600f6103ba565b6127989060ff16610586565b019060ff821161047957565b6104989060ff1660f81b90565b600193926127ce6020836127c882956101f9979052565b01918252565b0180926127a4565b6100889061036c565b8115611656570690565b9290936127f4600090565b506128036105866103aa612778565b036128e257612810612782565b80916128c7575b5061287361128761286d61285d61282e60066103ba565b61284c61283a60405190565b80926115db60208301918d8d846127b1565b6128576115f2825190565b206127d6565b612867606461036c565b906127df565b92610488565b1061288557505050610088600061036c565b6128b86128bd9261284c6100889561289d60076103ba565b926115db6128aa60405190565b9485936020850193846127b1565b6127df565b611518600161036c565b6128dc91506128d6600a6103ba565b9061278c565b38612817565b50505050610088600061036c565b61008860196103ba565b61008860026103ba565b61008860046103ba565b9092909161291c600061036c565b9361293561292a86866135ec565b61176c6105ea6128f0565b858114612a8f575b60029061298561295561294f8461036c565b83611649565b611518836128b86115db61284c61296c60646103ba565b8d61297660405190565b9384928d6020850193846127b1565b95878714612a7d575b6129966128fa565b6129a260ff8716610586565b14612a55575b91611518916129e3949360086129bd8161036c565b8311612a35575b5061284c6129d86124676128b8949561036c565b9561289d60656103ba565b938414612a23575b612a006105866129f9612778565b9260ff1690565b14612a0757565b91612a2090611518612a1a6105ea612904565b82611649565b91565b9250612a2f600161036c565b926129eb565b6128b892506129d8612467612a4c61284c9361036c565b945050506129c4565b959161151891612a716129e39594611518612a1a6105ea612904565b979193945091506129a8565b9550612a89600161036c565b9561298e565b50612a9a600161036c565b61293d565b612b2791612b21612af2612ad4612ab660666103ba565b61284c612ac260405190565b80926115db6020830191898b846127b1565b612867612b1b6115db61284c612af7612af26009966128678861036c565b6103ba565b97612b0260676103ba565b90612b0c60405190565b93849260208401928d846127b1565b9161036c565b916139ed565b906100886002610fe8565b95949290612b4e6101989593612b46600090565b508289613ac0565b96612b7c565b61043e6100886100889290565b61008860056103ba565b60ff1660ff81146104795760010190565b94936000612b94612b8c88613891565b959497613089565b505060009391612bad612ba686612b54565b9160070b90565b149081613065575b5015612bd857505050505050612bc96128fa565b91612bd460016103ba565b1790565b95909691929394965b60ff87165b60ff87161161305b5750612bfa60036103ba565b612c45612af2612c3b8761284c8a8d6115db88612c1660405190565b958694602086019485926127ce60016101f9946127c86020886127ce859b9a83999052565b612867601461036c565b90612c67612c5360016103ba565b8516612c6261058660016103ba565b141590565b908180613032575b15612ca057505050612be6612c97612c856128fa565b93612c9060016103ba565b1796612b6b565b95929050612be1565b612cbc612cad60026103ba565b8616612c6261058660026103ba565b918280612fe4575b15612ce65750505050612be6612c97612cdb6103c7565b93612c9060026103ba565b612d02612cf360046103ba565b8716612c6261058660046103ba565b918280612f41575b15612d2d575050505050612be6612c97612d22612904565b93612c9060046103ba565b612d49612d3a60086103ba565b8816612c6261058660086103ba565b9485612d8c575b5050505050600014612d7557612be6612c97612d6a612b61565b93612c9060086103ba565b612be6612c97612d86969396612778565b93612b6b565b612d9b91929394955060ff1690565b14928315612f2a575b8315612f06575b8315612ee2575b8315612ebe575b8315612e8d575b8315612e5c575b8315612e2b575b8315612de2575b5050503880808080612d50565b90919250612df0604d6103ba565b60ff8916149283612e23575b5082612e1b575b5081612e13575b50388080612dd5565b905038612e0a565b915038612e03565b925038612dfc565b9250612e37604e6103ba565b60ff89161480612e55575b80612e4e575b92612dce565b5082612e48565b5081612e42565b9250612e68604e6103ba565b60ff89161480612e86575b80612e7f575b92612dc7565b5081612e79565b5080612e73565b9250612e99604e6103ba565b60ff89161480612eb7575b80612eb0575b92612dc0565b5082612eaa565b5080612ea4565b9250612eca604f6103ba565b60ff89161480612edb575b92612db9565b5081612ed5565b9250612eee604f6103ba565b60ff89161480612eff575b92612db2565b5082612ef9565b9250612f12604f6103ba565b60ff89161480612f23575b92612dab565b5080612f1d565b9250612f3660506103ba565b60ff89161492612da4565b50612f4c60026103ba565b60ff8616148015612fcf575b8015612fb2575b8015612f95575b80612d0a5750612f76604e6103ba565b60ff8b161480612f8e575b8015612d0a575083612d0a565b5081612f81565b50612fa0604f6103ba565b60ff8b16148015612f66575083612f66565b50612fbd604f6103ba565b60ff8b16148015612f5f575081612f5f565b50612fda60506103ba565b60ff8b1614612f58565b50612fef60016103ba565b60ff851614801561301d575b80612cc4575061300b604f6103ba565b60ff8a16148015612cc4575080612cc4565b5061302860506103ba565b60ff8a1614612ffb565b5061303c866103ba565b60ff84161480612c6f575061305160506103ba565b60ff891614612c6f565b9650935093505050565b9050613073612ba685612b54565b1438612bb5565b61043e61008861008892610fc4565b9061309b61309683610fe8565b61307a565b916130b86130966117726130b2600160401b61036c565b84611649565b916100886117726130d9613096826130d3600160801b61036c565b87611649565b9361176c600160ff1b61036c565b6001600160401b03811161030b5760200290565b613107610088916130e7565b611944565b90600b811015610eeb576020020190565b939190925b6001821161312e575050565b90919280820481116104795760018316613150575b8002929160011c90613122565b93840293613143565b92919281156131dc5780156131d45780806001146131cb576002146131b65760208210610133821016604e8310600b831016176131ac579261319f91819394600161311d565b8092048111610479570290565b0a91821161047957565b5060ff81116104795760020a91821161047957565b50600193505050565b506000925050565b506001925050565b610088916131f961058661ffff9361ffff1690565b90613159565b61164b9061ffff16610463565b610088600a6103ba565b9061333c610603613227600b6130fb565b61323f600061323581610277565b61ffff1690830152565b61325761324c600a610277565b61ffff166020830152565b61326f6132646031610277565b61ffff166040830152565b61328761327c6077610277565b61ffff166060830152565b613294611a4460d0610277565b6132ad6132a2610148610277565b61ffff1660a0830152565b6132c66132bb61020c610277565b61ffff1660c0830152565b6132df6132d461033a610277565b61ffff1660e0830152565b6132f96132ed6104f5610277565b61ffff16610100830152565b613313613307610e46610277565b61ffff16610120830152565b61332d613321611aee610277565b61ffff16610140830152565b613336856117ee565b9061310c565b9160089061334982610277565b61ffff8216111561336b5750506133616101ec61036c565b905b61008861320c565b6133af916133a9611d44613399613389611874956108d46001610277565b61339360036103ba565b906131e4565b6133a36005610277565b906131ff565b90610722565b90613363565b610fd96100886100889260ff1690565b6111de6133d191610fc4565b02906133dc82610fc4565b91820361047957565b6100886064610277565b6133fb9060070b612ba6565b908115611656570790565b6134166100886100889260070b90565b60000b90565b6103aa6100886100889260000b90565b91613436836137b2565b90811561355e575b501561345057505061008860066103ba565b61346f61150861345f84613718565b6134696009610fe8565b906133c5565b613479600061036c565b8111613545575b61348e6112876105ea6128f0565b1061353957612af26134c66115db61284c6134d1946134ad600c6103ba565b906134b760405190565b93849260208401928a846127b1565b61286761271061036c565b6134e56134df6102846133e5565b91610712565b1161352e576134f661008891613089565b5091505061352961352361351e6135196001946135136005612b54565b906133ef565b613406565b61341c565b916103ba565b61278c565b5061008860066103ba565b505061008860066103ba565b61355990613553600461036c565b90612424565b613480565b90506135736111de61356e61320c565b6133b5565b10153861343e565b610088906117ee565b6135909060070b612ba6565b90039060016001603f1b0319821260016001603f1b0383131761047957565b6100886100886100889260070b90565b600160ff1b81146104795760000390565b9190808303926000909112801582851316918412161761047957565b61361e61361961360761361193613601600090565b50613089565b5050939094613089565b505094613584565b6135af565b9160009161362b8361036c565b84126136d1575b61361961364292612b1b92613584565b81126136c3575b6001603f1b6136578161036c565b83136136a5575b6136679061036c565b811361368a575b8082131561368057506100889061036c565b610088915061036c565b6136a09061369b600160401b61036c565b6135d0565b61366e565b91613667906136bb9061369b600160401b61036c565b92905061365e565b6136cc906135bf565b613649565b92613619613642926136e5612b1b936135bf565b959250925050613632565b60070b60016001603f1b031981146104795760000390565b610fd96100886100889260070b90565b613723906000613601565b5081905060008361373382612b54565b61373d8260070b90565b1261379c575b5061374d90612b54565b6137578260070b90565b1261378c575b506137688160070b90565b6137728360070b90565b1315613782575061008890613708565b6100889150613708565b61379691506136f0565b3861375d565b61374d9194506137ab906136f0565b9390613743565b6137bd906000613601565b5050600019916137cc83612b54565b6137d68260070b90565b1215928361381d575b5082613804575b50816137f0575090565b90506137ff612ba66001612b54565b131590565b909150613814612ba66001612b54565b131590386137e6565b613828919350612b54565b6138328260070b90565b121591386137df565b6138479060070b612ba6565b019060016001603f1b03821360016001603f1b031983121761047957565b6138719060070b612ba6565b9081156116565760016001603f1b03198114600019831416610479570590565b6138f7610088916138a96138a3600090565b91613089565b509390916000906138b982612b54565b6138c38260070b90565b1261393e576138df6138ef916138d96004612b54565b9061383b565b6138e96009612b54565b90613865565b935b50612b54565b6139018260070b90565b1261391d576138df613917916138d96004612b54565b90613969565b6139396138df61392f613917936136f0565b6138d96004612b54565b6136f0565b6139396138df61392f613950936136f0565b936138f1565b8181029291811591840414171561047957565b906115086139cf611518926115186139c26115086139bc6100889961398c600090565b506139b7612b1b6139a4611508600160ff1b94613708565b6139b1600160801b61036c565b90613956565b611060565b93613708565b6139b1600160401b61036c565b92613708565b6139e19060070b612ba6565b02906133dc8260070b90565b613917610088936138d9613096613a4d613a5396613a47613a59613a31613a2b613a1c613a2b9b613601600090565b509d9160099491949d8e612b54565b906139d5565b956138d9613096613a4d600499613a478b612b54565b90613584565b926133b5565b9a612b54565b91612b54565b61008860576103ba565b610088916131f961058660ff9360ff1690565b61008860286103ba565b61008860006103ba565b613a9c9060ff16610586565b90039060ff821161047957565b613ab59060ff16610586565b029060ff82166133dc565b90600092613acd846103ba565b90613ad6612904565b613ae260ff8316610586565b03613d9a575050613af3600f6103ba565b925b613b20613b02606f6103ba565b61284c613b0e60405190565b80926115db6020830191888a846127b1565b613b32612af26064926128678461036c565b90613b4f6103aa613b41613a7c565b613b4a846103ba565b613a90565b60ff83161015613d5e575050613b64906103ba565b905b600491613b72836103ba565b60ff821610613ba3575050612bd49150613b9e613523600f92613b9861352360026103ba565b90613a69565b613aa9565b6003613bae816103ba565b60ff831603613c59575050613be1612af2613bd8613bfb949561284c613beb9561289d60706103ba565b6128678661036c565b6128d660016103ba565b613bf560076103ba565b90613aa9565b613c0560156103ba565b60ff821603613c295750612bd490613b9e613523600d92613b9861352360026103ba565b613c36610586601c6103ba565b14613c3f575090565b612bd490613b9e613523600b92613b9861352360026103ba565b9091600292613c67846103ba565b60ff821603613cf95750613523613be1612af2613c94613c9e96979861284c613bf59661289d60706103ba565b612867600661036c565b613ca8600f6103ba565b60ff821603613cca5750613b9e613523612bd493613b986135236005956103ba565b613cd761058660126103ba565b14613ce157505090565b613b9e613523612bd493613b98613523600a956103ba565b90929150613d0a61058660016103ba565b14613d17575b5050505090565b613b98613d47613d4d613d47612af2613d3e613d549961284c613bf59961289d60706103ba565b6128678961036c565b936103ba565b9283613a69565b1738808080613d10565b6105866103aa613d7392613b4a61352361320c565b10159050613d8b57613d8560016103ba565b90613b66565b613d9560026103ba565b613d85565b613da5949194613a5f565b90613db060016103ba565b91613dd1613dbd60405190565b61284c81602081016115db888b8d846127b1565b90613dea6105866103aa612af26064956128678761036c565b116140a0575b90849291613dfc613a7c565b613e316105866103aa612af2613e288c61284c613e1960026103ba565b9b8c926115db6128aa60405190565b6128678761036c565b11613e40575b50505050613af5565b8690613e4e989495986128f0565b87613e5960036103ba565b91613e876105866103aa612af2613d3e613e7260405190565b61284c818c6115db8c8c6020850193846127b1565b1115613f405750505050613e99613a86565b613ea560ff8316610586565b148015613f25575b15613ecb575050613ebe60086103ba565b1717925b38808080613e37565b9091959250613ed8612778565b613ee460ff8316610586565b14908115613f0e575b50613ef9575b50613ec2565b909317613f0660046103ba565b179238613ef3565b9050613f1e6105866129f96103c7565b1438613eed565b50613f2e6128fa565b613f3a60ff8316610586565b14613ead565b612af2613f6a93612867612b1b6135239561284c6103aa9660329e9c9e9a6115db6128aa60405190565b111561400757613f78613a86565b613f8460ff8316610586565b03613f9e5750509050613f9760086103ba565b1792613ec2565b613fa6612778565b613fb260ff8316610586565b03613fc157505017925b613ec2565b909250613fcc6128fa565b613fd860ff8316610586565b03613fe557501792613ec2565b90949150613ff76105866129f96103c7565b03613fbc5792613f9760046103ba565b614012939193613a86565b61401e60ff8316610586565b0361402c5750501792613ec2565b90919250614038612778565b61404460ff8316610586565b03614055575050613f9760046103ba565b61405d6128fa565b61406960ff8316610586565b0361407a575050613f9760086103ba565b61408b6105866129f99794976103c7565b146140965750613ec2565b9093179238613ef3565b955090816140b885936140b360026103ba565b613a69565b9690919250613df0565b61008890611ec46112876100889460ff1690565b906140ed612af26140e760f86103ba565b846140c2565b916141016140fb60e86103ba565b826140c2565b61411a61411562010000926128678461036c565b610277565b9361417d61411561414c61414761413a61413460c86103ba565b886140c2565b612867600160201b61036c565b611d0b565b93612867612b1b61416c614115613bd861416660b86103ba565b8b6140c2565b9761417760a86103ba565b906140c2565b93565b6141df6141c5611518956115186141d56141c56100889b9a976115186141cb61286d6115189a6115186118796141e99f61184f6141c5916141bf600090565b50610488565b926117ee565b61185960e06103ba565b61185960d06103ba565b61185960c06103ba565b916117ff565b90614200612af26140e760f86103ba565b61420d6140e760e86103ba565b61422161411562010000926128678461036c565b93614240612af26142356140e760e06103ba565b61286761010061036c565b9361008861414761428061411561426f61411561426661426060d06103ba565b896140c2565b6128678a61036c565b96612867612b1b61426060c06103ba565b93612867600160201b61036c565b610fd96100886100889261ffff1690565b6104286100886100889260070b90565b6102846100886100889260010b90565b916142d96130966142de93946142d3600090565b5061428e565b61383b565b906142ee61043e6130968361428e565b6142f88360070b90565b136143345750600061430981612b54565b6143138360070b90565b13614322576100889150610277565b5061432f6100889161429f565b6142af565b90509056fea2646970667358221220170922fb294810d05a85358aa0df18a089a57d781206d19753018d12a8cff8d464736f6c63430008140033",
  "devdoc": {
    "kind": "dev",
    "methods": {},
    "version": 1
  },
  "userdoc": {
    "kind": "user",
    "methods": {},
    "version": 1
  },
  "storageLayout": {
    "storage": [
      {
        "astId": 3423,
        "contract": "src/dungeon/DungeonCharacterFacet.sol:DungeonCharacterFacet",
        "label": "_characters",
        "offset": 0,
        "slot": "0",
        "type": "t_mapping(t_uint256,t_struct(Character)3405_storage)"
      },
      {
        "astId": 3428,
        "contract": "src/dungeon/DungeonCharacterFacet.sol:DungeonCharacterFacet",
        "label": "_rooms",
        "offset": 0,
        "slot": "1",
        "type": "t_mapping(t_uint256,t_struct(Room)3388_storage)"
      },
      {
        "astId": 3433,
        "contract": "src/dungeon/DungeonCharacterFacet.sol:DungeonCharacterFacet",
        "label": "_areas",
        "offset": 0,
        "slot": "2",
        "type": "t_mapping(t_uint256,t_struct(Area)3418_storage)"
      },
      {
        "astId": 3441,
        "contract": "src/dungeon/DungeonCharacterFacet.sol:DungeonCharacterFacet",
        "label": "_areaCounter",
        "offset": 0,
        "slot": "3",
        "type": "t_struct(AreaCounter)3438_storage"
      },
      {
        "astId": 3443,
        "contract": "src/dungeon/DungeonCharacterFacet.sol:DungeonCharacterFacet",
        "label": "_adminContract",
        "offset": 0,
        "slot": "4",
        "type": "t_address"
      },
      {
        "astId": 3446,
        "contract": "src/dungeon/DungeonCharacterFacet.sol:DungeonCharacterFacet",
        "label": "_blockHashRegister",
        "offset": 0,
        "slot": "5",
        "type": "t_contract(BlockHashRegister)13344"
      },
      {
        "astId": 3449,
        "contract": "src/dungeon/DungeonCharacterFacet.sol:DungeonCharacterFacet",
        "label": "_charactersContract",
        "offset": 0,
        "slot": "6",
        "type": "t_contract(Characters)743"
      },
      {
        "astId": 3452,
        "contract": "src/dungeon/DungeonCharacterFacet.sol:DungeonCharacterFacet",
        "label": "_elementsContract",
        "offset": 0,
        "slot": "7",
        "type": "t_contract(Elements)12944"
      },
      {
        "astId": 3455,
        "contract": "src/dungeon/DungeonCharacterFacet.sol:DungeonCharacterFacet",
        "label": "_gearsContract",
        "offset": 0,
        "slot": "8",
        "type": "t_contract(Gears)12963"
      },
      {
        "astId": 3458,
        "contract": "src/dungeon/DungeonCharacterFacet.sol:DungeonCharacterFacet",
        "label": "_roomsContract",
        "offset": 0,
        "slot": "9",
        "type": "t_contract(Rooms)13030"
      },
      {
        "astId": 3461,
        "contract": "src/dungeon/DungeonCharacterFacet.sol:DungeonCharacterFacet",
        "label": "_playerContract",
        "offset": 0,
        "slot": "10",
        "type": "t_contract(Player)11309"
      },
      {
        "astId": 3469,
        "contract": "src/dungeon/DungeonCharacterFacet.sol:DungeonCharacterFacet",
        "label": "_unlockedExits",
        "offset": 0,
        "slot": "11",
        "type": "t_mapping(t_uint256,t_mapping(t_uint256,t_mapping(t_uint256,t_bool)))"
      },
      {
        "astId": 3481,
        "contract": "src/dungeon/DungeonCharacterFacet.sol:DungeonCharacterFacet",
        "label": "_quests",
        "offset": 0,
        "slot": "12",
        "type": "t_mapping(t_uint256,t_mapping(t_uint64,t_struct(Quest)3474_storage))"
      },
      {
        "astId": 3485,
        "contract": "src/dungeon/DungeonCharacterFacet.sol:DungeonCharacterFacet",
        "label": "_taxDueDate",
        "offset": 0,
        "slot": "13",
        "type": "t_mapping(t_address,t_uint256)"
      },
      {
        "astId": 3489,
        "contract": "src/dungeon/DungeonCharacterFacet.sol:DungeonCharacterFacet",
        "label": "_customRoomNames",
        "offset": 0,
        "slot": "14",
        "type": "t_mapping(t_uint256,t_string_storage)"
      },
      {
        "astId": 3493,
        "contract": "src/dungeon/DungeonCharacterFacet.sol:DungeonCharacterFacet",
        "label": "_allowedForwardTargets",
        "offset": 0,
        "slot": "15",
        "type": "t_mapping(t_address,t_bool)"
      },
      {
        "astId": 3499,
        "contract": "src/dungeon/DungeonCharacterFacet.sol:DungeonCharacterFacet",
        "label": "_allowedForwardSelectors",
        "offset": 0,
        "slot": "16",
        "type": "t_mapping(t_address,t_mapping(t_bytes4,t_bool))"
      }
    ],
    "types": {
      "t_address": {
        "encoding": "inplace",
        "label": "address",
        "numberOfBytes": "20"
      },
      "t_bool": {
        "encoding": "inplace",
        "label": "bool",
        "numberOfBytes": "1"
      },
      "t_bytes4": {
        "encoding": "inplace",
        "label": "bytes4",
        "numberOfBytes": "4"
      },
      "t_contract(BlockHashRegister)13344": {
        "encoding": "inplace",
        "label": "contract BlockHashRegister",
        "numberOfBytes": "20"
      },
      "t_contract(Characters)743": {
        "encoding": "inplace",
        "label": "contract Characters",
        "numberOfBytes": "20"
      },
      "t_contract(Elements)12944": {
        "encoding": "inplace",
        "label": "contract Elements",
        "numberOfBytes": "20"
      },
      "t_contract(Gears)12963": {
        "encoding": "inplace",
        "label": "contract Gears",
        "numberOfBytes": "20"
      },
      "t_contract(Player)11309": {
        "encoding": "inplace",
        "label": "contract Player",
        "numberOfBytes": "20"
      },
      "t_contract(Rooms)13030": {
        "encoding": "inplace",
        "label": "contract Rooms",
        "numberOfBytes": "20"
      },
      "t_int64": {
        "encoding": "inplace",
        "label": "int64",
        "numberOfBytes": "8"
      },
      "t_mapping(t_address,t_bool)": {
        "encoding": "mapping",
        "key": "t_address",
        "label": "mapping(address => bool)",
        "numberOfBytes": "32",
        "value": "t_bool"
      },
      "t_mapping(t_address,t_mapping(t_bytes4,t_bool))": {
        "encoding": "mapping",
        "key": "t_address",
        "label": "mapping(address => mapping(bytes4 => bool))",
        "numberOfBytes": "32",
        "value": "t_mapping(t_bytes4,t_bool)"
      },
      "t_mapping(t_address,t_uint256)": {
        "encoding": "mapping",
        "key": "t_address",
        "label": "mapping(address => uint256)",
        "numberOfBytes": "32",
        "value": "t_uint256"
      },
      "t_mapping(t_bytes4,t_bool)": {
        "encoding": "mapping",
        "key": "t_bytes4",
        "label": "mapping(bytes4 => bool)",
        "numberOfBytes": "32",
        "value": "t_bool"
      },
      "t_mapping(t_uint256,t_bool)": {
        "encoding": "mapping",
        "key": "t_uint256",
        "label": "mapping(uint256 => bool)",
        "numberOfBytes": "32",
        "value": "t_bool"
      },
      "t_mapping(t_uint256,t_mapping(t_uint256,t_bool))": {
        "encoding": "mapping",
        "key": "t_uint256",
        "label": "mapping(uint256 => mapping(uint256 => bool))",
        "numberOfBytes": "32",
        "value": "t_mapping(t_uint256,t_bool)"
      },
      "t_mapping(t_uint256,t_mapping(t_uint256,t_mapping(t_uint256,t_bool)))": {
        "encoding": "mapping",
        "key": "t_uint256",
        "label": "mapping(uint256 => mapping(uint256 => mapping(uint256 => bool)))",
        "numberOfBytes": "32",
        "value": "t_mapping(t_uint256,t_mapping(t_uint256,t_bool))"
      },
      "t_mapping(t_uint256,t_mapping(t_uint64,t_struct(Quest)3474_storage))": {
        "encoding": "mapping",
        "key": "t_uint256",
        "label": "mapping(uint256 => mapping(uint64 => struct DungeonDataLayout.Quest))",
        "numberOfBytes": "32",
        "value": "t_mapping(t_uint64,t_struct(Quest)3474_storage)"
      },
      "t_mapping(t_uint256,t_string_storage)": {
        "encoding": "mapping",
        "key": "t_uint256",
        "label": "mapping(uint256 => string)",
        "numberOfBytes": "32",
        "value": "t_string_storage"
      },
      "t_mapping(t_uint256,t_struct(Area)3418_storage)": {
        "encoding": "mapping",
        "key": "t_uint256",
        "label": "mapping(uint256 => struct DungeonDataLayout.Area)",
        "numberOfBytes": "32",
        "value": "t_struct(Area)3418_storage"
      },
      "t_mapping(t_uint256,t_struct(Character)3405_storage)": {
        "encoding": "mapping",
        "key": "t_uint256",
        "label": "mapping(uint256 => struct DungeonDataLayout.Character)",
        "numberOfBytes": "32",
        "value": "t_struct(Character)3405_storage"
      },
      "t_mapping(t_uint256,t_struct(Room)3388_storage)": {
        "encoding": "mapping",
        "key": "t_uint256",
        "label": "mapping(uint256 => struct DungeonDataLayout.Room)",
        "numberOfBytes": "32",
        "value": "t_struct(Room)3388_storage"
      },
      "t_mapping(t_uint64,t_struct(Quest)3474_storage)": {
        "encoding": "mapping",
        "key": "t_uint64",
        "label": "mapping(uint64 => struct DungeonDataLayout.Quest)",
        "numberOfBytes": "32",
        "value": "t_struct(Quest)3474_storage"
      },
      "t_string_storage": {
        "encoding": "bytes",
        "label": "string",
        "numberOfBytes": "32"
      },
      "t_struct(Area)3418_storage": {
        "encoding": "inplace",
        "label": "struct DungeonDataLayout.Area",
        "members": [
          {
            "astId": 3407,
            "contract": "src/dungeon/DungeonCharacterFacet.sol:DungeonCharacterFacet",
            "label": "areaType",
            "offset": 0,
            "slot": "0",
            "type": "t_uint8"
          },
          {
            "astId": 3409,
            "contract": "src/dungeon/DungeonCharacterFacet.sol:DungeonCharacterFacet",
            "label": "discovered",
            "offset": 1,
            "slot": "0",
            "type": "t_uint8"
          },
          {
            "astId": 3411,
            "contract": "src/dungeon/DungeonCharacterFacet.sol:DungeonCharacterFacet",
            "label": "lastRoomIndex",
            "offset": 2,
            "slot": "0",
            "type": "t_uint8"
          },
          {
            "astId": 3413,
            "contract": "src/dungeon/DungeonCharacterFacet.sol:DungeonCharacterFacet",
            "label": "currentIndex",
            "offset": 3,
            "slot": "0",
            "type": "t_uint8"
          },
          {
            "astId": 3415,
            "contract": "src/dungeon/DungeonCharacterFacet.sol:DungeonCharacterFacet",
            "label": "lastRoom",
            "offset": 0,
            "slot": "1",
            "type": "t_uint256"
          },
          {
            "astId": 3417,
            "contract": "src/dungeon/DungeonCharacterFacet.sol:DungeonCharacterFacet",
            "label": "eventBlockNumber",
            "offset": 0,
            "slot": "2",
            "type": "t_uint64"
          }
        ],
        "numberOfBytes": "96"
      },
      "t_struct(AreaCounter)3438_storage": {
        "encoding": "inplace",
        "label": "struct DungeonDataLayout.AreaCounter",
        "members": [
          {
            "astId": 3435,
            "contract": "src/dungeon/DungeonCharacterFacet.sol:DungeonCharacterFacet",
            "label": "lastPeriod",
            "offset": 0,
            "slot": "0",
            "type": "t_uint64"
          },
          {
            "astId": 3437,
            "contract": "src/dungeon/DungeonCharacterFacet.sol:DungeonCharacterFacet",
            "label": "numAreas",
            "offset": 8,
            "slot": "0",
            "type": "t_uint64"
          }
        ],
        "numberOfBytes": "32"
      },
      "t_struct(Character)3405_storage": {
        "encoding": "inplace",
        "label": "struct DungeonDataLayout.Character",
        "members": [
          {
            "astId": 3390,
            "contract": "src/dungeon/DungeonCharacterFacet.sol:DungeonCharacterFacet",
            "label": "location",
            "offset": 0,
            "slot": "0",
            "type": "t_uint256"
          },
          {
            "astId": 3392,
            "contract": "src/dungeon/DungeonCharacterFacet.sol:DungeonCharacterFacet",
            "label": "direction",
            "offset": 0,
            "slot": "1",
            "type": "t_uint8"
          },
          {
            "astId": 3394,
            "contract": "src/dungeon/DungeonCharacterFacet.sol:DungeonCharacterFacet",
            "label": "floors",
            "offset": 1,
            "slot": "1",
            "type": "t_int64"
          },
          {
            "astId": 3396,
            "contract": "src/dungeon/DungeonCharacterFacet.sol:DungeonCharacterFacet",
            "label": "slot_1",
            "offset": 0,
            "slot": "2",
            "type": "t_uint256"
          },
          {
            "astId": 3398,
            "contract": "src/dungeon/DungeonCharacterFacet.sol:DungeonCharacterFacet",
            "label": "slot_2",
            "offset": 0,
            "slot": "3",
            "type": "t_uint256"
          },
          {
            "astId": 3400,
            "contract": "src/dungeon/DungeonCharacterFacet.sol:DungeonCharacterFacet",
            "label": "slot_3",
            "offset": 0,
            "slot": "4",
            "type": "t_uint256"
          },
          {
            "astId": 3402,
            "contract": "src/dungeon/DungeonCharacterFacet.sol:DungeonCharacterFacet",
            "label": "slot_4",
            "offset": 0,
            "slot": "5",
            "type": "t_uint256"
          },
          {
            "astId": 3404,
            "contract": "src/dungeon/DungeonCharacterFacet.sol:DungeonCharacterFacet",
            "label": "slot_5",
            "offset": 0,
            "slot": "6",
            "type": "t_uint256"
          }
        ],
        "numberOfBytes": "224"
      },
      "t_struct(Quest)3474_storage": {
        "encoding": "inplace",
        "label": "struct DungeonDataLayout.Quest",
        "members": [
          {
            "astId": 3471,
            "contract": "src/dungeon/DungeonCharacterFacet.sol:DungeonCharacterFacet",
            "label": "status",
            "offset": 0,
            "slot": "0",
            "type": "t_uint8"
          },
          {
            "astId": 3473,
            "contract": "src/dungeon/DungeonCharacterFacet.sol:DungeonCharacterFacet",
            "label": "data",
            "offset": 0,
            "slot": "1",
            "type": "t_string_storage"
          }
        ],
        "numberOfBytes": "64"
      },
      "t_struct(Room)3388_storage": {
        "encoding": "inplace",
        "label": "struct DungeonDataLayout.Room",
        "members": [
          {
            "astId": 3367,
            "contract": "src/dungeon/DungeonCharacterFacet.sol:DungeonCharacterFacet",
            "label": "blockNumber",
            "offset": 0,
            "slot": "0",
            "type": "t_uint64"
          },
          {
            "astId": 3369,
            "contract": "src/dungeon/DungeonCharacterFacet.sol:DungeonCharacterFacet",
            "label": "monsterBlockNumber",
            "offset": 8,
            "slot": "0",
            "type": "t_uint64"
          },
          {
            "astId": 3371,
            "contract": "src/dungeon/DungeonCharacterFacet.sol:DungeonCharacterFacet",
            "label": "numActiveCharacters",
            "offset": 16,
            "slot": "0",
            "type": "t_uint64"
          },
          {
            "astId": 3373,
            "contract": "src/dungeon/DungeonCharacterFacet.sol:DungeonCharacterFacet",
            "label": "direction",
            "offset": 24,
            "slot": "0",
            "type": "t_uint8"
          },
          {
            "astId": 3375,
            "contract": "src/dungeon/DungeonCharacterFacet.sol:DungeonCharacterFacet",
            "label": "exits",
            "offset": 25,
            "slot": "0",
            "type": "t_uint8"
          },
          {
            "astId": 3377,
            "contract": "src/dungeon/DungeonCharacterFacet.sol:DungeonCharacterFacet",
            "label": "kind",
            "offset": 26,
            "slot": "0",
            "type": "t_uint8"
          },
          {
            "astId": 3379,
            "contract": "src/dungeon/DungeonCharacterFacet.sol:DungeonCharacterFacet",
            "label": "areaAtDiscovery",
            "offset": 27,
            "slot": "0",
            "type": "t_uint8"
          },
          {
            "astId": 3381,
            "contract": "src/dungeon/DungeonCharacterFacet.sol:DungeonCharacterFacet",
            "label": "lastRoomIndex",
            "offset": 28,
            "slot": "0",
            "type": "t_uint8"
          },
          {
            "astId": 3383,
            "contract": "src/dungeon/DungeonCharacterFacet.sol:DungeonCharacterFacet",
            "label": "index",
            "offset": 29,
            "slot": "0",
            "type": "t_uint8"
          },
          {
            "astId": 3385,
            "contract": "src/dungeon/DungeonCharacterFacet.sol:DungeonCharacterFacet",
            "label": "discoverer",
            "offset": 0,
            "slot": "1",
            "type": "t_uint256"
          },
          {
            "astId": 3387,
            "contract": "src/dungeon/DungeonCharacterFacet.sol:DungeonCharacterFacet",
            "label": "randomEvent",
            "offset": 0,
            "slot": "2",
            "type": "t_uint64"
          }
        ],
        "numberOfBytes": "96"
      },
      "t_uint256": {
        "encoding": "inplace",
        "label": "uint256",
        "numberOfBytes": "32"
      },
      "t_uint64": {
        "encoding": "inplace",
        "label": "uint64",
        "numberOfBytes": "8"
      },
      "t_uint8": {
        "encoding": "inplace",
        "label": "uint8",
        "numberOfBytes": "1"
      }
    }
  }
}