{
  "address": "0xA100aa561DEe6f748e29649B5a2fAed010108bB8",
  "abi": [
    {
      "anonymous": false,
      "inputs": [
        {
          "indexed": true,
          "internalType": "uint256",
          "name": "characterId",
          "type": "uint256"
        },
        {
          "indexed": true,
          "internalType": "uint256",
          "name": "oldLocation",
          "type": "uint256"
        },
        {
          "indexed": true,
          "internalType": "uint256",
          "name": "newLocation",
          "type": "uint256"
        },
        {
          "indexed": false,
          "internalType": "uint8",
          "name": "mode",
          "type": "uint8"
        },
        {
          "indexed": false,
          "internalType": "uint256",
          "name": "path",
          "type": "uint256"
        }
      ],
      "name": "CharacterMoved",
      "type": "event"
    },
    {
      "anonymous": false,
      "inputs": [
        {
          "indexed": true,
          "internalType": "uint256",
          "name": "characterId",
          "type": "uint256"
        },
        {
          "indexed": false,
          "internalType": "uint256",
          "name": "monsterId",
          "type": "uint256"
        }
      ],
      "name": "Death",
      "type": "event"
    },
    {
      "anonymous": false,
      "inputs": [
        {
          "indexed": true,
          "internalType": "uint256",
          "name": "characterId",
          "type": "uint256"
        },
        {
          "indexed": true,
          "internalType": "address",
          "name": "player",
          "type": "address"
        },
        {
          "indexed": false,
          "internalType": "string",
          "name": "name",
          "type": "string"
        }
      ],
      "name": "Enter",
      "type": "event"
    },
    {
      "anonymous": false,
      "inputs": [
        {
          "indexed": false,
          "internalType": "uint256",
          "name": "characterId",
          "type": "uint256"
        },
        {
          "indexed": false,
          "internalType": "uint256",
          "name": "gearId",
          "type": "uint256"
        },
        {
          "indexed": false,
          "internalType": "uint8",
          "name": "slotType",
          "type": "uint8"
        }
      ],
      "name": "Equip",
      "type": "event"
    },
    {
      "anonymous": false,
      "inputs": [
        {
          "indexed": true,
          "internalType": "uint256",
          "name": "characterId",
          "type": "uint256"
        },
        {
          "indexed": false,
          "internalType": "uint16",
          "name": "hp",
          "type": "uint16"
        }
      ],
      "name": "Heal",
      "type": "event"
    },
    {
      "anonymous": false,
      "inputs": [
        {
          "indexed": true,
          "internalType": "uint256",
          "name": "characterId",
          "type": "uint256"
        },
        {
          "indexed": false,
          "internalType": "uint16",
          "name": "newLevel",
          "type": "uint16"
        }
      ],
      "name": "LevelUp",
      "type": "event"
    },
    {
      "anonymous": false,
      "inputs": [
        {
          "indexed": true,
          "internalType": "uint256",
          "name": "characterId",
          "type": "uint256"
        },
        {
          "indexed": true,
          "internalType": "uint64",
          "name": "id",
          "type": "uint64"
        },
        {
          "indexed": true,
          "internalType": "uint8",
          "name": "status",
          "type": "uint8"
        },
        {
          "indexed": false,
          "internalType": "string",
          "name": "data",
          "type": "string"
        }
      ],
      "name": "QuestUpdate",
      "type": "event"
    },
    {
      "anonymous": false,
      "inputs": [
        {
          "indexed": true,
          "internalType": "uint256",
          "name": "areaLocation",
          "type": "uint256"
        },
        {
          "indexed": false,
          "internalType": "uint64",
          "name": "blockNumber",
          "type": "uint64"
        }
      ],
      "name": "RandomEvent",
      "type": "event"
    },
    {
      "anonymous": false,
      "inputs": [
        {
          "indexed": true,
          "internalType": "uint256",
          "name": "characterId",
          "type": "uint256"
        },
        {
          "indexed": false,
          "internalType": "uint256",
          "name": "gearId",
          "type": "uint256"
        }
      ],
      "name": "Recycle",
      "type": "event"
    },
    {
      "anonymous": false,
      "inputs": [
        {
          "indexed": true,
          "internalType": "uint256",
          "name": "deadCharacterId",
          "type": "uint256"
        },
        {
          "indexed": false,
          "internalType": "uint256",
          "name": "newCharacterId",
          "type": "uint256"
        }
      ],
      "name": "Resurrect",
      "type": "event"
    },
    {
      "anonymous": false,
      "inputs": [
        {
          "indexed": true,
          "internalType": "uint256",
          "name": "location",
          "type": "uint256"
        },
        {
          "indexed": false,
          "internalType": "bytes32",
          "name": "blockHash",
          "type": "bytes32"
        },
        {
          "indexed": false,
          "internalType": "uint8",
          "name": "exits",
          "type": "uint8"
        },
        {
          "indexed": false,
          "internalType": "uint8",
          "name": "kind",
          "type": "uint8"
        }
      ],
      "name": "RoomActualised",
      "type": "event"
    },
    {
      "anonymous": false,
      "inputs": [
        {
          "indexed": true,
          "internalType": "uint256",
          "name": "location",
          "type": "uint256"
        },
        {
          "indexed": false,
          "internalType": "uint64",
          "name": "blockNumber",
          "type": "uint64"
        },
        {
          "indexed": false,
          "internalType": "uint8",
          "name": "direction",
          "type": "uint8"
        }
      ],
      "name": "RoomDiscovered",
      "type": "event"
    },
    {
      "anonymous": false,
      "inputs": [
        {
          "indexed": true,
          "internalType": "uint256",
          "name": "location",
          "type": "uint256"
        },
        {
          "indexed": true,
          "internalType": "address",
          "name": "owner",
          "type": "address"
        },
        {
          "indexed": false,
          "internalType": "uint256",
          "name": "id",
          "type": "uint256"
        },
        {
          "indexed": false,
          "internalType": "uint256",
          "name": "amount",
          "type": "uint256"
        }
      ],
      "name": "RoomIncome",
      "type": "event"
    },
    {
      "anonymous": false,
      "inputs": [
        {
          "indexed": true,
          "internalType": "uint256",
          "name": "location",
          "type": "uint256"
        },
        {
          "indexed": false,
          "internalType": "string",
          "name": "name",
          "type": "string"
        },
        {
          "indexed": false,
          "internalType": "uint256",
          "name": "characterId",
          "type": "uint256"
        }
      ],
      "name": "RoomName",
      "type": "event"
    },
    {
      "anonymous": false,
      "inputs": [
        {
          "indexed": true,
          "internalType": "address",
          "name": "owner",
          "type": "address"
        },
        {
          "indexed": false,
          "internalType": "uint256",
          "name": "tax",
          "type": "uint256"
        },
        {
          "indexed": false,
          "internalType": "uint256",
          "name": "newDueDate",
          "type": "uint256"
        }
      ],
      "name": "RoomTaxPay",
      "type": "event"
    },
    {
      "inputs": [
        {
          "internalType": "uint256",
          "name": "characterId",
          "type": "uint256"
        },
        {
          "internalType": "uint256",
          "name": "elementId",
          "type": "uint256"
        },
        {
          "internalType": "uint256",
          "name": "amount",
          "type": "uint256"
        }
      ],
      "name": "mintElements",
      "outputs": [],
      "stateMutability": "nonpayable",
      "type": "function"
    },
    {
      "inputs": [
        {
          "internalType": "address",
          "name": "blockHashRegister",
          "type": "address"
        },
        {
          "internalType": "contract Player",
          "name": "playerContract",
          "type": "address"
        },
        {
          "internalType": "address payable",
          "name": "owner",
          "type": "address"
        },
        {
          "internalType": "address",
          "name": "adminContract",
          "type": "address"
        }
      ],
      "name": "postUpgrade",
      "outputs": [],
      "stateMutability": "nonpayable",
      "type": "function"
    },
    {
      "inputs": [
        {
          "internalType": "address",
          "name": "target",
          "type": "address"
        },
        {
          "internalType": "bytes4",
          "name": "selector",
          "type": "bytes4"
        },
        {
          "internalType": "bool",
          "name": "allowed",
          "type": "bool"
        }
      ],
      "name": "setAllowedForwardSelector",
      "outputs": [],
      "stateMutability": "nonpayable",
      "type": "function"
    },
    {
      "inputs": [
        {
          "internalType": "address",
          "name": "target",
          "type": "address"
        },
        {
          "internalType": "bool",
          "name": "allowed",
          "type": "bool"
        }
      ],
      "name": "setAllowedForwardTarget",
      "outputs": [],
      "stateMutability": "nonpayable",
      "type": "function"
    },
    {
      "inputs": [
        {
          "internalType": "contract Characters",
          "name": "characters",
          "type": "address"
        },
        {
          "internalType": "contract Elements",
          "name": "elements",
          "type": "address"
        },
        {
          "internalType": "contract Gears",
          "name": "gears",
          "type": "address"
        },
        {
          "internalType": "contract Rooms",
          "name": "rooms",
          "type": "address"
        }
      ],
      "name": "start",
      "outputs": [],
      "stateMutability": "nonpayable",
      "type": "function"
    }
  ],
  "transactionHash": "0xca518631d88741ee2c3ff282fedc4db0bc0b54f36775948ad8b6fd17f0525218",
  "args": [],
  "numDeployments": 2,
  "linkedData": {
    "readOnlyDungeon": "0x60806040523461001a576040516128cc61002082396128cc90f35b600080fdfe6080604052600436101561001257600080fd5b60003560e01c80630ececfea14610152578063213ee1431461014d5780632f5877961461014857806330ad9329146101435780633683dee11461013e578063467b47931461013957806356b5c381146101345780637a9234741461012f5780639f7cb08e1461012a578063a48378ff14610125578063acda69ca14610120578063b0ca9dfe1461011b578063c3aab23c14610116578063d5763a8014610111578063d667fd041461010c578063ed53a62414610107578063f090aca814610102578063f6940ac7146100fd578063fcaf8951146100f85763ff5335fa0361015757610887565b61086b565b61083b565b6107d9565b6107ba565b610728565b6106bf565b61064e565b6105fc565b6105da565b61054c565b610518565b610499565b610452565b610436565b6103af565b61033b565b6102d8565b610293565b6101cb565b600080fd5b805b0361015757565b905035906101728261015c565b565b9190604083820312610157576101979061018e8185610165565b93602001610165565b90565b9052565b6001600160401b031690565b61019a9061019e565b908152604081019291610172916020905b01906101aa565b34610157576101e46101de366004610174565b90612758565b906101fa6101f160405190565b928392836101b3565b0390f35b60ff811661015e565b90503590610172826101fe565b909160c0828403126101575761022a8383610165565b926102388160208501610165565b926102468260408301610207565b926101976102578460608501610207565b936102658160808601610207565b9360a001610207565b60ff918216815291166020820152606081019291610172916040905b019060ff169052565b34610157576101fa6102b56102a9366004610214565b94939093929192611472565b6040519193919384938461026e565b906020828203126101575761019791610165565b34610157576101fa6102f36102ee3660046102c4565b610c64565b6040519182918290815260200190565b6101c461017294610331606094989795610327608086019a600087019060070b9052565b60070b6020850152565b60070b6040830152565b34610157576101fa6103566103513660046102c4565b610996565b9061036394929460405190565b94859485610303565b9091606082840312610157576101976103858484610165565b936103938160208601610165565b93604001610207565b9081526040810192916101729160200152565b34610157576103c86103c236600461036c565b916110f9565b906101fa6103d560405190565b9283928361039c565b909182601f83011215610157578135916001600160401b03831161015757602001926020830284011161015757565b906020828203126101575781356001600160401b0381116101575761043292016103de565b9091565b34610157576101fa6102f361044c36600461040d565b906126a2565b34610157576101fa6102f3610468366004610174565b9061286f565b61ffff811661015e565b905035906101728261046e565b906020828203126101575761019791610478565b34610157576101fa6102f36104af366004610485565b61263d565b919461050161050c929897956104f660a0966104ec6101729a6104e260c08a019e60008b019061ffff169052565b60ff166020890152565b60ff166040870152565b61ffff166060850152565b61ffff166080830152565b019063ffffffff169052565b34610157576101fa61053361052e3660046102c4565b6122c1565b9261054396949692919260405190565b968796876104b4565b34610157576101fa6102f36105623660046102c4565b611415565b63ffffffff811661015e565b9050359061017282610567565b909160c082840312610157576105968383610478565b926105a48160208501610207565b926105b28260408301610207565b926101976105c38460608501610478565b936105d18160808601610478565b9360a001610573565b34610157576101fa6102f36105f0366004610580565b949390939291926121ed565b34610157576101fa6102f3610612366004610174565b9061274e565b906020828203126101575761019791610207565b61ffff909116815260608101939261017292909160409161028a906020830152565b34610157576101fa610669610664366004610618565b612379565b6040519193919384938461062c565b61015e8160070b90565b9050359061017282610678565b9091606082840312610157576101976106a88484610682565b936106b68160208601610682565b93604001610682565b34610157576101fa6102f36106d536600461068f565b916108a2565b909594926101729461071b61028a9261071060809661070560a088019c600089019061ffff169052565b61ffff166020870152565b61ffff166040850152565b63ffffffff166060830152565b34610157576101fa61074361073e3660046102c4565b612100565b9161075095939560405190565b958695866106db565b80151561015e565b9050359061017282610759565b919060a083820312610157576107848184610165565b926107928260208301610165565b926101976107a38460408501610165565b936107b18160608601610761565b93608001610207565b34610157576101fa6102f36107d036600461076e565b93929092610a66565b34610157576101fa6102f36107ef366004610174565b906125ef565b61015e8161019e565b90503590610172826107f5565b9091606082840312610157576101976108248484610165565b936108328160208601610165565b936040016107fe565b34610157576101fa61085761085136600461080b565b91610db0565b6040519182918260ff909116815260200190565b34610157576101fa61085761088136600461036c565b916120f5565b34610157576101fa6102f361089d3660046102c4565b61264a565b610197929190610919565b6108bd6101976101979260070b90565b61019e565b6101976101976101979261019e565b6101976101976101979290565b634e487b7160e01b600052601160045260246000fd5b8181029291811591840414171561090757565b6108de565b9190820180921161090757565b9061095461099061098a9261098a61097d6109546109776101979961093c600090565b5061097261096c610959610954600160ff1b946108ad565b6108c2565b610966600160801b6108d1565b906108f4565b916108d1565b61090c565b936108ad565b610966600160401b6108d1565b9061090c565b926108ad565b6109a39060005b506109fd565b929391929091565b6108bd6101976101979290565b6109c76101976101979261019e565b60070b90565b634e487b7160e01b600052601260045260246000fd5b906109ed565b9190565b9081156109f8570490565b6109cd565b90610a0f610a0a836109ab565b6109b8565b91610a31610a0a610a2c610a26600160401b6108d1565b846109e3565b6109ab565b91610197610a2c610a52610a0a82610a4c600160801b6108d1565b876109e3565b93610a60600160ff1b6108d1565b906109e3565b6101979493929190610b4a565b610a806101976101979290565b60ff1690565b6101976001610a73565b610197600f610a73565b610aa99060ff165b9160ff1690565b019060ff821161090757565b61019a9060ff1660f81b90565b60019392610adf602083610ad98295610ae7979052565b01918252565b018092610ab5565b0190565b634e487b7160e01b600052604160045260246000fd5b90601f01601f191681019081106001600160401b03821117610b2257604052565b610aeb565b610197906108d1565b81156109f8570690565b6101976101976101979260ff1690565b929093610b55600090565b50610b64610aa2610a80610a86565b03610c5657610b71610a90565b8091610c3b575b50610be76109e9610be1610bd1610b8f6006610a73565b610bb9610b9b60405190565b8092610bad60208301918d8d84610ac2565b90810382520382610b01565b610bcb610bc4825190565b9160200190565b20610b27565b610bdb60646108d1565b90610b30565b92610b3a565b10610bf95750505061019760006108d1565b610c2c610c3192610bb961019795610c116007610a73565b92610bad610c1e60405190565b948593602085019384610ac2565b610b30565b61098a60016108d1565b610c509150610c4a600a610a73565b90610a9a565b38610b78565b5050505061019760006108d1565b61019790610ceb565b6109c76101976101979290565b60070b60016001603f1b031981146109075760000390565b610ca19060070b5b9160070b90565b019060016001603f1b03821360016001603f1b031983121761090757565b610ccb9060070b610c9a565b9081156109f85760016001603f1b03198114600019831416610907570590565b610d5161019791610d03610cfd600090565b916109fd565b50939091600090610d1382610c6d565b610d1d8260070b90565b12610d9857610d39610d4991610d336004610c6d565b90610c92565b610d436009610c6d565b90610cbf565b935b50610c6d565b610d5b8260070b90565b12610d7757610d39610d7191610d336004610c6d565b90610919565b610d93610d39610d89610d7193610c7a565b610d336004610c6d565b610c7a565b610d93610d39610d89610daa93610c7a565b93610d4b565b610197929190610e7d565b610197600a610a73565b6108bd6101976101979260ff1690565b610de1610de79161019e565b9161019e565b0290610df28261019e565b91820361090757565b9190820391821161090757565b6101976019610a73565b610e1f6101976101979290565b61ffff1690565b6101976064610e12565b610e1f6101976101979260ff1690565b610e4c9060070b610c9a565b9081156109f8570790565b610e676101976101979260070b90565b60000b90565b610a806101976101979260000b90565b91610e8783611070565b908115610fb9575b5015610ea15750506101976006610a73565b610ec0610954610eb084610fd6565b610eba60096109ab565b90610dd5565b610eca60006108d1565b8111610fa0575b610ee46109e9610edf610e08565b610b3a565b10610f9457610f27610f1c610bad610bb9610f2c94610f03600c610a73565b90610f0d60405190565b93849260208401928a84610ac2565b610bdb6127106108d1565b610a73565b610f40610f3a610e1f610e26565b91610e30565b11610f8957610f51610197916109fd565b50915050610f84610f7e610f79610f74600194610f6e6005610c6d565b90610e40565b610e57565b610e6d565b91610a73565b610a9a565b506101976006610a73565b50506101976006610a73565b610fb490610fae60046108d1565b90610dfb565b610ed1565b9050610fce610de1610fc9610dbb565b610dc5565b101538610e8f565b610fe190600061099d565b50819050600083610ff182610c6d565b610ffb8260070b90565b1261105a575b5061100b90610c6d565b6110158260070b90565b1261104a575b506110268160070b90565b6110308360070b90565b13156110405750610197906108ad565b61019791506108ad565b6110549150610c7a565b3861101b565b61100b91945061106990610c7a565b9390611001565b61107b90600061099d565b50506000199161108a83610c6d565b6110948260070b90565b121592836110db575b50826110c2575b50816110ae575090565b90506110bd610c9a6001610c6d565b131590565b9091506110d2610c9a6001610c6d565b131590386110a4565b6110e6919350610c6d565b6110f08260070b90565b1215913861109d565b610432929190611118565b6101976002610a73565b6101976004610a73565b9092909161112660006108d1565b9361113f6111348686611317565b610a60610edf610e08565b85811461129f575b60029061118f61115f611159846108d1565b836109e3565b61098a83610c2c610bad610bb96111766064610a73565b8d61118060405190565b9384928d602085019384610ac2565b9587871461128d575b6111a0611104565b6111ac60ff8716610aa2565b14611265575b9161098a916111f3949360086111c7816108d1565b8311611245575b50610bb96111e86111e2610c2c94956108d1565b856109e3565b95610c116065610a73565b938414611233575b611210610aa2611209610a86565b9260ff1690565b1461121757565b916112309061098a61122a610edf61110e565b826109e3565b91565b925061123f60016108d1565b926111fb565b610c2c92506111e86111e261125c610bb9936108d1565b945050506111ce565b959161098a916112816111f3959461098a61122a610edf61110e565b979193945091506111b2565b955061129960016108d1565b95611198565b506112aa60016108d1565b611147565b6112bb9060070b610c9a565b90039060016001603f1b0319821260016001603f1b0383131761090757565b6101976101976101979260070b90565b600160ff1b81146109075760000390565b9190808303926000909112801582851316918412161761090757565b61134361133e61132c6113369361099d600090565b50509390946109fd565b5050946112af565b6112da565b91600091611350836108d1565b84126113f6575b61133e6113679261096c926112af565b81126113e8575b6001603f1b61137c816108d1565b83136113ca575b61138c906108d1565b81136113af575b808213156113a55750610197906108d1565b61019791506108d1565b6113c5906113c0600160401b6108d1565b6112fb565b611393565b9161138c906113e0906113c0600160401b6108d1565b929050611383565b6113f1906112ea565b61136e565b9261133e6113679261140a61096c936112ea565b959250925050611357565b6101979061142b565b610197600160ff1b6108d1565b61143661019761141e565b8103611447575061019760006108d1565b61145e6101979161145860006108d1565b90611317565b61097261096c600192610a60610edf610e08565b611480959493929190611487565b9192909190565b959492906114a3610432959361149b600090565b508289611af3565b966114ce565b6101976005610a73565b6101976003610a73565b60ff1660ff81146109075760010190565b949360006114e66114de88610ceb565b9594976109fd565b5050600093916114f8610c9a86610c6d565b1490816119b0575b501561152357505050505050611514611104565b9161151f6001610a73565b1790565b95909691929394965b60ff87165b60ff8716116119a657506115456003610a73565b611590610f2761158687610bb98a8d610bad8861156160405190565b95869460208601948592610adf6001610ae794610ad9602088610adf859b9a83999052565b610bdb60146108d1565b906115b261159e6001610a73565b85166115ad610aa26001610a73565b141590565b90818061197d575b156115eb575050506115316115e26115d0611104565b936115db6001610a73565b17966114bd565b9592905061152c565b6116076115f86002610a73565b86166115ad610aa26002610a73565b91828061192f575b1561163157505050506115316115e26116266114b3565b936115db6002610a73565b61164d61163e6004610a73565b87166115ad610aa26004610a73565b91828061188c575b156116785750505050506115316115e261166d61110e565b936115db6004610a73565b6116946116856008610a73565b88166115ad610aa26008610a73565b94856116d7575b50505050506000146116c0576115316115e26116b56114a9565b936115db6008610a73565b6115316115e26116d1969396610a86565b936114bd565b6116e691929394955060ff1690565b14928315611875575b8315611851575b831561182d575b8315611809575b83156117d8575b83156117a7575b8315611776575b831561172d575b505050388080808061169b565b9091925061173b604d610a73565b60ff891614928361176e575b5082611766575b508161175e575b50388080611720565b905038611755565b91503861174e565b925038611747565b9250611782604e610a73565b60ff891614806117a0575b80611799575b92611719565b5082611793565b508161178d565b92506117b3604e610a73565b60ff891614806117d1575b806117ca575b92611712565b50816117c4565b50806117be565b92506117e4604e610a73565b60ff89161480611802575b806117fb575b9261170b565b50826117f5565b50806117ef565b9250611815604f610a73565b60ff89161480611826575b92611704565b5081611820565b9250611839604f610a73565b60ff8916148061184a575b926116fd565b5082611844565b925061185d604f610a73565b60ff8916148061186e575b926116f6565b5080611868565b92506118816050610a73565b60ff891614926116ef565b506118976002610a73565b60ff861614801561191a575b80156118fd575b80156118e0575b8061165557506118c1604e610a73565b60ff8b1614806118d9575b8015611655575083611655565b50816118cc565b506118eb604f610a73565b60ff8b161480156118b15750836118b1565b50611908604f610a73565b60ff8b161480156118aa5750816118aa565b506119256050610a73565b60ff8b16146118a3565b5061193a6001610a73565b60ff8516148015611968575b8061160f5750611956604f610a73565b60ff8a1614801561160f57508061160f565b506119736050610a73565b60ff8a1614611946565b5061198786610a73565b60ff841614806115ba575061199c6050610a73565b60ff8916146115ba565b9650935093505050565b90506119be610c9a85610c6d565b1438611500565b6101976057610a73565b939190925b600182116119e0575050565b90919280820481116109075760018316611a02575b8002929160011c906119d4565b938402936119f5565b9291928115611a8e578015611a86578080600114611a7d57600214611a685760208210610133821016604e8310600b83101617611a5e5792611a519181939460016119cf565b8092048111610907570290565b0a91821161090757565b5060ff81116109075760020a91821161090757565b50600193505050565b506000925050565b506001925050565b61019791611aa9610aa260ff9360ff1690565b90611a0b565b6101976028610a73565b6101976000610a73565b611acf9060ff16610aa2565b90039060ff821161090757565b611ae89060ff16610aa2565b029060ff8216610df2565b90600092611b0084610a73565b90611b0961110e565b611b1560ff8316610aa2565b03611dcd575050611b26600f610a73565b925b611b53611b35606f610a73565b610bb9611b4160405190565b8092610bad6020830191888a84610ac2565b611b65610f27606492610bdb846108d1565b90611b82610a80611b74611aaf565b611b7d84610a73565b611ac3565b60ff83161015611d91575050611b9790610a73565b905b600491611ba583610a73565b60ff821610611bd657505061151f9150611bd1610f7e600f92611bcb610f7e6002610a73565b90611a96565b611adc565b6003611be181610a73565b60ff831603611c8c575050611c14610f27611c0b611c2e9495610bb9611c1e95610c116070610a73565b610bdb866108d1565b610c4a6001610a73565b611c286007610a73565b90611adc565b611c386015610a73565b60ff821603611c5c575061151f90611bd1610f7e600d92611bcb610f7e6002610a73565b611c69610aa2601c610a73565b14611c72575090565b61151f90611bd1610f7e600b92611bcb610f7e6002610a73565b9091600292611c9a84610a73565b60ff821603611d2c5750610f7e611c14610f27611cc7611cd1969798610bb9611c2896610c116070610a73565b610bdb60066108d1565b611cdb600f610a73565b60ff821603611cfd5750611bd1610f7e61151f93611bcb610f7e600595610a73565b611d0a610aa26012610a73565b14611d1457505090565b611bd1610f7e61151f93611bcb610f7e600a95610a73565b90929150611d3d610aa26001610a73565b14611d4a575b5050505090565b611bcb611d7a611d80611d7a610f27611d71611d8799610bb9611c2899610c116070610a73565b610bdb896108d1565b93610a73565b9283611a96565b1738808080611d43565b610aa2610a80611da692611b7d610f7e610dbb565b10159050611dbe57611db86001610a73565b90611b99565b611dc86002610a73565b611db8565b611dd89491946119c5565b90611de36001610a73565b91611e04611df060405190565b610bb98160208101610bad888b8d84610ac2565b90611e1d610aa2610a80610f27606495610bdb876108d1565b116120d3575b90849291611e2f611aaf565b611e64610aa2610a80610f27611e5b8c610bb9611e4c6002610a73565b9b8c92610bad610c1e60405190565b610bdb876108d1565b11611e73575b50505050611b28565b8690611e8198949598610e08565b87611e8c6003610a73565b91611eba610aa2610a80610f27611d71611ea560405190565b610bb9818c610bad8c8c602085019384610ac2565b1115611f735750505050611ecc611ab9565b611ed860ff8316610aa2565b148015611f58575b15611efe575050611ef16008610a73565b1717925b38808080611e6a565b9091959250611f0b610a86565b611f1760ff8316610aa2565b14908115611f41575b50611f2c575b50611ef5565b909317611f396004610a73565b179238611f26565b9050611f51610aa26112096114b3565b1438611f20565b50611f61611104565b611f6d60ff8316610aa2565b14611ee0565b610f27611f9d93610bdb61096c610f7e95610bb9610a809660329e9c9e9a610bad610c1e60405190565b111561203a57611fab611ab9565b611fb760ff8316610aa2565b03611fd15750509050611fca6008610a73565b1792611ef5565b611fd9610a86565b611fe560ff8316610aa2565b03611ff457505017925b611ef5565b909250611fff611104565b61200b60ff8316610aa2565b0361201857501792611ef5565b9094915061202a610aa26112096114b3565b03611fef5792611fca6004610a73565b612045939193611ab9565b61205160ff8316610aa2565b0361205f5750501792611ef5565b9091925061206b610a86565b61207760ff8316610aa2565b03612088575050611fca6004610a73565b612090611104565b61209c60ff8316610aa2565b036120ad575050611fca6008610a73565b6120be610aa26112099794976114b3565b146120c95750611ef5565b9093179238611f26565b955090816120eb85936120e66002610a73565b611a96565b9690919250611e23565b610197929190611af3565b61210990612143565b919394909293929190565b610197906121286109e96101979460ff1690565b901c90565b61213a6101976101979290565b63ffffffff1690565b9061215a610f2761215460f8610a73565b84612114565b9161216e61216860e8610a73565b82612114565b6121876121826201000092610bdb846108d1565b610e12565b936121ea6121826121b96121b46121a76121a160c8610a73565b88612114565b610bdb600160201b6108d1565b61212d565b93610bdb61096c6121d9612182611c0b6121d360b8610a73565b8b612114565b976121e460a8610a73565b90612114565b93565b610197959493929190612238565b6101979061220f6109e96101979460ff1690565b901b90565b6101976101976101979261ffff1690565b6101976101976101979263ffffffff1690565b6122b161228d61098a9561098a6122a761228d6101979b9a9761098a61229d610be161098a9a61098a6122936122bb9f61227d61228d91612277600090565b50610b3a565b61228760f8610a73565b906121fb565b92612214565b61228760e8610a73565b61228760e0610a73565b61228760d0610a73565b61228760c0610a73565b91612225565b6122ce9060005b506122da565b94959394929391929091565b906122eb610f2761215460f8610a73565b6122f861215460e8610a73565b61230c6121826201000092610bdb846108d1565b9361232b610f2761232061215460e0610a73565b610bdb6101006108d1565b936101976121b461236b61218261235a61218261235161234b60d0610a73565b89612114565b610bdb8a6108d1565b96610bdb61096c61234b60c0610a73565b93610bdb600160201b6108d1565b61238e61148091612388600090565b50610e30565b612438565b906101726123a060405190565b9283610b01565b6001600160401b038111610b225760200290565b6123c7610197916123a7565b612393565b634e487b7160e01b600052603260045260246000fd5b90600b8110156123f3576020020190565b6123cc565b6124099061ffff165b9161ffff1690565b019061ffff821161090757565b61019791611aa9610aa261ffff9361ffff1690565b6109ed9061ffff16612401565b9061256661255e612449600b6123bb565b612461600061245781610e12565b61ffff1690830152565b61247961246e600a610e12565b61ffff166020830152565b6124916124866031610e12565b61ffff166040830152565b6124a961249e6077610e12565b61ffff166060830152565b6124b661050160d0610e12565b6124cf6124c4610148610e12565b61ffff1660a0830152565b6124e86124dd61020c610e12565b61ffff1660c0830152565b6125016124f661033a610e12565b61ffff1660e0830152565b61251b61250f6104f5610e12565b61ffff16610100830152565b612535612529610e46610e12565b61ffff16610120830152565b61254f612543611aee610e12565b61ffff16610140830152565b61255885612214565b906123e2565b5161ffff1690565b9160089061257382610e12565b61ffff8216111561259557505061258b6101ec6108d1565b905b610197610dbb565b6125e9916125de6125d86125c86125b86125e4956125b36001610e12565b6123f8565b6125c26003610a73565b90612416565b6125d26005610e12565b9061242b565b91610e12565b906123f8565b612214565b9061258d565b61019791906126189061261361096c6126229461260a600090565b50600293611317565b6108f4565b610a6060056108d1565b61262c60006108d1565b8103610197575061019760016108d1565b6101979061019790612214565b6101979061266f6126229161265d600090565b5061261361096c60029261145861141e565b610a6060066108d1565b60001981146109075760010190565b91908110156123f3576020020190565b356101978161015c565b906126ad60006108d1565b91825b828410156126e6576126da6126e09161098a6126d56126d0888888612688565b612698565b6126ed565b93612679565b926126b0565b9250505090565b6126f89060006122c8565b50939150915060019161272d6124016127256125e461271c6002966125d288610e12565b6125b388610e12565b9561ffff1690565b1461273757505090565b610197929161097261096c6111e261098a946108d1565b6101979190611317565b61043291906127da916127d4610f276127926127746066610a73565b610bb961278060405190565b8092610bad6020830191898b84610ac2565b610bdb61096c610bad610bb96127b0610f27600996610bdb886108d1565b976127bb6067610a73565b906127c560405190565b93849260208401928d84610ac2565b916127fd565b9061019760026109ab565b6127f19060070b610c9a565b0290610df28260070b90565b610d7161019793610d33610a0a61285d6128639661285761286961284161283b61282c61283b9b61099d600090565b509d9160099491949d8e610c6d565b906127e5565b95610d33610a0a61285d6004996128578b610c6d565b906112af565b92610dc5565b9a610c6d565b91610c6d565b6101979161261361019792612882600090565b5061097261096c600192610a60600a6108d156fea264697066735822122041f4fbeca2d12742f854361aff4432345def4b764975da853386133d3d0f292e64736f6c63430008140033"
  },
  "solcInputHash": "dd8ef9e4cb12f6b7c300326f49f4b58b",
  "bytecode": "0x60806040523461001a576040516131ad61002082396131ad90f35b600080fdfe6080604052600436101561001257600080fd5b60003560e01c806322988b1d1461006257806363c753251461005d57806384fac0fc14610058578063f3aa2516146100535763f3f543ba0361006757610265565b610210565b6101aa565b610159565b6100f5565b600080fd5b6001600160a01b031690565b90565b6100848161006c565b0361006757565b905035906100988261007b565b565b6100789061006c565b6100848161009a565b90503590610098826100a3565b608081830312610067576100cd828261008b565b926100786100de84602085016100ac565b936100ec816040860161008b565b9360600161008b565b34610067576101116101083660046100b9565b92919091610472565b604051005b80610084565b9050359061009882610116565b909160608284031261006757610078610142848461011c565b93610150816020860161011c565b9360400161011c565b346100675761011161016c366004610129565b91610614565b801515610084565b9050359061009882610172565b919060408382031261006757610078906101a1818561008b565b9360200161017a565b34610067576101116101bd366004610187565b9061051d565b6001600160e01b03198116610084565b90503590610098826101c3565b9091606082840312610067576100786101f9848461008b565b9361020781602086016101d3565b9360400161017a565b34610067576101116102233660046101e0565b91610565565b6080818303126100675761023d82826100ac565b9261007861024e84602085016100ac565b9361025c81604086016100ac565b936060016100ac565b3461006757610111610278366004610229565b9291909161074a565b610078905461006c565b0190565b1561029657565b60405162461bcd60e51b815260206004820152602c60248201527f4f6e6c79206f776e657220697320616c6c6f77656420746f20706572666f726d60448201526b103a3434b99030b1ba34b7b760a11b6064820152608490fd5b906100989392916103266103026104b4565b61032061031a6103156004339401610281565b61006c565b9161006c565b1461028f565b6103d4565b906001600160a01b03905b9181191691161790565b6100789061006c906001600160a01b031682565b61007890610340565b61007890610354565b9061037661007861037d9261035d565b825461032b565b9055565b634e487b7160e01b600052604160045260246000fd5b90601f01601f191681019081106001600160401b038211176103b857604052565b610381565b600091031261006757565b6040513d6000823e3d90fd5b9291506103eb906103e681600a610366565b61035d565b631aa3a00890803b15610067576104119160009161040860405190565b93849260e01b90565b8252600490829084905af1801561046d57610098936104409261043992610447575b5061035d565b6005610366565b6004610366565b6104609060005b6104588183610397565b8101906103bd565b38610433565b503d61044e565b6103c8565b906100989392916102f0565b6100786100786100789290565b6100787fc8fcad8db84d3cc18b4c41d551ea0ee66dd599cde068d998e57d5e09332c131c61047e565b61007861048b565b90610098916104cc6103026104b4565b610509565b906104db9061035d565b600052602052604060002090565b9060ff90610336565b9061050261007861037d92151590565b82546104e9565b9061051861009892600f6104d1565b6104f2565b90610098916104bc565b9061009892916105386103026104b4565b61054d565b906001600160e01b0319166104db565b61009892916105606105189260106104d1565b61053d565b906100989291610527565b9061009892916105816103026104b4565b6105ab565b9052565b9081526060810193926100989290916040916105a7906020830152565b0152565b9190916105bb6103e66007610281565b6302acc94b813b156100675760006105e8916105f382966105db60405190565b9889978896879560e01b90565b85526004850161058a565b03925af1801561046d576106045750565b6100989060006104588183610397565b906100989291610570565b906100989392916106316103026104b4565b6106c2565b610078600160ff1b61047e565b906104db9061047e565b6100789060d01c5b60ff1690565b610078905461064d565b6106556100786100789290565b1561067957565b60405162461bcd60e51b8152602060048201526017602482015276191d5b99d95bdb88185b1c9958591e481cdd185c9d1959604a1b6044820152606490fd5b6100786004610665565b916106e06106e7926106d96106ee96956006610366565b6007610366565b6008610366565b6009610366565b6100986001610713600061070d610078610706610636565b8095610643565b0161065b565b9061073360009261072d61072685610665565b9160ff1690565b14610672565b61074461073e6106b8565b9261047e565b90610a3f565b9061009893929161061f565b6100789081565b6100789054610756565b6100789060181c610655565b6100789054610767565b9062ff00009060101b610336565b6106556100786100789260ff1690565b906107ab61007861037d9261078b565b825461077d565b9060001990610336565b906107cc61007861037d9261047e565b82546107b2565b6100786008610665565b6100786100786100789260ff1690565b610586906107dd565b9081526060810193926100989290916040916105a79060208301906107ed565b6001600160401b031690565b61008481610816565b9050519061009882610822565b90602082820312610067576100789161082b565b906001600160401b0390610336565b61086a61007861007892610816565b610816565b9061087f61007861037d9261085b565b825461084c565b90600160401b600160801b039060401b610336565b906108ab61007861037d9261085b565b8254610886565b9060ff60c01b9060c01b610336565b906108d161007861037d9261078b565b82546108b2565b6100789060081c610655565b61007890546108d8565b9060ff60d81b9060d81b610336565b9061090d61007861037d9261078b565b82546108ee565b634e487b7160e01b600052601160045260246000fd5b60ff1660ff811461093b5760010190565b610914565b9063ff0000009060181b610336565b9061095f61007861037d9261078b565b8254610940565b9060ff60e81b9060e81b610336565b9061098561007861037d9261078b565b8254610966565b6100789060101c610655565b610078905461098c565b9060ff60e01b9060e01b610336565b906109c161007861037d9261078b565b82546109a2565b9050519061009882610116565b9060208282031261006757610078916109c8565b9081526040810192916100989160200152565b6100789060c01c610655565b61007890546109fc565b61058690610816565b916020610098929493610a3660408201966000830190610a12565b019060ff169052565b90610a576100786002610a51856127a5565b90610643565b9260018401610a658161075d565b90600091610a79610a758461047e565b9190565b11610d6b575b50610a8d6103e66007610281565b9463c9b902e3610a9b6107d3565b610aa487611bfb565b97803b1561006757610acb858094610ad7610abe60405190565b9c8d968795869460e01b90565b84528c600485016107f6565b03925af195861561046d57610b2396610d4f575b50600190610afc6100788784610643565b6020610b0b6103e66005610281565b63338cdca190610b1a60405190565b9a8b9260e01b90565b8252600490829088905af197881561046d578498610d15575b5090858383868a96950197610b518c8a61086f565b610b5b8c8a61089b565b610b6590896108c1565b868401610b71816108e4565b610b7b908a6108fd565b610b8481610773565b610b8d8161092a565b610b97908361094f565b610ba1908a610975565b610baa90610998565b610bb490896109b1565b0190610bbf916107bc565b0190610bca916107bc565b610bd46006610281565b610bdd9061035d565b633038bb08610beb60405190565b8095610bf8829360e01b90565b82526004909101526024815a93602094fa92831561046d578193610ce5575b50610c2183611800565b610c2e6103e66009610281565b92636611a8d490843b1561006757610c6894610c5c848094610c4f60405190565b9889958694859360e01b90565b83528b600484016109e9565b03925af192831561046d57610c8393610cc8575b5050610a08565b610cad7fa97399cd19a5b00b49b7d10d188180e100139a0501c9c9b4fe21dab5b915162f9261047e565b92610cc3610cba60405190565b92839283610a1b565b0390a2565b81610cde92903d10610466576104588183610397565b3880610c7c565b610d0791935060203d8111610d0e575b610cff8183610397565b8101906109d5565b9138610c17565b503d610cf5565b83889493929950610d3d889260203d8111610d48575b610d358183610397565b810190610838565b999293509350610b3c565b503d610d2b565b610d6590833d8511610466576104588183610397565b38610aeb565b80610d80610d7b610da49361075d565b610f42565b610d95838801610d8f81610773565b9061079b565b610d9e8361047e565b906107bc565b38610a7f565b61007890610816565b6100789054610daa565b61086a6100786100789290565b15610dd157565b60405162461bcd60e51b81526020600482015260146024820152731c9bdbdb481b9bdd0818dc99585d1959081e595d60621b6044820152606490fd5b61007861007861007892610816565b61058690610e0d565b6020810192916100989190610e1c565b6100789060d81c610655565b6100789054610e35565b6100789060e01c610655565b6100789054610e4b565b6100789060e81c610655565b6100789054610e61565b9060ff60c81b9060c81b610336565b90610e9661007861037d9261078b565b8254610e77565b9060ff60d01b9060d01b610336565b90610ebc61007861037d9261078b565b8254610e9d565b9061ff009060081b610336565b90610ee061007861037d9261078b565b8254610ec3565b90815260ff909116602082015260608101929161009891604090610a36565b61007890610655565b6100789054610f06565b6105869061047e565b9081526060810193926100989290916040916105a7906020830190610f19565b600190610f526100788284610643565b610f5b81610db3565b90610f7a600092610f74610f6e85610dbd565b91610816565b11610dca565b81810193610f878561065b565b610f9361072685610665565b14610faf575b5050506100989150610faa906127a5565b611542565b610ff793946020610fc36103e66005610281565b639507d39a90610fec610fd585610db3565b92610fdf60405190565b998a948593849360e01b90565b835260048301610e25565b03915afa94851561046d578495611280575b506110138461047e565b851461127857836110f66110fc9261102b888a611309565b61107261105e8a61103b84610a08565b61104485610e41565b61104d86610e57565b918d61105888610e6d565b94611cda565b92908461106d84839597610e86565b610eac565b8a61107c816127a5565b936002938761108e6100788888610643565b0190611099826108e4565b6110a560ff8316610726565b03611268575b50508b6110ee6110db7f8850140926f0260fe1b422b7a0d93e7d5734e521eae9ac8969ed512cc38345159461047e565b946110e560405190565b93849384610ee7565b0390a2610643565b01610f0f565b9101926111088461075d565b611114610a758561047e565b03611122575b849350610f99565b61114d906111468461113e6111398899979861075d565b611455565b015160ff1690565b9084611a5f565b61115a6005939293610665565b60ff831611156111f5575b50506111746103e66007610281565b6111826302acc94b9561075d565b90600695813b1561006757856111ad916111b882966111a060405190565b9a8b978896879560e01b90565b855260048501610f22565b03925af191821561046d5761009893610faa936111d8575b82945061111a565b816111ee92903d10610466576104588183610397565b38806111d0565b6112026103e66007610281565b6302acc94b906112118861075d565b91813b15610067578761122c9161123782966105db60405190565b8552600485016107f6565b03925af1801561046d5761124c575b80611165565b61126290843d8611610466576104588183610397565b38611246565b61127191610ed0565b38806110ab565b505050505050565b61129991955060203d8111610d0e57610cff8183610397565b9338611009565b6100789060401c610816565b61007890546112a0565b9061050261007861037d9261078b565b634e487b7160e01b600052601260045260246000fd5b81156112e6570490565b6112c6565b610f6e6112f791610816565b01906001600160401b03821161093b57565b611312906127a5565b60029061132460006110f68385610643565b9160009261133461072685610665565b14611340575b50505050565b61136e908360030193611368611360611358876112ac565b809887612344565b948593610643565b016112b6565b61137b6107266006610665565b03611388575b808061133a565b6113a66113a14261139b6201437061047e565b906112dc565b610dbd565b916113b082610db3565b6113bc610f6e85610816565b146113e657506113cf6113df928261086f565b6113d96001610dbd565b9061089b565b3880611381565b6113ff92506113d9906113f96001610dbd565b906112eb565b6113df565b9061009861141160405190565b9283610397565b61007860a0611404565b61142a611418565b906000825260208080808086016000815201600081520160008152016000905250565b610078611422565b602061149d9161146361144d565b506114716103e66006610281565b61148f630178fe3f61148260405190565b9586948593849360e01b90565b835260048301526024820190565b03915afa801561046d576114eb6115036114c6610078936114f89560009161150e575b506130cd565b9792959091936114e06114d7611418565b60ff909a168a52565b61ffff166020890152565b63ffffffff166040870152565b61ffff166060850152565b61ffff166080830152565b611526915060203d8111610d0e57610cff8183610397565b386114c0565b6100789060801c610816565b610078905461152c565b6002806115526100788483610643565b019061155d82610db3565b9060009061156a82610dbd565b61157384610816565b03611580575b5050505050565b60206115b1936115936103e66005610281565b610fec639507d39a6115a460405190565b9788948593849360e01b90565b03915afa92831561046d5782936116b0575b506115cd8261047e565b8314611579576115e36116399361163f96611c4d565b90836115fc6100786115f4846116d0565b936001610643565b84810194611615610f6e61160f88610db3565b92610dbd565b14159283611690575b83611679575b5082611659575b5050611649575b5050610dbd565b9061086f565b3880808080611579565b6116529161086f565b3880611632565b61166492500161065b565b61167061072685610665565b1415833861162b565b909250611688610a758361047e565b149138611624565b925061169d828201611538565b6116a9610f6e84610dbd565b149261161e565b6116c991935060203d8111610d0e57610cff8183610397565b91386115c3565b60016116e760006116e18484610643565b016112ac565b916000906116f482610dbd565b6116fd85610816565b146117be5761172360206117146103e66005610281565b639507d39a9061040860405190565b825281806117348a60048301610e25565b03915afa90811561046d5783916117a0575b506117508361047e565b81146117925761178c6117866100789661177a610f6e61086a88611774898c610643565b01610db3565b149461070d8588610643565b9461047e565b91611931565b50509050610078915061047e565b6117b8915060203d8111610d0e57610cff8183610397565b38611746565b509050610078915061047e565b61006c6100786100789290565b9190820180921161093b57565b9160206100989294936105a760408201966000830190610f19565b61181161180c826117cb565b610354565b600091611820610a758461047e565b14158061189a575b611830575050565b611846426118406206978061047e565b906117d8565b61185a8161185584600d6104d1565b6107bc565b6118847fc24affdb20f6529973515c5398461c1f6228edbfac531ab49e56a11433a86c9f9261035d565b92610cc361189160405190565b928392836117e5565b506118ae6118a982600d6104d1565b61075d565b6118ba610a758461047e565b14611828565b6100786001610665565b610078600f610665565b6118e09060ff16610726565b019060ff821161093b57565b6105869060ff1660f81b90565b60019392611916602083611910829561028b979052565b01918252565b0180926118ec565b6100789061047e565b81156112e6570690565b92909361193c600090565b5061194b6107266106556118c0565b03611a3d576119586118ca565b8091611a22575b506119ce610a756119c86119b86119766006610665565b6119a061198260405190565b809261199460208301918d8d846118f9565b90810382520382610397565b6119b26119ab825190565b9160200190565b2061191e565b6119c2606461047e565b90611927565b926107dd565b106119e057505050610078600061047e565b611a13611a18926119a0610078956119f86007610665565b92611994611a0560405190565b9485936020850193846118f9565b611927565b611840600161047e565b611a379150611a31600a610665565b906118d4565b3861195f565b50505050610078600061047e565b6100786019610665565b6100786002610665565b90929091611a6d600061047e565b93611a8b611a7b8686612500565b61139b611a86611a4b565b6107dd565b858114611beb575b600290611adb611aab611aa58461047e565b836112dc565b61184083611a136119946119a0611ac26064610665565b8d611acc60405190565b9384928d6020850193846118f9565b95878714611bd9575b611aec611a55565b611af860ff8716610726565b14611bb1575b9161184091611b3f94936008611b138161047e565b8311611b91575b506119a0611b34611b2e611a13949561047e565b856112dc565b956119f86065610665565b938414611b7f575b611b5c610726611b556118c0565b9260ff1690565b14611b6357565b91611b7c90611840611b76611a866106b8565b826112dc565b91565b9250611b8b600161047e565b92611b47565b611a139250611b34611b2e611ba86119a09361047e565b94505050611b1a565b959161184091611bcd611b3f9594611840611b76611a866106b8565b97919394509150611afe565b9550611be5600161047e565b95611ae4565b50611bf6600161047e565b611a93565b611c06610078610636565b8103611c175750610078600061047e565b611c2e61007891611c28600061047e565b90612500565b611c48611c4260019261139b611a86611a4b565b9161047e565b6117d8565b611ccf91611cc9611ca0611c82611c646066610665565b6119a0611c7060405190565b80926119946020830191898b846118f9565b6119c2611c426119946119a0611ca5611ca06009966119c28861047e565b610665565b97611cb06067610665565b90611cba60405190565b93849260208401928d846118f9565b916128fc565b906100786002610dbd565b95949290611cf6611cfc9593611cee600090565b508289612a9c565b96611d27565b9091565b611d0d6100786100789290565b60070b90565b6100786005610665565b6100786003610665565b94936000611d3f611d37886127a5565b959497612234565b505060009391611d58611d5186611d00565b9160070b90565b149081612210575b5015611d8357505050505050611d74611a55565b91611d7f6001610665565b1790565b95909691929394965b60ff87165b60ff8716116122065750611da56003610665565b611df0611ca0611de6876119a08a8d61199488611dc160405190565b95869460208601948592611916600161028b94611910602088611916859b9a83999052565b6119c2601461047e565b90611e12611dfe6001610665565b8516611e0d6107266001610665565b141590565b9081806121dd575b15611e4b57505050611d91611e42611e30611a55565b93611e3b6001610665565b179661092a565b95929050611d8c565b611e67611e586002610665565b8616611e0d6107266002610665565b91828061218f575b15611e915750505050611d91611e42611e86611d1d565b93611e3b6002610665565b611ead611e9e6004610665565b8716611e0d6107266004610665565b9182806120ec575b15611ed8575050505050611d91611e42611ecd6106b8565b93611e3b6004610665565b611ef4611ee56008610665565b8816611e0d6107266008610665565b9485611f37575b5050505050600014611f2057611d91611e42611f15611d13565b93611e3b6008610665565b611d91611e42611f319693966118c0565b9361092a565b611f4691929394955060ff1690565b149283156120d5575b83156120b1575b831561208d575b8315612069575b8315612038575b8315612007575b8315611fd6575b8315611f8d575b5050503880808080611efb565b90919250611f9b604d610665565b60ff8916149283611fce575b5082611fc6575b5081611fbe575b50388080611f80565b905038611fb5565b915038611fae565b925038611fa7565b9250611fe2604e610665565b60ff89161480612000575b80611ff9575b92611f79565b5082611ff3565b5081611fed565b9250612013604e610665565b60ff89161480612031575b8061202a575b92611f72565b5081612024565b508061201e565b9250612044604e610665565b60ff89161480612062575b8061205b575b92611f6b565b5082612055565b508061204f565b9250612075604f610665565b60ff89161480612086575b92611f64565b5081612080565b9250612099604f610665565b60ff891614806120aa575b92611f5d565b50826120a4565b92506120bd604f610665565b60ff891614806120ce575b92611f56565b50806120c8565b92506120e16050610665565b60ff89161492611f4f565b506120f76002610665565b60ff861614801561217a575b801561215d575b8015612140575b80611eb55750612121604e610665565b60ff8b161480612139575b8015611eb5575083611eb5565b508161212c565b5061214b604f610665565b60ff8b16148015612111575083612111565b50612168604f610665565b60ff8b1614801561210a57508161210a565b506121856050610665565b60ff8b1614612103565b5061219a6001610665565b60ff85161480156121c8575b80611e6f57506121b6604f610665565b60ff8a16148015611e6f575080611e6f565b506121d36050610665565b60ff8a16146121a6565b506121e786610665565b60ff84161480611e1a57506121fc6050610665565b60ff891614611e1a565b9650935093505050565b905061221e611d5185611d00565b1438611d60565b611d0d61007861007892610816565b9061224661224183610dbd565b612225565b916122636122416113a161225d600160401b61047e565b846112dc565b916100786113a16122846122418261227e600160801b61047e565b876112dc565b9361139b600160ff1b61047e565b610078600a610665565b61086a6100786100789260ff1690565b610f6e6122b891610816565b02906122c382610816565b91820361093b57565b9190820391821161093b57565b6122e66100786100789290565b61ffff1690565b61007860646122d9565b6122e66100786100789260ff1690565b6123139060070b611d51565b9081156112e6570790565b61232e6100786100789260070b90565b60000b90565b6106556100786100789260000b90565b9161234e836126c6565b90811561247b575b50156123685750506100786006610665565b61238c6123876123778461262c565b6123816009610dbd565b906122ac565b610e0d565b612396600061047e565b8111612462575b6123ab610a75611a86611a4b565b1061245657611ca06123e36119946119a06123ee946123ca600c610665565b906123d460405190565b93849260208401928a846118f9565b6119c261271061047e565b6124026123fc6122e66122ed565b916122f7565b1161244b5761241361007891612234565b5091505061244661244061243b6124366001946124306005611d00565b90612307565b61231e565b612334565b91610665565b6118d4565b506100786006610665565b50506100786006610665565b61247690612470600461047e565b906122cc565b61239d565b9050612490610f6e61248b612292565b61229c565b101538612356565b6124a49060070b611d51565b90039060016001603f1b0319821260016001603f1b0383131761093b57565b6100786100786100789260070b90565b600160ff1b811461093b5760000390565b9190808303926000909112801582851316918412161761093b57565b61253261252d61251b61252593612515600090565b50612234565b5050939094612234565b505094612498565b6124c3565b9160009161253f8361047e565b84126125e5575b61252d61255692611c4292612498565b81126125d7575b6001603f1b61256b8161047e565b83136125b9575b61257b9061047e565b811361259e575b8082131561259457506100789061047e565b610078915061047e565b6125b4906125af600160401b61047e565b6124e4565b612582565b9161257b906125cf906125af600160401b61047e565b929050612572565b6125e0906124d3565b61255d565b9261252d612556926125f9611c42936124d3565b959250925050612546565b60070b60016001603f1b0319811461093b5760000390565b61086a6100786100789260070b90565b612637906000612515565b5081905060008361264782611d00565b6126518260070b90565b126126b0575b5061266190611d00565b61266b8260070b90565b126126a0575b5061267c8160070b90565b6126868360070b90565b131561269657506100789061261c565b610078915061261c565b6126aa9150612604565b38612671565b6126619194506126bf90612604565b9390612657565b6126d1906000612515565b5050600019916126e083611d00565b6126ea8260070b90565b12159283612731575b5082612718575b5081612704575090565b9050612713611d516001611d00565b131590565b909150612728611d516001611d00565b131590386126fa565b61273c919350611d00565b6127468260070b90565b121591386126f3565b61275b9060070b611d51565b019060016001603f1b03821360016001603f1b031983121761093b57565b6127859060070b611d51565b9081156112e65760016001603f1b0319811460001983141661093b570590565b61280b610078916127bd6127b7600090565b91612234565b509390916000906127cd82611d00565b6127d78260070b90565b12612852576127f3612803916127ed6004611d00565b9061274f565b6127fd6009611d00565b90612779565b935b50611d00565b6128158260070b90565b12612831576127f361282b916127ed6004611d00565b9061287d565b61284d6127f361284361282b93612604565b6127ed6004611d00565b612604565b61284d6127f361284361286493612604565b93612805565b8181029291811591840414171561093b57565b906123876128de611840926118406128d16123876128cb610078996128a0600090565b50611c48611c426128b8612387600160ff1b9461261c565b6128c5600160801b61047e565b9061286a565b9361261c565b6128c5600160401b61047e565b9261261c565b6128f09060070b611d51565b02906122c38260070b90565b61282b610078936127ed61224161295c6129629661295661296861294061293a61292b61293a9b612515600090565b509d9160099491949d8e611d00565b906128e4565b956127ed61224161295c6004996129568b611d00565b90612498565b9261229c565b9a611d00565b91611d00565b6100786057610665565b939190925b60018211612989575050565b909192808204811161093b57600183166129ab575b8002929160011c9061297d565b9384029361299e565b9291928115612a37578015612a2f578080600114612a2657600214612a115760208210610133821016604e8310600b83101617612a0757926129fa918193946001612978565b809204811161093b570290565b0a91821161093b57565b5060ff811161093b5760020a91821161093b57565b50600193505050565b506000925050565b506001925050565b61007891612a5261072660ff9360ff1690565b906129b4565b6100786028610665565b6100786000610665565b612a789060ff16610726565b90039060ff821161093b57565b612a919060ff16610726565b029060ff82166122c3565b90600092612aa984610665565b90612ab26106b8565b612abe60ff8316610726565b03612d76575050612acf600f610665565b925b612afc612ade606f610665565b6119a0612aea60405190565b80926119946020830191888a846118f9565b612b0e611ca06064926119c28461047e565b90612b2b610655612b1d612a58565b612b2684610665565b612a6c565b60ff83161015612d3a575050612b4090610665565b905b600491612b4e83610665565b60ff821610612b7f575050611d7f9150612b7a612440600f92612b746124406002610665565b90612a3f565b612a85565b6003612b8a81610665565b60ff831603612c35575050612bbd611ca0612bb4612bd794956119a0612bc7956119f86070610665565b6119c28661047e565b611a316001610665565b612bd16007610665565b90612a85565b612be16015610665565b60ff821603612c055750611d7f90612b7a612440600d92612b746124406002610665565b612c12610726601c610665565b14612c1b575090565b611d7f90612b7a612440600b92612b746124406002610665565b9091600292612c4384610665565b60ff821603612cd55750612440612bbd611ca0612c70612c7a9697986119a0612bd1966119f86070610665565b6119c2600661047e565b612c84600f610665565b60ff821603612ca65750612b7a612440611d7f93612b74612440600595610665565b612cb36107266012610665565b14612cbd57505090565b612b7a612440611d7f93612b74612440600a95610665565b90929150612ce66107266001610665565b14612cf3575b5050505090565b612b74612d23612d29612d23611ca0612d1a612d30996119a0612bd1996119f86070610665565b6119c28961047e565b93610665565b9283612a3f565b1738808080612cec565b610726610655612d4f92612b26612440612292565b10159050612d6757612d616001610665565b90612b42565b612d716002610665565b612d61565b612d8194919461296e565b90612d8c6001610665565b91612dad612d9960405190565b6119a08160208101611994888b8d846118f9565b90612dc6610726610655611ca06064956119c28761047e565b1161307c575b90849291612dd8612a58565b612e0d610726610655611ca0612e048c6119a0612df56002610665565b9b8c92611994611a0560405190565b6119c28761047e565b11612e1c575b50505050612ad1565b8690612e2a98949598611a4b565b87612e356003610665565b91612e63610726610655611ca0612d1a612e4e60405190565b6119a0818c6119948c8c6020850193846118f9565b1115612f1c5750505050612e75612a62565b612e8160ff8316610726565b148015612f01575b15612ea7575050612e9a6008610665565b1717925b38808080612e13565b9091959250612eb46118c0565b612ec060ff8316610726565b14908115612eea575b50612ed5575b50612e9e565b909317612ee26004610665565b179238612ecf565b9050612efa610726611b55611d1d565b1438612ec9565b50612f0a611a55565b612f1660ff8316610726565b14612e89565b611ca0612f46936119c2611c42612440956119a06106559660329e9c9e9a611994611a0560405190565b1115612fe357612f54612a62565b612f6060ff8316610726565b03612f7a5750509050612f736008610665565b1792612e9e565b612f826118c0565b612f8e60ff8316610726565b03612f9d57505017925b612e9e565b909250612fa8611a55565b612fb460ff8316610726565b03612fc157501792612e9e565b90949150612fd3610726611b55611d1d565b03612f985792612f736004610665565b612fee939193612a62565b612ffa60ff8316610726565b036130085750501792612e9e565b909192506130146118c0565b61302060ff8316610726565b03613031575050612f736004610665565b613039611a55565b61304560ff8316610726565b03613056575050612f736008610665565b613067610726611b55979497611d1d565b146130725750612e9e565b9093179238612ecf565b95509081613094859361308f6002610665565b612a3f565b9690919250612dcc565b610078906130b2610a756100789460ff1690565b901c90565b6130c46100786100789290565b63ffffffff1690565b906130e4611ca06130de60f8610665565b8461309e565b916130f86130f260e8610665565b8261309e565b61311161310c62010000926119c28461047e565b6122d9565b9361317461310c61314361313e61313161312b60c8610665565b8861309e565b6119c2600160201b61047e565b6130b7565b936119c2611c4261316361310c612bb461315d60b8610665565b8b61309e565b9761316e60a8610665565b9061309e565b9356fea264697066735822122092e49829d58f45c6d45eec91cadb51cfaec4eb5386a7998aa3b5a0b0f4f960f664736f6c63430008140033",
  "devdoc": {
    "kind": "dev",
    "methods": {},
    "version": 1
  },
  "userdoc": {
    "kind": "user",
    "methods": {
      "setAllowedForwardSelector(address,bytes4,bool)": {
        "notice": "Whitelist a specific function selector on an allowed forward target. Selector-level gating prevents a compromised target whitelist from granting arbitrary calls — operators must opt in to each selector explicitly."
      }
    },
    "version": 1
  },
  "storageLayout": {
    "storage": [
      {
        "astId": 3448,
        "contract": "src/dungeon/DungeonOwnerFacet.sol:DungeonOwnerFacet",
        "label": "_characters",
        "offset": 0,
        "slot": "0",
        "type": "t_mapping(t_uint256,t_struct(Character)3430_storage)"
      },
      {
        "astId": 3453,
        "contract": "src/dungeon/DungeonOwnerFacet.sol:DungeonOwnerFacet",
        "label": "_rooms",
        "offset": 0,
        "slot": "1",
        "type": "t_mapping(t_uint256,t_struct(Room)3413_storage)"
      },
      {
        "astId": 3458,
        "contract": "src/dungeon/DungeonOwnerFacet.sol:DungeonOwnerFacet",
        "label": "_areas",
        "offset": 0,
        "slot": "2",
        "type": "t_mapping(t_uint256,t_struct(Area)3443_storage)"
      },
      {
        "astId": 3466,
        "contract": "src/dungeon/DungeonOwnerFacet.sol:DungeonOwnerFacet",
        "label": "_areaCounter",
        "offset": 0,
        "slot": "3",
        "type": "t_struct(AreaCounter)3463_storage"
      },
      {
        "astId": 3468,
        "contract": "src/dungeon/DungeonOwnerFacet.sol:DungeonOwnerFacet",
        "label": "_adminContract",
        "offset": 0,
        "slot": "4",
        "type": "t_address"
      },
      {
        "astId": 3471,
        "contract": "src/dungeon/DungeonOwnerFacet.sol:DungeonOwnerFacet",
        "label": "_blockHashRegister",
        "offset": 0,
        "slot": "5",
        "type": "t_contract(BlockHashRegister)14269"
      },
      {
        "astId": 3474,
        "contract": "src/dungeon/DungeonOwnerFacet.sol:DungeonOwnerFacet",
        "label": "_charactersContract",
        "offset": 0,
        "slot": "6",
        "type": "t_contract(Characters)743"
      },
      {
        "astId": 3477,
        "contract": "src/dungeon/DungeonOwnerFacet.sol:DungeonOwnerFacet",
        "label": "_elementsContract",
        "offset": 0,
        "slot": "7",
        "type": "t_contract(Elements)13818"
      },
      {
        "astId": 3480,
        "contract": "src/dungeon/DungeonOwnerFacet.sol:DungeonOwnerFacet",
        "label": "_gearsContract",
        "offset": 0,
        "slot": "8",
        "type": "t_contract(Gears)13837"
      },
      {
        "astId": 3483,
        "contract": "src/dungeon/DungeonOwnerFacet.sol:DungeonOwnerFacet",
        "label": "_roomsContract",
        "offset": 0,
        "slot": "9",
        "type": "t_contract(Rooms)13904"
      },
      {
        "astId": 3486,
        "contract": "src/dungeon/DungeonOwnerFacet.sol:DungeonOwnerFacet",
        "label": "_playerContract",
        "offset": 0,
        "slot": "10",
        "type": "t_contract(Player)11695"
      },
      {
        "astId": 3494,
        "contract": "src/dungeon/DungeonOwnerFacet.sol:DungeonOwnerFacet",
        "label": "_unlockedExits",
        "offset": 0,
        "slot": "11",
        "type": "t_mapping(t_uint256,t_mapping(t_uint256,t_mapping(t_uint256,t_bool)))"
      },
      {
        "astId": 3506,
        "contract": "src/dungeon/DungeonOwnerFacet.sol:DungeonOwnerFacet",
        "label": "_quests",
        "offset": 0,
        "slot": "12",
        "type": "t_mapping(t_uint256,t_mapping(t_uint64,t_struct(Quest)3499_storage))"
      },
      {
        "astId": 3510,
        "contract": "src/dungeon/DungeonOwnerFacet.sol:DungeonOwnerFacet",
        "label": "_taxDueDate",
        "offset": 0,
        "slot": "13",
        "type": "t_mapping(t_address,t_uint256)"
      },
      {
        "astId": 3514,
        "contract": "src/dungeon/DungeonOwnerFacet.sol:DungeonOwnerFacet",
        "label": "_customRoomNames",
        "offset": 0,
        "slot": "14",
        "type": "t_mapping(t_uint256,t_string_storage)"
      },
      {
        "astId": 3518,
        "contract": "src/dungeon/DungeonOwnerFacet.sol:DungeonOwnerFacet",
        "label": "_allowedForwardTargets",
        "offset": 0,
        "slot": "15",
        "type": "t_mapping(t_address,t_bool)"
      },
      {
        "astId": 3524,
        "contract": "src/dungeon/DungeonOwnerFacet.sol:DungeonOwnerFacet",
        "label": "_allowedForwardSelectors",
        "offset": 0,
        "slot": "16",
        "type": "t_mapping(t_address,t_mapping(t_bytes4,t_bool))"
      }
    ],
    "types": {
      "t_address": {
        "encoding": "inplace",
        "label": "address",
        "numberOfBytes": "20"
      },
      "t_bool": {
        "encoding": "inplace",
        "label": "bool",
        "numberOfBytes": "1"
      },
      "t_bytes4": {
        "encoding": "inplace",
        "label": "bytes4",
        "numberOfBytes": "4"
      },
      "t_contract(BlockHashRegister)14269": {
        "encoding": "inplace",
        "label": "contract BlockHashRegister",
        "numberOfBytes": "20"
      },
      "t_contract(Characters)743": {
        "encoding": "inplace",
        "label": "contract Characters",
        "numberOfBytes": "20"
      },
      "t_contract(Elements)13818": {
        "encoding": "inplace",
        "label": "contract Elements",
        "numberOfBytes": "20"
      },
      "t_contract(Gears)13837": {
        "encoding": "inplace",
        "label": "contract Gears",
        "numberOfBytes": "20"
      },
      "t_contract(Player)11695": {
        "encoding": "inplace",
        "label": "contract Player",
        "numberOfBytes": "20"
      },
      "t_contract(Rooms)13904": {
        "encoding": "inplace",
        "label": "contract Rooms",
        "numberOfBytes": "20"
      },
      "t_int64": {
        "encoding": "inplace",
        "label": "int64",
        "numberOfBytes": "8"
      },
      "t_mapping(t_address,t_bool)": {
        "encoding": "mapping",
        "key": "t_address",
        "label": "mapping(address => bool)",
        "numberOfBytes": "32",
        "value": "t_bool"
      },
      "t_mapping(t_address,t_mapping(t_bytes4,t_bool))": {
        "encoding": "mapping",
        "key": "t_address",
        "label": "mapping(address => mapping(bytes4 => bool))",
        "numberOfBytes": "32",
        "value": "t_mapping(t_bytes4,t_bool)"
      },
      "t_mapping(t_address,t_uint256)": {
        "encoding": "mapping",
        "key": "t_address",
        "label": "mapping(address => uint256)",
        "numberOfBytes": "32",
        "value": "t_uint256"
      },
      "t_mapping(t_bytes4,t_bool)": {
        "encoding": "mapping",
        "key": "t_bytes4",
        "label": "mapping(bytes4 => bool)",
        "numberOfBytes": "32",
        "value": "t_bool"
      },
      "t_mapping(t_uint256,t_bool)": {
        "encoding": "mapping",
        "key": "t_uint256",
        "label": "mapping(uint256 => bool)",
        "numberOfBytes": "32",
        "value": "t_bool"
      },
      "t_mapping(t_uint256,t_mapping(t_uint256,t_bool))": {
        "encoding": "mapping",
        "key": "t_uint256",
        "label": "mapping(uint256 => mapping(uint256 => bool))",
        "numberOfBytes": "32",
        "value": "t_mapping(t_uint256,t_bool)"
      },
      "t_mapping(t_uint256,t_mapping(t_uint256,t_mapping(t_uint256,t_bool)))": {
        "encoding": "mapping",
        "key": "t_uint256",
        "label": "mapping(uint256 => mapping(uint256 => mapping(uint256 => bool)))",
        "numberOfBytes": "32",
        "value": "t_mapping(t_uint256,t_mapping(t_uint256,t_bool))"
      },
      "t_mapping(t_uint256,t_mapping(t_uint64,t_struct(Quest)3499_storage))": {
        "encoding": "mapping",
        "key": "t_uint256",
        "label": "mapping(uint256 => mapping(uint64 => struct DungeonDataLayout.Quest))",
        "numberOfBytes": "32",
        "value": "t_mapping(t_uint64,t_struct(Quest)3499_storage)"
      },
      "t_mapping(t_uint256,t_string_storage)": {
        "encoding": "mapping",
        "key": "t_uint256",
        "label": "mapping(uint256 => string)",
        "numberOfBytes": "32",
        "value": "t_string_storage"
      },
      "t_mapping(t_uint256,t_struct(Area)3443_storage)": {
        "encoding": "mapping",
        "key": "t_uint256",
        "label": "mapping(uint256 => struct DungeonDataLayout.Area)",
        "numberOfBytes": "32",
        "value": "t_struct(Area)3443_storage"
      },
      "t_mapping(t_uint256,t_struct(Character)3430_storage)": {
        "encoding": "mapping",
        "key": "t_uint256",
        "label": "mapping(uint256 => struct DungeonDataLayout.Character)",
        "numberOfBytes": "32",
        "value": "t_struct(Character)3430_storage"
      },
      "t_mapping(t_uint256,t_struct(Room)3413_storage)": {
        "encoding": "mapping",
        "key": "t_uint256",
        "label": "mapping(uint256 => struct DungeonDataLayout.Room)",
        "numberOfBytes": "32",
        "value": "t_struct(Room)3413_storage"
      },
      "t_mapping(t_uint64,t_struct(Quest)3499_storage)": {
        "encoding": "mapping",
        "key": "t_uint64",
        "label": "mapping(uint64 => struct DungeonDataLayout.Quest)",
        "numberOfBytes": "32",
        "value": "t_struct(Quest)3499_storage"
      },
      "t_string_storage": {
        "encoding": "bytes",
        "label": "string",
        "numberOfBytes": "32"
      },
      "t_struct(Area)3443_storage": {
        "encoding": "inplace",
        "label": "struct DungeonDataLayout.Area",
        "members": [
          {
            "astId": 3432,
            "contract": "src/dungeon/DungeonOwnerFacet.sol:DungeonOwnerFacet",
            "label": "areaType",
            "offset": 0,
            "slot": "0",
            "type": "t_uint8"
          },
          {
            "astId": 3434,
            "contract": "src/dungeon/DungeonOwnerFacet.sol:DungeonOwnerFacet",
            "label": "discovered",
            "offset": 1,
            "slot": "0",
            "type": "t_uint8"
          },
          {
            "astId": 3436,
            "contract": "src/dungeon/DungeonOwnerFacet.sol:DungeonOwnerFacet",
            "label": "lastRoomIndex",
            "offset": 2,
            "slot": "0",
            "type": "t_uint8"
          },
          {
            "astId": 3438,
            "contract": "src/dungeon/DungeonOwnerFacet.sol:DungeonOwnerFacet",
            "label": "currentIndex",
            "offset": 3,
            "slot": "0",
            "type": "t_uint8"
          },
          {
            "astId": 3440,
            "contract": "src/dungeon/DungeonOwnerFacet.sol:DungeonOwnerFacet",
            "label": "lastRoom",
            "offset": 0,
            "slot": "1",
            "type": "t_uint256"
          },
          {
            "astId": 3442,
            "contract": "src/dungeon/DungeonOwnerFacet.sol:DungeonOwnerFacet",
            "label": "eventBlockNumber",
            "offset": 0,
            "slot": "2",
            "type": "t_uint64"
          }
        ],
        "numberOfBytes": "96"
      },
      "t_struct(AreaCounter)3463_storage": {
        "encoding": "inplace",
        "label": "struct DungeonDataLayout.AreaCounter",
        "members": [
          {
            "astId": 3460,
            "contract": "src/dungeon/DungeonOwnerFacet.sol:DungeonOwnerFacet",
            "label": "lastPeriod",
            "offset": 0,
            "slot": "0",
            "type": "t_uint64"
          },
          {
            "astId": 3462,
            "contract": "src/dungeon/DungeonOwnerFacet.sol:DungeonOwnerFacet",
            "label": "numAreas",
            "offset": 8,
            "slot": "0",
            "type": "t_uint64"
          }
        ],
        "numberOfBytes": "32"
      },
      "t_struct(Character)3430_storage": {
        "encoding": "inplace",
        "label": "struct DungeonDataLayout.Character",
        "members": [
          {
            "astId": 3415,
            "contract": "src/dungeon/DungeonOwnerFacet.sol:DungeonOwnerFacet",
            "label": "location",
            "offset": 0,
            "slot": "0",
            "type": "t_uint256"
          },
          {
            "astId": 3417,
            "contract": "src/dungeon/DungeonOwnerFacet.sol:DungeonOwnerFacet",
            "label": "direction",
            "offset": 0,
            "slot": "1",
            "type": "t_uint8"
          },
          {
            "astId": 3419,
            "contract": "src/dungeon/DungeonOwnerFacet.sol:DungeonOwnerFacet",
            "label": "floors",
            "offset": 1,
            "slot": "1",
            "type": "t_int64"
          },
          {
            "astId": 3421,
            "contract": "src/dungeon/DungeonOwnerFacet.sol:DungeonOwnerFacet",
            "label": "slot_1",
            "offset": 0,
            "slot": "2",
            "type": "t_uint256"
          },
          {
            "astId": 3423,
            "contract": "src/dungeon/DungeonOwnerFacet.sol:DungeonOwnerFacet",
            "label": "slot_2",
            "offset": 0,
            "slot": "3",
            "type": "t_uint256"
          },
          {
            "astId": 3425,
            "contract": "src/dungeon/DungeonOwnerFacet.sol:DungeonOwnerFacet",
            "label": "slot_3",
            "offset": 0,
            "slot": "4",
            "type": "t_uint256"
          },
          {
            "astId": 3427,
            "contract": "src/dungeon/DungeonOwnerFacet.sol:DungeonOwnerFacet",
            "label": "slot_4",
            "offset": 0,
            "slot": "5",
            "type": "t_uint256"
          },
          {
            "astId": 3429,
            "contract": "src/dungeon/DungeonOwnerFacet.sol:DungeonOwnerFacet",
            "label": "slot_5",
            "offset": 0,
            "slot": "6",
            "type": "t_uint256"
          }
        ],
        "numberOfBytes": "224"
      },
      "t_struct(Quest)3499_storage": {
        "encoding": "inplace",
        "label": "struct DungeonDataLayout.Quest",
        "members": [
          {
            "astId": 3496,
            "contract": "src/dungeon/DungeonOwnerFacet.sol:DungeonOwnerFacet",
            "label": "status",
            "offset": 0,
            "slot": "0",
            "type": "t_uint8"
          },
          {
            "astId": 3498,
            "contract": "src/dungeon/DungeonOwnerFacet.sol:DungeonOwnerFacet",
            "label": "data",
            "offset": 0,
            "slot": "1",
            "type": "t_string_storage"
          }
        ],
        "numberOfBytes": "64"
      },
      "t_struct(Room)3413_storage": {
        "encoding": "inplace",
        "label": "struct DungeonDataLayout.Room",
        "members": [
          {
            "astId": 3392,
            "contract": "src/dungeon/DungeonOwnerFacet.sol:DungeonOwnerFacet",
            "label": "blockNumber",
            "offset": 0,
            "slot": "0",
            "type": "t_uint64"
          },
          {
            "astId": 3394,
            "contract": "src/dungeon/DungeonOwnerFacet.sol:DungeonOwnerFacet",
            "label": "monsterBlockNumber",
            "offset": 8,
            "slot": "0",
            "type": "t_uint64"
          },
          {
            "astId": 3396,
            "contract": "src/dungeon/DungeonOwnerFacet.sol:DungeonOwnerFacet",
            "label": "numActiveCharacters",
            "offset": 16,
            "slot": "0",
            "type": "t_uint64"
          },
          {
            "astId": 3398,
            "contract": "src/dungeon/DungeonOwnerFacet.sol:DungeonOwnerFacet",
            "label": "direction",
            "offset": 24,
            "slot": "0",
            "type": "t_uint8"
          },
          {
            "astId": 3400,
            "contract": "src/dungeon/DungeonOwnerFacet.sol:DungeonOwnerFacet",
            "label": "exits",
            "offset": 25,
            "slot": "0",
            "type": "t_uint8"
          },
          {
            "astId": 3402,
            "contract": "src/dungeon/DungeonOwnerFacet.sol:DungeonOwnerFacet",
            "label": "kind",
            "offset": 26,
            "slot": "0",
            "type": "t_uint8"
          },
          {
            "astId": 3404,
            "contract": "src/dungeon/DungeonOwnerFacet.sol:DungeonOwnerFacet",
            "label": "areaAtDiscovery",
            "offset": 27,
            "slot": "0",
            "type": "t_uint8"
          },
          {
            "astId": 3406,
            "contract": "src/dungeon/DungeonOwnerFacet.sol:DungeonOwnerFacet",
            "label": "lastRoomIndex",
            "offset": 28,
            "slot": "0",
            "type": "t_uint8"
          },
          {
            "astId": 3408,
            "contract": "src/dungeon/DungeonOwnerFacet.sol:DungeonOwnerFacet",
            "label": "index",
            "offset": 29,
            "slot": "0",
            "type": "t_uint8"
          },
          {
            "astId": 3410,
            "contract": "src/dungeon/DungeonOwnerFacet.sol:DungeonOwnerFacet",
            "label": "discoverer",
            "offset": 0,
            "slot": "1",
            "type": "t_uint256"
          },
          {
            "astId": 3412,
            "contract": "src/dungeon/DungeonOwnerFacet.sol:DungeonOwnerFacet",
            "label": "randomEvent",
            "offset": 0,
            "slot": "2",
            "type": "t_uint64"
          }
        ],
        "numberOfBytes": "96"
      },
      "t_uint256": {
        "encoding": "inplace",
        "label": "uint256",
        "numberOfBytes": "32"
      },
      "t_uint64": {
        "encoding": "inplace",
        "label": "uint64",
        "numberOfBytes": "8"
      },
      "t_uint8": {
        "encoding": "inplace",
        "label": "uint8",
        "numberOfBytes": "1"
      }
    }
  }
}