{
  "address": "0xbBef5656646a9e75b2b3176455D0e1eFe5123D48",
  "abi": [
    {
      "inputs": [
        {
          "internalType": "address",
          "name": "backendAddress",
          "type": "address"
        }
      ],
      "stateMutability": "nonpayable",
      "type": "constructor"
    },
    {
      "anonymous": false,
      "inputs": [
        {
          "indexed": true,
          "internalType": "address",
          "name": "nominee",
          "type": "address"
        }
      ],
      "name": "BackendNominated",
      "type": "event"
    },
    {
      "anonymous": false,
      "inputs": [
        {
          "indexed": true,
          "internalType": "address",
          "name": "previousBackend",
          "type": "address"
        },
        {
          "indexed": true,
          "internalType": "address",
          "name": "newBackend",
          "type": "address"
        }
      ],
      "name": "BackendRotated",
      "type": "event"
    },
    {
      "anonymous": false,
      "inputs": [
        {
          "indexed": true,
          "internalType": "address",
          "name": "dungeon",
          "type": "address"
        }
      ],
      "name": "DungeonSet",
      "type": "event"
    },
    {
      "anonymous": false,
      "inputs": [
        {
          "indexed": true,
          "internalType": "address",
          "name": "previousOwner",
          "type": "address"
        },
        {
          "indexed": true,
          "internalType": "address",
          "name": "newOwner",
          "type": "address"
        }
      ],
      "name": "OwnerTransferred",
      "type": "event"
    },
    {
      "inputs": [],
      "name": "acceptBackend",
      "outputs": [],
      "stateMutability": "nonpayable",
      "type": "function"
    },
    {
      "inputs": [
        {
          "internalType": "uint256",
          "name": "characterId",
          "type": "uint256"
        },
        {
          "internalType": "uint256",
          "name": "monsterId",
          "type": "uint256"
        }
      ],
      "name": "characterDefeated",
      "outputs": [],
      "stateMutability": "nonpayable",
      "type": "function"
    },
    {
      "inputs": [
        {
          "internalType": "uint256",
          "name": "characterId",
          "type": "uint256"
        },
        {
          "internalType": "uint256",
          "name": "monsterId",
          "type": "uint256"
        },
        {
          "internalType": "int16",
          "name": "hpChange",
          "type": "int16"
        },
        {
          "internalType": "int16",
          "name": "",
          "type": "int16"
        }
      ],
      "name": "characterEscaped",
      "outputs": [],
      "stateMutability": "nonpayable",
      "type": "function"
    },
    {
      "inputs": [
        {
          "internalType": "address",
          "name": "to",
          "type": "address"
        },
        {
          "internalType": "bytes",
          "name": "data",
          "type": "bytes"
        }
      ],
      "name": "forward",
      "outputs": [
        {
          "internalType": "bool",
          "name": "success",
          "type": "bool"
        }
      ],
      "stateMutability": "nonpayable",
      "type": "function"
    },
    {
      "inputs": [
        {
          "internalType": "uint256",
          "name": "location",
          "type": "uint256"
        },
        {
          "internalType": "address",
          "name": "benefactor",
          "type": "address"
        },
        {
          "internalType": "uint16[8]",
          "name": "income",
          "type": "uint16[8]"
        }
      ],
      "name": "generateRoomIncome",
      "outputs": [],
      "stateMutability": "nonpayable",
      "type": "function"
    },
    {
      "inputs": [],
      "name": "getDungeonAndBackendAddress",
      "outputs": [
        {
          "internalType": "contract DungeonAdminFacet",
          "name": "dungeon",
          "type": "address"
        },
        {
          "internalType": "address",
          "name": "backendAddress",
          "type": "address"
        }
      ],
      "stateMutability": "view",
      "type": "function"
    },
    {
      "inputs": [
        {
          "internalType": "uint256",
          "name": "location",
          "type": "uint256"
        },
        {
          "internalType": "uint256",
          "name": "monsterId",
          "type": "uint256"
        },
        {
          "components": [
            {
              "internalType": "uint256",
              "name": "characterId",
              "type": "uint256"
            },
            {
              "internalType": "int16",
              "name": "hpChange",
              "type": "int16"
            },
            {
              "internalType": "uint16",
              "name": "xpGained",
              "type": "uint16"
            },
            {
              "internalType": "uint256",
              "name": "gear",
              "type": "uint256"
            },
            {
              "internalType": "int64",
              "name": "durabilityChange",
              "type": "int64"
            },
            {
              "internalType": "int16[8]",
              "name": "balanceChange",
              "type": "int16[8]"
            },
            {
              "internalType": "uint16[8]",
              "name": "bounty",
              "type": "uint16[8]"
            }
          ],
          "internalType": "struct DungeonAdmin.MonsterReward[]",
          "name": "rewards",
          "type": "tuple[]"
        }
      ],
      "name": "monsterDefeated",
      "outputs": [],
      "stateMutability": "nonpayable",
      "type": "function"
    },
    {
      "inputs": [
        {
          "internalType": "address",
          "name": "nominee",
          "type": "address"
        }
      ],
      "name": "nominateBackend",
      "outputs": [],
      "stateMutability": "nonpayable",
      "type": "function"
    },
    {
      "inputs": [],
      "name": "owner",
      "outputs": [
        {
          "internalType": "address",
          "name": "",
          "type": "address"
        }
      ],
      "stateMutability": "view",
      "type": "function"
    },
    {
      "inputs": [],
      "name": "pendingBackend",
      "outputs": [
        {
          "internalType": "address",
          "name": "",
          "type": "address"
        }
      ],
      "stateMutability": "view",
      "type": "function"
    },
    {
      "inputs": [
        {
          "internalType": "contract DungeonAdminFacet",
          "name": "dungeon",
          "type": "address"
        }
      ],
      "name": "setDungeon",
      "outputs": [],
      "stateMutability": "nonpayable",
      "type": "function"
    },
    {
      "inputs": [
        {
          "internalType": "uint256",
          "name": "characterId",
          "type": "uint256"
        },
        {
          "internalType": "uint256",
          "name": "location",
          "type": "uint256"
        }
      ],
      "name": "teleportCharacter",
      "outputs": [],
      "stateMutability": "nonpayable",
      "type": "function"
    },
    {
      "inputs": [
        {
          "internalType": "address",
          "name": "newOwner",
          "type": "address"
        }
      ],
      "name": "transferOwnership",
      "outputs": [],
      "stateMutability": "nonpayable",
      "type": "function"
    },
    {
      "inputs": [
        {
          "internalType": "uint256",
          "name": "characterId",
          "type": "uint256"
        },
        {
          "internalType": "uint256",
          "name": "monsterId",
          "type": "uint256"
        },
        {
          "internalType": "int16",
          "name": "hpChange",
          "type": "int16"
        },
        {
          "internalType": "uint16",
          "name": "xpGained",
          "type": "uint16"
        },
        {
          "internalType": "uint256",
          "name": "gear",
          "type": "uint256"
        },
        {
          "internalType": "int64",
          "name": "durabilityChange",
          "type": "int64"
        },
        {
          "internalType": "int16[8]",
          "name": "balanceChange",
          "type": "int16[8]"
        }
      ],
      "name": "updateCharacter",
      "outputs": [],
      "stateMutability": "nonpayable",
      "type": "function"
    },
    {
      "inputs": [
        {
          "internalType": "uint256",
          "name": "character",
          "type": "uint256"
        },
        {
          "internalType": "uint64",
          "name": "id",
          "type": "uint64"
        },
        {
          "internalType": "uint8",
          "name": "status",
          "type": "uint8"
        },
        {
          "internalType": "string",
          "name": "data",
          "type": "string"
        }
      ],
      "name": "updateQuest",
      "outputs": [],
      "stateMutability": "nonpayable",
      "type": "function"
    },
    {
      "inputs": [
        {
          "internalType": "uint256",
          "name": "character",
          "type": "uint256"
        },
        {
          "internalType": "uint256",
          "name": "location",
          "type": "uint256"
        },
        {
          "internalType": "uint256",
          "name": "data",
          "type": "uint256"
        },
        {
          "internalType": "uint256[8]",
          "name": "amountsPayed",
          "type": "uint256[8]"
        }
      ],
      "name": "updateRoomData",
      "outputs": [],
      "stateMutability": "nonpayable",
      "type": "function"
    }
  ],
  "transactionHash": "0xfc119fc75da5249ef8806d211cef7c30369a553018f8b1128553cc25e8e89514",
  "args": [
    "0xd55AC580ab7386d593EcA3aaBA54989980cFc7c6"
  ],
  "numDeployments": 2,
  "solcInputHash": "dd8ef9e4cb12f6b7c300326f49f4b58b",
  "bytecode": "0x60806040523462000030576200001e62000018620000d4565b620001bf565b6040516115826200028e823961158290f35b600080fd5b634e487b7160e01b600052604160045260246000fd5b90601f01601f191681019081106001600160401b038211176200006d57604052565b62000035565b906200008a6200008260405190565b92836200004b565b565b6001600160a01b031690565b90565b620000a6816200008c565b036200003057565b905051906200008a826200009b565b9060208282031262000030576200009891620000ae565b620000986200181080380380620000eb8162000073565b928339810190620000bd565b6200008c62000098620000989290565b6200009890620000f7565b6020808252600c908201526b16915493d7d09050d2d1539160a21b604082015260600190565b156200014057565b60405162461bcd60e51b8152806200015b6004820162000112565b0390fd5b62000098906200008c906001600160a01b031682565b62000098906200015f565b620000989062000175565b906200019f62000098620001bb9262000180565b82546001600160a01b0319166001600160a01b03919091161790565b9055565b62000241620001cf600062000107565b620001f1620001de826200008c565b620001e9856200008c565b141562000138565b620001fe8360016200018b565b336200020c8160026200018b565b620002387f8934ce4adea8d9ce0d714d2c22b86790e41b7731c84b926fbbdc1d40ff6533c99262000180565b92839162000180565b916200024c60405190565b600090a36200027c7fcc9c52667db1b41a3f249dd8af879bfdf504f02854c734efd7cc2ad44a7899bc9262000180565b916200028760405190565b600090a356fe6080604052600436101561001257600080fd5b60003560e01c80630604ba13146101125780633ec371131461010d578063430c4532146101085780635dad2bb7146101035780636fadcf72146100fe578063719a5c99146100f95780638da5cb5b146100f45780639434e4e8146100ef5780639fb8a773146100ea578063ab536060146100e5578063b2f2dff9146100e0578063b7d23506146100db578063d8468f8f146100d6578063e6d48fe7146100d1578063e8cc286e146100cc5763f2fde38b0361011757610789565b61076d565b6106e3565b6106ca565b610681565b610651565b6105fb565b6105c0565b6105a4565b6104d5565b6104ae565b610470565b610343565b6102ef565b61028e565b6101f1565b600080fd5b805b0361011757565b905035906101328261011c565b565b61011e8160010b90565b9050359061013282610134565b61ffff811661011e565b905035906101328261014b565b61011e8160070b90565b9050359061013282610162565b919061010083011161011757565b6101c0818303126101175761019c8282610125565b926101aa8360208401610125565b926101b8816040850161013e565b926101c68260608301610155565b926101ee6101d78460808501610125565b936101e58160a0860161016c565b9360c001610179565b90565b3461011757610210610204366004610187565b95949094939193610eeb565b604051005b0390f35b600091031261011757565b6101ee90610238906001600160a01b031682565b6001600160a01b031690565b6101ee90610224565b6101ee90610244565b61025f9061024d565b9052565b61025f90610238565b91602061013292949361028760408201966000830190610256565b0190610263565b346101175761029e366004610219565b6102a6610b71565b906102156102b360405190565b9283928361026c565b6101ee90610238565b61011e816102bc565b90503590610132826102c5565b90602082820312610117576101ee916102ce565b34610117576102106103023660046102db565b6109f6565b6080818303126101175761031b8282610125565b926101ee61032c8460208501610125565b9361033a816040860161013e565b9360600161013e565b3461011757610210610356366004610307565b929190916113a6565b61011e81610238565b905035906101328261035f565b634e487b7160e01b600052604160045260246000fd5b90601f01601f191681019081106001600160401b038211176103ac57604052565b610375565b906101326103be60405190565b928361038b565b6001600160401b0381116103ac57602090601f01601f19160190565b0190565b90826000939282370152565b90929192610406610401826103c5565b6103b1565b9381855260208501908284011161011757610132926103e5565b9080601f83011215610117578160206101ee933591016103f1565b919091604081840312610117576104528382610368565b9260208201356001600160401b038111610117576101ee9201610420565b346101175761021561048c61048636600461043b565b90610d27565b60405191829182901515815260200190565b6020810192916101329190610263565b34610117576104be366004610219565b6102156104c96107b5565b6040519182918261049e565b34610117576104e5366004610219565b6102156104c96107ab565b6001600160401b03811661011e565b90503590610132826104f0565b60ff811661011e565b905035906101328261050c565b909182601f83011215610117578135916001600160401b03831161011757602001926001830284011161011757565b90608082820312610117576105668183610125565b9261057482602085016104ff565b9260409261058481858401610515565b936001806060850135921b038111610117576105a09201610522565b9091565b34610117576102106105b7366004610551565b93929092611482565b34610117576105d0366004610219565b610210610af1565b9190604083820312610117576101ee906105f28185610125565b93602001610125565b346101175761021061060e3660046105d8565b9061131d565b61016081830312610117576106298282610125565b926101ee61063a8460208501610125565b936106488160408601610125565b93606001610179565b3461011757610210610664366004610614565b92919091611540565b90602082820312610117576101ee91610368565b346101175761021061069436600461066d565b610aac565b909161014082840312610117576101ee6106b38484610125565b936106c18160208601610368565b93604001610179565b34610117576102106106dd366004610699565b916112cb565b34610117576102106106f63660046105d8565b90610dce565b909182601f83011215610117578135916001600160401b03831161011757602001926102a0830284011161011757565b91606083830312610117576107418284610125565b9261074f8360208301610125565b9260408201356001600160401b038111610117576105a092016106fc565b346101175761021061078036600461072c565b92919091611237565b346101175761021061079c36600461066d565b610928565b6101ee90546102bc565b6101ee60026107a1565b6101ee60036107a1565b156107c657565b60405162461bcd60e51b81526020600482015260146024820152732727aa2fa0aaaa2427a924ad22a22fa7aba722a960611b6044820152606490fd5b6101329061082b3361082561081f61081a60026107a1565b610238565b91610238565b146107bf565b6108af565b6102386101ee6101ee9290565b6101ee90610830565b1561084d57565b60405162461bcd60e51b815260206004820152600a6024820152692d22a927afa7aba722a960b11b6044820152606490fd5b9061088f6101ee6108ab9261024d565b82546001600160a01b0319166001600160a01b03919091161790565b9055565b6108cf6108bf61081a600061083d565b6108c883610238565b1415610846565b6108d960026107a1565b906108e581600261087f565b6109186109127f8934ce4adea8d9ce0d714d2c22b86790e41b7731c84b926fbbdc1d40ff6533c99361024d565b9161024d565b9161092260405190565b600090a3565b61013290610802565b610132906109493361082561081f61081a60026107a1565b610989565b1561095557565b60405162461bcd60e51b815260206004820152600c60248201526b2d22a927afa22aa723a2a7a760a11b6044820152606490fd5b6109bc6109958261024d565b9160006109b76109a761081a8361083d565b6109b086610238565b141561094e565b61087f565b6109e67f47742b6c88cbf0a2e654b73e96911e087acd99c4f3270b14f8e0b0f7007bd0639161024d565b906109f060405190565b600090a2565b61013290610931565b61013290610a173361082561081f61081a60026107a1565b610a57565b15610a2357565b60405162461bcd60e51b815260206004820152600c60248201526b16915493d7d09050d2d1539160a21b6044820152606490fd5b610a77610a6761081a600061083d565b610a7083610238565b1415610a1c565b610a8281600361087f565b6109e67fbed47952c75165ebed1cecdaaf0f7c62b75876a221d50e1d6aeaf2c2621d7fa29161024d565b610132906109ff565b15610abc57565b60405162461bcd60e51b815260206004820152600d60248201526c1393d517d393d3525390551151609a1b6044820152606490fd5b33610b11610b0261081a60036107a1565b610b0b83610238565b14610ab5565b610b1b60016107a1565b90610b30610b2960036107a1565b600161087f565b610b44610b3d600061083d565b600361087f565b6109186109127fcc9c52667db1b41a3f249dd8af879bfdf504f02854c734efd7cc2ad44a7899bc9361024d565b610b7b60006107a1565b906101ee60016107a1565b15610b8d57565b60405162461bcd60e51b81526020600482015260166024820152751393d517d055551213d49256915117d09050d2d1539160521b6044820152606490fd5b906101ee9291610beb33610be561081f61081a60016107a1565b14610b86565b610ca0565b80151561011e565b9050519061013282610bf0565b90602082820312610117576101ee91610bf8565b60005b838110610c2c5750506000910152565b8181015183820152602001610c1c565b610c5d610c666020936103e193610c51815190565b80835293849260200190565b95869101610c19565b601f01601f191690565b916101ee92610c8760408201936000830190610263565b6020818403910152610c3c565b6040513d6000823e3d90fd5b50602090610cb6610cb160006107a1565b61024d565b610cd96000636fadcf72610ce4610ccc60405190565b9788968795869460e01b90565b845260048401610c70565b03925af1908115610d2257600091610cfa575090565b6101ee915060203d8111610d1b575b610d13818361038b565b810190610c05565b503d610d09565b610c94565b6101ee91906000610bcb565b9061013291610d4c33610be561081f61081a60016107a1565b610d64565b9081526040810192916101329160200152565b610d71610cb160006107a1565b9063e6d48fe791803b1561011757610d9260008094610d9d610ccc60405190565b845260048401610d51565b03925af18015610d2257610dae5750565b6101329060005b610dbf818361038b565b810190610219565b503d610db5565b9061013291610d33565b90610132969594939291610df633610be561081f61081a60016107a1565b610e9d565b506101ee90602081019061013e565b610e1a610e1660089390565b9190565b806000925b848410610e2d575050505050565b610e52610e4b600192610e408686610dfb565b60010b815260200190565b9360200190565b93019291610e1f565b9081526101c081019796959094909390929091602086015260010b604085015261ffff166060840152608083015260070b60a082015260c00161013291610e0a565b9391929095610eaf610cb160006107a1565b93630604ba1391853b1561011757600097610ee0958995610d9d94610ed360405190565b9c8d9b8c9a8b9960e01b90565b895260048901610e5b565b90610132969594939291610dd8565b90610132939291610f1533610be561081f61081a60016107a1565b611021565b6101ee6101ee6101ee9290565b634e487b7160e01b600052601160045260246000fd5b6000198114610f4c5760010190565b610f27565b634e487b7160e01b600052603260045260246000fd5b9190811015610f78576102a0020190565b610f51565b356101ee8161011c565b356101ee81610134565b356101ee8161014b565b356101ee81610162565b506101ee906020810190610155565b610fc0610e1660089390565b806000925b848410610fd3575050505050565b610ff2610e4b600192610fe68686610fa5565b61ffff16815260200190565b93019291610fc5565b9081526101408101939261013292909160409161101a905b6020830152565b0190610fb4565b93929193611032610cb160006107a1565b637507a1c990803b15610117576110589160009161104f60405190565b93849260e01b90565b825260048201859052602490829084905af18015610d2257611221575b5060009261108284610f1a565b8181101561121857611093856107a1565b61109c9061024d565b82630604ba1391876110af85848d610f67565b016110b990610f7d565b906110c585848d610f67565b6020016110d190610f87565b93838c876110e0818484610f67565b6040016110ec90610f91565b926110f692610f67565b60600161110290610f7d565b918d88611110818984610f67565b60800161111c90610f9b565b9761112692610f67565b60a00196843b15610117578b978d97610ee095899561114894610ed360405190565b03925af18015610d22576111fc575b50611164610cb1866107a1565b9063e769151861117f8761117984878d610f67565b01610f7d565b6101a061118d84878d610f67565b0193803b15610117576111b58980946111c16111a860405190565b9889968795869460e01b90565b84528c60048501610ffb565b03925af1918215610d22576111db926111e0575b50610f3d565b611082565b6111f690873d8911610dc757610dbf818361038b565b386111d5565b61121290863d8811610dc757610dbf818361038b565b38611157565b50505050509050565b611231906000610dbf818361038b565b38611075565b90610132939291610efa565b90610132929161125d33610be561081f61081a60016107a1565b611283565b9081526101408101939261013292909160409161101a906020830190610263565b919091611293610cb160006107a1565b63d8468f8f813b156101175760006112c091610d9d82966112b360405190565b9889978896879560e01b90565b855260048501611262565b906101329291611243565b90610132916112ef33610be561081f61081a60016107a1565b6112fc610cb160006107a1565b9063ab53606091803b1561011757610d9260008094610d9d610ccc60405190565b90610132916112d6565b9061013293929161134233610be561081f61081a60016107a1565b61136b565b90815260608101939261013292909160409161136290611013565b019060010b9052565b90925061137b610cb160006107a1565b63cf747b49813b1561011757600061139b91610d9d82966112b360405190565b855260048501611347565b90610132939291611327565b90610132949392916113ce33610be561081f61081a60016107a1565b611436565b9190610c66816113ea816103e19560209181520190565b80956103e5565b9093916101ee959361141f6114299261140f60808601986000870152565b6001600160401b03166020850152565b60ff166040830152565b60608185039101526113d3565b91929093611447610cb160006107a1565b91639434e4e8833b1561011757610d9d6114779360009793889461146a60405190565b9a8b998a98899760e01b90565b8752600487016113f1565b90610132949392916113b2565b906101329392916114aa33610be561081f61081a60016107a1565b6114f5565b9037565b61013291610100916114af565b6114ee610132946114e76060949897956114e061016086019a6000870152565b6020850152565b6040830152565b01906114b3565b909291611505610cb160006107a1565b9063b2f2dff993823b1561011757600094610d9d86926115359461152860405190565b998a988997889660e01b90565b8652600486016114c0565b9061013293929161148f56fea2646970667358221220019ea36caa8421d01589b75292c09962a91cf9613e49bee78a29a537c6291a8a64736f6c63430008140033",
  "devdoc": {
    "kind": "dev",
    "methods": {},
    "version": 1
  },
  "userdoc": {
    "kind": "user",
    "methods": {
      "nominateBackend(address)": {
        "notice": "Two-step backend rotation. Owner nominates, nominee accepts. Prevents typos locking the system out and removes any self-rotation power from a compromised backend key."
      }
    },
    "notice": "Backend relay. A deployer-owned key (\"owner\") holds configuration authority; a separate hot key (\"backend\") signs gameplay transactions. The backend cannot rotate itself — a hot-wallet compromise can be recovered by the owner without losing the dungeon pointer.",
    "version": 1
  },
  "storageLayout": {
    "storage": [
      {
        "astId": 1529,
        "contract": "src/dungeon/DungeonAdmin.sol:DungeonAdmin",
        "label": "_dungeon",
        "offset": 0,
        "slot": "0",
        "type": "t_contract(DungeonAdminFacet)2973"
      },
      {
        "astId": 1531,
        "contract": "src/dungeon/DungeonAdmin.sol:DungeonAdmin",
        "label": "_backendAddress",
        "offset": 0,
        "slot": "1",
        "type": "t_address"
      },
      {
        "astId": 1533,
        "contract": "src/dungeon/DungeonAdmin.sol:DungeonAdmin",
        "label": "_owner",
        "offset": 0,
        "slot": "2",
        "type": "t_address"
      },
      {
        "astId": 1535,
        "contract": "src/dungeon/DungeonAdmin.sol:DungeonAdmin",
        "label": "_pendingBackend",
        "offset": 0,
        "slot": "3",
        "type": "t_address"
      }
    ],
    "types": {
      "t_address": {
        "encoding": "inplace",
        "label": "address",
        "numberOfBytes": "20"
      },
      "t_contract(DungeonAdminFacet)2973": {
        "encoding": "inplace",
        "label": "contract DungeonAdminFacet",
        "numberOfBytes": "20"
      }
    }
  }
}