{
  "address": "0x3510148CF6843AC0d3b2e0e499Ef60E6a4d6d49e",
  "abi": [
    {
      "anonymous": false,
      "inputs": [
        {
          "indexed": true,
          "internalType": "uint256",
          "name": "seller",
          "type": "uint256"
        },
        {
          "indexed": true,
          "internalType": "uint256",
          "name": "buyer",
          "type": "uint256"
        },
        {
          "components": [
            {
              "internalType": "uint256",
              "name": "characterId",
              "type": "uint256"
            },
            {
              "internalType": "uint256[8]",
              "name": "amounts",
              "type": "uint256[8]"
            },
            {
              "internalType": "uint256[]",
              "name": "gears",
              "type": "uint256[]"
            }
          ],
          "indexed": false,
          "internalType": "struct DungeonTokenTransferer.Offer",
          "name": "sale",
          "type": "tuple"
        },
        {
          "components": [
            {
              "internalType": "uint256",
              "name": "characterId",
              "type": "uint256"
            },
            {
              "internalType": "uint256[8]",
              "name": "amounts",
              "type": "uint256[8]"
            },
            {
              "internalType": "uint256[]",
              "name": "gears",
              "type": "uint256[]"
            }
          ],
          "indexed": false,
          "internalType": "struct DungeonTokenTransferer.Offer",
          "name": "price",
          "type": "tuple"
        }
      ],
      "name": "Exchange",
      "type": "event"
    },
    {
      "anonymous": false,
      "inputs": [
        {
          "indexed": true,
          "internalType": "uint256",
          "name": "seller",
          "type": "uint256"
        },
        {
          "indexed": true,
          "internalType": "uint256",
          "name": "buyer",
          "type": "uint256"
        },
        {
          "indexed": true,
          "internalType": "uint256",
          "name": "gearId",
          "type": "uint256"
        },
        {
          "indexed": false,
          "internalType": "uint256",
          "name": "price",
          "type": "uint256"
        }
      ],
      "name": "GearSale",
      "type": "event"
    },
    {
      "inputs": [],
      "name": "MAX_GEARS",
      "outputs": [
        {
          "internalType": "uint256",
          "name": "",
          "type": "uint256"
        }
      ],
      "stateMutability": "view",
      "type": "function"
    },
    {
      "inputs": [
        {
          "internalType": "uint256",
          "name": "characterId",
          "type": "uint256"
        },
        {
          "internalType": "uint256[]",
          "name": "amounts",
          "type": "uint256[]"
        }
      ],
      "name": "batchTransferElementsIn",
      "outputs": [],
      "stateMutability": "nonpayable",
      "type": "function"
    },
    {
      "inputs": [
        {
          "internalType": "uint256",
          "name": "from",
          "type": "uint256"
        },
        {
          "internalType": "address",
          "name": "to",
          "type": "address"
        },
        {
          "internalType": "uint256[]",
          "name": "amounts",
          "type": "uint256[]"
        }
      ],
      "name": "batchTransferElementsOut",
      "outputs": [],
      "stateMutability": "nonpayable",
      "type": "function"
    },
    {
      "inputs": [
        {
          "internalType": "uint256",
          "name": "characterId",
          "type": "uint256"
        },
        {
          "internalType": "uint256[]",
          "name": "ids",
          "type": "uint256[]"
        }
      ],
      "name": "batchTransferGearIn",
      "outputs": [],
      "stateMutability": "nonpayable",
      "type": "function"
    },
    {
      "inputs": [
        {
          "internalType": "uint256",
          "name": "from",
          "type": "uint256"
        },
        {
          "internalType": "address",
          "name": "to",
          "type": "address"
        },
        {
          "internalType": "uint256[]",
          "name": "ids",
          "type": "uint256[]"
        }
      ],
      "name": "batchTransferGearOut",
      "outputs": [],
      "stateMutability": "nonpayable",
      "type": "function"
    },
    {
      "inputs": [
        {
          "internalType": "uint256",
          "name": "from",
          "type": "uint256"
        },
        {
          "internalType": "uint256",
          "name": "id",
          "type": "uint256"
        }
      ],
      "name": "drop",
      "outputs": [],
      "stateMutability": "nonpayable",
      "type": "function"
    },
    {
      "inputs": [
        {
          "internalType": "uint256",
          "name": "from",
          "type": "uint256"
        },
        {
          "internalType": "uint256[]",
          "name": "amounts",
          "type": "uint256[]"
        }
      ],
      "name": "dropElements",
      "outputs": [],
      "stateMutability": "nonpayable",
      "type": "function"
    },
    {
      "inputs": [
        {
          "components": [
            {
              "internalType": "uint256",
              "name": "characterId",
              "type": "uint256"
            },
            {
              "internalType": "uint256[8]",
              "name": "amounts",
              "type": "uint256[8]"
            },
            {
              "internalType": "uint256[]",
              "name": "gears",
              "type": "uint256[]"
            }
          ],
          "internalType": "struct DungeonTokenTransferer.Offer",
          "name": "seller",
          "type": "tuple"
        },
        {
          "components": [
            {
              "internalType": "uint256",
              "name": "characterId",
              "type": "uint256"
            },
            {
              "internalType": "uint256[8]",
              "name": "amounts",
              "type": "uint256[8]"
            },
            {
              "internalType": "uint256[]",
              "name": "gears",
              "type": "uint256[]"
            }
          ],
          "internalType": "struct DungeonTokenTransferer.Offer",
          "name": "buyer",
          "type": "tuple"
        }
      ],
      "name": "exchange",
      "outputs": [],
      "stateMutability": "nonpayable",
      "type": "function"
    },
    {
      "inputs": [
        {
          "internalType": "uint256",
          "name": "from",
          "type": "uint256"
        },
        {
          "internalType": "uint256",
          "name": "id",
          "type": "uint256"
        }
      ],
      "name": "pick",
      "outputs": [],
      "stateMutability": "nonpayable",
      "type": "function"
    },
    {
      "inputs": [
        {
          "internalType": "uint256",
          "name": "from",
          "type": "uint256"
        },
        {
          "internalType": "uint256",
          "name": "id",
          "type": "uint256"
        },
        {
          "internalType": "uint256",
          "name": "amount",
          "type": "uint256"
        }
      ],
      "name": "pickElement",
      "outputs": [],
      "stateMutability": "nonpayable",
      "type": "function"
    },
    {
      "inputs": [
        {
          "internalType": "contract DungeonInfoFacet",
          "name": "dungeon",
          "type": "address"
        },
        {
          "internalType": "contract Player",
          "name": "player",
          "type": "address"
        },
        {
          "internalType": "contract Gears",
          "name": "gears",
          "type": "address"
        },
        {
          "internalType": "contract Elements",
          "name": "elements",
          "type": "address"
        },
        {
          "internalType": "contract Characters",
          "name": "characters",
          "type": "address"
        }
      ],
      "name": "postUpgrade",
      "outputs": [],
      "stateMutability": "nonpayable",
      "type": "function"
    },
    {
      "inputs": [
        {
          "internalType": "uint256",
          "name": "characterId",
          "type": "uint256"
        },
        {
          "internalType": "uint256",
          "name": "deadCharacterId",
          "type": "uint256"
        },
        {
          "internalType": "uint256",
          "name": "id",
          "type": "uint256"
        },
        {
          "internalType": "uint256",
          "name": "amount",
          "type": "uint256"
        }
      ],
      "name": "scavengeElements",
      "outputs": [],
      "stateMutability": "nonpayable",
      "type": "function"
    },
    {
      "inputs": [
        {
          "internalType": "uint256",
          "name": "characterId",
          "type": "uint256"
        },
        {
          "internalType": "uint256",
          "name": "deadCharacterId",
          "type": "uint256"
        },
        {
          "internalType": "uint256",
          "name": "id",
          "type": "uint256"
        }
      ],
      "name": "scavengeGear",
      "outputs": [],
      "stateMutability": "nonpayable",
      "type": "function"
    },
    {
      "inputs": [
        {
          "internalType": "uint256",
          "name": "seller",
          "type": "uint256"
        },
        {
          "internalType": "uint256",
          "name": "buyer",
          "type": "uint256"
        },
        {
          "internalType": "uint256",
          "name": "gearId",
          "type": "uint256"
        },
        {
          "internalType": "uint256",
          "name": "coins",
          "type": "uint256"
        }
      ],
      "name": "sellGear",
      "outputs": [],
      "stateMutability": "nonpayable",
      "type": "function"
    },
    {
      "inputs": [
        {
          "internalType": "uint256",
          "name": "from",
          "type": "uint256"
        },
        {
          "internalType": "uint256",
          "name": "to",
          "type": "uint256"
        },
        {
          "internalType": "uint256",
          "name": "id",
          "type": "uint256"
        },
        {
          "internalType": "uint256",
          "name": "amount",
          "type": "uint256"
        }
      ],
      "name": "subTransferElementsFrom",
      "outputs": [],
      "stateMutability": "nonpayable",
      "type": "function"
    },
    {
      "inputs": [
        {
          "internalType": "uint256",
          "name": "from",
          "type": "uint256"
        },
        {
          "internalType": "uint256",
          "name": "to",
          "type": "uint256"
        },
        {
          "internalType": "uint256",
          "name": "id",
          "type": "uint256"
        }
      ],
      "name": "subTransferGearFrom",
      "outputs": [],
      "stateMutability": "nonpayable",
      "type": "function"
    }
  ],
  "transactionHash": "0xbff4b406012416443e4447b2f162a246ad2802da61e52b4e9f51bd0a2c10b279",
  "args": [],
  "numDeployments": 2,
  "solcInputHash": "dd8ef9e4cb12f6b7c300326f49f4b58b",
  "bytecode": "0x60806040523461001a57604051612b016100208239612b0190f35b600080fdfe6080604052600436101561001257600080fd5b60003560e01c8063024a271e146101125780630309451f1461010d5780630bd7041d1461010857806328548237146101035780634a0dfcb6146100fe578063563bcd8d146100f95780637e6975b9146100f457806386d5b7d5146100ef5780639a6e7a83146100ea578063a62f4550146100e5578063b832e0a9146100e0578063c4ca0636146100db578063c6816778146100d6578063c983e092146100d1578063dfe11fd5146100cc5763ffa629770361011757610525565b61050c565b6104f0565b6104d7565b6104be565b61044f565b610436565b6103e7565b61039d565b610384565b610333565b61031a565b6102fe565b6102a6565b61021f565b610167565b600080fd5b805b0361011757565b905035906101328261011c565b565b90916060828403126101175761016461014d8484610125565b9361015b8160208601610125565b93604001610125565b90565b346101175761018061017a366004610134565b91611c1d565b604051005b0390f35b6001600160a01b031690565b61011e81610189565b9050359061013282610195565b909182601f83011215610117578135916001600160401b03831161011757602001926020830284011161011757565b91606083830312610117576101ef8284610125565b926101fd836020830161019e565b9260408201356001600160401b0381116101175761021b92016101ab565b9091565b34610117576101806102323660046101da565b92919091610d35565b61016490610189565b61011e8161023b565b9050359061013282610244565b919060a08382031261011757610270818461024d565b9261027e826020830161024d565b9261016461028f846040850161024d565b9361029d816060860161024d565b9360800161024d565b34610117576101806102b936600461025a565b93929092610666565b608081830312610117576102d68282610125565b926101646102e78460208501610125565b936102f58160408601610125565b93606001610125565b34610117576101806103113660046102c2565b92919091612083565b346101175761018061032d366004610134565b91611f68565b34610117576101806103463660046102c2565b92919091611cde565b919091604081840312610117576103668382610125565b9260208201356001600160401b0381116101175761021b92016101ab565b346101175761018061039736600461034f565b9161107e565b34610117576101806103b03660046102c2565b9291909161223f565b600091031261011757565b6101646101646101649290565b610164600a6103c4565b6101646103d1565b9052565b34610117576103f73660046103b9565b6101856104026103db565b6040515b9182918290815260200190565b9190604083820312610117576101649061042d8185610125565b93602001610125565b3461011757610180610449366004610413565b90611a06565b3461011757610180610462366004610134565b91611ab2565b90816101409103126101175790565b9190916040818403126101175780356001600160401b03811161011757836104a0918301610468565b9260208201356001600160401b038111610117576101649201610468565b34610117576101806104d1366004610477565b906126cf565b34610117576101806104ea366004610413565b90611745565b34610117576101806105033660046101da565b92919091611361565b346101175761018061051f36600461034f565b91611622565b346101175761018061053836600461034f565b916118ab565b6101896101646101649290565b6101649061053e565b1561011757565b9061013294939291610579600080516020612aac8339815191525490565b61058b610586600061054b565b610189565b61059482610189565b036105b757506001600160a01b03600080516020612aac8339815191525561062f565b6105d4906105ce6105c83392610189565b91610189565b14610554565b61062f565b61016490610189906001600160a01b031682565b610164906105d9565b610164906105ed565b9061060f61016461062b926105f6565b82546001600160a01b0319166001600160a01b03919091161790565b9055565b61065f9261065161013296959361064a6106589460026105ff565b60036105ff565b60006105ff565b60016105ff565b60046105ff565b906101329493929161055b565b610164905461023b565b0190565b1561068857565b60405162461bcd60e51b81526020600482015260146024820152731bdb9b1e481c1b185e595c9cc8185b1b1bddd95960621b6044820152606490fd5b906101329392916106ed336106e76105c86105866106e26003610673565b6105f6565b14610681565b61090d565b634e487b7160e01b600052604160045260246000fd5b90601f01601f191681019081106001600160401b0382111761072957604052565b6106f2565b905051906101328261011c565b90602082820312610117576101649161072e565b6040513d6000823e3d90fd5b60ff811661011e565b905051906101328261075b565b80151561011e565b9050519061013282610771565b6001600160401b03811661011e565b9050519061013282610786565b919061016083820312610117576107b9818461072e565b926107c7826020830161072e565b926107d58360408401610764565b926107e38160608501610764565b926107f18260808301610764565b926107ff8360a08401610764565b9261080d8160c08501610779565b9261081b8260e08301610795565b9261016461082d846101008501610764565b9361083c816101208601610795565b936101400161072e565b610164600160ff1b6103c4565b6108606101646101649290565b60ff1690565b6101646005610853565b1561087757565b60405162461bcd60e51b815260206004820152602160248201527f63616e206f6e6c79207472616e7366657220696e207370656369616c20726f6f6044820152606d60f81b6064820152608490fd5b6101646006610853565b6101646101646101649260ff1690565b6103e3906108d0565b9081526060810193926101329290916040916109099060208301906108e0565b0152565b9061093b93929160206109236106e26002610673565b635062e3b29061093260405190565b97889260e01b90565b82526004820184905260249082905afa948515610a6757600095610ac2575b50610964856126d9565b61098f6101606109776106e26002610673565b636790d2b59061098660405190565b93849260e01b90565b82526004820189905260249082905afa8015610a67576109ce91600091610a8a575b506109bd610164610846565b875b14908115610a6c575b50610870565b6109db6106e26001610673565b9463c9b902e3906109f36109ed6108c6565b91612753565b96803b1561011757610a1b60008094610a27610a0e60405190565b9b8c968795869460e01b90565b845289600485016108e9565b03925af1948515610a675761013295610a41575b50610bf5565b610a5a9060005b610a528183610708565b8101906103b9565b38610a3b565b503d610a48565b61074f565b9050610a83610a7c610860610866565b9160ff1690565b14386109c8565b610aac91506101603d8111610abb575b610aa48183610708565b8101906107a2565b505097505050505050506109b1565b503d610a9a565b610ae491955060203d8111610aeb575b610adc8183610708565b81019061073b565b933861095a565b503d610ad2565b634e487b7160e01b600052601160045260246000fd5b6000198114610b175760010190565b610af2565b634e487b7160e01b600052603260045260246000fd5b9190811015610b42576020020190565b610b1c565b356101648161011c565b15610b5857565b60405162461bcd60e51b815260206004820152600c60248201526b3737ba1039bab127bbb732b960a11b6044820152606490fd5b6103e390610189565b9037565b8183529091602001916001600160fb1b038111610117578291602061067d9202938491610b95565b610be86101649593949294610bde60608401966000850190610b8c565b6020830190610b8c565b6040818503910152610b99565b9092939193600092610c06846103c4565b82811015610cb357806020610c27610c22610c5f94878c610b32565b610b47565b610c336106e289610673565b610c516369f648a1610c4460405190565b9687948593849360e01b90565b835260048301526024820190565b03915afa918215610a6757610c9092610c8b918891610c95575b508690610c85565b9190565b14610b51565b610b08565b610c06565b610cad915060203d8111610aeb57610adc8183610708565b38610c79565b50949150929192610cc66106e285610673565b63f3993d1192610cd96106e26002610673565b92823b15610117578694610d0d8692610d0294610cf560405190565b998a988997889660e01b90565b865260048601610bc1565b03925af18015610a6757610d1f575050565b8161013292903d10610a6057610a528183610708565b906101329392916106c4565b90610d6e92916020610d566106e26002610673565b635062e3b290610d6560405190565b96879260e01b90565b82526004820184905260249082905afa938415610a6757600094610e7d575b50610d97846126d9565b610daa6101606109776106e26002610673565b82526004820188905260249082905afa8015610a6757610dde91600091610e55575b50610dd8610164610846565b866109bf565b610deb6106e26001610673565b9363c9b902e390610dfd6109ed6108c6565b95803b1561011757610a1b60008094610e25610e1860405190565b9a8b968795869460e01b90565b03925af1938415610a675761013294610e3f575b50610f3c565b610e4f906000610a528183610708565b38610e39565b610e6e91506101603d8111610abb57610aa48183610708565b50509750505050505050610dcc565b610e9691945060203d8111610aeb57610adc8183610708565b9238610d8d565b6101649081906001600160a01b031681565b15610eb657565b60405162461bcd60e51b815260206004820152601660248201527539bab127bbb732b91034b9903737ba1039b2b73232b960511b6044820152606490fd5b6103e3906103c4565b9093916101649593610f28610f2f92610f1e60808601986000870190610b8c565b6020850190610ef4565b6040830152565b6060818503910152610b99565b90919033610f616020610f526106e26004610673565b633038bb089061098660405190565b82526004820186905260249082905afa8015610a6757610fa191600091611060575b50610f9b610c81610164610f96866105ed565b610e9d565b14610eaf565b610fae6106e26000610673565b9063f3993d1190610fc26106e26002610673565b92803b1561011757610d0260008094610fdf898b610cf560405190565b03925af18015610a675761104a575b50610ffc6106e26000610673565b91637ba764f7926110106106e26002610673565b91600095823b15610117578695610d0d61103f93889793889461103260405190565b9a8b998a98899760e01b90565b875260048701610efd565b61105a906000610a528183610708565b38610fee565b611078915060203d8111610aeb57610adc8183610708565b38610f83565b906101329291610d41565b906101329392916110a7336106e76105c86105866106e26003610673565b906110bd93929160206109236106e26002610673565b82526004820184905260249082905afa948515610a6757600095611190575b506110e6856126d9565b6110f96101606109776106e26002610673565b82526004820189905260249082905afa8015610a675761112691600091610a8a57506109bd610164610846565b6111336106e26001610673565b9463c9b902e3906111456109ed6108c6565b96803b1561011757610a1b60008094611160610a0e60405190565b03925af1948515610a67576101329561117a575b50611208565b61118a906000610a528183610708565b38611174565b6111a991955060203d8111610aeb57610adc8183610708565b93386110dc565b91908201809211610b1757565b61090961013294610f28606094989795610f1e608086019a6000870152565b61090961013294610f286060949897956111fe608086019a6000870190610b8c565b6020850190610b8c565b909392600092611217846103c4565b828110156113585761122d610c22828585610b32565b90611237866103c4565b821161124d575b6112489150610b08565b611217565b600161126161125b826103c4565b836111b0565b9061126e6106e282610673565b906311aa10fb91803b1561011757888a93916112a18580946112ac8b8a61129460405190565b9a8b988997889660e01b90565b8652600486016111bd565b03925af1908115610a67576112ca926106e29261133c575b50610673565b9063fe99049a916112de6106e26002610673565b91813b15610117578980946113068e986112fb9461129460405190565b8652600486016111dc565b03925af1918215610a675761124892611320575b5061123e565b61133690873d8911610a6057610a528183610708565b3861131a565b611352908b3d8d11610a6057610a528183610708565b386112c4565b50505050509050565b90610132939291611089565b9061138292916020610d566106e26002610673565b82526004820184905260249082905afa938415610a6757600094611455575b506113ab846126d9565b6113be6101606109776106e26002610673565b82526004820188905260249082905afa8015610a67576113eb91600091610e555750610dd8610164610846565b6113f86106e26001610673565b9363c9b902e39061140a6109ed6108c6565b95803b1561011757610a1b60008094611425610e1860405190565b03925af1938415610a67576101329461143f575b5061149e565b61144f906000610a528183610708565b38611439565b61146e91945060203d8111610aeb57610adc8183610708565b92386113a1565b61090961013294610f28606094989795611497608086019a6000870190610ef4565b6020850152565b3393926114b36020610f526106e26004610673565b82526004820186905260249082905afa8015610a67576114e891600091611604575b50610f9b610c81610164610f968a6105ed565b6000926114f4846103c4565b828110156113585761150a610c22828585610b32565b90611514866103c4565b821161152a575b6115259150610b08565b6114f4565b600161153861125b826103c4565b906115456106e282610673565b9063fe99049a916115596106e26002610673565b92813b15610117578a916112fb838f936115778b8a61129460405190565b03925af1908115610a6757611594926106e29261133c5750610673565b906311aa10fb91803b15610117576115c18980946115ce6115b460405190565b9889968795869460e01b90565b84528d8560048601611475565b03925af1918215610a6757611525926115e8575b5061151b565b6115fe90873d8911610a6057610a528183610708565b386115e2565b61161c915060203d8111610aeb57610adc8183610708565b386114d5565b90610132929161136d565b9061013291611649336106e76105c86105866106e26003610673565b611670565b61090961013294610f28606094989795611497608086019a6000870190610b8c565b9061169c9060206116846106e26002610673565b635062e3b29061169360405190565b94859260e01b90565b82526004820186905260249082905afa918215610a6757600092611725575b506116c96106e26000610673565b63b6721898926116dc6106e26002610673565b92823b156101175760009461170486926116f994610cf560405190565b86526004860161164e565b03925af18015610a67576117155750565b610132906000610a528183610708565b61173e91925060203d8111610aeb57610adc8183610708565b90386116bb565b906101329161162d565b90610132929161176c336106e76105c86105866106e26003610673565b611790565b61090961013294610f28606094989795611497608086019a6000870152565b6117a4939260206109236106e26002610673565b82526004820185905260249082905afa948515610a675760009561188b575b506000926117d0846103c4565b82811015611358576117e6610c22828585610b32565b906117f0866103c4565b8211611806575b6118019150610b08565b6117d0565b6001916118276106e261182161181b866103c4565b856111b0565b94610673565b6311aa10fb90803b156101175761184a89899361185582968f9961129460405190565b865260048601611771565b03925af1918215610a67576118019261186f575b506117f7565b61188590873d8911610a6057610a528183610708565b38611869565b6118a491955060203d8111610aeb57610adc8183610708565b93386117c3565b90610132929161174f565b90610132916118d2336106e76105c86105866106e26003610673565b611914565b156118de57565b60405162461bcd60e51b815260206004820152600e60248201526d546f6f206d616e7920676561727360901b6044820152606490fd5b61193f9160206119276106e26002610673565b635062e3b29061193660405190565b95869260e01b90565b82526004820185905260249082905afa928315610a67576000936119e6575b5061198060206119716106e26000610673565b63c9a59e479061098660405190565b8252600482018690528180602481015b03915afa8015610a67576119bb916000916119c8575b506119b5610c816101646103d1565b106118d7565b6116c96106e26000610673565b6119e0915060203d8111610aeb57610adc8183610708565b386119a6565b6119ff91935060203d8111610aeb57610adc8183610708565b913861195e565b90610132916118b6565b906101329291611a2d336106e76105c86105866106e26003610673565b9190611a429060206116846106e26002610673565b82526004820187905260249082905afa918215610a6757600092611a92575b50611a6f6106e26001610673565b906311aa10fb93823b1561011757600094611704869261184a94610cf560405190565b611aab91925060203d8111610aeb57610adc8183610708565b9038611a61565b906101329291611a10565b906101329291611ada336106e76105c86105866106e26003610673565b611b25565b15611ae657565b60405162461bcd60e51b81526020600482015260176024820152766e65656420746f20626520696e2073616d6520726f6f6d60481b6044820152606490fd5b91611b336106e26002610673565b635062e3b26020611b4360405190565b8093611b4f8460e01b90565b82526004820188905260249082905afa908115610a6757611b8b92600092611bfb575b50602090611b836106e26002610673565b604051611693565b82526004820187905260249082905afa8015610a6757610c81611bb791611bbd94600091611be3575090565b14611adf565b611bcf60206119716106e26000610673565b825260048201879052818060248101611990565b610164915060203d8111610aeb57610adc8183610708565b6020919250611c1690823d8111610aeb57610adc8183610708565b9190611b72565b906101329291611abd565b90610132939291611c46336106e76105c86105866106e26003610673565b909291611c566106e26002610673565b635062e3b26020611c6660405190565b8093611c728460e01b90565b82526004820187905260249082905afa908115610a6757611ca592600092611bfb5750602090611b836106e26002610673565b82526004820189905260249082905afa8015610a6757610c81611bb791611cd194600091611be3575090565b611a6f6106e26001610673565b90610132939291611c28565b906101329291611d07336106e76105c86105866106e26003610673565b611e2c565b61011e8160070b90565b9050519061013282611d0c565b9050519061013282610195565b91906101608382031261011757611d47818461072e565b92611d558260208301610764565b92611d63836040840161072e565b92611d71816060850161072e565b92611d7f826080830161072e565b92611d8d8360a0840161072e565b92611d9b8160c0850161072e565b92611da98260e0830161072e565b92610164611dbb846101008501611d16565b93611dca81610120860161072e565b9361014001611d23565b611de16101646101649290565b61ffff1690565b15611def57565b60405162461bcd60e51b815260206004820152601560248201527418da185c9858dd195c881a5cc81b9bdd0819195859605a1b6044820152606490fd5b611e4e610160611e3f6106e26002610673565b630d8301909061098660405190565b82526004820186905260249082905afa8015610a67576000918291611f2f575b50611e78826126d9565b611e996020611e8a6106e26002610673565b635062e3b29061098660405190565b82526004820187905260249082905afa928315610a6757611bb7610c81611ece95611ec994600091611be3575090565b6129ed565b505050939050611ef4600094611eee611ee687611dd4565b9161ffff1690565b14611de8565b611f006106e285610673565b63b672189892611f136106e26002610673565b92823b15610117578694610d0d86926116f994610cf560405190565b9050611f5391506101603d8111611f61575b611f4b8183610708565b810190611d30565b505050505050505090611e6e565b503d611f41565b906101329291611cea565b90610132939291611f91336106e76105c86105866106e26003610673565b919290611fa7610160611e3f6106e26002610673565b82526004820185905260249082905afa8015610a6757600091829161205a575b50611fd1826126d9565b611fe36020611e8a6106e26002610673565b82526004820189905260249082905afa928315610a6757611bb7610c8161201395611ec994600091611be3575090565b50505094905061202b600095611eee611ee688611dd4565b6120386106e26001610673565b906311aa10fb93823b15610117578694610d0d869261184a94610cf560405190565b905061207591506101603d8111611f6157611f4b8183610708565b505050505050505090611fc7565b90610132939291611f73565b1561209657565b60405162461bcd60e51b81526020600482015260146024820152731bdb9b1e48191d5b99d95bdb88185b1b1bddd95960621b6044820152606490fd5b906101329392916120f6336120f06105c86105866106e26002610673565b1461208f565b612124565b6109096101329461211a606094989795611497608086019a6000870152565b6040830190610ef4565b6121316106e26001610673565b6311aa10fb6006823b156101175786926121616000809461216e61215460405190565b9788968795869460e01b90565b84528a8c600486016120fb565b03925af18015610a6757612229575b5061218b6106e26000610673565b63b672189861219d6106e26002610673565b823b156101175783926116f9600080946121bb8a8a610cf560405190565b03925af18015610a6757612213575b5061220e6122046121fe6121fe7f198e2ac2be3d740936b958f72f2ff48636882d544f3f03603725be8ae80f4f85946103c4565b946103c4565b9461040660405190565b0390a4565b612223906000610a528183610708565b386121ca565b612239906000610a528183610708565b3861217d565b906101329392916120d2565b9061013291612267336120f06105c86105866106e26002610673565b612374565b906008811015610b42576020020190565b903590601e19368290030182121561011757018035906001600160401b0382116101175760200191602082023603831361011757565b50610164906020810190610125565b6101329161010091610b95565b9035601e193683900301811215610117570160208101919035906001600160401b03821161011757602082023603831361011757565b610164916101408101916123409061232461232082806122b3565b8452565b6123356020820160208501906122c2565b6101208101906122cf565b91610120818503910152610b99565b604080825261016493919261236691840190612305565b916020818403910152612305565b600090612380826103c4565b602082019060088110156124f657600161239c61125b826103c4565b90602087016123ae610c22858361226c565b6123ba610c81896103c4565b11612479575b506123ce610c22848661226c565b6123da610c81886103c4565b116123f1575b50506123ec9150610b08565b612380565b6106e26123fd91610673565b906311aa10fb9161240f878701610b47565b91612428610c22866124228b8d01610b47565b9861226c565b823b15610117578894612443869261184a9461129460405190565b03925af1918215610a67576123ec9261245d575b806123e0565b61247390853d8711610a6057610a528183610708565b38612457565b6124856106e283610673565b6311aa10fb90612496898b01610b47565b906124af610c22886124a98d8d01610b47565b9661226c565b92813b15610117578a61184a916124cb82968a610cf560405190565b03925af18015610a6757156123c0576124f090873d8911610a6057610a528183610708565b386123c0565b5050929192612504826103c4565b610120820161251e610164612519838661227d565b905090565b8210156125cb57908591836125356106e287610673565b63b672189892612575610c228661256f6125688c6125618161255a6106e26002610673565b9a01610b47565b9b01610b47565b948b61227d565b90610b32565b823b1561011757889461259086926116f99461129460405190565b03925af1918215610a67576125aa926125af575b50610b08565b612504565b6125c590853d8711610a6057610a528183610708565b386125a4565b505091926125d8826103c4565b61012082016125ed610164612519838661227d565b821015612667579084959491836126066106e287610673565b63b67218989261262b610c228661256f6125688c6125618161255a6106e26002610673565b823b1561011757889461264686926116f99461129460405190565b03925af1918215610a675761265f926125af5750610b08565b9392936125d8565b505090612680612678828501610b47565b918301610b47565b916126b46126ae7fd475a0c010a34f4afb9b3cafe6a6005f2f2603913ec4cd25d812b510d5caa907936103c4565b936103c4565b936126ca6126c160405190565b9283928361234f565b0390a3565b906101329161224b565b6126ec6106e26106e26106e26002610673565b90638d94073c90823b156101175761170492610c516000809461270e60405190565b9687958694859360e01b90565b81810292918115918404141715610b1757565b634e487b7160e01b600052601260045260246000fd5b811561274e570490565b61272e565b61278561279591612762600090565b5061278061277a600292612774610846565b9061281a565b916103c4565b61271b565b61278f60066103c4565b90612744565b61279f60006103c4565b8103610164575061016460016103c4565b6127be9060070b9160070b90565b90039060016001603f1b0319821260016001603f1b03831317610b1757565b6101646101646101649260070b90565b600160ff1b8114610b175760000390565b91908083039260009091128015828513169184121617610b1757565b61284c61284761283561283f9361282f600090565b50612951565b5050939094612951565b5050946127b0565b6127dd565b91600091612859836103c4565b84126128ff575b6128476128709261277a926127b0565b81126128f1575b6001603f1b612885816103c4565b83136128d3575b612895906103c4565b81136128b8575b808213156128ae5750610164906103c4565b61016491506103c4565b6128ce906128c9600160401b6103c4565b6127fe565b61289c565b91612895906128e9906128c9600160401b6103c4565b92905061288c565b6128fa906127ed565b612877565b926128476128709261291361277a936127ed565b959250925050612860565b61292b6101646101649290565b6001600160401b031690565b6101649061294b906001600160401b031682565b60070b90565b9061296361295e8361291e565b612937565b9161298561295e61298061297a600160401b6103c4565b84612744565b61291e565b916101646129806129a661295e826129a0600160801b6103c4565b87612744565b9361278f600160ff1b6103c4565b610164906129c8610c816101649460ff1690565b901c90565b811561274e570690565b6129e46101646101649290565b63ffffffff1690565b90612a09612a046129fe60f8610853565b846129b4565b610853565b91612a1d612a1760e8610853565b826129b4565b612a3c612a376201000092612a31846103c4565b906129cd565b611dd4565b93612aa8612a37612a6e612a69612a5c612a5660c8610853565b886129b4565b612a31600160201b6103c4565b6129d7565b93612a3161277a612a97612a37612a8e612a8860b8610853565b8b6129b4565b612a31866103c4565b97612aa260a8610853565b906129b4565b9356feb53127684a568b3173ae13b9f8a6016e243e63b6e8ee1178d6a717850b5d6103a2646970667358221220f69d0b28add452359fe2e137873750b3f89ff290729a7214ffb7105c19014ec664736f6c63430008140033",
  "devdoc": {
    "kind": "dev",
    "methods": {},
    "version": 1
  },
  "userdoc": {
    "kind": "user",
    "methods": {},
    "version": 1
  },
  "storageLayout": {
    "storage": [
      {
        "astId": 7610,
        "contract": "src/dungeon/DungeonTokenTransferer.sol:DungeonTokenTransferer",
        "label": "_gears",
        "offset": 0,
        "slot": "0",
        "type": "t_contract(Gears)13837"
      },
      {
        "astId": 7613,
        "contract": "src/dungeon/DungeonTokenTransferer.sol:DungeonTokenTransferer",
        "label": "_elements",
        "offset": 0,
        "slot": "1",
        "type": "t_contract(Elements)13818"
      },
      {
        "astId": 7616,
        "contract": "src/dungeon/DungeonTokenTransferer.sol:DungeonTokenTransferer",
        "label": "_dungeon",
        "offset": 0,
        "slot": "2",
        "type": "t_contract(DungeonInfoFacet)5792"
      },
      {
        "astId": 7619,
        "contract": "src/dungeon/DungeonTokenTransferer.sol:DungeonTokenTransferer",
        "label": "_player",
        "offset": 0,
        "slot": "3",
        "type": "t_contract(Player)11695"
      },
      {
        "astId": 7622,
        "contract": "src/dungeon/DungeonTokenTransferer.sol:DungeonTokenTransferer",
        "label": "_characters",
        "offset": 0,
        "slot": "4",
        "type": "t_contract(Characters)743"
      }
    ],
    "types": {
      "t_contract(Characters)743": {
        "encoding": "inplace",
        "label": "contract Characters",
        "numberOfBytes": "20"
      },
      "t_contract(DungeonInfoFacet)5792": {
        "encoding": "inplace",
        "label": "contract DungeonInfoFacet",
        "numberOfBytes": "20"
      },
      "t_contract(Elements)13818": {
        "encoding": "inplace",
        "label": "contract Elements",
        "numberOfBytes": "20"
      },
      "t_contract(Gears)13837": {
        "encoding": "inplace",
        "label": "contract Gears",
        "numberOfBytes": "20"
      },
      "t_contract(Player)11695": {
        "encoding": "inplace",
        "label": "contract Player",
        "numberOfBytes": "20"
      }
    }
  }
}