{
  "address": "0x568f8863CE8B3470a5A376181678e030AeB066f7",
  "abi": [
    {
      "anonymous": false,
      "inputs": [
        {
          "indexed": true,
          "internalType": "uint256",
          "name": "characterId",
          "type": "uint256"
        },
        {
          "indexed": true,
          "internalType": "uint256",
          "name": "oldLocation",
          "type": "uint256"
        },
        {
          "indexed": true,
          "internalType": "uint256",
          "name": "newLocation",
          "type": "uint256"
        },
        {
          "indexed": false,
          "internalType": "uint8",
          "name": "mode",
          "type": "uint8"
        },
        {
          "indexed": false,
          "internalType": "uint256",
          "name": "path",
          "type": "uint256"
        }
      ],
      "name": "CharacterMoved",
      "type": "event"
    },
    {
      "anonymous": false,
      "inputs": [
        {
          "indexed": true,
          "internalType": "uint256",
          "name": "characterId",
          "type": "uint256"
        },
        {
          "indexed": false,
          "internalType": "uint256",
          "name": "monsterId",
          "type": "uint256"
        }
      ],
      "name": "Death",
      "type": "event"
    },
    {
      "anonymous": false,
      "inputs": [
        {
          "indexed": true,
          "internalType": "uint256",
          "name": "characterId",
          "type": "uint256"
        },
        {
          "indexed": true,
          "internalType": "address",
          "name": "player",
          "type": "address"
        },
        {
          "indexed": false,
          "internalType": "string",
          "name": "name",
          "type": "string"
        }
      ],
      "name": "Enter",
      "type": "event"
    },
    {
      "anonymous": false,
      "inputs": [
        {
          "indexed": false,
          "internalType": "uint256",
          "name": "characterId",
          "type": "uint256"
        },
        {
          "indexed": false,
          "internalType": "uint256",
          "name": "gearId",
          "type": "uint256"
        },
        {
          "indexed": false,
          "internalType": "uint8",
          "name": "slotType",
          "type": "uint8"
        }
      ],
      "name": "Equip",
      "type": "event"
    },
    {
      "anonymous": false,
      "inputs": [
        {
          "indexed": true,
          "internalType": "uint256",
          "name": "characterId",
          "type": "uint256"
        },
        {
          "indexed": false,
          "internalType": "uint16",
          "name": "hp",
          "type": "uint16"
        }
      ],
      "name": "Heal",
      "type": "event"
    },
    {
      "anonymous": false,
      "inputs": [
        {
          "indexed": true,
          "internalType": "uint256",
          "name": "characterId",
          "type": "uint256"
        },
        {
          "indexed": false,
          "internalType": "uint16",
          "name": "newLevel",
          "type": "uint16"
        }
      ],
      "name": "LevelUp",
      "type": "event"
    },
    {
      "anonymous": false,
      "inputs": [
        {
          "indexed": true,
          "internalType": "uint256",
          "name": "characterId",
          "type": "uint256"
        },
        {
          "indexed": true,
          "internalType": "uint64",
          "name": "id",
          "type": "uint64"
        },
        {
          "indexed": true,
          "internalType": "uint8",
          "name": "status",
          "type": "uint8"
        },
        {
          "indexed": false,
          "internalType": "string",
          "name": "data",
          "type": "string"
        }
      ],
      "name": "QuestUpdate",
      "type": "event"
    },
    {
      "anonymous": false,
      "inputs": [
        {
          "indexed": true,
          "internalType": "uint256",
          "name": "areaLocation",
          "type": "uint256"
        },
        {
          "indexed": false,
          "internalType": "uint64",
          "name": "blockNumber",
          "type": "uint64"
        }
      ],
      "name": "RandomEvent",
      "type": "event"
    },
    {
      "anonymous": false,
      "inputs": [
        {
          "indexed": true,
          "internalType": "uint256",
          "name": "characterId",
          "type": "uint256"
        },
        {
          "indexed": false,
          "internalType": "uint256",
          "name": "gearId",
          "type": "uint256"
        }
      ],
      "name": "Recycle",
      "type": "event"
    },
    {
      "anonymous": false,
      "inputs": [
        {
          "indexed": true,
          "internalType": "uint256",
          "name": "deadCharacterId",
          "type": "uint256"
        },
        {
          "indexed": false,
          "internalType": "uint256",
          "name": "newCharacterId",
          "type": "uint256"
        }
      ],
      "name": "Resurrect",
      "type": "event"
    },
    {
      "anonymous": false,
      "inputs": [
        {
          "indexed": true,
          "internalType": "uint256",
          "name": "location",
          "type": "uint256"
        },
        {
          "indexed": false,
          "internalType": "bytes32",
          "name": "blockHash",
          "type": "bytes32"
        },
        {
          "indexed": false,
          "internalType": "uint8",
          "name": "exits",
          "type": "uint8"
        },
        {
          "indexed": false,
          "internalType": "uint8",
          "name": "kind",
          "type": "uint8"
        }
      ],
      "name": "RoomActualised",
      "type": "event"
    },
    {
      "anonymous": false,
      "inputs": [
        {
          "indexed": true,
          "internalType": "uint256",
          "name": "location",
          "type": "uint256"
        },
        {
          "indexed": false,
          "internalType": "uint64",
          "name": "blockNumber",
          "type": "uint64"
        },
        {
          "indexed": false,
          "internalType": "uint8",
          "name": "direction",
          "type": "uint8"
        }
      ],
      "name": "RoomDiscovered",
      "type": "event"
    },
    {
      "anonymous": false,
      "inputs": [
        {
          "indexed": true,
          "internalType": "uint256",
          "name": "location",
          "type": "uint256"
        },
        {
          "indexed": true,
          "internalType": "address",
          "name": "owner",
          "type": "address"
        },
        {
          "indexed": false,
          "internalType": "uint256",
          "name": "id",
          "type": "uint256"
        },
        {
          "indexed": false,
          "internalType": "uint256",
          "name": "amount",
          "type": "uint256"
        }
      ],
      "name": "RoomIncome",
      "type": "event"
    },
    {
      "anonymous": false,
      "inputs": [
        {
          "indexed": true,
          "internalType": "uint256",
          "name": "location",
          "type": "uint256"
        },
        {
          "indexed": false,
          "internalType": "string",
          "name": "name",
          "type": "string"
        },
        {
          "indexed": false,
          "internalType": "uint256",
          "name": "characterId",
          "type": "uint256"
        }
      ],
      "name": "RoomName",
      "type": "event"
    },
    {
      "anonymous": false,
      "inputs": [
        {
          "indexed": true,
          "internalType": "address",
          "name": "owner",
          "type": "address"
        },
        {
          "indexed": false,
          "internalType": "uint256",
          "name": "tax",
          "type": "uint256"
        },
        {
          "indexed": false,
          "internalType": "uint256",
          "name": "newDueDate",
          "type": "uint256"
        }
      ],
      "name": "RoomTaxPay",
      "type": "event"
    },
    {
      "inputs": [
        {
          "internalType": "uint256",
          "name": "location",
          "type": "uint256"
        }
      ],
      "name": "actualiseRoom",
      "outputs": [],
      "stateMutability": "nonpayable",
      "type": "function"
    },
    {
      "inputs": [
        {
          "internalType": "address",
          "name": "sender",
          "type": "address"
        },
        {
          "internalType": "uint256",
          "name": "characterId",
          "type": "uint256"
        },
        {
          "internalType": "string",
          "name": "name",
          "type": "string"
        },
        {
          "internalType": "uint8",
          "name": "class",
          "type": "uint8"
        },
        {
          "internalType": "uint256",
          "name": "location",
          "type": "uint256"
        }
      ],
      "name": "enter",
      "outputs": [],
      "stateMutability": "payable",
      "type": "function"
    },
    {
      "inputs": [
        {
          "internalType": "uint256",
          "name": "characterId",
          "type": "uint256"
        }
      ],
      "name": "exit",
      "outputs": [],
      "stateMutability": "nonpayable",
      "type": "function"
    },
    {
      "inputs": [
        {
          "internalType": "uint256",
          "name": "characterId",
          "type": "uint256"
        },
        {
          "internalType": "uint8",
          "name": "direction",
          "type": "uint8"
        }
      ],
      "name": "move",
      "outputs": [],
      "stateMutability": "nonpayable",
      "type": "function"
    },
    {
      "inputs": [
        {
          "internalType": "uint256",
          "name": "characterId",
          "type": "uint256"
        },
        {
          "internalType": "uint8[]",
          "name": "directions",
          "type": "uint8[]"
        }
      ],
      "name": "movePath",
      "outputs": [],
      "stateMutability": "nonpayable",
      "type": "function"
    },
    {
      "inputs": [
        {
          "internalType": "uint256",
          "name": "characterId",
          "type": "uint256"
        },
        {
          "internalType": "uint256",
          "name": "teleportLocation",
          "type": "uint256"
        }
      ],
      "name": "teleport",
      "outputs": [],
      "stateMutability": "nonpayable",
      "type": "function"
    }
  ],
  "transactionHash": "0xdaf85199bbe93dbd3d3f000775e3ca9f367b441048b3330ffefc39901d6a8929",
  "args": [],
  "numDeployments": 4,
  "linkedData": {
    "readOnlyDungeon": "0x60806040523461001a576040516128cc61002082396128cc90f35b600080fdfe6080604052600436101561001257600080fd5b60003560e01c80630ececfea14610152578063213ee1431461014d5780632f5877961461014857806330ad9329146101435780633683dee11461013e578063467b47931461013957806356b5c381146101345780637a9234741461012f5780639f7cb08e1461012a578063a48378ff14610125578063acda69ca14610120578063b0ca9dfe1461011b578063c3aab23c14610116578063d5763a8014610111578063d667fd041461010c578063ed53a62414610107578063f090aca814610102578063f6940ac7146100fd578063fcaf8951146100f85763ff5335fa0361015757610887565b61086b565b61083b565b6107d9565b6107ba565b610728565b6106bf565b61064e565b6105fc565b6105da565b61054c565b610518565b610499565b610452565b610436565b6103af565b61033b565b6102d8565b610293565b6101cb565b600080fd5b805b0361015757565b905035906101728261015c565b565b9190604083820312610157576101979061018e8185610165565b93602001610165565b90565b9052565b6001600160401b031690565b61019a9061019e565b908152604081019291610172916020905b01906101aa565b34610157576101e46101de366004610174565b90612758565b906101fa6101f160405190565b928392836101b3565b0390f35b60ff811661015e565b90503590610172826101fe565b909160c0828403126101575761022a8383610165565b926102388160208501610165565b926102468260408301610207565b926101976102578460608501610207565b936102658160808601610207565b9360a001610207565b60ff918216815291166020820152606081019291610172916040905b019060ff169052565b34610157576101fa6102b56102a9366004610214565b94939093929192611472565b6040519193919384938461026e565b906020828203126101575761019791610165565b34610157576101fa6102f36102ee3660046102c4565b610c64565b6040519182918290815260200190565b6101c461017294610331606094989795610327608086019a600087019060070b9052565b60070b6020850152565b60070b6040830152565b34610157576101fa6103566103513660046102c4565b610996565b9061036394929460405190565b94859485610303565b9091606082840312610157576101976103858484610165565b936103938160208601610165565b93604001610207565b9081526040810192916101729160200152565b34610157576103c86103c236600461036c565b916110f9565b906101fa6103d560405190565b9283928361039c565b909182601f83011215610157578135916001600160401b03831161015757602001926020830284011161015757565b906020828203126101575781356001600160401b0381116101575761043292016103de565b9091565b34610157576101fa6102f361044c36600461040d565b906126a2565b34610157576101fa6102f3610468366004610174565b9061286f565b61ffff811661015e565b905035906101728261046e565b906020828203126101575761019791610478565b34610157576101fa6102f36104af366004610485565b61263d565b919461050161050c929897956104f660a0966104ec6101729a6104e260c08a019e60008b019061ffff169052565b60ff166020890152565b60ff166040870152565b61ffff166060850152565b61ffff166080830152565b019063ffffffff169052565b34610157576101fa61053361052e3660046102c4565b6122c1565b9261054396949692919260405190565b968796876104b4565b34610157576101fa6102f36105623660046102c4565b611415565b63ffffffff811661015e565b9050359061017282610567565b909160c082840312610157576105968383610478565b926105a48160208501610207565b926105b28260408301610207565b926101976105c38460608501610478565b936105d18160808601610478565b9360a001610573565b34610157576101fa6102f36105f0366004610580565b949390939291926121ed565b34610157576101fa6102f3610612366004610174565b9061274e565b906020828203126101575761019791610207565b61ffff909116815260608101939261017292909160409161028a906020830152565b34610157576101fa610669610664366004610618565b612379565b6040519193919384938461062c565b61015e8160070b90565b9050359061017282610678565b9091606082840312610157576101976106a88484610682565b936106b68160208601610682565b93604001610682565b34610157576101fa6102f36106d536600461068f565b916108a2565b909594926101729461071b61028a9261071060809661070560a088019c600089019061ffff169052565b61ffff166020870152565b61ffff166040850152565b63ffffffff166060830152565b34610157576101fa61074361073e3660046102c4565b612100565b9161075095939560405190565b958695866106db565b80151561015e565b9050359061017282610759565b919060a083820312610157576107848184610165565b926107928260208301610165565b926101976107a38460408501610165565b936107b18160608601610761565b93608001610207565b34610157576101fa6102f36107d036600461076e565b93929092610a66565b34610157576101fa6102f36107ef366004610174565b906125ef565b61015e8161019e565b90503590610172826107f5565b9091606082840312610157576101976108248484610165565b936108328160208601610165565b936040016107fe565b34610157576101fa61085761085136600461080b565b91610db0565b6040519182918260ff909116815260200190565b34610157576101fa61085761088136600461036c565b916120f5565b34610157576101fa6102f361089d3660046102c4565b61264a565b610197929190610919565b6108bd6101976101979260070b90565b61019e565b6101976101976101979261019e565b6101976101976101979290565b634e487b7160e01b600052601160045260246000fd5b8181029291811591840414171561090757565b6108de565b9190820180921161090757565b9061095461099061098a9261098a61097d6109546109776101979961093c600090565b5061097261096c610959610954600160ff1b946108ad565b6108c2565b610966600160801b6108d1565b906108f4565b916108d1565b61090c565b936108ad565b610966600160401b6108d1565b9061090c565b926108ad565b6109a39060005b506109fd565b929391929091565b6108bd6101976101979290565b6109c76101976101979261019e565b60070b90565b634e487b7160e01b600052601260045260246000fd5b906109ed565b9190565b9081156109f8570490565b6109cd565b90610a0f610a0a836109ab565b6109b8565b91610a31610a0a610a2c610a26600160401b6108d1565b846109e3565b6109ab565b91610197610a2c610a52610a0a82610a4c600160801b6108d1565b876109e3565b93610a60600160ff1b6108d1565b906109e3565b6101979493929190610b4a565b610a806101976101979290565b60ff1690565b6101976001610a73565b610197600f610a73565b610aa99060ff165b9160ff1690565b019060ff821161090757565b61019a9060ff1660f81b90565b60019392610adf602083610ad98295610ae7979052565b01918252565b018092610ab5565b0190565b634e487b7160e01b600052604160045260246000fd5b90601f01601f191681019081106001600160401b03821117610b2257604052565b610aeb565b610197906108d1565b81156109f8570690565b6101976101976101979260ff1690565b929093610b55600090565b50610b64610aa2610a80610a86565b03610c5657610b71610a90565b8091610c3b575b50610be76109e9610be1610bd1610b8f6006610a73565b610bb9610b9b60405190565b8092610bad60208301918d8d84610ac2565b90810382520382610b01565b610bcb610bc4825190565b9160200190565b20610b27565b610bdb60646108d1565b90610b30565b92610b3a565b10610bf95750505061019760006108d1565b610c2c610c3192610bb961019795610c116007610a73565b92610bad610c1e60405190565b948593602085019384610ac2565b610b30565b61098a60016108d1565b610c509150610c4a600a610a73565b90610a9a565b38610b78565b5050505061019760006108d1565b61019790610ceb565b6109c76101976101979290565b60070b60016001603f1b031981146109075760000390565b610ca19060070b5b9160070b90565b019060016001603f1b03821360016001603f1b031983121761090757565b610ccb9060070b610c9a565b9081156109f85760016001603f1b03198114600019831416610907570590565b610d5161019791610d03610cfd600090565b916109fd565b50939091600090610d1382610c6d565b610d1d8260070b90565b12610d9857610d39610d4991610d336004610c6d565b90610c92565b610d436009610c6d565b90610cbf565b935b50610c6d565b610d5b8260070b90565b12610d7757610d39610d7191610d336004610c6d565b90610919565b610d93610d39610d89610d7193610c7a565b610d336004610c6d565b610c7a565b610d93610d39610d89610daa93610c7a565b93610d4b565b610197929190610e7d565b610197600a610a73565b6108bd6101976101979260ff1690565b610de1610de79161019e565b9161019e565b0290610df28261019e565b91820361090757565b9190820391821161090757565b6101976019610a73565b610e1f6101976101979290565b61ffff1690565b6101976064610e12565b610e1f6101976101979260ff1690565b610e4c9060070b610c9a565b9081156109f8570790565b610e676101976101979260070b90565b60000b90565b610a806101976101979260000b90565b91610e8783611070565b908115610fb9575b5015610ea15750506101976006610a73565b610ec0610954610eb084610fd6565b610eba60096109ab565b90610dd5565b610eca60006108d1565b8111610fa0575b610ee46109e9610edf610e08565b610b3a565b10610f9457610f27610f1c610bad610bb9610f2c94610f03600c610a73565b90610f0d60405190565b93849260208401928a84610ac2565b610bdb6127106108d1565b610a73565b610f40610f3a610e1f610e26565b91610e30565b11610f8957610f51610197916109fd565b50915050610f84610f7e610f79610f74600194610f6e6005610c6d565b90610e40565b610e57565b610e6d565b91610a73565b610a9a565b506101976006610a73565b50506101976006610a73565b610fb490610fae60046108d1565b90610dfb565b610ed1565b9050610fce610de1610fc9610dbb565b610dc5565b101538610e8f565b610fe190600061099d565b50819050600083610ff182610c6d565b610ffb8260070b90565b1261105a575b5061100b90610c6d565b6110158260070b90565b1261104a575b506110268160070b90565b6110308360070b90565b13156110405750610197906108ad565b61019791506108ad565b6110549150610c7a565b3861101b565b61100b91945061106990610c7a565b9390611001565b61107b90600061099d565b50506000199161108a83610c6d565b6110948260070b90565b121592836110db575b50826110c2575b50816110ae575090565b90506110bd610c9a6001610c6d565b131590565b9091506110d2610c9a6001610c6d565b131590386110a4565b6110e6919350610c6d565b6110f08260070b90565b1215913861109d565b610432929190611118565b6101976002610a73565b6101976004610a73565b9092909161112660006108d1565b9361113f6111348686611317565b610a60610edf610e08565b85811461129f575b60029061118f61115f611159846108d1565b836109e3565b61098a83610c2c610bad610bb96111766064610a73565b8d61118060405190565b9384928d602085019384610ac2565b9587871461128d575b6111a0611104565b6111ac60ff8716610aa2565b14611265575b9161098a916111f3949360086111c7816108d1565b8311611245575b50610bb96111e86111e2610c2c94956108d1565b856109e3565b95610c116065610a73565b938414611233575b611210610aa2611209610a86565b9260ff1690565b1461121757565b916112309061098a61122a610edf61110e565b826109e3565b91565b925061123f60016108d1565b926111fb565b610c2c92506111e86111e261125c610bb9936108d1565b945050506111ce565b959161098a916112816111f3959461098a61122a610edf61110e565b979193945091506111b2565b955061129960016108d1565b95611198565b506112aa60016108d1565b611147565b6112bb9060070b610c9a565b90039060016001603f1b0319821260016001603f1b0383131761090757565b6101976101976101979260070b90565b600160ff1b81146109075760000390565b9190808303926000909112801582851316918412161761090757565b61134361133e61132c6113369361099d600090565b50509390946109fd565b5050946112af565b6112da565b91600091611350836108d1565b84126113f6575b61133e6113679261096c926112af565b81126113e8575b6001603f1b61137c816108d1565b83136113ca575b61138c906108d1565b81136113af575b808213156113a55750610197906108d1565b61019791506108d1565b6113c5906113c0600160401b6108d1565b6112fb565b611393565b9161138c906113e0906113c0600160401b6108d1565b929050611383565b6113f1906112ea565b61136e565b9261133e6113679261140a61096c936112ea565b959250925050611357565b6101979061142b565b610197600160ff1b6108d1565b61143661019761141e565b8103611447575061019760006108d1565b61145e6101979161145860006108d1565b90611317565b61097261096c600192610a60610edf610e08565b611480959493929190611487565b9192909190565b959492906114a3610432959361149b600090565b508289611af3565b966114ce565b6101976005610a73565b6101976003610a73565b60ff1660ff81146109075760010190565b949360006114e66114de88610ceb565b9594976109fd565b5050600093916114f8610c9a86610c6d565b1490816119b0575b501561152357505050505050611514611104565b9161151f6001610a73565b1790565b95909691929394965b60ff87165b60ff8716116119a657506115456003610a73565b611590610f2761158687610bb98a8d610bad8861156160405190565b95869460208601948592610adf6001610ae794610ad9602088610adf859b9a83999052565b610bdb60146108d1565b906115b261159e6001610a73565b85166115ad610aa26001610a73565b141590565b90818061197d575b156115eb575050506115316115e26115d0611104565b936115db6001610a73565b17966114bd565b9592905061152c565b6116076115f86002610a73565b86166115ad610aa26002610a73565b91828061192f575b1561163157505050506115316115e26116266114b3565b936115db6002610a73565b61164d61163e6004610a73565b87166115ad610aa26004610a73565b91828061188c575b156116785750505050506115316115e261166d61110e565b936115db6004610a73565b6116946116856008610a73565b88166115ad610aa26008610a73565b94856116d7575b50505050506000146116c0576115316115e26116b56114a9565b936115db6008610a73565b6115316115e26116d1969396610a86565b936114bd565b6116e691929394955060ff1690565b14928315611875575b8315611851575b831561182d575b8315611809575b83156117d8575b83156117a7575b8315611776575b831561172d575b505050388080808061169b565b9091925061173b604d610a73565b60ff891614928361176e575b5082611766575b508161175e575b50388080611720565b905038611755565b91503861174e565b925038611747565b9250611782604e610a73565b60ff891614806117a0575b80611799575b92611719565b5082611793565b508161178d565b92506117b3604e610a73565b60ff891614806117d1575b806117ca575b92611712565b50816117c4565b50806117be565b92506117e4604e610a73565b60ff89161480611802575b806117fb575b9261170b565b50826117f5565b50806117ef565b9250611815604f610a73565b60ff89161480611826575b92611704565b5081611820565b9250611839604f610a73565b60ff8916148061184a575b926116fd565b5082611844565b925061185d604f610a73565b60ff8916148061186e575b926116f6565b5080611868565b92506118816050610a73565b60ff891614926116ef565b506118976002610a73565b60ff861614801561191a575b80156118fd575b80156118e0575b8061165557506118c1604e610a73565b60ff8b1614806118d9575b8015611655575083611655565b50816118cc565b506118eb604f610a73565b60ff8b161480156118b15750836118b1565b50611908604f610a73565b60ff8b161480156118aa5750816118aa565b506119256050610a73565b60ff8b16146118a3565b5061193a6001610a73565b60ff8516148015611968575b8061160f5750611956604f610a73565b60ff8a1614801561160f57508061160f565b506119736050610a73565b60ff8a1614611946565b5061198786610a73565b60ff841614806115ba575061199c6050610a73565b60ff8916146115ba565b9650935093505050565b90506119be610c9a85610c6d565b1438611500565b6101976057610a73565b939190925b600182116119e0575050565b90919280820481116109075760018316611a02575b8002929160011c906119d4565b938402936119f5565b9291928115611a8e578015611a86578080600114611a7d57600214611a685760208210610133821016604e8310600b83101617611a5e5792611a519181939460016119cf565b8092048111610907570290565b0a91821161090757565b5060ff81116109075760020a91821161090757565b50600193505050565b506000925050565b506001925050565b61019791611aa9610aa260ff9360ff1690565b90611a0b565b6101976028610a73565b6101976000610a73565b611acf9060ff16610aa2565b90039060ff821161090757565b611ae89060ff16610aa2565b029060ff8216610df2565b90600092611b0084610a73565b90611b0961110e565b611b1560ff8316610aa2565b03611dcd575050611b26600f610a73565b925b611b53611b35606f610a73565b610bb9611b4160405190565b8092610bad6020830191888a84610ac2565b611b65610f27606492610bdb846108d1565b90611b82610a80611b74611aaf565b611b7d84610a73565b611ac3565b60ff83161015611d91575050611b9790610a73565b905b600491611ba583610a73565b60ff821610611bd657505061151f9150611bd1610f7e600f92611bcb610f7e6002610a73565b90611a96565b611adc565b6003611be181610a73565b60ff831603611c8c575050611c14610f27611c0b611c2e9495610bb9611c1e95610c116070610a73565b610bdb866108d1565b610c4a6001610a73565b611c286007610a73565b90611adc565b611c386015610a73565b60ff821603611c5c575061151f90611bd1610f7e600d92611bcb610f7e6002610a73565b611c69610aa2601c610a73565b14611c72575090565b61151f90611bd1610f7e600b92611bcb610f7e6002610a73565b9091600292611c9a84610a73565b60ff821603611d2c5750610f7e611c14610f27611cc7611cd1969798610bb9611c2896610c116070610a73565b610bdb60066108d1565b611cdb600f610a73565b60ff821603611cfd5750611bd1610f7e61151f93611bcb610f7e600595610a73565b611d0a610aa26012610a73565b14611d1457505090565b611bd1610f7e61151f93611bcb610f7e600a95610a73565b90929150611d3d610aa26001610a73565b14611d4a575b5050505090565b611bcb611d7a611d80611d7a610f27611d71611d8799610bb9611c2899610c116070610a73565b610bdb896108d1565b93610a73565b9283611a96565b1738808080611d43565b610aa2610a80611da692611b7d610f7e610dbb565b10159050611dbe57611db86001610a73565b90611b99565b611dc86002610a73565b611db8565b611dd89491946119c5565b90611de36001610a73565b91611e04611df060405190565b610bb98160208101610bad888b8d84610ac2565b90611e1d610aa2610a80610f27606495610bdb876108d1565b116120d3575b90849291611e2f611aaf565b611e64610aa2610a80610f27611e5b8c610bb9611e4c6002610a73565b9b8c92610bad610c1e60405190565b610bdb876108d1565b11611e73575b50505050611b28565b8690611e8198949598610e08565b87611e8c6003610a73565b91611eba610aa2610a80610f27611d71611ea560405190565b610bb9818c610bad8c8c602085019384610ac2565b1115611f735750505050611ecc611ab9565b611ed860ff8316610aa2565b148015611f58575b15611efe575050611ef16008610a73565b1717925b38808080611e6a565b9091959250611f0b610a86565b611f1760ff8316610aa2565b14908115611f41575b50611f2c575b50611ef5565b909317611f396004610a73565b179238611f26565b9050611f51610aa26112096114b3565b1438611f20565b50611f61611104565b611f6d60ff8316610aa2565b14611ee0565b610f27611f9d93610bdb61096c610f7e95610bb9610a809660329e9c9e9a610bad610c1e60405190565b111561203a57611fab611ab9565b611fb760ff8316610aa2565b03611fd15750509050611fca6008610a73565b1792611ef5565b611fd9610a86565b611fe560ff8316610aa2565b03611ff457505017925b611ef5565b909250611fff611104565b61200b60ff8316610aa2565b0361201857501792611ef5565b9094915061202a610aa26112096114b3565b03611fef5792611fca6004610a73565b612045939193611ab9565b61205160ff8316610aa2565b0361205f5750501792611ef5565b9091925061206b610a86565b61207760ff8316610aa2565b03612088575050611fca6004610a73565b612090611104565b61209c60ff8316610aa2565b036120ad575050611fca6008610a73565b6120be610aa26112099794976114b3565b146120c95750611ef5565b9093179238611f26565b955090816120eb85936120e66002610a73565b611a96565b9690919250611e23565b610197929190611af3565b61210990612143565b919394909293929190565b610197906121286109e96101979460ff1690565b901c90565b61213a6101976101979290565b63ffffffff1690565b9061215a610f2761215460f8610a73565b84612114565b9161216e61216860e8610a73565b82612114565b6121876121826201000092610bdb846108d1565b610e12565b936121ea6121826121b96121b46121a76121a160c8610a73565b88612114565b610bdb600160201b6108d1565b61212d565b93610bdb61096c6121d9612182611c0b6121d360b8610a73565b8b612114565b976121e460a8610a73565b90612114565b93565b610197959493929190612238565b6101979061220f6109e96101979460ff1690565b901b90565b6101976101976101979261ffff1690565b6101976101976101979263ffffffff1690565b6122b161228d61098a9561098a6122a761228d6101979b9a9761098a61229d610be161098a9a61098a6122936122bb9f61227d61228d91612277600090565b50610b3a565b61228760f8610a73565b906121fb565b92612214565b61228760e8610a73565b61228760e0610a73565b61228760d0610a73565b61228760c0610a73565b91612225565b6122ce9060005b506122da565b94959394929391929091565b906122eb610f2761215460f8610a73565b6122f861215460e8610a73565b61230c6121826201000092610bdb846108d1565b9361232b610f2761232061215460e0610a73565b610bdb6101006108d1565b936101976121b461236b61218261235a61218261235161234b60d0610a73565b89612114565b610bdb8a6108d1565b96610bdb61096c61234b60c0610a73565b93610bdb600160201b6108d1565b61238e61148091612388600090565b50610e30565b612438565b906101726123a060405190565b9283610b01565b6001600160401b038111610b225760200290565b6123c7610197916123a7565b612393565b634e487b7160e01b600052603260045260246000fd5b90600b8110156123f3576020020190565b6123cc565b6124099061ffff165b9161ffff1690565b019061ffff821161090757565b61019791611aa9610aa261ffff9361ffff1690565b6109ed9061ffff16612401565b9061256661255e612449600b6123bb565b612461600061245781610e12565b61ffff1690830152565b61247961246e600a610e12565b61ffff166020830152565b6124916124866031610e12565b61ffff166040830152565b6124a961249e6077610e12565b61ffff166060830152565b6124b661050160d0610e12565b6124cf6124c4610148610e12565b61ffff1660a0830152565b6124e86124dd61020c610e12565b61ffff1660c0830152565b6125016124f661033a610e12565b61ffff1660e0830152565b61251b61250f6104f5610e12565b61ffff16610100830152565b612535612529610e46610e12565b61ffff16610120830152565b61254f612543611aee610e12565b61ffff16610140830152565b61255885612214565b906123e2565b5161ffff1690565b9160089061257382610e12565b61ffff8216111561259557505061258b6101ec6108d1565b905b610197610dbb565b6125e9916125de6125d86125c86125b86125e4956125b36001610e12565b6123f8565b6125c26003610a73565b90612416565b6125d26005610e12565b9061242b565b91610e12565b906123f8565b612214565b9061258d565b61019791906126189061261361096c6126229461260a600090565b50600293611317565b6108f4565b610a6060056108d1565b61262c60006108d1565b8103610197575061019760016108d1565b6101979061019790612214565b6101979061266f6126229161265d600090565b5061261361096c60029261145861141e565b610a6060066108d1565b60001981146109075760010190565b91908110156123f3576020020190565b356101978161015c565b906126ad60006108d1565b91825b828410156126e6576126da6126e09161098a6126d56126d0888888612688565b612698565b6126ed565b93612679565b926126b0565b9250505090565b6126f89060006122c8565b50939150915060019161272d6124016127256125e461271c6002966125d288610e12565b6125b388610e12565b9561ffff1690565b1461273757505090565b610197929161097261096c6111e261098a946108d1565b6101979190611317565b61043291906127da916127d4610f276127926127746066610a73565b610bb961278060405190565b8092610bad6020830191898b84610ac2565b610bdb61096c610bad610bb96127b0610f27600996610bdb886108d1565b976127bb6067610a73565b906127c560405190565b93849260208401928d84610ac2565b916127fd565b9061019760026109ab565b6127f19060070b610c9a565b0290610df28260070b90565b610d7161019793610d33610a0a61285d6128639661285761286961284161283b61282c61283b9b61099d600090565b509d9160099491949d8e610c6d565b906127e5565b95610d33610a0a61285d6004996128578b610c6d565b906112af565b92610dc5565b9a610c6d565b91610c6d565b6101979161261361019792612882600090565b5061097261096c600192610a60600a6108d156fea264697066735822122041f4fbeca2d12742f854361aff4432345def4b764975da853386133d3d0f292e64736f6c63430008140033"
  },
  "solcInputHash": "0fc8db5c515bcc17ef2329a4e01d28fa",
  "bytecode": "0x60806040523461001b576040516157cb6200002182396157cb90f35b600080fdfe6080604052600436101561001257600080fd5b60003560e01c80632d3e0851146100725780634f28b6d21461006d5780636a4e2484146100685780637f8661a1146100635780638d94073c1461005e5763a23782b303610077576102a0565b6101d7565b6101bf565b610192565b610156565b6100d0565b600080fd5b805b0361007757565b905035906100928261007c565b565b60ff811661007e565b9050359061009282610094565b9190604083820312610077576100cd906100c48185610085565b9360200161009d565b90565b34610077576100e96100e33660046100aa565b906135be565b604051005b909182601f83011215610077578135916001600160401b03831161007757602001926020830284011161007757565b919091604081840312610077576101348382610085565b9260208201356001600160401b0381116100775761015292016100ee565b9091565b34610077576100e961016936600461011d565b91613f05565b9190604083820312610077576100cd906101898185610085565b93602001610085565b34610077576100e96101a536600461016f565b90611aa4565b90602082820312610077576100cd91610085565b34610077576100e96101d23660046101ab565b6116b6565b34610077576100e96101ea3660046101ab565b61345b565b6001600160a01b031690565b61007e816101ef565b90503590610092826101fb565b909182601f83011215610077578135916001600160401b03831161007757602001926001830284011161007757565b9060a082820312610077576102558183610204565b926102638260208501610085565b926040810135916001600160401b03831161007757610287846100cd948401610211565b939094610297816060860161009d565b93608001610085565b6100e96102ae366004610240565b94939093929192610c8a565b6100cd90546101ef565b6100cd906101ef906001600160a01b031682565b6100cd906102c4565b6100cd906102d8565b0190565b156102f557565b60405162461bcd60e51b81526020600482015260146024820152731bdb9b1e481c1b185e595c9cc8185b1b1bddd95960621b6044820152606490fd5b0390fd5b90610092959493929161036b3361036561035f61035a610355600a6102ba565b6102e1565b6101ef565b916101ef565b146102ee565b6106e3565b634e487b7160e01b600052604160045260246000fd5b90601f01601f191681019081106001600160401b038211176103a757604052565b610370565b90505190610092826101fb565b90602082820312610077576100cd916103ac565b9052565b6040513d6000823e3d90fd5b905051906100928261007c565b90602082820312610077576100cd916103dd565b6100cd6100cd6100cd9290565b1561041257565b60405162461bcd60e51b815260206004820152601260248201527130b63932b0b23c9034b710323ab733b2b7b760711b6044820152606490fd5b600091031261007757565b6103cd906101ef565b60409061048a610092949695939661048060608401986000850190610457565b6020830190610457565b0152565b6100cd9081906001600160a01b031681565b9081526040810192916100929160200152565b6104c06100cd6100cd9290565b60ff1690565b6100cd60086104b3565b6100cd6100cd6100cd9260ff1690565b6103cd906104d0565b908152604081019291610092916020905b01906104e0565b6103cd906103fe565b90815260608101939261009292909160409161052b905b60208301906104e0565b0190610501565b6100cd60106104b3565b9061009261054960405190565b9283610386565b6100cd60a061053c565b6105676100cd6100cd9290565b61ffff1690565b61057b6100cd6100cd9290565b63ffffffff1690565b6105676100cd6100cd9260ff1690565b9061059e906103fe565b600052602052604060002090565b6100cd9060d01c6104c0565b6100cd90546105ac565b6100cd60026104b3565b6100cd600160ff1b6103fe565b90600019905b9181191691161790565b906105f96100cd610600926103fe565b82546105d9565b9055565b6001600160401b031690565b6100cd9060801c610604565b610604565b6100cd9054610610565b634e487b7160e01b600052601160045260246000fd5b61064a90610604565b6001600160401b03811461065e5760010190565b61062b565b90600160801b600160c01b039060801b6105df565b61061c6100cd6100cd92610604565b906106976100cd61060092610678565b8254610663565b90826000939282370152565b91906106c8816106c1816102ea9560209181520190565b809561069e565b601f01601f191690565b60208082526100cd939101916106aa565b93949092919461071360206106fb61035560066102ba565b636352211e9061070a60405190565b93849260e01b90565b82526004820188905260249082905afa908115610a9157600091610c5c575b5061073c306102e1565b9061074961035f836101ef565b14610be15761075b61035560066102ba565b6323b872dd813b156100775760009161078a838a936107958b61077d60405190565b9889978896879560e01b90565b855260048501610460565b03925af18015610a9157610bcb575b505b6107b361035560066102ba565b90637fbddc476107ca6107c5886102d8565b61048e565b833b15610077576107fe936107f2600080946107e560405190565b9788958694859360e01b90565b83528c600484016104a0565b03925af1918215610a915761083a92610bb5575b50602061082261035560066102ba565b630178fe3f9061083160405190565b94859260e01b90565b82526004820188905260249082905afa918215610a9157600092610b95575b5060009161086d610869846103fe565b9190565b03610a96576108eb906108e56108cf610884610532565b61089a61088f610550565b60ff90951687860152565b6108b16108a68761055a565b61ffff166020860152565b6108ca6108bd8761056e565b63ffffffff166040860152565b610584565b61ffff811660608401525b61ffff166080830152565b85610ce2565b6108f484610e0c565b61090161035560076102ba565b916302acc94b61090f6104c6565b600a94803b156100775761093885809461094461092b60405190565b998a968795869460e01b90565b84528d6004850161050a565b03925af1928315610a91576109b093610a65575b505b610963826103fe565b81141580610a34575b80610a0f575b156109fe57610998905b610991818461098b8982610594565b016105e9565b6001610594565b016109aa6109a582610621565b610641565b90610687565b6109e36109dd7f1ef8e6b9c3066d754206fef3b8d359e66eccb916e044a69e2a40ac01e1220e2b936103fe565b936102e1565b936109f96109f060405190565b928392836106d2565b0390a3565b50610998610a0a6105cc565b61097c565b50610a2181610a1c6105cc565b614b6b565b610a2e610869600a6103fe565b10610972565b50610a4a82610a44836001610594565b016105b8565b610a5f610a586104c06105c2565b9160ff1690565b1461096c565b610a8490833d8511610a8a575b610a7c8183610386565b81019061044c565b38610958565b503d610a72565b6103d1565b50610aa461035560076102ba565b91610ac1602063b30dc7ca610ab76104c6565b9561070a60405190565b82528180610ad3898c600484016104e9565b03915afa908115610a91578391610b67575b50610af2610869846103fe565b14610b02575b6109b0925061095a565b610b0f61035560076102ba565b600a936302acc94b91803b1561007757610938858094610b3161092b60405190565b03925af1928315610a91576109b093610b4b575b50610af8565b610b6190833d8511610a8a57610a7c8183610386565b38610b45565b610b88915060203d8111610b8e575b610b808183610386565b8101906103ea565b38610ae5565b503d610b76565b610bae91925060203d8111610b8e57610b808183610386565b9038610859565b610bc5906000610a7c8183610386565b38610812565b610bdb906000610a7c8183610386565b386107a4565b50610c036020610bf461035560066102ba565b633038bb089061070a60405190565b82526004820188905260249082905afa8015610a9157610c3991600091610c3e575b50610c3361086960006103fe565b1461040b565b6107a6565b610c56915060203d8111610b8e57610b808183610386565b38610c25565b610c7d915060203d8111610c83575b610c758183610386565b8101906103b9565b38610732565b503d610c6b565b906100929594939291610335565b6100cd90610cac6108696100cd9460ff1690565b901b90565b6100cd6100cd6100cd9261ffff1690565b9190820180921161065e57565b6100cd6100cd6100cd9263ffffffff1690565b90610da490610d45610d9a610d366080610d90610d71610d4b610d21610d11610d0c8a5160ff1690565b6104d0565b610d1b60f86104b3565b90610c98565b610d45610d3b610d3660208c015161ffff1690565b610cb1565b610d1b60e86104b3565b90610cc2565b610d45610d67610d6260408b015163ffffffff1690565b610ccf565b610d1b60c86104b3565b610d45610d86610d3660608a015161ffff1690565b610d1b60b86104b3565b94015161ffff1690565b610d1b60a86104b3565b90610db261035560066102ba565b90634848b1a591803b1561007757610de060008094610deb610dd360405190565b9788968795869460e01b90565b8452600484016104a0565b03925af18015610a9157610dfc5750565b610092906000610a7c8183610386565b600090600190600f600a610eb2610e228661055a565b91610e3e610e38610e32896104b3565b956104b3565b9161055a565b95610e77610e58610e4e8361056e565b8980868a8a615647565b92610e646004936104b3565b9880610e6f8561056e565b928b89615647565b6020610e8661035560086102ba565b93631b2ef1ca94898c610e9860405190565b809981958294610ea88c60e01b90565b84528a84016104a0565b03925af18015610a915789602094610eda89610f01948c998591610f45575b50818b8b61118e565b610f0a610eea61035560086102ba565b94610ef460405190565b9b8c978896879560e01b90565b855284016104a0565b03925af1938415610a91576100929694610f25575b5061118e565b610f3e91945060203d8111610b8e57610b808183610386565b9238610f1f565b610f5c9150893d8111610b8e57610b808183610386565b38610ed1565b15610f6957565b60405162461bcd60e51b81526020600482015260136024820152720cecac2e44098caeccad840e8dede40d0d2ced606b1b6044820152606490fd5b6104c090610fb8610a586100cd9460ff1690565b901c90565b15610fc457565b60405162461bcd60e51b815260206004820152600d60248201526c696e76616c696420636c61737360981b6044820152606490fd5b1561100057565b60405162461bcd60e51b815260206004820152601a6024820152791bdb9b1e481858d8d95cdcdbdc9a595cc81bdb881cdb1bdd080d60321b6044820152606490fd5b1561104957565b60405162461bcd60e51b815260206004820152601a6024820152796f6e6c79206163636573736f72696573206f6e20736c6f74203360301b6044820152606490fd5b1561109257565b60405162461bcd60e51b815260206004820152601a60248201527937b7363c9030b1b1b2b9b9b7b934b2b99037b71039b637ba101960311b6044820152606490fd5b156110db57565b60405162461bcd60e51b815260206004820152601b60248201527a6f6e6c7920646566656e73652067656172206f6e20736c6f74203160281b6044820152606490fd5b1561112557565b60405162461bcd60e51b815260206004820152601a60248201527906f6e6c792061747461636b2067656172206f6e20736c6f7420360341b6044820152606490fd5b908152606081019392610092929091604091611185905b6020830152565b019060ff169052565b939084846020936111df611253966111d26111a8856113de565b966111cb6111c36111bb8a5161ffff1690565b9261ffff1690565b9161ffff1690565b1115610f62565b604086015160ff16610fa4565b6001906111eb826104b3565b16916112066000936111ff610a58866104b3565b1415610fbd565b61120f836104b3565b60ff82160361129057505061098b61124b936002926112466112348989015160ff1690565b611240610a58846104b3565b1461111e565b610594565b015160ff1690565b9161128b7f9661c1f94255e8f19fda183859db8ad335498fb1e361acc4bd925a68d1bcaf819361128260405190565b93849384611167565b0390a1565b611299826104b3565b60ff8216036112d557506112d09360039261124661098b936112ca610a586112c48c8c015160ff1690565b926104b3565b146110d4565b61124b565b600291506112e2826104b3565b60ff82160361131357506112d09360049261124661098b9361130d610a586112c48c8c015160ff1690565b1461108b565b61131d60036104b3565b60ff82160361134e57506112d09360059261124661098b93611348610a586112c48c8c015160ff1690565b14611042565b61135b610a5860046104b3565b1461136a575b5050505061124b565b6113919360069261124661098b9361138b610a586112c48c8c015160ff1690565b14610ff9565b84843880611361565b6100cd60c061053c565b6113ac61139a565b9060008252602080808080808701600081520160005b815201600081520160008152016000905250565b6100cd6113a4565b6020611426916113ec6113d6565b506113fa61035560086102ba565b611418630178fe3f61140b60405190565b9586948593849360e01b90565b835260048301526024820190565b03915afa908115610a915761149061149b61147b611453611485956100cd956000916114a8575b506156b6565b97949992919361147161146797929761139a565b61ffff909c168c52565b60ff1660208b0152565b60ff166040890152565b61ffff166060870152565b61ffff166080850152565b63ffffffff1660a0830152565b6114c0915060203d8111610b8e57610b808183610386565b3861144d565b610092906114e13361036561035f61035a610355600a6102ba565b611570565b6100cd9081565b6100cd90546114e6565b156114fe57565b60405162461bcd60e51b815260206004820152601a6024820152796e65656420746f2072656163682074686520656e7472616e636560301b6044820152606490fd5b61061c6100cd6100cd9290565b61155690610604565b801561065e576000190190565b6101ef6100cd6100cd9290565b600090611587826115818382610594565b016114ed565b61159c6115956100cd6105cc565b82146114f7565b8260016115b3826115ad8584610594565b01610621565b6115c56115bf84611540565b91610604565b1161168f575b5050506115e06020610bf461035560066102ba565b82526004820185905260249082905afa908115610a91576116119161160c918591611671575b50611563565b6102d8565b9061161f61035560066102ba565b6323b872dd9061162e306102e1565b91813b15610077578561078a91611649829661077d60405190565b03925af18015610a915761165b575050565b8161009292903d10610a8a57610a7c8183610386565b611689915060203d8111610b8e57610b808183610386565b38611606565b6116ae9261169c91610594565b016109aa6116a982610621565b61154d565b3882816115cb565b610092906114c6565b90610092916116db3361036561035f61035a610355600a6102ba565b6118b6565b156116e757565b60405162461bcd60e51b81526020600482015260166024820152751e5bdd5c8818da185c9858dd195c881a5cc81919585960521b6044820152606490fd5b1561172c57565b60405162461bcd60e51b815260206004820152601060248201526f6d6f6e7374657220626c6f636b696e6760801b6044820152606490fd5b1561176b57565b60405162461bcd60e51b815260206004820152601b60248201527a18dd5c9c995b9d081c9bdbdb481b9bdd0818481d195b195c1bdc9d602a1b6044820152606490fd5b156117b557565b60405162461bcd60e51b815260206004820152601f60248201527f64657374696e6174696f6e20726f6f6d206e6f7420612074656c65706f7274006044820152606490fd5b6100cd9060081c5b60070b90565b6100cd90546117fa565b1561181957565b60405162461bcd60e51b8152602060048201526011602482015270199b1bdbdc881b9bdd08185b1b1bddd959607a1b6044820152606490fd5b90600160401b600160801b039060401b6105df565b906118776100cd61060092610678565b8254611852565b6100cd60066104b3565b6100cd60046104b3565b6103cd906104b3565b9160206100929294936104fa60408201966000830190611892565b6118c361035560056102ba565b916342dad49e92803b15610077576118ea936000916118e160405190565b95869260e01b90565b8252600490829084905af1928315610a915761009293611a8e575b5061191d60806119148461227b565b015161ffff1690565b916119366000936119306111c38661055a565b116116e0565b611944836115818382610594565b9261194e84611c87565b61196c61195a856124a8565b611966610869846103fe565b14611725565b611a1b6001916119c261198382610a448987610594565b6119a161198e6105c2565b9161199b60ff8416610a58565b14611764565b6119bc610a586119b585610a448b8a610594565b9260ff1690565b146117ae565b611a016119ce86613f1f565b509150506119fa6119f36119ec876119e68a88610594565b01611808565b9260070b90565b9160070b90565b1215611812565b611a0a81611540565b90611a158785610594565b01611867565b611a3a611a288486614aba565b611a33610d0c61187e565b8685612d1f565b611a42611888565b9360008051602061575683398151915290611a65611a5f856103fe565b916103fe565b9186611a70876103fe565b94611a86611a7d60405190565b9283928361189b565b0390a4612633565b611a9e906000610a7c8183610386565b38611905565b90610092916116bf565b6100cd90610604565b6100cd9054611aae565b15611ac857565b60405162461bcd60e51b81526020600482015260146024820152731c9bdbdb481b9bdd0818dc99585d1959081e595d60621b6044820152606490fd5b6100cd6100cd6100cd92610604565b6103cd90611b04565b6020810192916100929190611b13565b6100cd9060c01c6104c0565b6100cd9054611b2c565b6100cd9060d81c6104c0565b6100cd9054611b42565b6100cd9060e01c6104c0565b6100cd9054611b58565b6100cd9060e81c6104c0565b6100cd9054611b6e565b9060ff60c81b9060c81b6105df565b6104c06100cd6100cd9260ff1690565b90611bb36100cd61060092611b93565b8254611b84565b9060ff60d01b9060d01b6105df565b90611bd96100cd61060092611b93565b8254611bba565b6100cd9060081c6104c0565b6100cd9054611be0565b9061ff009060081b6105df565b90611c136100cd61060092611b93565b8254611bf6565b90815260ff909116602082015260608101929161009291604090611185565b6100cd906104c0565b6100cd9054611c39565b90815260608101939261009292909160409161048a90610521565b90815260608101939261009292909160409161048a906020830190610501565b600190611c976100cd8284610594565b611ca081611ab7565b90611cb9600092611cb36115bf85611540565b11611ac1565b81810193611cc6856105b8565b611cd2610a58856104b3565b14611cee575b5050506100929150611ce990614e00565b61231b565b611d3693946020611d0261035560056102ba565b639507d39a90611d2b611d1485611ab7565b92611d1e60405190565b998a948593849360e01b90565b835260048301611b1c565b03915afa948515610a9157849561200b575b5084611d56610869866103fe565b14611fb3575b83611e39611e3f92611d6e888a61215c565b611db5611da18a611d7e84611b38565b611d8785611b4e565b611d9086611b64565b918d611d9b88611b7a565b946143ba565b929084611db084839597611ba3565b611bc9565b8a611dbf81614e00565b9360029387611dd16100cd8888610594565b0190611ddc82611bec565b611de860ff8316610a58565b03611fa3575b50508b611e31611e1e7f8850140926f0260fe1b422b7a0d93e7d5734e521eae9ac8969ed512cc3834515946103fe565b94611e2860405190565b93849384611c1a565b0390a2610594565b01611c42565b910192611e4b846114ed565b611e57610869856103fe565b03611e65575b849350611cd8565b611e8890611e818461124b611e7c889997986114ed565b61227b565b908461415c565b611e9560059392936104b3565b60ff83161115611f30575b5050611eaf61035560076102ba565b611ebd6302acc94b956114ed565b90600695813b156100775785611ee891611ef38296611edb60405190565b9a8b978896879560e01b90565b855260048501611c67565b03925af1918215610a915761009293611ce993611f13575b829450611e5d565b81611f2992903d10610a8a57610a7c8183610386565b3880611f0b565b611f3d61035560076102ba565b6302acc94b90611f4c886114ed565b91813b156100775787611f6791611f72829661077d60405190565b855260048501611c4c565b03925af18015610a9157611f87575b80611ea0565b611f9d90843d8611610a8a57610a7c8183610386565b38611f81565b611fac91611c03565b3880611dee565b935043611fdb6108696100cd611fd0611fcb89611ab7565b611b04565b610d456101006103fe565b111561200457611e3f83611e39611ffa611ff488611ab7565b8961207f565b9692505050611d5c565b5050505050565b61202491955060203d8111610b8e57610b808183610386565b9338611d48565b6103cd90610604565b60608082526017908201527644554e47454f4e5f455850495245445f534545445f563160481b60808201529092916100929160409061207860a08201966020830152565b019061202b565b612098916120a491604051938492602084019283612034565b90810382520382610386565b6120b66120af825190565b9160200190565b2090565b6100cd9060401c610604565b6100cd90546120ba565b9060ff906105df565b906120e96100cd61060092611b93565b82546120d0565b634e487b7160e01b600052601260045260246000fd5b905b908115612113570490565b6120f0565b6115bf61212491610604565b01906001600160401b03821161065e57565b906001600160401b03906105df565b906121556100cd61060092610678565b8254612136565b61216590614e00565b6002906121776000611e398385610594565b91600092612187610a58856104b3565b14612193575b50505050565b6121c19083600301936121bb6121b36121ab876120c6565b80988761496b565b948593610594565b016120d9565b6121ce610a5860066104b3565b036121db575b808061218d565b6121f96121f4426121ee620143706103fe565b90612106565b611540565b9161220382611ab7565b61220f6115bf85610604565b1461223957506122226122329282612145565b61222c6001611540565b90611867565b38806121d4565b612252925061222c9061224c6001611540565b90612118565b612232565b61225f610550565b9060008252602080808080860160006113c2565b6100cd612257565b602061229791612289612273565b506113fa61035560066102ba565b03915afa8015610a91576122e56108da6122c06100cd936122f2956000916122fd575b5061559d565b9792959091936122da6122d1610550565b60ff909a168a52565b61ffff166020890152565b63ffffffff166040870152565b61ffff166060850152565b612315915060203d8111610b8e57610b808183610386565b386122ba565b60028061232b6100cd8483610594565b019061233682611ab7565b9060009061234382611540565b61234c84610604565b03612358575050505050565b60206123899361236b61035560056102ba565b611d2b639507d39a61237c60405190565b9788948593849360e01b90565b03915afa928315610a91578293612488575b506123a5826103fe565b8314612004576123bb612411936124179661432d565b90836123d46100cd6123cc846124ad565b936001610594565b848101946123ed6115bf6123e788611ab7565b92611540565b14159283612468575b83612451575b5082612431575b5050612421575b5050611540565b90612145565b3880808080612004565b61242a91612145565b388061240a565b61243c9250016105b8565b612448610a58856104b3565b14158338612403565b909250612460610869836103fe565b1491386123fc565b9250612475828201610621565b6124816115bf84611540565b14926123f6565b6124a191935060203d8111610b8e57610b808183610386565b913861239b565b6100cd905b60016124c460006124be8484610594565b016120c6565b916000906124d182611540565b6124da85610604565b1461259b5761250060206124f161035560056102ba565b639507d39a9061070a60405190565b825281806125118a60048301611b1c565b03915afa908115610a9157839161257d575b5061252d836103fe565b811461256f576125696125636100cd966125576115bf61061c88612551898c610594565b01611ab7565b1494610a448588610594565b946103fe565b91614051565b505090506100cd91506103fe565b612595915060203d8111610b8e57610b808183610386565b38612523565b5090506100cd91506103fe565b61007e81610604565b90505190610092826125a8565b90602082820312610077576100cd916125b1565b6100cd90611563565b60409061052b610092949695939661052160608401986000850190610457565b91602061009292949361052b604082019660008301906104e0565b905b908115612113570690565b602081019291610092919061202b565b90916000926126456100cd8486610594565b6001918582016126606100cd61265a836114ed565b86610594565b9661266e6100cd8487610594565b9060008183019261267e84611ab7565b61268a6115bf85611540565b03612882575061269b888a8761303f565b6126a485614e00565b60026126b36100cd8383610594565b016126bd81611ab7565b6126c96115bf86611540565b148061285b575b612731575b505050916127116127169796959492846121bb956100929c01906126fe6115bf6123e784610621565b1161271b575b506109aa6109a582610621565b6105e9565b612b67565b806109aa6116a961272b93610621565b38612704565b61273a84611540565b61274384610604565b146127be575b92806100929c846127169c9b9a99979461276a612711976121bb9b99612145565b6127aa6127977f644c4d4ff52c1efcb89d373879c1d7e01d3f8b7e60cc19f9bdf5da38cd90c14d926103fe565b926127a160405190565b91829182612623565b0390a29c50939550819496979899506126d5565b98979695939094926127e9925060206127da61035560056102ba565b63338cdca1906118e160405190565b8252600490829085905af18015610a91576100929c6127169b6121bb9861276a859461271198869161282d575b509750509497999a9b9c5092509c50939550612749565b61284e915060203d8111612854575b6128468183610386565b8101906125be565b38612816565b503d61283c565b506128704361286a60036103fe565b90612616565b61287c610869866103fe565b146126d0565b61288b846120c6565b6128976115bf85611540565b149081612b2f575b81612b0d575b5080612a9c575b612a10575b6128ba85611c87565b6128c385612bcc565b6128cf61035a846125d2565b6128d8826101ef565b1415806129a3575b6128eb575b5061269b565b6128f861035560076102ba565b9063a41dab816129066104c6565b92803b15610077578a869161292f8361293c9561292260405190565b9687958694859360e01b90565b83528a8a600485016125db565b03925af18015610a9157612987575b50600080516020615776833981519152896129686109dd8a6103fe565b9361297e61297560405190565b928392836125fb565b0390a3386128e5565b61299d90853d8711610a8a57610a7c8183610386565b3861294b565b506129b06107c5826102d8565b6129d460208c6129c361035560066102ba565b611418633038bb0861140b60405190565b03915afa908115610a91576129f1916108699187916129f8575090565b14156128e0565b6100cd915060203d8111610b8e57610b808183610386565b50612a326020612a2361035560056102ba565b63338cdca19061070a60405190565b8252600490829086905af1908115610a91578291612a7e575b5080612a56846120c6565b612a626115bf85611540565b14612a6e575b506128b1565b612a789084611867565b38612a68565b612a96915060203d8111612854576128468183610386565b38612a4b565b50612abe6020612aaf61035560096102ba565b630178fe3f9061070a60405190565b82526004820189905260249082905afa908115610a91578391612aef575b50612ae9610869846103fe565b146128ac565b612b07915060203d8111610b8e57610b808183610386565b38612adc565b612b1a9150600201611ab7565b612b276115bf6002611540565b1415386128a5565b9050612b3a84610621565b612b466115bf85611540565b149061289f565b612b5a9061ffff166111c3565b019061ffff821161065e57565b612b708161227b565b6080810191612b81835161ffff1690565b612b966111c3610567606086015161ffff1690565b10612ba057505050565b612bc761009293612bbf612bb4600161055a565b825161ffff16612b4d565b61ffff169052565b610ce2565b612bd581612c29565b15612c1e576020612bfe91612bed61035560096102ba565b6114186369f648a161140b60405190565b03915afa908115610a91576100cd9161160c916000916116715750611563565b506100cd60006125d2565b6020612c5691612c37600090565b50612c4561035560096102ba565b611418636352211e61140b60405190565b03915afa908115610a9157600091612c7d575b50612c7961035f61035a306102e1565b1490565b612c95915060203d8111610c8357610c758183610386565b38612c69565b90815260608101939261009292909160409161048a9061117e565b61048a61009294612cdf606094989795612cd5608086019a6000870152565b6020850190610501565b6040830152565b61048a61009294612cdf606094989795612d08608086019a6000870190610457565b6020850190610457565b9190820391821161065e57565b929092612d2b84612bcc565b600094612d3a61035a876125d2565b612d43836101ef565b14612ed657612d5b612d5560056103fe565b85612106565b91612d65876103fe565b8311612db0575b5050612d8a612d7e61035560076102ba565b9163c9b902e394612d12565b92813b156100775785612da591611649829661077d60405190565b855260048501612c9b565b612dbd61035560076102ba565b6311aa10fb90803b156100775785899291612def848094612dfa8a8e612de260405190565b998a988997889660e01b90565b865260048601612cb6565b03925af18015610a9157612eba575b50612e1761035560076102ba565b63fe99049a612e25306102e1565b823b15610077578392612e428b8094612e4d8a8e612de260405190565b865260048601612ce6565b03925af18015610a9157612e9e575b50612e7e612e78600080516020615776833981519152936103fe565b916102e1565b91612e8860405190565b80612e94868a836104a0565b0390a33880612d6c565b612eb490883d8a11610a8a57610a7c8183610386565b38612e5c565b612ed090883d8a11610a8a57610a7c8183610386565b38612e09565b5050612ee561035560076102ba565b63c9b902e3813b156100775785612da591611649829661077d60405190565b6100cd9060181c6104c0565b6100cd9054612f04565b9062ff00009060101b6105df565b90612f386100cd61060092611b93565b8254612f1a565b9060ff60c01b9060c01b6105df565b90612f5e6100cd61060092611b93565b8254612f3f565b9060ff60d81b9060d81b6105df565b90612f846100cd61060092611b93565b8254612f65565b60ff1660ff811461065e5760010190565b9063ff0000009060181b6105df565b90612fbb6100cd61060092611b93565b8254612f9c565b9060ff60e81b9060e81b6105df565b90612fe16100cd61060092611b93565b8254612fc2565b6100cd9060101c6104c0565b6100cd9054612fe8565b9060ff60e01b9060e01b6105df565b9061301d6100cd61060092611b93565b8254612ffe565b9160206100929294936111856040820196600083019061202b565b906130576100cd600261305185614e00565b90610594565b9260018401613065816114ed565b90600091613075610869846103fe565b11613347575b5061308961035560076102ba565b9463c9b902e36130976104c6565b6130a0876142e6565b97803b15610077576130c78580946130d36130ba60405190565b9c8d968795869460e01b90565b84528c60048501611c4c565b03925af1958615610a915761311f9661332b575b506001906130f86100cd8784610594565b602061310761035560056102ba565b63338cdca19061311660405190565b9a8b9260e01b90565b8252600490829088905af1978815610a91578498613301575b5090858383868a9695019761314d8c8a612145565b6131578c8a611867565b6131619089612f4e565b86840161316d81611bec565b613177908a612f74565b61318081612f10565b61318981612f8b565b6131939083612fab565b61319d908a612fd1565b6131a690612ff4565b6131b0908961300d565b01906131bb916105e9565b01906131c6916105e9565b6131d060066102ba565b6131d9906102e1565b633038bb086131e760405190565b80956131f4829360e01b90565b82526004909101526024815a93602094fa928315610a915781936132e1575b5061321d836133ab565b61322a61035560096102ba565b92636611a8d490843b15610077576132649461325884809461324b60405190565b9889958694859360e01b90565b83528b600484016104a0565b03925af1928315610a915761327f936132c4575b5050611b38565b6132a97fa97399cd19a5b00b49b7d10d188180e100139a0501c9c9b4fe21dab5b915162f926103fe565b926132bf6132b660405190565b92839283613024565b0390a2565b816132da92903d10610a8a57610a7c8183610386565b3880613278565b6132fa91935060203d8111610b8e57610b808183610386565b9138613213565b83889493929950613320889260203d8111612854576128468183610386565b999293509350613138565b61334190833d8511610a8a57610a7c8183610386565b386130e7565b8061335c613357613380936114ed565b611c87565b61337183880161336b81612f10565b90612f28565b61337a836103fe565b906105e9565b3861307b565b9061059e906102e1565b91602061009292949361048a60408201966000830190610501565b6133b761160c82611563565b6000916133c6610869846103fe565b141580613435575b6133d6575050565b6133e642610d45620697806103fe565b6133f58161271184600d613386565b61341f7fc24affdb20f6529973515c5398461c1f6228edbfac531ab49e56a11433a86c9f926102e1565b926132bf61342c60405190565b92839283613390565b5061344961344482600d613386565b6114ed565b613455610869846103fe565b146133ce565b61346861035560056102ba565b906342dad49e91803b15610077576134869260009161083160405190565b8252600490829084905af1918215610a9157610092926134a7575b50611c87565b6134b7906000610a7c8183610386565b386134a1565b90610092916134d93361036561035f61035a610355600a6102ba565b906134e761035560056102ba565b916342dad49e92803b1561007757613505936000916118e160405190565b8252600490829084905af1928315610a9157610092936135a8575b50600090613552826135356100cd8483610594565b61158161354660806119148761227b565b6119306111c38561055a565b9161355c83611c87565b61356861195a846124a8565b61358061357482611540565b82611a15866001610594565b61358b84848461373c565b9260008051602061575683398151915290611a65611a5f856103fe565b6135b8906000610a7c8183610386565b38613520565b90610092916134bd565b6100cd60006104b3565b6100cd60016104b3565b6100cd60036104b3565b60070b60016001603f1b0319811461065e576000190190565b60070b60016001603f1b03811461065e5760010190565b939190925b60018211613627575050565b909192808204811161065e5760018316613649575b8002929160011c9061361b565b9384029361363c565b92919281156136d55780156136cd5780806001146136c4576002146136af5760208210610133821016604e8310600b831016176136a55792613698918193946001613616565b809204811161065e570290565b0a91821161065e57565b5060ff811161065e5760020a91821161065e57565b50600193505050565b506000925050565b506001925050565b6100cd916136f0610a5860ff9360ff1690565b90613652565b6137029060ff16610a58565b019060ff821161065e57565b6126189060ff16610a58565b6100cd9060c81c6104c0565b6100cd905461371a565b6121089060ff16610a58565b61374582613f1f565b50909182816137526135c8565b61375e60ff8a16610a58565b036139b6575050613771613778936135e6565b905b613fa0565b9160019360006137986100cd866137926100cd878b610594565b98610594565b950160006137a582611ab7565b96016137b081611ab7565b906137bb60026104b3565b976137ef6137d38a6137cd88826136dd565b976136f6565b996137e960049b6137e38d6104b3565b9061370e565b906136dd565b926137f981610604565b61380283610604565b10801561399c575b156138c557505050508161381d82613726565b1661382a60ff8416610a58565b1461387757505050505061033191505b60405162461bcd60e51b8152918291820160208082526012908201527163616e74206d6f766520746869732077617960701b604082015260600190565b849550610a58826138a06138906138a894989798613726565b61389a60106104b3565b90613730565b169260ff1690565b146138b4575b50505090565b6138bd92613abb565b3881816138ae565b6115bf6138d791969496959395610604565b111561390a575050816138e982613726565b166138f660ff8416610a58565b14613877575050505050610331915061383a565b8161391482613726565b1661392160ff8416610a58565b14801561397e575b61393e5750505050505050610331915061383a565b86975061394a87969790565b851115613966575050610a58826138a06138906138a894613726565b8193506138a89250906138a0613890610a5893613726565b508361398984613726565b1661399660ff8616610a58565b14613929565b506139a76000611540565b6139b082610604565b1461380a565b6139be6135d2565b6139ca60ff8a16610a58565b036139de57505091613773613778936135ff565b90936139e86105c2565b6139f460ff8a16610a58565b03613a07575050613771613778936135ff565b91509250613a136135dc565b613a1f60ff8816610a58565b03613a3057613773613778936135e6565b60405162461bcd60e51b815260206004820152601460248201527334b6b837b9b9b4b13632903234b932b1ba34b7b760611b6044820152606490fd5b6100cd60076104b3565b15613a7d57565b60405162461bcd60e51b81526020600482015260066024820152656e6f206b657960d01b6044820152606490fd5b906120e96100cd61060092151590565b9181818111613bfd575b50613ad8613ad4828486613c06565b1590565b613ae157505050565b613b0b90613af261035560076102ba565b602063b30dc7ca613b01613a6c565b926118e160405190565b82528180613b1d868b600484016104e9565b03915afa928315610a9157600093613bdd575b50613b49600093613b43610869866103fe565b11613a76565b613b5661035560076102ba565b6001949063c9b902e3813b15610077578591613b88838a93613b938b613b7b60405190565b998a978896879560e01b90565b85526004850161050a565b03925af18015610a915761009296613bbb956112469461124693613bc0575b5050600b610594565b613aab565b81613bd692903d10610a8a57610a7c8183610386565b3880613bb2565b613bf691935060203d8111610b8e57610b808183610386565b9138613b30565b91509038613ac5565b91611246613c25926112466100cd95613c1d600090565b50600b610594565b611c42565b906100929291613c473361036561035f61035a610355600a6102ba565b613ce7565b15613c5357565b60405162461bcd60e51b815260206004820152601c60248201527b696e76616c6964206e756d626572206f6620646972656374696f6e7360201b6044820152606490fd5b634e487b7160e01b600052603260045260246000fd5b9190811015613cbd576020020190565b613c97565b356100cd81610094565b91602061009292949361048a60408201966000830190611892565b90929180916000613cf7816103fe565b841180613eed575b613d0890613c4c565b613d1561035560056102ba565b6342dad49e90803b1561007757613d3191839161070a60405190565b8252600490829084905af18015610a9157613ed1575b5080613d5a6100cd848399969799610594565b613d6b61354660806119148761227b565b0195613d76876114ed565b9384613d8181611c87565b613d8a816124a8565b96613d9b88611966610869886103fe565b613db4613da786611540565b86611a1560019586610594565b613dbe60086103fe565b9482600099613dcc836104b3565b915b613e2c575b50505050505050613de761009295966114ed565b90600291600080516020615756833981519152613e0c613e06866103fe565b926103fe565b92613e16876103fe565b94611a86613e2360405190565b92839283613ccc565b613e3c879a989b92939495969790565b613e45846104d0565b109081613ebc575b5015613eb35750613e94613e72613e6d613e66846104d0565b8689613cad565b613cc2565b613e8d613e84829c610d1b60046104b3565b610d45836104d0565b978961373c565b97613ea7613ea18a6124a8565b92612f8b565b90959493929184613dce565b98959780613dd3565b9050613eca610869856103fe565b1438613e4d565b613ee790823d8411610a8a57610a7c8183610386565b38613d47565b50613d08613efb60056103fe565b8511159050613cff565b906100929291613c2a565b6118026100cd6100cd92610604565b90613f31613f2c83611540565b613f10565b91613f4e613f2c6121f4613f48600160401b6103fe565b84612106565b916100cd6121f4613f6f613f2c82613f69600160801b6103fe565b87612106565b936121ee600160ff1b6103fe565b61061c6100cd6100cd9260070b90565b8181029291811591840414171561065e57565b90611fcb614006610d4592610d45613ff9611fcb613ff36100cd99613fc3600090565b50613fee611a5f613fdb611fcb600160ff1b94613f7d565b613fe8600160801b6103fe565b90613f8d565b610cc2565b93613f7d565b613fe8600160401b6103fe565b92613f7d565b6100cd600f6104b3565b6103cd9060ff1660f81b90565b6001939261404060208361403a82956102ea979052565b01918252565b018092614016565b6100cd906103fe565b92909361405c600090565b5061406b610a586104c06135d2565b036141445761407861400c565b8091614129575b506140d56108696140cf6140c561409660066104b3565b6140b46140a260405190565b809261209860208301918d8d84614023565b6140bf6120af825190565b20614048565b61286a60646103fe565b926104d0565b106140e7575050506100cd60006103fe565b61411a61411f926140b46100cd956140ff60076104b3565b9261209861410c60405190565b948593602085019384614023565b612616565b610d4560016103fe565b61413e9150614138600a6104b3565b906136f6565b3861407f565b505050506100cd60006103fe565b6100cd60196104b3565b9092909161416a60006103fe565b936141836141788686614b6b565b6121ee610d0c614152565b8581146142d6575b6002906141d36141a361419d846103fe565b83612106565b610d458361411a6120986140b46141ba60646104b3565b8d6141c460405190565b9384928d602085019384614023565b958787146142c4575b6141e46105c2565b6141f060ff8716610a58565b1461429c575b91610d45916142319493600861420b816103fe565b831161427c575b506140b4614226612d5561411a94956103fe565b956140ff60656104b3565b93841461426a575b614247610a586119b56135d2565b1461424e57565b9161426790610d45614261610d0c611888565b82612106565b91565b925061427660016103fe565b92614239565b61411a9250614226612d556142936140b4936103fe565b94505050614212565b9591610d45916142b86142319594610d45614261610d0c611888565b979193945091506141f6565b95506142d060016103fe565b956141dc565b506142e160016103fe565b61418b565b6142f16100cd6105cc565b810361430257506100cd60006103fe565b6143196100cd9161431360006103fe565b90614b6b565b613fee611a5f6001926121ee610d0c614152565b6143af916143a961438061436261434460666104b3565b6140b461435060405190565b80926120986020830191898b84614023565b61286a611a5f6120986140b461438561438060099661286a886103fe565b6104b3565b9761439060676104b3565b9061439a60405190565b93849260208401928d84614023565b91614ed7565b906100cd6002611540565b959492906143d661015295936143ce600090565b508289614f8d565b966143f3565b6118026100cd6100cd9290565b6100cd60056104b3565b9493600061440b61440388614e00565b959497613f1f565b50506000939161441d6119f3866143dc565b1490816148d5575b5015614448575050505050506144396105c2565b9161444460016104b3565b1790565b95909691929394965b60ff87165b60ff8716116148cb575061446a60036104b3565b6144b56143806144ab876140b48a8d6120988861448660405190565b9586946020860194859261404060016102ea9461403a602088614040859b9a83999052565b61286a60146103fe565b906144d76144c360016104b3565b85166144d2610a5860016104b3565b141590565b9081806148a2575b15614510575050506144566145076144f56105c2565b9361450060016104b3565b1796612f8b565b95929050614451565b61452c61451d60026104b3565b86166144d2610a5860026104b3565b918280614854575b15614556575050505061445661450761454b6135dc565b9361450060026104b3565b61457261456360046104b3565b87166144d2610a5860046104b3565b9182806147b1575b1561459d575050505050614456614507614592611888565b9361450060046104b3565b6145b96145aa60086104b3565b88166144d2610a5860086104b3565b94856145fc575b50505050506000146145e5576144566145076145da6143e9565b9361450060086104b3565b6144566145076145f69693966135d2565b93612f8b565b61460b91929394955060ff1690565b1492831561479a575b8315614776575b8315614752575b831561472e575b83156146fd575b83156146cc575b831561469b575b8315614652575b50505038808080806145c0565b90919250614660604d6104b3565b60ff8916149283614693575b508261468b575b5081614683575b50388080614645565b90503861467a565b915038614673565b92503861466c565b92506146a7604e6104b3565b60ff891614806146c5575b806146be575b9261463e565b50826146b8565b50816146b2565b92506146d8604e6104b3565b60ff891614806146f6575b806146ef575b92614637565b50816146e9565b50806146e3565b9250614709604e6104b3565b60ff89161480614727575b80614720575b92614630565b508261471a565b5080614714565b925061473a604f6104b3565b60ff8916148061474b575b92614629565b5081614745565b925061475e604f6104b3565b60ff8916148061476f575b92614622565b5082614769565b9250614782604f6104b3565b60ff89161480614793575b9261461b565b508061478d565b92506147a660506104b3565b60ff89161492614614565b506147bc60026104b3565b60ff861614801561483f575b8015614822575b8015614805575b8061457a57506147e6604e6104b3565b60ff8b1614806147fe575b801561457a57508361457a565b50816147f1565b50614810604f6104b3565b60ff8b161480156147d65750836147d6565b5061482d604f6104b3565b60ff8b161480156147cf5750816147cf565b5061484a60506104b3565b60ff8b16146147c8565b5061485f60016104b3565b60ff851614801561488d575b80614534575061487b604f6104b3565b60ff8a16148015614534575080614534565b5061489860506104b3565b60ff8a161461486b565b506148ac866104b3565b60ff841614806144df57506148c160506104b3565b60ff8916146144df565b9650935093505050565b90506148e36119f3856143dc565b1438614425565b6100cd600a6104b3565b61061c6100cd6100cd9260ff1690565b6115bf61491091610604565b029061491b82610604565b91820361065e57565b6100cd606461055a565b61493a9060070b6119f3565b908115612113570790565b6149556100cd6100cd9260070b90565b60000b90565b6104c06100cd6100cd9260000b90565b9161497583614d21565b908115614a9d575b501561498f5750506100cd60066104b3565b6149ae611fcb61499e84614c87565b6149a86009611540565b90614904565b6149b860006103fe565b8111614a84575b6149cd610869610d0c614152565b10614a7857614380614a056120986140b4614a10946149ec600c6104b3565b906149f660405190565b93849260208401928a84614023565b61286a6127106103fe565b614a24614a1e610567614924565b91610584565b11614a6d57614a356100cd91613f1f565b50915050614a68614a62614a5d614a58600194614a5260056143dc565b9061492e565b614945565b61495b565b916104b3565b6136f6565b506100cd60066104b3565b50506100cd60066104b3565b614a9890614a9260046103fe565b90612d12565b6149bf565b9050614ab26115bf614aad6148ea565b6148f4565b10153861497d565b614ade90614ad9611a5f614ae894614ad0600090565b50600293614b6b565b613f8d565b6121ee60056103fe565b614af260006103fe565b81036100cd57506100cd60016103fe565b614b0f9060070b6119f3565b90039060016001603f1b0319821260016001603f1b0383131761065e57565b6100cd6100cd6100cd9260070b90565b600160ff1b811461065e5760000390565b9190808303926000909112801582851316918412161761065e57565b614b9d614b98614b86614b9093614b80600090565b50613f1f565b5050939094613f1f565b505094614b03565b614b2e565b91600091614baa836103fe565b8412614c50575b614b98614bc192611a5f92614b03565b8112614c42575b6001603f1b614bd6816103fe565b8313614c24575b614be6906103fe565b8113614c09575b80821315614bff57506100cd906103fe565b6100cd91506103fe565b614c1f90614c1a600160401b6103fe565b614b4f565b614bed565b91614be690614c3a90614c1a600160401b6103fe565b929050614bdd565b614c4b90614b3e565b614bc8565b92614b98614bc192614c64611a5f93614b3e565b959250925050614bb1565b60070b60016001603f1b0319811461065e5760000390565b614c92906000614b80565b50819050600083614ca2826143dc565b614cac8260070b90565b12614d0b575b50614cbc906143dc565b614cc68260070b90565b12614cfb575b50614cd78160070b90565b614ce18360070b90565b1315614cf157506100cd90613f7d565b6100cd9150613f7d565b614d059150614c6f565b38614ccc565b614cbc919450614d1a90614c6f565b9390614cb2565b614d2c906000614b80565b505060001991614d3b836143dc565b614d458260070b90565b12159283614d8c575b5082614d73575b5081614d5f575090565b9050614d6e6119f360016143dc565b131590565b909150614d836119f360016143dc565b13159038614d55565b614d979193506143dc565b614da18260070b90565b12159138614d4e565b614db69060070b6119f3565b019060016001603f1b03821360016001603f1b031983121761065e57565b614de09060070b6119f3565b9081156121135760016001603f1b0319811460001983141661065e570590565b614e666100cd91614e18614e12600090565b91613f1f565b50939091600090614e28826143dc565b614e328260070b90565b12614ea757614e4e614e5e91614e4860046143dc565b90614daa565b614e5860096143dc565b90614dd4565b935b506143dc565b614e708260070b90565b12614e8657614e4e61377191614e4860046143dc565b614ea2614e4e614e9861377193614c6f565b614e4860046143dc565b614c6f565b614ea2614e4e614e98614eb993614c6f565b93614e60565b614ecb9060070b6119f3565b029061491b8260070b90565b6137716100cd93614e48613f2c614f37614f3d96614f31614f43614f1b614f15614f06614f159b614b80600090565b509d9160099491949d8e6143dc565b90614ebf565b95614e48613f2c614f37600499614f318b6143dc565b90614b03565b926148f4565b9a6143dc565b916143dc565b6100cd60576104b3565b6100cd60286104b3565b614f699060ff16610a58565b90039060ff821161065e57565b614f829060ff16610a58565b029060ff821661491b565b90600092614f9a846104b3565b90614fa3611888565b614faf60ff8316610a58565b03615261575050614fc0600f6104b3565b925b614fed614fcf606f6104b3565b6140b4614fdb60405190565b80926120986020830191888a84614023565b614fff61438060649261286a846103fe565b9061501c6104c061500e614f53565b615017846104b3565b614f5d565b60ff83161015615225575050615031906104b3565b905b60049161503f836104b3565b60ff82161061506a5750506144449150615065614a62600f926137e9614a6260026104b3565b614f76565b6003615075816104b3565b60ff8316036151205750506150a861438061509f6150c294956140b46150b2956140ff60706104b3565b61286a866103fe565b61413860016104b3565b6150bc60076104b3565b90614f76565b6150cc60156104b3565b60ff8216036150f0575061444490615065614a62600d926137e9614a6260026104b3565b6150fd610a58601c6104b3565b14615106575090565b61444490615065614a62600b926137e9614a6260026104b3565b909160029261512e846104b3565b60ff8216036151c05750614a626150a861438061515b6151659697986140b46150bc966140ff60706104b3565b61286a60066103fe565b61516f600f6104b3565b60ff8216036151915750615065614a62614444936137e9614a626005956104b3565b61519e610a5860126104b3565b146151a857505090565b615065614a62614444936137e9614a62600a956104b3565b909291506151d1610a5860016104b3565b146151de575b5050505090565b6137e961520e61521461520e61438061520561521b996140b46150bc996140ff60706104b3565b61286a896103fe565b936104b3565b92836136dd565b17388080806151d7565b610a586104c061523a92615017614a626148ea565b101590506152525761524c60016104b3565b90615033565b61525c60026104b3565b61524c565b61526c949194614f49565b9061527760016104b3565b9161529861528460405190565b6140b48160208101612098888b8d84614023565b906152b1610a586104c061438060649561286a876103fe565b11615567575b908492916152c3614f53565b6152f8610a586104c06143806152ef8c6140b46152e060026104b3565b9b8c9261209861410c60405190565b61286a876103fe565b11615307575b50505050614fc2565b869061531598949598614152565b8761532060036104b3565b9161534e610a586104c061438061520561533960405190565b6140b4818c6120988c8c602085019384614023565b111561540757505050506153606135c8565b61536c60ff8316610a58565b1480156153ec575b1561539257505061538560086104b3565b1717925b388080806152fe565b909195925061539f6135d2565b6153ab60ff8316610a58565b149081156153d5575b506153c0575b50615389565b9093176153cd60046104b3565b1792386153ba565b90506153e5610a586119b56135dc565b14386153b4565b506153f56105c2565b61540160ff8316610a58565b14615374565b6143806154319361286a611a5f614a62956140b46104c09660329e9c9e9a61209861410c60405190565b11156154ce5761543f6135c8565b61544b60ff8316610a58565b03615465575050905061545e60086104b3565b1792615389565b61546d6135d2565b61547960ff8316610a58565b0361548857505017925b615389565b9092506154936105c2565b61549f60ff8316610a58565b036154ac57501792615389565b909491506154be610a586119b56135dc565b03615483579261545e60046104b3565b6154d99391936135c8565b6154e560ff8316610a58565b036154f35750501792615389565b909192506154ff6135d2565b61550b60ff8316610a58565b0361551c57505061545e60046104b3565b6155246105c2565b61553060ff8316610a58565b0361554157505061545e60086104b3565b615552610a586119b59794976135dc565b1461555d5750615389565b90931792386153ba565b9550908161557f859361557a60026104b3565b6136dd565b96909192506152b7565b6100cd90610fb86108696100cd9460ff1690565b906155b46143806155ae60f86104b3565b84615589565b916155c86155c260e86104b3565b82615589565b6155e16155dc620100009261286a846103fe565b61055a565b936156446155dc61561361560e6156016155fb60c86104b3565b88615589565b61286a600160201b6103fe565b61056e565b9361286a611a5f6156336155dc61509f61562d60b86104b3565b8b615589565b9761563e60a86104b3565b90615589565b93565b6156a661568c610d4595610d4561569c61568c6100cd9b9a97610d456156926140cf610d459a610d45610d3b6156b09f610d1161568c91615686600090565b506104d0565b92610cb1565b610d1b60e06104b3565b610d1b60d06104b3565b610d1b60c06104b3565b91610ccf565b906156c76143806155ae60f86104b3565b6156d46155ae60e86104b3565b6156e86155dc620100009261286a846103fe565b936157076143806156fc6155ae60e06104b3565b61286a6101006103fe565b936100cd61560e6157476155dc6157366155dc61572d61572760d06104b3565b89615589565b61286a8a6103fe565b9661286a611a5f61572760c06104b3565b9361286a600160201b6103fe56fe3042d0c278ec3b2d8bf290d27da7bb56226996146c187fc01f6f448b6283da7241d17e4a29add7df9dab104b7b914e73209c448b1fd78b8ca04efc5e24df1abba2646970667358221220ac7d6d3c46d42cb0854945545a488099d90f9d6558f642666699436fcef7b62364736f6c63430008140033",
  "devdoc": {
    "kind": "dev",
    "methods": {},
    "version": 1
  },
  "userdoc": {
    "kind": "user",
    "methods": {},
    "version": 1
  },
  "storageLayout": {
    "storage": [
      {
        "astId": 3423,
        "contract": "src/dungeon/DungeonMovementFacet.sol:DungeonMovementFacet",
        "label": "_characters",
        "offset": 0,
        "slot": "0",
        "type": "t_mapping(t_uint256,t_struct(Character)3405_storage)"
      },
      {
        "astId": 3428,
        "contract": "src/dungeon/DungeonMovementFacet.sol:DungeonMovementFacet",
        "label": "_rooms",
        "offset": 0,
        "slot": "1",
        "type": "t_mapping(t_uint256,t_struct(Room)3388_storage)"
      },
      {
        "astId": 3433,
        "contract": "src/dungeon/DungeonMovementFacet.sol:DungeonMovementFacet",
        "label": "_areas",
        "offset": 0,
        "slot": "2",
        "type": "t_mapping(t_uint256,t_struct(Area)3418_storage)"
      },
      {
        "astId": 3441,
        "contract": "src/dungeon/DungeonMovementFacet.sol:DungeonMovementFacet",
        "label": "_areaCounter",
        "offset": 0,
        "slot": "3",
        "type": "t_struct(AreaCounter)3438_storage"
      },
      {
        "astId": 3443,
        "contract": "src/dungeon/DungeonMovementFacet.sol:DungeonMovementFacet",
        "label": "_adminContract",
        "offset": 0,
        "slot": "4",
        "type": "t_address"
      },
      {
        "astId": 3446,
        "contract": "src/dungeon/DungeonMovementFacet.sol:DungeonMovementFacet",
        "label": "_blockHashRegister",
        "offset": 0,
        "slot": "5",
        "type": "t_contract(BlockHashRegister)13344"
      },
      {
        "astId": 3449,
        "contract": "src/dungeon/DungeonMovementFacet.sol:DungeonMovementFacet",
        "label": "_charactersContract",
        "offset": 0,
        "slot": "6",
        "type": "t_contract(Characters)743"
      },
      {
        "astId": 3452,
        "contract": "src/dungeon/DungeonMovementFacet.sol:DungeonMovementFacet",
        "label": "_elementsContract",
        "offset": 0,
        "slot": "7",
        "type": "t_contract(Elements)12944"
      },
      {
        "astId": 3455,
        "contract": "src/dungeon/DungeonMovementFacet.sol:DungeonMovementFacet",
        "label": "_gearsContract",
        "offset": 0,
        "slot": "8",
        "type": "t_contract(Gears)12963"
      },
      {
        "astId": 3458,
        "contract": "src/dungeon/DungeonMovementFacet.sol:DungeonMovementFacet",
        "label": "_roomsContract",
        "offset": 0,
        "slot": "9",
        "type": "t_contract(Rooms)13030"
      },
      {
        "astId": 3461,
        "contract": "src/dungeon/DungeonMovementFacet.sol:DungeonMovementFacet",
        "label": "_playerContract",
        "offset": 0,
        "slot": "10",
        "type": "t_contract(Player)11309"
      },
      {
        "astId": 3469,
        "contract": "src/dungeon/DungeonMovementFacet.sol:DungeonMovementFacet",
        "label": "_unlockedExits",
        "offset": 0,
        "slot": "11",
        "type": "t_mapping(t_uint256,t_mapping(t_uint256,t_mapping(t_uint256,t_bool)))"
      },
      {
        "astId": 3481,
        "contract": "src/dungeon/DungeonMovementFacet.sol:DungeonMovementFacet",
        "label": "_quests",
        "offset": 0,
        "slot": "12",
        "type": "t_mapping(t_uint256,t_mapping(t_uint64,t_struct(Quest)3474_storage))"
      },
      {
        "astId": 3485,
        "contract": "src/dungeon/DungeonMovementFacet.sol:DungeonMovementFacet",
        "label": "_taxDueDate",
        "offset": 0,
        "slot": "13",
        "type": "t_mapping(t_address,t_uint256)"
      },
      {
        "astId": 3489,
        "contract": "src/dungeon/DungeonMovementFacet.sol:DungeonMovementFacet",
        "label": "_customRoomNames",
        "offset": 0,
        "slot": "14",
        "type": "t_mapping(t_uint256,t_string_storage)"
      },
      {
        "astId": 3493,
        "contract": "src/dungeon/DungeonMovementFacet.sol:DungeonMovementFacet",
        "label": "_allowedForwardTargets",
        "offset": 0,
        "slot": "15",
        "type": "t_mapping(t_address,t_bool)"
      },
      {
        "astId": 3499,
        "contract": "src/dungeon/DungeonMovementFacet.sol:DungeonMovementFacet",
        "label": "_allowedForwardSelectors",
        "offset": 0,
        "slot": "16",
        "type": "t_mapping(t_address,t_mapping(t_bytes4,t_bool))"
      }
    ],
    "types": {
      "t_address": {
        "encoding": "inplace",
        "label": "address",
        "numberOfBytes": "20"
      },
      "t_bool": {
        "encoding": "inplace",
        "label": "bool",
        "numberOfBytes": "1"
      },
      "t_bytes4": {
        "encoding": "inplace",
        "label": "bytes4",
        "numberOfBytes": "4"
      },
      "t_contract(BlockHashRegister)13344": {
        "encoding": "inplace",
        "label": "contract BlockHashRegister",
        "numberOfBytes": "20"
      },
      "t_contract(Characters)743": {
        "encoding": "inplace",
        "label": "contract Characters",
        "numberOfBytes": "20"
      },
      "t_contract(Elements)12944": {
        "encoding": "inplace",
        "label": "contract Elements",
        "numberOfBytes": "20"
      },
      "t_contract(Gears)12963": {
        "encoding": "inplace",
        "label": "contract Gears",
        "numberOfBytes": "20"
      },
      "t_contract(Player)11309": {
        "encoding": "inplace",
        "label": "contract Player",
        "numberOfBytes": "20"
      },
      "t_contract(Rooms)13030": {
        "encoding": "inplace",
        "label": "contract Rooms",
        "numberOfBytes": "20"
      },
      "t_int64": {
        "encoding": "inplace",
        "label": "int64",
        "numberOfBytes": "8"
      },
      "t_mapping(t_address,t_bool)": {
        "encoding": "mapping",
        "key": "t_address",
        "label": "mapping(address => bool)",
        "numberOfBytes": "32",
        "value": "t_bool"
      },
      "t_mapping(t_address,t_mapping(t_bytes4,t_bool))": {
        "encoding": "mapping",
        "key": "t_address",
        "label": "mapping(address => mapping(bytes4 => bool))",
        "numberOfBytes": "32",
        "value": "t_mapping(t_bytes4,t_bool)"
      },
      "t_mapping(t_address,t_uint256)": {
        "encoding": "mapping",
        "key": "t_address",
        "label": "mapping(address => uint256)",
        "numberOfBytes": "32",
        "value": "t_uint256"
      },
      "t_mapping(t_bytes4,t_bool)": {
        "encoding": "mapping",
        "key": "t_bytes4",
        "label": "mapping(bytes4 => bool)",
        "numberOfBytes": "32",
        "value": "t_bool"
      },
      "t_mapping(t_uint256,t_bool)": {
        "encoding": "mapping",
        "key": "t_uint256",
        "label": "mapping(uint256 => bool)",
        "numberOfBytes": "32",
        "value": "t_bool"
      },
      "t_mapping(t_uint256,t_mapping(t_uint256,t_bool))": {
        "encoding": "mapping",
        "key": "t_uint256",
        "label": "mapping(uint256 => mapping(uint256 => bool))",
        "numberOfBytes": "32",
        "value": "t_mapping(t_uint256,t_bool)"
      },
      "t_mapping(t_uint256,t_mapping(t_uint256,t_mapping(t_uint256,t_bool)))": {
        "encoding": "mapping",
        "key": "t_uint256",
        "label": "mapping(uint256 => mapping(uint256 => mapping(uint256 => bool)))",
        "numberOfBytes": "32",
        "value": "t_mapping(t_uint256,t_mapping(t_uint256,t_bool))"
      },
      "t_mapping(t_uint256,t_mapping(t_uint64,t_struct(Quest)3474_storage))": {
        "encoding": "mapping",
        "key": "t_uint256",
        "label": "mapping(uint256 => mapping(uint64 => struct DungeonDataLayout.Quest))",
        "numberOfBytes": "32",
        "value": "t_mapping(t_uint64,t_struct(Quest)3474_storage)"
      },
      "t_mapping(t_uint256,t_string_storage)": {
        "encoding": "mapping",
        "key": "t_uint256",
        "label": "mapping(uint256 => string)",
        "numberOfBytes": "32",
        "value": "t_string_storage"
      },
      "t_mapping(t_uint256,t_struct(Area)3418_storage)": {
        "encoding": "mapping",
        "key": "t_uint256",
        "label": "mapping(uint256 => struct DungeonDataLayout.Area)",
        "numberOfBytes": "32",
        "value": "t_struct(Area)3418_storage"
      },
      "t_mapping(t_uint256,t_struct(Character)3405_storage)": {
        "encoding": "mapping",
        "key": "t_uint256",
        "label": "mapping(uint256 => struct DungeonDataLayout.Character)",
        "numberOfBytes": "32",
        "value": "t_struct(Character)3405_storage"
      },
      "t_mapping(t_uint256,t_struct(Room)3388_storage)": {
        "encoding": "mapping",
        "key": "t_uint256",
        "label": "mapping(uint256 => struct DungeonDataLayout.Room)",
        "numberOfBytes": "32",
        "value": "t_struct(Room)3388_storage"
      },
      "t_mapping(t_uint64,t_struct(Quest)3474_storage)": {
        "encoding": "mapping",
        "key": "t_uint64",
        "label": "mapping(uint64 => struct DungeonDataLayout.Quest)",
        "numberOfBytes": "32",
        "value": "t_struct(Quest)3474_storage"
      },
      "t_string_storage": {
        "encoding": "bytes",
        "label": "string",
        "numberOfBytes": "32"
      },
      "t_struct(Area)3418_storage": {
        "encoding": "inplace",
        "label": "struct DungeonDataLayout.Area",
        "members": [
          {
            "astId": 3407,
            "contract": "src/dungeon/DungeonMovementFacet.sol:DungeonMovementFacet",
            "label": "areaType",
            "offset": 0,
            "slot": "0",
            "type": "t_uint8"
          },
          {
            "astId": 3409,
            "contract": "src/dungeon/DungeonMovementFacet.sol:DungeonMovementFacet",
            "label": "discovered",
            "offset": 1,
            "slot": "0",
            "type": "t_uint8"
          },
          {
            "astId": 3411,
            "contract": "src/dungeon/DungeonMovementFacet.sol:DungeonMovementFacet",
            "label": "lastRoomIndex",
            "offset": 2,
            "slot": "0",
            "type": "t_uint8"
          },
          {
            "astId": 3413,
            "contract": "src/dungeon/DungeonMovementFacet.sol:DungeonMovementFacet",
            "label": "currentIndex",
            "offset": 3,
            "slot": "0",
            "type": "t_uint8"
          },
          {
            "astId": 3415,
            "contract": "src/dungeon/DungeonMovementFacet.sol:DungeonMovementFacet",
            "label": "lastRoom",
            "offset": 0,
            "slot": "1",
            "type": "t_uint256"
          },
          {
            "astId": 3417,
            "contract": "src/dungeon/DungeonMovementFacet.sol:DungeonMovementFacet",
            "label": "eventBlockNumber",
            "offset": 0,
            "slot": "2",
            "type": "t_uint64"
          }
        ],
        "numberOfBytes": "96"
      },
      "t_struct(AreaCounter)3438_storage": {
        "encoding": "inplace",
        "label": "struct DungeonDataLayout.AreaCounter",
        "members": [
          {
            "astId": 3435,
            "contract": "src/dungeon/DungeonMovementFacet.sol:DungeonMovementFacet",
            "label": "lastPeriod",
            "offset": 0,
            "slot": "0",
            "type": "t_uint64"
          },
          {
            "astId": 3437,
            "contract": "src/dungeon/DungeonMovementFacet.sol:DungeonMovementFacet",
            "label": "numAreas",
            "offset": 8,
            "slot": "0",
            "type": "t_uint64"
          }
        ],
        "numberOfBytes": "32"
      },
      "t_struct(Character)3405_storage": {
        "encoding": "inplace",
        "label": "struct DungeonDataLayout.Character",
        "members": [
          {
            "astId": 3390,
            "contract": "src/dungeon/DungeonMovementFacet.sol:DungeonMovementFacet",
            "label": "location",
            "offset": 0,
            "slot": "0",
            "type": "t_uint256"
          },
          {
            "astId": 3392,
            "contract": "src/dungeon/DungeonMovementFacet.sol:DungeonMovementFacet",
            "label": "direction",
            "offset": 0,
            "slot": "1",
            "type": "t_uint8"
          },
          {
            "astId": 3394,
            "contract": "src/dungeon/DungeonMovementFacet.sol:DungeonMovementFacet",
            "label": "floors",
            "offset": 1,
            "slot": "1",
            "type": "t_int64"
          },
          {
            "astId": 3396,
            "contract": "src/dungeon/DungeonMovementFacet.sol:DungeonMovementFacet",
            "label": "slot_1",
            "offset": 0,
            "slot": "2",
            "type": "t_uint256"
          },
          {
            "astId": 3398,
            "contract": "src/dungeon/DungeonMovementFacet.sol:DungeonMovementFacet",
            "label": "slot_2",
            "offset": 0,
            "slot": "3",
            "type": "t_uint256"
          },
          {
            "astId": 3400,
            "contract": "src/dungeon/DungeonMovementFacet.sol:DungeonMovementFacet",
            "label": "slot_3",
            "offset": 0,
            "slot": "4",
            "type": "t_uint256"
          },
          {
            "astId": 3402,
            "contract": "src/dungeon/DungeonMovementFacet.sol:DungeonMovementFacet",
            "label": "slot_4",
            "offset": 0,
            "slot": "5",
            "type": "t_uint256"
          },
          {
            "astId": 3404,
            "contract": "src/dungeon/DungeonMovementFacet.sol:DungeonMovementFacet",
            "label": "slot_5",
            "offset": 0,
            "slot": "6",
            "type": "t_uint256"
          }
        ],
        "numberOfBytes": "224"
      },
      "t_struct(Quest)3474_storage": {
        "encoding": "inplace",
        "label": "struct DungeonDataLayout.Quest",
        "members": [
          {
            "astId": 3471,
            "contract": "src/dungeon/DungeonMovementFacet.sol:DungeonMovementFacet",
            "label": "status",
            "offset": 0,
            "slot": "0",
            "type": "t_uint8"
          },
          {
            "astId": 3473,
            "contract": "src/dungeon/DungeonMovementFacet.sol:DungeonMovementFacet",
            "label": "data",
            "offset": 0,
            "slot": "1",
            "type": "t_string_storage"
          }
        ],
        "numberOfBytes": "64"
      },
      "t_struct(Room)3388_storage": {
        "encoding": "inplace",
        "label": "struct DungeonDataLayout.Room",
        "members": [
          {
            "astId": 3367,
            "contract": "src/dungeon/DungeonMovementFacet.sol:DungeonMovementFacet",
            "label": "blockNumber",
            "offset": 0,
            "slot": "0",
            "type": "t_uint64"
          },
          {
            "astId": 3369,
            "contract": "src/dungeon/DungeonMovementFacet.sol:DungeonMovementFacet",
            "label": "monsterBlockNumber",
            "offset": 8,
            "slot": "0",
            "type": "t_uint64"
          },
          {
            "astId": 3371,
            "contract": "src/dungeon/DungeonMovementFacet.sol:DungeonMovementFacet",
            "label": "numActiveCharacters",
            "offset": 16,
            "slot": "0",
            "type": "t_uint64"
          },
          {
            "astId": 3373,
            "contract": "src/dungeon/DungeonMovementFacet.sol:DungeonMovementFacet",
            "label": "direction",
            "offset": 24,
            "slot": "0",
            "type": "t_uint8"
          },
          {
            "astId": 3375,
            "contract": "src/dungeon/DungeonMovementFacet.sol:DungeonMovementFacet",
            "label": "exits",
            "offset": 25,
            "slot": "0",
            "type": "t_uint8"
          },
          {
            "astId": 3377,
            "contract": "src/dungeon/DungeonMovementFacet.sol:DungeonMovementFacet",
            "label": "kind",
            "offset": 26,
            "slot": "0",
            "type": "t_uint8"
          },
          {
            "astId": 3379,
            "contract": "src/dungeon/DungeonMovementFacet.sol:DungeonMovementFacet",
            "label": "areaAtDiscovery",
            "offset": 27,
            "slot": "0",
            "type": "t_uint8"
          },
          {
            "astId": 3381,
            "contract": "src/dungeon/DungeonMovementFacet.sol:DungeonMovementFacet",
            "label": "lastRoomIndex",
            "offset": 28,
            "slot": "0",
            "type": "t_uint8"
          },
          {
            "astId": 3383,
            "contract": "src/dungeon/DungeonMovementFacet.sol:DungeonMovementFacet",
            "label": "index",
            "offset": 29,
            "slot": "0",
            "type": "t_uint8"
          },
          {
            "astId": 3385,
            "contract": "src/dungeon/DungeonMovementFacet.sol:DungeonMovementFacet",
            "label": "discoverer",
            "offset": 0,
            "slot": "1",
            "type": "t_uint256"
          },
          {
            "astId": 3387,
            "contract": "src/dungeon/DungeonMovementFacet.sol:DungeonMovementFacet",
            "label": "randomEvent",
            "offset": 0,
            "slot": "2",
            "type": "t_uint64"
          }
        ],
        "numberOfBytes": "96"
      },
      "t_uint256": {
        "encoding": "inplace",
        "label": "uint256",
        "numberOfBytes": "32"
      },
      "t_uint64": {
        "encoding": "inplace",
        "label": "uint64",
        "numberOfBytes": "8"
      },
      "t_uint8": {
        "encoding": "inplace",
        "label": "uint8",
        "numberOfBytes": "1"
      }
    }
  }
}