{
  "address": "0x1E46e794CD18412F2D2B587742F6bEe4c9d25e27",
  "abi": [
    {
      "anonymous": false,
      "inputs": [
        {
          "indexed": true,
          "internalType": "uint256",
          "name": "characterId",
          "type": "uint256"
        },
        {
          "indexed": true,
          "internalType": "uint256",
          "name": "oldLocation",
          "type": "uint256"
        },
        {
          "indexed": true,
          "internalType": "uint256",
          "name": "newLocation",
          "type": "uint256"
        },
        {
          "indexed": false,
          "internalType": "uint8",
          "name": "mode",
          "type": "uint8"
        },
        {
          "indexed": false,
          "internalType": "uint256",
          "name": "path",
          "type": "uint256"
        }
      ],
      "name": "CharacterMoved",
      "type": "event"
    },
    {
      "anonymous": false,
      "inputs": [
        {
          "indexed": true,
          "internalType": "uint256",
          "name": "characterId",
          "type": "uint256"
        },
        {
          "indexed": false,
          "internalType": "uint256",
          "name": "monsterId",
          "type": "uint256"
        }
      ],
      "name": "Death",
      "type": "event"
    },
    {
      "anonymous": false,
      "inputs": [
        {
          "indexed": true,
          "internalType": "uint256",
          "name": "characterId",
          "type": "uint256"
        },
        {
          "indexed": true,
          "internalType": "address",
          "name": "player",
          "type": "address"
        },
        {
          "indexed": false,
          "internalType": "string",
          "name": "name",
          "type": "string"
        }
      ],
      "name": "Enter",
      "type": "event"
    },
    {
      "anonymous": false,
      "inputs": [
        {
          "indexed": false,
          "internalType": "uint256",
          "name": "characterId",
          "type": "uint256"
        },
        {
          "indexed": false,
          "internalType": "uint256",
          "name": "gearId",
          "type": "uint256"
        },
        {
          "indexed": false,
          "internalType": "uint8",
          "name": "slotType",
          "type": "uint8"
        }
      ],
      "name": "Equip",
      "type": "event"
    },
    {
      "anonymous": false,
      "inputs": [
        {
          "indexed": true,
          "internalType": "uint256",
          "name": "characterId",
          "type": "uint256"
        },
        {
          "indexed": false,
          "internalType": "uint16",
          "name": "hp",
          "type": "uint16"
        }
      ],
      "name": "Heal",
      "type": "event"
    },
    {
      "anonymous": false,
      "inputs": [
        {
          "indexed": true,
          "internalType": "uint256",
          "name": "characterId",
          "type": "uint256"
        },
        {
          "indexed": false,
          "internalType": "uint16",
          "name": "newLevel",
          "type": "uint16"
        }
      ],
      "name": "LevelUp",
      "type": "event"
    },
    {
      "anonymous": false,
      "inputs": [
        {
          "indexed": true,
          "internalType": "uint256",
          "name": "characterId",
          "type": "uint256"
        },
        {
          "indexed": true,
          "internalType": "uint64",
          "name": "id",
          "type": "uint64"
        },
        {
          "indexed": true,
          "internalType": "uint8",
          "name": "status",
          "type": "uint8"
        },
        {
          "indexed": false,
          "internalType": "string",
          "name": "data",
          "type": "string"
        }
      ],
      "name": "QuestUpdate",
      "type": "event"
    },
    {
      "anonymous": false,
      "inputs": [
        {
          "indexed": true,
          "internalType": "uint256",
          "name": "areaLocation",
          "type": "uint256"
        },
        {
          "indexed": false,
          "internalType": "uint64",
          "name": "blockNumber",
          "type": "uint64"
        }
      ],
      "name": "RandomEvent",
      "type": "event"
    },
    {
      "anonymous": false,
      "inputs": [
        {
          "indexed": true,
          "internalType": "uint256",
          "name": "characterId",
          "type": "uint256"
        },
        {
          "indexed": false,
          "internalType": "uint256",
          "name": "gearId",
          "type": "uint256"
        }
      ],
      "name": "Recycle",
      "type": "event"
    },
    {
      "anonymous": false,
      "inputs": [
        {
          "indexed": true,
          "internalType": "uint256",
          "name": "deadCharacterId",
          "type": "uint256"
        },
        {
          "indexed": false,
          "internalType": "uint256",
          "name": "newCharacterId",
          "type": "uint256"
        }
      ],
      "name": "Resurrect",
      "type": "event"
    },
    {
      "anonymous": false,
      "inputs": [
        {
          "indexed": true,
          "internalType": "uint256",
          "name": "location",
          "type": "uint256"
        },
        {
          "indexed": false,
          "internalType": "bytes32",
          "name": "blockHash",
          "type": "bytes32"
        },
        {
          "indexed": false,
          "internalType": "uint8",
          "name": "exits",
          "type": "uint8"
        },
        {
          "indexed": false,
          "internalType": "uint8",
          "name": "kind",
          "type": "uint8"
        }
      ],
      "name": "RoomActualised",
      "type": "event"
    },
    {
      "anonymous": false,
      "inputs": [
        {
          "indexed": true,
          "internalType": "uint256",
          "name": "location",
          "type": "uint256"
        },
        {
          "indexed": false,
          "internalType": "uint64",
          "name": "blockNumber",
          "type": "uint64"
        },
        {
          "indexed": false,
          "internalType": "uint8",
          "name": "direction",
          "type": "uint8"
        }
      ],
      "name": "RoomDiscovered",
      "type": "event"
    },
    {
      "anonymous": false,
      "inputs": [
        {
          "indexed": true,
          "internalType": "uint256",
          "name": "location",
          "type": "uint256"
        },
        {
          "indexed": true,
          "internalType": "address",
          "name": "owner",
          "type": "address"
        },
        {
          "indexed": false,
          "internalType": "uint256",
          "name": "id",
          "type": "uint256"
        },
        {
          "indexed": false,
          "internalType": "uint256",
          "name": "amount",
          "type": "uint256"
        }
      ],
      "name": "RoomIncome",
      "type": "event"
    },
    {
      "anonymous": false,
      "inputs": [
        {
          "indexed": true,
          "internalType": "uint256",
          "name": "location",
          "type": "uint256"
        },
        {
          "indexed": false,
          "internalType": "string",
          "name": "name",
          "type": "string"
        },
        {
          "indexed": false,
          "internalType": "uint256",
          "name": "characterId",
          "type": "uint256"
        }
      ],
      "name": "RoomName",
      "type": "event"
    },
    {
      "anonymous": false,
      "inputs": [
        {
          "indexed": true,
          "internalType": "address",
          "name": "owner",
          "type": "address"
        },
        {
          "indexed": false,
          "internalType": "uint256",
          "name": "tax",
          "type": "uint256"
        },
        {
          "indexed": false,
          "internalType": "uint256",
          "name": "newDueDate",
          "type": "uint256"
        }
      ],
      "name": "RoomTaxPay",
      "type": "event"
    },
    {
      "inputs": [
        {
          "internalType": "uint256",
          "name": "characterId",
          "type": "uint256"
        },
        {
          "internalType": "uint16",
          "name": "hp",
          "type": "uint16"
        }
      ],
      "name": "heal",
      "outputs": [],
      "stateMutability": "nonpayable",
      "type": "function"
    },
    {
      "inputs": [
        {
          "internalType": "uint256",
          "name": "characterId",
          "type": "uint256"
        }
      ],
      "name": "levelUp",
      "outputs": [],
      "stateMutability": "nonpayable",
      "type": "function"
    },
    {
      "inputs": [
        {
          "internalType": "uint256",
          "name": "characterId",
          "type": "uint256"
        },
        {
          "internalType": "uint256[]",
          "name": "gearIds",
          "type": "uint256[]"
        },
        {
          "internalType": "uint8[]",
          "name": "slots",
          "type": "uint8[]"
        }
      ],
      "name": "multiEquip",
      "outputs": [],
      "stateMutability": "nonpayable",
      "type": "function"
    },
    {
      "inputs": [
        {
          "internalType": "uint256",
          "name": "characterId",
          "type": "uint256"
        }
      ],
      "name": "resurrectFrom",
      "outputs": [],
      "stateMutability": "nonpayable",
      "type": "function"
    }
  ],
  "transactionHash": "0x45d1c0ef2d0c8008b12c5523f8504714048ce258ef25d022ce5790dc2398c60d",
  "args": [],
  "numDeployments": 1,
  "linkedData": {
    "readOnlyDungeon": "0x60808060405234610016576119f4908161001c8239f35b600080fdfe608060408181526004918236101561001657600080fd5b600090813560e01c9081630ececfea14610e3457508063213ee14314610a235780632f58779614610a0457806330ad9329146109ba5780633683dee114610893578063467b47931461075557806356b5c381146106f25780637a923474146106c95780639f7cb08e14610649578063a48378ff1461062a578063acda69ca14610556578063b0ca9dfe1461053a578063c3aab23c146103f9578063d5763a80146103ad578063d667fd0414610356578063ed53a62414610318578063f090aca8146102fc578063f6940ac714610152578063fcaf8951146101285763ff5335fa1461010057600080fd5b34610125576020366003190112610125575061011e6020923561197a565b9051908152f35b80fd5b50903461014e5760209060ff61014661014036610f23565b9161153a565b915191168152f35b5080fd5b50346101255760031960603682011261014e578335906044359067ffffffffffffffff918281168091036102f85761018984611015565b505060001960079290920b828112159392846102e9575b50836102dd575b50826102cc575b5081156102c0575b50156101d157505050506020915060ff6006915b5191168152f35b6009826101dd85611253565b16029182169182036102ad57819082610286575b50601911905061027657606460ff6127108551602081019085825260243588820152600360fa1b60608201526041815261022a81611051565b5190200616116102765761023f600591611015565b5091505060070b0760ff166001019260ff841161026357505060ff602092916101ca565b634e487b7160e01b825260119052602490fd5b50506020915060ff6006916101ca565b9050810190811161029a57601990386101f1565b634e487b7160e01b835260118552602483fd5b634e487b7160e01b845260118652602484fd5b600a91501015386101b6565b600191925060070b131590386101ae565b600112159250386101a7565b600783900b12159350386101a0565b8480fd5b50903461014e5760209061011e61031236610f47565b9061194a565b50346101255760a036600319011261012557606435908115158203610125575060209261011e91610347610f13565b916044359060243590356110c5565b5091346103a95760203660031901126103a95760a092503581519161ffff808360e81c168452808360a81c1660208501528260b81c169083015263ffffffff8160c81c16606083015260f81c6080820152f35b8280fd5b5091346103a95760603660031901126103a957358060070b81036103a957602435908160070b82036103f557604435938460070b850361012557509261011e91602094610f91565b8380fd5b50903461014e57602036600319011261014e5782359160ff83169283810361014e578251610160810181811067ffffffffffffffff821117610527578452828152600a60208201526031848201526077606082015260d0608082015261014860a082015261020c60c082015261033a60e08201526104f5610100820152610e46610120820152611aee610140820152600b8510156105145790611fe0929161ffff93849260051b1601511693600881116000146104cd5750505060609250600a906101ec5b81519384526020840152820152f35b826005816104e6816104e0600896611937565b16611482565b1604160190828211610501575060609450600a9291166104be565b634e487b7160e01b815260118652602490fd5b634e487b7160e01b835260328652602483fd5b634e487b7160e01b845260418752602484fd5b50903461014e5760209061011e61055036610f47565b9061140b565b50903461014e5760c036600319011261014e57610571610f5d565b60243560ff811681036103f557610586610efe565b906064359161ffff9384841684036106265760843594851685036106265760a4359663ffffffff88168098036101255750602096936105fb610621946105e961011e989561060e9561ffff60e81b9060e81b169060ff60f81b9060f81b16610f6e565b60e09190911b60ff60e01b1690610f6e565b60d09190911b61ffff60d01b1690610f6e565b60c09190911b61ffff60c01b1690610f6e565b610f6e565b8680fd5b5034610125576020366003190112610125575061011e60209235611457565b5034610125576020366003190112610125575063ffffffff61069560c09335908160f81c61ffff808460e81c169360ff8160e01c169363ffffffff838360d01c16938360c01c16921690565b949190929660ff8151988161ffff97888097168c521660208b015216908801521660608601521660808401521660a0820152f35b50903461014e57602036600319011261014e5760209061ffff6106ea610f5d565b169051908152f35b509190346103a957600a919261070736610f47565b939004600101806001116107425783810293818504149015171561072f576020838351908152f35b634e487b7160e01b815260118452602490fd5b634e487b7160e01b825260118552602482fd5b50903461014e57602036600319011261014e5782359167ffffffffffffffff908184116101255736602385011215610125578385013591821161012557602494600594368785881b830101116103a95794929190819582945b8486106107bf576020888851908152f35b9091929394966107fd8989841b85010135908160f81c61ffff808460e81c169360ff8160e01c169363ffffffff838360d01c16938360c01c16921690565b509360019350617fff925061081590841c8316611937565b9061ffff80808416961691161461085c575b50505061083391610f6e565b96600019811461084a5760010194939291906107ae565b634e487b7160e01b8552601184528885fd5b8293921c16820180921161088157610833929161087891610f6e565b90913880610827565b634e487b7160e01b8752601186528a87fd5b5034610125576108a236610f23565b9091925060196108b18461136a565b0480156109b2575b6108f76108ee8287516020810190888252878a820152601960fa1b6060820152604181526108e681611051565b5190206110a5565b8260011c610f6e565b9182156109a9575b60ff169384600214610991575b61094e929360088311610988575b6109459183918851906020820192835289820152606560f81b6060820152604181526108e681611051565b9060011c610f6e565b91821561097f575b60011461096a575b82519182526020820152f35b90806109799160021c90610f6e565b9061095e565b60019250610956565b6008925061091a565b6109a28361094e9460021c90610f6e565b925061090c565b600192506108ff565b5060016108b9565b5034610125576020366003190112610125575067ffffffffffffffff6109e260809335611015565b92949182519560070b865260070b602086015260070b90840152166060820152f35b5034610125576020366003190112610125575061011e602092356111cb565b50903461014e5760c036600319011261014e57823592602492833593610a47610efe565b916064359360ff9485811681036103a957610a60610f13565b9060a435958787168097036102f857610a7a908a8c61153a565b9884610a90610a888d6111cb565b94939c611015565b50509060070b159081610e28575b5015610acc57505050505050505060609381600160029217915b818551961686521660208501521690820152f35b9a939699909294979598915b8681169b8b8d11610e12575082516020810187815260f89290921b6001600160f81b031916818501526041808201869052600360f81b606183015260428252608082019067ffffffffffffffff821183831017610e02575084525190206001908c90868316831415906014900689168180610df0575b15610b7f5750505080600295179b5b878114610b6d5701939a93610ad8565b634e487b7160e01b8a52601189528a8afd5b600292888416841415928380610dc4575b15610ba35750505050600395179b610b5d565b8c808b969394959616141580928193610d51575b5015610bcc575050505050878095179b610b5d565b60089485808c1614159485610bfc575b5050505050600014610bf257600595179b610b5d565b50939a8490610b5d565b600391929394955014938415610d46575b8415610d2d575b8415610d14575b8415610cfb575b8415610cd5575b8415610caf575b8415610c89575b8415610c4c575b505050508d38808080610bdc565b604d149350909183610c81575b5082610c79575b5081610c71575b5038808f80610c3e565b905038610c67565b915038610c60565b925038610c59565b9350604e841480610ca8575b80610ca1575b93610c37565b5080610c9b565b5082610c95565b9350604e841480610cce575b80610cc7575b93610c30565b5082610cc1565b5081610cbb565b9350604e841480610cf4575b80610ced575b93610c29565b5080610ce7565b5081610ce1565b9350604f841480610d0d575b93610c22565b5082610d07565b9350604f841480610d26575b93610c1b565b5080610d20565b9350604f841480610d3f575b93610c14565b5081610d39565b605081149450610c0d565b905084148015610dba575b8015610da8575b8015610d96575b8015610d77575b38610bb7565b50604e831480610d8f575b8015610d71575084610d71565b5080610d82565b50604f83148015610d6a575084610d6a565b50604f83148015610d63575080610d63565b5060508314610d5c565b508583148015610de6575b80610b905750604f82148015610b90575080610b90565b5060508214610dcf565b50801580610b4e575060508314610b4e565b634e487b7160e01b8c528a528b8bfd5b9550509850965050925060609650819350610ab8565b905060070b1538610a9e565b918491503461012557836003193601126101255750610ed5610eea610ef093610eda610ed5610ee4610eda963593610eca60ff60098c82826024359660208101908c82528885820152603360f91b606082015260418152610e9481611051565b51902006169481519060208201928b8452820152606760f81b606082015260418152610ebf81611051565b519020061695611015565b5099919890986119a9565b6112cb565b9060070b906111a3565b946119a9565b90610f91565b815190815260026020820152f35b6044359060ff82168203610f0e57565b600080fd5b6084359060ff82168203610f0e57565b6060906003190112610f0e57600435906024359060443560ff81168103610f0e5790565b6040906003190112610f0e576004359060243590565b6004359061ffff82168203610f0e57565b91908201809211610f7b57565b634e487b7160e01b600052601160045260246000fd5b909167ffffffffffffffff9067ffffffffffffffff60801b608082901b16908216808204600160801b1490151715610f7b57600160ff1b908101908110610f7b576fffffffffffffffff00000000000000008285169460401b1693808504600160401b1490151715610f7b576110129361100a91610f6e565b911690610f6e565b90565b67ffffffffffffffff9081811660070b92828260401c1660070b928260801c1660070b9160ff1c90565b60ff60019116019060ff8211610f7b57565b6080810190811067ffffffffffffffff82111761106d57604052565b634e487b7160e01b600052604160045260246000fd5b90601f8019910116810190811067ffffffffffffffff82111761106d57604052565b81156110af570690565b634e487b7160e01b600052601260045260246000fd5b9192909360ff600191160361115c57600f90611154575b60ff60646040516020810190858252876040820152600360f91b60608201526041815261110881611051565b5190200691161161111b57505050600090565b6111469260405190602082019283526040820152600760f81b6060820152604181526108e681611051565b60018101809111610f7b5790565b5060196110dc565b50505050600090565b60070b677fffffffffffffff198114610f7b5760000390565b60070b60040190677fffffffffffffff8213677fffffffffffffff19831217610f7b57565b9060070b9060070b0190677fffffffffffffff198212677fffffffffffffff831317610f7b57565b6111d761101291611015565b509160079190600081840b12611234576111f260099161117e565b830b05915b600082820b126112155761120c60099261117e565b900b0590610f91565b60099061122c611227610eea94611165565b61117e565b900b05611165565b600961124561122761124d93611165565b840b05611165565b916111f7565b61125c90611015565b50819050826000600782900b126112b9575b5060008160070b126112a9575b508060070b8260070b1360001461129a575067ffffffffffffffff1690565b905067ffffffffffffffff1690565b6112b39150611165565b3861127b565b6112c4919350611165565b913861126e565b60070b6003190190677fffffffffffffff198212677fffffffffffffff831317610f7b57565b60070b90677fffffffffffffff198212677fffffffffffffff831317610f7b57565b600791820b910b0390677fffffffffffffff198212677fffffffffffffff831317610f7b57565b600160ff1b8114610f7b5760000390565b90600160401b60008382039312818412811691841390151617610f7b57565b61137661137f91611015565b505091906112f1565b60070b90600082126113f6575b611395906112f1565b60070b600081126113e8575b6780000000000000008083136113d8575b81136113ca575b808213156113c5575090565b905090565b6113d39061134b565b6113b9565b916113e29061134b565b916113b2565b6113f19061133a565b6113a1565b906114036113959161133a565b91905061138c565b9061142d61141b61142593611015565b5050939092611015565b505092611313565b60070b9060008212611444575b6113959192611313565b6114506113959261133a565b915061143a565b600160ff1b81036114685750600090565b61147360199161136a565b0460010180600111610f7b5790565b801561151157808060011461150a57600214611504576001908161013382101682600b831016176114f357906003815b8082116114ca5750508161ffff048111610f7b570290565b90928061ffff048111610f7b578184166114ea575b800292811c906114b2565b809202916114df565b600391500a9061ffff8211610f7b57565b50600890565b5050600190565b50600090565b80156115345760ff8111610f7b576001901b9060ff8211610f7b57565b50600190565b909160ff916004916000908416838103611738575050600f935b8360646040516020810190858252846040820152606f60f81b60608201526041815261157f81611051565b5190200616600090603c811060001461171c5750508360005b168381106115ab57505050505060f01790565b8491906003810361163c5750604080516020810194855290810191909152600760fc1b60608201526007926115fe91600391906115f581606181015b03601f198101835282611083565b5190201661103f565b160291821691820361162757506015810361161a575060d01790565b601c036110125760b01790565b601190634e487b7160e01b6000525260246000fd5b909150600281036116b257506116898460066003946115e761167f8496604051928391602083019586909160419282526020820152600760fc1b60408201520190565b519020061661103f565b16029182169182036116275750600f81036116a5575060501790565b6012036110125760a01790565b6001919293959450146116c7575b5050905090565b604080516020810193845290810191909152600760fc1b6060820152611700916003916116f781606181016115e7565b51902016611517565b821b91610ff060f08416931683036116275750178038806116c0565b605a91501060001461173057836001611598565b836002611598565b6040959195856064825160208101908782528685820152600160f81b60608201526041815261176681611051565b5190200616605711611926575b856064825160208101908782528685820152600160f91b60608201526041815261179c81611051565b51902006166028116117b0575b5050611554565b85818487939995995183606460208301836117e1868d84909160419282526020820152600360f81b60408201520190565b03936117f5601f1995868101835282611083565b5190200616601911156118565750505050508015801561184c575b156118225750600a17935b38806117a9565b80600196929614908115611841575b501561181b57936005179361181b565b905060031438611831565b5080600214611810565b9151602081018881526040820192909252600360f81b6060820152606192830181526064926118859082611083565b5190200616603211156118da5750806118a257506008179361181b565b600181036118b55750600117935b61181b565b600281036118c757506002179361181b565b6003959195036118b0579382179361181b565b9190806118ed575060029150179361181b565b600181036118fd5750179361181b565b9091506002810361191257506008179361181b565b6003959195036118b057936001179361181b565b955061193181611517565b95611773565b9061ffff809216600101918211610f7b57565b906119549161140b565b6001600160ff1b0381168103610f7b5760059060011b0480156000146110125750600190565b6119839061136a565b6001600160ff1b0381168103610f7b5760069060011b0480156000146110125750600190565b60099060070b02908160070b918203610f7b5756fea26469706673582212203c4c43883a7319f368409400962e63e23b1d5d86c7925e44e3f62a0da6e003f964736f6c63430008140033"
  },
  "solcInputHash": "c3f7781b474a2ffb8b521db8cd0755da",
  "bytecode": "0x6080806040523461001657612daf908161001c8239f35b600080fdfe6080604052600436101561001257600080fd5b6000803560e01c80630ce90ec2146110a25780632227990014610c90578063d0604dd7146105ad5763f474541f1461004957600080fd5b3461058a57606036600319011261058a576001600160401b03906024358281116105a95761007b9036906004016112d5565b926044359081116105a5576100949036906004016112d5565b90916100ab60018060a01b03600a54163314611305565b6100b66004356122da565b916100ca61ffff60808501511615156113e3565b845b8681106100d7578580f35b61ffff60208501511660ff855116906100f1838a8761143c565b35916100fe84868a61143c565b359060ff821682036105a157602490600060a060405161011d8161138c565b8281528260208201528260408201528260608201528260808201520152602060018060a01b036008541660405193848092630178fe3f60e01b82528960048301525afa9182156105955760009261055e575b5061ffff8260e81c1693604051946101868661138c565b80865260ff8460e01c16602087015263ffffffff60408701948060f81c865261ffff8160d01c16606089015261ffff8160c01c1660808901521660a0870152116105235760ff6001925116901c16156104ee5760ff811661029b575060ff60208201511661025657600080516020612d5a8339815191529160ff602060609360043560005260008252836002604060002001555b01511660405191600435835260208301526040820152a16000198114610242576001016100cc565b634e487b7160e01b86526011600452602486fd5b60405162461bcd60e51b815260206004820152601a60248201527f6f6e6c792061747461636b2067656172206f6e20736c6f7420300000000000006044820152606490fd5b60ff811660010361032b5750600160ff602083015116036102e657600080516020612d5a8339815191529160ff6020606093600435600052600082528360036040600020015561021a565b60405162461bcd60e51b815260206004820152601b60248201527f6f6e6c7920646566656e73652067656172206f6e20736c6f74203100000000006044820152606490fd5b60029060ff811682036103bb575060ff6020830151160361037657600080516020612d5a8339815191529160ff6020606093600435600052600082528360046040600020015561021a565b60405162461bcd60e51b815260206004820152601a60248201527f6f6e6c79206163636573736f72696573206f6e20736c6f7420320000000000006044820152606490fd5b60ff8116600303610449575060ff6020830151160361040457600080516020612d5a8339815191529160ff6020606093600435600052600082528360056040600020015561021a565b60405162461bcd60e51b815260206004820152601a60248201527f6f6e6c79206163636573736f72696573206f6e20736c6f7420330000000000006044820152606490fd5b60ff16600414610471575b50600080516020612d5a8339815191529160ff602060609361021a565b60ff602083015116036104a9576004356000908152602081905260409020600601829055600080516020612d5a833981519152610454565b60405162461bcd60e51b815260206004820152601a60248201527f6f6e6c79206163636573736f72696573206f6e20736c6f7420340000000000006044820152606490fd5b60405162461bcd60e51b815260206004820152600d60248201526c696e76616c696420636c61737360981b6044820152606490fd5b60405162461bcd60e51b81526020600482015260136024820152720cecac2e44098caeccad840e8dede40d0d2ced606b1b6044820152606490fd5b90916020823d60201161058d575b81610579602093836113c2565b8101031261058a575051903861016f565b80fd5b3d915061056c565b6040513d6000823e3d90fd5b8980fd5b8280fd5b5080fd5b503461058a57602036600319011261058a576105d460018060a01b03600a54163314611305565b60055481906001600160a01b0316803b15610c8d5781809160046040518094819363216d6a4f60e11b83525af18015610ab457610c79575b5050600435815280602052604081206106258154611462565b6106306004356122da565b9061ffff608083015116610c3c57600654604051630607176160e31b8152600480359082015284936001600160a01b03909216929091602083602481875afa928315610b2d578593610c05575b50833b15610c0157848094604460405180978193637fbddc4760e01b835260043560048401528160248401525af1938415610b2d578594610be4575b5060065460405163140e25ad60e31b8152600481018790529560209187916024918391906001600160a01b03165af1948515610bd9578495610b9f575b508061ffff61070d816020610729950151166128fc565b505016604082015261ffff60608201511660808201528561221b565b600854604051630d9778e560e11b815260048101869052600167078000000005000560c11b0160248201529360209185916044918391906001600160a01b03165af18015610b2d578590610b6c575b60249350600060a060405161078c8161138c565b8281528260208201528260408201528260608201528260808201520152602060018060a01b036008541660405195868092630178fe3f60e01b82528560048301525afa93841561059557600094610b38575b5061ffff8460e81c1693604051946107f58661138c565b80865260ff8260e01c16602087015263ffffffff60408701928060f81c845261ffff8160d01c16606089015261ffff8160c01c1660808901521660a08701526105235751600116156104ee5760ff602085015116610256576060600080516020612d5a8339815191529160ff602089978960005260008252836002604060002001550151166040519188835260208301526040820152a1600854604051630d9778e560e11b815260048101869052600467078000008005000560c11b0160248201529360209185916044918391906001600160a01b03165af1928315610b2d578593610af3575b50602490600060a06040516108f08161138c565b8281528260208201528260408201528260608201528260808201520152602060018060a01b036008541660405193848092630178fe3f60e01b82528860048301525afa91821561059557600092610abf575b5061ffff8260e81c1691604051926109598461138c565b808452602084019360ff8360e01c16855260a063ffffffff60408301948060f81c865261ffff8160d01c16606085015261ffff8160c01c166080850152169101526105235751600116156104ee57600160ff835116036102e657600080516020612d5a8339815191526060879560ff6001958960005260006020528260036040600020015551166040519189835260208301526040820152a1015483835282602052600160408420019068ffffffffffffffff008019835416911617905560018060a01b036006541690813b156105a5576040516323b872dd60e01b81523060048201526001600160a01b039091166024820152604481018490529082908290606490829084905af18015610ab457610aa0575b50506040519081527f9864b8944e5b257db2545835b30ecab5f0bb520af28a793c225ce15f52e64bce602060043592a280f35b610aa990611348565b6105a9578138610a6d565b6040513d84823e3d90fd5b90916020823d602011610aeb575b81610ada602093836113c2565b8101031261058a5750519038610942565b3d9150610acd565b9092506020813d602011610b25575b81610b0f602093836113c2565b81010312610b2057519160246108dc565b600080fd5b3d9150610b02565b6040513d87823e3d90fd5b90936020823d602011610b64575b81610b53602093836113c2565b8101031261058a57505192386107de565b3d9150610b46565b506020833d602011610b97575b81610b86602093836113c2565b81010312610b205760249251610778565b3d9150610b79565b935093506020833d602011610bd1575b81610bbc602093836113c2565b81010312610b205761072985935194906106f6565b3d9150610baf565b6040513d86823e3d90fd5b610bf090949194611348565b610bfc578392386106b9565b505050fd5b8480fd5b945091506020843d602011610c34575b81610c22602093836113c2565b81010312610b2057849351913861067d565b3d9150610c15565b60405162461bcd60e51b815260206004820152601560248201527418da185c9858dd195c881a5cc81b9bdd0819195859605a1b6044820152606490fd5b610c8290611348565b61058a57803861060c565b50fd5b503461058a57604036600319011261058a576004356024803561ffff90818116809103610c0157600a546001600160a01b0390610cd09082163314611305565b811561105e57858160055416803b156105a95781809160046040518094819363216d6a4f60e11b83525af18015610ab45761104a575b5050610d11856122da565b906080820192610d258585511615156113e3565b86885287602052604088205490610d3b82611462565b8189526001602052600360ff60408b205460d01c160361100657610d6f908686511690876060870151169060010b91612d19565b9585610d7e8187511689611428565b169280610d8a84612677565b168a8115610f6b5750600585049384610e75575b505060075416918303928311610e615750908188923b156105a55760405163c9b902e360e01b81526004810189905260066024820152604481019290925282908290606490829084905af18015610ab457610e43575b50507fb572bcfe7c1f09d996241a68f1d4c1eac6f97533ddff5bdf47aaa2ac9730292a938360209493610e30610e38945b83851683528961221b565b511690611428565b60405191168152a280f35b610e509094939294611348565b610e5d5790918538610df4565b8580fd5b634e487b7160e01b60009081526011600452fd5b8b8360075416803b156105a95781809160848f60405194859384926311aa10fb60e01b84526004840152818c840152600660448401528c60648401525af18015610ab457610f57575b508360075416803b156105a957818091608460405180948193637f4c824d60e11b8352306004840152898c840152600660448401528c60648401525af18015610ab457610f3f575b50507f41d17e4a29add7df9dab104b7b914e73209c448b1fd78b8ca04efc5e24df1abb6040805160068152876020820152a33880610d9e565b610f4890611348565b610f53578b38610f06565b8b80fd5b610f6090611348565b610f53578b38610ebe565b94935050905060075416803b156105a55760405163c9b902e360e01b81526004810189905260066024820152604481019290925282908290606490829084905af18015610ab457610fec575b50507fb572bcfe7c1f09d996241a68f1d4c1eac6f97533ddff5bdf47aaa2ac9730292a938360209493610e30610e3894610e25565b610ff99094939294611348565b610e5d5790918538610fb7565b60405162461bcd60e51b8152602060048201526017818901527f63757272656e7420726f6f6d206e6f742074656d706c650000000000000000006044820152606490fd5b61105390611348565b610e5d578538610d06565b60405162461bcd60e51b815260206004820152601a818601527f796f75206861766520746f206865616c20736f6d657468696e670000000000006044820152606490fd5b503461058a576020806003193601126105a957600a54600435916001600160a01b03916110d29083163314611305565b838260055416803b156105a957819060046040518094819363216d6a4f60e11b83525af18015610b2d576112c2575b508284528381526111156040852054611462565b61111e836122da565b9181830161ffff9160098383511610156112855760808501906111458483511615156113e3565b83835116848114611271578460016111619201168085526128fc565b909360ff60608a019216878351160187811161125b578716809252528463ffffffff6040890151169116116112265790879160075416803b156105a55760405163c9b902e360e01b81526004810189905260066024820152604481019290925282908290606490829084905af18015610ab457611212575b50506112067ff9c0df78f5971a6ba2a9b0be5ece0fa71b8c42571ddc8c7cebc6807816bdc773948661221b565b5116604051908152a280f35b61121b90611348565b610e5d5785386111d9565b60405162461bcd60e51b815260048101869052600d60248201526c06e6f7420656e6f75676820787609c1b6044820152606490fd5b634e487b7160e01b600052601160045260246000fd5b634e487b7160e01b89526011600452602489fd5b60405162461bcd60e51b81526004810185905260156024820152746f6e6c792039206c6576656c7320666f72206e6f7760581b6044820152606490fd5b6112ce90949194611348565b9238611101565b9181601f84011215610b20578235916001600160401b038311610b20576020808501948460051b010111610b2057565b1561130c57565b60405162461bcd60e51b81526020600482015260146024820152731bdb9b1e481c1b185e595c9cc8185b1b1bddd95960621b6044820152606490fd5b6001600160401b03811161135b57604052565b634e487b7160e01b600052604160045260246000fd5b60a081019081106001600160401b0382111761135b57604052565b60c081019081106001600160401b0382111761135b57604052565b608081019081106001600160401b0382111761135b57604052565b90601f801991011681019081106001600160401b0382111761135b57604052565b156113ea57565b60405162461bcd60e51b81526020600482015260166024820152751e5bdd5c8818da185c9858dd195c881a5cc81919585960521b6044820152606490fd5b61ffff918216908216039190821161125b57565b919081101561144c5760051b0190565b634e487b7160e01b600052603260045260246000fd5b60008181526001602052604081208054906001600160401b0382169182156121d25760d01c60ff16156114a6575b50505061149f6114a491612c01565b6123bd565b565b600554604051634a83e9cd60e11b81526004810193909352602090839060249082906001600160a01b03165afa9182156121c7578392612193575b50811561218d576114f184612c01565b808452600260205260ff60408520541615611f66575b5080548360c082901c60ff1660048103611d8f575050600f5b60ff6064604051886020820152866040820152606f60f81b60608201526041815261154a816113a7565b602081519101200616603c8110600014611d75575060ff855b1660048110611c1b575060f0175b8461157b87612c01565b60ff8460e01c169060ff8560d81c16926115948a61281b565b50509060070b159081611c0f575b5015611867575050506060879260ff7f8850140926f0260fe1b422b7a0d93e7d5734e521eae9ac8969ed512cc383451593600160029117965b61ffff60c81b191683831660c81b1781831660d01b1788556115fc86612c01565b96878b52600260205260408b2090815490848116858360081c160361184e575b50505081604051938a8552166020840152166040820152a283526002602052600160ff60408520541691019182549182611658575b5050611490565b60ff611663846122da565b511692601961167188612a84565b048015611846575b6116b96116b08260405160208101908c8252886040820152601960fa1b6060820152604181526116a8816113a7565b51902061276d565b8260011c61220e565b93841561183d575b85600214611821575b9061170d9160088211611818575b816117049160405160208101918d83526040820152606560f81b6060820152604181526116a8816113a7565b9060011c61220e565b93841561180f575b6001146117fa575b6005821115611794575b50505060018060a01b03600754169154823b156117905790606484928360405195869485936302acc94b60e01b855260048501526006602485015260448401525af18015610ab45761177c575b808080611651565b6117868291611348565b61058a5780611774565b8380fd5b6007546001600160a01b0316803b156117f6578692918360649260405196879586946302acc94b60e01b86526004860152602485015260448401525af18015610bd9576117e3575b8080611727565b6117ef90939193611348565b91386117dc565b8680fd5b92806118099160021c9061220e565b9261171d565b60019450611715565b600891506116d8565b93906118348261170d9360021c9061220e565b949091506116ca565b600194506116c1565b506001611679565b61ff009060081b169061ff00191617905538808061161c565b999499989391979896959290965b60ff8b60e81c1660ff8a1611611bd8575060405187602082015260ff60f81b8960f81b166040820152866041820152600360f81b6061820152604281528060808101106001600160401b03608083011117611bc457601481608060ff93016040526020815191012006166001808316141590818092611baf575b15611929575050600160029117975b60ff808216146119155760ff166001019790611875565b634e487b7160e01b8a52601160045260248afd5b600283811614158080611b7c575b1561194b57505050600260039117976118fe565b600484811614158080611b04575b1561196d57505050506004809117976118fe565b600893848087161415938461199c575b505050506000146119925760059117976118fe565b50966001906118fe565b600314935090918315611af6575b8315611ada575b8315611abe575b8315611aa2575b8315611a79575b8315611a50575b8315611a27575b83156119e7575b5050503880808061197d565b60ff8d16604d149350909183611a1f575b5082611a17575b5081611a0f575b503880806119db565b905038611a06565b9150386119ff565b9250386119f8565b9250604e60ff8d161480611a49575b80611a42575b926119d4565b5082611a3c565b5081611a36565b9250604e60ff8d161480611a72575b80611a6b575b926119cd565b5081611a65565b5080611a5f565b9250604e60ff8d161480611a9b575b80611a94575b926119c6565b5082611a8e565b5080611a88565b9250604f60ff8d161480611ab7575b926119bf565b5081611ab1565b9250604f60ff8d161480611ad3575b926119b8565b5082611acd565b9250604f60ff8d161480611aef575b926119b1565b5080611ae9565b60ff8d1660501493506119aa565b50600283148015611b6f575b8015611b5a575b8015611b45575b806119595750604e60ff8d161480611b3e575b8015611959575081611959565b5083611b31565b50604f60ff8d16148015611b1e575081611b1e565b50604f60ff8d16148015611b17575083611b17565b50605060ff8d1614611b10565b50600182148015611ba2575b806119375750604f60ff8c16148015611937575082611937565b50605060ff8c1614611b88565b508015806118ef5750605060ff8b16146118ef565b634e487b7160e01b8a52604160045260248afd5b849998507f8850140926f0260fe1b422b7a0d93e7d5734e521eae9ac8969ed512cc38345159396975060ff9060609392969b6115db565b905060070b15386115a2565b60038103611ca057506040805160208101888152918101869052600760fc1b606082015260079160ff91611c6c91600391611c6381606181015b03601f1981018352826113c2565b5190201661275b565b16028060ff8116036102425760ff8116601503611c8d575060d0175b611571565b60ff601c911603611c885760b017611571565b60028103611d1c5750600360ff611ce98160068a604051611cdf81611c558d602083019586909160419282526020820152600760fc1b60408201520190565b519020061661275b565b16028060ff8116036102425760ff8116600f03611d095750605017611571565b60ff6012911603611c885760a017611571565b600103611c88576040805160208101888152918101869052600760fc1b6060820152611d5b91600391611d528160618101611c55565b51902016612844565b60041b610ff0811660f08216036102425760f01617611571565b605a1115611d865760ff6001611563565b60ff6002611563565b60ff606460405160208101908a8252886040820152600160f81b606082015260418152611dbb816113a7565b5190200616605711611f55575b60ff606460405160208101908a8252886040820152600160f91b606082015260418152611df4816113a7565b5190200616602811611e07575b50611520565b6040805160208101898152918101879052600360f81b6060820152604181528891601f199160ff91606491611e3d6061826113c2565b519020061660191115611e9457505080158015611e8a575b15611e655750600a175b38611e01565b80600114908115611e7f575b5015611e5f57600517611e5f565b905060031438611e71565b5080600214611e55565b6040805160208101938452908101889052600360f81b60608201526061918201815260ff92606492909190611ec990826113c2565b519020061660321115611f165780611ee45750600817611e5f565b60018103611ef657506001175b611e5f565b60028103611f075750600217611e5f565b600303611ef157600417611e5f565b80611f245750600217611e5f565b60018103611f355750600417611e5f565b60028103611f465750600817611e5f565b600303611ef157600117611e5f565b9050611f6081612844565b90611dc8565b6001600160401b0360035460401c1690611f7f8161281b565b505060001960079290920b82811215928361217e575b5082612172575b5081612163575b508015612158575b156120775760069081905b8652600260205260ff604087209116908160ff198254161790550315611507576001600160401b036201437042041660035491816001600160401b03841614156000146120275750600160401b91506fffffffffffffffffffffffffffffffff196003541617176003555b38611507565b60019150016001600160401b0381116120635767ffffffffffffffff60401b9060401b169067ffffffffffffffff60401b191617600355612021565b634e487b7160e01b85526011600452602485fd5b60096001600160401b0361208a83612b3e565b1602806001600160401b03811603610242576001600160401b0381168061212e575b601911905061212457606460ff6127106040516020810190858252886040820152600360fa1b6060820152604181526120e4816113a7565b519020061611612124576120f78161281b565b5091505060ff60058260070b078116600101116102425790600560069260070b0760ff1660010190611fb6565b6006908190611fb6565b506001600160401b038116600319810111610242576019906001600160401b0316600319016120ac565b50600a821015611fab565b6001915060070b131538611fa3565b60011215915038611f9c565b600783900b1215925038611f95565b50505050565b9091506020813d6020116121bf575b816121af602093836113c2565b810103126105a5575190386114e1565b3d91506121a2565b6040513d85823e3d90fd5b60405162461bcd60e51b81526020600482015260146024820152731c9bdbdb481b9bdd0818dc99585d1959081e595d60621b6044820152606490fd5b9190820180921161125b57565b9061228b9061227561226061224960ff60f81b845160f81b1661ffff60e81b602086015160e81b169061220e565b604084015160c81b63ffffffff60c81b169061220e565b606083015160b81b61ffff60b81b169061220e565b60809091015160a81b61ffff60a81b169061220e565b6006546001600160a01b03169190823b15610b20576044600092836040519586948593634848b1a560e01b8552600485015260248401525af18015610595576122d15750565b6114a490611348565b6040908151906122e982611371565b6000908183528160806020948286820152828782015282606082015201528260018060a01b0360065416916024865180948193630178fe3f60e01b835260048301525afa9182156123b2578092612382575b505082519261234984611371565b8160f81c845261ffff92838360e81c169085015263ffffffff8260c81c1690840152818160b81c16606084015260a81c16608082015290565b9091508282813d83116123ab575b61239a81836113c2565b8101031261058a575051388061233b565b503d612390565b8451903d90823e3d90fd5b6000908082526020600281526040600281852001936001600160401b03938486541690816123ef575b50505050505050565b6005548451634a83e9cd60e11b815260048101939093528590839060249082906001600160a01b03165afa91821561259957839261256a575b5081156123e6576124bd6124b86124cd6124d3936124bd6124b86124c76001986124ad60ff60098f8f9083838351838101908d82528986820152603360f91b606082015260418152612479816113a7565b5190200616958251918201928b8452820152606760f81b6060820152604181526124a2816113a7565b51902006169561281b565b509991989098612d04565b612a0c565b9060070b90612bd9565b94612d04565b90612c89565b936124dd856125a3565b948352522091600283019283549260028385161415928361255b575b5082612552575b5081612541575b5061252a575b5050805467ffffffffffffffff19169055388080808080806123e6565b67ffffffffffffffff19166002179055388061250d565b60ff91505460d01c16151538612507565b15915038612500565b825460801c16159250386124f9565b9091508481813d8311612592575b61258281836113c2565b810103126105a557519038612428565b503d612578565b84513d85823e3d90fd5b600090808252602090600182526001600160401b039182604085205460401c16801561267057600554604051634a83e9cd60e11b81526004810183905292908190849060249082906001600160a01b03165afa928315612665578693612636575b50821561262e578560016040928661262b99525220549360ff8560d01c169416149161278d565b90565b505050505090565b9080935081813d831161265e575b61264e81836113c2565b81010312610e5d57519138612604565b503d612644565b6040513d88823e3d90fd5b5050505090565b6009546040516331a9108f60e11b8152600481018390526001600160a01b0392918316916020918281602481875afa90811561059557600091612725575b508416300361271c5781906024604051809581936369f648a160e01b835260048301525afa908115610595576000916126f0575b5090501690565b82813d8311612715575b61270481836113c2565b8101031261058a57505180386126e9565b503d6126fa565b50505050600090565b8381813d8311612754575b61273a81836113c2565b810103126105a9575190858216820361058a5750386126b5565b503d612730565b60ff60019116019060ff821161125b57565b8115612777570690565b634e487b7160e01b600052601260045260246000fd5b91909260ff600191160361281357600f9061280b575b60ff60646040516020810190858252866040820152600360f91b6060820152604181526127cf816113a7565b519020069116116127e1575050600090565b612806916040519160208301526040820152600760f81b6060820152604181526113a7565b600190565b5060196127a3565b505050600090565b6001600160401b039081811660070b92828260401c1660070b928260801c1660070b9160ff1c90565b80156128615760ff811161125b576001901b9060ff821161125b57565b50600190565b80156128f65780806001146128ef576002146128e9576001908161013382101682600b831016176128d857906003815b8082116128af5750508161ffff04811161125b570290565b90928061ffff04811161125b578184166128cf575b800292811c90612897565b809202916128c4565b600391500a9061ffff821161125b57565b50600890565b5050600190565b50600090565b9060405161016081018181106001600160401b0382111761135b576040526000808252600a6020830152603160408301526077606083015260d0608083015261014860a083015261020c60c083015261033a60e08301526104f5610100830152610e46610120830152611aee61014083015261ffff9182851694600b8610156129f85760051b621fffe016015182169360088111156129a1575050506101ec90600a90565b6001018281116129e457826005816129bc8160089516612867565b16041601908282116129d057501690600a90565b634e487b7160e01b81526011600452602490fd5b634e487b7160e01b82526011600452602482fd5b634e487b7160e01b83526032600452602483fd5b60070b6003190190677fffffffffffffff198212677fffffffffffffff83131761125b57565b60070b90677fffffffffffffff198212677fffffffffffffff83131761125b57565b600160ff1b811461125b5760000390565b90600160401b6000838203931281841281169184139015161761125b57565b612a90612a999161281b565b50509190612a32565b60070b9060008212612b10575b612aaf90612a32565b60070b60008112612b02575b678000000000000000808313612af2575b8113612ae4575b80821315612adf575090565b905090565b612aed90612a65565b612ad3565b91612afc90612a65565b91612acc565b612b0b90612a54565b612abb565b90612b1d612aaf91612a54565b919050612aa6565b60070b677fffffffffffffff19811461125b5760000390565b612b479061281b565b50819050826000600782900b12612ba2575b5060008160070b12612b92575b508060070b8260070b13600014612b8457506001600160401b031690565b90506001600160401b031690565b612b9c9150612b25565b38612b66565b612bad919350612b25565b9138612b59565b60070b60040190677fffffffffffffff8213677fffffffffffffff1983121761125b57565b9060070b9060070b0190677fffffffffffffff198212677fffffffffffffff83131761125b57565b612c0d61262b9161281b565b509160079190600081840b12612c6a57612c28600991612bb4565b830b05915b600082820b12612c4b57612c42600992612bb4565b900b0590612c89565b600990612c62612c5d6124cd94612b25565b612bb4565b900b05612b25565b6009612c7b612c5d612c8393612b25565b840b05612b25565b91612c2d565b90916001600160401b039067ffffffffffffffff60801b608082901b16908216808204600160801b149015171561125b57600160ff1b90810190811061125b5767ffffffffffffffff60401b8285169460401b1693808504600160401b149015171561125b5761262b93612cfc9161220e565b91169061220e565b60099060070b02908160070b91820361125b57565b9091612d2d9061ffff80931660070b612bd9565b918260070b9082811660070b8213612d525750600012612d4e575050600090565b1690565b925050509056fe9661c1f94255e8f19fda183859db8ad335498fb1e361acc4bd925a68d1bcaf81a2646970667358221220fc3361e0d982e5e69f355ae4a927e155def2ecb596f1faa4ae4912d8581a1bb264736f6c63430008140033",
  "devdoc": {
    "kind": "dev",
    "methods": {},
    "version": 1
  },
  "userdoc": {
    "kind": "user",
    "methods": {},
    "version": 1
  },
  "storageLayout": {
    "storage": [
      {
        "astId": 2986,
        "contract": "src/dungeon/DungeonCharacterFacet.sol:DungeonCharacterFacet",
        "label": "_characters",
        "offset": 0,
        "slot": "0",
        "type": "t_mapping(t_uint256,t_struct(Character)2968_storage)"
      },
      {
        "astId": 2991,
        "contract": "src/dungeon/DungeonCharacterFacet.sol:DungeonCharacterFacet",
        "label": "_rooms",
        "offset": 0,
        "slot": "1",
        "type": "t_mapping(t_uint256,t_struct(Room)2951_storage)"
      },
      {
        "astId": 2996,
        "contract": "src/dungeon/DungeonCharacterFacet.sol:DungeonCharacterFacet",
        "label": "_areas",
        "offset": 0,
        "slot": "2",
        "type": "t_mapping(t_uint256,t_struct(Area)2981_storage)"
      },
      {
        "astId": 3004,
        "contract": "src/dungeon/DungeonCharacterFacet.sol:DungeonCharacterFacet",
        "label": "_areaCounter",
        "offset": 0,
        "slot": "3",
        "type": "t_struct(AreaCounter)3001_storage"
      },
      {
        "astId": 3006,
        "contract": "src/dungeon/DungeonCharacterFacet.sol:DungeonCharacterFacet",
        "label": "_adminContract",
        "offset": 0,
        "slot": "4",
        "type": "t_address"
      },
      {
        "astId": 3009,
        "contract": "src/dungeon/DungeonCharacterFacet.sol:DungeonCharacterFacet",
        "label": "_blockHashRegister",
        "offset": 0,
        "slot": "5",
        "type": "t_contract(BlockHashRegister)12959"
      },
      {
        "astId": 3012,
        "contract": "src/dungeon/DungeonCharacterFacet.sol:DungeonCharacterFacet",
        "label": "_charactersContract",
        "offset": 0,
        "slot": "6",
        "type": "t_contract(Characters)464"
      },
      {
        "astId": 3015,
        "contract": "src/dungeon/DungeonCharacterFacet.sol:DungeonCharacterFacet",
        "label": "_elementsContract",
        "offset": 0,
        "slot": "7",
        "type": "t_contract(Elements)12693"
      },
      {
        "astId": 3018,
        "contract": "src/dungeon/DungeonCharacterFacet.sol:DungeonCharacterFacet",
        "label": "_gearsContract",
        "offset": 0,
        "slot": "8",
        "type": "t_contract(Gears)12712"
      },
      {
        "astId": 3021,
        "contract": "src/dungeon/DungeonCharacterFacet.sol:DungeonCharacterFacet",
        "label": "_roomsContract",
        "offset": 0,
        "slot": "9",
        "type": "t_contract(Rooms)12779"
      },
      {
        "astId": 3024,
        "contract": "src/dungeon/DungeonCharacterFacet.sol:DungeonCharacterFacet",
        "label": "_playerContract",
        "offset": 0,
        "slot": "10",
        "type": "t_contract(Player)10551"
      },
      {
        "astId": 3032,
        "contract": "src/dungeon/DungeonCharacterFacet.sol:DungeonCharacterFacet",
        "label": "_unlockedExits",
        "offset": 0,
        "slot": "11",
        "type": "t_mapping(t_uint256,t_mapping(t_uint256,t_mapping(t_uint256,t_bool)))"
      },
      {
        "astId": 3044,
        "contract": "src/dungeon/DungeonCharacterFacet.sol:DungeonCharacterFacet",
        "label": "_quests",
        "offset": 0,
        "slot": "12",
        "type": "t_mapping(t_uint256,t_mapping(t_uint64,t_struct(Quest)3037_storage))"
      },
      {
        "astId": 3048,
        "contract": "src/dungeon/DungeonCharacterFacet.sol:DungeonCharacterFacet",
        "label": "_taxDueDate",
        "offset": 0,
        "slot": "13",
        "type": "t_mapping(t_address,t_uint256)"
      },
      {
        "astId": 3052,
        "contract": "src/dungeon/DungeonCharacterFacet.sol:DungeonCharacterFacet",
        "label": "_customRoomNames",
        "offset": 0,
        "slot": "14",
        "type": "t_mapping(t_uint256,t_string_storage)"
      }
    ],
    "types": {
      "t_address": {
        "encoding": "inplace",
        "label": "address",
        "numberOfBytes": "20"
      },
      "t_bool": {
        "encoding": "inplace",
        "label": "bool",
        "numberOfBytes": "1"
      },
      "t_contract(BlockHashRegister)12959": {
        "encoding": "inplace",
        "label": "contract BlockHashRegister",
        "numberOfBytes": "20"
      },
      "t_contract(Characters)464": {
        "encoding": "inplace",
        "label": "contract Characters",
        "numberOfBytes": "20"
      },
      "t_contract(Elements)12693": {
        "encoding": "inplace",
        "label": "contract Elements",
        "numberOfBytes": "20"
      },
      "t_contract(Gears)12712": {
        "encoding": "inplace",
        "label": "contract Gears",
        "numberOfBytes": "20"
      },
      "t_contract(Player)10551": {
        "encoding": "inplace",
        "label": "contract Player",
        "numberOfBytes": "20"
      },
      "t_contract(Rooms)12779": {
        "encoding": "inplace",
        "label": "contract Rooms",
        "numberOfBytes": "20"
      },
      "t_int64": {
        "encoding": "inplace",
        "label": "int64",
        "numberOfBytes": "8"
      },
      "t_mapping(t_address,t_uint256)": {
        "encoding": "mapping",
        "key": "t_address",
        "label": "mapping(address => uint256)",
        "numberOfBytes": "32",
        "value": "t_uint256"
      },
      "t_mapping(t_uint256,t_bool)": {
        "encoding": "mapping",
        "key": "t_uint256",
        "label": "mapping(uint256 => bool)",
        "numberOfBytes": "32",
        "value": "t_bool"
      },
      "t_mapping(t_uint256,t_mapping(t_uint256,t_bool))": {
        "encoding": "mapping",
        "key": "t_uint256",
        "label": "mapping(uint256 => mapping(uint256 => bool))",
        "numberOfBytes": "32",
        "value": "t_mapping(t_uint256,t_bool)"
      },
      "t_mapping(t_uint256,t_mapping(t_uint256,t_mapping(t_uint256,t_bool)))": {
        "encoding": "mapping",
        "key": "t_uint256",
        "label": "mapping(uint256 => mapping(uint256 => mapping(uint256 => bool)))",
        "numberOfBytes": "32",
        "value": "t_mapping(t_uint256,t_mapping(t_uint256,t_bool))"
      },
      "t_mapping(t_uint256,t_mapping(t_uint64,t_struct(Quest)3037_storage))": {
        "encoding": "mapping",
        "key": "t_uint256",
        "label": "mapping(uint256 => mapping(uint64 => struct DungeonDataLayout.Quest))",
        "numberOfBytes": "32",
        "value": "t_mapping(t_uint64,t_struct(Quest)3037_storage)"
      },
      "t_mapping(t_uint256,t_string_storage)": {
        "encoding": "mapping",
        "key": "t_uint256",
        "label": "mapping(uint256 => string)",
        "numberOfBytes": "32",
        "value": "t_string_storage"
      },
      "t_mapping(t_uint256,t_struct(Area)2981_storage)": {
        "encoding": "mapping",
        "key": "t_uint256",
        "label": "mapping(uint256 => struct DungeonDataLayout.Area)",
        "numberOfBytes": "32",
        "value": "t_struct(Area)2981_storage"
      },
      "t_mapping(t_uint256,t_struct(Character)2968_storage)": {
        "encoding": "mapping",
        "key": "t_uint256",
        "label": "mapping(uint256 => struct DungeonDataLayout.Character)",
        "numberOfBytes": "32",
        "value": "t_struct(Character)2968_storage"
      },
      "t_mapping(t_uint256,t_struct(Room)2951_storage)": {
        "encoding": "mapping",
        "key": "t_uint256",
        "label": "mapping(uint256 => struct DungeonDataLayout.Room)",
        "numberOfBytes": "32",
        "value": "t_struct(Room)2951_storage"
      },
      "t_mapping(t_uint64,t_struct(Quest)3037_storage)": {
        "encoding": "mapping",
        "key": "t_uint64",
        "label": "mapping(uint64 => struct DungeonDataLayout.Quest)",
        "numberOfBytes": "32",
        "value": "t_struct(Quest)3037_storage"
      },
      "t_string_storage": {
        "encoding": "bytes",
        "label": "string",
        "numberOfBytes": "32"
      },
      "t_struct(Area)2981_storage": {
        "encoding": "inplace",
        "label": "struct DungeonDataLayout.Area",
        "members": [
          {
            "astId": 2970,
            "contract": "src/dungeon/DungeonCharacterFacet.sol:DungeonCharacterFacet",
            "label": "areaType",
            "offset": 0,
            "slot": "0",
            "type": "t_uint8"
          },
          {
            "astId": 2972,
            "contract": "src/dungeon/DungeonCharacterFacet.sol:DungeonCharacterFacet",
            "label": "discovered",
            "offset": 1,
            "slot": "0",
            "type": "t_uint8"
          },
          {
            "astId": 2974,
            "contract": "src/dungeon/DungeonCharacterFacet.sol:DungeonCharacterFacet",
            "label": "lastRoomIndex",
            "offset": 2,
            "slot": "0",
            "type": "t_uint8"
          },
          {
            "astId": 2976,
            "contract": "src/dungeon/DungeonCharacterFacet.sol:DungeonCharacterFacet",
            "label": "currentIndex",
            "offset": 3,
            "slot": "0",
            "type": "t_uint8"
          },
          {
            "astId": 2978,
            "contract": "src/dungeon/DungeonCharacterFacet.sol:DungeonCharacterFacet",
            "label": "lastRoom",
            "offset": 0,
            "slot": "1",
            "type": "t_uint256"
          },
          {
            "astId": 2980,
            "contract": "src/dungeon/DungeonCharacterFacet.sol:DungeonCharacterFacet",
            "label": "eventBlockNumber",
            "offset": 0,
            "slot": "2",
            "type": "t_uint64"
          }
        ],
        "numberOfBytes": "96"
      },
      "t_struct(AreaCounter)3001_storage": {
        "encoding": "inplace",
        "label": "struct DungeonDataLayout.AreaCounter",
        "members": [
          {
            "astId": 2998,
            "contract": "src/dungeon/DungeonCharacterFacet.sol:DungeonCharacterFacet",
            "label": "lastPeriod",
            "offset": 0,
            "slot": "0",
            "type": "t_uint64"
          },
          {
            "astId": 3000,
            "contract": "src/dungeon/DungeonCharacterFacet.sol:DungeonCharacterFacet",
            "label": "numAreas",
            "offset": 8,
            "slot": "0",
            "type": "t_uint64"
          }
        ],
        "numberOfBytes": "32"
      },
      "t_struct(Character)2968_storage": {
        "encoding": "inplace",
        "label": "struct DungeonDataLayout.Character",
        "members": [
          {
            "astId": 2953,
            "contract": "src/dungeon/DungeonCharacterFacet.sol:DungeonCharacterFacet",
            "label": "location",
            "offset": 0,
            "slot": "0",
            "type": "t_uint256"
          },
          {
            "astId": 2955,
            "contract": "src/dungeon/DungeonCharacterFacet.sol:DungeonCharacterFacet",
            "label": "direction",
            "offset": 0,
            "slot": "1",
            "type": "t_uint8"
          },
          {
            "astId": 2957,
            "contract": "src/dungeon/DungeonCharacterFacet.sol:DungeonCharacterFacet",
            "label": "floors",
            "offset": 1,
            "slot": "1",
            "type": "t_int64"
          },
          {
            "astId": 2959,
            "contract": "src/dungeon/DungeonCharacterFacet.sol:DungeonCharacterFacet",
            "label": "slot_1",
            "offset": 0,
            "slot": "2",
            "type": "t_uint256"
          },
          {
            "astId": 2961,
            "contract": "src/dungeon/DungeonCharacterFacet.sol:DungeonCharacterFacet",
            "label": "slot_2",
            "offset": 0,
            "slot": "3",
            "type": "t_uint256"
          },
          {
            "astId": 2963,
            "contract": "src/dungeon/DungeonCharacterFacet.sol:DungeonCharacterFacet",
            "label": "slot_3",
            "offset": 0,
            "slot": "4",
            "type": "t_uint256"
          },
          {
            "astId": 2965,
            "contract": "src/dungeon/DungeonCharacterFacet.sol:DungeonCharacterFacet",
            "label": "slot_4",
            "offset": 0,
            "slot": "5",
            "type": "t_uint256"
          },
          {
            "astId": 2967,
            "contract": "src/dungeon/DungeonCharacterFacet.sol:DungeonCharacterFacet",
            "label": "slot_5",
            "offset": 0,
            "slot": "6",
            "type": "t_uint256"
          }
        ],
        "numberOfBytes": "224"
      },
      "t_struct(Quest)3037_storage": {
        "encoding": "inplace",
        "label": "struct DungeonDataLayout.Quest",
        "members": [
          {
            "astId": 3034,
            "contract": "src/dungeon/DungeonCharacterFacet.sol:DungeonCharacterFacet",
            "label": "status",
            "offset": 0,
            "slot": "0",
            "type": "t_uint8"
          },
          {
            "astId": 3036,
            "contract": "src/dungeon/DungeonCharacterFacet.sol:DungeonCharacterFacet",
            "label": "data",
            "offset": 0,
            "slot": "1",
            "type": "t_string_storage"
          }
        ],
        "numberOfBytes": "64"
      },
      "t_struct(Room)2951_storage": {
        "encoding": "inplace",
        "label": "struct DungeonDataLayout.Room",
        "members": [
          {
            "astId": 2930,
            "contract": "src/dungeon/DungeonCharacterFacet.sol:DungeonCharacterFacet",
            "label": "blockNumber",
            "offset": 0,
            "slot": "0",
            "type": "t_uint64"
          },
          {
            "astId": 2932,
            "contract": "src/dungeon/DungeonCharacterFacet.sol:DungeonCharacterFacet",
            "label": "monsterBlockNumber",
            "offset": 8,
            "slot": "0",
            "type": "t_uint64"
          },
          {
            "astId": 2934,
            "contract": "src/dungeon/DungeonCharacterFacet.sol:DungeonCharacterFacet",
            "label": "numActiveCharacters",
            "offset": 16,
            "slot": "0",
            "type": "t_uint64"
          },
          {
            "astId": 2936,
            "contract": "src/dungeon/DungeonCharacterFacet.sol:DungeonCharacterFacet",
            "label": "direction",
            "offset": 24,
            "slot": "0",
            "type": "t_uint8"
          },
          {
            "astId": 2938,
            "contract": "src/dungeon/DungeonCharacterFacet.sol:DungeonCharacterFacet",
            "label": "exits",
            "offset": 25,
            "slot": "0",
            "type": "t_uint8"
          },
          {
            "astId": 2940,
            "contract": "src/dungeon/DungeonCharacterFacet.sol:DungeonCharacterFacet",
            "label": "kind",
            "offset": 26,
            "slot": "0",
            "type": "t_uint8"
          },
          {
            "astId": 2942,
            "contract": "src/dungeon/DungeonCharacterFacet.sol:DungeonCharacterFacet",
            "label": "areaAtDiscovery",
            "offset": 27,
            "slot": "0",
            "type": "t_uint8"
          },
          {
            "astId": 2944,
            "contract": "src/dungeon/DungeonCharacterFacet.sol:DungeonCharacterFacet",
            "label": "lastRoomIndex",
            "offset": 28,
            "slot": "0",
            "type": "t_uint8"
          },
          {
            "astId": 2946,
            "contract": "src/dungeon/DungeonCharacterFacet.sol:DungeonCharacterFacet",
            "label": "index",
            "offset": 29,
            "slot": "0",
            "type": "t_uint8"
          },
          {
            "astId": 2948,
            "contract": "src/dungeon/DungeonCharacterFacet.sol:DungeonCharacterFacet",
            "label": "discoverer",
            "offset": 0,
            "slot": "1",
            "type": "t_uint256"
          },
          {
            "astId": 2950,
            "contract": "src/dungeon/DungeonCharacterFacet.sol:DungeonCharacterFacet",
            "label": "randomEvent",
            "offset": 0,
            "slot": "2",
            "type": "t_uint64"
          }
        ],
        "numberOfBytes": "96"
      },
      "t_uint256": {
        "encoding": "inplace",
        "label": "uint256",
        "numberOfBytes": "32"
      },
      "t_uint64": {
        "encoding": "inplace",
        "label": "uint64",
        "numberOfBytes": "8"
      },
      "t_uint8": {
        "encoding": "inplace",
        "label": "uint8",
        "numberOfBytes": "1"
      }
    }
  }
}