{
  "address": "0x8A8bcEe351E8C6e38Da21c1c6A7f3cbDAe72d812",
  "abi": [
    {
      "anonymous": false,
      "inputs": [
        {
          "indexed": true,
          "internalType": "uint256",
          "name": "characterId",
          "type": "uint256"
        },
        {
          "indexed": true,
          "internalType": "uint256",
          "name": "oldLocation",
          "type": "uint256"
        },
        {
          "indexed": true,
          "internalType": "uint256",
          "name": "newLocation",
          "type": "uint256"
        },
        {
          "indexed": false,
          "internalType": "uint8",
          "name": "mode",
          "type": "uint8"
        },
        {
          "indexed": false,
          "internalType": "uint256",
          "name": "path",
          "type": "uint256"
        }
      ],
      "name": "CharacterMoved",
      "type": "event"
    },
    {
      "anonymous": false,
      "inputs": [
        {
          "indexed": true,
          "internalType": "uint256",
          "name": "characterId",
          "type": "uint256"
        },
        {
          "indexed": false,
          "internalType": "uint256",
          "name": "monsterId",
          "type": "uint256"
        }
      ],
      "name": "Death",
      "type": "event"
    },
    {
      "anonymous": false,
      "inputs": [
        {
          "indexed": true,
          "internalType": "uint256",
          "name": "characterId",
          "type": "uint256"
        },
        {
          "indexed": true,
          "internalType": "address",
          "name": "player",
          "type": "address"
        },
        {
          "indexed": false,
          "internalType": "string",
          "name": "name",
          "type": "string"
        }
      ],
      "name": "Enter",
      "type": "event"
    },
    {
      "anonymous": false,
      "inputs": [
        {
          "indexed": false,
          "internalType": "uint256",
          "name": "characterId",
          "type": "uint256"
        },
        {
          "indexed": false,
          "internalType": "uint256",
          "name": "gearId",
          "type": "uint256"
        },
        {
          "indexed": false,
          "internalType": "uint8",
          "name": "slotType",
          "type": "uint8"
        }
      ],
      "name": "Equip",
      "type": "event"
    },
    {
      "anonymous": false,
      "inputs": [
        {
          "indexed": true,
          "internalType": "uint256",
          "name": "characterId",
          "type": "uint256"
        },
        {
          "indexed": false,
          "internalType": "uint16",
          "name": "hp",
          "type": "uint16"
        }
      ],
      "name": "Heal",
      "type": "event"
    },
    {
      "anonymous": false,
      "inputs": [
        {
          "indexed": true,
          "internalType": "uint256",
          "name": "characterId",
          "type": "uint256"
        },
        {
          "indexed": false,
          "internalType": "uint16",
          "name": "newLevel",
          "type": "uint16"
        }
      ],
      "name": "LevelUp",
      "type": "event"
    },
    {
      "anonymous": false,
      "inputs": [
        {
          "indexed": true,
          "internalType": "uint256",
          "name": "characterId",
          "type": "uint256"
        },
        {
          "indexed": true,
          "internalType": "uint64",
          "name": "id",
          "type": "uint64"
        },
        {
          "indexed": true,
          "internalType": "uint8",
          "name": "status",
          "type": "uint8"
        },
        {
          "indexed": false,
          "internalType": "string",
          "name": "data",
          "type": "string"
        }
      ],
      "name": "QuestUpdate",
      "type": "event"
    },
    {
      "anonymous": false,
      "inputs": [
        {
          "indexed": true,
          "internalType": "uint256",
          "name": "areaLocation",
          "type": "uint256"
        },
        {
          "indexed": false,
          "internalType": "uint64",
          "name": "blockNumber",
          "type": "uint64"
        }
      ],
      "name": "RandomEvent",
      "type": "event"
    },
    {
      "anonymous": false,
      "inputs": [
        {
          "indexed": true,
          "internalType": "uint256",
          "name": "characterId",
          "type": "uint256"
        },
        {
          "indexed": false,
          "internalType": "uint256",
          "name": "gearId",
          "type": "uint256"
        }
      ],
      "name": "Recycle",
      "type": "event"
    },
    {
      "anonymous": false,
      "inputs": [
        {
          "indexed": true,
          "internalType": "uint256",
          "name": "deadCharacterId",
          "type": "uint256"
        },
        {
          "indexed": false,
          "internalType": "uint256",
          "name": "newCharacterId",
          "type": "uint256"
        }
      ],
      "name": "Resurrect",
      "type": "event"
    },
    {
      "anonymous": false,
      "inputs": [
        {
          "indexed": true,
          "internalType": "uint256",
          "name": "location",
          "type": "uint256"
        },
        {
          "indexed": false,
          "internalType": "bytes32",
          "name": "blockHash",
          "type": "bytes32"
        },
        {
          "indexed": false,
          "internalType": "uint8",
          "name": "exits",
          "type": "uint8"
        },
        {
          "indexed": false,
          "internalType": "uint8",
          "name": "kind",
          "type": "uint8"
        }
      ],
      "name": "RoomActualised",
      "type": "event"
    },
    {
      "anonymous": false,
      "inputs": [
        {
          "indexed": true,
          "internalType": "uint256",
          "name": "location",
          "type": "uint256"
        },
        {
          "indexed": false,
          "internalType": "uint64",
          "name": "blockNumber",
          "type": "uint64"
        },
        {
          "indexed": false,
          "internalType": "uint8",
          "name": "direction",
          "type": "uint8"
        }
      ],
      "name": "RoomDiscovered",
      "type": "event"
    },
    {
      "anonymous": false,
      "inputs": [
        {
          "indexed": true,
          "internalType": "uint256",
          "name": "location",
          "type": "uint256"
        },
        {
          "indexed": true,
          "internalType": "address",
          "name": "owner",
          "type": "address"
        },
        {
          "indexed": false,
          "internalType": "uint256",
          "name": "id",
          "type": "uint256"
        },
        {
          "indexed": false,
          "internalType": "uint256",
          "name": "amount",
          "type": "uint256"
        }
      ],
      "name": "RoomIncome",
      "type": "event"
    },
    {
      "anonymous": false,
      "inputs": [
        {
          "indexed": true,
          "internalType": "uint256",
          "name": "location",
          "type": "uint256"
        },
        {
          "indexed": false,
          "internalType": "string",
          "name": "name",
          "type": "string"
        },
        {
          "indexed": false,
          "internalType": "uint256",
          "name": "characterId",
          "type": "uint256"
        }
      ],
      "name": "RoomName",
      "type": "event"
    },
    {
      "anonymous": false,
      "inputs": [
        {
          "indexed": true,
          "internalType": "address",
          "name": "owner",
          "type": "address"
        },
        {
          "indexed": false,
          "internalType": "uint256",
          "name": "tax",
          "type": "uint256"
        },
        {
          "indexed": false,
          "internalType": "uint256",
          "name": "newDueDate",
          "type": "uint256"
        }
      ],
      "name": "RoomTaxPay",
      "type": "event"
    },
    {
      "inputs": [
        {
          "internalType": "uint256",
          "name": "id",
          "type": "uint256"
        },
        {
          "internalType": "address[]",
          "name": "players",
          "type": "address[]"
        },
        {
          "internalType": "uint256[]",
          "name": "amounts",
          "type": "uint256[]"
        }
      ],
      "name": "batchMineVaultElements",
      "outputs": [],
      "stateMutability": "nonpayable",
      "type": "function"
    },
    {
      "inputs": [
        {
          "internalType": "uint256",
          "name": "characterId",
          "type": "uint256"
        },
        {
          "internalType": "uint256",
          "name": "monsterId",
          "type": "uint256"
        }
      ],
      "name": "characterDefeated",
      "outputs": [],
      "stateMutability": "nonpayable",
      "type": "function"
    },
    {
      "inputs": [
        {
          "internalType": "uint256",
          "name": "characterId",
          "type": "uint256"
        },
        {
          "internalType": "uint256",
          "name": "monsterId",
          "type": "uint256"
        },
        {
          "internalType": "int16",
          "name": "hpChange",
          "type": "int16"
        }
      ],
      "name": "characterEscaped",
      "outputs": [],
      "stateMutability": "nonpayable",
      "type": "function"
    },
    {
      "inputs": [
        {
          "internalType": "uint256",
          "name": "location",
          "type": "uint256"
        },
        {
          "internalType": "uint256",
          "name": "characterId",
          "type": "uint256"
        },
        {
          "internalType": "uint16[8]",
          "name": "amounts",
          "type": "uint16[8]"
        }
      ],
      "name": "claimBounty",
      "outputs": [],
      "stateMutability": "nonpayable",
      "type": "function"
    },
    {
      "inputs": [
        {
          "internalType": "address",
          "name": "to",
          "type": "address"
        },
        {
          "internalType": "bytes",
          "name": "data",
          "type": "bytes"
        }
      ],
      "name": "forward",
      "outputs": [
        {
          "internalType": "bool",
          "name": "success",
          "type": "bool"
        }
      ],
      "stateMutability": "payable",
      "type": "function"
    },
    {
      "inputs": [
        {
          "internalType": "uint256",
          "name": "location",
          "type": "uint256"
        },
        {
          "internalType": "address",
          "name": "benefactor",
          "type": "address"
        },
        {
          "internalType": "uint16[8]",
          "name": "income",
          "type": "uint16[8]"
        }
      ],
      "name": "generateRoomIncome",
      "outputs": [],
      "stateMutability": "nonpayable",
      "type": "function"
    },
    {
      "inputs": [
        {
          "internalType": "uint256",
          "name": "location",
          "type": "uint256"
        }
      ],
      "name": "monsterDefeated",
      "outputs": [],
      "stateMutability": "nonpayable",
      "type": "function"
    },
    {
      "inputs": [
        {
          "internalType": "address",
          "name": "blockHashRegister",
          "type": "address"
        },
        {
          "internalType": "contract Player",
          "name": "playerContract",
          "type": "address"
        },
        {
          "internalType": "address payable",
          "name": "owner",
          "type": "address"
        },
        {
          "internalType": "address",
          "name": "adminContract",
          "type": "address"
        }
      ],
      "name": "postUpgrade",
      "outputs": [],
      "stateMutability": "nonpayable",
      "type": "function"
    },
    {
      "inputs": [
        {
          "internalType": "contract Characters",
          "name": "characters",
          "type": "address"
        },
        {
          "internalType": "contract Elements",
          "name": "elements",
          "type": "address"
        },
        {
          "internalType": "contract Gears",
          "name": "gears",
          "type": "address"
        },
        {
          "internalType": "contract Rooms",
          "name": "rooms",
          "type": "address"
        }
      ],
      "name": "start",
      "outputs": [],
      "stateMutability": "nonpayable",
      "type": "function"
    },
    {
      "inputs": [
        {
          "internalType": "uint256",
          "name": "characterId",
          "type": "uint256"
        },
        {
          "internalType": "uint256",
          "name": "location",
          "type": "uint256"
        }
      ],
      "name": "teleportCharacter",
      "outputs": [],
      "stateMutability": "nonpayable",
      "type": "function"
    },
    {
      "inputs": [
        {
          "internalType": "uint256",
          "name": "characterId",
          "type": "uint256"
        },
        {
          "internalType": "uint256",
          "name": "monsterId",
          "type": "uint256"
        },
        {
          "internalType": "int16",
          "name": "hpChange",
          "type": "int16"
        },
        {
          "internalType": "uint16",
          "name": "xpGained",
          "type": "uint16"
        },
        {
          "internalType": "uint256",
          "name": "gearData",
          "type": "uint256"
        },
        {
          "internalType": "int64",
          "name": "durabilityChange",
          "type": "int64"
        },
        {
          "internalType": "int16[8]",
          "name": "balanceChange",
          "type": "int16[8]"
        }
      ],
      "name": "updateCharacter",
      "outputs": [],
      "stateMutability": "nonpayable",
      "type": "function"
    },
    {
      "inputs": [
        {
          "internalType": "uint256",
          "name": "character",
          "type": "uint256"
        },
        {
          "internalType": "uint64",
          "name": "id",
          "type": "uint64"
        },
        {
          "internalType": "uint8",
          "name": "status",
          "type": "uint8"
        },
        {
          "internalType": "string",
          "name": "data",
          "type": "string"
        }
      ],
      "name": "updateQuest",
      "outputs": [],
      "stateMutability": "nonpayable",
      "type": "function"
    },
    {
      "inputs": [
        {
          "internalType": "uint256",
          "name": "characterId",
          "type": "uint256"
        },
        {
          "internalType": "uint256",
          "name": "location",
          "type": "uint256"
        },
        {
          "internalType": "uint256",
          "name": "data",
          "type": "uint256"
        },
        {
          "internalType": "uint256[8]",
          "name": "amountsPayed",
          "type": "uint256[8]"
        }
      ],
      "name": "updateRoomData",
      "outputs": [],
      "stateMutability": "nonpayable",
      "type": "function"
    }
  ],
  "transactionHash": "0x158ef9b266ef499626958f8801d049cd9cf6cf44d022ec43436e81deeae2a1c6",
  "args": [],
  "numDeployments": 1,
  "linkedData": {
    "readOnlyDungeon": "0x60808060405234610016576119f4908161001c8239f35b600080fdfe608060408181526004918236101561001657600080fd5b600090813560e01c9081630ececfea14610e3457508063213ee14314610a235780632f58779614610a0457806330ad9329146109ba5780633683dee114610893578063467b47931461075557806356b5c381146106f25780637a923474146106c95780639f7cb08e14610649578063a48378ff1461062a578063acda69ca14610556578063b0ca9dfe1461053a578063c3aab23c146103f9578063d5763a80146103ad578063d667fd0414610356578063ed53a62414610318578063f090aca8146102fc578063f6940ac714610152578063fcaf8951146101285763ff5335fa1461010057600080fd5b34610125576020366003190112610125575061011e6020923561197a565b9051908152f35b80fd5b50903461014e5760209060ff61014661014036610f23565b9161153a565b915191168152f35b5080fd5b50346101255760031960603682011261014e578335906044359067ffffffffffffffff918281168091036102f85761018984611015565b505060001960079290920b828112159392846102e9575b50836102dd575b50826102cc575b5081156102c0575b50156101d157505050506020915060ff6006915b5191168152f35b6009826101dd85611253565b16029182169182036102ad57819082610286575b50601911905061027657606460ff6127108551602081019085825260243588820152600360fa1b60608201526041815261022a81611051565b5190200616116102765761023f600591611015565b5091505060070b0760ff166001019260ff841161026357505060ff602092916101ca565b634e487b7160e01b825260119052602490fd5b50506020915060ff6006916101ca565b9050810190811161029a57601990386101f1565b634e487b7160e01b835260118552602483fd5b634e487b7160e01b845260118652602484fd5b600a91501015386101b6565b600191925060070b131590386101ae565b600112159250386101a7565b600783900b12159350386101a0565b8480fd5b50903461014e5760209061011e61031236610f47565b9061194a565b50346101255760a036600319011261012557606435908115158203610125575060209261011e91610347610f13565b916044359060243590356110c5565b5091346103a95760203660031901126103a95760a092503581519161ffff808360e81c168452808360a81c1660208501528260b81c169083015263ffffffff8160c81c16606083015260f81c6080820152f35b8280fd5b5091346103a95760603660031901126103a957358060070b81036103a957602435908160070b82036103f557604435938460070b850361012557509261011e91602094610f91565b8380fd5b50903461014e57602036600319011261014e5782359160ff83169283810361014e578251610160810181811067ffffffffffffffff821117610527578452828152600a60208201526031848201526077606082015260d0608082015261014860a082015261020c60c082015261033a60e08201526104f5610100820152610e46610120820152611aee610140820152600b8510156105145790611fe0929161ffff93849260051b1601511693600881116000146104cd5750505060609250600a906101ec5b81519384526020840152820152f35b826005816104e6816104e0600896611937565b16611482565b1604160190828211610501575060609450600a9291166104be565b634e487b7160e01b815260118652602490fd5b634e487b7160e01b835260328652602483fd5b634e487b7160e01b845260418752602484fd5b50903461014e5760209061011e61055036610f47565b9061140b565b50903461014e5760c036600319011261014e57610571610f5d565b60243560ff811681036103f557610586610efe565b906064359161ffff9384841684036106265760843594851685036106265760a4359663ffffffff88168098036101255750602096936105fb610621946105e961011e989561060e9561ffff60e81b9060e81b169060ff60f81b9060f81b16610f6e565b60e09190911b60ff60e01b1690610f6e565b60d09190911b61ffff60d01b1690610f6e565b60c09190911b61ffff60c01b1690610f6e565b610f6e565b8680fd5b5034610125576020366003190112610125575061011e60209235611457565b5034610125576020366003190112610125575063ffffffff61069560c09335908160f81c61ffff808460e81c169360ff8160e01c169363ffffffff838360d01c16938360c01c16921690565b949190929660ff8151988161ffff97888097168c521660208b015216908801521660608601521660808401521660a0820152f35b50903461014e57602036600319011261014e5760209061ffff6106ea610f5d565b169051908152f35b509190346103a957600a919261070736610f47565b939004600101806001116107425783810293818504149015171561072f576020838351908152f35b634e487b7160e01b815260118452602490fd5b634e487b7160e01b825260118552602482fd5b50903461014e57602036600319011261014e5782359167ffffffffffffffff908184116101255736602385011215610125578385013591821161012557602494600594368785881b830101116103a95794929190819582945b8486106107bf576020888851908152f35b9091929394966107fd8989841b85010135908160f81c61ffff808460e81c169360ff8160e01c169363ffffffff838360d01c16938360c01c16921690565b509360019350617fff925061081590841c8316611937565b9061ffff80808416961691161461085c575b50505061083391610f6e565b96600019811461084a5760010194939291906107ae565b634e487b7160e01b8552601184528885fd5b8293921c16820180921161088157610833929161087891610f6e565b90913880610827565b634e487b7160e01b8752601186528a87fd5b5034610125576108a236610f23565b9091925060196108b18461136a565b0480156109b2575b6108f76108ee8287516020810190888252878a820152601960fa1b6060820152604181526108e681611051565b5190206110a5565b8260011c610f6e565b9182156109a9575b60ff169384600214610991575b61094e929360088311610988575b6109459183918851906020820192835289820152606560f81b6060820152604181526108e681611051565b9060011c610f6e565b91821561097f575b60011461096a575b82519182526020820152f35b90806109799160021c90610f6e565b9061095e565b60019250610956565b6008925061091a565b6109a28361094e9460021c90610f6e565b925061090c565b600192506108ff565b5060016108b9565b5034610125576020366003190112610125575067ffffffffffffffff6109e260809335611015565b92949182519560070b865260070b602086015260070b90840152166060820152f35b5034610125576020366003190112610125575061011e602092356111cb565b50903461014e5760c036600319011261014e57823592602492833593610a47610efe565b916064359360ff9485811681036103a957610a60610f13565b9060a435958787168097036102f857610a7a908a8c61153a565b9884610a90610a888d6111cb565b94939c611015565b50509060070b159081610e28575b5015610acc57505050505050505060609381600160029217915b818551961686521660208501521690820152f35b9a939699909294979598915b8681169b8b8d11610e12575082516020810187815260f89290921b6001600160f81b031916818501526041808201869052600360f81b606183015260428252608082019067ffffffffffffffff821183831017610e02575084525190206001908c90868316831415906014900689168180610df0575b15610b7f5750505080600295179b5b878114610b6d5701939a93610ad8565b634e487b7160e01b8a52601189528a8afd5b600292888416841415928380610dc4575b15610ba35750505050600395179b610b5d565b8c808b969394959616141580928193610d51575b5015610bcc575050505050878095179b610b5d565b60089485808c1614159485610bfc575b5050505050600014610bf257600595179b610b5d565b50939a8490610b5d565b600391929394955014938415610d46575b8415610d2d575b8415610d14575b8415610cfb575b8415610cd5575b8415610caf575b8415610c89575b8415610c4c575b505050508d38808080610bdc565b604d149350909183610c81575b5082610c79575b5081610c71575b5038808f80610c3e565b905038610c67565b915038610c60565b925038610c59565b9350604e841480610ca8575b80610ca1575b93610c37565b5080610c9b565b5082610c95565b9350604e841480610cce575b80610cc7575b93610c30565b5082610cc1565b5081610cbb565b9350604e841480610cf4575b80610ced575b93610c29565b5080610ce7565b5081610ce1565b9350604f841480610d0d575b93610c22565b5082610d07565b9350604f841480610d26575b93610c1b565b5080610d20565b9350604f841480610d3f575b93610c14565b5081610d39565b605081149450610c0d565b905084148015610dba575b8015610da8575b8015610d96575b8015610d77575b38610bb7565b50604e831480610d8f575b8015610d71575084610d71565b5080610d82565b50604f83148015610d6a575084610d6a565b50604f83148015610d63575080610d63565b5060508314610d5c565b508583148015610de6575b80610b905750604f82148015610b90575080610b90565b5060508214610dcf565b50801580610b4e575060508314610b4e565b634e487b7160e01b8c528a528b8bfd5b9550509850965050925060609650819350610ab8565b905060070b1538610a9e565b918491503461012557836003193601126101255750610ed5610eea610ef093610eda610ed5610ee4610eda963593610eca60ff60098c82826024359660208101908c82528885820152603360f91b606082015260418152610e9481611051565b51902006169481519060208201928b8452820152606760f81b606082015260418152610ebf81611051565b519020061695611015565b5099919890986119a9565b6112cb565b9060070b906111a3565b946119a9565b90610f91565b815190815260026020820152f35b6044359060ff82168203610f0e57565b600080fd5b6084359060ff82168203610f0e57565b6060906003190112610f0e57600435906024359060443560ff81168103610f0e5790565b6040906003190112610f0e576004359060243590565b6004359061ffff82168203610f0e57565b91908201809211610f7b57565b634e487b7160e01b600052601160045260246000fd5b909167ffffffffffffffff9067ffffffffffffffff60801b608082901b16908216808204600160801b1490151715610f7b57600160ff1b908101908110610f7b576fffffffffffffffff00000000000000008285169460401b1693808504600160401b1490151715610f7b576110129361100a91610f6e565b911690610f6e565b90565b67ffffffffffffffff9081811660070b92828260401c1660070b928260801c1660070b9160ff1c90565b60ff60019116019060ff8211610f7b57565b6080810190811067ffffffffffffffff82111761106d57604052565b634e487b7160e01b600052604160045260246000fd5b90601f8019910116810190811067ffffffffffffffff82111761106d57604052565b81156110af570690565b634e487b7160e01b600052601260045260246000fd5b9192909360ff600191160361115c57600f90611154575b60ff60646040516020810190858252876040820152600360f91b60608201526041815261110881611051565b5190200691161161111b57505050600090565b6111469260405190602082019283526040820152600760f81b6060820152604181526108e681611051565b60018101809111610f7b5790565b5060196110dc565b50505050600090565b60070b677fffffffffffffff198114610f7b5760000390565b60070b60040190677fffffffffffffff8213677fffffffffffffff19831217610f7b57565b9060070b9060070b0190677fffffffffffffff198212677fffffffffffffff831317610f7b57565b6111d761101291611015565b509160079190600081840b12611234576111f260099161117e565b830b05915b600082820b126112155761120c60099261117e565b900b0590610f91565b60099061122c611227610eea94611165565b61117e565b900b05611165565b600961124561122761124d93611165565b840b05611165565b916111f7565b61125c90611015565b50819050826000600782900b126112b9575b5060008160070b126112a9575b508060070b8260070b1360001461129a575067ffffffffffffffff1690565b905067ffffffffffffffff1690565b6112b39150611165565b3861127b565b6112c4919350611165565b913861126e565b60070b6003190190677fffffffffffffff198212677fffffffffffffff831317610f7b57565b60070b90677fffffffffffffff198212677fffffffffffffff831317610f7b57565b600791820b910b0390677fffffffffffffff198212677fffffffffffffff831317610f7b57565b600160ff1b8114610f7b5760000390565b90600160401b60008382039312818412811691841390151617610f7b57565b61137661137f91611015565b505091906112f1565b60070b90600082126113f6575b611395906112f1565b60070b600081126113e8575b6780000000000000008083136113d8575b81136113ca575b808213156113c5575090565b905090565b6113d39061134b565b6113b9565b916113e29061134b565b916113b2565b6113f19061133a565b6113a1565b906114036113959161133a565b91905061138c565b9061142d61141b61142593611015565b5050939092611015565b505092611313565b60070b9060008212611444575b6113959192611313565b6114506113959261133a565b915061143a565b600160ff1b81036114685750600090565b61147360199161136a565b0460010180600111610f7b5790565b801561151157808060011461150a57600214611504576001908161013382101682600b831016176114f357906003815b8082116114ca5750508161ffff048111610f7b570290565b90928061ffff048111610f7b578184166114ea575b800292811c906114b2565b809202916114df565b600391500a9061ffff8211610f7b57565b50600890565b5050600190565b50600090565b80156115345760ff8111610f7b576001901b9060ff8211610f7b57565b50600190565b909160ff916004916000908416838103611738575050600f935b8360646040516020810190858252846040820152606f60f81b60608201526041815261157f81611051565b5190200616600090603c811060001461171c5750508360005b168381106115ab57505050505060f01790565b8491906003810361163c5750604080516020810194855290810191909152600760fc1b60608201526007926115fe91600391906115f581606181015b03601f198101835282611083565b5190201661103f565b160291821691820361162757506015810361161a575060d01790565b601c036110125760b01790565b601190634e487b7160e01b6000525260246000fd5b909150600281036116b257506116898460066003946115e761167f8496604051928391602083019586909160419282526020820152600760fc1b60408201520190565b519020061661103f565b16029182169182036116275750600f81036116a5575060501790565b6012036110125760a01790565b6001919293959450146116c7575b5050905090565b604080516020810193845290810191909152600760fc1b6060820152611700916003916116f781606181016115e7565b51902016611517565b821b91610ff060f08416931683036116275750178038806116c0565b605a91501060001461173057836001611598565b836002611598565b6040959195856064825160208101908782528685820152600160f81b60608201526041815261176681611051565b5190200616605711611926575b856064825160208101908782528685820152600160f91b60608201526041815261179c81611051565b51902006166028116117b0575b5050611554565b85818487939995995183606460208301836117e1868d84909160419282526020820152600360f81b60408201520190565b03936117f5601f1995868101835282611083565b5190200616601911156118565750505050508015801561184c575b156118225750600a17935b38806117a9565b80600196929614908115611841575b501561181b57936005179361181b565b905060031438611831565b5080600214611810565b9151602081018881526040820192909252600360f81b6060820152606192830181526064926118859082611083565b5190200616603211156118da5750806118a257506008179361181b565b600181036118b55750600117935b61181b565b600281036118c757506002179361181b565b6003959195036118b0579382179361181b565b9190806118ed575060029150179361181b565b600181036118fd5750179361181b565b9091506002810361191257506008179361181b565b6003959195036118b057936001179361181b565b955061193181611517565b95611773565b9061ffff809216600101918211610f7b57565b906119549161140b565b6001600160ff1b0381168103610f7b5760059060011b0480156000146110125750600190565b6119839061136a565b6001600160ff1b0381168103610f7b5760069060011b0480156000146110125750600190565b60099060070b02908160070b918203610f7b5756fea26469706673582212203c4c43883a7319f368409400962e63e23b1d5d86c7925e44e3f62a0da6e003f964736f6c63430008140033"
  },
  "solcInputHash": "c3f7781b474a2ffb8b521db8cd0755da",
  "bytecode": "0x60808060405234610016576149c2908161001c8239f35b600080fdfe6080604052600436101561001257600080fd5b60003560e01c80630604ba13146100e757806322988b1d146100e2578063398f2168146100dd5780636fadcf72146100d85780637507a1c9146100d35780639434e4e8146100ce578063ab536060146100c9578063b2f2dff9146100c4578063cf747b49146100bf578063d8468f8f146100ba578063e6d48fe7146100b5578063e7691518146100b05763f3f543ba146100ab57600080fd5b611633565b61151e565b6113d5565b61127c565b610ff4565b610dbf565b610cdd565b610c6a565b610aae565b610a12565b610850565b6106ff565b610124565b8060010b036100f757565b600080fd5b61ffff8116036100f757565b90606491610164116100f757565b90604491610144116100f757565b346100f7576101c03660031901126100f75760048035604435610146816100ec565b60643591610153836100fc565b6084359360a4359260079084820b958686036100f757366101c4116100f75761018660018060a01b0385541633146117c4565b6005546101a3906001600160a01b03165b6001600160a01b031690565b95863b156100f7576040988951809863216d6a4f60e11b8252818860009b8c80945af180156102bf576106db575b50866101e7816000526000602052604060002090565b916101f28354611db5565b806105f0575b5050875b60ff811660088110156103735761021561021a9161190c565b611934565b90898260010b8181136000146102c85750508654610240906001600160a01b0316610197565b61024982611953565b92813b156102c4578d516302acc94b60e01b8152808b018c815260ff909516602086015261ffff919091166040850152928b91849182908490829060600103925af19182156102bf576102a1926102a6575b506118e0565b6101fc565b806102b36102b992610980565b806117ad565b3861029b565b6117b8565b8b80fd5b126102d8575b6102a191506118e0565b86546102ec906001600160a01b0316610197565b9161030c6103056103056102ff85611953565b93611976565b61ffff1690565b92803b156102c4578d5163c9b902e360e01b8152808b018c815260ff909316602084015260408301949094528b9184919082908490829060600103925af19182156102bf576102a192610360575b506102ce565b806102b361036d92610980565b3861035a565b5050926103c791945087999892959661038b816123fa565b9160010b8061057a575b506103c28a83016103b861ffff809a166103b3835163ffffffff1690565b611989565b63ffffffff169052565b6122f5565b6103cf578480f35b6002810180546103de8161283b565b608081015161ffff16918683166104d8575b50505050600301918254906104048261283b565b92610414608085015161ffff1690565b918216610422575b50508480f35b836103059361045261044a61045794606061045f990196610445885161ffff1690565b614950565b61ffff168552565b612789565b5161ffff1690565b1561046e575b8080808061041c565b600854610483906001600160a01b0316610197565b905491813b156104d4579351630301ea6560e51b8152938401918252839182908490829060200103925af180156102bf576104c1575b818180610465565b806102b36104ce92610980565b386104b9565b8380fd5b91610457826104fc9461045261044a8a6060610305980196610445885161ffff1690565b1561050a575b8080806103f0565b60085461051f906001600160a01b0316610197565b9054813b15610576578751630301ea6560e51b81528681019182529691879182908490829060200103925af19081156102bf578795600392610563575b5090610502565b806102b361057092610980565b3861055c565b8680fd5b6105af61ffff916104576105a76080870192610598845161ffff1690565b606089015161ffff1690614950565b61ffff168252565b16156105bc575b38610395565b8951602435815281907fd02b8bdc1eb9eb4a85fe2b27c68fbe1eec04f697f660cc4cf3bb2cee4456f49090602090a26105b6565b600854610605906001600160a01b0316610197565b8c519163c9a59e4760e01b8352898380610629602097889483019190602083019252565b0381855afa9182156102bf578b8f8c8f91610653600a8a986106799a86916106be575b501061188d565b5196879586948593630d9778e560e11b8552840160209093929193604081019481520152565b03925af180156102bf57610690575b8891506101f8565b816106af92903d106106b7575b6106a781836109b3565b81019061187e565b503880610688565b503d61069d565b6106d591508a3d8c116106b7576106a781836109b3565b3861064c565b806102b36106e892610980565b386101d1565b6001600160a01b038116036100f757565b346100f7576000608036600319011261081d576004359061071f826106ee565b60243561072b816106ee565b6107366044356106ee565b60643590610743826106ee565b7fc8fcad8db84d3cc18b4c41d551ea0ee66dd599cde068d998e57d5e09332c131c546001600160a01b0391829161077d908316331461174c565b16806001600160601b0360a01b600a541617600a55803b156104d457838091600460405180948193630354740160e31b83525af180156102bf57610804575b506107e49061080193941660018060a01b03166001600160601b0360a01b6005541617600555565b60018060a01b03166001600160601b0360a01b6004541617600455565b80f35b90610801936108156107e493610980565b9350906107bc565b80fd5b9181601f840112156100f7578235916001600160401b0383116100f7576020808501948460051b0101116100f757565b346100f75760603660031901126100f75760048035906001600160401b03906024358281116100f7576108869036908301610820565b9390926044359081116100f7576108a09036908401610820565b93909460018060a01b03906108b98286541633146117c4565b60005b8181106108c557005b60075483166001600160a01b0316906108e76108e2828588611d0c565b611d1c565b916108f3828a8c611d0c565b3592813b156100f7576040805163a41dab8160e01b81526001600160a01b03909216828b01908152602081018a90529081019490945292600091849182908490829060600103925af19182156102bf5761095292610957575b50611a24565b6108bc565b806102b361096492610980565b3861094c565b634e487b7160e01b600052604160045260246000fd5b6001600160401b03811161099357604052565b61096a565b608081019081106001600160401b0382111761099357604052565b90601f801991011681019081106001600160401b0382111761099357604052565b6040519060a082018281106001600160401b0382111761099357604052565b6040519060c082018281106001600160401b0382111761099357604052565b60403660031901126100f757600435610a2a816106ee565b6024356001600160401b03918282116100f757366023830112156100f75781600401359283116109935760405190610a6c601f8501601f1916602001836109b3565b83825236602485850101116100f7576000602085610aaa966024610a9897018387013784010152611807565b60405190151581529081906020820190565b0390f35b346100f75760203660031901126100f757600435610ad760018060a01b036004541633146117c4565b600554610aec906001600160a01b0316610197565b90813b156100f757604051809263216d6a4f60e11b82528160046000958680945af180156102bf57610c57575b50610b2381611db5565b6002610b39826000526001602052604060002090565b805460401c6001600160401b0316610c40575b01610b6d610b6182546001600160401b031690565b6001600160401b031690565b610c2b575b50600954610b88906001600160a01b0316610197565b604051630178fe3f60e01b81526004810183905291602083602481855afa80156102bf5784938491610c0d575b50610bbe575050f35b813b15610c0957604051634848b1a560e01b815260048101919091526000602482015291908290604490829084905af180156102bf57610bfc575080f35b806102b361080192610980565b5050fd5b610c25915060203d81116106b7576106a781836109b3565b38610bb5565b805467ffffffffffffffff1916905538610b72565b805467ffffffffffffffff60401b19168155610b4c565b806102b3610c6492610980565b38610b19565b346100f75760803660031901126100f7576024356001600160401b0380821682036100f7576044359160ff831683036100f757606435928284116100f757366023850112156100f75783600401359283116100f75736602484860101116100f7576024610cdb940191600435611ad9565b005b346100f75760403660031901126100f757600435610d1a60018060a01b03610d0a816004541633146117c4565b600554166001600160a01b031690565b803b156100f7576000809160046040518094819363216d6a4f60e11b83525af180156102bf57610dac575b50610d63610d5d826000526000602052604060002090565b54611db5565b610d7c610d6f826123fa565b60006080820152826122f5565b60405160243581527fd02b8bdc1eb9eb4a85fe2b27c68fbe1eec04f697f660cc4cf3bb2cee4456f49090602090a2005b806102b3610db992610980565b38610d45565b346100f7576101603660031901126100f757602435610ddd36610108565b600480546001600160a01b039290610df890841633146117c4565b610e09610e04856132ed565b6119ab565b600954610e1e906001600160a01b0316610197565b92604093845180916369f648a160e01b825260209182918180610e488c8b83019190602083019252565b03915afa9182156102bf57600092610fd5575b50600654610e71906001600160a01b0316610197565b8187518092630607176160e31b82528180610e948b358c83019190602083019252565b03915afa9081156102bf57610eb492600092610fb8575b505082146119ec565b60005b60088110610f26575050600954610ed992506001600160a01b03169050610197565b803b156100f7579151634848b1a560e01b8152908101928352604435602084015291600091839182908490829060400103925af180156102bf57610f1957005b806102b3610cdb92610980565b600754610f3b906001600160a01b0316610197565b90610f4581611a33565b610f4f8287611923565b35833b156100f7578851637f4c824d60e11b81526001600160a01b0386881616818a019081526000602082018190526040820194909452606081019290925293849182908490829060800103925af19182156102bf57610fb3926109575750611a24565b610eb7565b610fce9250803d106106b7576106a781836109b3565b3880610eab565b81610fed9293503d84116106b7576106a781836109b3565b9038610e5b565b346100f75760603660031901126100f757600435604435611014816100ec565b61102960018060a01b036004541633146117c4565b60055461103e906001600160a01b0316610197565b90813b156100f75760405192839263216d6a4f60e11b84528360046000968780945af19283156102bf5761080193611269575b50611086816000526000602052604060002090565b9061113382549361109685611db5565b866110a0846123fa565b916110d460808401916110ca6110bb610305855161ffff1690565b6001600160401b031660070b90565b9060010b90611a83565b606084015161ffff16838260070b61ffff9283811660070b821361125d575b501361124a575050604051602435815285907fd02b8bdc1eb9eb4a85fe2b27c68fbe1eec04f697f660cc4cf3bb2cee4456f49090602090a2525b826122f5565b600182019161115f61115761115161114c865460ff1690565b611941565b60031690565b8095846129a8565b80928254907f3042d0c278ec3b2d8bf290d27da7bb56226996146c187fc01f6f448b6283da72604051806111a48a82919091602060ff60408301946000845216910152565b0390a46111b082611db5565b61120c6111c882546000526001602052604060002090565b80546111e49060801c6001600160401b0316611aab565b611aab565b815467ffffffffffffffff60801b191660809190911b67ffffffffffffffff60801b16179055565b61123a611223836000526001602052604060002090565b80546111e49060801c6001600160401b0316611ac1565b559060ff1660ff19825416179055565b61125893501661ffff169052565b61112d565b61ffff168552386110f3565b806102b361127692610980565b38611071565b346100f7576101403660031901126100f7576004602435813561129e826106ee565b6112a736610116565b9060018060a01b03926112be8486541633146117c4565b60005b60ff8116906008821015610cdb576112f66103056112f16112ea6112e485611953565b60ff1690565b9488611923565b6119a1565b918261130d575b5061130891506118e0565b6112c1565b600754611322906001600160a01b0316610197565b803b156100f7576040805163a41dab8160e01b81526001600160a01b038716818c019081526020810185905280830187905291929091600091839182908490829060600103925af180156102bf576113089588937f41d17e4a29add7df9dab104b7b914e73209c448b1fd78b8ca04efc5e24df1abb936113b9936113c2575b50519485526020850152868a16939081906040820190565b0390a3386112fd565b806102b36113cf92610980565b386113a1565b346100f75760403660031901126100f75760043560243561140160018060a01b036004541633146117c4565b600554611416906001600160a01b0316610197565b91823b156100f7576000809360046040518096819363216d6a4f60e11b83525af19283156102bf57610cdb9361150b575b5061145c816000526000602052604060002090565b82815461146881611db5565b837f3042d0c278ec3b2d8bf290d27da7bb56226996146c187fc01f6f448b6283da72604051806114a48190600460206040840193600181520152565b0390a460016114b284613b12565b509391505001906114c7825460081c60070b90565b8160070b9060070b126114dc575b5050612dc6565b611504919081549060081b68ffffffffffffffff00169068ffffffffffffffff001916179055565b38806114d5565b806102b361151892610980565b38611447565b346100f7576101403660031901126100f75760243561153c36610116565b90600461155360018060a01b0382541633146117c4565b61155d8135613bc9565b9160005b60ff8116906008821015610cdb5761157f6103056112f18489611923565b611593575b61158e91506118e0565b611561565b6007546115a8906001600160a01b0316610197565b6115be6112f16115b784611953565b9489611923565b813b156100f757604080516311aa10fb60e01b81528088018981526020810188905260ff9096169186019190915261ffff909116606085015292600091849182908490829060800103925af19182156102bf5761158e92611620575b50611584565b806102b361162d92610980565b3861161a565b346100f75760803660031901126100f7576116fc600435611653816106ee565b60243590611660826106ee565b6044359161166d836106ee565b6064359261167a846106ee565b7fc8fcad8db84d3cc18b4c41d551ea0ee66dd599cde068d998e57d5e09332c131c546001600160a01b039283916116b4908316331461174c565b816001600160601b0360a01b9516856006541617600655168360075416176007551690600854161760085560018060a01b03166001600160601b0360a01b6009541617600955565b600160ff1b600052600160205261174460ff61173d7fe209ec102481142efb7be62c549d278b9d65c9410e465059ec2d8758d3fc5cf55b5460d01c60ff1690565b1615611d26565b610cdb6133e1565b1561175357565b60405162461bcd60e51b815260206004820152602c60248201527f4f6e6c79206f776e657220697320616c6c6f77656420746f20706572666f726d60448201526b103a3434b99030b1ba34b7b760a11b6064820152608490fd5b60009103126100f757565b6040513d6000823e3d90fd5b156117cb57565b60405162461bcd60e51b81526020600482015260146024820152732727aa2fa0aaaa2427a924ad22a22fa0a226a4a760611b6044820152606490fd5b600091829161182160018060a01b036004541633146117c4565b6020825192019034905af180156118355790565b60405162461bcd60e51b815260206004820152601160248201527019985a5b1959081d1bc8199bdc9dd85c99607a1b6044820152606490fd5b6000526002602052604060002090565b908160209103126100f7575190565b1561189457565b60405162461bcd60e51b815260206004820152600e60248201526d546f6f206d616e7920676561727360901b6044820152606490fd5b634e487b7160e01b600052601160045260246000fd5b60ff1660ff81146118f15760010190565b6118ca565b634e487b7160e01b600052603260045260246000fd5b600881101561191e5760051b60c40190565b6118f6565b90600881101561191e5760051b0190565b3561193e816100ec565b90565b60ff60029116019060ff82116118f157565b60ff60019116019060ff82116118f157565b60ff166001019060ff82116118f157565b60010b617fff1981146118f15760000390565b91909163ffffffff808094169116019182116118f157565b3561193e816100fc565b156119b257565b60405162461bcd60e51b8152602060048201526012602482015271726f6f6d206973206e6f742061637469766560701b6044820152606490fd5b156119f357565b60405162461bcd60e51b81526020600482015260096024820152683737ba1037bbb732b960b91b6044820152606490fd5b60001981146118f15760010190565b90600182018092116118f157565b906206978082018092116118f157565b919082018092116118f157565b60070b60040190677fffffffffffffff8213677fffffffffffffff198312176118f157565b9060070b9060070b0190677fffffffffffffff198212677fffffffffffffff8313176118f157565b6001600160401b031680156118f1576000190190565b6001600160401b038091169081146118f15760010190565b91909293611af260018060a01b036004541633146117c4565b600093838552602094600c865260408120956001600160401b038093169687835281526040822091611b2e86849060ff1660ff19825416179055565b600180930193851161099357611b4e85611b488654611c56565b86611c90565b8091601f8611600114611bbf5750928480611baf9460ff97947f3553d84d9f5bc81eeb57eac4d5a1fee928d026da4f389c33c1cebfaf3931fda0999793611bb4575b501b906000198460031b1c19161790555b604051938493169783611ce4565b0390a4565b8c0135925038611b90565b601f92919219861690611bd786600052602060002090565b93905b8b838310611c40575050509285927f3553d84d9f5bc81eeb57eac4d5a1fee928d026da4f389c33c1cebfaf3931fda097959260ff97611baf9610611c26575b505082811b019055611ba1565b8b0135600019600386901b60f8161c191690553880611c19565b8401358555938501939283019290810190611bda565b90600182811c92168015611c86575b6020831014611c7057565b634e487b7160e01b600052602260045260246000fd5b91607f1691611c65565b90601f8111611c9e57505050565b600091825260208220906020601f850160051c83019410611cda575b601f0160051c01915b828110611ccf57505050565b818155600101611cc3565b9092508290611cba565b90918060409360208452816020850152848401376000828201840152601f01601f1916010190565b919081101561191e5760051b0190565b3561193e816106ee565b15611d2d57565b60405162461bcd60e51b815260206004820152601760248201527f64756e67656f6e20616c726561647920737461727465640000000000000000006044820152606490fd5b15611d7957565b60405162461bcd60e51b81526020600482015260146024820152731c9bdbdb481b9bdd0818dc99585d1959081e595d60621b6044820152606490fd5b611dc9816000526001602052604060002090565b9081546001600160401b03811692611de2841515611d72565b60ff809260d01c1615611e07575b5050611e059150611e0090614803565b612521565b565b600554611e4e94602091611e23906001600160a01b0316610197565b6040518080988194634a83e9cd60e11b8352600483019190916001600160401b036020820193169052565b03915afa9384156102bf576000946120c0575b5083156120ba57611e7284846120f8565b6001611f6a611f6386867f8850140926f0260fe1b422b7a0d93e7d5734e521eae9ac8969ed512cc3834515611f50611ec688548a8160e81c16908b8160e01c16908c808260d81c169160c01c168888613e7a565b8a5460ff60d01b60d084901b1661ffff60c81b1990911660ff60c81b60c886901b1617178b5595919290611ef986614803565b96611f0e886000526002602052604060002090565b908d611f1f835460ff9060081c1690565b82821691160361209f575b50506040519384938491604091949360ff80926060860197865216602085015216910152565b0390a26000526002602052604060002090565b5460ff1690565b91019384549081611f7d575b5050611df0565b611f9d600591611f96611f8f856123fa565b5160ff1690565b9087613c6e565b9190948416111561202a575b5050600754611fc191506001600160a01b0316610197565b925490833b156100f7576040516302acc94b60e01b81526004810192909252600660248301526044820152916000908390606490829084905af19081156102bf57611e0592611e0092612017575b819281611f76565b806102b361202492610980565b3861200f565b60075461203f906001600160a01b0316610197565b803b156100f7576040516302acc94b60e01b8152600481019390935260ff9390931660248301526044820152906000908290606490829084905af180156102bf5761208c575b8080611fa9565b806102b361209992610980565b38612085565b815461ff00191660089190911b61ff00161790553880611f2a565b50505050565b6120d991945060203d81116106b7576106a781836109b3565b9238611e61565b9060016001600160401b03809316019182116118f157565b61210190614803565b60ff612117826000526002602052604060002090565b541615612122575050565b600660ff6121686121776001600160401b03948560035460401c1696612147826147ac565b80156122ea575b156122195750849283916000526002602052604060002090565b9060ff1660ff19825416179055565b1603612181575050565b8062014370420416809161219d6003546001600160401b031690565b16146121e3576121c491506001600160401b03166001600160401b03196003541617600355565b611e05600160401b67ffffffffffffffff60401b196003541617600355565b506121f0611e05916120e0565b67ffffffffffffffff60401b6003549160401b169067ffffffffffffffff60401b191617600355565b601961222f610b6161222a85614736565b6145e1565b806122dc575b106122d257846122886112e460649360405161227d8161226f60208201948a86909160419282526020820152600360fa1b60408201520190565b03601f1981018352826109b3565b519020612710900690565b16116122be576122ab600561229c83613b12565b5091505060070b078516611965565b9283916000526002602052604060002090565b849283916000526002602052604060002090565b508492839161186e565b6122e590613bba565b612235565b50600a88101561214e565b9061239790612340612391610305608061238761236c61234661232561231f6112e48a5160ff1690565b60f81b90565b61234061233a61030560208c015161ffff1690565b60e81b90565b90611a51565b61234061236661235d60408b015163ffffffff1690565b63ffffffff1690565b60c81b90565b61234061238161030560608a015161ffff1690565b60b81b90565b94015161ffff1690565b60a81b90565b6006549091906123af906001600160a01b0316610197565b91823b156100f757604051634848b1a560e01b815260048101929092526024820152906000908290604490829084905af180156102bf576123ed5750565b806102b3611e0592610980565b60405160a081018181106001600160401b038211176109935761246f9260809260209260405260009381858093528285820152826040820152826060820152015261244f61019760065460018060a01b031690565b6040518080968194630178fe3f60e01b8352600483019190602083019252565b03915afa80156102bf576124f86124bb6124e0926124ed9561193e9591612503575b50908160f81c9161ffff808260e81c169363ffffffff8360c81c1691808460b81c169360a81c1693565b9792959091936124d56124cc6109d4565b60ff909a168a52565b61ffff166020890152565b63ffffffff166040870152565b61ffff166060850152565b61ffff166080830152565b61251b915060203d81116106b7576106a781836109b3565b38612491565b6002612537826000526002602052604060002090565b0180546001600160401b0390811692836125515750505050565b60055461256d94602091611e23906001600160a01b0316610197565b03915afa9384156102bf5760009461265f575b5083156120ba576125f99361259491613dd4565b906125b26125a18261267f565b916000526001602052604060002090565b6002808201946125c986546001600160401b031690565b161415918261263e575b82612635575b5081612624575b50612602575b5050805467ffffffffffffffff19169055565b388080806120ba565b815467ffffffffffffffff19166001600160401b0390911617905538806125e6565b5460d01c60ff1615159050386125e0565b159150386125d9565b9150612658610b6182546001600160401b039060801c1690565b15916125d3565b61267891945060203d81116106b7576106a781836109b3565b9238612580565b6126a6612696826000526001602052604060002090565b5460401c6001600160401b031690565b906001600160401b038216918215612763576005546126ff916020916126d4906001600160a01b0316610197565b6040518080958194634a83e9cd60e11b8352600483019190916001600160401b036020820193169052565b03915afa9081156102bf5760009161276b575b5080156127635761193e92612744610b61612737856000526001602052604060002090565b546001600160401b031690565b149061275d611733846000526001602052604060002090565b92613be8565b505050600090565b612783915060203d81116106b7576106a781836109b3565b38612712565b906127e19061279a815161ffff1690565b906127a9602082015160ff1690565b604082015160ff16606083015161ffff16916127db60a06127cf608087015161ffff1690565b95015163ffffffff1690565b946148df565b6008549091906123af906001600160a01b0316610197565b6040519060c082018281106001600160401b03821117610993576040528160a06000918281528260208201528260408201528260608201528260808201520152565b602061287f916128496127f9565b5060085461285f906001600160a01b0316610197565b6040518080958194630178fe3f60e01b8352600483019190602083019252565b03915afa9081156102bf5761291161291c6128fc6128d46129069561193e95600091612929575b50908160f81c61ffff808460e81c169360ff8160e01c169363ffffffff838360d01c16938360c01c16921690565b9794999291936128f26128e89792976109f3565b61ffff909c168c52565b60ff1660208b0152565b60ff166040890152565b61ffff166060870152565b61ffff166080850152565b63ffffffff1660a0830152565b612941915060203d81116106b7576106a781836109b3565b386128a6565b60070b677fffffffffffffff1981146118f1576000190190565b60070b677fffffffffffffff81146118f15760010190565b80156129965760ff81116118f1576001901b9060ff82116118f157565b50600190565b60ff61193e9116612979565b90916129b383613b12565b5060ff848116969390929190828189612ba35750506129d46129db93612947565b905b613b3b565b946129f0836000526001602052604060002090565b90612a05876000526001602052604060002090565b82546001600160401b0380821693612a35612a30611151612a2a875495861694612979565b9b611941565b61299c565b948181108015612b9b575b15612ad157505050505050612a5a905460ff9060c81c1690565b81841680928583161614612aaa57505050505050505b60405162461bcd60e51b815260206004820152601260248201527163616e74206d6f766520746869732077617960701b6044820152606490fd5b8593600f9160041c161614612ac0575b50505090565b612ac992612c5e565b388181612aba565b90919395509791939711600014612b08575050905460c81c60ff16905081841680928583161614612aaa5750505050505050612a70565b8481979594939716918285838a60c81c161614908115612b88575b50612b375750505050505050505050612a70565b889687871115612b715750505082612b61612b5884935460ff9060c81c1690565b60041c600f1690565b169216911614612ac05750505090565b60cc1c16600f16149250612ac09150505750505090565b60c81c8616851686861614905038612b23565b508115612a40565b60018a03612bba575050916129d66129db93612961565b909360028a03612bd25750506129d46129db93612961565b9150925087600314600014612bed576129d66129db93612947565b60405162461bcd60e51b815260206004820152601460248201527334b6b837b9b9b4b13632903234b932b1ba34b7b760611b6044820152606490fd5b15612c3057565b60405162461bcd60e51b81526020600482015260066024820152656e6f206b657960d01b6044820152606490fd5b909182818111612d9d575b50612c9f612c9b611f6383612c8c87612c8c88600052600b602052604060002090565b90600052602052604060002090565b1590565b612ca857505050565b600754612cbd906001600160a01b0316610197565b604051635986e3e560e11b81526004810184905260076024820152602081604481855afa80156102bf57612cfb91600091612d7f575b501515612c29565b803b156100f75760405163c9b902e360e01b8152600481018490526007602482015260016044820152906000908290606490829084905af19384156102bf57612c8c612d5f94612c8c93611e0597612d6c575b50600052600b602052604060002090565b805460ff19166001179055565b806102b3612d7992610980565b38612d4e565b612d97915060203d81116106b7576106a781836109b3565b38612cf3565b92509138612c69565b8115612db0570690565b634e487b7160e01b600052601260045260246000fd5b612dda816000526000602052604060002090565b612def81546000526001602052604060002090565b92612e04816000526001602052604060002090565b80546001600160401b039590600090878116612fee5750612e258685613772565b612e2e84614803565b966002612e45896000526002602052604060002090565b0190612e5b610b6183546001600160401b031690565b1580612fe3575b612eab575b505050611e05955091612e96612ea69492611223856111e46111df600198546001600160401b039060801c1690565b815501805460ff19166004179055565b6132a1565b80831615612f36575b509261122360019593611e05997f644c4d4ff52c1efcb89d373879c1d7e01d3f8b7e60cc19f9bdf5da38cd90c14d612f2786612f0d612e9698612ea69d9b906001600160401b03166001600160401b0319825416179055565b6040516001600160401b0390911681529081906020820190565b0390a293955081949650612e67565b90949295939150431690612f5461019760055460018060a01b031690565b803b156100f7576000809160046040518094819363338cdca160e01b83525af19687156102bf57611e05997f644c4d4ff52c1efcb89d373879c1d7e01d3f8b7e60cc19f9bdf5da38cd90c14d612f2786612f0d612e969860019c61122398612ea69f612fd0575b50989b9d505050965050509950939550612eb4565b806102b3612fdd92610980565b38612fbb565b506003430615612e62565b604090888082841c16159182613293575b505080613274575b8061320b575b61316e575b61301b85611db5565b6130248561336e565b6001600160a01b03811691821515806130f6575b613045575b505050612e25565b60075461305a906001600160a01b0316610197565b803b156100f757815163a41dab8160e01b81526001600160a01b0393909316600484015260086024840152600160448401526000908390606490829084905af19081156102bf5787927f41d17e4a29add7df9dab104b7b914e73209c448b1fd78b8ca04efc5e24df1abb926130e3575b50516008815260016020820152604090a338808061303d565b806102b36130f092610980565b386130ca565b50600654613134906020908b90613115906001600160a01b0316610197565b84518080958194630607176160e31b8352600483019190602083019252565b03915afa9081156102bf57600091613150575b50831415613038565b613168915060203d81116106b7576106a781836109b3565b38613147565b6005544389169250613188906001600160a01b0316610197565b803b156100f75760008091600484518094819363338cdca160e01b83525af180156102bf576131f8575b5083546131ca9060401c6001600160401b0316610b61565b61301257835467ffffffffffffffff60401b1916604083901b67ffffffffffffffff60401b16178455613012565b806102b361320592610980565b386131b2565b50600954613221906001600160a01b0316610197565b8151630178fe3f60e01b81526004810187905290602090829060249082905afa9081156102bf578391613256575b501561300d565b61326e915060203d81116106b7576106a781836109b3565b3861324f565b5060028861328b828701546001600160401b031690565b161415613007565b60801c161590508838612fff565b6132aa816123fa565b608081019161ffff92838151168460608501511681106132cc575b5050505050565b600101938085116118f1576132e3941690526122f5565b38808080806132c5565b6009546040516331a9108f60e11b815260048101929092526001600160a01b03906020908390602490829085165afa9182156102bf57600092613332575b5016301490565b90916020823d8211613366575b8161334c602093836109b3565b8101031261081d57505161335f816106ee565b903861332b565b3d915061333f565b613377816132ed565b156133db576009546040516369f648a160e01b815260048101929092526001600160a01b0391906020908290602490829086165afa9081156102bf576000916133bf57501690565b6133d7915060203d81116106b7576106a781836109b3565b1690565b50600090565b600160ff1b60005260026020527f273ff7d24090d0ae93766d322996b27de23d70a15bfcdb2567df35a7695e10fd80547f273ff7d24090d0ae93766d322996b27de23d70a15bfcdb2567df35a7695e10fc9080613748575b5060075461344f906001600160a01b0316610197565b90813b156100f75760405163c9b902e360e01b815260006004820181905260086024830152604482018190529283908290606490829084905af180156102bf57613735575b50600160ff1b60005260016020527fe209ec102481142efb7be62c549d278b9d65c9410e465059ec2d8758d3fc5cf5805443604081901b67ffffffffffffffff60401b166001600160401b039190911678ff0000000000000000ffffffffffffffffffffffffffffffff19909216821717600160c21b17808355835460ff60d81b1990911660d09190911b60ff60d81b16178255916135a19061358790805461357d9060181c60ff16613563613549826118e0565b845463ff000000191660189190911b63ff00000016178455565b855460ff60e81b191660e89190911b60ff60e81b16178555565b5460101c60ff1690565b825460ff60e01b191660e09190911b60ff60e01b16178255565b60018101839055600160ff1b938490556005546135c6906001600160a01b0316610197565b803b156104d45783809160046040518094819363338cdca160e01b83525af180156102bf57613722575b50600654613606906001600160a01b0316610197565b604051630607176160e31b81526000600482015290602090829060249082905afa9081156102bf578491613704575b5061363f81613a33565b600954613654906001600160a01b0316610197565b90813b15613700576040516319846a3560e21b8152600160ff1b6004820152602481019190915293908490818381604481015b03925af19081156102bf577fa97399cd19a5b00b49b7d10d188180e100139a0501c9c9b4fe21dab5b915162f936136c8926136ed575b505460c01c60ff1690565b604080516001600160401b03909316835260ff9091166020830152819081015b0390a2565b806102b36136fa92610980565b386136bd565b8480fd5b61371c915060203d81116106b7576106a781836109b3565b38613635565b806102b361372f92610980565b386135f0565b806102b361374292610980565b38613494565b61375190611db5565b805462ff0000600882901c1662ff0000199091161781556000825538613439565b9061377f61186e83614803565b60018101805480613a09575b506007546137a1906001600160a01b0316610197565b926137ab85613da9565b843b156100f75760405163c9b902e360e01b81526004810183905260086024820152604481019190915260009485908290606490829084905af180156102bf576139f6575b5084613806816000526001602052604060002090565b926138da6138c06001600160401b034316966138388888906001600160401b03166001600160401b0319825416179055565b8654600160c21b78ff0000000000000000ffffffffffffffff00000000000000001990911667ffffffffffffffff60401b60408b901b161717808855815460ff60d81b60d09190911b1660ff60d81b19909116178755805461357d9060181c60ff166138a6613549826118e0565b885460ff60e81b191660e89190911b60ff60e81b16178855565b855460ff60e01b191660e09190911b60ff60e01b16178555565b60018401839055556005546138f7906001600160a01b0316610197565b803b15613700579084809260046040518095819363338cdca160e01b83525af19081156102bf57613960926020926139e3575b50600654613940906001600160a01b0316610197565b6040518080958194630607176160e31b8352600483019190602083019252565b03915afa9081156102bf5784916139c5575b5061397c81613a33565b600954613991906001600160a01b0316610197565b90813b15613700576040516319846a3560e21b81526004810187905260248101919091529390849081838160448101613687565b6139dd915060203d81116106b7576106a781836109b3565b38613972565b806102b36139f092610980565b3861392a565b806102b3613a0392610980565b386137f0565b613a1290611db5565b815462ff0000600882901c1662ff000019909116178255600081553861378b565b80151580613aa7575b613a435750565b7fc24affdb20f6529973515c5398461c1f6228edbfac531ab49e56a11433a86c9f6136e8613a7042611a41565b6001600160a01b039093166000818152600d6020526040902090939081905560405191829182919060206040840193600081520152565b50600954613abd906001600160a01b0316610197565b60405163c9a59e4760e01b81526004810183905290602090829060249082905afa9081156102bf57600091613af4575b5015613a3c565b613b0c915060203d81116106b7576106a781836109b3565b38613aed565b6001600160401b039081811660070b92828260401c1660070b928260801c1660070b9160ff1c90565b67ffffffffffffffff60801b608084901b16926001600160401b03908116808504600160801b14901517156118f157600160ff1b92848401948585116118f15767ffffffffffffffff60401b8383169260401b1691808304600160401b14901517156118f15701918383018095116118f1571601018091116118f15790565b6003198101919082116118f157565b600160ff1b8101908082116118f157600360fe1b019081106118f15790565b91909260ff600191160361276357600f90613c66575b60ff60646040516020810190858252866040820152600360f91b606082015260418152613c2a81610998565b51902006911611613c3c575050600090565b613c61916040519160208301526040820152600760f81b606082015260418152610998565b600190565b506019613bfe565b92919091613c85613c7e85614655565b6019900490565b8015613da1575b60405194613ce1613cd8836020890189613cbc8a8784909160419282526020820152601960fa1b60408201520190565b0399613cd0601f199b8c81018352826109b3565b519020612da6565b8360011c611a51565b938415613d98575b60ff169586600214613d7e575b613d4993949560088411613d75575b604080516020810194855290810191909152606560f81b6060820152613d40928492909190613cd09082606181015b039081018352826109b3565b9060011c611a51565b928315613d6c575b600114613d5a57565b9180613d699160021c90611a51565b91565b60019350613d51565b60089350613d05565b613d9085613d49959660021c90611a51565b949350613cf6565b60019450613ce9565b506001613c8c565b600160ff1b8103613dba5750600090565b613dc5601991614655565b04600101806001116118f15790565b613e5f6129d4613e6492613e64613e5f613e6e613e7497613e5460ff6009818160405160208101908b8252876040820152603360f91b606082015260418152613e1c81610998565b51902006169360405160208101918a83526040820152606760f81b606082015260418152613e4981610998565b519020061695613b12565b50999198909861488b565b6145fc565b9060070b90611a83565b9461488b565b90600290565b95949290613f12949260ff6000911680600414600014614079575050600f5b8760405160ff613ee86112e46020840184613eca898884909160419282526020820152606f60f81b60408201520190565b0394613ede601f19968781018352826109b3565b5190206064900690565b60009116603c81101561405b57505060ff60005b1660048110613f165750505060f0175b96614250565b9091565b60038103613f905750613f69613f646112e460ff94613f6e94613f5b6040519182613d348c602083019687909160419282526020820152600760fc1b60408201520190565b51902060031690565b611953565b6148b5565b1660158103613f81575060d0175b613f0c565b601c03613f7c5760b017613f0c565b600281036140055750613fdf613f646112e460ff94613fe494613fd56040519182613d348c602083019687909160419282526020820152600760fc1b60408201520190565b5190206006900690565b6148a0565b16600f8103613ff65750605017613f0c565b601203613f7c5760a017613f0c565b600114614014575b5050613f0c565b6040805160208101938452908101859052600760fc1b60608201526140539261404e92612a30926112e49291613f5b908260618101613d34565b6148ca565b17873861400d565b605a9150106000146140705760ff6001613efc565b60ff6002613efc565b60408051602081018b8152918101859052600160f81b6060820152906140a9906112e49081908460618101613eca565b60571161423f575b60408051602081018c8152918101869052600160f91b6060820152606183810182526140e7926112e4928392613ede90826109b3565b6028116140f6575b5050613e99565b60408051602081018c8152918101869052600360f81b6060820152606183810182528c92614130926112e49283929190613ede90826109b3565b6019111561418357505080158015614179575b156141545750600a175b38806140ef565b8060011490811561416e575b501561414d5760051761414d565b905060031438614160565b5080600214614143565b6040805160208101928352908101869052600360f81b60608201526141b8926112e49283929091613ede908260618101613d34565b6032111561420057806141ce575060081761414d565b600181036141e057506001175b61414d565b600281036141f1575060021761414d565b6003036141db5760041761414d565b8061420e575060021761414d565b6001810361421f575060041761414d565b60028103614230575060081761414d565b6003036141db5760011761414d565b915061424a81612979565b916140b1565b949390600061426961426188614803565b959497613b12565b50509060070b1590816145d5575b501561428b57505050505060016002921790565b959493955b60ff908185169082851682116145cc57509086916142f06112e48a6040516142e68161226f8a8d6020840196879160429391835260ff60f81b9060f81b1660208301526021820152600360f81b60418201520190565b5190206014900690565b91600192838086161415928380946145b8575b15614322575050505061431b915060029617936118e0565b9294614290565b6002949293868616861415808061458a575b1561434e5750505050505061431b915060039617936118e0565b6004969293949587808a16141580948195614515575b501561437f575050505050505061431b9150809617936118e0565b9091929394959650600880809916141595866143be575b5050505050506000146143b2575061431b9060059617936118e0565b61431b915095936118e0565b6003929394959650161493841561450a575b84156144f1575b84156144d8575b84156144bf575b8415614499575b8415614473575b841561444d575b8415614410575b50505050388080808080614396565b604d149350909183614445575b508261443d575b5081614435575b5038808080614401565b90503861442b565b915038614424565b92503861441d565b9350604e84148061446c575b80614465575b936143fa565b508061445f565b5082614459565b9350604e841480614492575b8061448b575b936143f3565b5082614485565b508161447f565b9350604e8414806144b8575b806144b1575b936143ec565b50806144ab565b50816144a5565b9350604f8414806144d1575b936143e5565b50826144cb565b9350604f8414806144ea575b936143de565b50806144e4565b9350604f841480614503575b936143d7565b50816144fd565b6050811494506143d0565b9050818716148015614580575b801561456e575b801561455c575b801561453d575b38614364565b50604e851480614555575b8015614537575081614537565b5082614548565b50604f85148015614530575081614530565b50604f85148015614529575082614529565b5060508514614522565b50848685161480156145ae575b806143345750604f83148015614334575081614334565b5060508314614597565b508282161580614303575060508114614303565b97505050505050565b905060070b1538614277565b9060096001600160401b03809316029182169182036118f157565b60070b6003190190677fffffffffffffff198212677fffffffffffffff8313176118f157565b60070b90677fffffffffffffff198212677fffffffffffffff8313176118f157565b600160ff1b81146118f15760000390565b61466161466a91613b12565b50509190614622565b60070b9060008212614708575b61468090614622565b60070b600081126146fa575b6780000000000000008083136146d7575b81136146b5575b808213156146b0575090565b905090565b600160401b60008282039212818312811691831390151617156146a4576118ca565b91600160401b600082820392128183128116918313901516176118f1579161469d565b61470390614644565b61468c565b9061471561468091614644565b919050614677565b60070b677fffffffffffffff1981146118f15760000390565b61473f90613b12565b50819050826000600782900b1261479a575b5060008160070b1261478a575b508060070b8260070b1360001461477c57506001600160401b031690565b90506001600160401b031690565b614794915061471d565b3861475e565b6147a591935061471d565b9138614751565b6147b590613b12565b505060001960079290920b8281121592836147f4575b50826147e8575b50816147dc575090565b6001915060070b131590565b600112159150386147d2565b600783900b12159250386147cb565b61480f61193e91613b12565b509160079190600081840b1261486c5761482a600991611a5e565b830b05915b600082820b1261484d57614844600992611a5e565b900b0590613b3b565b60099061486461485f6129d49461471d565b611a5e565b900b0561471d565b600961487d61485f6148859361471d565b840b0561471d565b9161482f565b60099060070b02908160070b9182036118f157565b60ff60039116029060ff82169182036118f157565b60ff60079116029060ff82169182036118f157565b60041b90610ff060f08316921682036118f157565b60e81b61ffff60e81b1660f89290921b6001600160f81b0319169182019493929185106118f15760e01b60ff60e01b1684019384106118f15760d01b61ffff60d01b1683019283106118f15760c01b61ffff60c01b1682019182106118f15763ffffffff1681018091116118f15790565b90916149649061ffff80931660070b611a83565b918260070b9082811660070b821361498557506000126133d7575050600090565b925050509056fea26469706673582212201d482d90cfa13a8a50a8ba3e3491fad45a7bb3f1688805ce60486aa90c6f127d64736f6c63430008140033",
  "devdoc": {
    "kind": "dev",
    "methods": {},
    "version": 1
  },
  "userdoc": {
    "kind": "user",
    "methods": {},
    "version": 1
  },
  "storageLayout": {
    "storage": [
      {
        "astId": 2986,
        "contract": "src/dungeon/DungeonAdminFacet.sol:DungeonAdminFacet",
        "label": "_characters",
        "offset": 0,
        "slot": "0",
        "type": "t_mapping(t_uint256,t_struct(Character)2968_storage)"
      },
      {
        "astId": 2991,
        "contract": "src/dungeon/DungeonAdminFacet.sol:DungeonAdminFacet",
        "label": "_rooms",
        "offset": 0,
        "slot": "1",
        "type": "t_mapping(t_uint256,t_struct(Room)2951_storage)"
      },
      {
        "astId": 2996,
        "contract": "src/dungeon/DungeonAdminFacet.sol:DungeonAdminFacet",
        "label": "_areas",
        "offset": 0,
        "slot": "2",
        "type": "t_mapping(t_uint256,t_struct(Area)2981_storage)"
      },
      {
        "astId": 3004,
        "contract": "src/dungeon/DungeonAdminFacet.sol:DungeonAdminFacet",
        "label": "_areaCounter",
        "offset": 0,
        "slot": "3",
        "type": "t_struct(AreaCounter)3001_storage"
      },
      {
        "astId": 3006,
        "contract": "src/dungeon/DungeonAdminFacet.sol:DungeonAdminFacet",
        "label": "_adminContract",
        "offset": 0,
        "slot": "4",
        "type": "t_address"
      },
      {
        "astId": 3009,
        "contract": "src/dungeon/DungeonAdminFacet.sol:DungeonAdminFacet",
        "label": "_blockHashRegister",
        "offset": 0,
        "slot": "5",
        "type": "t_contract(BlockHashRegister)12959"
      },
      {
        "astId": 3012,
        "contract": "src/dungeon/DungeonAdminFacet.sol:DungeonAdminFacet",
        "label": "_charactersContract",
        "offset": 0,
        "slot": "6",
        "type": "t_contract(Characters)464"
      },
      {
        "astId": 3015,
        "contract": "src/dungeon/DungeonAdminFacet.sol:DungeonAdminFacet",
        "label": "_elementsContract",
        "offset": 0,
        "slot": "7",
        "type": "t_contract(Elements)12693"
      },
      {
        "astId": 3018,
        "contract": "src/dungeon/DungeonAdminFacet.sol:DungeonAdminFacet",
        "label": "_gearsContract",
        "offset": 0,
        "slot": "8",
        "type": "t_contract(Gears)12712"
      },
      {
        "astId": 3021,
        "contract": "src/dungeon/DungeonAdminFacet.sol:DungeonAdminFacet",
        "label": "_roomsContract",
        "offset": 0,
        "slot": "9",
        "type": "t_contract(Rooms)12779"
      },
      {
        "astId": 3024,
        "contract": "src/dungeon/DungeonAdminFacet.sol:DungeonAdminFacet",
        "label": "_playerContract",
        "offset": 0,
        "slot": "10",
        "type": "t_contract(Player)10551"
      },
      {
        "astId": 3032,
        "contract": "src/dungeon/DungeonAdminFacet.sol:DungeonAdminFacet",
        "label": "_unlockedExits",
        "offset": 0,
        "slot": "11",
        "type": "t_mapping(t_uint256,t_mapping(t_uint256,t_mapping(t_uint256,t_bool)))"
      },
      {
        "astId": 3044,
        "contract": "src/dungeon/DungeonAdminFacet.sol:DungeonAdminFacet",
        "label": "_quests",
        "offset": 0,
        "slot": "12",
        "type": "t_mapping(t_uint256,t_mapping(t_uint64,t_struct(Quest)3037_storage))"
      },
      {
        "astId": 3048,
        "contract": "src/dungeon/DungeonAdminFacet.sol:DungeonAdminFacet",
        "label": "_taxDueDate",
        "offset": 0,
        "slot": "13",
        "type": "t_mapping(t_address,t_uint256)"
      },
      {
        "astId": 3052,
        "contract": "src/dungeon/DungeonAdminFacet.sol:DungeonAdminFacet",
        "label": "_customRoomNames",
        "offset": 0,
        "slot": "14",
        "type": "t_mapping(t_uint256,t_string_storage)"
      }
    ],
    "types": {
      "t_address": {
        "encoding": "inplace",
        "label": "address",
        "numberOfBytes": "20"
      },
      "t_bool": {
        "encoding": "inplace",
        "label": "bool",
        "numberOfBytes": "1"
      },
      "t_contract(BlockHashRegister)12959": {
        "encoding": "inplace",
        "label": "contract BlockHashRegister",
        "numberOfBytes": "20"
      },
      "t_contract(Characters)464": {
        "encoding": "inplace",
        "label": "contract Characters",
        "numberOfBytes": "20"
      },
      "t_contract(Elements)12693": {
        "encoding": "inplace",
        "label": "contract Elements",
        "numberOfBytes": "20"
      },
      "t_contract(Gears)12712": {
        "encoding": "inplace",
        "label": "contract Gears",
        "numberOfBytes": "20"
      },
      "t_contract(Player)10551": {
        "encoding": "inplace",
        "label": "contract Player",
        "numberOfBytes": "20"
      },
      "t_contract(Rooms)12779": {
        "encoding": "inplace",
        "label": "contract Rooms",
        "numberOfBytes": "20"
      },
      "t_int64": {
        "encoding": "inplace",
        "label": "int64",
        "numberOfBytes": "8"
      },
      "t_mapping(t_address,t_uint256)": {
        "encoding": "mapping",
        "key": "t_address",
        "label": "mapping(address => uint256)",
        "numberOfBytes": "32",
        "value": "t_uint256"
      },
      "t_mapping(t_uint256,t_bool)": {
        "encoding": "mapping",
        "key": "t_uint256",
        "label": "mapping(uint256 => bool)",
        "numberOfBytes": "32",
        "value": "t_bool"
      },
      "t_mapping(t_uint256,t_mapping(t_uint256,t_bool))": {
        "encoding": "mapping",
        "key": "t_uint256",
        "label": "mapping(uint256 => mapping(uint256 => bool))",
        "numberOfBytes": "32",
        "value": "t_mapping(t_uint256,t_bool)"
      },
      "t_mapping(t_uint256,t_mapping(t_uint256,t_mapping(t_uint256,t_bool)))": {
        "encoding": "mapping",
        "key": "t_uint256",
        "label": "mapping(uint256 => mapping(uint256 => mapping(uint256 => bool)))",
        "numberOfBytes": "32",
        "value": "t_mapping(t_uint256,t_mapping(t_uint256,t_bool))"
      },
      "t_mapping(t_uint256,t_mapping(t_uint64,t_struct(Quest)3037_storage))": {
        "encoding": "mapping",
        "key": "t_uint256",
        "label": "mapping(uint256 => mapping(uint64 => struct DungeonDataLayout.Quest))",
        "numberOfBytes": "32",
        "value": "t_mapping(t_uint64,t_struct(Quest)3037_storage)"
      },
      "t_mapping(t_uint256,t_string_storage)": {
        "encoding": "mapping",
        "key": "t_uint256",
        "label": "mapping(uint256 => string)",
        "numberOfBytes": "32",
        "value": "t_string_storage"
      },
      "t_mapping(t_uint256,t_struct(Area)2981_storage)": {
        "encoding": "mapping",
        "key": "t_uint256",
        "label": "mapping(uint256 => struct DungeonDataLayout.Area)",
        "numberOfBytes": "32",
        "value": "t_struct(Area)2981_storage"
      },
      "t_mapping(t_uint256,t_struct(Character)2968_storage)": {
        "encoding": "mapping",
        "key": "t_uint256",
        "label": "mapping(uint256 => struct DungeonDataLayout.Character)",
        "numberOfBytes": "32",
        "value": "t_struct(Character)2968_storage"
      },
      "t_mapping(t_uint256,t_struct(Room)2951_storage)": {
        "encoding": "mapping",
        "key": "t_uint256",
        "label": "mapping(uint256 => struct DungeonDataLayout.Room)",
        "numberOfBytes": "32",
        "value": "t_struct(Room)2951_storage"
      },
      "t_mapping(t_uint64,t_struct(Quest)3037_storage)": {
        "encoding": "mapping",
        "key": "t_uint64",
        "label": "mapping(uint64 => struct DungeonDataLayout.Quest)",
        "numberOfBytes": "32",
        "value": "t_struct(Quest)3037_storage"
      },
      "t_string_storage": {
        "encoding": "bytes",
        "label": "string",
        "numberOfBytes": "32"
      },
      "t_struct(Area)2981_storage": {
        "encoding": "inplace",
        "label": "struct DungeonDataLayout.Area",
        "members": [
          {
            "astId": 2970,
            "contract": "src/dungeon/DungeonAdminFacet.sol:DungeonAdminFacet",
            "label": "areaType",
            "offset": 0,
            "slot": "0",
            "type": "t_uint8"
          },
          {
            "astId": 2972,
            "contract": "src/dungeon/DungeonAdminFacet.sol:DungeonAdminFacet",
            "label": "discovered",
            "offset": 1,
            "slot": "0",
            "type": "t_uint8"
          },
          {
            "astId": 2974,
            "contract": "src/dungeon/DungeonAdminFacet.sol:DungeonAdminFacet",
            "label": "lastRoomIndex",
            "offset": 2,
            "slot": "0",
            "type": "t_uint8"
          },
          {
            "astId": 2976,
            "contract": "src/dungeon/DungeonAdminFacet.sol:DungeonAdminFacet",
            "label": "currentIndex",
            "offset": 3,
            "slot": "0",
            "type": "t_uint8"
          },
          {
            "astId": 2978,
            "contract": "src/dungeon/DungeonAdminFacet.sol:DungeonAdminFacet",
            "label": "lastRoom",
            "offset": 0,
            "slot": "1",
            "type": "t_uint256"
          },
          {
            "astId": 2980,
            "contract": "src/dungeon/DungeonAdminFacet.sol:DungeonAdminFacet",
            "label": "eventBlockNumber",
            "offset": 0,
            "slot": "2",
            "type": "t_uint64"
          }
        ],
        "numberOfBytes": "96"
      },
      "t_struct(AreaCounter)3001_storage": {
        "encoding": "inplace",
        "label": "struct DungeonDataLayout.AreaCounter",
        "members": [
          {
            "astId": 2998,
            "contract": "src/dungeon/DungeonAdminFacet.sol:DungeonAdminFacet",
            "label": "lastPeriod",
            "offset": 0,
            "slot": "0",
            "type": "t_uint64"
          },
          {
            "astId": 3000,
            "contract": "src/dungeon/DungeonAdminFacet.sol:DungeonAdminFacet",
            "label": "numAreas",
            "offset": 8,
            "slot": "0",
            "type": "t_uint64"
          }
        ],
        "numberOfBytes": "32"
      },
      "t_struct(Character)2968_storage": {
        "encoding": "inplace",
        "label": "struct DungeonDataLayout.Character",
        "members": [
          {
            "astId": 2953,
            "contract": "src/dungeon/DungeonAdminFacet.sol:DungeonAdminFacet",
            "label": "location",
            "offset": 0,
            "slot": "0",
            "type": "t_uint256"
          },
          {
            "astId": 2955,
            "contract": "src/dungeon/DungeonAdminFacet.sol:DungeonAdminFacet",
            "label": "direction",
            "offset": 0,
            "slot": "1",
            "type": "t_uint8"
          },
          {
            "astId": 2957,
            "contract": "src/dungeon/DungeonAdminFacet.sol:DungeonAdminFacet",
            "label": "floors",
            "offset": 1,
            "slot": "1",
            "type": "t_int64"
          },
          {
            "astId": 2959,
            "contract": "src/dungeon/DungeonAdminFacet.sol:DungeonAdminFacet",
            "label": "slot_1",
            "offset": 0,
            "slot": "2",
            "type": "t_uint256"
          },
          {
            "astId": 2961,
            "contract": "src/dungeon/DungeonAdminFacet.sol:DungeonAdminFacet",
            "label": "slot_2",
            "offset": 0,
            "slot": "3",
            "type": "t_uint256"
          },
          {
            "astId": 2963,
            "contract": "src/dungeon/DungeonAdminFacet.sol:DungeonAdminFacet",
            "label": "slot_3",
            "offset": 0,
            "slot": "4",
            "type": "t_uint256"
          },
          {
            "astId": 2965,
            "contract": "src/dungeon/DungeonAdminFacet.sol:DungeonAdminFacet",
            "label": "slot_4",
            "offset": 0,
            "slot": "5",
            "type": "t_uint256"
          },
          {
            "astId": 2967,
            "contract": "src/dungeon/DungeonAdminFacet.sol:DungeonAdminFacet",
            "label": "slot_5",
            "offset": 0,
            "slot": "6",
            "type": "t_uint256"
          }
        ],
        "numberOfBytes": "224"
      },
      "t_struct(Quest)3037_storage": {
        "encoding": "inplace",
        "label": "struct DungeonDataLayout.Quest",
        "members": [
          {
            "astId": 3034,
            "contract": "src/dungeon/DungeonAdminFacet.sol:DungeonAdminFacet",
            "label": "status",
            "offset": 0,
            "slot": "0",
            "type": "t_uint8"
          },
          {
            "astId": 3036,
            "contract": "src/dungeon/DungeonAdminFacet.sol:DungeonAdminFacet",
            "label": "data",
            "offset": 0,
            "slot": "1",
            "type": "t_string_storage"
          }
        ],
        "numberOfBytes": "64"
      },
      "t_struct(Room)2951_storage": {
        "encoding": "inplace",
        "label": "struct DungeonDataLayout.Room",
        "members": [
          {
            "astId": 2930,
            "contract": "src/dungeon/DungeonAdminFacet.sol:DungeonAdminFacet",
            "label": "blockNumber",
            "offset": 0,
            "slot": "0",
            "type": "t_uint64"
          },
          {
            "astId": 2932,
            "contract": "src/dungeon/DungeonAdminFacet.sol:DungeonAdminFacet",
            "label": "monsterBlockNumber",
            "offset": 8,
            "slot": "0",
            "type": "t_uint64"
          },
          {
            "astId": 2934,
            "contract": "src/dungeon/DungeonAdminFacet.sol:DungeonAdminFacet",
            "label": "numActiveCharacters",
            "offset": 16,
            "slot": "0",
            "type": "t_uint64"
          },
          {
            "astId": 2936,
            "contract": "src/dungeon/DungeonAdminFacet.sol:DungeonAdminFacet",
            "label": "direction",
            "offset": 24,
            "slot": "0",
            "type": "t_uint8"
          },
          {
            "astId": 2938,
            "contract": "src/dungeon/DungeonAdminFacet.sol:DungeonAdminFacet",
            "label": "exits",
            "offset": 25,
            "slot": "0",
            "type": "t_uint8"
          },
          {
            "astId": 2940,
            "contract": "src/dungeon/DungeonAdminFacet.sol:DungeonAdminFacet",
            "label": "kind",
            "offset": 26,
            "slot": "0",
            "type": "t_uint8"
          },
          {
            "astId": 2942,
            "contract": "src/dungeon/DungeonAdminFacet.sol:DungeonAdminFacet",
            "label": "areaAtDiscovery",
            "offset": 27,
            "slot": "0",
            "type": "t_uint8"
          },
          {
            "astId": 2944,
            "contract": "src/dungeon/DungeonAdminFacet.sol:DungeonAdminFacet",
            "label": "lastRoomIndex",
            "offset": 28,
            "slot": "0",
            "type": "t_uint8"
          },
          {
            "astId": 2946,
            "contract": "src/dungeon/DungeonAdminFacet.sol:DungeonAdminFacet",
            "label": "index",
            "offset": 29,
            "slot": "0",
            "type": "t_uint8"
          },
          {
            "astId": 2948,
            "contract": "src/dungeon/DungeonAdminFacet.sol:DungeonAdminFacet",
            "label": "discoverer",
            "offset": 0,
            "slot": "1",
            "type": "t_uint256"
          },
          {
            "astId": 2950,
            "contract": "src/dungeon/DungeonAdminFacet.sol:DungeonAdminFacet",
            "label": "randomEvent",
            "offset": 0,
            "slot": "2",
            "type": "t_uint64"
          }
        ],
        "numberOfBytes": "96"
      },
      "t_uint256": {
        "encoding": "inplace",
        "label": "uint256",
        "numberOfBytes": "32"
      },
      "t_uint64": {
        "encoding": "inplace",
        "label": "uint64",
        "numberOfBytes": "8"
      },
      "t_uint8": {
        "encoding": "inplace",
        "label": "uint8",
        "numberOfBytes": "1"
      }
    }
  }
}