{
  "address": "0xC5B119e0B107c7Ac914138c5d7b4976DD2efee8C",
  "abi": [
    {
      "anonymous": false,
      "inputs": [
        {
          "indexed": true,
          "internalType": "uint256",
          "name": "characterId",
          "type": "uint256"
        },
        {
          "indexed": true,
          "internalType": "uint256",
          "name": "oldLocation",
          "type": "uint256"
        },
        {
          "indexed": true,
          "internalType": "uint256",
          "name": "newLocation",
          "type": "uint256"
        },
        {
          "indexed": false,
          "internalType": "uint8",
          "name": "mode",
          "type": "uint8"
        },
        {
          "indexed": false,
          "internalType": "uint256",
          "name": "path",
          "type": "uint256"
        }
      ],
      "name": "CharacterMoved",
      "type": "event"
    },
    {
      "anonymous": false,
      "inputs": [
        {
          "indexed": true,
          "internalType": "uint256",
          "name": "characterId",
          "type": "uint256"
        },
        {
          "indexed": false,
          "internalType": "uint256",
          "name": "monsterId",
          "type": "uint256"
        }
      ],
      "name": "Death",
      "type": "event"
    },
    {
      "anonymous": false,
      "inputs": [
        {
          "indexed": true,
          "internalType": "uint256",
          "name": "characterId",
          "type": "uint256"
        },
        {
          "indexed": true,
          "internalType": "address",
          "name": "player",
          "type": "address"
        },
        {
          "indexed": false,
          "internalType": "string",
          "name": "name",
          "type": "string"
        }
      ],
      "name": "Enter",
      "type": "event"
    },
    {
      "anonymous": false,
      "inputs": [
        {
          "indexed": false,
          "internalType": "uint256",
          "name": "characterId",
          "type": "uint256"
        },
        {
          "indexed": false,
          "internalType": "uint256",
          "name": "gearId",
          "type": "uint256"
        },
        {
          "indexed": false,
          "internalType": "uint8",
          "name": "slotType",
          "type": "uint8"
        }
      ],
      "name": "Equip",
      "type": "event"
    },
    {
      "anonymous": false,
      "inputs": [
        {
          "indexed": true,
          "internalType": "uint256",
          "name": "characterId",
          "type": "uint256"
        },
        {
          "indexed": false,
          "internalType": "uint16",
          "name": "hp",
          "type": "uint16"
        }
      ],
      "name": "Heal",
      "type": "event"
    },
    {
      "anonymous": false,
      "inputs": [
        {
          "indexed": true,
          "internalType": "uint256",
          "name": "characterId",
          "type": "uint256"
        },
        {
          "indexed": false,
          "internalType": "uint16",
          "name": "newLevel",
          "type": "uint16"
        }
      ],
      "name": "LevelUp",
      "type": "event"
    },
    {
      "anonymous": false,
      "inputs": [
        {
          "indexed": true,
          "internalType": "uint256",
          "name": "characterId",
          "type": "uint256"
        },
        {
          "indexed": true,
          "internalType": "uint64",
          "name": "id",
          "type": "uint64"
        },
        {
          "indexed": true,
          "internalType": "uint8",
          "name": "status",
          "type": "uint8"
        },
        {
          "indexed": false,
          "internalType": "string",
          "name": "data",
          "type": "string"
        }
      ],
      "name": "QuestUpdate",
      "type": "event"
    },
    {
      "anonymous": false,
      "inputs": [
        {
          "indexed": true,
          "internalType": "uint256",
          "name": "areaLocation",
          "type": "uint256"
        },
        {
          "indexed": false,
          "internalType": "uint64",
          "name": "blockNumber",
          "type": "uint64"
        }
      ],
      "name": "RandomEvent",
      "type": "event"
    },
    {
      "anonymous": false,
      "inputs": [
        {
          "indexed": true,
          "internalType": "uint256",
          "name": "characterId",
          "type": "uint256"
        },
        {
          "indexed": false,
          "internalType": "uint256",
          "name": "gearId",
          "type": "uint256"
        }
      ],
      "name": "Recycle",
      "type": "event"
    },
    {
      "anonymous": false,
      "inputs": [
        {
          "indexed": true,
          "internalType": "uint256",
          "name": "deadCharacterId",
          "type": "uint256"
        },
        {
          "indexed": false,
          "internalType": "uint256",
          "name": "newCharacterId",
          "type": "uint256"
        }
      ],
      "name": "Resurrect",
      "type": "event"
    },
    {
      "anonymous": false,
      "inputs": [
        {
          "indexed": true,
          "internalType": "uint256",
          "name": "location",
          "type": "uint256"
        },
        {
          "indexed": false,
          "internalType": "bytes32",
          "name": "blockHash",
          "type": "bytes32"
        },
        {
          "indexed": false,
          "internalType": "uint8",
          "name": "exits",
          "type": "uint8"
        },
        {
          "indexed": false,
          "internalType": "uint8",
          "name": "kind",
          "type": "uint8"
        }
      ],
      "name": "RoomActualised",
      "type": "event"
    },
    {
      "anonymous": false,
      "inputs": [
        {
          "indexed": true,
          "internalType": "uint256",
          "name": "location",
          "type": "uint256"
        },
        {
          "indexed": false,
          "internalType": "uint64",
          "name": "blockNumber",
          "type": "uint64"
        },
        {
          "indexed": false,
          "internalType": "uint8",
          "name": "direction",
          "type": "uint8"
        }
      ],
      "name": "RoomDiscovered",
      "type": "event"
    },
    {
      "anonymous": false,
      "inputs": [
        {
          "indexed": true,
          "internalType": "uint256",
          "name": "location",
          "type": "uint256"
        },
        {
          "indexed": true,
          "internalType": "address",
          "name": "owner",
          "type": "address"
        },
        {
          "indexed": false,
          "internalType": "uint256",
          "name": "id",
          "type": "uint256"
        },
        {
          "indexed": false,
          "internalType": "uint256",
          "name": "amount",
          "type": "uint256"
        }
      ],
      "name": "RoomIncome",
      "type": "event"
    },
    {
      "anonymous": false,
      "inputs": [
        {
          "indexed": true,
          "internalType": "uint256",
          "name": "location",
          "type": "uint256"
        },
        {
          "indexed": false,
          "internalType": "string",
          "name": "name",
          "type": "string"
        },
        {
          "indexed": false,
          "internalType": "uint256",
          "name": "characterId",
          "type": "uint256"
        }
      ],
      "name": "RoomName",
      "type": "event"
    },
    {
      "anonymous": false,
      "inputs": [
        {
          "indexed": true,
          "internalType": "address",
          "name": "owner",
          "type": "address"
        },
        {
          "indexed": false,
          "internalType": "uint256",
          "name": "tax",
          "type": "uint256"
        },
        {
          "indexed": false,
          "internalType": "uint256",
          "name": "newDueDate",
          "type": "uint256"
        }
      ],
      "name": "RoomTaxPay",
      "type": "event"
    },
    {
      "inputs": [
        {
          "internalType": "uint256",
          "name": "characterId",
          "type": "uint256"
        },
        {
          "internalType": "uint256",
          "name": "monsterId",
          "type": "uint256"
        }
      ],
      "name": "characterDefeated",
      "outputs": [],
      "stateMutability": "nonpayable",
      "type": "function"
    },
    {
      "inputs": [
        {
          "internalType": "uint256",
          "name": "characterId",
          "type": "uint256"
        },
        {
          "internalType": "uint256",
          "name": "monsterId",
          "type": "uint256"
        },
        {
          "internalType": "int16",
          "name": "hpChange",
          "type": "int16"
        }
      ],
      "name": "characterEscaped",
      "outputs": [],
      "stateMutability": "nonpayable",
      "type": "function"
    },
    {
      "inputs": [
        {
          "internalType": "uint256",
          "name": "location",
          "type": "uint256"
        },
        {
          "internalType": "uint256",
          "name": "characterId",
          "type": "uint256"
        },
        {
          "internalType": "uint16[8]",
          "name": "amounts",
          "type": "uint16[8]"
        }
      ],
      "name": "claimBounty",
      "outputs": [],
      "stateMutability": "nonpayable",
      "type": "function"
    },
    {
      "inputs": [
        {
          "internalType": "address",
          "name": "to",
          "type": "address"
        },
        {
          "internalType": "bytes",
          "name": "data",
          "type": "bytes"
        }
      ],
      "name": "forward",
      "outputs": [
        {
          "internalType": "bool",
          "name": "success",
          "type": "bool"
        }
      ],
      "stateMutability": "nonpayable",
      "type": "function"
    },
    {
      "inputs": [
        {
          "internalType": "uint256",
          "name": "location",
          "type": "uint256"
        },
        {
          "internalType": "address",
          "name": "benefactor",
          "type": "address"
        },
        {
          "internalType": "uint16[8]",
          "name": "income",
          "type": "uint16[8]"
        }
      ],
      "name": "generateRoomIncome",
      "outputs": [],
      "stateMutability": "nonpayable",
      "type": "function"
    },
    {
      "inputs": [
        {
          "internalType": "uint256",
          "name": "location",
          "type": "uint256"
        }
      ],
      "name": "monsterDefeated",
      "outputs": [],
      "stateMutability": "nonpayable",
      "type": "function"
    },
    {
      "inputs": [
        {
          "internalType": "uint256",
          "name": "characterId",
          "type": "uint256"
        },
        {
          "internalType": "uint256",
          "name": "location",
          "type": "uint256"
        }
      ],
      "name": "teleportCharacter",
      "outputs": [],
      "stateMutability": "nonpayable",
      "type": "function"
    },
    {
      "inputs": [
        {
          "internalType": "uint256",
          "name": "characterId",
          "type": "uint256"
        },
        {
          "internalType": "uint256",
          "name": "monsterId",
          "type": "uint256"
        },
        {
          "internalType": "int16",
          "name": "hpChange",
          "type": "int16"
        },
        {
          "internalType": "uint16",
          "name": "xpGained",
          "type": "uint16"
        },
        {
          "internalType": "uint256",
          "name": "gearData",
          "type": "uint256"
        },
        {
          "internalType": "int64",
          "name": "durabilityChange",
          "type": "int64"
        },
        {
          "internalType": "int16[8]",
          "name": "balanceChange",
          "type": "int16[8]"
        }
      ],
      "name": "updateCharacter",
      "outputs": [],
      "stateMutability": "nonpayable",
      "type": "function"
    },
    {
      "inputs": [
        {
          "internalType": "uint256",
          "name": "character",
          "type": "uint256"
        },
        {
          "internalType": "uint64",
          "name": "id",
          "type": "uint64"
        },
        {
          "internalType": "uint8",
          "name": "status",
          "type": "uint8"
        },
        {
          "internalType": "string",
          "name": "data",
          "type": "string"
        }
      ],
      "name": "updateQuest",
      "outputs": [],
      "stateMutability": "nonpayable",
      "type": "function"
    },
    {
      "inputs": [
        {
          "internalType": "uint256",
          "name": "characterId",
          "type": "uint256"
        },
        {
          "internalType": "uint256",
          "name": "location",
          "type": "uint256"
        },
        {
          "internalType": "uint256",
          "name": "data",
          "type": "uint256"
        },
        {
          "internalType": "uint256[8]",
          "name": "amountsPayed",
          "type": "uint256[8]"
        }
      ],
      "name": "updateRoomData",
      "outputs": [],
      "stateMutability": "nonpayable",
      "type": "function"
    }
  ],
  "transactionHash": "0xbc256b59d178ac8741e3592ee3a89298cbf493a3a18e1cbaf26aa628adb8b308",
  "args": [],
  "numDeployments": 2,
  "linkedData": {
    "readOnlyDungeon": "0x60806040523461001a576040516128cc61002082396128cc90f35b600080fdfe6080604052600436101561001257600080fd5b60003560e01c80630ececfea14610152578063213ee1431461014d5780632f5877961461014857806330ad9329146101435780633683dee11461013e578063467b47931461013957806356b5c381146101345780637a9234741461012f5780639f7cb08e1461012a578063a48378ff14610125578063acda69ca14610120578063b0ca9dfe1461011b578063c3aab23c14610116578063d5763a8014610111578063d667fd041461010c578063ed53a62414610107578063f090aca814610102578063f6940ac7146100fd578063fcaf8951146100f85763ff5335fa0361015757610887565b61086b565b61083b565b6107d9565b6107ba565b610728565b6106bf565b61064e565b6105fc565b6105da565b61054c565b610518565b610499565b610452565b610436565b6103af565b61033b565b6102d8565b610293565b6101cb565b600080fd5b805b0361015757565b905035906101728261015c565b565b9190604083820312610157576101979061018e8185610165565b93602001610165565b90565b9052565b6001600160401b031690565b61019a9061019e565b908152604081019291610172916020905b01906101aa565b34610157576101e46101de366004610174565b90612758565b906101fa6101f160405190565b928392836101b3565b0390f35b60ff811661015e565b90503590610172826101fe565b909160c0828403126101575761022a8383610165565b926102388160208501610165565b926102468260408301610207565b926101976102578460608501610207565b936102658160808601610207565b9360a001610207565b60ff918216815291166020820152606081019291610172916040905b019060ff169052565b34610157576101fa6102b56102a9366004610214565b94939093929192611472565b6040519193919384938461026e565b906020828203126101575761019791610165565b34610157576101fa6102f36102ee3660046102c4565b610c64565b6040519182918290815260200190565b6101c461017294610331606094989795610327608086019a600087019060070b9052565b60070b6020850152565b60070b6040830152565b34610157576101fa6103566103513660046102c4565b610996565b9061036394929460405190565b94859485610303565b9091606082840312610157576101976103858484610165565b936103938160208601610165565b93604001610207565b9081526040810192916101729160200152565b34610157576103c86103c236600461036c565b916110f9565b906101fa6103d560405190565b9283928361039c565b909182601f83011215610157578135916001600160401b03831161015757602001926020830284011161015757565b906020828203126101575781356001600160401b0381116101575761043292016103de565b9091565b34610157576101fa6102f361044c36600461040d565b906126a2565b34610157576101fa6102f3610468366004610174565b9061286f565b61ffff811661015e565b905035906101728261046e565b906020828203126101575761019791610478565b34610157576101fa6102f36104af366004610485565b61263d565b919461050161050c929897956104f660a0966104ec6101729a6104e260c08a019e60008b019061ffff169052565b60ff166020890152565b60ff166040870152565b61ffff166060850152565b61ffff166080830152565b019063ffffffff169052565b34610157576101fa61053361052e3660046102c4565b6122c1565b9261054396949692919260405190565b968796876104b4565b34610157576101fa6102f36105623660046102c4565b611415565b63ffffffff811661015e565b9050359061017282610567565b909160c082840312610157576105968383610478565b926105a48160208501610207565b926105b28260408301610207565b926101976105c38460608501610478565b936105d18160808601610478565b9360a001610573565b34610157576101fa6102f36105f0366004610580565b949390939291926121ed565b34610157576101fa6102f3610612366004610174565b9061274e565b906020828203126101575761019791610207565b61ffff909116815260608101939261017292909160409161028a906020830152565b34610157576101fa610669610664366004610618565b612379565b6040519193919384938461062c565b61015e8160070b90565b9050359061017282610678565b9091606082840312610157576101976106a88484610682565b936106b68160208601610682565b93604001610682565b34610157576101fa6102f36106d536600461068f565b916108a2565b909594926101729461071b61028a9261071060809661070560a088019c600089019061ffff169052565b61ffff166020870152565b61ffff166040850152565b63ffffffff166060830152565b34610157576101fa61074361073e3660046102c4565b612100565b9161075095939560405190565b958695866106db565b80151561015e565b9050359061017282610759565b919060a083820312610157576107848184610165565b926107928260208301610165565b926101976107a38460408501610165565b936107b18160608601610761565b93608001610207565b34610157576101fa6102f36107d036600461076e565b93929092610a66565b34610157576101fa6102f36107ef366004610174565b906125ef565b61015e8161019e565b90503590610172826107f5565b9091606082840312610157576101976108248484610165565b936108328160208601610165565b936040016107fe565b34610157576101fa61085761085136600461080b565b91610db0565b6040519182918260ff909116815260200190565b34610157576101fa61085761088136600461036c565b916120f5565b34610157576101fa6102f361089d3660046102c4565b61264a565b610197929190610919565b6108bd6101976101979260070b90565b61019e565b6101976101976101979261019e565b6101976101976101979290565b634e487b7160e01b600052601160045260246000fd5b8181029291811591840414171561090757565b6108de565b9190820180921161090757565b9061095461099061098a9261098a61097d6109546109776101979961093c600090565b5061097261096c610959610954600160ff1b946108ad565b6108c2565b610966600160801b6108d1565b906108f4565b916108d1565b61090c565b936108ad565b610966600160401b6108d1565b9061090c565b926108ad565b6109a39060005b506109fd565b929391929091565b6108bd6101976101979290565b6109c76101976101979261019e565b60070b90565b634e487b7160e01b600052601260045260246000fd5b906109ed565b9190565b9081156109f8570490565b6109cd565b90610a0f610a0a836109ab565b6109b8565b91610a31610a0a610a2c610a26600160401b6108d1565b846109e3565b6109ab565b91610197610a2c610a52610a0a82610a4c600160801b6108d1565b876109e3565b93610a60600160ff1b6108d1565b906109e3565b6101979493929190610b4a565b610a806101976101979290565b60ff1690565b6101976001610a73565b610197600f610a73565b610aa99060ff165b9160ff1690565b019060ff821161090757565b61019a9060ff1660f81b90565b60019392610adf602083610ad98295610ae7979052565b01918252565b018092610ab5565b0190565b634e487b7160e01b600052604160045260246000fd5b90601f01601f191681019081106001600160401b03821117610b2257604052565b610aeb565b610197906108d1565b81156109f8570690565b6101976101976101979260ff1690565b929093610b55600090565b50610b64610aa2610a80610a86565b03610c5657610b71610a90565b8091610c3b575b50610be76109e9610be1610bd1610b8f6006610a73565b610bb9610b9b60405190565b8092610bad60208301918d8d84610ac2565b90810382520382610b01565b610bcb610bc4825190565b9160200190565b20610b27565b610bdb60646108d1565b90610b30565b92610b3a565b10610bf95750505061019760006108d1565b610c2c610c3192610bb961019795610c116007610a73565b92610bad610c1e60405190565b948593602085019384610ac2565b610b30565b61098a60016108d1565b610c509150610c4a600a610a73565b90610a9a565b38610b78565b5050505061019760006108d1565b61019790610ceb565b6109c76101976101979290565b60070b60016001603f1b031981146109075760000390565b610ca19060070b5b9160070b90565b019060016001603f1b03821360016001603f1b031983121761090757565b610ccb9060070b610c9a565b9081156109f85760016001603f1b03198114600019831416610907570590565b610d5161019791610d03610cfd600090565b916109fd565b50939091600090610d1382610c6d565b610d1d8260070b90565b12610d9857610d39610d4991610d336004610c6d565b90610c92565b610d436009610c6d565b90610cbf565b935b50610c6d565b610d5b8260070b90565b12610d7757610d39610d7191610d336004610c6d565b90610919565b610d93610d39610d89610d7193610c7a565b610d336004610c6d565b610c7a565b610d93610d39610d89610daa93610c7a565b93610d4b565b610197929190610e7d565b610197600a610a73565b6108bd6101976101979260ff1690565b610de1610de79161019e565b9161019e565b0290610df28261019e565b91820361090757565b9190820391821161090757565b6101976019610a73565b610e1f6101976101979290565b61ffff1690565b6101976064610e12565b610e1f6101976101979260ff1690565b610e4c9060070b610c9a565b9081156109f8570790565b610e676101976101979260070b90565b60000b90565b610a806101976101979260000b90565b91610e8783611070565b908115610fb9575b5015610ea15750506101976006610a73565b610ec0610954610eb084610fd6565b610eba60096109ab565b90610dd5565b610eca60006108d1565b8111610fa0575b610ee46109e9610edf610e08565b610b3a565b10610f9457610f27610f1c610bad610bb9610f2c94610f03600c610a73565b90610f0d60405190565b93849260208401928a84610ac2565b610bdb6127106108d1565b610a73565b610f40610f3a610e1f610e26565b91610e30565b11610f8957610f51610197916109fd565b50915050610f84610f7e610f79610f74600194610f6e6005610c6d565b90610e40565b610e57565b610e6d565b91610a73565b610a9a565b506101976006610a73565b50506101976006610a73565b610fb490610fae60046108d1565b90610dfb565b610ed1565b9050610fce610de1610fc9610dbb565b610dc5565b101538610e8f565b610fe190600061099d565b50819050600083610ff182610c6d565b610ffb8260070b90565b1261105a575b5061100b90610c6d565b6110158260070b90565b1261104a575b506110268160070b90565b6110308360070b90565b13156110405750610197906108ad565b61019791506108ad565b6110549150610c7a565b3861101b565b61100b91945061106990610c7a565b9390611001565b61107b90600061099d565b50506000199161108a83610c6d565b6110948260070b90565b121592836110db575b50826110c2575b50816110ae575090565b90506110bd610c9a6001610c6d565b131590565b9091506110d2610c9a6001610c6d565b131590386110a4565b6110e6919350610c6d565b6110f08260070b90565b1215913861109d565b610432929190611118565b6101976002610a73565b6101976004610a73565b9092909161112660006108d1565b9361113f6111348686611317565b610a60610edf610e08565b85811461129f575b60029061118f61115f611159846108d1565b836109e3565b61098a83610c2c610bad610bb96111766064610a73565b8d61118060405190565b9384928d602085019384610ac2565b9587871461128d575b6111a0611104565b6111ac60ff8716610aa2565b14611265575b9161098a916111f3949360086111c7816108d1565b8311611245575b50610bb96111e86111e2610c2c94956108d1565b856109e3565b95610c116065610a73565b938414611233575b611210610aa2611209610a86565b9260ff1690565b1461121757565b916112309061098a61122a610edf61110e565b826109e3565b91565b925061123f60016108d1565b926111fb565b610c2c92506111e86111e261125c610bb9936108d1565b945050506111ce565b959161098a916112816111f3959461098a61122a610edf61110e565b979193945091506111b2565b955061129960016108d1565b95611198565b506112aa60016108d1565b611147565b6112bb9060070b610c9a565b90039060016001603f1b0319821260016001603f1b0383131761090757565b6101976101976101979260070b90565b600160ff1b81146109075760000390565b9190808303926000909112801582851316918412161761090757565b61134361133e61132c6113369361099d600090565b50509390946109fd565b5050946112af565b6112da565b91600091611350836108d1565b84126113f6575b61133e6113679261096c926112af565b81126113e8575b6001603f1b61137c816108d1565b83136113ca575b61138c906108d1565b81136113af575b808213156113a55750610197906108d1565b61019791506108d1565b6113c5906113c0600160401b6108d1565b6112fb565b611393565b9161138c906113e0906113c0600160401b6108d1565b929050611383565b6113f1906112ea565b61136e565b9261133e6113679261140a61096c936112ea565b959250925050611357565b6101979061142b565b610197600160ff1b6108d1565b61143661019761141e565b8103611447575061019760006108d1565b61145e6101979161145860006108d1565b90611317565b61097261096c600192610a60610edf610e08565b611480959493929190611487565b9192909190565b959492906114a3610432959361149b600090565b508289611af3565b966114ce565b6101976005610a73565b6101976003610a73565b60ff1660ff81146109075760010190565b949360006114e66114de88610ceb565b9594976109fd565b5050600093916114f8610c9a86610c6d565b1490816119b0575b501561152357505050505050611514611104565b9161151f6001610a73565b1790565b95909691929394965b60ff87165b60ff8716116119a657506115456003610a73565b611590610f2761158687610bb98a8d610bad8861156160405190565b95869460208601948592610adf6001610ae794610ad9602088610adf859b9a83999052565b610bdb60146108d1565b906115b261159e6001610a73565b85166115ad610aa26001610a73565b141590565b90818061197d575b156115eb575050506115316115e26115d0611104565b936115db6001610a73565b17966114bd565b9592905061152c565b6116076115f86002610a73565b86166115ad610aa26002610a73565b91828061192f575b1561163157505050506115316115e26116266114b3565b936115db6002610a73565b61164d61163e6004610a73565b87166115ad610aa26004610a73565b91828061188c575b156116785750505050506115316115e261166d61110e565b936115db6004610a73565b6116946116856008610a73565b88166115ad610aa26008610a73565b94856116d7575b50505050506000146116c0576115316115e26116b56114a9565b936115db6008610a73565b6115316115e26116d1969396610a86565b936114bd565b6116e691929394955060ff1690565b14928315611875575b8315611851575b831561182d575b8315611809575b83156117d8575b83156117a7575b8315611776575b831561172d575b505050388080808061169b565b9091925061173b604d610a73565b60ff891614928361176e575b5082611766575b508161175e575b50388080611720565b905038611755565b91503861174e565b925038611747565b9250611782604e610a73565b60ff891614806117a0575b80611799575b92611719565b5082611793565b508161178d565b92506117b3604e610a73565b60ff891614806117d1575b806117ca575b92611712565b50816117c4565b50806117be565b92506117e4604e610a73565b60ff89161480611802575b806117fb575b9261170b565b50826117f5565b50806117ef565b9250611815604f610a73565b60ff89161480611826575b92611704565b5081611820565b9250611839604f610a73565b60ff8916148061184a575b926116fd565b5082611844565b925061185d604f610a73565b60ff8916148061186e575b926116f6565b5080611868565b92506118816050610a73565b60ff891614926116ef565b506118976002610a73565b60ff861614801561191a575b80156118fd575b80156118e0575b8061165557506118c1604e610a73565b60ff8b1614806118d9575b8015611655575083611655565b50816118cc565b506118eb604f610a73565b60ff8b161480156118b15750836118b1565b50611908604f610a73565b60ff8b161480156118aa5750816118aa565b506119256050610a73565b60ff8b16146118a3565b5061193a6001610a73565b60ff8516148015611968575b8061160f5750611956604f610a73565b60ff8a1614801561160f57508061160f565b506119736050610a73565b60ff8a1614611946565b5061198786610a73565b60ff841614806115ba575061199c6050610a73565b60ff8916146115ba565b9650935093505050565b90506119be610c9a85610c6d565b1438611500565b6101976057610a73565b939190925b600182116119e0575050565b90919280820481116109075760018316611a02575b8002929160011c906119d4565b938402936119f5565b9291928115611a8e578015611a86578080600114611a7d57600214611a685760208210610133821016604e8310600b83101617611a5e5792611a519181939460016119cf565b8092048111610907570290565b0a91821161090757565b5060ff81116109075760020a91821161090757565b50600193505050565b506000925050565b506001925050565b61019791611aa9610aa260ff9360ff1690565b90611a0b565b6101976028610a73565b6101976000610a73565b611acf9060ff16610aa2565b90039060ff821161090757565b611ae89060ff16610aa2565b029060ff8216610df2565b90600092611b0084610a73565b90611b0961110e565b611b1560ff8316610aa2565b03611dcd575050611b26600f610a73565b925b611b53611b35606f610a73565b610bb9611b4160405190565b8092610bad6020830191888a84610ac2565b611b65610f27606492610bdb846108d1565b90611b82610a80611b74611aaf565b611b7d84610a73565b611ac3565b60ff83161015611d91575050611b9790610a73565b905b600491611ba583610a73565b60ff821610611bd657505061151f9150611bd1610f7e600f92611bcb610f7e6002610a73565b90611a96565b611adc565b6003611be181610a73565b60ff831603611c8c575050611c14610f27611c0b611c2e9495610bb9611c1e95610c116070610a73565b610bdb866108d1565b610c4a6001610a73565b611c286007610a73565b90611adc565b611c386015610a73565b60ff821603611c5c575061151f90611bd1610f7e600d92611bcb610f7e6002610a73565b611c69610aa2601c610a73565b14611c72575090565b61151f90611bd1610f7e600b92611bcb610f7e6002610a73565b9091600292611c9a84610a73565b60ff821603611d2c5750610f7e611c14610f27611cc7611cd1969798610bb9611c2896610c116070610a73565b610bdb60066108d1565b611cdb600f610a73565b60ff821603611cfd5750611bd1610f7e61151f93611bcb610f7e600595610a73565b611d0a610aa26012610a73565b14611d1457505090565b611bd1610f7e61151f93611bcb610f7e600a95610a73565b90929150611d3d610aa26001610a73565b14611d4a575b5050505090565b611bcb611d7a611d80611d7a610f27611d71611d8799610bb9611c2899610c116070610a73565b610bdb896108d1565b93610a73565b9283611a96565b1738808080611d43565b610aa2610a80611da692611b7d610f7e610dbb565b10159050611dbe57611db86001610a73565b90611b99565b611dc86002610a73565b611db8565b611dd89491946119c5565b90611de36001610a73565b91611e04611df060405190565b610bb98160208101610bad888b8d84610ac2565b90611e1d610aa2610a80610f27606495610bdb876108d1565b116120d3575b90849291611e2f611aaf565b611e64610aa2610a80610f27611e5b8c610bb9611e4c6002610a73565b9b8c92610bad610c1e60405190565b610bdb876108d1565b11611e73575b50505050611b28565b8690611e8198949598610e08565b87611e8c6003610a73565b91611eba610aa2610a80610f27611d71611ea560405190565b610bb9818c610bad8c8c602085019384610ac2565b1115611f735750505050611ecc611ab9565b611ed860ff8316610aa2565b148015611f58575b15611efe575050611ef16008610a73565b1717925b38808080611e6a565b9091959250611f0b610a86565b611f1760ff8316610aa2565b14908115611f41575b50611f2c575b50611ef5565b909317611f396004610a73565b179238611f26565b9050611f51610aa26112096114b3565b1438611f20565b50611f61611104565b611f6d60ff8316610aa2565b14611ee0565b610f27611f9d93610bdb61096c610f7e95610bb9610a809660329e9c9e9a610bad610c1e60405190565b111561203a57611fab611ab9565b611fb760ff8316610aa2565b03611fd15750509050611fca6008610a73565b1792611ef5565b611fd9610a86565b611fe560ff8316610aa2565b03611ff457505017925b611ef5565b909250611fff611104565b61200b60ff8316610aa2565b0361201857501792611ef5565b9094915061202a610aa26112096114b3565b03611fef5792611fca6004610a73565b612045939193611ab9565b61205160ff8316610aa2565b0361205f5750501792611ef5565b9091925061206b610a86565b61207760ff8316610aa2565b03612088575050611fca6004610a73565b612090611104565b61209c60ff8316610aa2565b036120ad575050611fca6008610a73565b6120be610aa26112099794976114b3565b146120c95750611ef5565b9093179238611f26565b955090816120eb85936120e66002610a73565b611a96565b9690919250611e23565b610197929190611af3565b61210990612143565b919394909293929190565b610197906121286109e96101979460ff1690565b901c90565b61213a6101976101979290565b63ffffffff1690565b9061215a610f2761215460f8610a73565b84612114565b9161216e61216860e8610a73565b82612114565b6121876121826201000092610bdb846108d1565b610e12565b936121ea6121826121b96121b46121a76121a160c8610a73565b88612114565b610bdb600160201b6108d1565b61212d565b93610bdb61096c6121d9612182611c0b6121d360b8610a73565b8b612114565b976121e460a8610a73565b90612114565b93565b610197959493929190612238565b6101979061220f6109e96101979460ff1690565b901b90565b6101976101976101979261ffff1690565b6101976101976101979263ffffffff1690565b6122b161228d61098a9561098a6122a761228d6101979b9a9761098a61229d610be161098a9a61098a6122936122bb9f61227d61228d91612277600090565b50610b3a565b61228760f8610a73565b906121fb565b92612214565b61228760e8610a73565b61228760e0610a73565b61228760d0610a73565b61228760c0610a73565b91612225565b6122ce9060005b506122da565b94959394929391929091565b906122eb610f2761215460f8610a73565b6122f861215460e8610a73565b61230c6121826201000092610bdb846108d1565b9361232b610f2761232061215460e0610a73565b610bdb6101006108d1565b936101976121b461236b61218261235a61218261235161234b60d0610a73565b89612114565b610bdb8a6108d1565b96610bdb61096c61234b60c0610a73565b93610bdb600160201b6108d1565b61238e61148091612388600090565b50610e30565b612438565b906101726123a060405190565b9283610b01565b6001600160401b038111610b225760200290565b6123c7610197916123a7565b612393565b634e487b7160e01b600052603260045260246000fd5b90600b8110156123f3576020020190565b6123cc565b6124099061ffff165b9161ffff1690565b019061ffff821161090757565b61019791611aa9610aa261ffff9361ffff1690565b6109ed9061ffff16612401565b9061256661255e612449600b6123bb565b612461600061245781610e12565b61ffff1690830152565b61247961246e600a610e12565b61ffff166020830152565b6124916124866031610e12565b61ffff166040830152565b6124a961249e6077610e12565b61ffff166060830152565b6124b661050160d0610e12565b6124cf6124c4610148610e12565b61ffff1660a0830152565b6124e86124dd61020c610e12565b61ffff1660c0830152565b6125016124f661033a610e12565b61ffff1660e0830152565b61251b61250f6104f5610e12565b61ffff16610100830152565b612535612529610e46610e12565b61ffff16610120830152565b61254f612543611aee610e12565b61ffff16610140830152565b61255885612214565b906123e2565b5161ffff1690565b9160089061257382610e12565b61ffff8216111561259557505061258b6101ec6108d1565b905b610197610dbb565b6125e9916125de6125d86125c86125b86125e4956125b36001610e12565b6123f8565b6125c26003610a73565b90612416565b6125d26005610e12565b9061242b565b91610e12565b906123f8565b612214565b9061258d565b61019791906126189061261361096c6126229461260a600090565b50600293611317565b6108f4565b610a6060056108d1565b61262c60006108d1565b8103610197575061019760016108d1565b6101979061019790612214565b6101979061266f6126229161265d600090565b5061261361096c60029261145861141e565b610a6060066108d1565b60001981146109075760010190565b91908110156123f3576020020190565b356101978161015c565b906126ad60006108d1565b91825b828410156126e6576126da6126e09161098a6126d56126d0888888612688565b612698565b6126ed565b93612679565b926126b0565b9250505090565b6126f89060006122c8565b50939150915060019161272d6124016127256125e461271c6002966125d288610e12565b6125b388610e12565b9561ffff1690565b1461273757505090565b610197929161097261096c6111e261098a946108d1565b6101979190611317565b61043291906127da916127d4610f276127926127746066610a73565b610bb961278060405190565b8092610bad6020830191898b84610ac2565b610bdb61096c610bad610bb96127b0610f27600996610bdb886108d1565b976127bb6067610a73565b906127c560405190565b93849260208401928d84610ac2565b916127fd565b9061019760026109ab565b6127f19060070b610c9a565b0290610df28260070b90565b610d7161019793610d33610a0a61285d6128639661285761286961284161283b61282c61283b9b61099d600090565b509d9160099491949d8e610c6d565b906127e5565b95610d33610a0a61285d6004996128578b610c6d565b906112af565b92610dc5565b9a610c6d565b91610c6d565b6101979161261361019792612882600090565b5061097261096c600192610a60600a6108d156fea264697066735822122041f4fbeca2d12742f854361aff4432345def4b764975da853386133d3d0f292e64736f6c63430008140033"
  },
  "solcInputHash": "dd8ef9e4cb12f6b7c300326f49f4b58b",
  "bytecode": "0x60806040523461001b57604051615b8c620000218239615b8c90f35b600080fdfe6080604052600436101561001257600080fd5b60003560e01c80630604ba13146100b25780636fadcf72146100ad5780637507a1c9146100a85780639434e4e8146100a3578063ab5360601461009e578063b2f2dff914610099578063cf747b4914610094578063d8468f8f1461008f578063e6d48fe71461008a5763e7691518036100b757610573565b610532565b610519565b6104cf565b610483565b61042d565b6103ee565b61031c565b6102da565b610191565b600080fd5b805b036100b757565b905035906100d2826100bc565b565b6100be8160010b90565b905035906100d2826100d4565b61ffff81166100be565b905035906100d2826100eb565b6100be8160070b90565b905035906100d282610102565b91906101008301116100b757565b6101c0818303126100b75761013c82826100c5565b9261014a83602084016100c5565b9261015881604085016100de565b9261016682606083016100f5565b9261018e61017784608085016100c5565b936101858160a0860161010c565b9360c001610119565b90565b346100b7576101b06101a4366004610127565b95949094939193611182565b604051005b0390f35b6001600160a01b031690565b6100be816101b9565b905035906100d2826101c5565b634e487b7160e01b600052604160045260246000fd5b90601f01601f191681019081106001600160401b0382111761021257604052565b6101db565b906100d261022460405190565b92836101f1565b6001600160401b03811161021257602090601f01601f19160190565b0190565b90826000939282370152565b9092919261026c6102678261022b565b610217565b938185526020850190828401116100b7576100d29261024b565b9080601f830112156100b75781602061018e93359101610257565b9190916040818403126100b7576102b883826101ce565b9260208201356001600160401b0381116100b75761018e9201610286565b9052565b346100b7576101b56102f66102f03660046102a1565b90610834565b60405191829182901515815260200190565b906020828203126100b75761018e916100c5565b346100b7576101b061032f366004610308565b611aa5565b6001600160401b031690565b6100be81610334565b905035906100d282610340565b60ff81166100be565b905035906100d282610356565b909182601f830112156100b7578135916001600160401b0383116100b75760200192600183028401116100b757565b906080828203126100b7576103b081836100c5565b926103be8260208501610349565b926040926103ce8185840161035f565b936001806060850135921b0381116100b7576103ea920161036c565b9091565b346100b7576101b061040136600461039b565b9392909261223e565b91906040838203126100b75761018e9061042481856100c5565b936020016100c5565b346100b7576101b061044036600461040a565b90611b83565b610160818303126100b75761045b82826100c5565b9261018e61046c84602085016100c5565b9361047a81604086016100c5565b93606001610119565b346100b7576101b0610496366004610446565b92919091611661565b90916060828403126100b75761018e6104b884846100c5565b936104c681602086016100c5565b936040016100de565b346100b7576101b06104e236600461049f565b91611f78565b9091610140828403126100b75761018e61050284846100c5565b9361051081602086016101ce565b93604001610119565b346100b7576101b061052c3660046104e8565b916123b4565b346100b7576101b061054536600461040a565b90611836565b9091610140828403126100b75761018e61056584846100c5565b9361051081602086016100c5565b346100b7576101b061058636600461054b565b91611310565b61018e90546101b9565b1561059d57565b60405162461bcd60e51b81526020600482015260146024820152732727aa2fa0aaaa2427a924ad22a22fa0a226a4a760611b6044820152606490fd5b0390fd5b9061018e9291610608336106026105fc6105f7600461058c565b6101b9565b916101b9565b14610596565b6107af565b61018e906101b9906001600160a01b031682565b61018e9061060d565b61018e90610621565b9061063d9061062a565b600052602052604060002090565b61018e905b60ff1690565b61018e905461064b565b1561066757565b60405162461bcd60e51b815260206004820152601260248201527115105491d15517d393d517d0531313d5d15160721b6044820152606490fd5b61018e61018e61018e9290565b156106b557565b60405162461bcd60e51b815260206004820152600e60248201526d1110551057d513d3d7d4d213d49560921b6044820152606490fd5b906001600160e01b03191661063d565b1561070257565b60405162461bcd60e51b815260206004820152601460248201527314d1531150d513d497d393d517d0531313d5d15160621b6044820152606490fd5b9061074b6102678361022b565b918252565b3d1561076a5761075f3d61073e565b903d6000602084013e565b606090565b1561077657565b60405162461bcd60e51b815260206004820152601160248201527019985a5b1959081d1bc8199bdc9dd85c99607a1b6044820152606490fd5b906000928392506107d16107cc6107c784600f610633565b610656565b610660565b6107f46107dc825190565b6107ed6107e960046106a1565b9190565b10156106ae565b6108176108126107c7602084015161080d866010610633565b6106eb565b6106fb565b82602082019151925af19061082a610750565b506100d28261076f565b61018e919060006105dd565b906100d296959493929161085e336106026105fc6105f7600461058c565b610aae565b60009103126100b757565b6040513d6000823e3d90fd5b9061063d906106a1565b61018e9081565b61018e9054610884565b61018e90610334565b610334565b61018e9054610895565b61089e61018e61018e9290565b905051906100d2826100bc565b906020828203126100b75761018e916108ba565b61018e600a6106a1565b156108ec57565b60405162461bcd60e51b815260206004820152600e60248201526d546f6f206d616e7920676561727360901b6044820152606490fd5b9081526040810192916100d29160200152565b0152565b61065061018e61018e9290565b634e487b7160e01b600052601160045260246000fd5b60ff1660ff811461096d5760010190565b610946565b61018e61018e61018e9260ff1690565b634e487b7160e01b600052603260045260246000fd5b9060088110156109a9576020020190565b610982565b3561018e816100d4565b6109c561018e61018e9290565b60010b90565b6109da9060ff165b9160ff1690565b019060ff821161096d57565b60010b617fff19811461096d5760000390565b610a0961018e61018e9260010b90565b61ffff1690565b61018e61018e61018e9261ffff1690565b6102d690610972565b9081526060810193926100d2929091604091610935905b6020830190610a21565b610a5b61018e61018e9260010b90565b60070b90565b610a0961018e61018e9290565b610a7f61018e61018e9261ffff1690565b63ffffffff1690565b63ffffffff9081169116019063ffffffff821161096d57565b610a5b61018e61018e9290565b919290610ac3610abe600561058c565b61062a565b6342dad49e90803b156100b757610ae991600091610ae060405190565b93849260e01b90565b8252600490829084905af18015610d675761116c575b50600096610b1061018e858a61087a565b9560019182918a89018b610b48610b42610b3c83610b36610b308761088b565b8a61087a565b016108a3565b926108ad565b91610334565b11611155575b50610b588b6106a1565b8111611066575b50610b698a610939565b915b610ebe575b505050610baa8392610bcf92610b89610bd49796612b31565b95610b938b6109b8565b610b9d8260010b90565b03610e29575b5050610a6e565b610bc56040850191610bc0835163ffffffff1690565b610a88565b63ffffffff169052565b6129f5565b610bdd83610aa1565b610be78360070b90565b03610bf157505050565b6002810190610c07610c028361088b565b612ef8565b6080810190610c18825161ffff1690565b610c2c610c2488610a61565b9161ffff1690565b03610d6c575b5050600391500190610c46610c028361088b565b906080820190610c58825161ffff1690565b610c64610c2487610a61565b03610c71575b5050505050565b82610caa610ca2610cb8936060610cc0970195610c9c610c93885161ffff1690565b915161ffff1690565b90615a81565b61ffff168452565b610cb38561088b565b612e5e565b5161ffff1690565b610ccc610c2484610a61565b14610cda575b808080610c6a565b610ce7610abe600861058c565b90610cf663603d4ca09161088b565b823b156100b757610d2b92610d1d858094610d1060405190565b9687958694859360e01b90565b835260048301526024820190565b03925af18015610d675715610cd25781610d5992903d10610d60575b610d5181836101f1565b810190610863565b3880610cd2565b503d610d47565b61086e565b90610cb882610d8f610ca2886060610d98970195610c9c610c93885161ffff1690565b610cb38661088b565b610da4610c2486610a61565b14610db1575b8180610c32565b610dbe610abe600861058c565b91610dcd63603d4ca09161088b565b833b156100b757610df493610d1d878094610de760405190565b9788958694859360e01b90565b03925af1918215610d6757600392610e0d575b50610daa565b610e2390853d8711610d6057610d5181836101f1565b38610e07565b610e6b90610cb8610e63896080810193610e5d610e576060610e4d885161ffff1690565b94015161ffff1690565b91610a4b565b91615a81565b61ffff168252565b610e77610c248c610a61565b14610e83575b80610ba3565b600080516020615af7833981519152610eb5610e9e876106a1565b92610ea860405190565b9182918290815260200190565b0390a238610e7d565b6008610ec983610972565b101561106157610ee9610ee4610ede84610972565b83610998565b6109ae565b9183610ef48c6109b8565b610efe8560010b90565b1315610fad5750610f12610abe600761058c565b6302acc94b90610f3b610f36610f30610f2a89610939565b866109cb565b966109f9565b610a10565b90803b156100b757610f648e8094610f6f8d95610f5760405190565b9a8b978896879560e01b90565b855260048501610a2a565b03925af1908115610d67578493610f8b92610f91575b5061095c565b91610b6b565b610fa7908d803d10610d6057610d5181836101f1565b38610f85565b92610fb78c6109b8565b610fc18260010b90565b12610fd1575b50610f8b9061095c565b9250610fe0610abe600761058c565b63c9b902e39061100c610f36611007611001610ffb8a610939565b876109cb565b976109e6565b6109f9565b90803b156100b757610f648e80946110288d95610f5760405190565b03925af1908115610d67578493610f8b92611045575b5090610fc7565b61105b908d803d10610d6057610d5181836101f1565b3861103e565b610b70565b6110929250602061107a610abe600861058c565b63c9a59e479061108960405190565b95869260e01b90565b8252600482018a905260249082905afa908115610d67576110cf6020926110fa958e91611138575b506110c96107e961018e6108db565b106108e5565b6110dc610abe600861058c565b6110ee8d631b2ef1ca610de760405190565b83528d60048401610922565b03925af1918215610d6757839215610b5f5761112c9060203d8111611131575b61112481836101f1565b8101906108c7565b610b5f565b503d61111a565b61114f9150843d81116111315761112481836101f1565b386110ba565b6111616111669161088b565b612562565b38610b4e565b61117c906000610d5181836101f1565b38610aff565b906100d2969594939291610840565b906100d292916111ab336106026105fc6105f7600461058c565b6111fa565b3561018e816100eb565b6102d690610a10565b6111f36100d2946111e96060949897956111e2608086019a6000870152565b6020850152565b6040830190610a21565b01906111ba565b6112079093929193614362565b9060009161121483610939565b600861121f82610972565b10156113085761123f61123a61123483610972565b85610998565b6111b0565b61124b610c2486610a61565b1161125f575b61125a9061095c565b611214565b61126c610abe600761058c565b906311aa10fb61128561127f6001610939565b836109cb565b9261129b61123a61129585610972565b88610998565b90803b156100b7576112c48880946112d08d956112b760405190565b998a978896879560e01b90565b85528c600486016111c3565b03925af1918215610d675761125a926112ec575b509050611251565b61130290863d8811610d6057610d5181836101f1565b386112e4565b505050509050565b906100d29291611191565b906100d2939291611336336106026105fc6105f7600461058c565b61142c565b1561134257565b60405162461bcd60e51b8152602060048201526012602482015271726f6f6d206973206e6f742061637469766560701b6044820152606490fd5b1561138357565b60405162461bcd60e51b81526020600482015260096024820152683737ba1037bbb732b960b91b6044820152606490fd5b600019811461096d5760010190565b6101b961018e61018e9290565b61018e906113c3565b9190820180921161096d57565b3561018e816100bc565b6102d6906101b9565b6109356100d29461142560609498979561141b608086019a60008701906113f0565b60208501906113f0565b6040830152565b9361146291939461144461143f86613c1e565b61133b565b6020611453610abe600961058c565b6369f648a19061108960405190565b82526004820188905260249082905afa928315610d675760009361163b575b5060206114b391611495610abe600661058c565b610d1d633038bb086114a660405190565b9586948593849360e01b90565b03915afa908115610d67576114d8916114d191600091611623575090565b831461137c565b6000926114e4846106a1565b60088110156115af576114fa610abe600761058c565b9063fe99049a61151161150c876113c3565b610621565b61151a886113d0565b938a61154161153c8661153661153060016106a1565b826113d9565b93610998565b6113e6565b823b156100b7578a9461157486926115699461155c60405190565b9a8b988997889660e01b90565b8652600486016113f9565b03925af1918215610d675761158e92611593575b506113b4565b6114e4565b6115a990873d8911610d6057610d5181836101f1565b38611588565b509293915093506115c3610abe600961058c565b90634848b1a591803b156100b7576115f08580946115fb6115e360405190565b9788968795869460e01b90565b845260048401610922565b03925af18015610d675761160d575050565b816100d292903d10610d6057610d5181836101f1565b61018e915060203d81116111315761112481836101f1565b6114b3919350611659602091823d81116111315761112481836101f1565b939150611481565b906100d293929161131b565b906100d291611686336106026105fc6105f7600461058c565b61171a565b61018e6004610939565b6102d690610939565b9160206100d29294936116b960408201966000830190611695565b0190610a21565b61018e9060081c610a5b565b61018e90546116c0565b90610100600160481b039060081b5b9181191691161790565b610a5b61018e61018e9260070b90565b9061170f61018e611716926116ef565b82546116d6565b9055565b611727610abe600561058c565b916342dad49e92803b156100b7576117459360009161108960405190565b8252600490829084905af1928315610d67576100d293611820575b5060009161177c61177461018e838661087a565b93840161088b565b9261178684612562565b600161179061168b565b94600080516020615b17833981519152906117b36117ad866106a1565b916106a1565b906117bd876106a1565b926117c760405190565b806117d38b888361169e565b0390a46117df8461424e565b509391505001906117ef826116cc565b6118036117fc8360070b90565b9160070b90565b12611810575b50506136b0565b611819916116ff565b3880611809565b611830906000610d5181836101f1565b38611760565b906100d29161166d565b6100d290611858336106026105fc6105f7600461058c565b6118f5565b61018e9060401c610334565b61018e905461185d565b90600160401b600160801b039060401b6116e5565b61089e61018e61018e92610334565b906118a761018e61171692611888565b8254611873565b906001600160401b03906116e5565b906118cd61018e61171692611888565b82546118ae565b6102d6906106a1565b9081526040810192916100d2916020905b01906118d4565b611902610abe600561058c565b6342dad49e90803b156100b75761191f91600091610ae060405190565b8252600490829084905af18015610d6757611a8f575b5061194461018e82600161087a565b906002611950836108a3565b92600093611960610b42866108ad565b11611a81575b83810161197281611869565b61197e610b42876108ad565b03611a68575b500161198f816108a3565b61199b610b42856108ad565b03611a4f575b506119c360206119b4610abe600961058c565b630178fe3f90610ae060405190565b82526004820185905260249082905afa908115610d67578391611a31575b506119ee6107e9846106a1565b116119f7575050565b611a04610abe600961058c565b90634848b1a590823b156100b7578392611a268480946115fb6115e360405190565b8452600484016118dd565b611a49915060203d81116111315761112481836101f1565b386119e1565b611a6290611a5c846108ad565b906118bd565b386119a1565b611a7b90611a75866108ad565b90611897565b38611984565b611a8a83612562565b611966565b611a9f906000610d5181836101f1565b38611935565b6100d290611840565b906100d291611ac7336106026105fc6105f7600461058c565b611ad4610abe600561058c565b6342dad49e90803b156100b757611af191600091610ae060405190565b8252600490829084905af18015610d6757611b6d575b50611b4d6000611b2761116182611b2161018e878361087a565b0161088b565b611b47611b3c611b3685612b31565b92610a61565b61ffff166080830152565b826129f5565b611b68610e9e600080516020615af7833981519152926106a1565b0390a2565b611b7d906000610d5181836101f1565b38611b07565b906100d291611aae565b906100d29291611ba7336106026105fc6105f7600461058c565b611cfe565b61089e61018e61018e9261ffff1690565b610a5b61018e61018e92610334565b611bd89060070b6117fc565b019060016001603f1b03821360016001603f1b031983121761096d57565b6109c561018e61018e9260070b90565b634e487b7160e01b600052601260045260246000fd5b611c289060ff166109d3565b908115611c33570690565b611c06565b61018e9060801c610334565b61018e9054611c38565b611c5790610334565b801561096d576000190190565b90600160801b600160c01b039060801b6116e5565b90611c8961018e61171692611888565b8254611c64565b611c9990610334565b6001600160401b03811461096d5760010190565b90600019906116e5565b90611cc761018e611716926106a1565b8254611cad565b9060ff906116e5565b61065061018e61018e9260ff1690565b90611cf761018e61171692611cd7565b8254611cce565b611d0b610abe600561058c565b926342dad49e93803b156100b757611d3294600091611d2960405190565b96879260e01b90565b8252600490829084905af1938415610d67576100d294611f62575b50611f13600092611d6161018e828661087a565b92611e3085850191611d728361088b565b97611d7c89612562565b611d8585612b31565b91611db36080840191611dad610e57611da8611da3865161ffff1690565b611bac565b611bbd565b90611bcc565b9160608401611dcd610a5b611da8611da3845161ffff1690565b611dd78560070b90565b13611f55575b50611de78a610aa1565b611df18460070b90565b13611f4057611e2a9250600080516020615af7833981519152611e16610e9e896106a1565b0390a2611e2289610a61565b61ffff169052565b836129f5565b611e6d611e65611e55611e4560018801610656565b611e4f6002610939565b906109cb565b611e5f6004610939565b90611c1c565b80978461310e565b91611e778261088b565b611e926117ad600080516020615b17833981519152936106a1565b90611e9c856106a1565b92611ea660405190565b80611eb28c8c8361169e565b0390a4611ebe82612562565b611f0e600195611eda81611ed4610b308661088b565b01611c44565b611ee6610b42836108ad565b11611f19575b611ef6848861087a565b01611f08611f0382611c44565b611c90565b90611c79565b611cb7565b01611ce7565b611f3b81611f29610b308661088b565b01611f08611f3682611c44565b611c4e565b611eec565b50611e22611007611f5093611bf6565b611e2a565b5161ffff16825238611ddd565b611f72906000610d5181836101f1565b38611d4d565b906100d29291611b8d565b906100d294939291611f9f336106026105fc6105f7600461058c565b6121b5565b9061063d90611888565b634e487b7160e01b600052602260045260246000fd5b9060016002830492168015611fe4575b6020831014611fdf57565b611fae565b91607f1691611fd4565b9160001960089290920291821b911b6116e5565b919061201361018e611716936106a1565b908354611fee565b6100d291600091612002565b818110612032575050565b80612040600060019361201b565b01612027565b9190601f811161205557505050565b6120676100d293600052602060002090565b906020601f840181900483019310612089575b6020601f909101040190612027565b909150819061207a565b9060001960089091021c191690565b816120ac91612093565b906002021790565b91906001600160401b038211610212576120d8826120d28554611fc4565b85612046565b600090601f8311600114612106576117169291600091836120fb575b50506120a2565b0135905038806120f4565b601f1983169161211b85600052602060002090565b92815b8181106121595750916002939185600196941061213f575b50505002019055565b61214f910135601f841690612093565b9055388080612136565b9193602060018192878701358155019501920161211e565b906100d292916120b4565b919061219a81612193816102479560209181520190565b809561024b565b601f01601f191690565b602080825261018e9391019161217c565b909192936121e7818660016121d761018e886121d289600c61087a565b611fa4565b6121e18982611ce7565b01612171565b61222361221d6122177f3553d84d9f5bc81eeb57eac4d5a1fee928d026da4f389c33c1cebfaf3931fda0946106a1565b94611888565b94611cd7565b9461223961223060405190565b928392836121a4565b0390a4565b906100d294939291611f83565b906100d29291612265336106026105fc6105f7600461058c565b612291565b6040906109356100d2949695939661228a606084019860008501906113f0565b6020830152565b9291906000936122a085610939565b60086122ab82610972565b1015611308576122c66122c161127f6001610939565b610972565b906122d9610f3661123a61129584610972565b6122e2886106a1565b81116122f9575b506122f4915061095c565b6122a0565b612306610abe600761058c565b9063a41dab8191803b156100b757868a916123378388966123428761232a60405190565b9b8c978896879560e01b90565b85526004850161226a565b03925af1938415610d67576122f494612398575b50600080516020615b3783398151915261236f866106a1565b916123798861062a565b9361238f61238660405190565b92839283610922565b0390a3386122e9565b6123ae908a3d8c11610d6057610d5181836101f1565b38612356565b906100d2929161224b565b156123c657565b60405162461bcd60e51b81526020600482015260146024820152731c9bdbdb481b9bdd0818dc99585d1959081e595d60621b6044820152606490fd5b61018e9060d01c610650565b61018e9054612402565b61018e61018e61018e92610334565b6102d690612418565b6020810192916100d29190612427565b61018e9060c01c610650565b61018e9054612440565b61018e9060d81c610650565b61018e9054612456565b61018e9060e01c610650565b61018e905461246c565b61018e9060e81c610650565b61018e9054612482565b9060ff60c81b9060c81b6116e5565b906124b761018e61171692611cd7565b8254612498565b9060ff60d01b9060d01b6116e5565b906124dd61018e61171692611cd7565b82546124be565b61018e9060081c610650565b61018e90546124e4565b9061ff009060081b6116e5565b9061251761018e61171692611cd7565b82546124fa565b90815260ff90911660208201526060810192916100d2916040905b019060ff169052565b9081526060810193926100d29290916040916109359060208301906118d4565b60019061257261018e828461087a565b61257b816108a3565b9061259460009261258e610b42856108ad565b116123bf565b818101936125a18561240e565b6125ad6109d385610939565b146125c9575b5050506100d291506125c490615120565b612be2565b612611939460206125dd610abe600561058c565b639507d39a906126066125ef856108a3565b926125f960405190565b998a948593849360e01b90565b835260048301612430565b03915afa948515610d6757849561288f575b5061262d846106a1565b8514612887578361271061271692612645888a6128da565b61268c6126788a6126558461244c565b61265e85612462565b61266786612478565b918d6126728861248e565b94614750565b929084612687848395976124a7565b6124cd565b8a61269681615120565b93600293876126a861018e888861087a565b01906126b3826124f0565b6126bf60ff83166109d3565b03612877575b50508b6127086126f57f8850140926f0260fe1b422b7a0d93e7d5734e521eae9ac8969ed512cc3834515946106a1565b946126ff60405190565b9384938461251e565b0390a261087a565b01610656565b9101926127228461088b565b61272e6107e9856106a1565b0361273c575b8493506125b3565b61276790612760846127586127538899979861088b565b612b31565b015160ff1690565b90846144e5565b6127746005939293610939565b60ff83161115612802575b505061278e610abe600761058c565b61279c6302acc94b9561088b565b90600695813b156100b757856127ba916127c58296610f5760405190565b855260048501612542565b03925af1918215610d67576100d2936125c4936127e5575b829450612734565b816127fb92903d10610d6057610d5181836101f1565b38806127dd565b61280f610abe600761058c565b6302acc94b9061281e8861088b565b91813b156100b75787610f6491612846829661283960405190565b9889978896879560e01b90565b03925af18015610d675761285b575b8061277f565b61287190843d8611610d6057610d5181836101f1565b38612855565b61288091612507565b38806126c5565b505050505050565b6128a891955060203d81116111315761112481836101f1565b9338612623565b905b908115611c33570490565b610b426128c891610334565b01906001600160401b03821161096d57565b6128e390615120565b6002906128f56000612710838561087a565b916000926129056109d385610939565b14612911575b50505050565b612939908360030193611f1361293161292987611869565b809887614d04565b94859361087a565b6129466109d36006610939565b03612953575b808061290b565b61297161296c42612966620143706106a1565b906128af565b6108ad565b9161297b826108a3565b612987610b4285610334565b146129ab575061299a6129a492826118bd565b611a7560016108ad565b388061294c565b6129c49250611a75906129be60016108ad565b906128bc565b6129a4565b61018e906129dd6107e961018e9460ff1690565b901b90565b61018e61018e61018e9263ffffffff1690565b90612aa390612a4e612a99610f366080610e4d612a7a612a54612a2f612a1f6122c18a5160ff1690565b612a2960f8610939565b906129c9565b612a4e612a44610f3660208c015161ffff1690565b612a2960e8610939565b906113d9565b612a4e612a70612a6b60408b015163ffffffff1690565b6129e2565b612a2960c8610939565b612a4e612a8f610f3660608a015161ffff1690565b612a2960b8610939565b612a2960a8610939565b90612ab1610abe600661058c565b90634848b1a591803b156100b7576115f060008094612ad26115e360405190565b03925af18015610d6757612ae35750565b6100d2906000610d5181836101f1565b61018e60a0610217565b612b05612af3565b9060008252602080808080860160005b815201600081520160008152016000905250565b61018e612afd565b6020612b5e91612b3f612b29565b50612b4d610abe600661058c565b610d1d630178fe3f6114a660405190565b03915afa8015610d6757612bac611b3c612b8761018e93612bb995600091612bc4575b506158c9565b979295909193612ba1612b98612af3565b60ff909a168a52565b61ffff166020890152565b63ffffffff166040870152565b61ffff166060850152565b612bdc915060203d81116111315761112481836101f1565b38612b81565b600280612bf261018e848361087a565b0190612bfd826108a3565b90600090612c0a826108ad565b612c1384610334565b03612c1f575050505050565b6020612c5093612c32610abe600561058c565b612606639507d39a612c4360405190565b9788948593849360e01b90565b03915afa928315610d67578293612d43575b50612c6c826106a1565b8314610c6a57612c82611a5c93612cd2966146c3565b9083612c9b61018e612c9384612d63565b93600161087a565b84810194612cae610b42610b3c886108a3565b14159283612d23575b83612d0c575b5082612cec575b5050612cdc575b50506108ad565b3880808080610c6a565b612ce5916118bd565b3880612ccb565b612cf792500161240e565b612d036109d385610939565b14158338612cc4565b909250612d1b6107e9836106a1565b149138612cbd565b9250612d30828201611c44565b612d3c610b42846108ad565b1492612cb7565b612d5c91935060203d81116111315761112481836101f1565b9138612c62565b6001612d7a6000612d74848461087a565b01611869565b91600090612d87826108ad565b612d9085610334565b14612e5157612db66020612da7610abe600561058c565b639507d39a90610ae060405190565b82528180612dc78a60048301612430565b03915afa908115610d67578391612e33575b50612de3836106a1565b8114612e2557612e1f612e1961018e96612e07610b4261089e88610b36898c61087a565b1494612e13858861087a565b0161240e565b946106a1565b916143cd565b5050905061018e91506106a1565b612e4b915060203d81116111315761112481836101f1565b38612dd9565b50905061018e91506106a1565b90612eb690612e6f815161ffff1690565b90612e7e602082015160ff1690565b604082015160ff16606083015161ffff1691612eb060a0612ea4608087015161ffff1690565b95015163ffffffff1690565b94615973565b90612ab1610abe600861058c565b61018e60c0610217565b612ed6612ec4565b906000825260208080808080870160008152016000612b15565b61018e612ece565b6020612f1491612f06612ef0565b50612b4d610abe600861058c565b03915afa908115610d6757612f7e612f89612f69612f41612f739561018e95600091612f96575b506159e2565b979499929193612f5f612f55979297612ec4565b61ffff909c168c52565b60ff1660208b0152565b60ff166040890152565b61ffff166060870152565b61ffff166080850152565b63ffffffff1660a0830152565b612fae915060203d81116111315761112481836101f1565b38612f3b565b61018e6000610939565b61018e6001610939565b61018e6002610939565b61018e6003610939565b60070b60016001603f1b0319811461096d576000190190565b60070b60016001603f1b03811461096d5760010190565b939190925b6001821161301d575050565b909192808204811161096d576001831661303f575b8002929160011c90613011565b93840293613032565b92919281156130cb5780156130c35780806001146130ba576002146130a55760208210610133821016604e8310600b8310161761309b579261308e91819394600161300c565b809204811161096d570290565b0a91821161096d57565b5060ff811161096d5760020a91821161096d57565b50600193505050565b506000925050565b506001925050565b61018e916130e66109d360ff9360ff1690565b90613048565b61018e9060c81c610650565b61018e90546130ec565b6128b19060ff166109d3565b6131178261424e565b5090918281613124612fb4565b61313060ff8a166109d3565b0361338257505061314361314a93612fdc565b905b6142ca565b91600193600061316a61018e8661316461018e878b61087a565b9861087a565b95016000613177826108a3565b9601613182816108a3565b9061318d6002610939565b976131bb6131a58a61319f88826130d3565b976109cb565b996131b560049b611e5f8d610939565b906130d3565b926131c581610334565b6131ce83610334565b108015613368575b156132915750505050816131e9826130f8565b166131f660ff84166109d3565b146132435750505050506105d991505b60405162461bcd60e51b8152918291820160208082526012908201527163616e74206d6f766520746869732077617960701b604082015260600190565b8495506109d38261326c61325c613274949897986130f8565b6132666010610939565b90613102565b169260ff1690565b14613280575b50505090565b613289926134b7565b38818161327a565b610b426132a391969496959395610334565b11156132d6575050816132b5826130f8565b166132c260ff84166109d3565b146132435750505050506105d99150613206565b816132e0826130f8565b166132ed60ff84166109d3565b14801561334a575b61330a57505050505050506105d99150613206565b86975061331687969790565b8511156133325750506109d38261326c61325c613274946130f8565b81935061327492509061326c61325c6109d3936130f8565b5083613355846130f8565b1661336260ff86166109d3565b146132f5565b5061337360006108ad565b61337c82610334565b146131d6565b61338a612fbe565b61339660ff8a166109d3565b036133aa5750509161314561314a93612ff5565b90936133b4612fc8565b6133c060ff8a166109d3565b036133d357505061314361314a93612ff5565b915092506133df612fd2565b6133eb60ff88166109d3565b036133fc5761314561314a93612fdc565b60405162461bcd60e51b815260206004820152601460248201527334b6b837b9b9b4b13632903234b932b1ba34b7b760611b6044820152606490fd5b61018e6007610939565b9081526040810192916100d2916020906116b9565b1561345e57565b60405162461bcd60e51b81526020600482015260066024820152656e6f206b657960d01b6044820152606490fd5b9081526060810193926100d29290916040916118ee90610a41565b90611cf761018e61171692151590565b91818181116135f1575b506134d46134d08284866135fa565b1590565b6134dd57505050565b613507906134ee610abe600761058c565b602063b30dc7ca6134fd613438565b9261108960405190565b82528180613519868b60048401613442565b03915afa928315610d67576000936135d1575b5061354560009361353f6107e9866106a1565b11613457565b613552610abe600761058c565b6001949063c9b902e3813b156100b7578591613577838a936135828b6112b760405190565b85526004850161348c565b03925af18015610d67576100d2966135af956135aa946135aa936135b4575b5050600b61087a565b61087a565b6134a7565b816135ca92903d10610d6057610d5181836101f1565b38806135a1565b6135ea91935060203d81116111315761112481836101f1565b913861352c565b915090386134c1565b916135aa6107c7926135aa61018e95613611600090565b50600b61087a565b905051906100d282610340565b906020828203126100b75761018e91613619565b61018e9081906001600160a01b031681565b61018e6008610939565b6040906118ee6100d29496959396610a41606084019860008501906113f0565b9160206100d29294936118ee60408201966000830190610a21565b90611c28565b6102d690610334565b6020810192916100d29190613697565b90916000926136c261018e848661087a565b6001918582016136dd61018e6136d78361088b565b8661087a565b966136eb61018e848761087a565b906000818301926136fb846108a3565b613707610b42856108ad565b036138fa5750613718888a87613e46565b61372185615120565b600261373061018e838361087a565b0161373a816108a3565b613746610b42866108ad565b14806138d3575b6137a9575b50505091611f0e61378e979695949284611f13956100d29c019061377b610b42610b3c84611c44565b11613793575b50611f08611f0382611c44565b613ba5565b80611f08611f366137a393611c44565b38613781565b6137b2846108ad565b6137bb84610334565b14613836575b92806100d29c8461378e9c9b9a9997946137e2611f0e97611f139b996118bd565b61382261380f7f644c4d4ff52c1efcb89d373879c1d7e01d3f8b7e60cc19f9bdf5da38cd90c14d926106a1565b9261381960405190565b918291826136a0565b0390a29c5093955081949697989950613752565b989796959390949261386192506020613852610abe600561058c565b63338cdca19061108960405190565b8252600490829085905af18015610d67576100d29c61378e9b611f13986137e28594611f0e9886916138a5575b509750509497999a9b9c5092509c509395506137c1565b6138c6915060203d81116138cc575b6138be81836101f1565b810190613626565b3861388e565b503d6138b4565b506138e8436138e260036106a1565b90613691565b6138f46107e9866106a1565b1461374d565b61390384611869565b61390f610b42856108ad565b149081613b6d575b81613b4b575b5080613ae9575b613a5d575b61393285612562565b61393b85613ca0565b6139476105f7846113d0565b613950826101b9565b141580613a14575b613963575b50613718565b613970610abe600761058c565b9063a41dab8161397e61364c565b92803b156100b7578a869161399a836139a795610d1060405190565b83528a8a60048501613656565b03925af18015610d67576139f8575b50600080516020615b37833981519152896139d96139d38a6106a1565b9361062a565b936139ef6139e660405190565b92839283613676565b0390a33861395d565b613a0e90853d8711610d6057610d5181836101f1565b386139b6565b50613a26613a2182610621565b61363a565b613a3960208c611495610abe600661058c565b03915afa908115610d6757613a56916107e9918791611623575090565b1415613958565b50613a7f6020613a70610abe600561058c565b63338cdca190610ae060405190565b8252600490829086905af1908115610d67578291613acb575b5080613aa384611869565b613aaf610b42856108ad565b14613abb575b50613929565b613ac59084611897565b38613ab5565b613ae3915060203d81116138cc576138be81836101f1565b38613a98565b50613afc60206119b4610abe600961058c565b82526004820189905260249082905afa908115610d67578391613b2d575b50613b276107e9846106a1565b14613924565b613b45915060203d81116111315761112481836101f1565b38613b1a565b613b5891506002016108a3565b613b65610b4260026108ad565b14153861391d565b9050613b7884611c44565b613b84610b42856108ad565b1490613917565b613b989061ffff16610c24565b019061ffff821161096d57565b613bae81612b31565b6080810191613bbf835161ffff1690565b613bd4610c24610a09606086015161ffff1690565b10613bde57505050565b610bcf6100d293611e22613bf26001610a61565b825161ffff16613b8b565b905051906100d2826101c5565b906020828203126100b75761018e91613bfd565b6020613c4b91613c2c600090565b50613c3a610abe600961058c565b610d1d636352211e6114a660405190565b03915afa908115610d6757600091613c72575b50613c6e6105fc6105f73061062a565b1490565b613c93915060203d8111613c99575b613c8b81836101f1565b810190613c0a565b38613c5e565b503d613c81565b613ca981613c1e565b15613d11576020613cd291613cc1610abe600961058c565b610d1d6369f648a16114a660405190565b03915afa908115610d675761018e9161150c91600091613cf3575b506113c3565b613d0b915060203d81116111315761112481836101f1565b38613ced565b5061018e60006113d0565b61018e9060181c610650565b61018e9054613d1c565b9062ff00009060101b6116e5565b90613d5061018e61171692611cd7565b8254613d32565b9060ff60c01b9060c01b6116e5565b90613d7661018e61171692611cd7565b8254613d57565b9060ff60d81b9060d81b6116e5565b90613d9c61018e61171692611cd7565b8254613d7d565b9063ff0000009060181b6116e5565b90613dc261018e61171692611cd7565b8254613da3565b9060ff60e81b9060e81b6116e5565b90613de861018e61171692611cd7565b8254613dc9565b61018e9060101c610650565b61018e9054613def565b9060ff60e01b9060e01b6116e5565b90613e2461018e61171692611cd7565b8254613e05565b9160206100d292949361253960408201966000830190613697565b90613e5e61018e6002613e5885615120565b9061087a565b9260018401613e6c8161088b565b90600091613e7c6107e9846106a1565b11614149575b50613e90610abe600761058c565b9463c9b902e3613e9e61364c565b613ea78761467c565b97803b156100b757613ece858094613eda613ec160405190565b9c8d968795869460e01b90565b84528c60048501610a2a565b03925af1958615610d6757613f269661412d575b50600190613eff61018e878461087a565b6020613f0e610abe600561058c565b63338cdca190613f1d60405190565b9a8b9260e01b90565b8252600490829088905af1978815610d67578498614103575b5090858383868a96950197613f548c8a6118bd565b613f5e8c8a611897565b613f689089613d66565b868401613f74816124f0565b613f7e908a613d8c565b613f8781613d28565b613f908161095c565b613f9a9083613db2565b613fa4908a613dd8565b613fad90613dfb565b613fb79089613e14565b0190613fc291611cb7565b0190613fcd91611cb7565b613fd7600661058c565b613fe09061062a565b633038bb08613fee60405190565b8095613ffb829360e01b90565b82526004909101526024815a93602094fa928315610d675781936140e3575b506140248361419e565b614031610abe600961058c565b92636611a8d490843b156100b75761406b9461405f84809461405260405190565b9889958694859360e01b90565b83528b60048401610922565b03925af1928315610d6757614086936140c6575b505061244c565b6140b07fa97399cd19a5b00b49b7d10d188180e100139a0501c9c9b4fe21dab5b915162f926106a1565b92611b686140bd60405190565b92839283613e2b565b816140dc92903d10610d6057610d5181836101f1565b388061407f565b6140fc91935060203d81116111315761112481836101f1565b913861401a565b83889493929950614122889260203d81116138cc576138be81836101f1565b999293509350613f3f565b61414390833d8511610d6057610d5181836101f1565b38613eee565b8061415961116161417d9361088b565b61416e83880161416881613d28565b90613d40565b614177836106a1565b90611cb7565b38613e82565b9160206100d2929493610935604082019660008301906118d4565b6141aa61150c826113c3565b6000916141b96107e9846106a1565b141580614228575b6141c9575050565b6141d942612a4e620697806106a1565b6141e881611f0e84600d610633565b6142127fc24affdb20f6529973515c5398461c1f6228edbfac531ab49e56a11433a86c9f9261062a565b92611b6861421f60405190565b92839283614183565b5061423c61423782600d610633565b61088b565b6142486107e9846106a1565b146141c1565b9061425b611da8836108ad565b91614278611da861296c614272600160401b6106a1565b846128af565b9161018e61296c614299611da882614293600160801b6106a1565b876128af565b93612966600160ff1b6106a1565b61089e61018e61018e9260070b90565b8181029291811591840414171561096d57565b90614305614335612a4e92612a4e61432861430561432261018e996142ed600090565b5061431d6117ad61430a614305600160ff1b946142a7565b612418565b614317600160801b6106a1565b906142b7565b6113d9565b936142a7565b614317600160401b6106a1565b926142a7565b61018e600160ff1b6106a1565b9190820391821161096d57565b61018e600160fe1b6106a1565b61438061018e91614371600090565b5061437a61433b565b90614348565b612a4e614355565b61018e600f610939565b6102d69060ff1660f81b90565b600193926143bc6020836143b68295610247979052565b01918252565b018092614392565b61018e906106a1565b9290936143d8600090565b506143e76109d3610650612fbe565b036144cd576143f4614388565b80916144b8575b506144646107e961445e6144546144126006610939565b61443c61441e60405190565b809261443060208301918d8d8461439f565b908103825203826101f1565b61444e614447825190565b9160200190565b206143c4565b6138e260646106a1565b92610972565b106144765750505061018e60006106a1565b6144a96144ae9261443c61018e9561448e6007610939565b9261443061449b60405190565b94859360208501938461439f565b613691565b612a4e60016106a1565b6144c79150611e4f600a610939565b386143fb565b5050505061018e60006106a1565b61018e6019610939565b909290916144f360006106a1565b9361450c6145018686614eb5565b6129666122c16144db565b85811461466c575b60029061455c61452c614526846106a1565b836128af565b612a4e836144a961443061443c6145436064610939565b8d61454d60405190565b9384928d60208501938461439f565b9587871461465a575b61456d612fc8565b61457960ff87166109d3565b14614632575b91612a4e916145c094936008614594816106a1565b8311614612575b5061443c6145b56145af6144a994956106a1565b856128af565b9561448e6065610939565b938414614600575b6145dd6109d36145d6612fbe565b9260ff1690565b146145e457565b916145fd90612a4e6145f76122c161168b565b826128af565b91565b925061460c60016106a1565b926145c8565b6144a992506145b56145af61462961443c936106a1565b9450505061459b565b9591612a4e9161464e6145c09594612a4e6145f76122c161168b565b9791939450915061457f565b955061466660016106a1565b95614565565b5061467760016106a1565b614514565b61468761018e61433b565b8103614698575061018e60006106a1565b6146af61018e916146a960006106a1565b90614eb5565b61431d6117ad6001926129666122c16144db565b6147459161473f6147166146f86146da6066610939565b61443c6146e660405190565b80926144306020830191898b8461439f565b6138e26117ad61443061443c61471b6147166009966138e2886106a1565b610939565b976147266067610939565b9061473060405190565b93849260208401928d8461439f565b916151f1565b9061018e60026108ad565b9594929061476c6103ea9593614764600090565b5082896152a7565b9661477c565b61018e6005610939565b9493600061479461478c88615120565b95949761424e565b5050600093916147a66117fc86610aa1565b149081614c5e575b50156147d1575050505050506147c2612fc8565b916147cd6001610939565b1790565b95909691929394965b60ff87165b60ff871611614c5457506147f36003610939565b61483e6147166148348761443c8a8d6144308861480f60405190565b958694602086019485926143bc6001610247946143b66020886143bc859b9a83999052565b6138e260146106a1565b9061486061484c6001610939565b851661485b6109d36001610939565b141590565b908180614c2b575b15614899575050506147df61489061487e612fc8565b936148896001610939565b179661095c565b959290506147da565b6148b56148a66002610939565b861661485b6109d36002610939565b918280614bdd575b156148df57505050506147df6148906148d4612fd2565b936148896002610939565b6148fb6148ec6004610939565b871661485b6109d36004610939565b918280614b3a575b156149265750505050506147df61489061491b61168b565b936148896004610939565b6149426149336008610939565b881661485b6109d36008610939565b9485614985575b505050505060001461496e576147df614890614963614772565b936148896008610939565b6147df61489061497f969396612fbe565b9361095c565b61499491929394955060ff1690565b14928315614b23575b8315614aff575b8315614adb575b8315614ab7575b8315614a86575b8315614a55575b8315614a24575b83156149db575b5050503880808080614949565b909192506149e9604d610939565b60ff8916149283614a1c575b5082614a14575b5081614a0c575b503880806149ce565b905038614a03565b9150386149fc565b9250386149f5565b9250614a30604e610939565b60ff89161480614a4e575b80614a47575b926149c7565b5082614a41565b5081614a3b565b9250614a61604e610939565b60ff89161480614a7f575b80614a78575b926149c0565b5081614a72565b5080614a6c565b9250614a92604e610939565b60ff89161480614ab0575b80614aa9575b926149b9565b5082614aa3565b5080614a9d565b9250614ac3604f610939565b60ff89161480614ad4575b926149b2565b5081614ace565b9250614ae7604f610939565b60ff89161480614af8575b926149ab565b5082614af2565b9250614b0b604f610939565b60ff89161480614b1c575b926149a4565b5080614b16565b9250614b2f6050610939565b60ff8916149261499d565b50614b456002610939565b60ff8616148015614bc8575b8015614bab575b8015614b8e575b806149035750614b6f604e610939565b60ff8b161480614b87575b8015614903575083614903565b5081614b7a565b50614b99604f610939565b60ff8b16148015614b5f575083614b5f565b50614bb6604f610939565b60ff8b16148015614b58575081614b58565b50614bd36050610939565b60ff8b1614614b51565b50614be86001610939565b60ff8516148015614c16575b806148bd5750614c04604f610939565b60ff8a161480156148bd5750806148bd565b50614c216050610939565b60ff8a1614614bf4565b50614c3586610939565b60ff841614806148685750614c4a6050610939565b60ff891614614868565b9650935093505050565b9050614c6c6117fc85610aa1565b14386147ae565b61018e600a610939565b61089e61018e61018e9260ff1690565b610b42614c9991610334565b0290614ca482610334565b91820361096d57565b61018e6064610a61565b610a0961018e61018e9260ff1690565b614cd39060070b6117fc565b908115611c33570790565b614cee61018e61018e9260070b90565b60000b90565b61065061018e61018e9260000b90565b91614d0e8361506b565b908115614e30575b5015614d2857505061018e6006610939565b614d47614305614d3784614fd1565b614d4160096108ad565b90614c8d565b614d5160006106a1565b8111614e1d575b614d666107e96122c16144db565b10614e1157614716614d9e61443061443c614da994614d85600c610939565b90614d8f60405190565b93849260208401928a8461439f565b6138e26127106106a1565b614dbd614db7610a09614cad565b91614cb7565b11614e0657614dce61018e9161424e565b50915050614e01614dfb614df6614df1600194614deb6005610aa1565b90614cc7565b614cde565b614cf4565b91610939565b6109cb565b5061018e6006610939565b505061018e6006610939565b614e2b9061437a60046106a1565b614d58565b9050614e45610b42614e40614c73565b614c7d565b101538614d16565b614e599060070b6117fc565b90039060016001603f1b0319821260016001603f1b0383131761096d57565b61018e61018e61018e9260070b90565b600160ff1b811461096d5760000390565b9190808303926000909112801582851316918412161761096d57565b614ee7614ee2614ed0614eda93614eca600090565b5061424e565b505093909461424e565b505094614e4d565b614e78565b91600091614ef4836106a1565b8412614f9a575b614ee2614f0b926117ad92614e4d565b8112614f8c575b6001603f1b614f20816106a1565b8313614f6e575b614f30906106a1565b8113614f53575b80821315614f49575061018e906106a1565b61018e91506106a1565b614f6990614f64600160401b6106a1565b614e99565b614f37565b91614f3090614f8490614f64600160401b6106a1565b929050614f27565b614f9590614e88565b614f12565b92614ee2614f0b92614fae6117ad93614e88565b959250925050614efb565b60070b60016001603f1b0319811461096d5760000390565b614fdc906000614eca565b50819050600083614fec82610aa1565b614ff68260070b90565b12615055575b5061500690610aa1565b6150108260070b90565b12615045575b506150218160070b90565b61502b8360070b90565b131561503b575061018e906142a7565b61018e91506142a7565b61504f9150614fb9565b38615016565b61500691945061506490614fb9565b9390614ffc565b615076906000614eca565b50506000199161508583610aa1565b61508f8260070b90565b121592836150d6575b50826150bd575b50816150a9575090565b90506150b86117fc6001610aa1565b131590565b9091506150cd6117fc6001610aa1565b1315903861509f565b6150e1919350610aa1565b6150eb8260070b90565b12159138615098565b6151009060070b6117fc565b908115611c335760016001603f1b0319811460001983141661096d570590565b61518061018e91615138615132600090565b9161424e565b5093909160009061514882610aa1565b6151528260070b90565b126151c15761516861517891611dad6004610aa1565b6151726009610aa1565b906150f4565b935b50610aa1565b61518a8260070b90565b126151a05761516861314391611dad6004610aa1565b6151bc6151686151b261314393614fb9565b611dad6004610aa1565b614fb9565b6151bc6151686151b26151d393614fb9565b9361517a565b6151e59060070b6117fc565b0290614ca48260070b90565b61314361018e93611dad611da86152516152579661524b61525d61523561522f61522061522f9b614eca600090565b509d9160099491949d8e610aa1565b906151d9565b95611dad611da861525160049961524b8b610aa1565b90614e4d565b92614c7d565b9a610aa1565b91610aa1565b61018e6057610939565b61018e6028610939565b6152839060ff166109d3565b90039060ff821161096d57565b61529c9060ff166109d3565b029060ff8216614ca4565b906000926152b484610939565b906152bd61168b565b6152c960ff83166109d3565b0361557b5750506152da600f610939565b925b6153076152e9606f610939565b61443c6152f560405190565b80926144306020830191888a8461439f565b6153196147166064926138e2846106a1565b9061533661065061532861526d565b61533184610939565b615277565b60ff8316101561553f57505061534b90610939565b905b60049161535983610939565b60ff8216106153845750506147cd915061537f614dfb600f926131b5614dfb6002610939565b615290565b600361538f81610939565b60ff83160361543a5750506153c26147166153b96153dc949561443c6153cc9561448e6070610939565b6138e2866106a1565b611e4f6001610939565b6153d66007610939565b90615290565b6153e66015610939565b60ff82160361540a57506147cd9061537f614dfb600d926131b5614dfb6002610939565b6154176109d3601c610939565b14615420575090565b6147cd9061537f614dfb600b926131b5614dfb6002610939565b909160029261544884610939565b60ff8216036154da5750614dfb6153c261471661547561547f96979861443c6153d69661448e6070610939565b6138e260066106a1565b615489600f610939565b60ff8216036154ab575061537f614dfb6147cd936131b5614dfb600595610939565b6154b86109d36012610939565b146154c257505090565b61537f614dfb6147cd936131b5614dfb600a95610939565b909291506154eb6109d36001610939565b146154f8575b5050505090565b6131b561552861552e61552861471661551f6155359961443c6153d69961448e6070610939565b6138e2896106a1565b93610939565b92836130d3565b17388080806154f1565b6109d361065061555492615331614dfb614c73565b1015905061556c576155666001610939565b9061534d565b6155766002610939565b615566565b615586949194615263565b906155916001610939565b916155b261559e60405190565b61443c8160208101614430888b8d8461439f565b906155cb6109d36106506147166064956138e2876106a1565b11615881575b908492916155dd61526d565b6156126109d36106506147166156098c61443c6155fa6002610939565b9b8c9261443061449b60405190565b6138e2876106a1565b11615621575b505050506152dc565b869061562f989495986144db565b8761563a6003610939565b916156686109d361065061471661551f61565360405190565b61443c818c6144308c8c60208501938461439f565b1115615721575050505061567a612fb4565b61568660ff83166109d3565b148015615706575b156156ac57505061569f6008610939565b1717925b38808080615618565b90919592506156b9612fbe565b6156c560ff83166109d3565b149081156156ef575b506156da575b506156a3565b9093176156e76004610939565b1792386156d4565b90506156ff6109d36145d6612fd2565b14386156ce565b5061570f612fc8565b61571b60ff83166109d3565b1461568e565b61471661574b936138e26117ad614dfb9561443c6106509660329e9c9e9a61443061449b60405190565b11156157e857615759612fb4565b61576560ff83166109d3565b0361577f57505090506157786008610939565b17926156a3565b615787612fbe565b61579360ff83166109d3565b036157a257505017925b6156a3565b9092506157ad612fc8565b6157b960ff83166109d3565b036157c6575017926156a3565b909491506157d86109d36145d6612fd2565b0361579d57926157786004610939565b6157f3939193612fb4565b6157ff60ff83166109d3565b0361580d57505017926156a3565b90919250615819612fbe565b61582560ff83166109d3565b036158365750506157786004610939565b61583e612fc8565b61584a60ff83166109d3565b0361585b5750506157786008610939565b61586c6109d36145d6979497612fd2565b1461587757506156a3565b90931792386156d4565b9550908161589985936158946002610939565b6130d3565b96909192506155d1565b61018e906158b76107e961018e9460ff1690565b901c90565b610a7f61018e61018e9290565b906158e06147166158da60f8610939565b846158a3565b916158f46158ee60e8610939565b826158a3565b61590d61590862010000926138e2846106a1565b610a61565b9361597061590861593f61593a61592d61592760c8610939565b886158a3565b6138e2600160201b6106a1565b6158bc565b936138e26117ad61595f6159086153b961595960b8610939565b8b6158a3565b9761596a60a8610939565b906158a3565b93565b6159d26159b8612a4e95612a4e6159c86159b861018e9b9a97612a4e6159be61445e612a4e9a612a4e612a446159dc9f612a1f6159b8916159b2600090565b50610972565b92610a10565b612a2960e0610939565b612a2960d0610939565b612a2960c0610939565b916129e2565b906159f36147166158da60f8610939565b615a006158da60e8610939565b615a1461590862010000926138e2846106a1565b93615a33614716615a286158da60e0610939565b6138e26101006106a1565b9361018e61593a615a73615908615a62615908615a59615a5360d0610939565b896158a3565b6138e28a6106a1565b966138e26117ad615a5360c0610939565b936138e2600160201b6106a1565b91615a9b611da8615aa09394615a95600090565b50611bac565b611bcc565b90615ab0610a5b611da883611bac565b615aba8360070b90565b13615af157506000615acb81610aa1565b615ad58360070b90565b13615ae45761018e9150610a61565b5061100761018e91611bf6565b90509056fed02b8bdc1eb9eb4a85fe2b27c68fbe1eec04f697f660cc4cf3bb2cee4456f4903042d0c278ec3b2d8bf290d27da7bb56226996146c187fc01f6f448b6283da7241d17e4a29add7df9dab104b7b914e73209c448b1fd78b8ca04efc5e24df1abba26469706673582212208db1d69fc9665611611879b85eb6f758dacd3847039c6db8a23699fb4611f43d64736f6c63430008140033",
  "devdoc": {
    "kind": "dev",
    "methods": {},
    "version": 1
  },
  "userdoc": {
    "kind": "user",
    "methods": {},
    "version": 1
  },
  "storageLayout": {
    "storage": [
      {
        "astId": 3448,
        "contract": "src/dungeon/DungeonAdminFacet.sol:DungeonAdminFacet",
        "label": "_characters",
        "offset": 0,
        "slot": "0",
        "type": "t_mapping(t_uint256,t_struct(Character)3430_storage)"
      },
      {
        "astId": 3453,
        "contract": "src/dungeon/DungeonAdminFacet.sol:DungeonAdminFacet",
        "label": "_rooms",
        "offset": 0,
        "slot": "1",
        "type": "t_mapping(t_uint256,t_struct(Room)3413_storage)"
      },
      {
        "astId": 3458,
        "contract": "src/dungeon/DungeonAdminFacet.sol:DungeonAdminFacet",
        "label": "_areas",
        "offset": 0,
        "slot": "2",
        "type": "t_mapping(t_uint256,t_struct(Area)3443_storage)"
      },
      {
        "astId": 3466,
        "contract": "src/dungeon/DungeonAdminFacet.sol:DungeonAdminFacet",
        "label": "_areaCounter",
        "offset": 0,
        "slot": "3",
        "type": "t_struct(AreaCounter)3463_storage"
      },
      {
        "astId": 3468,
        "contract": "src/dungeon/DungeonAdminFacet.sol:DungeonAdminFacet",
        "label": "_adminContract",
        "offset": 0,
        "slot": "4",
        "type": "t_address"
      },
      {
        "astId": 3471,
        "contract": "src/dungeon/DungeonAdminFacet.sol:DungeonAdminFacet",
        "label": "_blockHashRegister",
        "offset": 0,
        "slot": "5",
        "type": "t_contract(BlockHashRegister)14269"
      },
      {
        "astId": 3474,
        "contract": "src/dungeon/DungeonAdminFacet.sol:DungeonAdminFacet",
        "label": "_charactersContract",
        "offset": 0,
        "slot": "6",
        "type": "t_contract(Characters)743"
      },
      {
        "astId": 3477,
        "contract": "src/dungeon/DungeonAdminFacet.sol:DungeonAdminFacet",
        "label": "_elementsContract",
        "offset": 0,
        "slot": "7",
        "type": "t_contract(Elements)13818"
      },
      {
        "astId": 3480,
        "contract": "src/dungeon/DungeonAdminFacet.sol:DungeonAdminFacet",
        "label": "_gearsContract",
        "offset": 0,
        "slot": "8",
        "type": "t_contract(Gears)13837"
      },
      {
        "astId": 3483,
        "contract": "src/dungeon/DungeonAdminFacet.sol:DungeonAdminFacet",
        "label": "_roomsContract",
        "offset": 0,
        "slot": "9",
        "type": "t_contract(Rooms)13904"
      },
      {
        "astId": 3486,
        "contract": "src/dungeon/DungeonAdminFacet.sol:DungeonAdminFacet",
        "label": "_playerContract",
        "offset": 0,
        "slot": "10",
        "type": "t_contract(Player)11695"
      },
      {
        "astId": 3494,
        "contract": "src/dungeon/DungeonAdminFacet.sol:DungeonAdminFacet",
        "label": "_unlockedExits",
        "offset": 0,
        "slot": "11",
        "type": "t_mapping(t_uint256,t_mapping(t_uint256,t_mapping(t_uint256,t_bool)))"
      },
      {
        "astId": 3506,
        "contract": "src/dungeon/DungeonAdminFacet.sol:DungeonAdminFacet",
        "label": "_quests",
        "offset": 0,
        "slot": "12",
        "type": "t_mapping(t_uint256,t_mapping(t_uint64,t_struct(Quest)3499_storage))"
      },
      {
        "astId": 3510,
        "contract": "src/dungeon/DungeonAdminFacet.sol:DungeonAdminFacet",
        "label": "_taxDueDate",
        "offset": 0,
        "slot": "13",
        "type": "t_mapping(t_address,t_uint256)"
      },
      {
        "astId": 3514,
        "contract": "src/dungeon/DungeonAdminFacet.sol:DungeonAdminFacet",
        "label": "_customRoomNames",
        "offset": 0,
        "slot": "14",
        "type": "t_mapping(t_uint256,t_string_storage)"
      },
      {
        "astId": 3518,
        "contract": "src/dungeon/DungeonAdminFacet.sol:DungeonAdminFacet",
        "label": "_allowedForwardTargets",
        "offset": 0,
        "slot": "15",
        "type": "t_mapping(t_address,t_bool)"
      },
      {
        "astId": 3524,
        "contract": "src/dungeon/DungeonAdminFacet.sol:DungeonAdminFacet",
        "label": "_allowedForwardSelectors",
        "offset": 0,
        "slot": "16",
        "type": "t_mapping(t_address,t_mapping(t_bytes4,t_bool))"
      }
    ],
    "types": {
      "t_address": {
        "encoding": "inplace",
        "label": "address",
        "numberOfBytes": "20"
      },
      "t_bool": {
        "encoding": "inplace",
        "label": "bool",
        "numberOfBytes": "1"
      },
      "t_bytes4": {
        "encoding": "inplace",
        "label": "bytes4",
        "numberOfBytes": "4"
      },
      "t_contract(BlockHashRegister)14269": {
        "encoding": "inplace",
        "label": "contract BlockHashRegister",
        "numberOfBytes": "20"
      },
      "t_contract(Characters)743": {
        "encoding": "inplace",
        "label": "contract Characters",
        "numberOfBytes": "20"
      },
      "t_contract(Elements)13818": {
        "encoding": "inplace",
        "label": "contract Elements",
        "numberOfBytes": "20"
      },
      "t_contract(Gears)13837": {
        "encoding": "inplace",
        "label": "contract Gears",
        "numberOfBytes": "20"
      },
      "t_contract(Player)11695": {
        "encoding": "inplace",
        "label": "contract Player",
        "numberOfBytes": "20"
      },
      "t_contract(Rooms)13904": {
        "encoding": "inplace",
        "label": "contract Rooms",
        "numberOfBytes": "20"
      },
      "t_int64": {
        "encoding": "inplace",
        "label": "int64",
        "numberOfBytes": "8"
      },
      "t_mapping(t_address,t_bool)": {
        "encoding": "mapping",
        "key": "t_address",
        "label": "mapping(address => bool)",
        "numberOfBytes": "32",
        "value": "t_bool"
      },
      "t_mapping(t_address,t_mapping(t_bytes4,t_bool))": {
        "encoding": "mapping",
        "key": "t_address",
        "label": "mapping(address => mapping(bytes4 => bool))",
        "numberOfBytes": "32",
        "value": "t_mapping(t_bytes4,t_bool)"
      },
      "t_mapping(t_address,t_uint256)": {
        "encoding": "mapping",
        "key": "t_address",
        "label": "mapping(address => uint256)",
        "numberOfBytes": "32",
        "value": "t_uint256"
      },
      "t_mapping(t_bytes4,t_bool)": {
        "encoding": "mapping",
        "key": "t_bytes4",
        "label": "mapping(bytes4 => bool)",
        "numberOfBytes": "32",
        "value": "t_bool"
      },
      "t_mapping(t_uint256,t_bool)": {
        "encoding": "mapping",
        "key": "t_uint256",
        "label": "mapping(uint256 => bool)",
        "numberOfBytes": "32",
        "value": "t_bool"
      },
      "t_mapping(t_uint256,t_mapping(t_uint256,t_bool))": {
        "encoding": "mapping",
        "key": "t_uint256",
        "label": "mapping(uint256 => mapping(uint256 => bool))",
        "numberOfBytes": "32",
        "value": "t_mapping(t_uint256,t_bool)"
      },
      "t_mapping(t_uint256,t_mapping(t_uint256,t_mapping(t_uint256,t_bool)))": {
        "encoding": "mapping",
        "key": "t_uint256",
        "label": "mapping(uint256 => mapping(uint256 => mapping(uint256 => bool)))",
        "numberOfBytes": "32",
        "value": "t_mapping(t_uint256,t_mapping(t_uint256,t_bool))"
      },
      "t_mapping(t_uint256,t_mapping(t_uint64,t_struct(Quest)3499_storage))": {
        "encoding": "mapping",
        "key": "t_uint256",
        "label": "mapping(uint256 => mapping(uint64 => struct DungeonDataLayout.Quest))",
        "numberOfBytes": "32",
        "value": "t_mapping(t_uint64,t_struct(Quest)3499_storage)"
      },
      "t_mapping(t_uint256,t_string_storage)": {
        "encoding": "mapping",
        "key": "t_uint256",
        "label": "mapping(uint256 => string)",
        "numberOfBytes": "32",
        "value": "t_string_storage"
      },
      "t_mapping(t_uint256,t_struct(Area)3443_storage)": {
        "encoding": "mapping",
        "key": "t_uint256",
        "label": "mapping(uint256 => struct DungeonDataLayout.Area)",
        "numberOfBytes": "32",
        "value": "t_struct(Area)3443_storage"
      },
      "t_mapping(t_uint256,t_struct(Character)3430_storage)": {
        "encoding": "mapping",
        "key": "t_uint256",
        "label": "mapping(uint256 => struct DungeonDataLayout.Character)",
        "numberOfBytes": "32",
        "value": "t_struct(Character)3430_storage"
      },
      "t_mapping(t_uint256,t_struct(Room)3413_storage)": {
        "encoding": "mapping",
        "key": "t_uint256",
        "label": "mapping(uint256 => struct DungeonDataLayout.Room)",
        "numberOfBytes": "32",
        "value": "t_struct(Room)3413_storage"
      },
      "t_mapping(t_uint64,t_struct(Quest)3499_storage)": {
        "encoding": "mapping",
        "key": "t_uint64",
        "label": "mapping(uint64 => struct DungeonDataLayout.Quest)",
        "numberOfBytes": "32",
        "value": "t_struct(Quest)3499_storage"
      },
      "t_string_storage": {
        "encoding": "bytes",
        "label": "string",
        "numberOfBytes": "32"
      },
      "t_struct(Area)3443_storage": {
        "encoding": "inplace",
        "label": "struct DungeonDataLayout.Area",
        "members": [
          {
            "astId": 3432,
            "contract": "src/dungeon/DungeonAdminFacet.sol:DungeonAdminFacet",
            "label": "areaType",
            "offset": 0,
            "slot": "0",
            "type": "t_uint8"
          },
          {
            "astId": 3434,
            "contract": "src/dungeon/DungeonAdminFacet.sol:DungeonAdminFacet",
            "label": "discovered",
            "offset": 1,
            "slot": "0",
            "type": "t_uint8"
          },
          {
            "astId": 3436,
            "contract": "src/dungeon/DungeonAdminFacet.sol:DungeonAdminFacet",
            "label": "lastRoomIndex",
            "offset": 2,
            "slot": "0",
            "type": "t_uint8"
          },
          {
            "astId": 3438,
            "contract": "src/dungeon/DungeonAdminFacet.sol:DungeonAdminFacet",
            "label": "currentIndex",
            "offset": 3,
            "slot": "0",
            "type": "t_uint8"
          },
          {
            "astId": 3440,
            "contract": "src/dungeon/DungeonAdminFacet.sol:DungeonAdminFacet",
            "label": "lastRoom",
            "offset": 0,
            "slot": "1",
            "type": "t_uint256"
          },
          {
            "astId": 3442,
            "contract": "src/dungeon/DungeonAdminFacet.sol:DungeonAdminFacet",
            "label": "eventBlockNumber",
            "offset": 0,
            "slot": "2",
            "type": "t_uint64"
          }
        ],
        "numberOfBytes": "96"
      },
      "t_struct(AreaCounter)3463_storage": {
        "encoding": "inplace",
        "label": "struct DungeonDataLayout.AreaCounter",
        "members": [
          {
            "astId": 3460,
            "contract": "src/dungeon/DungeonAdminFacet.sol:DungeonAdminFacet",
            "label": "lastPeriod",
            "offset": 0,
            "slot": "0",
            "type": "t_uint64"
          },
          {
            "astId": 3462,
            "contract": "src/dungeon/DungeonAdminFacet.sol:DungeonAdminFacet",
            "label": "numAreas",
            "offset": 8,
            "slot": "0",
            "type": "t_uint64"
          }
        ],
        "numberOfBytes": "32"
      },
      "t_struct(Character)3430_storage": {
        "encoding": "inplace",
        "label": "struct DungeonDataLayout.Character",
        "members": [
          {
            "astId": 3415,
            "contract": "src/dungeon/DungeonAdminFacet.sol:DungeonAdminFacet",
            "label": "location",
            "offset": 0,
            "slot": "0",
            "type": "t_uint256"
          },
          {
            "astId": 3417,
            "contract": "src/dungeon/DungeonAdminFacet.sol:DungeonAdminFacet",
            "label": "direction",
            "offset": 0,
            "slot": "1",
            "type": "t_uint8"
          },
          {
            "astId": 3419,
            "contract": "src/dungeon/DungeonAdminFacet.sol:DungeonAdminFacet",
            "label": "floors",
            "offset": 1,
            "slot": "1",
            "type": "t_int64"
          },
          {
            "astId": 3421,
            "contract": "src/dungeon/DungeonAdminFacet.sol:DungeonAdminFacet",
            "label": "slot_1",
            "offset": 0,
            "slot": "2",
            "type": "t_uint256"
          },
          {
            "astId": 3423,
            "contract": "src/dungeon/DungeonAdminFacet.sol:DungeonAdminFacet",
            "label": "slot_2",
            "offset": 0,
            "slot": "3",
            "type": "t_uint256"
          },
          {
            "astId": 3425,
            "contract": "src/dungeon/DungeonAdminFacet.sol:DungeonAdminFacet",
            "label": "slot_3",
            "offset": 0,
            "slot": "4",
            "type": "t_uint256"
          },
          {
            "astId": 3427,
            "contract": "src/dungeon/DungeonAdminFacet.sol:DungeonAdminFacet",
            "label": "slot_4",
            "offset": 0,
            "slot": "5",
            "type": "t_uint256"
          },
          {
            "astId": 3429,
            "contract": "src/dungeon/DungeonAdminFacet.sol:DungeonAdminFacet",
            "label": "slot_5",
            "offset": 0,
            "slot": "6",
            "type": "t_uint256"
          }
        ],
        "numberOfBytes": "224"
      },
      "t_struct(Quest)3499_storage": {
        "encoding": "inplace",
        "label": "struct DungeonDataLayout.Quest",
        "members": [
          {
            "astId": 3496,
            "contract": "src/dungeon/DungeonAdminFacet.sol:DungeonAdminFacet",
            "label": "status",
            "offset": 0,
            "slot": "0",
            "type": "t_uint8"
          },
          {
            "astId": 3498,
            "contract": "src/dungeon/DungeonAdminFacet.sol:DungeonAdminFacet",
            "label": "data",
            "offset": 0,
            "slot": "1",
            "type": "t_string_storage"
          }
        ],
        "numberOfBytes": "64"
      },
      "t_struct(Room)3413_storage": {
        "encoding": "inplace",
        "label": "struct DungeonDataLayout.Room",
        "members": [
          {
            "astId": 3392,
            "contract": "src/dungeon/DungeonAdminFacet.sol:DungeonAdminFacet",
            "label": "blockNumber",
            "offset": 0,
            "slot": "0",
            "type": "t_uint64"
          },
          {
            "astId": 3394,
            "contract": "src/dungeon/DungeonAdminFacet.sol:DungeonAdminFacet",
            "label": "monsterBlockNumber",
            "offset": 8,
            "slot": "0",
            "type": "t_uint64"
          },
          {
            "astId": 3396,
            "contract": "src/dungeon/DungeonAdminFacet.sol:DungeonAdminFacet",
            "label": "numActiveCharacters",
            "offset": 16,
            "slot": "0",
            "type": "t_uint64"
          },
          {
            "astId": 3398,
            "contract": "src/dungeon/DungeonAdminFacet.sol:DungeonAdminFacet",
            "label": "direction",
            "offset": 24,
            "slot": "0",
            "type": "t_uint8"
          },
          {
            "astId": 3400,
            "contract": "src/dungeon/DungeonAdminFacet.sol:DungeonAdminFacet",
            "label": "exits",
            "offset": 25,
            "slot": "0",
            "type": "t_uint8"
          },
          {
            "astId": 3402,
            "contract": "src/dungeon/DungeonAdminFacet.sol:DungeonAdminFacet",
            "label": "kind",
            "offset": 26,
            "slot": "0",
            "type": "t_uint8"
          },
          {
            "astId": 3404,
            "contract": "src/dungeon/DungeonAdminFacet.sol:DungeonAdminFacet",
            "label": "areaAtDiscovery",
            "offset": 27,
            "slot": "0",
            "type": "t_uint8"
          },
          {
            "astId": 3406,
            "contract": "src/dungeon/DungeonAdminFacet.sol:DungeonAdminFacet",
            "label": "lastRoomIndex",
            "offset": 28,
            "slot": "0",
            "type": "t_uint8"
          },
          {
            "astId": 3408,
            "contract": "src/dungeon/DungeonAdminFacet.sol:DungeonAdminFacet",
            "label": "index",
            "offset": 29,
            "slot": "0",
            "type": "t_uint8"
          },
          {
            "astId": 3410,
            "contract": "src/dungeon/DungeonAdminFacet.sol:DungeonAdminFacet",
            "label": "discoverer",
            "offset": 0,
            "slot": "1",
            "type": "t_uint256"
          },
          {
            "astId": 3412,
            "contract": "src/dungeon/DungeonAdminFacet.sol:DungeonAdminFacet",
            "label": "randomEvent",
            "offset": 0,
            "slot": "2",
            "type": "t_uint64"
          }
        ],
        "numberOfBytes": "96"
      },
      "t_uint256": {
        "encoding": "inplace",
        "label": "uint256",
        "numberOfBytes": "32"
      },
      "t_uint64": {
        "encoding": "inplace",
        "label": "uint64",
        "numberOfBytes": "8"
      },
      "t_uint8": {
        "encoding": "inplace",
        "label": "uint8",
        "numberOfBytes": "1"
      }
    }
  }
}