{
  "address": "0x660aABaEDE268F17B88F8220e01600Af3681627A",
  "abi": [
    {
      "anonymous": false,
      "inputs": [
        {
          "indexed": true,
          "internalType": "uint256",
          "name": "characterId",
          "type": "uint256"
        },
        {
          "indexed": true,
          "internalType": "uint256",
          "name": "oldLocation",
          "type": "uint256"
        },
        {
          "indexed": true,
          "internalType": "uint256",
          "name": "newLocation",
          "type": "uint256"
        },
        {
          "indexed": false,
          "internalType": "uint8",
          "name": "mode",
          "type": "uint8"
        },
        {
          "indexed": false,
          "internalType": "uint256",
          "name": "path",
          "type": "uint256"
        }
      ],
      "name": "CharacterMoved",
      "type": "event"
    },
    {
      "anonymous": false,
      "inputs": [
        {
          "indexed": true,
          "internalType": "uint256",
          "name": "characterId",
          "type": "uint256"
        },
        {
          "indexed": false,
          "internalType": "uint256",
          "name": "monsterId",
          "type": "uint256"
        }
      ],
      "name": "Death",
      "type": "event"
    },
    {
      "anonymous": false,
      "inputs": [
        {
          "indexed": true,
          "internalType": "uint256",
          "name": "characterId",
          "type": "uint256"
        },
        {
          "indexed": true,
          "internalType": "address",
          "name": "player",
          "type": "address"
        },
        {
          "indexed": false,
          "internalType": "string",
          "name": "name",
          "type": "string"
        }
      ],
      "name": "Enter",
      "type": "event"
    },
    {
      "anonymous": false,
      "inputs": [
        {
          "indexed": false,
          "internalType": "uint256",
          "name": "characterId",
          "type": "uint256"
        },
        {
          "indexed": false,
          "internalType": "uint256",
          "name": "gearId",
          "type": "uint256"
        },
        {
          "indexed": false,
          "internalType": "uint8",
          "name": "slotType",
          "type": "uint8"
        }
      ],
      "name": "Equip",
      "type": "event"
    },
    {
      "anonymous": false,
      "inputs": [
        {
          "indexed": true,
          "internalType": "uint256",
          "name": "characterId",
          "type": "uint256"
        },
        {
          "indexed": false,
          "internalType": "uint16",
          "name": "hp",
          "type": "uint16"
        }
      ],
      "name": "Heal",
      "type": "event"
    },
    {
      "anonymous": false,
      "inputs": [
        {
          "indexed": true,
          "internalType": "uint256",
          "name": "characterId",
          "type": "uint256"
        },
        {
          "indexed": false,
          "internalType": "uint16",
          "name": "newLevel",
          "type": "uint16"
        }
      ],
      "name": "LevelUp",
      "type": "event"
    },
    {
      "anonymous": false,
      "inputs": [
        {
          "indexed": true,
          "internalType": "uint256",
          "name": "characterId",
          "type": "uint256"
        },
        {
          "indexed": true,
          "internalType": "uint64",
          "name": "id",
          "type": "uint64"
        },
        {
          "indexed": true,
          "internalType": "uint8",
          "name": "status",
          "type": "uint8"
        },
        {
          "indexed": false,
          "internalType": "string",
          "name": "data",
          "type": "string"
        }
      ],
      "name": "QuestUpdate",
      "type": "event"
    },
    {
      "anonymous": false,
      "inputs": [
        {
          "indexed": true,
          "internalType": "uint256",
          "name": "areaLocation",
          "type": "uint256"
        },
        {
          "indexed": false,
          "internalType": "uint64",
          "name": "blockNumber",
          "type": "uint64"
        }
      ],
      "name": "RandomEvent",
      "type": "event"
    },
    {
      "anonymous": false,
      "inputs": [
        {
          "indexed": true,
          "internalType": "uint256",
          "name": "characterId",
          "type": "uint256"
        },
        {
          "indexed": false,
          "internalType": "uint256",
          "name": "gearId",
          "type": "uint256"
        }
      ],
      "name": "Recycle",
      "type": "event"
    },
    {
      "anonymous": false,
      "inputs": [
        {
          "indexed": true,
          "internalType": "uint256",
          "name": "deadCharacterId",
          "type": "uint256"
        },
        {
          "indexed": false,
          "internalType": "uint256",
          "name": "newCharacterId",
          "type": "uint256"
        }
      ],
      "name": "Resurrect",
      "type": "event"
    },
    {
      "anonymous": false,
      "inputs": [
        {
          "indexed": true,
          "internalType": "uint256",
          "name": "location",
          "type": "uint256"
        },
        {
          "indexed": false,
          "internalType": "bytes32",
          "name": "blockHash",
          "type": "bytes32"
        },
        {
          "indexed": false,
          "internalType": "uint8",
          "name": "exits",
          "type": "uint8"
        },
        {
          "indexed": false,
          "internalType": "uint8",
          "name": "kind",
          "type": "uint8"
        }
      ],
      "name": "RoomActualised",
      "type": "event"
    },
    {
      "anonymous": false,
      "inputs": [
        {
          "indexed": true,
          "internalType": "uint256",
          "name": "location",
          "type": "uint256"
        },
        {
          "indexed": false,
          "internalType": "uint64",
          "name": "blockNumber",
          "type": "uint64"
        },
        {
          "indexed": false,
          "internalType": "uint8",
          "name": "direction",
          "type": "uint8"
        }
      ],
      "name": "RoomDiscovered",
      "type": "event"
    },
    {
      "anonymous": false,
      "inputs": [
        {
          "indexed": true,
          "internalType": "uint256",
          "name": "location",
          "type": "uint256"
        },
        {
          "indexed": true,
          "internalType": "address",
          "name": "owner",
          "type": "address"
        },
        {
          "indexed": false,
          "internalType": "uint256",
          "name": "id",
          "type": "uint256"
        },
        {
          "indexed": false,
          "internalType": "uint256",
          "name": "amount",
          "type": "uint256"
        }
      ],
      "name": "RoomIncome",
      "type": "event"
    },
    {
      "anonymous": false,
      "inputs": [
        {
          "indexed": true,
          "internalType": "uint256",
          "name": "location",
          "type": "uint256"
        },
        {
          "indexed": false,
          "internalType": "string",
          "name": "name",
          "type": "string"
        },
        {
          "indexed": false,
          "internalType": "uint256",
          "name": "characterId",
          "type": "uint256"
        }
      ],
      "name": "RoomName",
      "type": "event"
    },
    {
      "anonymous": false,
      "inputs": [
        {
          "indexed": true,
          "internalType": "address",
          "name": "owner",
          "type": "address"
        },
        {
          "indexed": false,
          "internalType": "uint256",
          "name": "tax",
          "type": "uint256"
        },
        {
          "indexed": false,
          "internalType": "uint256",
          "name": "newDueDate",
          "type": "uint256"
        }
      ],
      "name": "RoomTaxPay",
      "type": "event"
    },
    {
      "inputs": [
        {
          "internalType": "uint256",
          "name": "characterId",
          "type": "uint256"
        },
        {
          "internalType": "uint256",
          "name": "monsterId",
          "type": "uint256"
        }
      ],
      "name": "characterDefeated",
      "outputs": [],
      "stateMutability": "nonpayable",
      "type": "function"
    },
    {
      "inputs": [
        {
          "internalType": "uint256",
          "name": "characterId",
          "type": "uint256"
        },
        {
          "internalType": "uint256",
          "name": "monsterId",
          "type": "uint256"
        },
        {
          "internalType": "int16",
          "name": "hpChange",
          "type": "int16"
        }
      ],
      "name": "characterEscaped",
      "outputs": [],
      "stateMutability": "nonpayable",
      "type": "function"
    },
    {
      "inputs": [
        {
          "internalType": "uint256",
          "name": "location",
          "type": "uint256"
        },
        {
          "internalType": "uint256",
          "name": "characterId",
          "type": "uint256"
        },
        {
          "internalType": "uint16[8]",
          "name": "amounts",
          "type": "uint16[8]"
        }
      ],
      "name": "claimBounty",
      "outputs": [],
      "stateMutability": "nonpayable",
      "type": "function"
    },
    {
      "inputs": [
        {
          "internalType": "address",
          "name": "to",
          "type": "address"
        },
        {
          "internalType": "bytes",
          "name": "data",
          "type": "bytes"
        }
      ],
      "name": "forward",
      "outputs": [
        {
          "internalType": "bool",
          "name": "success",
          "type": "bool"
        }
      ],
      "stateMutability": "nonpayable",
      "type": "function"
    },
    {
      "inputs": [
        {
          "internalType": "uint256",
          "name": "location",
          "type": "uint256"
        },
        {
          "internalType": "address",
          "name": "benefactor",
          "type": "address"
        },
        {
          "internalType": "uint16[8]",
          "name": "income",
          "type": "uint16[8]"
        }
      ],
      "name": "generateRoomIncome",
      "outputs": [],
      "stateMutability": "nonpayable",
      "type": "function"
    },
    {
      "inputs": [
        {
          "internalType": "uint256",
          "name": "location",
          "type": "uint256"
        }
      ],
      "name": "monsterDefeated",
      "outputs": [],
      "stateMutability": "nonpayable",
      "type": "function"
    },
    {
      "inputs": [
        {
          "internalType": "uint256",
          "name": "characterId",
          "type": "uint256"
        },
        {
          "internalType": "uint256",
          "name": "location",
          "type": "uint256"
        }
      ],
      "name": "teleportCharacter",
      "outputs": [],
      "stateMutability": "nonpayable",
      "type": "function"
    },
    {
      "inputs": [
        {
          "internalType": "uint256",
          "name": "characterId",
          "type": "uint256"
        },
        {
          "internalType": "uint256",
          "name": "monsterId",
          "type": "uint256"
        },
        {
          "internalType": "int16",
          "name": "hpChange",
          "type": "int16"
        },
        {
          "internalType": "uint16",
          "name": "xpGained",
          "type": "uint16"
        },
        {
          "internalType": "uint256",
          "name": "gearData",
          "type": "uint256"
        },
        {
          "internalType": "int64",
          "name": "durabilityChange",
          "type": "int64"
        },
        {
          "internalType": "int16[8]",
          "name": "balanceChange",
          "type": "int16[8]"
        }
      ],
      "name": "updateCharacter",
      "outputs": [],
      "stateMutability": "nonpayable",
      "type": "function"
    },
    {
      "inputs": [
        {
          "internalType": "uint256",
          "name": "character",
          "type": "uint256"
        },
        {
          "internalType": "uint64",
          "name": "id",
          "type": "uint64"
        },
        {
          "internalType": "uint8",
          "name": "status",
          "type": "uint8"
        },
        {
          "internalType": "string",
          "name": "data",
          "type": "string"
        }
      ],
      "name": "updateQuest",
      "outputs": [],
      "stateMutability": "nonpayable",
      "type": "function"
    },
    {
      "inputs": [
        {
          "internalType": "uint256",
          "name": "characterId",
          "type": "uint256"
        },
        {
          "internalType": "uint256",
          "name": "location",
          "type": "uint256"
        },
        {
          "internalType": "uint256",
          "name": "data",
          "type": "uint256"
        },
        {
          "internalType": "uint256[8]",
          "name": "amountsPayed",
          "type": "uint256[8]"
        }
      ],
      "name": "updateRoomData",
      "outputs": [],
      "stateMutability": "nonpayable",
      "type": "function"
    }
  ],
  "transactionHash": "0xc4a99e3db44019bc512a8a2b322aa89f2603acb94a34dd9d08751577542c3441",
  "args": [],
  "numDeployments": 4,
  "linkedData": {
    "readOnlyDungeon": "0x60806040523461001a576040516128cc61002082396128cc90f35b600080fdfe6080604052600436101561001257600080fd5b60003560e01c80630ececfea14610152578063213ee1431461014d5780632f5877961461014857806330ad9329146101435780633683dee11461013e578063467b47931461013957806356b5c381146101345780637a9234741461012f5780639f7cb08e1461012a578063a48378ff14610125578063acda69ca14610120578063b0ca9dfe1461011b578063c3aab23c14610116578063d5763a8014610111578063d667fd041461010c578063ed53a62414610107578063f090aca814610102578063f6940ac7146100fd578063fcaf8951146100f85763ff5335fa0361015757610887565b61086b565b61083b565b6107d9565b6107ba565b610728565b6106bf565b61064e565b6105fc565b6105da565b61054c565b610518565b610499565b610452565b610436565b6103af565b61033b565b6102d8565b610293565b6101cb565b600080fd5b805b0361015757565b905035906101728261015c565b565b9190604083820312610157576101979061018e8185610165565b93602001610165565b90565b9052565b6001600160401b031690565b61019a9061019e565b908152604081019291610172916020905b01906101aa565b34610157576101e46101de366004610174565b90612758565b906101fa6101f160405190565b928392836101b3565b0390f35b60ff811661015e565b90503590610172826101fe565b909160c0828403126101575761022a8383610165565b926102388160208501610165565b926102468260408301610207565b926101976102578460608501610207565b936102658160808601610207565b9360a001610207565b60ff918216815291166020820152606081019291610172916040905b019060ff169052565b34610157576101fa6102b56102a9366004610214565b94939093929192611472565b6040519193919384938461026e565b906020828203126101575761019791610165565b34610157576101fa6102f36102ee3660046102c4565b610c64565b6040519182918290815260200190565b6101c461017294610331606094989795610327608086019a600087019060070b9052565b60070b6020850152565b60070b6040830152565b34610157576101fa6103566103513660046102c4565b610996565b9061036394929460405190565b94859485610303565b9091606082840312610157576101976103858484610165565b936103938160208601610165565b93604001610207565b9081526040810192916101729160200152565b34610157576103c86103c236600461036c565b916110f9565b906101fa6103d560405190565b9283928361039c565b909182601f83011215610157578135916001600160401b03831161015757602001926020830284011161015757565b906020828203126101575781356001600160401b0381116101575761043292016103de565b9091565b34610157576101fa6102f361044c36600461040d565b906126a2565b34610157576101fa6102f3610468366004610174565b9061286f565b61ffff811661015e565b905035906101728261046e565b906020828203126101575761019791610478565b34610157576101fa6102f36104af366004610485565b61263d565b919461050161050c929897956104f660a0966104ec6101729a6104e260c08a019e60008b019061ffff169052565b60ff166020890152565b60ff166040870152565b61ffff166060850152565b61ffff166080830152565b019063ffffffff169052565b34610157576101fa61053361052e3660046102c4565b6122c1565b9261054396949692919260405190565b968796876104b4565b34610157576101fa6102f36105623660046102c4565b611415565b63ffffffff811661015e565b9050359061017282610567565b909160c082840312610157576105968383610478565b926105a48160208501610207565b926105b28260408301610207565b926101976105c38460608501610478565b936105d18160808601610478565b9360a001610573565b34610157576101fa6102f36105f0366004610580565b949390939291926121ed565b34610157576101fa6102f3610612366004610174565b9061274e565b906020828203126101575761019791610207565b61ffff909116815260608101939261017292909160409161028a906020830152565b34610157576101fa610669610664366004610618565b612379565b6040519193919384938461062c565b61015e8160070b90565b9050359061017282610678565b9091606082840312610157576101976106a88484610682565b936106b68160208601610682565b93604001610682565b34610157576101fa6102f36106d536600461068f565b916108a2565b909594926101729461071b61028a9261071060809661070560a088019c600089019061ffff169052565b61ffff166020870152565b61ffff166040850152565b63ffffffff166060830152565b34610157576101fa61074361073e3660046102c4565b612100565b9161075095939560405190565b958695866106db565b80151561015e565b9050359061017282610759565b919060a083820312610157576107848184610165565b926107928260208301610165565b926101976107a38460408501610165565b936107b18160608601610761565b93608001610207565b34610157576101fa6102f36107d036600461076e565b93929092610a66565b34610157576101fa6102f36107ef366004610174565b906125ef565b61015e8161019e565b90503590610172826107f5565b9091606082840312610157576101976108248484610165565b936108328160208601610165565b936040016107fe565b34610157576101fa61085761085136600461080b565b91610db0565b6040519182918260ff909116815260200190565b34610157576101fa61085761088136600461036c565b916120f5565b34610157576101fa6102f361089d3660046102c4565b61264a565b610197929190610919565b6108bd6101976101979260070b90565b61019e565b6101976101976101979261019e565b6101976101976101979290565b634e487b7160e01b600052601160045260246000fd5b8181029291811591840414171561090757565b6108de565b9190820180921161090757565b9061095461099061098a9261098a61097d6109546109776101979961093c600090565b5061097261096c610959610954600160ff1b946108ad565b6108c2565b610966600160801b6108d1565b906108f4565b916108d1565b61090c565b936108ad565b610966600160401b6108d1565b9061090c565b926108ad565b6109a39060005b506109fd565b929391929091565b6108bd6101976101979290565b6109c76101976101979261019e565b60070b90565b634e487b7160e01b600052601260045260246000fd5b906109ed565b9190565b9081156109f8570490565b6109cd565b90610a0f610a0a836109ab565b6109b8565b91610a31610a0a610a2c610a26600160401b6108d1565b846109e3565b6109ab565b91610197610a2c610a52610a0a82610a4c600160801b6108d1565b876109e3565b93610a60600160ff1b6108d1565b906109e3565b6101979493929190610b4a565b610a806101976101979290565b60ff1690565b6101976001610a73565b610197600f610a73565b610aa99060ff165b9160ff1690565b019060ff821161090757565b61019a9060ff1660f81b90565b60019392610adf602083610ad98295610ae7979052565b01918252565b018092610ab5565b0190565b634e487b7160e01b600052604160045260246000fd5b90601f01601f191681019081106001600160401b03821117610b2257604052565b610aeb565b610197906108d1565b81156109f8570690565b6101976101976101979260ff1690565b929093610b55600090565b50610b64610aa2610a80610a86565b03610c5657610b71610a90565b8091610c3b575b50610be76109e9610be1610bd1610b8f6006610a73565b610bb9610b9b60405190565b8092610bad60208301918d8d84610ac2565b90810382520382610b01565b610bcb610bc4825190565b9160200190565b20610b27565b610bdb60646108d1565b90610b30565b92610b3a565b10610bf95750505061019760006108d1565b610c2c610c3192610bb961019795610c116007610a73565b92610bad610c1e60405190565b948593602085019384610ac2565b610b30565b61098a60016108d1565b610c509150610c4a600a610a73565b90610a9a565b38610b78565b5050505061019760006108d1565b61019790610ceb565b6109c76101976101979290565b60070b60016001603f1b031981146109075760000390565b610ca19060070b5b9160070b90565b019060016001603f1b03821360016001603f1b031983121761090757565b610ccb9060070b610c9a565b9081156109f85760016001603f1b03198114600019831416610907570590565b610d5161019791610d03610cfd600090565b916109fd565b50939091600090610d1382610c6d565b610d1d8260070b90565b12610d9857610d39610d4991610d336004610c6d565b90610c92565b610d436009610c6d565b90610cbf565b935b50610c6d565b610d5b8260070b90565b12610d7757610d39610d7191610d336004610c6d565b90610919565b610d93610d39610d89610d7193610c7a565b610d336004610c6d565b610c7a565b610d93610d39610d89610daa93610c7a565b93610d4b565b610197929190610e7d565b610197600a610a73565b6108bd6101976101979260ff1690565b610de1610de79161019e565b9161019e565b0290610df28261019e565b91820361090757565b9190820391821161090757565b6101976019610a73565b610e1f6101976101979290565b61ffff1690565b6101976064610e12565b610e1f6101976101979260ff1690565b610e4c9060070b610c9a565b9081156109f8570790565b610e676101976101979260070b90565b60000b90565b610a806101976101979260000b90565b91610e8783611070565b908115610fb9575b5015610ea15750506101976006610a73565b610ec0610954610eb084610fd6565b610eba60096109ab565b90610dd5565b610eca60006108d1565b8111610fa0575b610ee46109e9610edf610e08565b610b3a565b10610f9457610f27610f1c610bad610bb9610f2c94610f03600c610a73565b90610f0d60405190565b93849260208401928a84610ac2565b610bdb6127106108d1565b610a73565b610f40610f3a610e1f610e26565b91610e30565b11610f8957610f51610197916109fd565b50915050610f84610f7e610f79610f74600194610f6e6005610c6d565b90610e40565b610e57565b610e6d565b91610a73565b610a9a565b506101976006610a73565b50506101976006610a73565b610fb490610fae60046108d1565b90610dfb565b610ed1565b9050610fce610de1610fc9610dbb565b610dc5565b101538610e8f565b610fe190600061099d565b50819050600083610ff182610c6d565b610ffb8260070b90565b1261105a575b5061100b90610c6d565b6110158260070b90565b1261104a575b506110268160070b90565b6110308360070b90565b13156110405750610197906108ad565b61019791506108ad565b6110549150610c7a565b3861101b565b61100b91945061106990610c7a565b9390611001565b61107b90600061099d565b50506000199161108a83610c6d565b6110948260070b90565b121592836110db575b50826110c2575b50816110ae575090565b90506110bd610c9a6001610c6d565b131590565b9091506110d2610c9a6001610c6d565b131590386110a4565b6110e6919350610c6d565b6110f08260070b90565b1215913861109d565b610432929190611118565b6101976002610a73565b6101976004610a73565b9092909161112660006108d1565b9361113f6111348686611317565b610a60610edf610e08565b85811461129f575b60029061118f61115f611159846108d1565b836109e3565b61098a83610c2c610bad610bb96111766064610a73565b8d61118060405190565b9384928d602085019384610ac2565b9587871461128d575b6111a0611104565b6111ac60ff8716610aa2565b14611265575b9161098a916111f3949360086111c7816108d1565b8311611245575b50610bb96111e86111e2610c2c94956108d1565b856109e3565b95610c116065610a73565b938414611233575b611210610aa2611209610a86565b9260ff1690565b1461121757565b916112309061098a61122a610edf61110e565b826109e3565b91565b925061123f60016108d1565b926111fb565b610c2c92506111e86111e261125c610bb9936108d1565b945050506111ce565b959161098a916112816111f3959461098a61122a610edf61110e565b979193945091506111b2565b955061129960016108d1565b95611198565b506112aa60016108d1565b611147565b6112bb9060070b610c9a565b90039060016001603f1b0319821260016001603f1b0383131761090757565b6101976101976101979260070b90565b600160ff1b81146109075760000390565b9190808303926000909112801582851316918412161761090757565b61134361133e61132c6113369361099d600090565b50509390946109fd565b5050946112af565b6112da565b91600091611350836108d1565b84126113f6575b61133e6113679261096c926112af565b81126113e8575b6001603f1b61137c816108d1565b83136113ca575b61138c906108d1565b81136113af575b808213156113a55750610197906108d1565b61019791506108d1565b6113c5906113c0600160401b6108d1565b6112fb565b611393565b9161138c906113e0906113c0600160401b6108d1565b929050611383565b6113f1906112ea565b61136e565b9261133e6113679261140a61096c936112ea565b959250925050611357565b6101979061142b565b610197600160ff1b6108d1565b61143661019761141e565b8103611447575061019760006108d1565b61145e6101979161145860006108d1565b90611317565b61097261096c600192610a60610edf610e08565b611480959493929190611487565b9192909190565b959492906114a3610432959361149b600090565b508289611af3565b966114ce565b6101976005610a73565b6101976003610a73565b60ff1660ff81146109075760010190565b949360006114e66114de88610ceb565b9594976109fd565b5050600093916114f8610c9a86610c6d565b1490816119b0575b501561152357505050505050611514611104565b9161151f6001610a73565b1790565b95909691929394965b60ff87165b60ff8716116119a657506115456003610a73565b611590610f2761158687610bb98a8d610bad8861156160405190565b95869460208601948592610adf6001610ae794610ad9602088610adf859b9a83999052565b610bdb60146108d1565b906115b261159e6001610a73565b85166115ad610aa26001610a73565b141590565b90818061197d575b156115eb575050506115316115e26115d0611104565b936115db6001610a73565b17966114bd565b9592905061152c565b6116076115f86002610a73565b86166115ad610aa26002610a73565b91828061192f575b1561163157505050506115316115e26116266114b3565b936115db6002610a73565b61164d61163e6004610a73565b87166115ad610aa26004610a73565b91828061188c575b156116785750505050506115316115e261166d61110e565b936115db6004610a73565b6116946116856008610a73565b88166115ad610aa26008610a73565b94856116d7575b50505050506000146116c0576115316115e26116b56114a9565b936115db6008610a73565b6115316115e26116d1969396610a86565b936114bd565b6116e691929394955060ff1690565b14928315611875575b8315611851575b831561182d575b8315611809575b83156117d8575b83156117a7575b8315611776575b831561172d575b505050388080808061169b565b9091925061173b604d610a73565b60ff891614928361176e575b5082611766575b508161175e575b50388080611720565b905038611755565b91503861174e565b925038611747565b9250611782604e610a73565b60ff891614806117a0575b80611799575b92611719565b5082611793565b508161178d565b92506117b3604e610a73565b60ff891614806117d1575b806117ca575b92611712565b50816117c4565b50806117be565b92506117e4604e610a73565b60ff89161480611802575b806117fb575b9261170b565b50826117f5565b50806117ef565b9250611815604f610a73565b60ff89161480611826575b92611704565b5081611820565b9250611839604f610a73565b60ff8916148061184a575b926116fd565b5082611844565b925061185d604f610a73565b60ff8916148061186e575b926116f6565b5080611868565b92506118816050610a73565b60ff891614926116ef565b506118976002610a73565b60ff861614801561191a575b80156118fd575b80156118e0575b8061165557506118c1604e610a73565b60ff8b1614806118d9575b8015611655575083611655565b50816118cc565b506118eb604f610a73565b60ff8b161480156118b15750836118b1565b50611908604f610a73565b60ff8b161480156118aa5750816118aa565b506119256050610a73565b60ff8b16146118a3565b5061193a6001610a73565b60ff8516148015611968575b8061160f5750611956604f610a73565b60ff8a1614801561160f57508061160f565b506119736050610a73565b60ff8a1614611946565b5061198786610a73565b60ff841614806115ba575061199c6050610a73565b60ff8916146115ba565b9650935093505050565b90506119be610c9a85610c6d565b1438611500565b6101976057610a73565b939190925b600182116119e0575050565b90919280820481116109075760018316611a02575b8002929160011c906119d4565b938402936119f5565b9291928115611a8e578015611a86578080600114611a7d57600214611a685760208210610133821016604e8310600b83101617611a5e5792611a519181939460016119cf565b8092048111610907570290565b0a91821161090757565b5060ff81116109075760020a91821161090757565b50600193505050565b506000925050565b506001925050565b61019791611aa9610aa260ff9360ff1690565b90611a0b565b6101976028610a73565b6101976000610a73565b611acf9060ff16610aa2565b90039060ff821161090757565b611ae89060ff16610aa2565b029060ff8216610df2565b90600092611b0084610a73565b90611b0961110e565b611b1560ff8316610aa2565b03611dcd575050611b26600f610a73565b925b611b53611b35606f610a73565b610bb9611b4160405190565b8092610bad6020830191888a84610ac2565b611b65610f27606492610bdb846108d1565b90611b82610a80611b74611aaf565b611b7d84610a73565b611ac3565b60ff83161015611d91575050611b9790610a73565b905b600491611ba583610a73565b60ff821610611bd657505061151f9150611bd1610f7e600f92611bcb610f7e6002610a73565b90611a96565b611adc565b6003611be181610a73565b60ff831603611c8c575050611c14610f27611c0b611c2e9495610bb9611c1e95610c116070610a73565b610bdb866108d1565b610c4a6001610a73565b611c286007610a73565b90611adc565b611c386015610a73565b60ff821603611c5c575061151f90611bd1610f7e600d92611bcb610f7e6002610a73565b611c69610aa2601c610a73565b14611c72575090565b61151f90611bd1610f7e600b92611bcb610f7e6002610a73565b9091600292611c9a84610a73565b60ff821603611d2c5750610f7e611c14610f27611cc7611cd1969798610bb9611c2896610c116070610a73565b610bdb60066108d1565b611cdb600f610a73565b60ff821603611cfd5750611bd1610f7e61151f93611bcb610f7e600595610a73565b611d0a610aa26012610a73565b14611d1457505090565b611bd1610f7e61151f93611bcb610f7e600a95610a73565b90929150611d3d610aa26001610a73565b14611d4a575b5050505090565b611bcb611d7a611d80611d7a610f27611d71611d8799610bb9611c2899610c116070610a73565b610bdb896108d1565b93610a73565b9283611a96565b1738808080611d43565b610aa2610a80611da692611b7d610f7e610dbb565b10159050611dbe57611db86001610a73565b90611b99565b611dc86002610a73565b611db8565b611dd89491946119c5565b90611de36001610a73565b91611e04611df060405190565b610bb98160208101610bad888b8d84610ac2565b90611e1d610aa2610a80610f27606495610bdb876108d1565b116120d3575b90849291611e2f611aaf565b611e64610aa2610a80610f27611e5b8c610bb9611e4c6002610a73565b9b8c92610bad610c1e60405190565b610bdb876108d1565b11611e73575b50505050611b28565b8690611e8198949598610e08565b87611e8c6003610a73565b91611eba610aa2610a80610f27611d71611ea560405190565b610bb9818c610bad8c8c602085019384610ac2565b1115611f735750505050611ecc611ab9565b611ed860ff8316610aa2565b148015611f58575b15611efe575050611ef16008610a73565b1717925b38808080611e6a565b9091959250611f0b610a86565b611f1760ff8316610aa2565b14908115611f41575b50611f2c575b50611ef5565b909317611f396004610a73565b179238611f26565b9050611f51610aa26112096114b3565b1438611f20565b50611f61611104565b611f6d60ff8316610aa2565b14611ee0565b610f27611f9d93610bdb61096c610f7e95610bb9610a809660329e9c9e9a610bad610c1e60405190565b111561203a57611fab611ab9565b611fb760ff8316610aa2565b03611fd15750509050611fca6008610a73565b1792611ef5565b611fd9610a86565b611fe560ff8316610aa2565b03611ff457505017925b611ef5565b909250611fff611104565b61200b60ff8316610aa2565b0361201857501792611ef5565b9094915061202a610aa26112096114b3565b03611fef5792611fca6004610a73565b612045939193611ab9565b61205160ff8316610aa2565b0361205f5750501792611ef5565b9091925061206b610a86565b61207760ff8316610aa2565b03612088575050611fca6004610a73565b612090611104565b61209c60ff8316610aa2565b036120ad575050611fca6008610a73565b6120be610aa26112099794976114b3565b146120c95750611ef5565b9093179238611f26565b955090816120eb85936120e66002610a73565b611a96565b9690919250611e23565b610197929190611af3565b61210990612143565b919394909293929190565b610197906121286109e96101979460ff1690565b901c90565b61213a6101976101979290565b63ffffffff1690565b9061215a610f2761215460f8610a73565b84612114565b9161216e61216860e8610a73565b82612114565b6121876121826201000092610bdb846108d1565b610e12565b936121ea6121826121b96121b46121a76121a160c8610a73565b88612114565b610bdb600160201b6108d1565b61212d565b93610bdb61096c6121d9612182611c0b6121d360b8610a73565b8b612114565b976121e460a8610a73565b90612114565b93565b610197959493929190612238565b6101979061220f6109e96101979460ff1690565b901b90565b6101976101976101979261ffff1690565b6101976101976101979263ffffffff1690565b6122b161228d61098a9561098a6122a761228d6101979b9a9761098a61229d610be161098a9a61098a6122936122bb9f61227d61228d91612277600090565b50610b3a565b61228760f8610a73565b906121fb565b92612214565b61228760e8610a73565b61228760e0610a73565b61228760d0610a73565b61228760c0610a73565b91612225565b6122ce9060005b506122da565b94959394929391929091565b906122eb610f2761215460f8610a73565b6122f861215460e8610a73565b61230c6121826201000092610bdb846108d1565b9361232b610f2761232061215460e0610a73565b610bdb6101006108d1565b936101976121b461236b61218261235a61218261235161234b60d0610a73565b89612114565b610bdb8a6108d1565b96610bdb61096c61234b60c0610a73565b93610bdb600160201b6108d1565b61238e61148091612388600090565b50610e30565b612438565b906101726123a060405190565b9283610b01565b6001600160401b038111610b225760200290565b6123c7610197916123a7565b612393565b634e487b7160e01b600052603260045260246000fd5b90600b8110156123f3576020020190565b6123cc565b6124099061ffff165b9161ffff1690565b019061ffff821161090757565b61019791611aa9610aa261ffff9361ffff1690565b6109ed9061ffff16612401565b9061256661255e612449600b6123bb565b612461600061245781610e12565b61ffff1690830152565b61247961246e600a610e12565b61ffff166020830152565b6124916124866031610e12565b61ffff166040830152565b6124a961249e6077610e12565b61ffff166060830152565b6124b661050160d0610e12565b6124cf6124c4610148610e12565b61ffff1660a0830152565b6124e86124dd61020c610e12565b61ffff1660c0830152565b6125016124f661033a610e12565b61ffff1660e0830152565b61251b61250f6104f5610e12565b61ffff16610100830152565b612535612529610e46610e12565b61ffff16610120830152565b61254f612543611aee610e12565b61ffff16610140830152565b61255885612214565b906123e2565b5161ffff1690565b9160089061257382610e12565b61ffff8216111561259557505061258b6101ec6108d1565b905b610197610dbb565b6125e9916125de6125d86125c86125b86125e4956125b36001610e12565b6123f8565b6125c26003610a73565b90612416565b6125d26005610e12565b9061242b565b91610e12565b906123f8565b612214565b9061258d565b61019791906126189061261361096c6126229461260a600090565b50600293611317565b6108f4565b610a6060056108d1565b61262c60006108d1565b8103610197575061019760016108d1565b6101979061019790612214565b6101979061266f6126229161265d600090565b5061261361096c60029261145861141e565b610a6060066108d1565b60001981146109075760010190565b91908110156123f3576020020190565b356101978161015c565b906126ad60006108d1565b91825b828410156126e6576126da6126e09161098a6126d56126d0888888612688565b612698565b6126ed565b93612679565b926126b0565b9250505090565b6126f89060006122c8565b50939150915060019161272d6124016127256125e461271c6002966125d288610e12565b6125b388610e12565b9561ffff1690565b1461273757505090565b610197929161097261096c6111e261098a946108d1565b6101979190611317565b61043291906127da916127d4610f276127926127746066610a73565b610bb961278060405190565b8092610bad6020830191898b84610ac2565b610bdb61096c610bad610bb96127b0610f27600996610bdb886108d1565b976127bb6067610a73565b906127c560405190565b93849260208401928d84610ac2565b916127fd565b9061019760026109ab565b6127f19060070b610c9a565b0290610df28260070b90565b610d7161019793610d33610a0a61285d6128639661285761286961284161283b61282c61283b9b61099d600090565b509d9160099491949d8e610c6d565b906127e5565b95610d33610a0a61285d6004996128578b610c6d565b906112af565b92610dc5565b9a610c6d565b91610c6d565b6101979161261361019792612882600090565b5061097261096c600192610a60600a6108d156fea264697066735822122041f4fbeca2d12742f854361aff4432345def4b764975da853386133d3d0f292e64736f6c63430008140033"
  },
  "solcInputHash": "0fc8db5c515bcc17ef2329a4e01d28fa",
  "bytecode": "0x60806040523461001b57604051615c47620000218239615c4790f35b600080fdfe6080604052600436101561001257600080fd5b60003560e01c80630604ba13146100b25780636fadcf72146100ad5780637507a1c9146100a85780639434e4e8146100a3578063ab5360601461009e578063b2f2dff914610099578063cf747b4914610094578063d8468f8f1461008f578063e6d48fe71461008a5763e7691518036100b757610573565b610532565b610519565b6104cf565b610483565b61042d565b6103ee565b61031c565b6102da565b610191565b600080fd5b805b036100b757565b905035906100d2826100bc565b565b6100be8160010b90565b905035906100d2826100d4565b61ffff81166100be565b905035906100d2826100eb565b6100be8160070b90565b905035906100d282610102565b91906101008301116100b757565b6101c0818303126100b75761013c82826100c5565b9261014a83602084016100c5565b9261015881604085016100de565b9261016682606083016100f5565b9261018e61017784608085016100c5565b936101858160a0860161010c565b9360c001610119565b90565b346100b7576101b06101a4366004610127565b95949094939193611182565b604051005b0390f35b6001600160a01b031690565b6100be816101b9565b905035906100d2826101c5565b634e487b7160e01b600052604160045260246000fd5b90601f01601f191681019081106001600160401b0382111761021257604052565b6101db565b906100d261022460405190565b92836101f1565b6001600160401b03811161021257602090601f01601f19160190565b0190565b90826000939282370152565b9092919261026c6102678261022b565b610217565b938185526020850190828401116100b7576100d29261024b565b9080601f830112156100b75781602061018e93359101610257565b9190916040818403126100b7576102b883826101ce565b9260208201356001600160401b0381116100b75761018e9201610286565b9052565b346100b7576101b56102f66102f03660046102a1565b90610834565b60405191829182901515815260200190565b906020828203126100b75761018e916100c5565b346100b7576101b061032f366004610308565b611aa5565b6001600160401b031690565b6100be81610334565b905035906100d282610340565b60ff81166100be565b905035906100d282610356565b909182601f830112156100b7578135916001600160401b0383116100b75760200192600183028401116100b757565b906080828203126100b7576103b081836100c5565b926103be8260208501610349565b926040926103ce8185840161035f565b936001806060850135921b0381116100b7576103ea920161036c565b9091565b346100b7576101b061040136600461039b565b9392909261223e565b91906040838203126100b75761018e9061042481856100c5565b936020016100c5565b346100b7576101b061044036600461040a565b90611b83565b610160818303126100b75761045b82826100c5565b9261018e61046c84602085016100c5565b9361047a81604086016100c5565b93606001610119565b346100b7576101b0610496366004610446565b92919091611661565b90916060828403126100b75761018e6104b884846100c5565b936104c681602086016100c5565b936040016100de565b346100b7576101b06104e236600461049f565b91611f78565b9091610140828403126100b75761018e61050284846100c5565b9361051081602086016101ce565b93604001610119565b346100b7576101b061052c3660046104e8565b916123b4565b346100b7576101b061054536600461040a565b90611836565b9091610140828403126100b75761018e61056584846100c5565b9361051081602086016100c5565b346100b7576101b061058636600461054b565b91611310565b61018e90546101b9565b1561059d57565b60405162461bcd60e51b81526020600482015260146024820152732727aa2fa0aaaa2427a924ad22a22fa0a226a4a760611b6044820152606490fd5b0390fd5b9061018e9291610608336106026105fc6105f7600461058c565b6101b9565b916101b9565b14610596565b6107af565b61018e906101b9906001600160a01b031682565b61018e9061060d565b61018e90610621565b9061063d9061062a565b600052602052604060002090565b61018e905b60ff1690565b61018e905461064b565b1561066757565b60405162461bcd60e51b815260206004820152601260248201527115105491d15517d393d517d0531313d5d15160721b6044820152606490fd5b61018e61018e61018e9290565b156106b557565b60405162461bcd60e51b815260206004820152600e60248201526d1110551057d513d3d7d4d213d49560921b6044820152606490fd5b906001600160e01b03191661063d565b1561070257565b60405162461bcd60e51b815260206004820152601460248201527314d1531150d513d497d393d517d0531313d5d15160621b6044820152606490fd5b9061074b6102678361022b565b918252565b3d1561076a5761075f3d61073e565b903d6000602084013e565b606090565b1561077657565b60405162461bcd60e51b815260206004820152601160248201527019985a5b1959081d1bc8199bdc9dd85c99607a1b6044820152606490fd5b906000928392506107d16107cc6107c784600f610633565b610656565b610660565b6107f46107dc825190565b6107ed6107e960046106a1565b9190565b10156106ae565b6108176108126107c7602084015161080d866010610633565b6106eb565b6106fb565b82602082019151925af19061082a610750565b506100d28261076f565b61018e919060006105dd565b906100d296959493929161085e336106026105fc6105f7600461058c565b610aae565b60009103126100b757565b6040513d6000823e3d90fd5b9061063d906106a1565b61018e9081565b61018e9054610884565b61018e90610334565b610334565b61018e9054610895565b61089e61018e61018e9290565b905051906100d2826100bc565b906020828203126100b75761018e916108ba565b61018e600a6106a1565b156108ec57565b60405162461bcd60e51b815260206004820152600e60248201526d546f6f206d616e7920676561727360901b6044820152606490fd5b9081526040810192916100d29160200152565b0152565b61065061018e61018e9290565b634e487b7160e01b600052601160045260246000fd5b60ff1660ff811461096d5760010190565b610946565b61018e61018e61018e9260ff1690565b634e487b7160e01b600052603260045260246000fd5b9060088110156109a9576020020190565b610982565b3561018e816100d4565b6109c561018e61018e9290565b60010b90565b6109da9060ff165b9160ff1690565b019060ff821161096d57565b60010b617fff19811461096d5760000390565b610a0961018e61018e9260010b90565b61ffff1690565b61018e61018e61018e9261ffff1690565b6102d690610972565b9081526060810193926100d2929091604091610935905b6020830190610a21565b610a5b61018e61018e9260010b90565b60070b90565b610a0961018e61018e9290565b610a7f61018e61018e9261ffff1690565b63ffffffff1690565b63ffffffff9081169116019063ffffffff821161096d57565b610a5b61018e61018e9290565b919290610ac3610abe600561058c565b61062a565b6342dad49e90803b156100b757610ae991600091610ae060405190565b93849260e01b90565b8252600490829084905af18015610d675761116c575b50600096610b1061018e858a61087a565b9560019182918a89018b610b48610b42610b3c83610b36610b308761088b565b8a61087a565b016108a3565b926108ad565b91610334565b11611155575b50610b588b6106a1565b8111611066575b50610b698a610939565b915b610ebe575b505050610baa8392610bcf92610b89610bd49796612c0d565b95610b938b6109b8565b610b9d8260010b90565b03610e29575b5050610a6e565b610bc56040850191610bc0835163ffffffff1690565b610a88565b63ffffffff169052565b612ad7565b610bdd83610aa1565b610be78360070b90565b03610bf157505050565b6002810190610c07610c028361088b565b612fd4565b6080810190610c18825161ffff1690565b610c2c610c2488610a61565b9161ffff1690565b03610d6c575b5050600391500190610c46610c028361088b565b906080820190610c58825161ffff1690565b610c64610c2487610a61565b03610c71575b5050505050565b82610caa610ca2610cb8936060610cc0970195610c9c610c93885161ffff1690565b915161ffff1690565b90615b3c565b61ffff168452565b610cb38561088b565b612f3a565b5161ffff1690565b610ccc610c2484610a61565b14610cda575b808080610c6a565b610ce7610abe600861058c565b90610cf663603d4ca09161088b565b823b156100b757610d2b92610d1d858094610d1060405190565b9687958694859360e01b90565b835260048301526024820190565b03925af18015610d675715610cd25781610d5992903d10610d60575b610d5181836101f1565b810190610863565b3880610cd2565b503d610d47565b61086e565b90610cb882610d8f610ca2886060610d98970195610c9c610c93885161ffff1690565b610cb38661088b565b610da4610c2486610a61565b14610db1575b8180610c32565b610dbe610abe600861058c565b91610dcd63603d4ca09161088b565b833b156100b757610df493610d1d878094610de760405190565b9788958694859360e01b90565b03925af1918215610d6757600392610e0d575b50610daa565b610e2390853d8711610d6057610d5181836101f1565b38610e07565b610e6b90610cb8610e63896080810193610e5d610e576060610e4d885161ffff1690565b94015161ffff1690565b91610a4b565b91615b3c565b61ffff168252565b610e77610c248c610a61565b14610e83575b80610ba3565b600080516020615bb2833981519152610eb5610e9e876106a1565b92610ea860405190565b9182918290815260200190565b0390a238610e7d565b6008610ec983610972565b101561106157610ee9610ee4610ede84610972565b83610998565b6109ae565b9183610ef48c6109b8565b610efe8560010b90565b1315610fad5750610f12610abe600761058c565b6302acc94b90610f3b610f36610f30610f2a89610939565b866109cb565b966109f9565b610a10565b90803b156100b757610f648e8094610f6f8d95610f5760405190565b9a8b978896879560e01b90565b855260048501610a2a565b03925af1908115610d67578493610f8b92610f91575b5061095c565b91610b6b565b610fa7908d803d10610d6057610d5181836101f1565b38610f85565b92610fb78c6109b8565b610fc18260010b90565b12610fd1575b50610f8b9061095c565b9250610fe0610abe600761058c565b63c9b902e39061100c610f36611007611001610ffb8a610939565b876109cb565b976109e6565b6109f9565b90803b156100b757610f648e80946110288d95610f5760405190565b03925af1908115610d67578493610f8b92611045575b5090610fc7565b61105b908d803d10610d6057610d5181836101f1565b3861103e565b610b70565b6110929250602061107a610abe600861058c565b63c9a59e479061108960405190565b95869260e01b90565b8252600482018a905260249082905afa908115610d67576110cf6020926110fa958e91611138575b506110c96107e961018e6108db565b106108e5565b6110dc610abe600861058c565b6110ee8d631b2ef1ca610de760405190565b83528d60048401610922565b03925af1918215610d6757839215610b5f5761112c9060203d8111611131575b61112481836101f1565b8101906108c7565b610b5f565b503d61111a565b61114f9150843d81116111315761112481836101f1565b386110ba565b6111616111669161088b565b612562565b38610b4e565b61117c906000610d5181836101f1565b38610aff565b906100d2969594939291610840565b906100d292916111ab336106026105fc6105f7600461058c565b6111fa565b3561018e816100eb565b6102d690610a10565b6111f36100d2946111e96060949897956111e2608086019a6000870152565b6020850152565b6040830190610a21565b01906111ba565b6112079093929193614430565b9060009161121483610939565b600861121f82610972565b10156113085761123f61123a61123483610972565b85610998565b6111b0565b61124b610c2486610a61565b1161125f575b61125a9061095c565b611214565b61126c610abe600761058c565b906311aa10fb61128561127f6001610939565b836109cb565b9261129b61123a61129585610972565b88610998565b90803b156100b7576112c48880946112d08d956112b760405190565b998a978896879560e01b90565b85528c600486016111c3565b03925af1918215610d675761125a926112ec575b509050611251565b61130290863d8811610d6057610d5181836101f1565b386112e4565b505050509050565b906100d29291611191565b906100d2939291611336336106026105fc6105f7600461058c565b61142c565b1561134257565b60405162461bcd60e51b8152602060048201526012602482015271726f6f6d206973206e6f742061637469766560701b6044820152606490fd5b1561138357565b60405162461bcd60e51b81526020600482015260096024820152683737ba1037bbb732b960b91b6044820152606490fd5b600019811461096d5760010190565b6101b961018e61018e9290565b61018e906113c3565b9190820180921161096d57565b3561018e816100bc565b6102d6906101b9565b6109356100d29461142560609498979561141b608086019a60008701906113f0565b60208501906113f0565b6040830152565b9361146291939461144461143f86613cf1565b61133b565b6020611453610abe600961058c565b6369f648a19061108960405190565b82526004820188905260249082905afa928315610d675760009361163b575b5060206114b391611495610abe600661058c565b610d1d633038bb086114a660405190565b9586948593849360e01b90565b03915afa908115610d67576114d8916114d191600091611623575090565b831461137c565b6000926114e4846106a1565b60088110156115af576114fa610abe600761058c565b9063fe99049a61151161150c876113c3565b610621565b61151a886113d0565b938a61154161153c8661153661153060016106a1565b826113d9565b93610998565b6113e6565b823b156100b7578a9461157486926115699461155c60405190565b9a8b988997889660e01b90565b8652600486016113f9565b03925af1918215610d675761158e92611593575b506113b4565b6114e4565b6115a990873d8911610d6057610d5181836101f1565b38611588565b509293915093506115c3610abe600961058c565b90634848b1a591803b156100b7576115f08580946115fb6115e360405190565b9788968795869460e01b90565b845260048401610922565b03925af18015610d675761160d575050565b816100d292903d10610d6057610d5181836101f1565b61018e915060203d81116111315761112481836101f1565b6114b3919350611659602091823d81116111315761112481836101f1565b939150611481565b906100d293929161131b565b906100d291611686336106026105fc6105f7600461058c565b61171a565b61018e6004610939565b6102d690610939565b9160206100d29294936116b960408201966000830190611695565b0190610a21565b61018e9060081c610a5b565b61018e90546116c0565b90610100600160481b039060081b5b9181191691161790565b610a5b61018e61018e9260070b90565b9061170f61018e611716926116ef565b82546116d6565b9055565b611727610abe600561058c565b916342dad49e92803b156100b7576117459360009161108960405190565b8252600490829084905af1928315610d67576100d293611820575b5060009161177c61177461018e838661087a565b93840161088b565b9261178684612562565b600161179061168b565b94600080516020615bd2833981519152906117b36117ad866106a1565b916106a1565b906117bd876106a1565b926117c760405190565b806117d38b888361169e565b0390a46117df84614321565b509391505001906117ef826116cc565b6118036117fc8360070b90565b9160070b90565b12611810575b5050613783565b611819916116ff565b3880611809565b611830906000610d5181836101f1565b38611760565b906100d29161166d565b6100d290611858336106026105fc6105f7600461058c565b6118f5565b61018e9060401c610334565b61018e905461185d565b90600160401b600160801b039060401b6116e5565b61089e61018e61018e92610334565b906118a761018e61171692611888565b8254611873565b906001600160401b03906116e5565b906118cd61018e61171692611888565b82546118ae565b6102d6906106a1565b9081526040810192916100d2916020905b01906118d4565b611902610abe600561058c565b6342dad49e90803b156100b75761191f91600091610ae060405190565b8252600490829084905af18015610d6757611a8f575b5061194461018e82600161087a565b906002611950836108a3565b92600093611960610b42866108ad565b11611a81575b83810161197281611869565b61197e610b42876108ad565b03611a68575b500161198f816108a3565b61199b610b42856108ad565b03611a4f575b506119c360206119b4610abe600961058c565b630178fe3f90610ae060405190565b82526004820185905260249082905afa908115610d67578391611a31575b506119ee6107e9846106a1565b116119f7575050565b611a04610abe600961058c565b90634848b1a590823b156100b7578392611a268480946115fb6115e360405190565b8452600484016118dd565b611a49915060203d81116111315761112481836101f1565b386119e1565b611a6290611a5c846108ad565b906118bd565b386119a1565b611a7b90611a75866108ad565b90611897565b38611984565b611a8a83612562565b611966565b611a9f906000610d5181836101f1565b38611935565b6100d290611840565b906100d291611ac7336106026105fc6105f7600461058c565b611ad4610abe600561058c565b6342dad49e90803b156100b757611af191600091610ae060405190565b8252600490829084905af18015610d6757611b6d575b50611b4d6000611b2761116182611b2161018e878361087a565b0161088b565b611b47611b3c611b3685612c0d565b92610a61565b61ffff166080830152565b82612ad7565b611b68610e9e600080516020615bb2833981519152926106a1565b0390a2565b611b7d906000610d5181836101f1565b38611b07565b906100d291611aae565b906100d29291611ba7336106026105fc6105f7600461058c565b611cfe565b61089e61018e61018e9261ffff1690565b610a5b61018e61018e92610334565b611bd89060070b6117fc565b019060016001603f1b03821360016001603f1b031983121761096d57565b6109c561018e61018e9260070b90565b634e487b7160e01b600052601260045260246000fd5b611c289060ff166109d3565b908115611c33570690565b611c06565b61018e9060801c610334565b61018e9054611c38565b611c5790610334565b801561096d576000190190565b90600160801b600160c01b039060801b6116e5565b90611c8961018e61171692611888565b8254611c64565b611c9990610334565b6001600160401b03811461096d5760010190565b90600019906116e5565b90611cc761018e611716926106a1565b8254611cad565b9060ff906116e5565b61065061018e61018e9260ff1690565b90611cf761018e61171692611cd7565b8254611cce565b611d0b610abe600561058c565b926342dad49e93803b156100b757611d3294600091611d2960405190565b96879260e01b90565b8252600490829084905af1938415610d67576100d294611f62575b50611f13600092611d6161018e828661087a565b92611e3085850191611d728361088b565b97611d7c89612562565b611d8585612c0d565b91611db36080840191611dad610e57611da8611da3865161ffff1690565b611bac565b611bbd565b90611bcc565b9160608401611dcd610a5b611da8611da3845161ffff1690565b611dd78560070b90565b13611f55575b50611de78a610aa1565b611df18460070b90565b13611f4057611e2a9250600080516020615bb2833981519152611e16610e9e896106a1565b0390a2611e2289610a61565b61ffff169052565b83612ad7565b611e6d611e65611e55611e4560018801610656565b611e4f6002610939565b906109cb565b611e5f6004610939565b90611c1c565b8097846131ea565b91611e778261088b565b611e926117ad600080516020615bd2833981519152936106a1565b90611e9c856106a1565b92611ea660405190565b80611eb28c8c8361169e565b0390a4611ebe82612562565b611f0e600195611eda81611ed4610b308661088b565b01611c44565b611ee6610b42836108ad565b11611f19575b611ef6848861087a565b01611f08611f0382611c44565b611c90565b90611c79565b611cb7565b01611ce7565b611f3b81611f29610b308661088b565b01611f08611f3682611c44565b611c4e565b611eec565b50611e22611007611f5093611bf6565b611e2a565b5161ffff16825238611ddd565b611f72906000610d5181836101f1565b38611d4d565b906100d29291611b8d565b906100d294939291611f9f336106026105fc6105f7600461058c565b6121b5565b9061063d90611888565b634e487b7160e01b600052602260045260246000fd5b9060016002830492168015611fe4575b6020831014611fdf57565b611fae565b91607f1691611fd4565b9160001960089290920291821b911b6116e5565b919061201361018e611716936106a1565b908354611fee565b6100d291600091612002565b818110612032575050565b80612040600060019361201b565b01612027565b9190601f811161205557505050565b6120676100d293600052602060002090565b906020601f840181900483019310612089575b6020601f909101040190612027565b909150819061207a565b9060001960089091021c191690565b816120ac91612093565b906002021790565b91906001600160401b038211610212576120d8826120d28554611fc4565b85612046565b600090601f8311600114612106576117169291600091836120fb575b50506120a2565b0135905038806120f4565b601f1983169161211b85600052602060002090565b92815b8181106121595750916002939185600196941061213f575b50505002019055565b61214f910135601f841690612093565b9055388080612136565b9193602060018192878701358155019501920161211e565b906100d292916120b4565b919061219a81612193816102479560209181520190565b809561024b565b601f01601f191690565b602080825261018e9391019161217c565b909192936121e7818660016121d761018e886121d289600c61087a565b611fa4565b6121e18982611ce7565b01612171565b61222361221d6122177f3553d84d9f5bc81eeb57eac4d5a1fee928d026da4f389c33c1cebfaf3931fda0946106a1565b94611888565b94611cd7565b9461223961223060405190565b928392836121a4565b0390a4565b906100d294939291611f83565b906100d29291612265336106026105fc6105f7600461058c565b612291565b6040906109356100d2949695939661228a606084019860008501906113f0565b6020830152565b9291906000936122a085610939565b60086122ab82610972565b1015611308576122c66122c161127f6001610939565b610972565b906122d9610f3661123a61129584610972565b6122e2886106a1565b81116122f9575b506122f4915061095c565b6122a0565b612306610abe600761058c565b9063a41dab8191803b156100b757868a916123378388966123428761232a60405190565b9b8c978896879560e01b90565b85526004850161226a565b03925af1938415610d67576122f494612398575b50600080516020615bf283398151915261236f866106a1565b916123798861062a565b9361238f61238660405190565b92839283610922565b0390a3386122e9565b6123ae908a3d8c11610d6057610d5181836101f1565b38612356565b906100d2929161224b565b156123c657565b60405162461bcd60e51b81526020600482015260146024820152731c9bdbdb481b9bdd0818dc99585d1959081e595d60621b6044820152606490fd5b61018e9060d01c610650565b61018e9054612402565b61018e61018e61018e92610334565b6102d690612418565b6020810192916100d29190612427565b61018e9060c01c610650565b61018e9054612440565b61018e9060d81c610650565b61018e9054612456565b61018e9060e01c610650565b61018e905461246c565b61018e9060e81c610650565b61018e9054612482565b9060ff60c81b9060c81b6116e5565b906124b761018e61171692611cd7565b8254612498565b9060ff60d01b9060d01b6116e5565b906124dd61018e61171692611cd7565b82546124be565b61018e9060081c610650565b61018e90546124e4565b9061ff009060081b6116e5565b9061251761018e61171692611cd7565b82546124fa565b90815260ff90911660208201526060810192916100d2916040905b019060ff169052565b9081526060810193926100d29290916040916109359060208301906118d4565b60019061257261018e828461087a565b61257b816108a3565b9061259460009261258e610b42856108ad565b116123bf565b818101936125a18561240e565b6125ad6109d385610939565b146125c9575b5050506100d291506125c4906151db565b612cbe565b612611939460206125dd610abe600561058c565b639507d39a906126066125ef856108a3565b926125f960405190565b998a948593849360e01b90565b835260048301612430565b03915afa948515610d675784956128e2575b50846126316107e9866106a1565b1461288b575b8361271461271a92612649888a6129bc565b61269061267c8a6126598461244c565b61266285612462565b61266b86612478565b918d6126768861248e565b9461480b565b92908461268b848395976124a7565b6124cd565b8a61269a816151db565b93600293876126ac61018e888861087a565b01906126b7826124f0565b6126c360ff83166109d3565b0361287b575b50508b61270c6126f97f8850140926f0260fe1b422b7a0d93e7d5734e521eae9ac8969ed512cc3834515946106a1565b9461270360405190565b9384938461251e565b0390a261087a565b01610656565b9101926127268461088b565b6127326107e9856106a1565b03612740575b8493506125b3565b61276b906127648461275c6127578899979861088b565b612c0d565b015160ff1690565b90846145a0565b6127786005939293610939565b60ff83161115612806575b5050612792610abe600761058c565b6127a06302acc94b9561088b565b90600695813b156100b757856127be916127c98296610f5760405190565b855260048501612542565b03925af1918215610d67576100d2936125c4936127e9575b829450612738565b816127ff92903d10610d6057610d5181836101f1565b38806127e1565b612813610abe600761058c565b6302acc94b906128228861088b565b91813b156100b75787610f649161284a829661283d60405190565b9889978896879560e01b90565b03925af18015610d675761285f575b80612783565b61287590843d8611610d6057610d5181836101f1565b38612859565b61288491612507565b38806126c9565b9350436128b96107e961018e6128a86128a3896108a3565b612418565b6128b36101006106a1565b906113d9565b1115610c6a5761271a836127146128d86128d2886108a3565b89612956565b9692505050612637565b6128fb91955060203d81116111315761112481836101f1565b9338612623565b6102d690610334565b60608082526017908201527644554e47454f4e5f455850495245445f534545445f563160481b60808201529092916100d29160409061294f60a08201966020830152565b0190612902565b61296f9161297b9160405193849260208401928361290b565b908103825203826101f1565b61298d612986825190565b9160200190565b2090565b905b908115611c33570490565b610b426129aa91610334565b01906001600160401b03821161096d57565b6129c5906151db565b6002906129d76000612714838561087a565b916000926129e76109d385610939565b146129f3575b50505050565b612a1b908360030193611f13612a13612a0b87611869565b809887614dbf565b94859361087a565b612a286109d36006610939565b03612a35575b80806129ed565b612a53612a4e42612a48620143706106a1565b90612991565b6108ad565b91612a5d826108a3565b612a69610b4285610334565b14612a8d5750612a7c612a8692826118bd565b611a7560016108ad565b3880612a2e565b612aa69250611a7590612aa060016108ad565b9061299e565b612a86565b61018e90612abf6107e961018e9460ff1690565b901b90565b61018e61018e61018e9263ffffffff1690565b90612b7f906128b3612b75610f366080610e4d612b56612b30612b11612b016122c18a5160ff1690565b612b0b60f8610939565b90612aab565b6128b3612b26610f3660208c015161ffff1690565b612b0b60e8610939565b6128b3612b4c612b4760408b015163ffffffff1690565b612ac4565b612b0b60c8610939565b6128b3612b6b610f3660608a015161ffff1690565b612b0b60b8610939565b612b0b60a8610939565b90612b8d610abe600661058c565b90634848b1a591803b156100b7576115f060008094612bae6115e360405190565b03925af18015610d6757612bbf5750565b6100d2906000610d5181836101f1565b61018e60a0610217565b612be1612bcf565b9060008252602080808080860160005b815201600081520160008152016000905250565b61018e612bd9565b6020612c3a91612c1b612c05565b50612c29610abe600661058c565b610d1d630178fe3f6114a660405190565b03915afa8015610d6757612c88611b3c612c6361018e93612c9595600091612ca0575b50615984565b979295909193612c7d612c74612bcf565b60ff909a168a52565b61ffff166020890152565b63ffffffff166040870152565b61ffff166060850152565b612cb8915060203d81116111315761112481836101f1565b38612c5d565b600280612cce61018e848361087a565b0190612cd9826108a3565b90600090612ce6826108ad565b612cef84610334565b03612cfb575050505050565b6020612d2c93612d0e610abe600561058c565b612606639507d39a612d1f60405190565b9788948593849360e01b90565b03915afa928315610d67578293612e1f575b50612d48826106a1565b8314610c6a57612d5e611a5c93612dae9661477e565b9083612d7761018e612d6f84612e3f565b93600161087a565b84810194612d8a610b42610b3c886108a3565b14159283612dff575b83612de8575b5082612dc8575b5050612db8575b50506108ad565b3880808080610c6a565b612dc1916118bd565b3880612da7565b612dd392500161240e565b612ddf6109d385610939565b14158338612da0565b909250612df76107e9836106a1565b149138612d99565b9250612e0c828201611c44565b612e18610b42846108ad565b1492612d93565b612e3891935060203d81116111315761112481836101f1565b9138612d3e565b6001612e566000612e50848461087a565b01611869565b91600090612e63826108ad565b612e6c85610334565b14612f2d57612e926020612e83610abe600561058c565b639507d39a90610ae060405190565b82528180612ea38a60048301612430565b03915afa908115610d67578391612f0f575b50612ebf836106a1565b8114612f0157612efb612ef561018e96612ee3610b4261089e88610b36898c61087a565b1494612eef858861087a565b0161240e565b946106a1565b9161449b565b5050905061018e91506106a1565b612f27915060203d81116111315761112481836101f1565b38612eb5565b50905061018e91506106a1565b90612f9290612f4b815161ffff1690565b90612f5a602082015160ff1690565b604082015160ff16606083015161ffff1691612f8c60a0612f80608087015161ffff1690565b95015163ffffffff1690565b94615a2e565b90612b8d610abe600861058c565b61018e60c0610217565b612fb2612fa0565b906000825260208080808080870160008152016000612bf1565b61018e612faa565b6020612ff091612fe2612fcc565b50612c29610abe600861058c565b03915afa908115610d675761305a61306561304561301d61304f9561018e95600091613072575b50615a9d565b97949992919361303b613031979297612fa0565b61ffff909c168c52565b60ff1660208b0152565b60ff166040890152565b61ffff166060870152565b61ffff166080850152565b63ffffffff1660a0830152565b61308a915060203d81116111315761112481836101f1565b38613017565b61018e6000610939565b61018e6001610939565b61018e6002610939565b61018e6003610939565b60070b60016001603f1b0319811461096d576000190190565b60070b60016001603f1b03811461096d5760010190565b939190925b600182116130f9575050565b909192808204811161096d576001831661311b575b8002929160011c906130ed565b9384029361310e565b92919281156131a757801561319f578080600114613196576002146131815760208210610133821016604e8310600b83101617613177579261316a9181939460016130e8565b809204811161096d570290565b0a91821161096d57565b5060ff811161096d5760020a91821161096d57565b50600193505050565b506000925050565b506001925050565b61018e916131c26109d360ff9360ff1690565b90613124565b61018e9060c81c610650565b61018e90546131c8565b6129939060ff166109d3565b6131f382614321565b5090918281613200613090565b61320c60ff8a166109d3565b0361345e57505061321f613226936130b8565b905b61439d565b91600193600061324661018e8661324061018e878b61087a565b9861087a565b95016000613253826108a3565b960161325e816108a3565b906132696002610939565b976132976132818a61327b88826131af565b976109cb565b9961329160049b611e5f8d610939565b906131af565b926132a181610334565b6132aa83610334565b108015613444575b1561336d5750505050816132c5826131d4565b166132d260ff84166109d3565b1461331f5750505050506105d991505b60405162461bcd60e51b8152918291820160208082526012908201527163616e74206d6f766520746869732077617960701b604082015260600190565b8495506109d382613348613338613350949897986131d4565b6133426010610939565b906131de565b169260ff1690565b1461335c575b50505090565b61336592613593565b388181613356565b610b4261337f91969496959395610334565b11156133b257505081613391826131d4565b1661339e60ff84166109d3565b1461331f5750505050506105d991506132e2565b816133bc826131d4565b166133c960ff84166109d3565b148015613426575b6133e657505050505050506105d991506132e2565b8697506133f287969790565b85111561340e5750506109d382613348613338613350946131d4565b8193506133509250906133486133386109d3936131d4565b5083613431846131d4565b1661343e60ff86166109d3565b146133d1565b5061344f60006108ad565b61345882610334565b146132b2565b61346661309a565b61347260ff8a166109d3565b0361348657505091613221613226936130d1565b90936134906130a4565b61349c60ff8a166109d3565b036134af57505061321f613226936130d1565b915092506134bb6130ae565b6134c760ff88166109d3565b036134d857613221613226936130b8565b60405162461bcd60e51b815260206004820152601460248201527334b6b837b9b9b4b13632903234b932b1ba34b7b760611b6044820152606490fd5b61018e6007610939565b9081526040810192916100d2916020906116b9565b1561353a57565b60405162461bcd60e51b81526020600482015260066024820152656e6f206b657960d01b6044820152606490fd5b9081526060810193926100d29290916040916118ee90610a41565b90611cf761018e61171692151590565b91818181116136cd575b506135b06135ac8284866136d6565b1590565b6135b957505050565b6135e3906135ca610abe600761058c565b602063b30dc7ca6135d9613514565b9261108960405190565b825281806135f5868b6004840161351e565b03915afa928315610d67576000936136ad575b5061362160009361361b6107e9866106a1565b11613533565b61362e610abe600761058c565b6001949063c9b902e3813b156100b7578591613653838a9361365e8b6112b760405190565b855260048501613568565b03925af18015610d67576100d29661368b956136869461368693613690575b5050600b61087a565b61087a565b613583565b816136a692903d10610d6057610d5181836101f1565b388061367d565b6136c691935060203d81116111315761112481836101f1565b9138613608565b9150903861359d565b916136866107c79261368661018e956136ed600090565b50600b61087a565b905051906100d282610340565b906020828203126100b75761018e916136f5565b61018e9081906001600160a01b031681565b61018e6008610939565b6040906118ee6100d29496959396610a41606084019860008501906113f0565b9160206100d29294936118ee60408201966000830190610a21565b90611c28565b6020810192916100d29190612902565b909160009261379561018e848661087a565b6001918582016137b061018e6137aa8361088b565b8661087a565b966137be61018e848761087a565b906000818301926137ce846108a3565b6137da610b42856108ad565b036139cd57506137eb888a87613f19565b6137f4856151db565b600261380361018e838361087a565b0161380d816108a3565b613819610b42866108ad565b14806139a6575b61387c575b50505091611f0e613861979695949284611f13956100d29c019061384e610b42610b3c84611c44565b11613866575b50611f08611f0382611c44565b613c78565b80611f08611f3661387693611c44565b38613854565b613885846108ad565b61388e84610334565b14613909575b92806100d29c846138619c9b9a9997946138b5611f0e97611f139b996118bd565b6138f56138e27f644c4d4ff52c1efcb89d373879c1d7e01d3f8b7e60cc19f9bdf5da38cd90c14d926106a1565b926138ec60405190565b91829182613773565b0390a29c5093955081949697989950613825565b989796959390949261393492506020613925610abe600561058c565b63338cdca19061108960405190565b8252600490829085905af18015610d67576100d29c6138619b611f13986138b58594611f0e988691613978575b509750509497999a9b9c5092509c50939550613894565b613999915060203d811161399f575b61399181836101f1565b810190613702565b38613961565b503d613987565b506139bb436139b560036106a1565b9061376d565b6139c76107e9866106a1565b14613820565b6139d684611869565b6139e2610b42856108ad565b149081613c40575b81613c1e575b5080613bbc575b613b30575b613a0585612562565b613a0e85613d73565b613a1a6105f7846113d0565b613a23826101b9565b141580613ae7575b613a36575b506137eb565b613a43610abe600761058c565b9063a41dab81613a51613728565b92803b156100b7578a8691613a6d83613a7a95610d1060405190565b83528a8a60048501613732565b03925af18015610d6757613acb575b50600080516020615bf283398151915289613aac613aa68a6106a1565b9361062a565b93613ac2613ab960405190565b92839283613752565b0390a338613a30565b613ae190853d8711610d6057610d5181836101f1565b38613a89565b50613af9613af482610621565b613716565b613b0c60208c611495610abe600661058c565b03915afa908115610d6757613b29916107e9918791611623575090565b1415613a2b565b50613b526020613b43610abe600561058c565b63338cdca190610ae060405190565b8252600490829086905af1908115610d67578291613b9e575b5080613b7684611869565b613b82610b42856108ad565b14613b8e575b506139fc565b613b989084611897565b38613b88565b613bb6915060203d811161399f5761399181836101f1565b38613b6b565b50613bcf60206119b4610abe600961058c565b82526004820189905260249082905afa908115610d67578391613c00575b50613bfa6107e9846106a1565b146139f7565b613c18915060203d81116111315761112481836101f1565b38613bed565b613c2b91506002016108a3565b613c38610b4260026108ad565b1415386139f0565b9050613c4b84611c44565b613c57610b42856108ad565b14906139ea565b613c6b9061ffff16610c24565b019061ffff821161096d57565b613c8181612c0d565b6080810191613c92835161ffff1690565b613ca7610c24610a09606086015161ffff1690565b10613cb157505050565b610bcf6100d293611e22613cc56001610a61565b825161ffff16613c5e565b905051906100d2826101c5565b906020828203126100b75761018e91613cd0565b6020613d1e91613cff600090565b50613d0d610abe600961058c565b610d1d636352211e6114a660405190565b03915afa908115610d6757600091613d45575b50613d416105fc6105f73061062a565b1490565b613d66915060203d8111613d6c575b613d5e81836101f1565b810190613cdd565b38613d31565b503d613d54565b613d7c81613cf1565b15613de4576020613da591613d94610abe600961058c565b610d1d6369f648a16114a660405190565b03915afa908115610d675761018e9161150c91600091613dc6575b506113c3565b613dde915060203d81116111315761112481836101f1565b38613dc0565b5061018e60006113d0565b61018e9060181c610650565b61018e9054613def565b9062ff00009060101b6116e5565b90613e2361018e61171692611cd7565b8254613e05565b9060ff60c01b9060c01b6116e5565b90613e4961018e61171692611cd7565b8254613e2a565b9060ff60d81b9060d81b6116e5565b90613e6f61018e61171692611cd7565b8254613e50565b9063ff0000009060181b6116e5565b90613e9561018e61171692611cd7565b8254613e76565b9060ff60e81b9060e81b6116e5565b90613ebb61018e61171692611cd7565b8254613e9c565b61018e9060101c610650565b61018e9054613ec2565b9060ff60e01b9060e01b6116e5565b90613ef761018e61171692611cd7565b8254613ed8565b9160206100d292949361253960408201966000830190612902565b90613f3161018e6002613f2b856151db565b9061087a565b9260018401613f3f8161088b565b90600091613f4f6107e9846106a1565b1161421c575b50613f63610abe600761058c565b9463c9b902e3613f71613728565b613f7a87614737565b97803b156100b757613fa1858094613fad613f9460405190565b9c8d968795869460e01b90565b84528c60048501610a2a565b03925af1958615610d6757613ff996614200575b50600190613fd261018e878461087a565b6020613fe1610abe600561058c565b63338cdca190613ff060405190565b9a8b9260e01b90565b8252600490829088905af1978815610d675784986141d6575b5090858383868a969501976140278c8a6118bd565b6140318c8a611897565b61403b9089613e39565b868401614047816124f0565b614051908a613e5f565b61405a81613dfb565b6140638161095c565b61406d9083613e85565b614077908a613eab565b61408090613ece565b61408a9089613ee7565b019061409591611cb7565b01906140a091611cb7565b6140aa600661058c565b6140b39061062a565b633038bb086140c160405190565b80956140ce829360e01b90565b82526004909101526024815a93602094fa928315610d675781936141b6575b506140f783614271565b614104610abe600961058c565b92636611a8d490843b156100b75761413e9461413284809461412560405190565b9889958694859360e01b90565b83528b60048401610922565b03925af1928315610d675761415993614199575b505061244c565b6141837fa97399cd19a5b00b49b7d10d188180e100139a0501c9c9b4fe21dab5b915162f926106a1565b92611b6861419060405190565b92839283613efe565b816141af92903d10610d6057610d5181836101f1565b3880614152565b6141cf91935060203d81116111315761112481836101f1565b91386140ed565b838894939299506141f5889260203d811161399f5761399181836101f1565b999293509350614012565b61421690833d8511610d6057610d5181836101f1565b38613fc1565b8061422c6111616142509361088b565b61424183880161423b81613dfb565b90613e13565b61424a836106a1565b90611cb7565b38613f55565b9160206100d2929493610935604082019660008301906118d4565b61427d61150c826113c3565b60009161428c6107e9846106a1565b1415806142fb575b61429c575050565b6142ac426128b3620697806106a1565b6142bb81611f0e84600d610633565b6142e57fc24affdb20f6529973515c5398461c1f6228edbfac531ab49e56a11433a86c9f9261062a565b92611b686142f260405190565b92839283614256565b5061430f61430a82600d610633565b61088b565b61431b6107e9846106a1565b14614294565b9061432e611da8836108ad565b9161434b611da8612a4e614345600160401b6106a1565b84612991565b9161018e612a4e61436c611da882614366600160801b6106a1565b87612991565b93612a48600160ff1b6106a1565b61089e61018e61018e9260070b90565b8181029291811591840414171561096d57565b906128a36144036128b3926128b36143f66128a36143f061018e996143c0600090565b506143eb6117ad6143d86128a3600160ff1b9461437a565b6143e5600160801b6106a1565b9061438a565b6113d9565b9361437a565b6143e5600160401b6106a1565b9261437a565b61018e600160ff1b6106a1565b9190820391821161096d57565b61018e600160fe1b6106a1565b61444e61018e9161443f600090565b50614448614409565b90614416565b6128b3614423565b61018e600f610939565b6102d69060ff1660f81b90565b6001939261448a6020836144848295610247979052565b01918252565b018092614460565b61018e906106a1565b9290936144a6600090565b506144b56109d361065061309a565b03614588576144c2614456565b8091614573575b5061451f6107e961451961450f6144e06006610939565b6144fe6144ec60405190565b809261296f60208301918d8d8461446d565b614509612986825190565b20614492565b6139b560646106a1565b92610972565b106145315750505061018e60006106a1565b614564614569926144fe61018e956145496007610939565b9261296f61455660405190565b94859360208501938461446d565b61376d565b6128b360016106a1565b6145829150611e4f600a610939565b386144c9565b5050505061018e60006106a1565b61018e6019610939565b909290916145ae60006106a1565b936145c76145bc8686614f70565b612a486122c1614596565b858114614727575b6002906146176145e76145e1846106a1565b83612991565b6128b38361456461296f6144fe6145fe6064610939565b8d61460860405190565b9384928d60208501938461446d565b95878714614715575b6146286130a4565b61463460ff87166109d3565b146146ed575b916128b39161467b9493600861464f816106a1565b83116146cd575b506144fe61467061466a61456494956106a1565b85612991565b956145496065610939565b9384146146bb575b6146986109d361469161309a565b9260ff1690565b1461469f57565b916146b8906128b36146b26122c161168b565b82612991565b91565b92506146c760016106a1565b92614683565b614564925061467061466a6146e46144fe936106a1565b94505050614656565b95916128b39161470961467b95946128b36146b26122c161168b565b9791939450915061463a565b955061472160016106a1565b95614620565b5061473260016106a1565b6145cf565b61474261018e614409565b8103614753575061018e60006106a1565b61476a61018e9161476460006106a1565b90614f70565b6143eb6117ad600192612a486122c1614596565b614800916147fa6147d16147b36147956066610939565b6144fe6147a160405190565b809261296f6020830191898b8461446d565b6139b56117ad61296f6144fe6147d66147d16009966139b5886106a1565b610939565b976147e16067610939565b906147eb60405190565b93849260208401928d8461446d565b916152ac565b9061018e60026108ad565b959492906148276103ea959361481f600090565b508289615362565b96614837565b61018e6005610939565b9493600061484f614847886151db565b959497614321565b5050600093916148616117fc86610aa1565b149081614d19575b501561488c5750505050505061487d6130a4565b916148886001610939565b1790565b95909691929394965b60ff87165b60ff871611614d0f57506148ae6003610939565b6148f96147d16148ef876144fe8a8d61296f886148ca60405190565b9586946020860194859261448a60016102479461448460208861448a859b9a83999052565b6139b560146106a1565b9061491b6149076001610939565b85166149166109d36001610939565b141590565b908180614ce6575b156149545750505061489a61494b6149396130a4565b936149446001610939565b179661095c565b95929050614895565b6149706149616002610939565b86166149166109d36002610939565b918280614c98575b1561499a575050505061489a61494b61498f6130ae565b936149446002610939565b6149b66149a76004610939565b87166149166109d36004610939565b918280614bf5575b156149e157505050505061489a61494b6149d661168b565b936149446004610939565b6149fd6149ee6008610939565b88166149166109d36008610939565b9485614a40575b5050505050600014614a295761489a61494b614a1e61482d565b936149446008610939565b61489a61494b614a3a96939661309a565b9361095c565b614a4f91929394955060ff1690565b14928315614bde575b8315614bba575b8315614b96575b8315614b72575b8315614b41575b8315614b10575b8315614adf575b8315614a96575b5050503880808080614a04565b90919250614aa4604d610939565b60ff8916149283614ad7575b5082614acf575b5081614ac7575b50388080614a89565b905038614abe565b915038614ab7565b925038614ab0565b9250614aeb604e610939565b60ff89161480614b09575b80614b02575b92614a82565b5082614afc565b5081614af6565b9250614b1c604e610939565b60ff89161480614b3a575b80614b33575b92614a7b565b5081614b2d565b5080614b27565b9250614b4d604e610939565b60ff89161480614b6b575b80614b64575b92614a74565b5082614b5e565b5080614b58565b9250614b7e604f610939565b60ff89161480614b8f575b92614a6d565b5081614b89565b9250614ba2604f610939565b60ff89161480614bb3575b92614a66565b5082614bad565b9250614bc6604f610939565b60ff89161480614bd7575b92614a5f565b5080614bd1565b9250614bea6050610939565b60ff89161492614a58565b50614c006002610939565b60ff8616148015614c83575b8015614c66575b8015614c49575b806149be5750614c2a604e610939565b60ff8b161480614c42575b80156149be5750836149be565b5081614c35565b50614c54604f610939565b60ff8b16148015614c1a575083614c1a565b50614c71604f610939565b60ff8b16148015614c13575081614c13565b50614c8e6050610939565b60ff8b1614614c0c565b50614ca36001610939565b60ff8516148015614cd1575b806149785750614cbf604f610939565b60ff8a16148015614978575080614978565b50614cdc6050610939565b60ff8a1614614caf565b50614cf086610939565b60ff841614806149235750614d056050610939565b60ff891614614923565b9650935093505050565b9050614d276117fc85610aa1565b1438614869565b61018e600a610939565b61089e61018e61018e9260ff1690565b610b42614d5491610334565b0290614d5f82610334565b91820361096d57565b61018e6064610a61565b610a0961018e61018e9260ff1690565b614d8e9060070b6117fc565b908115611c33570790565b614da961018e61018e9260070b90565b60000b90565b61065061018e61018e9260000b90565b91614dc983615126565b908115614eeb575b5015614de357505061018e6006610939565b614e026128a3614df28461508c565b614dfc60096108ad565b90614d48565b614e0c60006106a1565b8111614ed8575b614e216107e96122c1614596565b10614ecc576147d1614e5961296f6144fe614e6494614e40600c610939565b90614e4a60405190565b93849260208401928a8461446d565b6139b56127106106a1565b614e78614e72610a09614d68565b91614d72565b11614ec157614e8961018e91614321565b50915050614ebc614eb6614eb1614eac600194614ea66005610aa1565b90614d82565b614d99565b614daf565b91610939565b6109cb565b5061018e6006610939565b505061018e6006610939565b614ee69061444860046106a1565b614e13565b9050614f00610b42614efb614d2e565b614d38565b101538614dd1565b614f149060070b6117fc565b90039060016001603f1b0319821260016001603f1b0383131761096d57565b61018e61018e61018e9260070b90565b600160ff1b811461096d5760000390565b9190808303926000909112801582851316918412161761096d57565b614fa2614f9d614f8b614f9593614f85600090565b50614321565b5050939094614321565b505094614f08565b614f33565b91600091614faf836106a1565b8412615055575b614f9d614fc6926117ad92614f08565b8112615047575b6001603f1b614fdb816106a1565b8313615029575b614feb906106a1565b811361500e575b80821315615004575061018e906106a1565b61018e91506106a1565b6150249061501f600160401b6106a1565b614f54565b614ff2565b91614feb9061503f9061501f600160401b6106a1565b929050614fe2565b61505090614f43565b614fcd565b92614f9d614fc6926150696117ad93614f43565b959250925050614fb6565b60070b60016001603f1b0319811461096d5760000390565b615097906000614f85565b508190506000836150a782610aa1565b6150b18260070b90565b12615110575b506150c190610aa1565b6150cb8260070b90565b12615100575b506150dc8160070b90565b6150e68360070b90565b13156150f6575061018e9061437a565b61018e915061437a565b61510a9150615074565b386150d1565b6150c191945061511f90615074565b93906150b7565b615131906000614f85565b50506000199161514083610aa1565b61514a8260070b90565b12159283615191575b5082615178575b5081615164575090565b90506151736117fc6001610aa1565b131590565b9091506151886117fc6001610aa1565b1315903861515a565b61519c919350610aa1565b6151a68260070b90565b12159138615153565b6151bb9060070b6117fc565b908115611c335760016001603f1b0319811460001983141661096d570590565b61523b61018e916151f36151ed600090565b91614321565b5093909160009061520382610aa1565b61520d8260070b90565b1261527c5761522361523391611dad6004610aa1565b61522d6009610aa1565b906151af565b935b50610aa1565b6152458260070b90565b1261525b5761522361321f91611dad6004610aa1565b61527761522361526d61321f93615074565b611dad6004610aa1565b615074565b61527761522361526d61528e93615074565b93615235565b6152a09060070b6117fc565b0290614d5f8260070b90565b61321f61018e93611dad611da861530c615312966153066153186152f06152ea6152db6152ea9b614f85600090565b509d9160099491949d8e610aa1565b90615294565b95611dad611da861530c6004996153068b610aa1565b90614f08565b92614d38565b9a610aa1565b91610aa1565b61018e6057610939565b61018e6028610939565b61533e9060ff166109d3565b90039060ff821161096d57565b6153579060ff166109d3565b029060ff8216614d5f565b9060009261536f84610939565b9061537861168b565b61538460ff83166109d3565b03615636575050615395600f610939565b925b6153c26153a4606f610939565b6144fe6153b060405190565b809261296f6020830191888a8461446d565b6153d46147d16064926139b5846106a1565b906153f16106506153e3615328565b6153ec84610939565b615332565b60ff831610156155fa57505061540690610939565b905b60049161541483610939565b60ff82161061543f575050614888915061543a614eb6600f92613291614eb66002610939565b61534b565b600361544a81610939565b60ff8316036154f557505061547d6147d161547461549794956144fe615487956145496070610939565b6139b5866106a1565b611e4f6001610939565b6154916007610939565b9061534b565b6154a16015610939565b60ff8216036154c557506148889061543a614eb6600d92613291614eb66002610939565b6154d26109d3601c610939565b146154db575090565b6148889061543a614eb6600b92613291614eb66002610939565b909160029261550384610939565b60ff8216036155955750614eb661547d6147d161553061553a9697986144fe615491966145496070610939565b6139b560066106a1565b615544600f610939565b60ff821603615566575061543a614eb661488893613291614eb6600595610939565b6155736109d36012610939565b1461557d57505090565b61543a614eb661488893613291614eb6600a95610939565b909291506155a66109d36001610939565b146155b3575b5050505090565b6132916155e36155e96155e36147d16155da6155f0996144fe615491996145496070610939565b6139b5896106a1565b93610939565b92836131af565b17388080806155ac565b6109d361065061560f926153ec614eb6614d2e565b10159050615627576156216001610939565b90615408565b6156316002610939565b615621565b61564194919461531e565b9061564c6001610939565b9161566d61565960405190565b6144fe816020810161296f888b8d8461446d565b906156866109d36106506147d16064956139b5876106a1565b1161593c575b90849291615698615328565b6156cd6109d36106506147d16156c48c6144fe6156b56002610939565b9b8c9261296f61455660405190565b6139b5876106a1565b116156dc575b50505050615397565b86906156ea98949598614596565b876156f56003610939565b916157236109d36106506147d16155da61570e60405190565b6144fe818c61296f8c8c60208501938461446d565b11156157dc5750505050615735613090565b61574160ff83166109d3565b1480156157c1575b1561576757505061575a6008610939565b1717925b388080806156d3565b909195925061577461309a565b61578060ff83166109d3565b149081156157aa575b50615795575b5061575e565b9093176157a26004610939565b17923861578f565b90506157ba6109d36146916130ae565b1438615789565b506157ca6130a4565b6157d660ff83166109d3565b14615749565b6147d1615806936139b56117ad614eb6956144fe6106509660329e9c9e9a61296f61455660405190565b11156158a357615814613090565b61582060ff83166109d3565b0361583a57505090506158336008610939565b179261575e565b61584261309a565b61584e60ff83166109d3565b0361585d57505017925b61575e565b9092506158686130a4565b61587460ff83166109d3565b036158815750179261575e565b909491506158936109d36146916130ae565b0361585857926158336004610939565b6158ae939193613090565b6158ba60ff83166109d3565b036158c8575050179261575e565b909192506158d461309a565b6158e060ff83166109d3565b036158f15750506158336004610939565b6158f96130a4565b61590560ff83166109d3565b036159165750506158336008610939565b6159276109d36146919794976130ae565b14615932575061575e565b909317923861578f565b95509081615954859361594f6002610939565b6131af565b969091925061568c565b61018e906159726107e961018e9460ff1690565b901c90565b610a7f61018e61018e9290565b9061599b6147d161599560f8610939565b8461595e565b916159af6159a960e8610939565b8261595e565b6159c86159c362010000926139b5846106a1565b610a61565b93615a2b6159c36159fa6159f56159e86159e260c8610939565b8861595e565b6139b5600160201b6106a1565b615977565b936139b56117ad615a1a6159c3615474615a1460b8610939565b8b61595e565b97615a2560a8610939565b9061595e565b93565b615a8d615a736128b3956128b3615a83615a7361018e9b9a976128b3615a796145196128b39a6128b3612b26615a979f612b01615a7391615a6d600090565b50610972565b92610a10565b612b0b60e0610939565b612b0b60d0610939565b612b0b60c0610939565b91612ac4565b90615aae6147d161599560f8610939565b615abb61599560e8610939565b615acf6159c362010000926139b5846106a1565b93615aee6147d1615ae361599560e0610939565b6139b56101006106a1565b9361018e6159f5615b2e6159c3615b1d6159c3615b14615b0e60d0610939565b8961595e565b6139b58a6106a1565b966139b56117ad615b0e60c0610939565b936139b5600160201b6106a1565b91615b56611da8615b5b9394615b50600090565b50611bac565b611bcc565b90615b6b610a5b611da883611bac565b615b758360070b90565b13615bac57506000615b8681610aa1565b615b908360070b90565b13615b9f5761018e9150610a61565b5061100761018e91611bf6565b90509056fed02b8bdc1eb9eb4a85fe2b27c68fbe1eec04f697f660cc4cf3bb2cee4456f4903042d0c278ec3b2d8bf290d27da7bb56226996146c187fc01f6f448b6283da7241d17e4a29add7df9dab104b7b914e73209c448b1fd78b8ca04efc5e24df1abba26469706673582212201958bc79a64952165e77788cbc6f639306ad03c50acbf57c0b850d5585ba91a464736f6c63430008140033",
  "devdoc": {
    "kind": "dev",
    "methods": {},
    "version": 1
  },
  "userdoc": {
    "kind": "user",
    "methods": {},
    "version": 1
  },
  "storageLayout": {
    "storage": [
      {
        "astId": 3423,
        "contract": "src/dungeon/DungeonAdminFacet.sol:DungeonAdminFacet",
        "label": "_characters",
        "offset": 0,
        "slot": "0",
        "type": "t_mapping(t_uint256,t_struct(Character)3405_storage)"
      },
      {
        "astId": 3428,
        "contract": "src/dungeon/DungeonAdminFacet.sol:DungeonAdminFacet",
        "label": "_rooms",
        "offset": 0,
        "slot": "1",
        "type": "t_mapping(t_uint256,t_struct(Room)3388_storage)"
      },
      {
        "astId": 3433,
        "contract": "src/dungeon/DungeonAdminFacet.sol:DungeonAdminFacet",
        "label": "_areas",
        "offset": 0,
        "slot": "2",
        "type": "t_mapping(t_uint256,t_struct(Area)3418_storage)"
      },
      {
        "astId": 3441,
        "contract": "src/dungeon/DungeonAdminFacet.sol:DungeonAdminFacet",
        "label": "_areaCounter",
        "offset": 0,
        "slot": "3",
        "type": "t_struct(AreaCounter)3438_storage"
      },
      {
        "astId": 3443,
        "contract": "src/dungeon/DungeonAdminFacet.sol:DungeonAdminFacet",
        "label": "_adminContract",
        "offset": 0,
        "slot": "4",
        "type": "t_address"
      },
      {
        "astId": 3446,
        "contract": "src/dungeon/DungeonAdminFacet.sol:DungeonAdminFacet",
        "label": "_blockHashRegister",
        "offset": 0,
        "slot": "5",
        "type": "t_contract(BlockHashRegister)13344"
      },
      {
        "astId": 3449,
        "contract": "src/dungeon/DungeonAdminFacet.sol:DungeonAdminFacet",
        "label": "_charactersContract",
        "offset": 0,
        "slot": "6",
        "type": "t_contract(Characters)743"
      },
      {
        "astId": 3452,
        "contract": "src/dungeon/DungeonAdminFacet.sol:DungeonAdminFacet",
        "label": "_elementsContract",
        "offset": 0,
        "slot": "7",
        "type": "t_contract(Elements)12944"
      },
      {
        "astId": 3455,
        "contract": "src/dungeon/DungeonAdminFacet.sol:DungeonAdminFacet",
        "label": "_gearsContract",
        "offset": 0,
        "slot": "8",
        "type": "t_contract(Gears)12963"
      },
      {
        "astId": 3458,
        "contract": "src/dungeon/DungeonAdminFacet.sol:DungeonAdminFacet",
        "label": "_roomsContract",
        "offset": 0,
        "slot": "9",
        "type": "t_contract(Rooms)13030"
      },
      {
        "astId": 3461,
        "contract": "src/dungeon/DungeonAdminFacet.sol:DungeonAdminFacet",
        "label": "_playerContract",
        "offset": 0,
        "slot": "10",
        "type": "t_contract(Player)11309"
      },
      {
        "astId": 3469,
        "contract": "src/dungeon/DungeonAdminFacet.sol:DungeonAdminFacet",
        "label": "_unlockedExits",
        "offset": 0,
        "slot": "11",
        "type": "t_mapping(t_uint256,t_mapping(t_uint256,t_mapping(t_uint256,t_bool)))"
      },
      {
        "astId": 3481,
        "contract": "src/dungeon/DungeonAdminFacet.sol:DungeonAdminFacet",
        "label": "_quests",
        "offset": 0,
        "slot": "12",
        "type": "t_mapping(t_uint256,t_mapping(t_uint64,t_struct(Quest)3474_storage))"
      },
      {
        "astId": 3485,
        "contract": "src/dungeon/DungeonAdminFacet.sol:DungeonAdminFacet",
        "label": "_taxDueDate",
        "offset": 0,
        "slot": "13",
        "type": "t_mapping(t_address,t_uint256)"
      },
      {
        "astId": 3489,
        "contract": "src/dungeon/DungeonAdminFacet.sol:DungeonAdminFacet",
        "label": "_customRoomNames",
        "offset": 0,
        "slot": "14",
        "type": "t_mapping(t_uint256,t_string_storage)"
      },
      {
        "astId": 3493,
        "contract": "src/dungeon/DungeonAdminFacet.sol:DungeonAdminFacet",
        "label": "_allowedForwardTargets",
        "offset": 0,
        "slot": "15",
        "type": "t_mapping(t_address,t_bool)"
      },
      {
        "astId": 3499,
        "contract": "src/dungeon/DungeonAdminFacet.sol:DungeonAdminFacet",
        "label": "_allowedForwardSelectors",
        "offset": 0,
        "slot": "16",
        "type": "t_mapping(t_address,t_mapping(t_bytes4,t_bool))"
      }
    ],
    "types": {
      "t_address": {
        "encoding": "inplace",
        "label": "address",
        "numberOfBytes": "20"
      },
      "t_bool": {
        "encoding": "inplace",
        "label": "bool",
        "numberOfBytes": "1"
      },
      "t_bytes4": {
        "encoding": "inplace",
        "label": "bytes4",
        "numberOfBytes": "4"
      },
      "t_contract(BlockHashRegister)13344": {
        "encoding": "inplace",
        "label": "contract BlockHashRegister",
        "numberOfBytes": "20"
      },
      "t_contract(Characters)743": {
        "encoding": "inplace",
        "label": "contract Characters",
        "numberOfBytes": "20"
      },
      "t_contract(Elements)12944": {
        "encoding": "inplace",
        "label": "contract Elements",
        "numberOfBytes": "20"
      },
      "t_contract(Gears)12963": {
        "encoding": "inplace",
        "label": "contract Gears",
        "numberOfBytes": "20"
      },
      "t_contract(Player)11309": {
        "encoding": "inplace",
        "label": "contract Player",
        "numberOfBytes": "20"
      },
      "t_contract(Rooms)13030": {
        "encoding": "inplace",
        "label": "contract Rooms",
        "numberOfBytes": "20"
      },
      "t_int64": {
        "encoding": "inplace",
        "label": "int64",
        "numberOfBytes": "8"
      },
      "t_mapping(t_address,t_bool)": {
        "encoding": "mapping",
        "key": "t_address",
        "label": "mapping(address => bool)",
        "numberOfBytes": "32",
        "value": "t_bool"
      },
      "t_mapping(t_address,t_mapping(t_bytes4,t_bool))": {
        "encoding": "mapping",
        "key": "t_address",
        "label": "mapping(address => mapping(bytes4 => bool))",
        "numberOfBytes": "32",
        "value": "t_mapping(t_bytes4,t_bool)"
      },
      "t_mapping(t_address,t_uint256)": {
        "encoding": "mapping",
        "key": "t_address",
        "label": "mapping(address => uint256)",
        "numberOfBytes": "32",
        "value": "t_uint256"
      },
      "t_mapping(t_bytes4,t_bool)": {
        "encoding": "mapping",
        "key": "t_bytes4",
        "label": "mapping(bytes4 => bool)",
        "numberOfBytes": "32",
        "value": "t_bool"
      },
      "t_mapping(t_uint256,t_bool)": {
        "encoding": "mapping",
        "key": "t_uint256",
        "label": "mapping(uint256 => bool)",
        "numberOfBytes": "32",
        "value": "t_bool"
      },
      "t_mapping(t_uint256,t_mapping(t_uint256,t_bool))": {
        "encoding": "mapping",
        "key": "t_uint256",
        "label": "mapping(uint256 => mapping(uint256 => bool))",
        "numberOfBytes": "32",
        "value": "t_mapping(t_uint256,t_bool)"
      },
      "t_mapping(t_uint256,t_mapping(t_uint256,t_mapping(t_uint256,t_bool)))": {
        "encoding": "mapping",
        "key": "t_uint256",
        "label": "mapping(uint256 => mapping(uint256 => mapping(uint256 => bool)))",
        "numberOfBytes": "32",
        "value": "t_mapping(t_uint256,t_mapping(t_uint256,t_bool))"
      },
      "t_mapping(t_uint256,t_mapping(t_uint64,t_struct(Quest)3474_storage))": {
        "encoding": "mapping",
        "key": "t_uint256",
        "label": "mapping(uint256 => mapping(uint64 => struct DungeonDataLayout.Quest))",
        "numberOfBytes": "32",
        "value": "t_mapping(t_uint64,t_struct(Quest)3474_storage)"
      },
      "t_mapping(t_uint256,t_string_storage)": {
        "encoding": "mapping",
        "key": "t_uint256",
        "label": "mapping(uint256 => string)",
        "numberOfBytes": "32",
        "value": "t_string_storage"
      },
      "t_mapping(t_uint256,t_struct(Area)3418_storage)": {
        "encoding": "mapping",
        "key": "t_uint256",
        "label": "mapping(uint256 => struct DungeonDataLayout.Area)",
        "numberOfBytes": "32",
        "value": "t_struct(Area)3418_storage"
      },
      "t_mapping(t_uint256,t_struct(Character)3405_storage)": {
        "encoding": "mapping",
        "key": "t_uint256",
        "label": "mapping(uint256 => struct DungeonDataLayout.Character)",
        "numberOfBytes": "32",
        "value": "t_struct(Character)3405_storage"
      },
      "t_mapping(t_uint256,t_struct(Room)3388_storage)": {
        "encoding": "mapping",
        "key": "t_uint256",
        "label": "mapping(uint256 => struct DungeonDataLayout.Room)",
        "numberOfBytes": "32",
        "value": "t_struct(Room)3388_storage"
      },
      "t_mapping(t_uint64,t_struct(Quest)3474_storage)": {
        "encoding": "mapping",
        "key": "t_uint64",
        "label": "mapping(uint64 => struct DungeonDataLayout.Quest)",
        "numberOfBytes": "32",
        "value": "t_struct(Quest)3474_storage"
      },
      "t_string_storage": {
        "encoding": "bytes",
        "label": "string",
        "numberOfBytes": "32"
      },
      "t_struct(Area)3418_storage": {
        "encoding": "inplace",
        "label": "struct DungeonDataLayout.Area",
        "members": [
          {
            "astId": 3407,
            "contract": "src/dungeon/DungeonAdminFacet.sol:DungeonAdminFacet",
            "label": "areaType",
            "offset": 0,
            "slot": "0",
            "type": "t_uint8"
          },
          {
            "astId": 3409,
            "contract": "src/dungeon/DungeonAdminFacet.sol:DungeonAdminFacet",
            "label": "discovered",
            "offset": 1,
            "slot": "0",
            "type": "t_uint8"
          },
          {
            "astId": 3411,
            "contract": "src/dungeon/DungeonAdminFacet.sol:DungeonAdminFacet",
            "label": "lastRoomIndex",
            "offset": 2,
            "slot": "0",
            "type": "t_uint8"
          },
          {
            "astId": 3413,
            "contract": "src/dungeon/DungeonAdminFacet.sol:DungeonAdminFacet",
            "label": "currentIndex",
            "offset": 3,
            "slot": "0",
            "type": "t_uint8"
          },
          {
            "astId": 3415,
            "contract": "src/dungeon/DungeonAdminFacet.sol:DungeonAdminFacet",
            "label": "lastRoom",
            "offset": 0,
            "slot": "1",
            "type": "t_uint256"
          },
          {
            "astId": 3417,
            "contract": "src/dungeon/DungeonAdminFacet.sol:DungeonAdminFacet",
            "label": "eventBlockNumber",
            "offset": 0,
            "slot": "2",
            "type": "t_uint64"
          }
        ],
        "numberOfBytes": "96"
      },
      "t_struct(AreaCounter)3438_storage": {
        "encoding": "inplace",
        "label": "struct DungeonDataLayout.AreaCounter",
        "members": [
          {
            "astId": 3435,
            "contract": "src/dungeon/DungeonAdminFacet.sol:DungeonAdminFacet",
            "label": "lastPeriod",
            "offset": 0,
            "slot": "0",
            "type": "t_uint64"
          },
          {
            "astId": 3437,
            "contract": "src/dungeon/DungeonAdminFacet.sol:DungeonAdminFacet",
            "label": "numAreas",
            "offset": 8,
            "slot": "0",
            "type": "t_uint64"
          }
        ],
        "numberOfBytes": "32"
      },
      "t_struct(Character)3405_storage": {
        "encoding": "inplace",
        "label": "struct DungeonDataLayout.Character",
        "members": [
          {
            "astId": 3390,
            "contract": "src/dungeon/DungeonAdminFacet.sol:DungeonAdminFacet",
            "label": "location",
            "offset": 0,
            "slot": "0",
            "type": "t_uint256"
          },
          {
            "astId": 3392,
            "contract": "src/dungeon/DungeonAdminFacet.sol:DungeonAdminFacet",
            "label": "direction",
            "offset": 0,
            "slot": "1",
            "type": "t_uint8"
          },
          {
            "astId": 3394,
            "contract": "src/dungeon/DungeonAdminFacet.sol:DungeonAdminFacet",
            "label": "floors",
            "offset": 1,
            "slot": "1",
            "type": "t_int64"
          },
          {
            "astId": 3396,
            "contract": "src/dungeon/DungeonAdminFacet.sol:DungeonAdminFacet",
            "label": "slot_1",
            "offset": 0,
            "slot": "2",
            "type": "t_uint256"
          },
          {
            "astId": 3398,
            "contract": "src/dungeon/DungeonAdminFacet.sol:DungeonAdminFacet",
            "label": "slot_2",
            "offset": 0,
            "slot": "3",
            "type": "t_uint256"
          },
          {
            "astId": 3400,
            "contract": "src/dungeon/DungeonAdminFacet.sol:DungeonAdminFacet",
            "label": "slot_3",
            "offset": 0,
            "slot": "4",
            "type": "t_uint256"
          },
          {
            "astId": 3402,
            "contract": "src/dungeon/DungeonAdminFacet.sol:DungeonAdminFacet",
            "label": "slot_4",
            "offset": 0,
            "slot": "5",
            "type": "t_uint256"
          },
          {
            "astId": 3404,
            "contract": "src/dungeon/DungeonAdminFacet.sol:DungeonAdminFacet",
            "label": "slot_5",
            "offset": 0,
            "slot": "6",
            "type": "t_uint256"
          }
        ],
        "numberOfBytes": "224"
      },
      "t_struct(Quest)3474_storage": {
        "encoding": "inplace",
        "label": "struct DungeonDataLayout.Quest",
        "members": [
          {
            "astId": 3471,
            "contract": "src/dungeon/DungeonAdminFacet.sol:DungeonAdminFacet",
            "label": "status",
            "offset": 0,
            "slot": "0",
            "type": "t_uint8"
          },
          {
            "astId": 3473,
            "contract": "src/dungeon/DungeonAdminFacet.sol:DungeonAdminFacet",
            "label": "data",
            "offset": 0,
            "slot": "1",
            "type": "t_string_storage"
          }
        ],
        "numberOfBytes": "64"
      },
      "t_struct(Room)3388_storage": {
        "encoding": "inplace",
        "label": "struct DungeonDataLayout.Room",
        "members": [
          {
            "astId": 3367,
            "contract": "src/dungeon/DungeonAdminFacet.sol:DungeonAdminFacet",
            "label": "blockNumber",
            "offset": 0,
            "slot": "0",
            "type": "t_uint64"
          },
          {
            "astId": 3369,
            "contract": "src/dungeon/DungeonAdminFacet.sol:DungeonAdminFacet",
            "label": "monsterBlockNumber",
            "offset": 8,
            "slot": "0",
            "type": "t_uint64"
          },
          {
            "astId": 3371,
            "contract": "src/dungeon/DungeonAdminFacet.sol:DungeonAdminFacet",
            "label": "numActiveCharacters",
            "offset": 16,
            "slot": "0",
            "type": "t_uint64"
          },
          {
            "astId": 3373,
            "contract": "src/dungeon/DungeonAdminFacet.sol:DungeonAdminFacet",
            "label": "direction",
            "offset": 24,
            "slot": "0",
            "type": "t_uint8"
          },
          {
            "astId": 3375,
            "contract": "src/dungeon/DungeonAdminFacet.sol:DungeonAdminFacet",
            "label": "exits",
            "offset": 25,
            "slot": "0",
            "type": "t_uint8"
          },
          {
            "astId": 3377,
            "contract": "src/dungeon/DungeonAdminFacet.sol:DungeonAdminFacet",
            "label": "kind",
            "offset": 26,
            "slot": "0",
            "type": "t_uint8"
          },
          {
            "astId": 3379,
            "contract": "src/dungeon/DungeonAdminFacet.sol:DungeonAdminFacet",
            "label": "areaAtDiscovery",
            "offset": 27,
            "slot": "0",
            "type": "t_uint8"
          },
          {
            "astId": 3381,
            "contract": "src/dungeon/DungeonAdminFacet.sol:DungeonAdminFacet",
            "label": "lastRoomIndex",
            "offset": 28,
            "slot": "0",
            "type": "t_uint8"
          },
          {
            "astId": 3383,
            "contract": "src/dungeon/DungeonAdminFacet.sol:DungeonAdminFacet",
            "label": "index",
            "offset": 29,
            "slot": "0",
            "type": "t_uint8"
          },
          {
            "astId": 3385,
            "contract": "src/dungeon/DungeonAdminFacet.sol:DungeonAdminFacet",
            "label": "discoverer",
            "offset": 0,
            "slot": "1",
            "type": "t_uint256"
          },
          {
            "astId": 3387,
            "contract": "src/dungeon/DungeonAdminFacet.sol:DungeonAdminFacet",
            "label": "randomEvent",
            "offset": 0,
            "slot": "2",
            "type": "t_uint64"
          }
        ],
        "numberOfBytes": "96"
      },
      "t_uint256": {
        "encoding": "inplace",
        "label": "uint256",
        "numberOfBytes": "32"
      },
      "t_uint64": {
        "encoding": "inplace",
        "label": "uint64",
        "numberOfBytes": "8"
      },
      "t_uint8": {
        "encoding": "inplace",
        "label": "uint8",
        "numberOfBytes": "1"
      }
    }
  }
}