{
  "address": "0xeB08629f103Cb941fC5abb1829e456434C47b675",
  "abi": [
    {
      "anonymous": false,
      "inputs": [
        {
          "indexed": true,
          "internalType": "address",
          "name": "owner",
          "type": "address"
        },
        {
          "indexed": true,
          "internalType": "address",
          "name": "operator",
          "type": "address"
        },
        {
          "indexed": false,
          "internalType": "bool",
          "name": "approved",
          "type": "bool"
        }
      ],
      "name": "ApprovalForAll",
      "type": "event"
    },
    {
      "anonymous": false,
      "inputs": [
        {
          "indexed": true,
          "internalType": "uint256",
          "name": "from",
          "type": "uint256"
        },
        {
          "indexed": true,
          "internalType": "uint256",
          "name": "to",
          "type": "uint256"
        },
        {
          "indexed": true,
          "internalType": "uint256[]",
          "name": "ids",
          "type": "uint256[]"
        },
        {
          "indexed": false,
          "internalType": "uint256[]",
          "name": "amounts",
          "type": "uint256[]"
        }
      ],
      "name": "SubTransferBatch",
      "type": "event"
    },
    {
      "anonymous": false,
      "inputs": [
        {
          "indexed": true,
          "internalType": "uint256",
          "name": "from",
          "type": "uint256"
        },
        {
          "indexed": true,
          "internalType": "uint256",
          "name": "to",
          "type": "uint256"
        },
        {
          "indexed": true,
          "internalType": "uint256",
          "name": "id",
          "type": "uint256"
        },
        {
          "indexed": false,
          "internalType": "uint256",
          "name": "amount",
          "type": "uint256"
        }
      ],
      "name": "SubTransferSingle",
      "type": "event"
    },
    {
      "anonymous": false,
      "inputs": [
        {
          "indexed": true,
          "internalType": "address",
          "name": "from",
          "type": "address"
        },
        {
          "indexed": true,
          "internalType": "address",
          "name": "to",
          "type": "address"
        },
        {
          "indexed": true,
          "internalType": "uint256[]",
          "name": "ids",
          "type": "uint256[]"
        },
        {
          "indexed": false,
          "internalType": "uint256[]",
          "name": "amounts",
          "type": "uint256[]"
        }
      ],
      "name": "TransferBatch",
      "type": "event"
    },
    {
      "anonymous": false,
      "inputs": [
        {
          "indexed": true,
          "internalType": "address",
          "name": "from",
          "type": "address"
        },
        {
          "indexed": true,
          "internalType": "address",
          "name": "to",
          "type": "address"
        },
        {
          "indexed": true,
          "internalType": "uint256",
          "name": "id",
          "type": "uint256"
        },
        {
          "indexed": false,
          "internalType": "uint256",
          "name": "amount",
          "type": "uint256"
        }
      ],
      "name": "TransferSingle",
      "type": "event"
    },
    {
      "inputs": [
        {
          "internalType": "address",
          "name": "who",
          "type": "address"
        },
        {
          "internalType": "uint256",
          "name": "id",
          "type": "uint256"
        }
      ],
      "name": "balanceOf",
      "outputs": [
        {
          "internalType": "uint256",
          "name": "",
          "type": "uint256"
        }
      ],
      "stateMutability": "view",
      "type": "function"
    },
    {
      "inputs": [
        {
          "internalType": "address[]",
          "name": "owners",
          "type": "address[]"
        },
        {
          "internalType": "uint256[]",
          "name": "ids",
          "type": "uint256[]"
        }
      ],
      "name": "balanceOfBatch",
      "outputs": [
        {
          "internalType": "uint256[]",
          "name": "",
          "type": "uint256[]"
        }
      ],
      "stateMutability": "view",
      "type": "function"
    },
    {
      "inputs": [
        {
          "internalType": "uint256",
          "name": "from",
          "type": "uint256"
        },
        {
          "internalType": "uint256[]",
          "name": "ids",
          "type": "uint256[]"
        },
        {
          "internalType": "uint256[]",
          "name": "amounts",
          "type": "uint256[]"
        }
      ],
      "name": "batchSubBurnFrom",
      "outputs": [],
      "stateMutability": "nonpayable",
      "type": "function"
    },
    {
      "inputs": [
        {
          "internalType": "address",
          "name": "from",
          "type": "address"
        },
        {
          "internalType": "address",
          "name": "to",
          "type": "address"
        },
        {
          "internalType": "uint256[]",
          "name": "ids",
          "type": "uint256[]"
        },
        {
          "internalType": "uint256[]",
          "name": "amounts",
          "type": "uint256[]"
        }
      ],
      "name": "batchTransferFrom",
      "outputs": [],
      "stateMutability": "nonpayable",
      "type": "function"
    },
    {
      "inputs": [
        {
          "internalType": "address",
          "name": "owner",
          "type": "address"
        },
        {
          "internalType": "address",
          "name": "operator",
          "type": "address"
        }
      ],
      "name": "isApprovedForAll",
      "outputs": [
        {
          "internalType": "bool",
          "name": "",
          "type": "bool"
        }
      ],
      "stateMutability": "view",
      "type": "function"
    },
    {
      "inputs": [
        {
          "internalType": "uint256",
          "name": "subOwner",
          "type": "uint256"
        },
        {
          "internalType": "uint256",
          "name": "id",
          "type": "uint256"
        },
        {
          "internalType": "uint256",
          "name": "amount",
          "type": "uint256"
        }
      ],
      "name": "mint",
      "outputs": [],
      "stateMutability": "nonpayable",
      "type": "function"
    },
    {
      "inputs": [
        {
          "internalType": "address",
          "name": "owner",
          "type": "address"
        },
        {
          "internalType": "uint256",
          "name": "id",
          "type": "uint256"
        },
        {
          "internalType": "uint256",
          "name": "amount",
          "type": "uint256"
        }
      ],
      "name": "mintVault",
      "outputs": [],
      "stateMutability": "nonpayable",
      "type": "function"
    },
    {
      "inputs": [
        {
          "internalType": "address",
          "name": "dungeon",
          "type": "address"
        }
      ],
      "name": "postUpgrade",
      "outputs": [],
      "stateMutability": "nonpayable",
      "type": "function"
    },
    {
      "inputs": [
        {
          "internalType": "address",
          "name": "operator",
          "type": "address"
        },
        {
          "internalType": "bool",
          "name": "approved",
          "type": "bool"
        }
      ],
      "name": "setApprovalForAll",
      "outputs": [],
      "stateMutability": "nonpayable",
      "type": "function"
    },
    {
      "inputs": [
        {
          "internalType": "uint256",
          "name": "who",
          "type": "uint256"
        },
        {
          "internalType": "uint256",
          "name": "id",
          "type": "uint256"
        }
      ],
      "name": "subBalanceOf",
      "outputs": [
        {
          "internalType": "uint256",
          "name": "",
          "type": "uint256"
        }
      ],
      "stateMutability": "view",
      "type": "function"
    },
    {
      "inputs": [
        {
          "internalType": "uint256[]",
          "name": "owners",
          "type": "uint256[]"
        },
        {
          "internalType": "uint256[]",
          "name": "ids",
          "type": "uint256[]"
        }
      ],
      "name": "subBalanceOfBatch",
      "outputs": [
        {
          "internalType": "uint256[]",
          "name": "",
          "type": "uint256[]"
        }
      ],
      "stateMutability": "view",
      "type": "function"
    },
    {
      "inputs": [
        {
          "internalType": "uint256",
          "name": "from",
          "type": "uint256"
        },
        {
          "internalType": "uint256",
          "name": "id",
          "type": "uint256"
        },
        {
          "internalType": "uint256",
          "name": "amount",
          "type": "uint256"
        }
      ],
      "name": "subBurnFrom",
      "outputs": [],
      "stateMutability": "nonpayable",
      "type": "function"
    },
    {
      "inputs": [
        {
          "internalType": "uint256",
          "name": "from",
          "type": "uint256"
        },
        {
          "internalType": "uint256",
          "name": "to",
          "type": "uint256"
        },
        {
          "internalType": "uint256",
          "name": "id",
          "type": "uint256"
        },
        {
          "internalType": "uint256",
          "name": "amount",
          "type": "uint256"
        }
      ],
      "name": "subTransferFrom",
      "outputs": [],
      "stateMutability": "nonpayable",
      "type": "function"
    },
    {
      "inputs": [
        {
          "internalType": "address",
          "name": "from",
          "type": "address"
        },
        {
          "internalType": "address",
          "name": "to",
          "type": "address"
        },
        {
          "internalType": "uint256",
          "name": "id",
          "type": "uint256"
        },
        {
          "internalType": "uint256",
          "name": "amount",
          "type": "uint256"
        }
      ],
      "name": "transferFrom",
      "outputs": [],
      "stateMutability": "nonpayable",
      "type": "function"
    }
  ],
  "transactionHash": "0xa4ac5afdbd25628e6cc50dc0ad131cdb9f834be6287a533414b076e2d452a87b",
  "args": [],
  "numDeployments": 2,
  "solcInputHash": "dd8ef9e4cb12f6b7c300326f49f4b58b",
  "bytecode": "0x60806040523461001a57604051611502610020823961150290f35b600080fdfe6080604052600436101561001257600080fd5b60003560e01c8062fdd58e146100f157806302acc94b146100ec57806311aa10fb146100e757806317fad7fc146100e25780634e1273f4146100dd57806376853516146100d8578063a22cb465146100d3578063a41dab81146100ce578063b30dc7ca146100c9578063c79b2430146100c4578063c8e054a2146100bf578063c9b902e3146100ba578063e985e9c5146100b55763fe99049a036100f6576105d4565b610580565b610544565b610525565b61050d565b6104dd565b6104aa565b610478565b610424565b6103a3565b6102cf565b61021a565b6101c0565b61015f565b600080fd5b6001600160a01b031690565b90565b610113816100fb565b036100f657565b905035906101278261010a565b565b80610113565b9050359061012782610129565b91906040838203126100f65761010790610156818561011a565b9360200161012f565b346100f65761018c61017b61017536600461013c565b90610fdd565b6040515b9182918290815260200190565b0390f35b90916060828403126100f6576101076101a9848461012f565b936101b7816020860161012f565b9360400161012f565b346100f6576101d96101d3366004610190565b916107e8565b604051005b6080818303126100f6576101f2828261012f565b92610107610203846020850161012f565b93610211816040860161012f565b9360600161012f565b346100f6576101d961022d3660046101de565b92919091610ee9565b909182601f830112156100f6578135916001600160401b0383116100f65760200192602083028401116100f657565b91906080838203126100f65761027b818461011a565b92610289826020830161011a565b9260408201356001600160401b0381116100f657836102a9918401610236565b909390929060608201356001600160401b0381116100f6576102cb9201610236565b9091565b346100f6576101d96102e2366004610265565b949390939291926111db565b90916040828403126100f65781356001600160401b0381116100f65783610316918401610236565b909390929060208201356001600160401b0381116100f6576102cb9201610236565b0190565b9061035c61035561034b845190565b8084529260200190565b9260200190565b9060005b81811061036d5750505090565b90919261038a6103836001928651815260200190565b9460200190565b929101610360565b60208082526101079291019061033c565b346100f65761018c6103c26103b93660046102ee565b9291909161101c565b60405191829182610392565b6060818303126100f6576103e2828261012f565b9260208201356001600160401b0381116100f65783610402918401610236565b909390929060408201356001600160401b0381116100f6576102cb9201610236565b346100f6576101d96104373660046103ce565b93929092610b5c565b801515610113565b9050359061012782610440565b91906040838203126100f6576101079061046f818561011a565b93602001610448565b346100f6576101d961048b366004610455565b9061131a565b90916060828403126100f6576101076101a9848461011a565b346100f6576101d96104bd366004610491565b9161070b565b91906040838203126100f65761010790610156818561012f565b346100f65761018c61017b6104f33660046104c3565b90610cf2565b906020828203126100f6576101079161011a565b346100f6576101d96105203660046104f9565b611393565b346100f65761018c6103c261053b3660046102ee565b92919091610e28565b346100f6576101d9610557366004610190565b91610942565b91906040838203126100f65761010790610577818561011a565b9360200161011a565b346100f65761018c61059c61059636600461055d565b90611378565b6040515b91829182901515815260200190565b6080818303126100f6576105c3828261011a565b92610107610203846020850161011a565b346100f6576101d96105e73660046105af565b929190916110bd565b61010790546100fb565b1561060157565b60405162461bcd60e51b81526020600482015260136024820152721393d517d055551213d49256915117d3525395606a1b6044820152606490fd5b610107906100fb906001600160a01b031682565b6101079061063c565b61010790610650565b9061066c90610659565b600052602052604060002090565b6101076101076101079290565b9061066c9061067a565b6101079081565b6101079054610691565b634e487b7160e01b600052601160045260246000fd5b919082018092116106c557565b6106a2565b90600019905b9181191691161790565b906106ea6101076106f19261067a565b82546106ca565b9055565b6100fb6101076101079290565b610107906106f5565b916107e3916107353361072f61072961072460036105f0565b6100fb565b916100fb565b146105fa565b60009061076661074e826107498886610662565b610687565b6107608561075b83610698565b6106b8565b906106da565b61077861074e82610749856001610687565b61078182610702565b906107ac6107a66107a060008051602061144d83398151915294610659565b97610659565b9161067a565b9586926107b860405190565b868152602090a46107d760008051602061148d8339815191529161067a565b92839261017f60405190565b0390a4565b9190916107ff3361072f61072961072460036105f0565b61081e61081184610749846001610687565b6107608461075b83610698565b600061083a61074e8561074961083460036105f0565b85610662565b61084381610702565b61084d60036105f0565b9461086c6107a66107a060008051602061144d83398151915294610659565b95869261087860405190565b878152602090a46107e36108a361089d60008051602061148d8339815191529361067a565b9361067a565b9361017f60405190565b156108b457565b60405162461bcd60e51b81526020600482015260176024820152762727aa2fa0aaaa2427a924ad22a22fa9aaa12fa12aa92760491b6044820152606490fd5b156108fa57565b60405162461bcd60e51b81526020600482015260136024820152720c8decae640dcdee840deeedc40cadcdeeaced606b1b6044820152606490fd5b919082039182116106c557565b91909161096f61095260036105f0565b3390610960610729836100fb565b149081156109ef575b506108ad565b6109b260016109ad85610749856109a78861099661099186610749868b610687565b610698565b6109a2828210156108f3565b610935565b94610687565b6106da565b6000906109dc6109cf856107496109c960036105f0565b86610662565b610760856109a283610698565b6109e660036105f0565b61084d83610702565b610a199150610a1290610a0d6002610a0760036105f0565b90610662565b610662565b5460ff1690565b38610969565b15610a2657565b60405162461bcd60e51b8152602060048201526013602482015272092dcc6dedce6d2e6e8cadce840d8cadccee8d606b1b6044820152606490fd5b15610a6857565b60405162461bcd60e51b815260206004820152601d60248201527f4e4f545f415554484f52495a45445f42415443485f5355425f4255524e0000006044820152606490fd5b60001981146106c55760010190565b634e487b7160e01b600052603260045260246000fd5b9190811015610ae2576020020190565b610abc565b3561010781610129565b9037565b90915b916001600160fb1b0381116100f657829160206103389202938491610af1565b909161010792610af5565b610b38610b2f60405190565b92839283610b18565b03902090565b8183529091602001610af8565b602080825261010793910191610b3e565b949193908490610b6e83875b14610a1f565b610b98610b7b60036105f0565b3390610b89610729836100fb565b14908115610cd4575b50610a61565b600093610ba48561067a565b875b811015610c2957610c2281610c1d8b610760610c138c610c05610be5610bda888f8f8f610ba69e610bdf92610bda92610ad2565b610ae7565b95610ad2565b946109ad836107496001936109a78a61099661099186610749868b610687565b6107498d610a0760036105f0565b916109a283610698565b610aad565b9050610ba4565b50969291610cc791959650610c3e60036105f0565b610c4786610702565b610c68610c626000805160206114ad83398151915293610659565b91610659565b90610c73848a610b23565b92868b610c8b610c8260405190565b92839283610b4b565b0390a4610cc1610cbb7ff6068533d76e0ad0926d7f0cfb029fe3db38eba5c98bcf562bcedf6ac9d2bd609561067a565b9561067a565b95610b23565b946107e3610c8260405190565b610cec9150610a1290610a0d6002610a0760036105f0565b38610b92565b6101079161074961099192610d05600090565b506001610687565b15610d1457565b60405162461bcd60e51b815260206004820152602660248201527f496e636f6e73697374656e74206172726179206c656e677468206265747765656044820152656e206172677360d01b6064820152608490fd5b634e487b7160e01b600052604160045260246000fd5b90601f01601f191681019081106001600160401b03821117610d9f57604052565b610d68565b90610127610db160405190565b9283610d7e565b6001600160401b038111610d9f5760208091020190565b90610de1610ddc83610db8565b610da4565b918252565b369037565b90610127610e01610dfb84610dcf565b93610db8565b601f190160208401610de6565b90610e17825190565b811015610ae2576020809102010190565b9392908094610e3a835b968714610d0d565b610e4386610deb565b94610e4e600061067a565b875b811015610e9557610e8e81610c1d610e81896104f3610bda858c610e7b610bda610e509b8f8f610ad2565b94610ad2565b610e8b838c610e0e565b52565b9050610e4e565b5095505050505090565b15610ea657565b60405162461bcd60e51b815260206004820152601b60248201527a2727aa2fa0aaaa2427a924ad22a22fa9aaa12faa2920a729a322a960291b6044820152606490fd5b610f13610ef660036105f0565b3390610f04610729836100fb565b14908115610f84575b50610e9f565b610f53610f4684610749856001610749610f388b610996610991886107498d88610687565b6109ad866107498b86610687565b6107608661075b83610698565b6107e3610f7a610f74610f7460008051602061148d8339815191529461067a565b9461067a565b9461017f60405190565b610f9c9150610a1290610a0d6002610a0760036105f0565b38610f0d565b15610fa957565b60405162461bcd60e51b815260206004820152600c60248201526b7a65726f206164647265737360a01b6044820152606490fd5b6101079161074961099192610ff0600090565b506000610a0d61100261072483610702565b61100b846100fb565b1415610fa2565b356101078161010a565b939290809461102a83610e32565b61103386610deb565b9461103e600061067a565b875b811015610e955761107081610c1d610e8189610175610bda858c610e7b61106b6110409b8f8f610ad2565b611012565b905061103e565b1561107e57565b60405162461bcd60e51b81526020600482015260176024820152762727aa2fa0aaaa2427a924ad22a22faa2920a729a322a960491b6044820152606490fd5b6110e2336110ca816100fb565b6110d3846100fb565b1490811561113c575b50611077565b611115610f4684610749856000610a0d6111078b610996610991886107498d88610662565b6109ad866107498b86610662565b6107e3610f7a610f7461113660008051602061144d83398151915294610659565b94610659565b6111509150610a1290610a0d856002610662565b386110dc565b1561115d57565b60405162461bcd60e51b815260206004820152600a602482015269696e76616c696420746f60b01b6044820152606490fd5b1561119657565b60405162461bcd60e51b815260206004820152601d60248201527f4e4f545f415554484f52495a45445f42415443485f5452414e534645520000006044820152606490fd5b959194909280956111ec8388610b68565b60009361120e6111fe61072487610702565b611207886100fb565b1415611156565b6112333361121b816100fb565b6112248c6100fb565b149081156112e0575b5061118f565b61123c8561067a565b885b8110156112b4576112ad81610c1d8c6107606112a38d6107498e8e610a0d8f8f8f9d61127f9261123e9f610bda83610bda9561127993610ad2565b98610ad2565b976109ad8661074961129c8c61099661099185610749898c610662565b9386610662565b9161075b83610698565b905061123c565b50979350949550610cc790610cc16112da6000805160206114ad83398151915295610659565b95610659565b6112f49150610a1290610a0d8d6002610662565b3861122d565b9060ff906106d0565b906113136101076106f192151590565b82546112fa565b336113338361132e84610a0d856002610662565b611303565b6113736113696113637f17307eab39ab6107e8899845ad3d59bd9653f200f220920489ca2b5937696c3193610659565b93610659565b936105a060405190565b0390a3565b61010791610a0d610a129261138b600090565b506002610662565b61012790611443565b156100f657565b610127906113bd60008051602061146d8339815191525490565b6113ca6107246000610702565b6113d3826100fb565b036113f657506001600160a01b0360008051602061146d83398151915255611438565b61140d9061140761072933926100fb565b1461139c565b611438565b906001600160a01b03906106d0565b906114316101076106f192610659565b8254611412565b610127906003611421565b610127906113a356fe7b912cc6629daab379d004780e875cdb7625e8331d3a7c8fbe08a42156325546b53127684a568b3173ae13b9f8a6016e243e63b6e8ee1178d6a717850b5d6103ef6388e8fe5cc25895b5c8c5ab5590ee4674ab2af2150bfb3af8aa79d681c2f920114eb39ee5dfdb13684c7d9e951052ef22c89bff67131a9bf08879189b0f71a26469706673582212203217f4e3fc2f5ee84f1ea0ba244da93b1da8adf1504e7c7ef177bfaf0f3781af64736f6c63430008140033",
  "devdoc": {
    "kind": "dev",
    "methods": {},
    "version": 1
  },
  "userdoc": {
    "kind": "user",
    "methods": {},
    "version": 1
  },
  "storageLayout": {
    "storage": [
      {
        "astId": 13070,
        "contract": "src/tokens/Elements.sol:Elements",
        "label": "_balances",
        "offset": 0,
        "slot": "0",
        "type": "t_mapping(t_address,t_mapping(t_uint256,t_uint256))"
      },
      {
        "astId": 13076,
        "contract": "src/tokens/Elements.sol:Elements",
        "label": "_subBalances",
        "offset": 0,
        "slot": "1",
        "type": "t_mapping(t_uint256,t_mapping(t_uint256,t_uint256))"
      },
      {
        "astId": 13082,
        "contract": "src/tokens/Elements.sol:Elements",
        "label": "_operatorsForAll",
        "offset": 0,
        "slot": "2",
        "type": "t_mapping(t_address,t_mapping(t_address,t_bool))"
      },
      {
        "astId": 13084,
        "contract": "src/tokens/Elements.sol:Elements",
        "label": "_tokenOwner",
        "offset": 0,
        "slot": "3",
        "type": "t_address"
      }
    ],
    "types": {
      "t_address": {
        "encoding": "inplace",
        "label": "address",
        "numberOfBytes": "20"
      },
      "t_bool": {
        "encoding": "inplace",
        "label": "bool",
        "numberOfBytes": "1"
      },
      "t_mapping(t_address,t_bool)": {
        "encoding": "mapping",
        "key": "t_address",
        "label": "mapping(address => bool)",
        "numberOfBytes": "32",
        "value": "t_bool"
      },
      "t_mapping(t_address,t_mapping(t_address,t_bool))": {
        "encoding": "mapping",
        "key": "t_address",
        "label": "mapping(address => mapping(address => bool))",
        "numberOfBytes": "32",
        "value": "t_mapping(t_address,t_bool)"
      },
      "t_mapping(t_address,t_mapping(t_uint256,t_uint256))": {
        "encoding": "mapping",
        "key": "t_address",
        "label": "mapping(address => mapping(uint256 => uint256))",
        "numberOfBytes": "32",
        "value": "t_mapping(t_uint256,t_uint256)"
      },
      "t_mapping(t_uint256,t_mapping(t_uint256,t_uint256))": {
        "encoding": "mapping",
        "key": "t_uint256",
        "label": "mapping(uint256 => mapping(uint256 => uint256))",
        "numberOfBytes": "32",
        "value": "t_mapping(t_uint256,t_uint256)"
      },
      "t_mapping(t_uint256,t_uint256)": {
        "encoding": "mapping",
        "key": "t_uint256",
        "label": "mapping(uint256 => uint256)",
        "numberOfBytes": "32",
        "value": "t_uint256"
      },
      "t_uint256": {
        "encoding": "inplace",
        "label": "uint256",
        "numberOfBytes": "32"
      }
    }
  }
}