{
  "address": "0x4287bF797f111Ced7742288EB7e5305cC8Fbf2F3",
  "abi": [
    {
      "anonymous": false,
      "inputs": [
        {
          "indexed": true,
          "internalType": "address",
          "name": "owner",
          "type": "address"
        },
        {
          "indexed": true,
          "internalType": "address",
          "name": "operator",
          "type": "address"
        },
        {
          "indexed": false,
          "internalType": "bool",
          "name": "approved",
          "type": "bool"
        }
      ],
      "name": "ApprovalForAll",
      "type": "event"
    },
    {
      "anonymous": false,
      "inputs": [
        {
          "indexed": true,
          "internalType": "uint256",
          "name": "id",
          "type": "uint256"
        },
        {
          "indexed": true,
          "internalType": "uint256",
          "name": "data",
          "type": "uint256"
        }
      ],
      "name": "DataUpdate",
      "type": "event"
    },
    {
      "anonymous": false,
      "inputs": [
        {
          "indexed": true,
          "internalType": "uint256",
          "name": "from",
          "type": "uint256"
        },
        {
          "indexed": true,
          "internalType": "uint256",
          "name": "to",
          "type": "uint256"
        },
        {
          "indexed": true,
          "internalType": "uint256",
          "name": "id",
          "type": "uint256"
        }
      ],
      "name": "SubTransfer",
      "type": "event"
    },
    {
      "anonymous": false,
      "inputs": [
        {
          "indexed": true,
          "internalType": "address",
          "name": "from",
          "type": "address"
        },
        {
          "indexed": true,
          "internalType": "address",
          "name": "to",
          "type": "address"
        },
        {
          "indexed": true,
          "internalType": "uint256",
          "name": "id",
          "type": "uint256"
        }
      ],
      "name": "Transfer",
      "type": "event"
    },
    {
      "inputs": [
        {
          "internalType": "address",
          "name": "from",
          "type": "address"
        },
        {
          "internalType": "address",
          "name": "to",
          "type": "address"
        },
        {
          "internalType": "uint256[]",
          "name": "ids",
          "type": "uint256[]"
        }
      ],
      "name": "batchTransferFrom",
      "outputs": [],
      "stateMutability": "nonpayable",
      "type": "function"
    },
    {
      "inputs": [
        {
          "internalType": "uint256",
          "name": "id",
          "type": "uint256"
        }
      ],
      "name": "getData",
      "outputs": [
        {
          "internalType": "uint256",
          "name": "",
          "type": "uint256"
        }
      ],
      "stateMutability": "view",
      "type": "function"
    },
    {
      "inputs": [
        {
          "internalType": "address",
          "name": "owner",
          "type": "address"
        },
        {
          "internalType": "address",
          "name": "operator",
          "type": "address"
        }
      ],
      "name": "isApprovedForAll",
      "outputs": [
        {
          "internalType": "bool",
          "name": "",
          "type": "bool"
        }
      ],
      "stateMutability": "view",
      "type": "function"
    },
    {
      "inputs": [
        {
          "internalType": "uint256",
          "name": "subOwner",
          "type": "uint256"
        },
        {
          "internalType": "uint256",
          "name": "data",
          "type": "uint256"
        }
      ],
      "name": "mint",
      "outputs": [
        {
          "internalType": "uint256",
          "name": "id",
          "type": "uint256"
        }
      ],
      "stateMutability": "nonpayable",
      "type": "function"
    },
    {
      "inputs": [
        {
          "internalType": "uint256",
          "name": "id",
          "type": "uint256"
        }
      ],
      "name": "ownerOf",
      "outputs": [
        {
          "internalType": "address",
          "name": "",
          "type": "address"
        }
      ],
      "stateMutability": "view",
      "type": "function"
    },
    {
      "inputs": [
        {
          "internalType": "address",
          "name": "dungeon",
          "type": "address"
        }
      ],
      "name": "postUpgrade",
      "outputs": [],
      "stateMutability": "nonpayable",
      "type": "function"
    },
    {
      "inputs": [
        {
          "internalType": "address",
          "name": "operator",
          "type": "address"
        },
        {
          "internalType": "bool",
          "name": "approved",
          "type": "bool"
        }
      ],
      "name": "setApprovalForAll",
      "outputs": [],
      "stateMutability": "nonpayable",
      "type": "function"
    },
    {
      "inputs": [
        {
          "internalType": "uint256",
          "name": "id",
          "type": "uint256"
        },
        {
          "internalType": "uint256",
          "name": "data",
          "type": "uint256"
        }
      ],
      "name": "setData",
      "outputs": [],
      "stateMutability": "nonpayable",
      "type": "function"
    },
    {
      "inputs": [
        {
          "internalType": "uint256",
          "name": "subOwner",
          "type": "uint256"
        }
      ],
      "name": "subBalanceOf",
      "outputs": [
        {
          "internalType": "uint256",
          "name": "",
          "type": "uint256"
        }
      ],
      "stateMutability": "view",
      "type": "function"
    },
    {
      "inputs": [
        {
          "internalType": "address",
          "name": "owner",
          "type": "address"
        },
        {
          "internalType": "uint256",
          "name": "from",
          "type": "uint256"
        },
        {
          "internalType": "uint256",
          "name": "to",
          "type": "uint256"
        },
        {
          "internalType": "uint256[]",
          "name": "ids",
          "type": "uint256[]"
        }
      ],
      "name": "subBatchTransferFrom",
      "outputs": [],
      "stateMutability": "nonpayable",
      "type": "function"
    },
    {
      "inputs": [
        {
          "internalType": "uint256",
          "name": "id",
          "type": "uint256"
        }
      ],
      "name": "subBurn",
      "outputs": [],
      "stateMutability": "nonpayable",
      "type": "function"
    },
    {
      "inputs": [
        {
          "internalType": "uint256",
          "name": "id",
          "type": "uint256"
        }
      ],
      "name": "subOwnerOf",
      "outputs": [
        {
          "internalType": "uint256",
          "name": "",
          "type": "uint256"
        }
      ],
      "stateMutability": "view",
      "type": "function"
    },
    {
      "inputs": [
        {
          "internalType": "address",
          "name": "owner",
          "type": "address"
        },
        {
          "internalType": "uint256",
          "name": "from",
          "type": "uint256"
        },
        {
          "internalType": "uint256",
          "name": "to",
          "type": "uint256"
        },
        {
          "internalType": "uint256",
          "name": "id",
          "type": "uint256"
        }
      ],
      "name": "subTransferFrom",
      "outputs": [],
      "stateMutability": "nonpayable",
      "type": "function"
    },
    {
      "inputs": [
        {
          "internalType": "address",
          "name": "from",
          "type": "address"
        },
        {
          "internalType": "address",
          "name": "to",
          "type": "address"
        },
        {
          "internalType": "uint256",
          "name": "id",
          "type": "uint256"
        }
      ],
      "name": "transferFrom",
      "outputs": [],
      "stateMutability": "nonpayable",
      "type": "function"
    }
  ],
  "transactionHash": "0xeac748ef0b88e87abd7f50ab43cdab5c397aa5c5e39a24b708ef91fbf248939d",
  "args": [],
  "numDeployments": 1,
  "solcInputHash": "6d7638b8eb90dc0512d07a375af2f893",
  "bytecode": "0x60806040523461001a576040516112bb61002082396112bb90f35b600080fdfe6080604052600436101561001257600080fd5b60003560e01c80630178fe3f146100f25780631b2ef1ca146100ed57806323b872dd146100e85780634848b1a5146100e3578063603d4ca0146100de5780636352211e146100d957806369f648a1146100d45780637ba764f7146100cf578063a22cb465146100ca578063b6721898146100c5578063c79b2430146100c0578063c9a59e47146100bb578063e985e9c5146100b65763f3993d11036100f7576104ba565b61044a565b61040c565b6103f4565b6103c4565b61036f565b61031b565b61027e565b610257565b610226565b61020d565b6101ef565b610181565b61012f565b600080fd5b805b036100f757565b90503590610112826100fc565b565b906020828203126100f75761012891610105565b90565b9052565b346100f75761015a61014a610145366004610114565b610867565b6040519182918290815260200190565b0390f35b91906040838203126100f757610128906101788185610105565b93602001610105565b346100f75761015a61014a61019736600461015e565b9061062b565b6001600160a01b031690565b6100fe8161019d565b90503590610112826101a9565b90916060828403126100f7576101286101d884846101b2565b936101e681602086016101b2565b93604001610105565b346100f7576102086102023660046101bf565b91610dfe565b604051005b346100f75761020861022036600461015e565b906107ca565b346100f757610208610239366004610114565b6108d1565b61012b9061019d565b602081019291610112919061023e565b346100f75761015a61027261026d366004610114565b6109e8565b60405191829182610247565b346100f75761015a61014a610294366004610114565b61098e565b909182601f830112156100f7578135916001600160401b0383116100f75760200192602083028401116100f757565b906080828203126100f7576102dd81836101b2565b926102eb8260208501610105565b926040926102fb81858401610105565b936001806060850135921b0381116100f7576103179201610299565b9091565b346100f75761020861032e3660046102c8565b93929092610c4e565b8015156100fe565b9050359061011282610337565b91906040838203126100f7576101289061036681856101b2565b9360200161033f565b346100f75761020861038236600461034c565b90611103565b6080818303126100f75761039c82826101b2565b926101286103ad8460208501610105565b936103bb8160408601610105565b93606001610105565b346100f7576102086103d7366004610388565b92919091610adc565b906020828203126100f757610128916101b2565b346100f7576102086104073660046103e0565b611177565b346100f75761015a61014a610422366004610114565b61050c565b91906040838203126100f7576101289061044181856101b2565b936020016101b2565b346100f75761015a610466610460366004610427565b9061115c565b6040515b91829182901515815260200190565b916060838303126100f75761048e82846101b2565b9261049c83602083016101b2565b9260408201356001600160401b0381116100f7576103179201610299565b346100f7576102086104cd366004610479565b92919091610f88565b6101286101286101289290565b906104ed906104d6565b600052602052604060002090565b6101289081565b61012890546104fb565b6105236101289161051b600090565b5060046104e3565b610502565b610128905461019d565b1561053957565b60405162461bcd60e51b81526020600482015260136024820152721393d517d055551213d49256915117d3525395606a1b6044820152606490fd5b634e487b7160e01b600052601160045260246000fd5b60001981146105995760010190565b610574565b90600019905b9181191691161790565b906105be6101286105c5926104d6565b825461059e565b9055565b906001600160a01b03906105a4565b6101289061019d906001600160a01b031682565b610128906105d8565b610128906105ec565b9061060e6101286105c5926105f5565b82546105c9565b61019d6101286101289290565b61012890610615565b9091906106f6906106573361065161064b6106466000610528565b61019d565b9161019d565b14610532565b6106696106646001610502565b61058a565b6106748160016105ae565b809461068a836106858460036104e3565b6105ae565b6106aa6106988460046104e3565b6106a461066482610502565b906105ae565b6106c76106b76000610528565b6106c28460026104e3565b6105fe565b6106d6816106858460086104e3565b6106ee600080516020611246833981519152926104d6565b9384916104d6565b9161070060405190565b600090a36000908261071183610622565b61071a84610528565b61073b610735600080516020611266833981519152936105f5565b916105f5565b9161074560405190565b600090a461076a610764600080516020611226833981519152936104d6565b916104d6565b9161077460405190565b600090a4565b906104ed906105f5565b1561078b57565b60405162461bcd60e51b81526020600482015260176024820152764e4f545f415554484f52495a45445f5345545f4441544160481b6044820152606490fd5b906108046107e16107dc8460026104e3565b610528565b336107eb8161019d565b6107f48361019d565b14918215610840575b5050610784565b610813816106858460086104e3565b61082e610764600080516020611246833981519152936104d6565b9161083860405190565b80805b0390a3565b61086092509061085461085992600661077a565b61077a565b5460ff1690565b38806107fd565b61052361012891610876600090565b5060086104e3565b1561088557565b60405162461bcd60e51b81526020600482015260176024820152762727aa2fa0aaaa2427a924ad22a22fa9aaa12fa12aa92760491b6044820152606490fd5b8015610599576000190190565b6109056108e26107dc8360026104e3565b336108ec8161019d565b6108f58361019d565b14918215610973575b505061087e565b6003908061092f61091961052383866104e3565b9361068561092760006104d6565b9485926104e3565b61094e61093d8460046104e3565b6106a461094982610502565b6108c4565b610969610764600080516020611226833981519152946104d6565b9261077460405190565b61098792509061085461085992600661077a565b38806108fe565b6105236101289161099d600090565b5060036104e3565b156109ac57565b60405162461bcd60e51b81526020600482015260146024820152731d1bdad95b88191bd95cc81b9bdd08195e1a5cdd60621b6044820152606490fd5b6107dc6109ff916109f7600090565b5060026104e3565b610128610a0f6106466000610622565b610a188361019d565b14156109a5565b15610a2657565b60405162461bcd60e51b815260206004820152601b60248201527a2727aa2fa0aaaa2427a924ad22a22fa9aaa12faa2920a729a322a960291b6044820152606490fd5b15610a7057565b60405162461bcd60e51b81526020600482015260096024820152683737ba1037bbb732b960b91b6044820152606490fd5b15610aa857565b60405162461bcd60e51b815260206004820152600c60248201526b3737ba1039bab127b73bb2b960a11b6044820152606490fd5b610b239093929193610b0933610af18161019d565b610afa8461019d565b14908115610b86575b50610a1f565b610b1d61064b6106466107dc8760026104e3565b14610a69565b610b62610698826003610b538261068588610b4161052382876104e3565b94610b4e8c875b14610aa1565b6104e3565b610b4e61093d600492836104e3565b610969610b80610b80600080516020611226833981519152956104d6565b926104d6565b610b9a91506108599061085485600661077a565b38610b03565b15610ba757565b60405162461bcd60e51b815260206004820152602160248201527f4e4f545f415554484f52495a45445f5355425f42415443485f5452414e5346456044820152602960f91b6064820152608490fd5b634e487b7160e01b600052603260045260246000fd5b9190811015610c1c576020020190565b610bf6565b35610128816100fc565b9190610c36565b9290565b820391821161059957565b9190820180921161059957565b919092949394610c7933610c618161019d565b610c6a8661019d565b14908115610d65575b50610ba0565b8594610c8560006104d6565b86811015610d235780610ca4610c9f610d1e938b87610c0c565b610c21565b610cc1610cb86106466107dc8460026104e3565b610b1d8961019d565b610ce686610685836003610b4e8d610b48610ce2610c3261052387876104e3565b9190565b60008051602061122683398151915290610cff896104d6565b610d0b610b80896104d6565b92610d1560405190565b600090a461058a565b610c85565b509550506106a49150610d56906101129493610b4e610d44600492836104e3565b6106a487610d5183610502565b610c2b565b91610d6083610502565b610c41565b610d7991506108599061085487600661077a565b38610c73565b15610d8657565b60405162461bcd60e51b815260206004820152600a602482015269696e76616c696420746f60b01b6044820152606490fd5b15610dbf57565b60405162461bcd60e51b81526020600482015260176024820152762727aa2fa0aaaa2427a924ad22a22faa2920a729a322a960491b6044820152606490fd5b91906000610e21610e1161064683610622565b610e1a8461019d565b1415610d7f565b610e4633610e2e8161019d565b610e378761019d565b14908115610f22575b50610db8565b610e6c826106c2856002610b4e610e606107dc84846104e3565b610b1d61064b8c61019d565b82600391610e7d61052383856104e3565b92610e8b61052384836104e3565b610e97610ce2846104d6565b03610ec5575b50505050610969610b80610ebf600080516020611266833981519152956105f5565b926105f5565b610685610ed4610edc936104d6565b9384926104e3565b610eea61093d8360046104e3565b610f02600080516020611226833981519152926104d6565b610f0b856104d6565b92610f1560405190565b600090a438828180610e9d565b610f3691506108599061085488600661077a565b38610e40565b15610f4357565b60405162461bcd60e51b815260206004820152601d60248201527f4e4f545f415554484f52495a45445f42415443485f5452414e534645520000006044820152606490fd5b9190939293600091610f9f610e1161064685610622565b610fc433610fac8161019d565b610fb58761019d565b149081156110c9575b50610f3c565b610fcd836104d6565b868110156110c05780610fe7610c9f611066938a86610c0c565b61100e856106c2836002610b4e8c610b1d61064b6110086107dc87876104e3565b9261019d565b60038161101e61052382846104e3565b9161102c61052383836104e3565b611038610ce28b6104d6565b0361106b575b5050506000805160206112668339815191529061105a886105f5565b610d0b610b80886105f5565b610fcd565b61107b90610685610ed48b6104d6565b61108961093d8360046104e3565b6110a1600080516020611226833981519152926104d6565b6110aa846104d6565b926110b460405190565b600090a438818161103e565b50505050509050565b6110dd91506108599061085488600661077a565b38610fbe565b9060ff906105a4565b906110fc6101286105c592151590565b82546110e3565b3361111c836111178461085485600661077a565b6110ec565b61083b61115261114c7f17307eab39ab6107e8899845ad3d59bd9653f200f220920489ca2b5937696c31936105f5565b936105f5565b9361046a60405190565b610128916108546108599261116f600090565b50600661077a565b610112906111fc565b156100f757565b610112906111a16000805160206112068339815191525490565b6111ae6106466000610622565b6111b78261019d565b036111da57506001600160a01b03600080516020611206833981519152556111f1565b6111f1906111eb61064b339261019d565b14611180565b6101129060006105fe565b6101129061118756feb53127684a568b3173ae13b9f8a6016e243e63b6e8ee1178d6a717850b5d61038641d9f2365a4c17a0f807e0ba24c82176c417f81cbdde43da4954c1c402704d9b0b427d54b1902d475dd6da2557b731e9aa63c7a9bd8d6021eef24f2d0eaf48ddf252ad1be2c89b69c2b068fc378daa952ba7f163c4a11628f55a4df523b3efa2646970667358221220ffc676bf120c23c4039532695ccc84438f5178ab033a4ed206ca5eb2bdd4097064736f6c63430008140033",
  "devdoc": {
    "kind": "dev",
    "methods": {},
    "version": 1
  },
  "userdoc": {
    "kind": "user",
    "methods": {},
    "version": 1
  },
  "storageLayout": {
    "storage": [
      {
        "astId": 13397,
        "contract": "src/tokens/Gears.sol:Gears",
        "label": "_minter",
        "offset": 0,
        "slot": "0",
        "type": "t_address"
      },
      {
        "astId": 13399,
        "contract": "src/tokens/Gears.sol:Gears",
        "label": "_lastId",
        "offset": 0,
        "slot": "1",
        "type": "t_uint256"
      },
      {
        "astId": 13403,
        "contract": "src/tokens/Gears.sol:Gears",
        "label": "_owners",
        "offset": 0,
        "slot": "2",
        "type": "t_mapping(t_uint256,t_address)"
      },
      {
        "astId": 13407,
        "contract": "src/tokens/Gears.sol:Gears",
        "label": "_subOwners",
        "offset": 0,
        "slot": "3",
        "type": "t_mapping(t_uint256,t_uint256)"
      },
      {
        "astId": 13411,
        "contract": "src/tokens/Gears.sol:Gears",
        "label": "_subNumNFTPerAddress",
        "offset": 0,
        "slot": "4",
        "type": "t_mapping(t_uint256,t_uint256)"
      },
      {
        "astId": 13415,
        "contract": "src/tokens/Gears.sol:Gears",
        "label": "_numNFTPerAddress",
        "offset": 0,
        "slot": "5",
        "type": "t_mapping(t_address,t_uint256)"
      },
      {
        "astId": 13421,
        "contract": "src/tokens/Gears.sol:Gears",
        "label": "_operatorsForAll",
        "offset": 0,
        "slot": "6",
        "type": "t_mapping(t_address,t_mapping(t_address,t_bool))"
      },
      {
        "astId": 13425,
        "contract": "src/tokens/Gears.sol:Gears",
        "label": "_operators",
        "offset": 0,
        "slot": "7",
        "type": "t_mapping(t_uint256,t_address)"
      },
      {
        "astId": 13429,
        "contract": "src/tokens/Gears.sol:Gears",
        "label": "_data",
        "offset": 0,
        "slot": "8",
        "type": "t_mapping(t_uint256,t_uint256)"
      }
    ],
    "types": {
      "t_address": {
        "encoding": "inplace",
        "label": "address",
        "numberOfBytes": "20"
      },
      "t_bool": {
        "encoding": "inplace",
        "label": "bool",
        "numberOfBytes": "1"
      },
      "t_mapping(t_address,t_bool)": {
        "encoding": "mapping",
        "key": "t_address",
        "label": "mapping(address => bool)",
        "numberOfBytes": "32",
        "value": "t_bool"
      },
      "t_mapping(t_address,t_mapping(t_address,t_bool))": {
        "encoding": "mapping",
        "key": "t_address",
        "label": "mapping(address => mapping(address => bool))",
        "numberOfBytes": "32",
        "value": "t_mapping(t_address,t_bool)"
      },
      "t_mapping(t_address,t_uint256)": {
        "encoding": "mapping",
        "key": "t_address",
        "label": "mapping(address => uint256)",
        "numberOfBytes": "32",
        "value": "t_uint256"
      },
      "t_mapping(t_uint256,t_address)": {
        "encoding": "mapping",
        "key": "t_uint256",
        "label": "mapping(uint256 => address)",
        "numberOfBytes": "32",
        "value": "t_address"
      },
      "t_mapping(t_uint256,t_uint256)": {
        "encoding": "mapping",
        "key": "t_uint256",
        "label": "mapping(uint256 => uint256)",
        "numberOfBytes": "32",
        "value": "t_uint256"
      },
      "t_uint256": {
        "encoding": "inplace",
        "label": "uint256",
        "numberOfBytes": "32"
      }
    }
  }
}