{
  "address": "0x7e0bfbFb99601953c8e4Bb402A6f87EFa3317c02",
  "abi": [
    {
      "anonymous": false,
      "inputs": [
        {
          "indexed": false,
          "internalType": "bool",
          "name": "success",
          "type": "bool"
        },
        {
          "indexed": false,
          "internalType": "bytes",
          "name": "returnData",
          "type": "bytes"
        }
      ],
      "name": "Call",
      "type": "event"
    },
    {
      "anonymous": false,
      "inputs": [
        {
          "indexed": true,
          "internalType": "address",
          "name": "player",
          "type": "address"
        },
        {
          "indexed": true,
          "internalType": "address",
          "name": "delegate",
          "type": "address"
        }
      ],
      "name": "DelegateAdded",
      "type": "event"
    },
    {
      "anonymous": false,
      "inputs": [
        {
          "indexed": true,
          "internalType": "address",
          "name": "player",
          "type": "address"
        },
        {
          "indexed": true,
          "internalType": "address",
          "name": "delegate",
          "type": "address"
        }
      ],
      "name": "DelegateRemoved",
      "type": "event"
    },
    {
      "anonymous": false,
      "inputs": [
        {
          "indexed": true,
          "internalType": "address",
          "name": "playerAddress",
          "type": "address"
        },
        {
          "indexed": false,
          "internalType": "uint256",
          "name": "newEnergy",
          "type": "uint256"
        }
      ],
      "name": "Refill",
      "type": "event"
    },
    {
      "inputs": [],
      "name": "MAX_FOOD",
      "outputs": [
        {
          "internalType": "uint256",
          "name": "",
          "type": "uint256"
        }
      ],
      "stateMutability": "view",
      "type": "function"
    },
    {
      "inputs": [
        {
          "internalType": "address payable",
          "name": "_delegate",
          "type": "address"
        }
      ],
      "name": "addDelegate",
      "outputs": [],
      "stateMutability": "payable",
      "type": "function"
    },
    {
      "inputs": [
        {
          "internalType": "address",
          "name": "destination",
          "type": "address"
        },
        {
          "internalType": "uint256",
          "name": "gasLimit",
          "type": "uint256"
        },
        {
          "internalType": "bytes",
          "name": "data",
          "type": "bytes"
        }
      ],
      "name": "callAsCharacter",
      "outputs": [
        {
          "internalType": "bool",
          "name": "success",
          "type": "bool"
        },
        {
          "internalType": "bytes",
          "name": "returnData",
          "type": "bytes"
        }
      ],
      "stateMutability": "nonpayable",
      "type": "function"
    },
    {
      "inputs": [
        {
          "internalType": "address payable",
          "name": "newDelegate",
          "type": "address"
        },
        {
          "internalType": "uint256",
          "name": "value",
          "type": "uint256"
        },
        {
          "internalType": "string",
          "name": "name",
          "type": "string"
        },
        {
          "internalType": "uint8",
          "name": "class",
          "type": "uint8"
        },
        {
          "internalType": "uint256",
          "name": "location",
          "type": "uint256"
        }
      ],
      "name": "createAndEnter",
      "outputs": [],
      "stateMutability": "payable",
      "type": "function"
    },
    {
      "inputs": [
        {
          "internalType": "address payable",
          "name": "newDelegate",
          "type": "address"
        },
        {
          "internalType": "uint256",
          "name": "characterId",
          "type": "uint256"
        },
        {
          "internalType": "uint256",
          "name": "value",
          "type": "uint256"
        },
        {
          "internalType": "string",
          "name": "name",
          "type": "string"
        },
        {
          "internalType": "uint8",
          "name": "class",
          "type": "uint8"
        },
        {
          "internalType": "uint256",
          "name": "location",
          "type": "uint256"
        }
      ],
      "name": "enter",
      "outputs": [],
      "stateMutability": "payable",
      "type": "function"
    },
    {
      "inputs": [
        {
          "internalType": "address",
          "name": "playerAddress",
          "type": "address"
        }
      ],
      "name": "getEnergy",
      "outputs": [
        {
          "internalType": "uint256",
          "name": "energy",
          "type": "uint256"
        },
        {
          "internalType": "uint256",
          "name": "freeEnergy",
          "type": "uint256"
        }
      ],
      "stateMutability": "view",
      "type": "function"
    },
    {
      "inputs": [
        {
          "internalType": "address",
          "name": "playerAddress",
          "type": "address"
        }
      ],
      "name": "getLastCharacterId",
      "outputs": [
        {
          "internalType": "uint256",
          "name": "",
          "type": "uint256"
        }
      ],
      "stateMutability": "view",
      "type": "function"
    },
    {
      "inputs": [
        {
          "internalType": "address",
          "name": "playerAddress",
          "type": "address"
        },
        {
          "internalType": "uint256",
          "name": "characterId",
          "type": "uint256"
        }
      ],
      "name": "getPlayerInfo",
      "outputs": [
        {
          "internalType": "uint256",
          "name": "energy",
          "type": "uint256"
        },
        {
          "internalType": "uint256",
          "name": "freeEnergy",
          "type": "uint256"
        }
      ],
      "stateMutability": "view",
      "type": "function"
    },
    {
      "inputs": [
        {
          "internalType": "address",
          "name": "delegate",
          "type": "address"
        },
        {
          "internalType": "address",
          "name": "playerAddress",
          "type": "address"
        }
      ],
      "name": "isDelegateFor",
      "outputs": [
        {
          "internalType": "bool",
          "name": "",
          "type": "bool"
        }
      ],
      "stateMutability": "view",
      "type": "function"
    },
    {
      "inputs": [
        {
          "internalType": "address",
          "name": "forwarder",
          "type": "address"
        }
      ],
      "name": "isTrustedForwarder",
      "outputs": [
        {
          "internalType": "bool",
          "name": "",
          "type": "bool"
        }
      ],
      "stateMutability": "view",
      "type": "function"
    },
    {
      "inputs": [
        {
          "internalType": "contract Characters",
          "name": "charactersContract",
          "type": "address"
        },
        {
          "internalType": "address payable",
          "name": "feeRecipient",
          "type": "address"
        },
        {
          "internalType": "uint256",
          "name": "minBalance",
          "type": "uint256"
        },
        {
          "internalType": "contract Pool",
          "name": "pool",
          "type": "address"
        }
      ],
      "name": "postUpgrade",
      "outputs": [],
      "stateMutability": "nonpayable",
      "type": "function"
    },
    {
      "inputs": [],
      "name": "refill",
      "outputs": [],
      "stateMutability": "payable",
      "type": "function"
    },
    {
      "inputs": [
        {
          "internalType": "address",
          "name": "account",
          "type": "address"
        }
      ],
      "name": "refillAccount",
      "outputs": [],
      "stateMutability": "payable",
      "type": "function"
    },
    {
      "inputs": [],
      "name": "register",
      "outputs": [],
      "stateMutability": "nonpayable",
      "type": "function"
    },
    {
      "inputs": [
        {
          "internalType": "address",
          "name": "_delegate",
          "type": "address"
        }
      ],
      "name": "removeDelegate",
      "outputs": [],
      "stateMutability": "nonpayable",
      "type": "function"
    }
  ],
  "transactionHash": "0xb0e61220d2b8556aaf2c3665c2723977f71f5b8b5d3646d49f1859741ffbe881",
  "args": [],
  "numDeployments": 2,
  "solcInputHash": "dd8ef9e4cb12f6b7c300326f49f4b58b",
  "bytecode": "0x60806040523461001a57604051611a446100208239611a4490f35b600080fdfe6080604052600436101561001257600080fd5b60003560e01c80631aa3a008146101025780631dbd3c62146100fd5780633bda15e6146100f8578063454d3fc1146100f35780634e0fb1f4146100ee578063538e0759146100e9578063572b6c05146100e457806367e7646f146100df578063752afa70146100da5780638fc0f5eb146100d55780639391c77a146100d057806399888ac9146100cb578063c23a2465146100c6578063e71bdf41146100c15763ef73754503610107576105c9565b610591565b610575565b610527565b61050e565b6104bd565b61048c565b610414565b6103e7565b6103d4565b6103c1565b61037b565b6102a1565b61022c565b610117565b600080fd5b600091031261010757565b346101075761012736600461010c565b61012f61082c565b604051005b0390f35b6001600160a01b031690565b90565b61015081610138565b0361010757565b9050359061016482610147565b565b80610150565b9050359061016482610166565b909182601f83011215610107578135916001600160401b03831161010757602001926001830284011161010757565b60ff8116610150565b90503590610164826101a8565b909160c082840312610107576101d48383610157565b926101e2816020850161016c565b926040906101f28383830161016c565b936001806060840135941b0383116101075761021384610144948401610179565b93909461022381608086016101b1565b9360a00161016c565b61012f61023a3660046101be565b95949094939193610af6565b61014490610138565b61015081610246565b905035906101648261024f565b608081830312610107576102798282610258565b9261014461028a8460208501610157565b93610298816040860161016c565b93606001610258565b346101075761012f6102b4366004610265565b929190916107d5565b91606083830312610107576102d28284610157565b926102e0836020830161016c565b9260408201356001600160401b038111610107576102fe9201610179565b9091565b9052565b60005b8381106103195750506000910152565b8181015183820152602001610309565b61034a61035360209361035d9361033e815190565b80835293849260200190565b95869101610306565b601f01601f191690565b0190565b901515815260406020820181905261014492910190610329565b346101075761039761038e3660046102bd565b92919091610fe3565b906101346103a460405190565b92839283610361565b906020828203126101075761014491610157565b61012f6103cf3660046103ad565b611422565b6103df36600461010c565b61012f611439565b34610107576101346104026103fd3660046103ad565b611981565b60405191829182901515815260200190565b346101075761012f6104273660046103ad565b611650565b9060a082820312610107576104418183610157565b9261044f826020850161016c565b926040810135916001600160401b0383116101075761047384610144948401610179565b93909461048381606086016101b1565b9360800161016c565b61012f61049a36600461042c565b94939093929192610a0b565b9081526040810192916101649160200152565b0152565b34610107576104d56104d03660046103ad565b610910565b906101346104e260405190565b928392836104a6565b919060408382031261010757610144906105058185610157565b9360200161016c565b34610107576104d56105213660046104eb565b90610948565b346101075761013461054261053d3660046103ad565b6108ab565b6040519182918290815260200190565b9190604083820312610107576101449061056c8185610157565b93602001610157565b346101075761013461040261058b366004610552565b906113fb565b61012f61059f3660046103ad565b611591565b6101446101446101449290565b61014466038d7ea4c680006105a4565b6101446105b1565b34610107576105d936600461010c565b6101346105426105c1565b6101386101446101449290565b610144906105e4565b1561010757565b9061016493929161061e6000805160206119ef8339815191525490565b61063061062b60006105f1565b610138565b61063982610138565b0361065c57506001600160a01b036000805160206119ef8339815191525561073d565b6106799061067361066d3392610138565b91610138565b146105fa565b61073d565b906001600160a01b03905b9181191691161790565b61014490610138906001600160a01b031682565b61014490610693565b610144906106a7565b906106c96101446106d0926106b0565b825461067e565b9055565b9060001990610689565b906106ee6101446106d0926105a4565b82546106d4565b634e487b7160e01b600052604160045260246000fd5b90601f01601f191681019081106001600160401b0382111761072c57604052565b6106f5565b6040513d6000823e3d90fd5b9161075b61076292610754610772969560056106b9565b60016106b9565b60006106de565b61076d8160076106b9565b6106b0565b631aa3a00890803b15610107576107989160009161078f60405190565b93849260e01b90565b8252600490829084905af180156107d0576107b05750565b6101649060005b6107c1818361070b565b81019061010c565b503d6107b7565b610731565b90610164939291610601565b6101449054610246565b156107f257565b60405162461bcd60e51b81526020600482015260126024820152711a1bdb19195c88185b1c9958591e481cd95d60721b6044820152606490fd5b3361083d61062b61076d60066107e1565b61084682610138565b0361084e5750565b61087b6101649161076d61086561076d60066107e1565b61087561066d61062b60006105f1565b146107eb565b60066106b9565b9061088c906106b0565b600052602052604060002090565b6101449081565b610144905461089a565b6108c2610144916108ba600090565b506004610882565b6108a1565b6001600160801b031690565b610144906108c7565b6108c7565b61014490546108d3565b610144610144610144926108c7565b6101449060801c6108c7565b61014490546108fa565b610929610144600092610921600090565b506003610882565b019061014461093d61094261093d856108e1565b6108eb565b93610906565b6000915061014461092991610921600090565b9050519061016482610166565b90602082820312610107576101449161095b565b61030290610138565b602081019291610164919061097c565b906101646109a260405190565b928361070b565b6001600160401b03811161072c57602090601f01601f19160190565b90826000939282370152565b909291926109e66109e1826109a9565b610995565b9381855260208501908284011161010757610164926109c5565b6101449136916109d1565b91610a6595949392610a1b61198a565b936020610a2b61076d60056107e1565b63755edd1790610a5a6000610a4361076d60066107e1565b93610a4d60405190565b9d8e958694859360e01b90565b835260048301610985565b03925af19283156107d05761016498600094610a8d575b5090610a8791610a00565b93610c37565b610a8792919450610ab49060203d8111610abc575b610aac818361070b565b810190610968565b939091610a7c565b503d610aa2565b610302906106b0565b6040906104b96101649496959396610aec60608401986000850190610ac3565b602083019061097c565b9594939095610b0361198a565b93610b1161076d60056107e1565b926323b872dd93610b2561076d60066107e1565b813b15610107578a9588610b3860405190565b9c8d93849360e01b8452610b4f9260048501610acc565b03815a6000948591f19182156107d05761016499610a8793610b72575b50610a00565b610b829060006107c1818361070b565b38610b6c565b15610b8f57565b60405162461bcd60e51b81526020600482015260116024820152706d73672e76616c7565203c2076616c756560781b6044820152606490fd5b634e487b7160e01b600052601160045260246000fd5b91908203918211610beb57565b610bc8565b90610c2b6104b99161016496989795610c1e608096610c1760a08801946000890190610ac3565b6020870152565b8482036040860152610329565b60ff9097166060830152565b929194959390938234610c52610c4a8390565b821015610b88565b818111610d1d575b5050600094610c6b61062b876105f1565b610c74826106b0565b03610d05575b50610c8861076d60066107e1565b9063a23782b393823b15610107578694610cc2610cb593610ca860405190565b9b8c978896879560e01b90565b85528c8b60048701610bf0565b03925af19182156107d05761016494610ce393610ce8575b50506004610882565b6106de565b81610cfe92903d106107c9576107c1818361070b565b3880610cda565b610d1790610d12866106b0565b611784565b38610c7a565b610d3991610d2a91610bde565b610d33866106b0565b8661146e565b508238610c5a565b15610d4857565b60405162461bcd60e51b815260206004820152601260248201527131b0b73737ba1031b0b6361034ba39b2b63360711b6044820152606490fd5b9050519061016482610147565b906020828203126101075761014491610d82565b15610daa57565b60405162461bcd60e51b815260206004820152601e60248201527f5f686f6c64657220646f6573206e6f74206f776e2063686172616374657200006044820152606490fd5b6101449081906001600160a01b031681565b15610e0857565b60405162461bcd60e51b815260206004820152602c60248201527f73656e646572206973206e6f742064656c6567617465206f662063686172616360448201526b3a32b913b990383630bcb2b960a11b6064820152608490fd5b15610e6957565b60405162461bcd60e51b815260206004820152600b60248201526a18d85b1b0819985a5b195960aa1b6044820152606490fd5b91908201809211610beb57565b81810292918115918404141715610beb57565b634e487b7160e01b600052601260045260246000fd5b90610edc565b9190565b908115610ee7570490565b610ebc565b15610ef357565b60405162461bcd60e51b81526020600482015260116024820152706e6f7420656e6f75676820656e6572677960781b6044820152606490fd5b6040906104b96101649496959396610f4c6060840198600085019061097c565b6020830152565b6108dc6101446101449290565b610f6c610f72916108c7565b916108c7565b01906001600160801b038211610beb57565b906001600160801b03199060801b610689565b6108dc610144610144926108c7565b90610fb66101446106d092610f97565b8254610f84565b906001600160801b0390610689565b90610fdc6101446106d092610f97565b8254610fbd565b61105094929391610ff561076d61198a565b9261101561100561062b306106b0565b61100e85610138565b1415610d41565b5a956110296110248383610a00565b6118c0565b602061103861076d60056107e1565b636352211e9061104760405190565b9b8c9260e01b90565b82526004820184905260249082905afa9081156107d0576110936020926110cc9b6000916113ce575b5061108d61066d61062b61076d60066107e1565b14610da3565b6110a061076d60056107e1565b6110be633038bb086110b160405190565b9c8d948593849360e01b90565b835260048301526024820190565b03915afa9788156107d0576000986113a0575b5061110d939291611107916110fb6110f6886106a7565b610def565b8a900361137857610a00565b91611946565b90918194600061113d610144869961112488610e62565b6111376111326003926105e4565b6106a7565b90610882565b019061117461116d61115c61115461093d866108e1565b935a90610bde565b6111676127106105a4565b90610e9c565b3a90610ea9565b92600a916111dc6111b26111ac6111a6611196611190886105a4565b8a610ea9565b6111a060646105a4565b90610ed2565b956105a4565b87610ea9565b916111cc6111c36101448588610e9c565b825b1015610eec565b6111d68386610e9c565b90610bde565b9081956111ec61076d60076107e1565b9063820bef3491803b156101075761121a8460009461122661120d60405190565b9788968795869460e01b90565b84528b60048501610f2c565b03925af180156107d057611362575b506112403392610138565b61124983610138565b146112b9575b50506112869261127b61127561126761128094610f53565b61127086610906565b610f60565b84610fa6565b610f53565b90610fcc565b7f9a55c85f4afdf6baca33ed6106a8754818254616412d5fcc558a6deb81e7a65f916112b46103a460405190565b0390a1565b81316112cb610ed861014460006108a1565b101561124f576112e96112e160009693966108a1565b863190610bde565b80916112f28190565b8210611350575050509261130660006105a4565b935b600091611314836105a4565b8211611321575b5061124f565b82809261133161076d83946106b0565b828215611347575bf1156107d05738808061131b565b506108fc611339565b61135c92969350610bde565b93611308565b6113729060006107c1818361070b565b38611235565b61139b6113946110f661113261138f8b6002610882565b6107e1565b8b14610e01565b610a00565b611107919850916113c361110d95949360203d8111610abc57610aac818361070b565b9891509192936110df565b6113ee9150843d81116113f4575b6113e6818361070b565b810190610d8f565b38611079565b503d6113dc565b61066d61141861138f61141e93611410600090565b506002610882565b92610138565b1490565b6114369061142e61198a565b90349161146e565b50565b61143661144461198a565b349061144f816106b0565b9061146e565b610302906108eb565b6020810192916101649190611455565b90929160009361149e600392611498611492600061148c8688610882565b016108e1565b91610f53565b90610f60565b91826114a86105b1565b6114b181610f53565b916114bb836108c7565b6114c4826108c7565b11611565575b5050508260006114dd846114e394610882565b01610fcc565b6115236115107f5466efde3f6b866c1103aefb7dcd4d0ed7d35437128ee5fcd44762b00cd514b0926106b0565b9261151a60405190565b9182918261145e565b0390a260009083611533836105a4565b811161153e57505050565b8280929161154c82936106b0565b82821561155c575bf1156107d057565b506108fc611554565b6114e3939298508495506115866000926115816114dd936108eb565b610bde565b9895508293506114ca565b61016490610d126115a061198a565b346115ab60006105a4565b81116115b8575b506106b0565b6115cb906115c5836106b0565b8361146e565b50386115b2565b156115d957565b60405162461bcd60e51b81526020600482015260116024820152704e4f545f594f55525f44454c454741544560781b6044820152606490fd5b916001600160a01b0360089290920291821b911b610689565b919061163c6101446106d0936106b0565b908354611612565b6101649160009161162b565b61165b61076d61198a565b90611693600061168e83600261168961167761138f8484610882565b61168361066d8a610138565b146115d2565b610882565b611644565b6116c66116c07fe8514dd4be968431135580c26314ec35afafc8178268603f99625584960d9c16936106b0565b916106b0565b916116d060405190565b600090a3565b156116dd57565b60405162461bcd60e51b81526020600482015260186024820152776e6f207a65726f20616464726573732064656c656761746560401b6044820152606490fd5b1561172457565b60405162461bcd60e51b81526020600482015260196024820152781111531151d0551157d053149150511657d054d4d251d39151603a1b6044820152606490fd5b610f6c611771916108c7565b9003906001600160801b038211610beb57565b600091611790836105f1565b906117ad61179d83610138565b6117a6836106b0565b14156116d6565b6002916117c361066d61141861138f8587610882565b14801561189b575b6117d49061171d565b61182660036117fc6117ea8761148c8885610882565b6111c5610f6c6108dc61127b8b6108a1565b611280866118168761181061127b846108a1565b94610882565b0191611821836108e1565b611765565b61182f816106b0565b9380808061183c816108a1565b88828215611892575bf1156107d057611859839161185e93610882565b6106b9565b6118887f12dade473695d73bd34e031c850d5e815fa17a42b1b5ba13ff72de2497c5e309916106b0565b906116d060405190565b506108fc611845565b506117d46118ac61138f8385610882565b6118b861066d86610138565b1490506117cb565b6000906118cb815190565b916024926118db610ed8856105a4565b106118e65750015190565b50505061014460006105a4565b906119006109e1836109a9565b918252565b3d1561191f576119143d6118f3565b903d6000602084013e565b606090565b634e487b7160e01b600052600160045260246000fd5b1561194157565b611924565b9092916000918291826020820191519287f190610164611964611905565b929361197b610ed86101445a936111a0603f6105a4565b1161193a565b610144906119c0565b339061199e611998836106b0565b926119c0565b6119a457565b905060006119bb366119b68184610a00565b925090565b015190565b61141e61066d7fbda473cae6459373242ba82cd14b3b8493956b600be62b2478f52616c8a283de549261013856feb53127684a568b3173ae13b9f8a6016e243e63b6e8ee1178d6a717850b5d6103a2646970667358221220641c415b45079100662604a2a77d23ef079bee9ca5e16da78e614ace526552bf64736f6c63430008140033",
  "devdoc": {
    "kind": "dev",
    "methods": {},
    "version": 1
  },
  "userdoc": {
    "kind": "user",
    "methods": {},
    "version": 1
  },
  "storageLayout": {
    "storage": [
      {
        "astId": 11715,
        "contract": "src/player/Player.sol:Player",
        "label": "MIN_BALANCE",
        "offset": 0,
        "slot": "0",
        "type": "t_uint256"
      },
      {
        "astId": 11722,
        "contract": "src/player/Player.sol:Player",
        "label": "_feeRecipient",
        "offset": 0,
        "slot": "1",
        "type": "t_address_payable"
      },
      {
        "astId": 11726,
        "contract": "src/player/Player.sol:Player",
        "label": "_delegates",
        "offset": 0,
        "slot": "2",
        "type": "t_mapping(t_address,t_address)"
      },
      {
        "astId": 11731,
        "contract": "src/player/Player.sol:Player",
        "label": "_players",
        "offset": 0,
        "slot": "3",
        "type": "t_mapping(t_address,t_struct(PlayerStruct)11720_storage)"
      },
      {
        "astId": 11735,
        "contract": "src/player/Player.sol:Player",
        "label": "_lastCharacterIds",
        "offset": 0,
        "slot": "4",
        "type": "t_mapping(t_address,t_uint256)"
      },
      {
        "astId": 11738,
        "contract": "src/player/Player.sol:Player",
        "label": "_charactersContract",
        "offset": 0,
        "slot": "5",
        "type": "t_contract(Characters)743"
      },
      {
        "astId": 11741,
        "contract": "src/player/Player.sol:Player",
        "label": "_holder",
        "offset": 0,
        "slot": "6",
        "type": "t_contract(Enterable)11713"
      },
      {
        "astId": 11744,
        "contract": "src/player/Player.sol:Player",
        "label": "_pool",
        "offset": 0,
        "slot": "7",
        "type": "t_contract(Pool)11760"
      }
    ],
    "types": {
      "t_address": {
        "encoding": "inplace",
        "label": "address",
        "numberOfBytes": "20"
      },
      "t_address_payable": {
        "encoding": "inplace",
        "label": "address payable",
        "numberOfBytes": "20"
      },
      "t_contract(Characters)743": {
        "encoding": "inplace",
        "label": "contract Characters",
        "numberOfBytes": "20"
      },
      "t_contract(Enterable)11713": {
        "encoding": "inplace",
        "label": "contract Enterable",
        "numberOfBytes": "20"
      },
      "t_contract(Pool)11760": {
        "encoding": "inplace",
        "label": "contract Pool",
        "numberOfBytes": "20"
      },
      "t_mapping(t_address,t_address)": {
        "encoding": "mapping",
        "key": "t_address",
        "label": "mapping(address => address)",
        "numberOfBytes": "32",
        "value": "t_address"
      },
      "t_mapping(t_address,t_struct(PlayerStruct)11720_storage)": {
        "encoding": "mapping",
        "key": "t_address",
        "label": "mapping(address => struct PlayerDataLayout.PlayerStruct)",
        "numberOfBytes": "32",
        "value": "t_struct(PlayerStruct)11720_storage"
      },
      "t_mapping(t_address,t_uint256)": {
        "encoding": "mapping",
        "key": "t_address",
        "label": "mapping(address => uint256)",
        "numberOfBytes": "32",
        "value": "t_uint256"
      },
      "t_struct(PlayerStruct)11720_storage": {
        "encoding": "inplace",
        "label": "struct PlayerDataLayout.PlayerStruct",
        "members": [
          {
            "astId": 11717,
            "contract": "src/player/Player.sol:Player",
            "label": "energy",
            "offset": 0,
            "slot": "0",
            "type": "t_uint128"
          },
          {
            "astId": 11719,
            "contract": "src/player/Player.sol:Player",
            "label": "freeEnergy",
            "offset": 16,
            "slot": "0",
            "type": "t_uint128"
          }
        ],
        "numberOfBytes": "32"
      },
      "t_uint128": {
        "encoding": "inplace",
        "label": "uint128",
        "numberOfBytes": "16"
      },
      "t_uint256": {
        "encoding": "inplace",
        "label": "uint256",
        "numberOfBytes": "32"
      }
    }
  }
}