{
  "address": "0xC63688CDDFC63d6E75189F89966E0F894DE65838",
  "abi": [
    {
      "inputs": [
        {
          "internalType": "uint256",
          "name": "location",
          "type": "uint256"
        }
      ],
      "name": "carrierCost",
      "outputs": [
        {
          "internalType": "uint256",
          "name": "",
          "type": "uint256"
        }
      ],
      "stateMutability": "pure",
      "type": "function"
    },
    {
      "inputs": [
        {
          "internalType": "uint256",
          "name": "location",
          "type": "uint256"
        },
        {
          "internalType": "bytes32",
          "name": "blockHash",
          "type": "bytes32"
        },
        {
          "internalType": "uint8",
          "name": "class",
          "type": "uint8"
        }
      ],
      "name": "computeRoomDiscoveryReward",
      "outputs": [
        {
          "internalType": "uint256",
          "name": "numGold",
          "type": "uint256"
        },
        {
          "internalType": "uint256",
          "name": "numElements",
          "type": "uint256"
        }
      ],
      "stateMutability": "pure",
      "type": "function"
    },
    {
      "inputs": [
        {
          "internalType": "uint256",
          "name": "location",
          "type": "uint256"
        }
      ],
      "name": "coordinates",
      "outputs": [
        {
          "internalType": "int64",
          "name": "x",
          "type": "int64"
        },
        {
          "internalType": "int64",
          "name": "y",
          "type": "int64"
        },
        {
          "internalType": "int64",
          "name": "z",
          "type": "int64"
        },
        {
          "internalType": "uint64",
          "name": "a",
          "type": "uint64"
        }
      ],
      "stateMutability": "pure",
      "type": "function"
    },
    {
      "inputs": [
        {
          "internalType": "uint256",
          "name": "data",
          "type": "uint256"
        }
      ],
      "name": "decodeCharacterData",
      "outputs": [
        {
          "internalType": "uint16",
          "name": "level",
          "type": "uint16"
        },
        {
          "internalType": "uint16",
          "name": "hp",
          "type": "uint16"
        },
        {
          "internalType": "uint16",
          "name": "maxHP",
          "type": "uint16"
        },
        {
          "internalType": "uint32",
          "name": "xp",
          "type": "uint32"
        },
        {
          "internalType": "uint8",
          "name": "class",
          "type": "uint8"
        }
      ],
      "stateMutability": "pure",
      "type": "function"
    },
    {
      "inputs": [
        {
          "internalType": "uint256",
          "name": "data",
          "type": "uint256"
        }
      ],
      "name": "decodeGearData",
      "outputs": [
        {
          "internalType": "uint16",
          "name": "level",
          "type": "uint16"
        },
        {
          "internalType": "uint8",
          "name": "slot",
          "type": "uint8"
        },
        {
          "internalType": "uint8",
          "name": "classBits",
          "type": "uint8"
        },
        {
          "internalType": "uint16",
          "name": "durability",
          "type": "uint16"
        },
        {
          "internalType": "uint16",
          "name": "maxDurability",
          "type": "uint16"
        },
        {
          "internalType": "uint32",
          "name": "template",
          "type": "uint32"
        }
      ],
      "stateMutability": "pure",
      "type": "function"
    },
    {
      "inputs": [
        {
          "internalType": "uint256",
          "name": "location",
          "type": "uint256"
        }
      ],
      "name": "discoveryCost",
      "outputs": [
        {
          "internalType": "uint256",
          "name": "fragments",
          "type": "uint256"
        }
      ],
      "stateMutability": "pure",
      "type": "function"
    },
    {
      "inputs": [
        {
          "internalType": "uint16",
          "name": "level",
          "type": "uint16"
        },
        {
          "internalType": "uint8",
          "name": "slot",
          "type": "uint8"
        },
        {
          "internalType": "uint8",
          "name": "classBits",
          "type": "uint8"
        },
        {
          "internalType": "uint16",
          "name": "durability",
          "type": "uint16"
        },
        {
          "internalType": "uint16",
          "name": "maxDurability",
          "type": "uint16"
        },
        {
          "internalType": "uint32",
          "name": "template",
          "type": "uint32"
        }
      ],
      "name": "encodeGearData",
      "outputs": [
        {
          "internalType": "uint256",
          "name": "data",
          "type": "uint256"
        }
      ],
      "stateMutability": "pure",
      "type": "function"
    },
    {
      "inputs": [
        {
          "internalType": "uint256",
          "name": "areaLoc",
          "type": "uint256"
        },
        {
          "internalType": "bytes32",
          "name": "blockHash",
          "type": "bytes32"
        },
        {
          "internalType": "uint64",
          "name": "numElementalAreaInPeriod",
          "type": "uint64"
        }
      ],
      "name": "generateArea",
      "outputs": [
        {
          "internalType": "uint8",
          "name": "areaType",
          "type": "uint8"
        }
      ],
      "stateMutability": "pure",
      "type": "function"
    },
    {
      "inputs": [
        {
          "internalType": "uint256",
          "name": "location",
          "type": "uint256"
        },
        {
          "internalType": "bytes32",
          "name": "blockHash",
          "type": "bytes32"
        },
        {
          "internalType": "uint256",
          "name": "numMonsters",
          "type": "uint256"
        },
        {
          "internalType": "bool",
          "name": "newlyDiscoveredRoom",
          "type": "bool"
        },
        {
          "internalType": "uint8",
          "name": "roomKind",
          "type": "uint8"
        }
      ],
      "name": "generateMonsterIndex",
      "outputs": [
        {
          "internalType": "uint256",
          "name": "",
          "type": "uint256"
        }
      ],
      "stateMutability": "pure",
      "type": "function"
    },
    {
      "inputs": [
        {
          "internalType": "uint256",
          "name": "areaLoc",
          "type": "uint256"
        },
        {
          "internalType": "bytes32",
          "name": "blockHash",
          "type": "bytes32"
        }
      ],
      "name": "generateRandomEvent",
      "outputs": [
        {
          "internalType": "uint256",
          "name": "roomLocation",
          "type": "uint256"
        },
        {
          "internalType": "uint64",
          "name": "randomEvent",
          "type": "uint64"
        }
      ],
      "stateMutability": "pure",
      "type": "function"
    },
    {
      "inputs": [
        {
          "internalType": "uint256",
          "name": "location",
          "type": "uint256"
        },
        {
          "internalType": "bytes32",
          "name": "blockHash",
          "type": "bytes32"
        },
        {
          "internalType": "uint8",
          "name": "direction",
          "type": "uint8"
        },
        {
          "internalType": "uint8",
          "name": "areaAtDiscovery",
          "type": "uint8"
        },
        {
          "internalType": "uint8",
          "name": "lastIndex",
          "type": "uint8"
        },
        {
          "internalType": "uint8",
          "name": "index",
          "type": "uint8"
        }
      ],
      "name": "generateRoom",
      "outputs": [
        {
          "internalType": "uint8",
          "name": "exits",
          "type": "uint8"
        },
        {
          "internalType": "uint8",
          "name": "kind",
          "type": "uint8"
        },
        {
          "internalType": "uint8",
          "name": "area_discovered",
          "type": "uint8"
        }
      ],
      "stateMutability": "pure",
      "type": "function"
    },
    {
      "inputs": [
        {
          "internalType": "uint256",
          "name": "location",
          "type": "uint256"
        }
      ],
      "name": "getAreaLoc",
      "outputs": [
        {
          "internalType": "uint256",
          "name": "",
          "type": "uint256"
        }
      ],
      "stateMutability": "pure",
      "type": "function"
    },
    {
      "inputs": [
        {
          "internalType": "uint256",
          "name": "p1",
          "type": "uint256"
        },
        {
          "internalType": "uint256",
          "name": "p2",
          "type": "uint256"
        }
      ],
      "name": "getRing",
      "outputs": [
        {
          "internalType": "uint256",
          "name": "",
          "type": "uint256"
        }
      ],
      "stateMutability": "pure",
      "type": "function"
    },
    {
      "inputs": [
        {
          "internalType": "uint16",
          "name": "hp",
          "type": "uint16"
        }
      ],
      "name": "hpCost",
      "outputs": [
        {
          "internalType": "uint256",
          "name": "",
          "type": "uint256"
        }
      ],
      "stateMutability": "pure",
      "type": "function"
    },
    {
      "inputs": [
        {
          "internalType": "uint16",
          "name": "value",
          "type": "uint16"
        },
        {
          "internalType": "uint16",
          "name": "max",
          "type": "uint16"
        },
        {
          "internalType": "int64",
          "name": "change",
          "type": "int64"
        }
      ],
      "name": "limitedChange",
      "outputs": [
        {
          "internalType": "uint16",
          "name": "",
          "type": "uint16"
        }
      ],
      "stateMutability": "pure",
      "type": "function"
    },
    {
      "inputs": [
        {
          "internalType": "int64",
          "name": "x",
          "type": "int64"
        },
        {
          "internalType": "int64",
          "name": "y",
          "type": "int64"
        },
        {
          "internalType": "int64",
          "name": "z",
          "type": "int64"
        }
      ],
      "name": "location",
      "outputs": [
        {
          "internalType": "uint256",
          "name": "",
          "type": "uint256"
        }
      ],
      "stateMutability": "pure",
      "type": "function"
    },
    {
      "inputs": [
        {
          "internalType": "uint256",
          "name": "gearData",
          "type": "uint256"
        }
      ],
      "name": "recyclingReward",
      "outputs": [
        {
          "internalType": "uint256",
          "name": "",
          "type": "uint256"
        }
      ],
      "stateMutability": "pure",
      "type": "function"
    },
    {
      "inputs": [
        {
          "internalType": "uint256",
          "name": "rooms",
          "type": "uint256"
        },
        {
          "internalType": "uint256",
          "name": "periods",
          "type": "uint256"
        }
      ],
      "name": "roomsTax",
      "outputs": [
        {
          "internalType": "uint256",
          "name": "",
          "type": "uint256"
        }
      ],
      "stateMutability": "pure",
      "type": "function"
    },
    {
      "inputs": [
        {
          "internalType": "uint256",
          "name": "p1",
          "type": "uint256"
        },
        {
          "internalType": "uint256",
          "name": "p2",
          "type": "uint256"
        }
      ],
      "name": "teleportTax",
      "outputs": [
        {
          "internalType": "uint256",
          "name": "",
          "type": "uint256"
        }
      ],
      "stateMutability": "pure",
      "type": "function"
    },
    {
      "inputs": [
        {
          "internalType": "uint16",
          "name": "level",
          "type": "uint16"
        }
      ],
      "name": "toLevelUp",
      "outputs": [
        {
          "internalType": "uint16",
          "name": "xpRequired",
          "type": "uint16"
        },
        {
          "internalType": "uint256",
          "name": "coinsRequired",
          "type": "uint256"
        },
        {
          "internalType": "uint8",
          "name": "hpIncrease",
          "type": "uint8"
        }
      ],
      "stateMutability": "pure",
      "type": "function"
    }
  ],
  "transactionHash": "0x4fe351ff5743c2fb3f0dc52de4f6d12fa1802f1edf35d2d932c3d2c650e1e2e4",
  "args": [],
  "numDeployments": 2,
  "solcInputHash": "dd8ef9e4cb12f6b7c300326f49f4b58b",
  "bytecode": "0x60806040523461001e5760405161286f61002482393081505061286f90f35b600080fdfe6080604052600436101561001257600080fd5b60003560e01c80630e701124146101525780630ececfea1461014d578063213ee143146101485780632f587796146101435780633683dee11461013e57806356b5c381146101395780637a923474146101345780639f7cb08e1461012f578063a0109ce71461012a578063a10143a614610125578063a48378ff14610120578063acda69ca1461011b578063b0ca9dfe14610116578063d495436114610111578063d667fd041461010c578063d827005914610107578063ed53a62414610102578063f090aca8146100fd578063f6940ac7146100f85763ff5335fa03610157576107f7565b6107cc565b61076f565b610755565b6106de565b6106b2565b610640565b610607565b6105ea565b610561565b610535565b6104e6565b610490565b610416565b6103eb565b6103c1565b610358565b610318565b610259565b6101c6565b600080fd5b61ffff81165b0361015757565b905035906101768261015c565b565b6101628160070b90565b9050359061017682610178565b9091606082840312610157576101bf6101a88484610169565b936101b68160208601610169565b93604001610182565b90565b9052565b6101f26101dd6101d736600461018f565b91612756565b6040519182918261ffff909116815260200190565b0390f35b80610162565b90503590610176826101f6565b9190604083820312610157576101bf9061022381856101fc565b936020016101fc565b6001600160401b031690565b6101c29061022c565b908152604081019291610176916020905b0190610238565b61026d610267366004610209565b90610df5565b906101f261027a60405190565b92839283610241565b60ff8116610162565b9050359061017682610283565b909160c082840312610157576102af83836101fc565b926102bd81602085016101fc565b926102cb826040830161028c565b926101bf6102dc846060850161028c565b936102ea816080860161028c565b9360a00161028c565b60ff918216815291166020820152606081019291610176916040905b019060ff169052565b6101f2610335610329366004610299565b94939093929192610e87565b604051919391938493846102f3565b90602082820312610157576101bf916101fc565b6101f261036e610369366004610344565b611cdf565b6040519182918290815260200190565b9091606082840312610157576101bf61039784846101fc565b936103a581602086016101fc565b9360400161028c565b9081526040810192916101769160200152565b6103d56103cf36600461037e565b91610bcf565b906101f26103e260405190565b928392836103ae565b6101f261036e6103fc366004610209565b90612812565b90602082820312610157576101bf91610169565b6101f261036e610427366004610402565b611a27565b91946104796104849298979561046e60a0966104646101769a61045a60c08a019e60008b019061ffff169052565b60ff166020890152565b60ff166040870152565b61ffff166060850152565b61ffff166080830152565b019063ffffffff169052565b6101f26104a66104a1366004610344565b6126a0565b926104b696949692919260405190565b9687968761042c565b9091606082840312610157576101bf6104d88484610182565b936101b68160208601610182565b6101f261036e6104f73660046104bf565b91610905565b6102526101769461052b606094989795610521608086019a600087019060070b9052565b60070b6020850152565b60070b6040830152565b6101f261054b610546366004610344565b61080d565b9061055894929460405190565b948594856104fd565b6101f261036e610572366004610344565b610d98565b63ffffffff8116610162565b9050359061017682610577565b909160c082840312610157576105a68383610169565b926105b4816020850161028c565b926105c2826040830161028c565b926101bf6105d38460608501610169565b936105e18160808601610169565b9360a001610583565b6101f261036e6105fb366004610590565b949390939291926125dd565b6101f261036e610618366004610209565b90611a34565b61ffff909116815260608101939261017692909160409161030f906020830152565b6101f2610656610651366004610402565b6113ee565b6040519193919384938461061e565b90959492610176946106a561030f9261069a60809661068f60a088019c600089019061ffff169052565b61ffff166020870152565b61ffff166040850152565b63ffffffff166060830152565b6101f26106c86106c3366004610344565b6124f0565b916106d595939560405190565b95869586610665565b6101f261036e6106ef366004610344565b6119c0565b801515610162565b90503590610176826106f4565b919060a0838203126101575761071f81846101fc565b9261072d82602083016101fc565b926101bf61073e84604085016101fc565b9361074c81606086016106fc565b9360800161028c565b6101f261036e610766366004610709565b939290926109d1565b6101f261036e610780366004610209565b90611943565b6101628161022c565b9050359061017682610786565b9091606082840312610157576101bf6107b584846101fc565b936107c381602086016101fc565b9360400161078f565b6101f26107e36107dd36600461079c565b9161174f565b6040519182918260ff909116815260200190565b6101f261036e610808366004610344565b611991565b61081a9060005b5061089c565b929391929091565b61082f6101bf6101bf9290565b61022c565b6108436101bf6101bf9261022c565b60070b90565b6101bf6101bf6101bf9290565b634e487b7160e01b600052601260045260246000fd5b634e487b7160e01b600052601160045260246000fd5b9061088c565b9190565b908115610897570490565b610856565b906108ae6108a983610822565b610834565b916108d06108a96108cb6108c5600160401b610849565b84610882565b610822565b916101bf6108cb6108f16108a9826108eb600160801b610849565b87610882565b936108ff600160ff1b610849565b90610882565b6101bf929190610954565b61082f6101bf6101bf9260070b90565b6101bf6101bf6101bf9261022c565b8181029291811591840414171561094257565b61086c565b9190820180921161094257565b9061098f6109cb6109c5926109c56109b861098f6109b26101bf99610977600090565b506109ad6109a761099461098f600160ff1b94610910565b610920565b6109a1600160801b610849565b9061092f565b91610849565b610947565b93610910565b6109a1600160401b610849565b90610947565b92610910565b6101bf9493929190610ab5565b6109eb6101bf6101bf9290565b60ff1690565b6101bf60016109de565b6101bf600f6109de565b610a149060ff165b9160ff1690565b019060ff821161094257565b6101c29060ff1660f81b90565b60019392610a4a602083610a448295610a52979052565b01918252565b018092610a20565b0190565b634e487b7160e01b600052604160045260246000fd5b90601f01601f191681019081106001600160401b03821117610a8d57604052565b610a56565b6101bf90610849565b8115610897570690565b6101bf6101bf6101bf9260ff1690565b929093610ac0600090565b50610acf610a0d6109eb6109f1565b03610bc157610adc6109fb565b8091610ba6575b50610b52610888610b4c610b3c610afa60066109de565b610b24610b0660405190565b8092610b1860208301918d8d84610a2d565b90810382520382610a6c565b610b36610b2f825190565b9160200190565b20610a92565b610b466064610849565b90610a9b565b92610aa5565b10610b64575050506101bf6000610849565b610b97610b9c92610b246101bf95610b7c60076109de565b92610b18610b8960405190565b948593602085019384610a2d565b610a9b565b6109c56001610849565b610bbb9150610bb5600a6109de565b90610a05565b38610ae3565b505050506101bf6000610849565b610bda929190610bfc565b9091565b6101bf60196109de565b6101bf60026109de565b6101bf60046109de565b90929091610c0a6000610849565b93610c28610c188686611aa6565b6108ff610c23610bde565b610aa5565b858114610d88575b600290610c78610c48610c4284610849565b83610882565b6109c583610b97610b18610b24610c5f60646109de565b8d610c6960405190565b9384928d602085019384610a2d565b95878714610d76575b610c89610be8565b610c9560ff8716610a0d565b14610d4e575b916109c591610cdc94936008610cb081610849565b8311610d2e575b50610b24610cd1610ccb610b979495610849565b85610882565b95610b7c60656109de565b938414610d1c575b610cf9610a0d610cf26109f1565b9260ff1690565b14610d0057565b91610d19906109c5610d13610c23610bf2565b82610882565b91565b9250610d286001610849565b92610ce4565b610b979250610cd1610ccb610d45610b2493610849565b94505050610cb7565b95916109c591610d6a610cdc95946109c5610d13610c23610bf2565b97919394509150610c9b565b9550610d826001610849565b95610c81565b50610d936001610849565b610c30565b6101bf90610dae565b6101bf600160ff1b610849565b610db96101bf610da1565b8103610dca57506101bf6000610849565b610de16101bf91610ddb6000610849565b90611aa6565b6109ad6109a76001926108ff610c23610bde565b610bda9190610e7c91610e76610e4d610e2f610e1160666109de565b610b24610e1d60405190565b8092610b186020830191898b84610a2d565b610b466109a7610b18610b24610e52610e4d600996610b4688610849565b6109de565b97610e5d60676109de565b90610e6760405190565b93849260208401928d84610a2d565b91611e1b565b906101bf6002610822565b610e95959493929190610e9c565b9192909190565b95949290610eb8610bda9593610eb0600090565b508289611eee565b96610ef0565b6108436101bf6101bf9290565b6101bf60056109de565b6101bf60036109de565b60ff1660ff81146109425760010190565b94936000610f08610f0088611d3e565b95949761089c565b505060009391610f21610f1a86610ebe565b9160070b90565b1490816113d9575b5015610f4c57505050505050610f3d610be8565b91610f4860016109de565b1790565b95909691929394965b60ff87165b60ff8716116113cf5750610f6e60036109de565b610fb9610e4d610faf87610b248a8d610b1888610f8a60405190565b95869460208601948592610a4a6001610a5294610a44602088610a4a859b9a83999052565b610b466014610849565b90610fdb610fc760016109de565b8516610fd6610a0d60016109de565b141590565b9081806113a6575b1561101457505050610f5a61100b610ff9610be8565b9361100460016109de565b1796610edf565b95929050610f55565b61103061102160026109de565b8616610fd6610a0d60026109de565b918280611358575b1561105a5750505050610f5a61100b61104f610ed5565b9361100460026109de565b61107661106760046109de565b8716610fd6610a0d60046109de565b9182806112b5575b156110a1575050505050610f5a61100b611096610bf2565b9361100460046109de565b6110bd6110ae60086109de565b8816610fd6610a0d60086109de565b9485611100575b50505050506000146110e957610f5a61100b6110de610ecb565b9361100460086109de565b610f5a61100b6110fa9693966109f1565b93610edf565b61110f91929394955060ff1690565b1492831561129e575b831561127a575b8315611256575b8315611232575b8315611201575b83156111d0575b831561119f575b8315611156575b50505038808080806110c4565b90919250611164604d6109de565b60ff8916149283611197575b508261118f575b5081611187575b50388080611149565b90503861117e565b915038611177565b925038611170565b92506111ab604e6109de565b60ff891614806111c9575b806111c2575b92611142565b50826111bc565b50816111b6565b92506111dc604e6109de565b60ff891614806111fa575b806111f3575b9261113b565b50816111ed565b50806111e7565b925061120d604e6109de565b60ff8916148061122b575b80611224575b92611134565b508261121e565b5080611218565b925061123e604f6109de565b60ff8916148061124f575b9261112d565b5081611249565b9250611262604f6109de565b60ff89161480611273575b92611126565b508261126d565b9250611286604f6109de565b60ff89161480611297575b9261111f565b5080611291565b92506112aa60506109de565b60ff89161492611118565b506112c060026109de565b60ff8616148015611343575b8015611326575b8015611309575b8061107e57506112ea604e6109de565b60ff8b161480611302575b801561107e57508361107e565b50816112f5565b50611314604f6109de565b60ff8b161480156112da5750836112da565b50611331604f6109de565b60ff8b161480156112d35750816112d3565b5061134e60506109de565b60ff8b16146112cc565b5061136360016109de565b60ff8516148015611391575b80611038575061137f604f6109de565b60ff8a16148015611038575080611038565b5061139c60506109de565b60ff8a161461136f565b506113b0866109de565b60ff84161480610fe357506113c560506109de565b60ff891614610fe3565b9650935093505050565b90506113e7610f1a85610ebe565b1438610f29565b610e9590611598565b9061017661140460405190565b9283610a6c565b6001600160401b038111610a8d5760200290565b61142b6101bf9161140b565b6113f7565b61143d6101bf6101bf9290565b61ffff1690565b6101bf6101bf6101bf9261ffff1690565b634e487b7160e01b600052603260045260246000fd5b90600b81101561147c576020020190565b611455565b6114929061ffff165b9161ffff1690565b019061ffff821161094257565b939190925b600182116114b0575050565b909192808204811161094257600183166114d2575b8002929160011c906114a4565b938402936114c5565b929192811561155e57801561155657808060011461154d576002146115385760208210610133821016604e8310600b8310161761152e579261152191819394600161149f565b8092048111610942570290565b0a91821161094257565b5060ff81116109425760020a91821161094257565b50600193505050565b506000925050565b506001925050565b6101bf9161157b610a0d61ffff9361ffff1690565b906114db565b61088c9061ffff1661148a565b6101bf600a6109de565b906116c66116be6115a9600b61141f565b6115c160006115b781611430565b61ffff1690830152565b6115d96115ce600a611430565b61ffff166020830152565b6115f16115e66031611430565b61ffff166040830152565b6116096115fe6077611430565b61ffff166060830152565b61161661047960d0611430565b61162f611624610148611430565b61ffff1660a0830152565b61164861163d61020c611430565b61ffff1660c0830152565b61166161165661033a611430565b61ffff1660e0830152565b61167b61166f6104f5611430565b61ffff16610100830152565b611695611689610e46611430565b61ffff16610120830152565b6116af6116a3611aee611430565b61ffff16610140830152565b6116b885611444565b9061146b565b5161ffff1690565b916008906116d382611430565b61ffff821611156116f55750506116eb6101ec610849565b905b6101bf61158e565b6117499161173e611738611728611718611744956117136001611430565b611481565b61172260036109de565b90611566565b6117326005611430565b90611581565b91611430565b90611481565b611444565b906116ed565b6101bf9291906117f4565b61082f6101bf6101bf9260ff1690565b61177661177c9161022c565b9161022c565b02906117878261022c565b91820361094257565b9190820391821161094257565b6101bf6064611430565b61143d6101bf6101bf9260ff1690565b6117c39060070b610f1a565b908115610897570790565b6117de6101bf6101bf9260070b90565b60000b90565b6109eb6101bf6101bf9260000b90565b916117fe83611c56565b908115611926575b50156118185750506101bf60066109de565b61183761098f61182784611bbc565b6118316009610822565b9061176a565b6118416000610849565b811161190d575b611856610888610c23610bde565b1061190157610e4d61188e610b18610b2461189994611875600c6109de565b9061187f60405190565b93849260208401928a84610a2d565b610b46612710610849565b6118ad6118a761143d61179d565b916117a7565b116118f6576118be6101bf9161089c565b509150506118f16118eb6118e66118e16001946118db6005610ebe565b906117b7565b6117ce565b6117e4565b916109de565b610a05565b506101bf60066109de565b50506101bf60066109de565b6119219061191b6004610849565b90611790565b611848565b905061193b61177661193661158e565b61175a565b101538611806565b6101bf919061196c906119676109a76119769461195e600090565b50600293611aa6565b61092f565b6108ff6005610849565b6119806000610849565b81036101bf57506101bf6001610849565b6101bf906119b6611976916119a4600090565b506119676109a7600292610ddb610da1565b6108ff6006610849565b6101bf906119d19060005b506126b7565b509391509150600191611a0661148a6119fe6117446119f560029661173288611430565b61171388611430565b9561ffff1690565b14611a1057505090565b6101bf92916109ad6109a7610ccb6109c594610849565b6101bf906101bf90611444565b6101bf9190611aa6565b611a4a9060070b610f1a565b90039060016001603f1b0319821260016001603f1b0383131761094257565b6101bf6101bf6101bf9260070b90565b600160ff1b81146109425760000390565b9190808303926000909112801582851316918412161761094257565b611ad2611acd611abb611ac593610814600090565b505093909461089c565b505094611a3e565b611a69565b91600091611adf83610849565b8412611b85575b611acd611af6926109a792611a3e565b8112611b77575b6001603f1b611b0b81610849565b8313611b59575b611b1b90610849565b8113611b3e575b80821315611b3457506101bf90610849565b6101bf9150610849565b611b5490611b4f600160401b610849565b611a8a565b611b22565b91611b1b90611b6f90611b4f600160401b610849565b929050611b12565b611b8090611a79565b611afd565b92611acd611af692611b996109a793611a79565b959250925050611ae6565b60070b60016001603f1b031981146109425760000390565b611bc7906000610814565b50819050600083611bd782610ebe565b611be18260070b90565b12611c40575b50611bf190610ebe565b611bfb8260070b90565b12611c30575b50611c0c8160070b90565b611c168360070b90565b1315611c2657506101bf90610910565b6101bf9150610910565b611c3a9150611ba4565b38611c01565b611bf1919450611c4f90611ba4565b9390611be7565b611c61906000610814565b505060001991611c7083610ebe565b611c7a8260070b90565b12159283611cc1575b5082611ca8575b5081611c94575090565b9050611ca3610f1a6001610ebe565b131590565b909150611cb8610f1a6001610ebe565b13159038611c8a565b611ccc919350610ebe565b611cd68260070b90565b12159138611c83565b6101bf90611d3e565b611cf49060070b610f1a565b019060016001603f1b03821360016001603f1b031983121761094257565b611d1e9060070b610f1a565b9081156108975760016001603f1b03198114600019831416610942570590565b611da46101bf91611d56611d50600090565b9161089c565b50939091600090611d6682610ebe565b611d708260070b90565b12611deb57611d8c611d9c91611d866004610ebe565b90611ce8565b611d966009610ebe565b90611d12565b935b50610ebe565b611dae8260070b90565b12611dca57611d8c611dc491611d866004610ebe565b90610954565b611de6611d8c611ddc611dc493611ba4565b611d866004610ebe565b611ba4565b611de6611d8c611ddc611dfd93611ba4565b93611d9e565b611e0f9060070b610f1a565b02906117878260070b90565b611dc46101bf93611d866108a9611e7b611e8196611e75611e87611e5f611e59611e4a611e599b610814600090565b509d9160099491949d8e610ebe565b90611e03565b95611d866108a9611e7b600499611e758b610ebe565b90611a3e565b9261175a565b9a610ebe565b91610ebe565b6101bf60576109de565b6101bf9161157b610a0d60ff9360ff1690565b6101bf60286109de565b6101bf60006109de565b611eca9060ff16610a0d565b90039060ff821161094257565b611ee39060ff16610a0d565b029060ff8216611787565b90600092611efb846109de565b90611f04610bf2565b611f1060ff8316610a0d565b036121c8575050611f21600f6109de565b925b611f4e611f30606f6109de565b610b24611f3c60405190565b8092610b186020830191888a84610a2d565b611f60610e4d606492610b4684610849565b90611f7d6109eb611f6f611eaa565b611f78846109de565b611ebe565b60ff8316101561218c575050611f92906109de565b905b600491611fa0836109de565b60ff821610611fd1575050610f489150611fcc6118eb600f92611fc66118eb60026109de565b90611e97565b611ed7565b6003611fdc816109de565b60ff83160361208757505061200f610e4d6120066120299495610b2461201995610b7c60706109de565b610b4686610849565b610bb560016109de565b61202360076109de565b90611ed7565b61203360156109de565b60ff8216036120575750610f4890611fcc6118eb600d92611fc66118eb60026109de565b612064610a0d601c6109de565b1461206d575090565b610f4890611fcc6118eb600b92611fc66118eb60026109de565b9091600292612095846109de565b60ff82160361212757506118eb61200f610e4d6120c26120cc969798610b2461202396610b7c60706109de565b610b466006610849565b6120d6600f6109de565b60ff8216036120f85750611fcc6118eb610f4893611fc66118eb6005956109de565b612105610a0d60126109de565b1461210f57505090565b611fcc6118eb610f4893611fc66118eb600a956109de565b90929150612138610a0d60016109de565b14612145575b5050505090565b611fc661217561217b612175610e4d61216c61218299610b2461202399610b7c60706109de565b610b4689610849565b936109de565b9283611e97565b173880808061213e565b610a0d6109eb6121a192611f786118eb61158e565b101590506121b9576121b360016109de565b90611f94565b6121c360026109de565b6121b3565b6121d3949194611e8d565b906121de60016109de565b916121ff6121eb60405190565b610b248160208101610b18888b8d84610a2d565b90612218610a0d6109eb610e4d606495610b4687610849565b116124ce575b9084929161222a611eaa565b61225f610a0d6109eb610e4d6122568c610b2461224760026109de565b9b8c92610b18610b8960405190565b610b4687610849565b1161226e575b50505050611f23565b869061227c98949598610bde565b8761228760036109de565b916122b5610a0d6109eb610e4d61216c6122a060405190565b610b24818c610b188c8c602085019384610a2d565b111561236e57505050506122c7611eb4565b6122d360ff8316610a0d565b148015612353575b156122f95750506122ec60086109de565b1717925b38808080612265565b90919592506123066109f1565b61231260ff8316610a0d565b1490811561233c575b50612327575b506122f0565b90931761233460046109de565b179238612321565b905061234c610a0d610cf2610ed5565b143861231b565b5061235c610be8565b61236860ff8316610a0d565b146122db565b610e4d61239893610b466109a76118eb95610b246109eb9660329e9c9e9a610b18610b8960405190565b1115612435576123a6611eb4565b6123b260ff8316610a0d565b036123cc57505090506123c560086109de565b17926122f0565b6123d46109f1565b6123e060ff8316610a0d565b036123ef57505017925b6122f0565b9092506123fa610be8565b61240660ff8316610a0d565b03612413575017926122f0565b90949150612425610a0d610cf2610ed5565b036123ea57926123c560046109de565b612440939193611eb4565b61244c60ff8316610a0d565b0361245a57505017926122f0565b909192506124666109f1565b61247260ff8316610a0d565b036124835750506123c560046109de565b61248b610be8565b61249760ff8316610a0d565b036124a85750506123c560086109de565b6124b9610a0d610cf2979497610ed5565b146124c457506122f0565b9093179238612321565b955090816124e685936124e160026109de565b611e97565b969091925061221e565b6124f990612533565b919394909293929190565b6101bf906125186108886101bf9460ff1690565b901c90565b61252a6101bf6101bf9290565b63ffffffff1690565b9061254a610e4d61254460f86109de565b84612504565b9161255e61255860e86109de565b82612504565b6125776125726201000092610b4684610849565b611430565b936125da6125726125a96125a461259761259160c86109de565b88612504565b610b46600160201b610849565b61251d565b93610b466109a76125c96125726120066125c360b86109de565b8b612504565b976125d460a86109de565b90612504565b93565b6101bf959493929190612617565b6101bf906125ff6108886101bf9460ff1690565b901b90565b6101bf6101bf6101bf9263ffffffff1690565b61269061266c6109c5956109c561268661266c6101bf9b9a976109c561267c610b4c6109c59a6109c561267261269a9f61265c61266c91612656600090565b50610aa5565b61266660f86109de565b906125eb565b92611444565b61266660e86109de565b61266660e06109de565b61266660d06109de565b61266660c06109de565b91612604565b6126ab9060006119cb565b94959394929391929091565b906126c8610e4d61254460f86109de565b6126d561254460e86109de565b6126e96125726201000092610b4684610849565b93612708610e4d6126fd61254460e06109de565b610b46610100610849565b936101bf6125a461274861257261273761257261272e61272860d06109de565b89612504565b610b468a610849565b96610b466109a761272860c06109de565b93610b46600160201b610849565b6101bf929190612798565b61082f6101bf6101bf9261ffff1690565b6127826101bf6101bf9260070b90565b60010b90565b61143d6101bf6101bf9260010b90565b916127b26108a96127b793946127ac600090565b50612761565b611ce8565b906127c76108436108a983612761565b6127d18360070b90565b1361280d575060006127e281610ebe565b6127ec8360070b90565b136127fb576101bf9150611430565b506128086101bf91612772565b612788565b905090565b6101bf916119676101bf92612825600090565b506109ad6109a76001926108ff600a61084956fea2646970667358221220dc1d0a1fd1e4f0c5d0a2f4716ec3b5c096f0eecd9b6c581d2a9476b7ed628ad664736f6c63430008140033",
  "devdoc": {
    "kind": "dev",
    "methods": {},
    "version": 1
  },
  "userdoc": {
    "kind": "user",
    "methods": {},
    "version": 1
  },
  "storageLayout": {
    "storage": [],
    "types": null
  }
}