{
  "address": "0xb44941ECd643Eb32848368A295236F992de162ae",
  "abi": [
    {
      "inputs": [
        {
          "internalType": "uint256",
          "name": "location",
          "type": "uint256"
        }
      ],
      "name": "carrierCost",
      "outputs": [
        {
          "internalType": "uint256",
          "name": "",
          "type": "uint256"
        }
      ],
      "stateMutability": "pure",
      "type": "function"
    },
    {
      "inputs": [
        {
          "internalType": "uint256",
          "name": "location",
          "type": "uint256"
        },
        {
          "internalType": "bytes32",
          "name": "blockHash",
          "type": "bytes32"
        },
        {
          "internalType": "uint8",
          "name": "class",
          "type": "uint8"
        }
      ],
      "name": "computeRoomDiscoveryReward",
      "outputs": [
        {
          "internalType": "uint256",
          "name": "numGold",
          "type": "uint256"
        },
        {
          "internalType": "uint256",
          "name": "numElements",
          "type": "uint256"
        }
      ],
      "stateMutability": "pure",
      "type": "function"
    },
    {
      "inputs": [
        {
          "internalType": "uint256",
          "name": "data",
          "type": "uint256"
        }
      ],
      "name": "decodeCharacterData",
      "outputs": [
        {
          "internalType": "uint16",
          "name": "level",
          "type": "uint16"
        },
        {
          "internalType": "uint16",
          "name": "hp",
          "type": "uint16"
        },
        {
          "internalType": "uint16",
          "name": "maxHP",
          "type": "uint16"
        },
        {
          "internalType": "uint32",
          "name": "xp",
          "type": "uint32"
        },
        {
          "internalType": "uint8",
          "name": "class",
          "type": "uint8"
        }
      ],
      "stateMutability": "pure",
      "type": "function"
    },
    {
      "inputs": [
        {
          "internalType": "uint256",
          "name": "data",
          "type": "uint256"
        }
      ],
      "name": "decodeGearData",
      "outputs": [
        {
          "internalType": "uint16",
          "name": "level",
          "type": "uint16"
        },
        {
          "internalType": "uint8",
          "name": "slot",
          "type": "uint8"
        },
        {
          "internalType": "uint8",
          "name": "classBits",
          "type": "uint8"
        },
        {
          "internalType": "uint16",
          "name": "durability",
          "type": "uint16"
        },
        {
          "internalType": "uint16",
          "name": "maxDurability",
          "type": "uint16"
        },
        {
          "internalType": "uint32",
          "name": "template",
          "type": "uint32"
        }
      ],
      "stateMutability": "pure",
      "type": "function"
    },
    {
      "inputs": [
        {
          "internalType": "uint256",
          "name": "location",
          "type": "uint256"
        }
      ],
      "name": "discoveryCost",
      "outputs": [
        {
          "internalType": "uint256",
          "name": "fragments",
          "type": "uint256"
        }
      ],
      "stateMutability": "pure",
      "type": "function"
    },
    {
      "inputs": [
        {
          "internalType": "uint16",
          "name": "level",
          "type": "uint16"
        },
        {
          "internalType": "uint8",
          "name": "slot",
          "type": "uint8"
        },
        {
          "internalType": "uint8",
          "name": "classBits",
          "type": "uint8"
        },
        {
          "internalType": "uint16",
          "name": "durability",
          "type": "uint16"
        },
        {
          "internalType": "uint16",
          "name": "maxDurability",
          "type": "uint16"
        },
        {
          "internalType": "uint32",
          "name": "template",
          "type": "uint32"
        }
      ],
      "name": "encodeGearData",
      "outputs": [
        {
          "internalType": "uint256",
          "name": "data",
          "type": "uint256"
        }
      ],
      "stateMutability": "pure",
      "type": "function"
    },
    {
      "inputs": [
        {
          "internalType": "uint256",
          "name": "areaLoc",
          "type": "uint256"
        },
        {
          "internalType": "bytes32",
          "name": "blockHash",
          "type": "bytes32"
        },
        {
          "internalType": "uint64",
          "name": "numElementalAreaInPeriod",
          "type": "uint64"
        }
      ],
      "name": "generateArea",
      "outputs": [
        {
          "internalType": "uint8",
          "name": "areaType",
          "type": "uint8"
        }
      ],
      "stateMutability": "pure",
      "type": "function"
    },
    {
      "inputs": [
        {
          "internalType": "uint256",
          "name": "location",
          "type": "uint256"
        },
        {
          "internalType": "bytes32",
          "name": "blockHash",
          "type": "bytes32"
        },
        {
          "internalType": "uint8",
          "name": "direction",
          "type": "uint8"
        }
      ],
      "name": "generateExits",
      "outputs": [
        {
          "internalType": "uint8",
          "name": "",
          "type": "uint8"
        }
      ],
      "stateMutability": "pure",
      "type": "function"
    },
    {
      "inputs": [
        {
          "internalType": "uint256",
          "name": "location",
          "type": "uint256"
        },
        {
          "internalType": "bytes32",
          "name": "blockHash",
          "type": "bytes32"
        },
        {
          "internalType": "uint256",
          "name": "numMonsters",
          "type": "uint256"
        },
        {
          "internalType": "bool",
          "name": "newlyDiscoveredRoom",
          "type": "bool"
        },
        {
          "internalType": "uint8",
          "name": "roomKind",
          "type": "uint8"
        }
      ],
      "name": "generateMonsterIndex",
      "outputs": [
        {
          "internalType": "uint256",
          "name": "",
          "type": "uint256"
        }
      ],
      "stateMutability": "pure",
      "type": "function"
    },
    {
      "inputs": [
        {
          "internalType": "uint256",
          "name": "areaLoc",
          "type": "uint256"
        },
        {
          "internalType": "bytes32",
          "name": "blockHash",
          "type": "bytes32"
        }
      ],
      "name": "generateRandomEvent",
      "outputs": [
        {
          "internalType": "uint256",
          "name": "roomLocation",
          "type": "uint256"
        },
        {
          "internalType": "uint64",
          "name": "randomEvent",
          "type": "uint64"
        }
      ],
      "stateMutability": "pure",
      "type": "function"
    },
    {
      "inputs": [
        {
          "internalType": "uint256",
          "name": "location",
          "type": "uint256"
        },
        {
          "internalType": "bytes32",
          "name": "blockHash",
          "type": "bytes32"
        },
        {
          "internalType": "uint8",
          "name": "direction",
          "type": "uint8"
        },
        {
          "internalType": "uint8",
          "name": "areaAtDiscovery",
          "type": "uint8"
        },
        {
          "internalType": "uint8",
          "name": "lastIndex",
          "type": "uint8"
        },
        {
          "internalType": "uint8",
          "name": "index",
          "type": "uint8"
        }
      ],
      "name": "generateRoom",
      "outputs": [
        {
          "internalType": "uint8",
          "name": "exits",
          "type": "uint8"
        },
        {
          "internalType": "uint8",
          "name": "kind",
          "type": "uint8"
        },
        {
          "internalType": "uint8",
          "name": "area_discovered",
          "type": "uint8"
        }
      ],
      "stateMutability": "pure",
      "type": "function"
    },
    {
      "inputs": [
        {
          "internalType": "uint256",
          "name": "location",
          "type": "uint256"
        }
      ],
      "name": "getAreaLoc",
      "outputs": [
        {
          "internalType": "uint256",
          "name": "",
          "type": "uint256"
        }
      ],
      "stateMutability": "pure",
      "type": "function"
    },
    {
      "inputs": [
        {
          "internalType": "uint256",
          "name": "p1",
          "type": "uint256"
        },
        {
          "internalType": "uint256",
          "name": "p2",
          "type": "uint256"
        }
      ],
      "name": "getRing",
      "outputs": [
        {
          "internalType": "uint256",
          "name": "",
          "type": "uint256"
        }
      ],
      "stateMutability": "pure",
      "type": "function"
    },
    {
      "inputs": [
        {
          "internalType": "uint16",
          "name": "hp",
          "type": "uint16"
        }
      ],
      "name": "hpCost",
      "outputs": [
        {
          "internalType": "uint256",
          "name": "",
          "type": "uint256"
        }
      ],
      "stateMutability": "pure",
      "type": "function"
    },
    {
      "inputs": [
        {
          "internalType": "uint256[]",
          "name": "gearData",
          "type": "uint256[]"
        }
      ],
      "name": "recyclingReward",
      "outputs": [
        {
          "internalType": "uint256",
          "name": "",
          "type": "uint256"
        }
      ],
      "stateMutability": "pure",
      "type": "function"
    },
    {
      "inputs": [
        {
          "internalType": "uint256",
          "name": "rooms",
          "type": "uint256"
        },
        {
          "internalType": "uint256",
          "name": "periods",
          "type": "uint256"
        }
      ],
      "name": "roomsTax",
      "outputs": [
        {
          "internalType": "uint256",
          "name": "",
          "type": "uint256"
        }
      ],
      "stateMutability": "pure",
      "type": "function"
    },
    {
      "inputs": [
        {
          "internalType": "uint256",
          "name": "p1",
          "type": "uint256"
        },
        {
          "internalType": "uint256",
          "name": "p2",
          "type": "uint256"
        }
      ],
      "name": "teleportTax",
      "outputs": [
        {
          "internalType": "uint256",
          "name": "",
          "type": "uint256"
        }
      ],
      "stateMutability": "pure",
      "type": "function"
    },
    {
      "inputs": [
        {
          "internalType": "uint256",
          "name": "location",
          "type": "uint256"
        }
      ],
      "name": "toCoordinates",
      "outputs": [
        {
          "internalType": "int64",
          "name": "x",
          "type": "int64"
        },
        {
          "internalType": "int64",
          "name": "y",
          "type": "int64"
        },
        {
          "internalType": "int64",
          "name": "z",
          "type": "int64"
        },
        {
          "internalType": "uint64",
          "name": "a",
          "type": "uint64"
        }
      ],
      "stateMutability": "pure",
      "type": "function"
    },
    {
      "inputs": [
        {
          "internalType": "uint8",
          "name": "level",
          "type": "uint8"
        }
      ],
      "name": "toLevelUp",
      "outputs": [
        {
          "internalType": "uint16",
          "name": "xpRequired",
          "type": "uint16"
        },
        {
          "internalType": "uint256",
          "name": "coinsRequired",
          "type": "uint256"
        },
        {
          "internalType": "uint8",
          "name": "hpIncrease",
          "type": "uint8"
        }
      ],
      "stateMutability": "pure",
      "type": "function"
    },
    {
      "inputs": [
        {
          "internalType": "int64",
          "name": "x",
          "type": "int64"
        },
        {
          "internalType": "int64",
          "name": "y",
          "type": "int64"
        },
        {
          "internalType": "int64",
          "name": "z",
          "type": "int64"
        }
      ],
      "name": "toLocation",
      "outputs": [
        {
          "internalType": "uint256",
          "name": "",
          "type": "uint256"
        }
      ],
      "stateMutability": "pure",
      "type": "function"
    }
  ],
  "transactionHash": "0x6228858bc3323d639e6b2afd212c27141fb6126136a887c5f63a4b37a3b7b8c4",
  "args": [],
  "numDeployments": 1,
  "solcInputHash": "3705cadeb86e4cfd473ba34c32cdc277",
  "bytecode": "0x60808060405234610016576119f4908161001c8239f35b600080fdfe608060408181526004918236101561001657600080fd5b600090813560e01c9081630ececfea14610e3457508063213ee14314610a235780632f58779614610a0457806330ad9329146109ba5780633683dee114610893578063467b47931461075557806356b5c381146106f25780637a923474146106c95780639f7cb08e14610649578063a48378ff1461062a578063acda69ca14610556578063b0ca9dfe1461053a578063c3aab23c146103f9578063d5763a80146103ad578063d667fd0414610356578063ed53a62414610318578063f090aca8146102fc578063f6940ac714610152578063fcaf8951146101285763ff5335fa1461010057600080fd5b34610125576020366003190112610125575061011e6020923561197a565b9051908152f35b80fd5b50903461014e5760209060ff61014661014036610f23565b9161153a565b915191168152f35b5080fd5b50346101255760031960603682011261014e578335906044359067ffffffffffffffff918281168091036102f85761018984611015565b505060001960079290920b828112159392846102e9575b50836102dd575b50826102cc575b5081156102c0575b50156101d157505050506020915060ff6006915b5191168152f35b6009826101dd85611253565b16029182169182036102ad57819082610286575b50601911905061027657606460ff6127108551602081019085825260243588820152600360fa1b60608201526041815261022a81611051565b5190200616116102765761023f600591611015565b5091505060070b0760ff166001019260ff841161026357505060ff602092916101ca565b634e487b7160e01b825260119052602490fd5b50506020915060ff6006916101ca565b9050810190811161029a57601990386101f1565b634e487b7160e01b835260118552602483fd5b634e487b7160e01b845260118652602484fd5b600a91501015386101b6565b600191925060070b131590386101ae565b600112159250386101a7565b600783900b12159350386101a0565b8480fd5b50903461014e5760209061011e61031236610f47565b9061194a565b50346101255760a036600319011261012557606435908115158203610125575060209261011e91610347610f13565b916044359060243590356110c5565b5091346103a95760203660031901126103a95760a092503581519161ffff808360e81c168452808360a81c1660208501528260b81c169083015263ffffffff8160c81c16606083015260f81c6080820152f35b8280fd5b5091346103a95760603660031901126103a957358060070b81036103a957602435908160070b82036103f557604435938460070b850361012557509261011e91602094610f91565b8380fd5b50903461014e57602036600319011261014e5782359160ff83169283810361014e578251610160810181811067ffffffffffffffff821117610527578452828152600a60208201526031848201526077606082015260d0608082015261014860a082015261020c60c082015261033a60e08201526104f5610100820152610e46610120820152611aee610140820152600b8510156105145790611fe0929161ffff93849260051b1601511693600881116000146104cd5750505060609250600a906101ec5b81519384526020840152820152f35b826005816104e6816104e0600896611937565b16611482565b1604160190828211610501575060609450600a9291166104be565b634e487b7160e01b815260118652602490fd5b634e487b7160e01b835260328652602483fd5b634e487b7160e01b845260418752602484fd5b50903461014e5760209061011e61055036610f47565b9061140b565b50903461014e5760c036600319011261014e57610571610f5d565b60243560ff811681036103f557610586610efe565b906064359161ffff9384841684036106265760843594851685036106265760a4359663ffffffff88168098036101255750602096936105fb610621946105e961011e989561060e9561ffff60e81b9060e81b169060ff60f81b9060f81b16610f6e565b60e09190911b60ff60e01b1690610f6e565b60d09190911b61ffff60d01b1690610f6e565b60c09190911b61ffff60c01b1690610f6e565b610f6e565b8680fd5b5034610125576020366003190112610125575061011e60209235611457565b5034610125576020366003190112610125575063ffffffff61069560c09335908160f81c61ffff808460e81c169360ff8160e01c169363ffffffff838360d01c16938360c01c16921690565b949190929660ff8151988161ffff97888097168c521660208b015216908801521660608601521660808401521660a0820152f35b50903461014e57602036600319011261014e5760209061ffff6106ea610f5d565b169051908152f35b509190346103a957600a919261070736610f47565b939004600101806001116107425783810293818504149015171561072f576020838351908152f35b634e487b7160e01b815260118452602490fd5b634e487b7160e01b825260118552602482fd5b50903461014e57602036600319011261014e5782359167ffffffffffffffff908184116101255736602385011215610125578385013591821161012557602494600594368785881b830101116103a95794929190819582945b8486106107bf576020888851908152f35b9091929394966107fd8989841b85010135908160f81c61ffff808460e81c169360ff8160e01c169363ffffffff838360d01c16938360c01c16921690565b509360019350617fff925061081590841c8316611937565b9061ffff80808416961691161461085c575b50505061083391610f6e565b96600019811461084a5760010194939291906107ae565b634e487b7160e01b8552601184528885fd5b8293921c16820180921161088157610833929161087891610f6e565b90913880610827565b634e487b7160e01b8752601186528a87fd5b5034610125576108a236610f23565b9091925060196108b18461136a565b0480156109b2575b6108f76108ee8287516020810190888252878a820152601960fa1b6060820152604181526108e681611051565b5190206110a5565b8260011c610f6e565b9182156109a9575b60ff169384600214610991575b61094e929360088311610988575b6109459183918851906020820192835289820152606560f81b6060820152604181526108e681611051565b9060011c610f6e565b91821561097f575b60011461096a575b82519182526020820152f35b90806109799160021c90610f6e565b9061095e565b60019250610956565b6008925061091a565b6109a28361094e9460021c90610f6e565b925061090c565b600192506108ff565b5060016108b9565b5034610125576020366003190112610125575067ffffffffffffffff6109e260809335611015565b92949182519560070b865260070b602086015260070b90840152166060820152f35b5034610125576020366003190112610125575061011e602092356111cb565b50903461014e5760c036600319011261014e57823592602492833593610a47610efe565b916064359360ff9485811681036103a957610a60610f13565b9060a435958787168097036102f857610a7a908a8c61153a565b9884610a90610a888d6111cb565b94939c611015565b50509060070b159081610e28575b5015610acc57505050505050505060609381600160029217915b818551961686521660208501521690820152f35b9a939699909294979598915b8681169b8b8d11610e12575082516020810187815260f89290921b6001600160f81b031916818501526041808201869052600360f81b606183015260428252608082019067ffffffffffffffff821183831017610e02575084525190206001908c90868316831415906014900689168180610df0575b15610b7f5750505080600295179b5b878114610b6d5701939a93610ad8565b634e487b7160e01b8a52601189528a8afd5b600292888416841415928380610dc4575b15610ba35750505050600395179b610b5d565b8c808b969394959616141580928193610d51575b5015610bcc575050505050878095179b610b5d565b60089485808c1614159485610bfc575b5050505050600014610bf257600595179b610b5d565b50939a8490610b5d565b600391929394955014938415610d46575b8415610d2d575b8415610d14575b8415610cfb575b8415610cd5575b8415610caf575b8415610c89575b8415610c4c575b505050508d38808080610bdc565b604d149350909183610c81575b5082610c79575b5081610c71575b5038808f80610c3e565b905038610c67565b915038610c60565b925038610c59565b9350604e841480610ca8575b80610ca1575b93610c37565b5080610c9b565b5082610c95565b9350604e841480610cce575b80610cc7575b93610c30565b5082610cc1565b5081610cbb565b9350604e841480610cf4575b80610ced575b93610c29565b5080610ce7565b5081610ce1565b9350604f841480610d0d575b93610c22565b5082610d07565b9350604f841480610d26575b93610c1b565b5080610d20565b9350604f841480610d3f575b93610c14565b5081610d39565b605081149450610c0d565b905084148015610dba575b8015610da8575b8015610d96575b8015610d77575b38610bb7565b50604e831480610d8f575b8015610d71575084610d71565b5080610d82565b50604f83148015610d6a575084610d6a565b50604f83148015610d63575080610d63565b5060508314610d5c565b508583148015610de6575b80610b905750604f82148015610b90575080610b90565b5060508214610dcf565b50801580610b4e575060508314610b4e565b634e487b7160e01b8c528a528b8bfd5b9550509850965050925060609650819350610ab8565b905060070b1538610a9e565b918491503461012557836003193601126101255750610ed5610eea610ef093610eda610ed5610ee4610eda963593610eca60ff60098c82826024359660208101908c82528885820152603360f91b606082015260418152610e9481611051565b51902006169481519060208201928b8452820152606760f81b606082015260418152610ebf81611051565b519020061695611015565b5099919890986119a9565b6112cb565b9060070b906111a3565b946119a9565b90610f91565b815190815260026020820152f35b6044359060ff82168203610f0e57565b600080fd5b6084359060ff82168203610f0e57565b6060906003190112610f0e57600435906024359060443560ff81168103610f0e5790565b6040906003190112610f0e576004359060243590565b6004359061ffff82168203610f0e57565b91908201809211610f7b57565b634e487b7160e01b600052601160045260246000fd5b909167ffffffffffffffff9067ffffffffffffffff60801b608082901b16908216808204600160801b1490151715610f7b57600160ff1b908101908110610f7b576fffffffffffffffff00000000000000008285169460401b1693808504600160401b1490151715610f7b576110129361100a91610f6e565b911690610f6e565b90565b67ffffffffffffffff9081811660070b92828260401c1660070b928260801c1660070b9160ff1c90565b60ff60019116019060ff8211610f7b57565b6080810190811067ffffffffffffffff82111761106d57604052565b634e487b7160e01b600052604160045260246000fd5b90601f8019910116810190811067ffffffffffffffff82111761106d57604052565b81156110af570690565b634e487b7160e01b600052601260045260246000fd5b9192909360ff600191160361115c57600f90611154575b60ff60646040516020810190858252876040820152600360f91b60608201526041815261110881611051565b5190200691161161111b57505050600090565b6111469260405190602082019283526040820152600760f81b6060820152604181526108e681611051565b60018101809111610f7b5790565b5060196110dc565b50505050600090565b60070b677fffffffffffffff198114610f7b5760000390565b60070b60040190677fffffffffffffff8213677fffffffffffffff19831217610f7b57565b9060070b9060070b0190677fffffffffffffff198212677fffffffffffffff831317610f7b57565b6111d761101291611015565b509160079190600081840b12611234576111f260099161117e565b830b05915b600082820b126112155761120c60099261117e565b900b0590610f91565b60099061122c611227610eea94611165565b61117e565b900b05611165565b600961124561122761124d93611165565b840b05611165565b916111f7565b61125c90611015565b50819050826000600782900b126112b9575b5060008160070b126112a9575b508060070b8260070b1360001461129a575067ffffffffffffffff1690565b905067ffffffffffffffff1690565b6112b39150611165565b3861127b565b6112c4919350611165565b913861126e565b60070b6003190190677fffffffffffffff198212677fffffffffffffff831317610f7b57565b60070b90677fffffffffffffff198212677fffffffffffffff831317610f7b57565b600791820b910b0390677fffffffffffffff198212677fffffffffffffff831317610f7b57565b600160ff1b8114610f7b5760000390565b90600160401b60008382039312818412811691841390151617610f7b57565b61137661137f91611015565b505091906112f1565b60070b90600082126113f6575b611395906112f1565b60070b600081126113e8575b6780000000000000008083136113d8575b81136113ca575b808213156113c5575090565b905090565b6113d39061134b565b6113b9565b916113e29061134b565b916113b2565b6113f19061133a565b6113a1565b906114036113959161133a565b91905061138c565b9061142d61141b61142593611015565b5050939092611015565b505092611313565b60070b9060008212611444575b6113959192611313565b6114506113959261133a565b915061143a565b600160ff1b81036114685750600090565b61147360199161136a565b0460010180600111610f7b5790565b801561151157808060011461150a57600214611504576001908161013382101682600b831016176114f357906003815b8082116114ca5750508161ffff048111610f7b570290565b90928061ffff048111610f7b578184166114ea575b800292811c906114b2565b809202916114df565b600391500a9061ffff8211610f7b57565b50600890565b5050600190565b50600090565b80156115345760ff8111610f7b576001901b9060ff8211610f7b57565b50600190565b909160ff916004916000908416838103611738575050600f935b8360646040516020810190858252846040820152606f60f81b60608201526041815261157f81611051565b5190200616600090603c811060001461171c5750508360005b168381106115ab57505050505060f01790565b8491906003810361163c5750604080516020810194855290810191909152600760fc1b60608201526007926115fe91600391906115f581606181015b03601f198101835282611083565b5190201661103f565b160291821691820361162757506015810361161a575060d01790565b601c036110125760b01790565b601190634e487b7160e01b6000525260246000fd5b909150600281036116b257506116898460066003946115e761167f8496604051928391602083019586909160419282526020820152600760fc1b60408201520190565b519020061661103f565b16029182169182036116275750600f81036116a5575060501790565b6012036110125760a01790565b6001919293959450146116c7575b5050905090565b604080516020810193845290810191909152600760fc1b6060820152611700916003916116f781606181016115e7565b51902016611517565b821b91610ff060f08416931683036116275750178038806116c0565b605a91501060001461173057836001611598565b836002611598565b6040959195856064825160208101908782528685820152600160f81b60608201526041815261176681611051565b5190200616605711611926575b856064825160208101908782528685820152600160f91b60608201526041815261179c81611051565b51902006166028116117b0575b5050611554565b85818487939995995183606460208301836117e1868d84909160419282526020820152600360f81b60408201520190565b03936117f5601f1995868101835282611083565b5190200616601911156118565750505050508015801561184c575b156118225750600a17935b38806117a9565b80600196929614908115611841575b501561181b57936005179361181b565b905060031438611831565b5080600214611810565b9151602081018881526040820192909252600360f81b6060820152606192830181526064926118859082611083565b5190200616603211156118da5750806118a257506008179361181b565b600181036118b55750600117935b61181b565b600281036118c757506002179361181b565b6003959195036118b0579382179361181b565b9190806118ed575060029150179361181b565b600181036118fd5750179361181b565b9091506002810361191257506008179361181b565b6003959195036118b057936001179361181b565b955061193181611517565b95611773565b9061ffff809216600101918211610f7b57565b906119549161140b565b6001600160ff1b0381168103610f7b5760059060011b0480156000146110125750600190565b6119839061136a565b6001600160ff1b0381168103610f7b5760069060011b0480156000146110125750600190565b60099060070b02908160070b918203610f7b5756fea26469706673582212203c4c43883a7319f368409400962e63e23b1d5d86c7925e44e3f62a0da6e003f964736f6c63430008140033",
  "libraries": {
    "PureDungeon": "0x4f91af7F7E68201e1f0c44D7aB02dE48D94cbF75"
  },
  "devdoc": {
    "kind": "dev",
    "methods": {},
    "version": 1
  },
  "userdoc": {
    "kind": "user",
    "methods": {},
    "version": 1
  },
  "storageLayout": {
    "storage": [],
    "types": null
  }
}