{
  "address": "0xB733885997344F9D9ABC8e2DBf9FFAb5D0cc0310",
  "abi": [
    {
      "inputs": [
        {
          "internalType": "uint256",
          "name": "location",
          "type": "uint256"
        }
      ],
      "name": "carrierCost",
      "outputs": [
        {
          "internalType": "uint256",
          "name": "",
          "type": "uint256"
        }
      ],
      "stateMutability": "pure",
      "type": "function"
    },
    {
      "inputs": [
        {
          "internalType": "uint256",
          "name": "location",
          "type": "uint256"
        },
        {
          "internalType": "bytes32",
          "name": "blockHash",
          "type": "bytes32"
        },
        {
          "internalType": "uint8",
          "name": "class",
          "type": "uint8"
        }
      ],
      "name": "computeRoomDiscoveryReward",
      "outputs": [
        {
          "internalType": "uint256",
          "name": "numGold",
          "type": "uint256"
        },
        {
          "internalType": "uint256",
          "name": "numElements",
          "type": "uint256"
        }
      ],
      "stateMutability": "pure",
      "type": "function"
    },
    {
      "inputs": [
        {
          "internalType": "uint256",
          "name": "data",
          "type": "uint256"
        }
      ],
      "name": "decodeCharacterData",
      "outputs": [
        {
          "internalType": "uint16",
          "name": "level",
          "type": "uint16"
        },
        {
          "internalType": "uint16",
          "name": "hp",
          "type": "uint16"
        },
        {
          "internalType": "uint16",
          "name": "maxHP",
          "type": "uint16"
        },
        {
          "internalType": "uint32",
          "name": "xp",
          "type": "uint32"
        },
        {
          "internalType": "uint8",
          "name": "class",
          "type": "uint8"
        }
      ],
      "stateMutability": "pure",
      "type": "function"
    },
    {
      "inputs": [
        {
          "internalType": "uint256",
          "name": "data",
          "type": "uint256"
        }
      ],
      "name": "decodeGearData",
      "outputs": [
        {
          "internalType": "uint16",
          "name": "level",
          "type": "uint16"
        },
        {
          "internalType": "uint8",
          "name": "slot",
          "type": "uint8"
        },
        {
          "internalType": "uint8",
          "name": "classBits",
          "type": "uint8"
        },
        {
          "internalType": "uint16",
          "name": "durability",
          "type": "uint16"
        },
        {
          "internalType": "uint16",
          "name": "maxDurability",
          "type": "uint16"
        },
        {
          "internalType": "uint32",
          "name": "template",
          "type": "uint32"
        }
      ],
      "stateMutability": "pure",
      "type": "function"
    },
    {
      "inputs": [
        {
          "internalType": "uint256",
          "name": "location",
          "type": "uint256"
        }
      ],
      "name": "discoveryCost",
      "outputs": [
        {
          "internalType": "uint256",
          "name": "fragments",
          "type": "uint256"
        }
      ],
      "stateMutability": "pure",
      "type": "function"
    },
    {
      "inputs": [
        {
          "internalType": "uint16",
          "name": "level",
          "type": "uint16"
        },
        {
          "internalType": "uint8",
          "name": "slot",
          "type": "uint8"
        },
        {
          "internalType": "uint8",
          "name": "classBits",
          "type": "uint8"
        },
        {
          "internalType": "uint16",
          "name": "durability",
          "type": "uint16"
        },
        {
          "internalType": "uint16",
          "name": "maxDurability",
          "type": "uint16"
        },
        {
          "internalType": "uint32",
          "name": "template",
          "type": "uint32"
        }
      ],
      "name": "encodeGearData",
      "outputs": [
        {
          "internalType": "uint256",
          "name": "data",
          "type": "uint256"
        }
      ],
      "stateMutability": "pure",
      "type": "function"
    },
    {
      "inputs": [
        {
          "internalType": "uint256",
          "name": "areaLoc",
          "type": "uint256"
        },
        {
          "internalType": "bytes32",
          "name": "blockHash",
          "type": "bytes32"
        },
        {
          "internalType": "uint64",
          "name": "numElementalAreaInPeriod",
          "type": "uint64"
        }
      ],
      "name": "generateArea",
      "outputs": [
        {
          "internalType": "uint8",
          "name": "areaType",
          "type": "uint8"
        }
      ],
      "stateMutability": "pure",
      "type": "function"
    },
    {
      "inputs": [
        {
          "internalType": "uint256",
          "name": "location",
          "type": "uint256"
        },
        {
          "internalType": "bytes32",
          "name": "blockHash",
          "type": "bytes32"
        },
        {
          "internalType": "uint8",
          "name": "direction",
          "type": "uint8"
        }
      ],
      "name": "generateExits",
      "outputs": [
        {
          "internalType": "uint8",
          "name": "",
          "type": "uint8"
        }
      ],
      "stateMutability": "pure",
      "type": "function"
    },
    {
      "inputs": [
        {
          "internalType": "uint256",
          "name": "location",
          "type": "uint256"
        },
        {
          "internalType": "bytes32",
          "name": "blockHash",
          "type": "bytes32"
        },
        {
          "internalType": "uint256",
          "name": "numMonsters",
          "type": "uint256"
        },
        {
          "internalType": "bool",
          "name": "newlyDiscoveredRoom",
          "type": "bool"
        },
        {
          "internalType": "uint8",
          "name": "roomKind",
          "type": "uint8"
        }
      ],
      "name": "generateMonsterIndex",
      "outputs": [
        {
          "internalType": "uint256",
          "name": "",
          "type": "uint256"
        }
      ],
      "stateMutability": "pure",
      "type": "function"
    },
    {
      "inputs": [
        {
          "internalType": "uint256",
          "name": "areaLoc",
          "type": "uint256"
        },
        {
          "internalType": "bytes32",
          "name": "blockHash",
          "type": "bytes32"
        }
      ],
      "name": "generateRandomEvent",
      "outputs": [
        {
          "internalType": "uint256",
          "name": "roomLocation",
          "type": "uint256"
        },
        {
          "internalType": "uint64",
          "name": "randomEvent",
          "type": "uint64"
        }
      ],
      "stateMutability": "pure",
      "type": "function"
    },
    {
      "inputs": [
        {
          "internalType": "uint256",
          "name": "location",
          "type": "uint256"
        },
        {
          "internalType": "bytes32",
          "name": "blockHash",
          "type": "bytes32"
        },
        {
          "internalType": "uint8",
          "name": "direction",
          "type": "uint8"
        },
        {
          "internalType": "uint8",
          "name": "areaAtDiscovery",
          "type": "uint8"
        },
        {
          "internalType": "uint8",
          "name": "lastIndex",
          "type": "uint8"
        },
        {
          "internalType": "uint8",
          "name": "index",
          "type": "uint8"
        }
      ],
      "name": "generateRoom",
      "outputs": [
        {
          "internalType": "uint8",
          "name": "exits",
          "type": "uint8"
        },
        {
          "internalType": "uint8",
          "name": "kind",
          "type": "uint8"
        },
        {
          "internalType": "uint8",
          "name": "area_discovered",
          "type": "uint8"
        }
      ],
      "stateMutability": "pure",
      "type": "function"
    },
    {
      "inputs": [
        {
          "internalType": "uint256",
          "name": "location",
          "type": "uint256"
        }
      ],
      "name": "getAreaLoc",
      "outputs": [
        {
          "internalType": "uint256",
          "name": "",
          "type": "uint256"
        }
      ],
      "stateMutability": "pure",
      "type": "function"
    },
    {
      "inputs": [
        {
          "internalType": "uint256",
          "name": "p1",
          "type": "uint256"
        },
        {
          "internalType": "uint256",
          "name": "p2",
          "type": "uint256"
        }
      ],
      "name": "getRing",
      "outputs": [
        {
          "internalType": "uint256",
          "name": "",
          "type": "uint256"
        }
      ],
      "stateMutability": "pure",
      "type": "function"
    },
    {
      "inputs": [
        {
          "internalType": "uint16",
          "name": "hp",
          "type": "uint16"
        }
      ],
      "name": "hpCost",
      "outputs": [
        {
          "internalType": "uint256",
          "name": "",
          "type": "uint256"
        }
      ],
      "stateMutability": "pure",
      "type": "function"
    },
    {
      "inputs": [
        {
          "internalType": "uint256[]",
          "name": "gearData",
          "type": "uint256[]"
        }
      ],
      "name": "recyclingReward",
      "outputs": [
        {
          "internalType": "uint256",
          "name": "",
          "type": "uint256"
        }
      ],
      "stateMutability": "pure",
      "type": "function"
    },
    {
      "inputs": [
        {
          "internalType": "uint256",
          "name": "rooms",
          "type": "uint256"
        },
        {
          "internalType": "uint256",
          "name": "periods",
          "type": "uint256"
        }
      ],
      "name": "roomsTax",
      "outputs": [
        {
          "internalType": "uint256",
          "name": "",
          "type": "uint256"
        }
      ],
      "stateMutability": "pure",
      "type": "function"
    },
    {
      "inputs": [
        {
          "internalType": "uint256",
          "name": "p1",
          "type": "uint256"
        },
        {
          "internalType": "uint256",
          "name": "p2",
          "type": "uint256"
        }
      ],
      "name": "teleportTax",
      "outputs": [
        {
          "internalType": "uint256",
          "name": "",
          "type": "uint256"
        }
      ],
      "stateMutability": "pure",
      "type": "function"
    },
    {
      "inputs": [
        {
          "internalType": "uint256",
          "name": "location",
          "type": "uint256"
        }
      ],
      "name": "toCoordinates",
      "outputs": [
        {
          "internalType": "int64",
          "name": "x",
          "type": "int64"
        },
        {
          "internalType": "int64",
          "name": "y",
          "type": "int64"
        },
        {
          "internalType": "int64",
          "name": "z",
          "type": "int64"
        },
        {
          "internalType": "uint64",
          "name": "a",
          "type": "uint64"
        }
      ],
      "stateMutability": "pure",
      "type": "function"
    },
    {
      "inputs": [
        {
          "internalType": "uint8",
          "name": "level",
          "type": "uint8"
        }
      ],
      "name": "toLevelUp",
      "outputs": [
        {
          "internalType": "uint16",
          "name": "xpRequired",
          "type": "uint16"
        },
        {
          "internalType": "uint256",
          "name": "coinsRequired",
          "type": "uint256"
        },
        {
          "internalType": "uint8",
          "name": "hpIncrease",
          "type": "uint8"
        }
      ],
      "stateMutability": "pure",
      "type": "function"
    },
    {
      "inputs": [
        {
          "internalType": "int64",
          "name": "x",
          "type": "int64"
        },
        {
          "internalType": "int64",
          "name": "y",
          "type": "int64"
        },
        {
          "internalType": "int64",
          "name": "z",
          "type": "int64"
        }
      ],
      "name": "toLocation",
      "outputs": [
        {
          "internalType": "uint256",
          "name": "",
          "type": "uint256"
        }
      ],
      "stateMutability": "pure",
      "type": "function"
    }
  ],
  "transactionHash": "0x62fef59a08df6d759e9d870ffbe439a6fb4917eddd6511b9c6b958b7323c1e76",
  "args": [],
  "numDeployments": 2,
  "solcInputHash": "dd8ef9e4cb12f6b7c300326f49f4b58b",
  "bytecode": "0x60806040523461001a576040516128cc61002082396128cc90f35b600080fdfe6080604052600436101561001257600080fd5b60003560e01c80630ececfea14610152578063213ee1431461014d5780632f5877961461014857806330ad9329146101435780633683dee11461013e578063467b47931461013957806356b5c381146101345780637a9234741461012f5780639f7cb08e1461012a578063a48378ff14610125578063acda69ca14610120578063b0ca9dfe1461011b578063c3aab23c14610116578063d5763a8014610111578063d667fd041461010c578063ed53a62414610107578063f090aca814610102578063f6940ac7146100fd578063fcaf8951146100f85763ff5335fa0361015757610887565b61086b565b61083b565b6107d9565b6107ba565b610728565b6106bf565b61064e565b6105fc565b6105da565b61054c565b610518565b610499565b610452565b610436565b6103af565b61033b565b6102d8565b610293565b6101cb565b600080fd5b805b0361015757565b905035906101728261015c565b565b9190604083820312610157576101979061018e8185610165565b93602001610165565b90565b9052565b6001600160401b031690565b61019a9061019e565b908152604081019291610172916020905b01906101aa565b34610157576101e46101de366004610174565b90612758565b906101fa6101f160405190565b928392836101b3565b0390f35b60ff811661015e565b90503590610172826101fe565b909160c0828403126101575761022a8383610165565b926102388160208501610165565b926102468260408301610207565b926101976102578460608501610207565b936102658160808601610207565b9360a001610207565b60ff918216815291166020820152606081019291610172916040905b019060ff169052565b34610157576101fa6102b56102a9366004610214565b94939093929192611472565b6040519193919384938461026e565b906020828203126101575761019791610165565b34610157576101fa6102f36102ee3660046102c4565b610c64565b6040519182918290815260200190565b6101c461017294610331606094989795610327608086019a600087019060070b9052565b60070b6020850152565b60070b6040830152565b34610157576101fa6103566103513660046102c4565b610996565b9061036394929460405190565b94859485610303565b9091606082840312610157576101976103858484610165565b936103938160208601610165565b93604001610207565b9081526040810192916101729160200152565b34610157576103c86103c236600461036c565b916110f9565b906101fa6103d560405190565b9283928361039c565b909182601f83011215610157578135916001600160401b03831161015757602001926020830284011161015757565b906020828203126101575781356001600160401b0381116101575761043292016103de565b9091565b34610157576101fa6102f361044c36600461040d565b906126a2565b34610157576101fa6102f3610468366004610174565b9061286f565b61ffff811661015e565b905035906101728261046e565b906020828203126101575761019791610478565b34610157576101fa6102f36104af366004610485565b61263d565b919461050161050c929897956104f660a0966104ec6101729a6104e260c08a019e60008b019061ffff169052565b60ff166020890152565b60ff166040870152565b61ffff166060850152565b61ffff166080830152565b019063ffffffff169052565b34610157576101fa61053361052e3660046102c4565b6122c1565b9261054396949692919260405190565b968796876104b4565b34610157576101fa6102f36105623660046102c4565b611415565b63ffffffff811661015e565b9050359061017282610567565b909160c082840312610157576105968383610478565b926105a48160208501610207565b926105b28260408301610207565b926101976105c38460608501610478565b936105d18160808601610478565b9360a001610573565b34610157576101fa6102f36105f0366004610580565b949390939291926121ed565b34610157576101fa6102f3610612366004610174565b9061274e565b906020828203126101575761019791610207565b61ffff909116815260608101939261017292909160409161028a906020830152565b34610157576101fa610669610664366004610618565b612379565b6040519193919384938461062c565b61015e8160070b90565b9050359061017282610678565b9091606082840312610157576101976106a88484610682565b936106b68160208601610682565b93604001610682565b34610157576101fa6102f36106d536600461068f565b916108a2565b909594926101729461071b61028a9261071060809661070560a088019c600089019061ffff169052565b61ffff166020870152565b61ffff166040850152565b63ffffffff166060830152565b34610157576101fa61074361073e3660046102c4565b612100565b9161075095939560405190565b958695866106db565b80151561015e565b9050359061017282610759565b919060a083820312610157576107848184610165565b926107928260208301610165565b926101976107a38460408501610165565b936107b18160608601610761565b93608001610207565b34610157576101fa6102f36107d036600461076e565b93929092610a66565b34610157576101fa6102f36107ef366004610174565b906125ef565b61015e8161019e565b90503590610172826107f5565b9091606082840312610157576101976108248484610165565b936108328160208601610165565b936040016107fe565b34610157576101fa61085761085136600461080b565b91610db0565b6040519182918260ff909116815260200190565b34610157576101fa61085761088136600461036c565b916120f5565b34610157576101fa6102f361089d3660046102c4565b61264a565b610197929190610919565b6108bd6101976101979260070b90565b61019e565b6101976101976101979261019e565b6101976101976101979290565b634e487b7160e01b600052601160045260246000fd5b8181029291811591840414171561090757565b6108de565b9190820180921161090757565b9061095461099061098a9261098a61097d6109546109776101979961093c600090565b5061097261096c610959610954600160ff1b946108ad565b6108c2565b610966600160801b6108d1565b906108f4565b916108d1565b61090c565b936108ad565b610966600160401b6108d1565b9061090c565b926108ad565b6109a39060005b506109fd565b929391929091565b6108bd6101976101979290565b6109c76101976101979261019e565b60070b90565b634e487b7160e01b600052601260045260246000fd5b906109ed565b9190565b9081156109f8570490565b6109cd565b90610a0f610a0a836109ab565b6109b8565b91610a31610a0a610a2c610a26600160401b6108d1565b846109e3565b6109ab565b91610197610a2c610a52610a0a82610a4c600160801b6108d1565b876109e3565b93610a60600160ff1b6108d1565b906109e3565b6101979493929190610b4a565b610a806101976101979290565b60ff1690565b6101976001610a73565b610197600f610a73565b610aa99060ff165b9160ff1690565b019060ff821161090757565b61019a9060ff1660f81b90565b60019392610adf602083610ad98295610ae7979052565b01918252565b018092610ab5565b0190565b634e487b7160e01b600052604160045260246000fd5b90601f01601f191681019081106001600160401b03821117610b2257604052565b610aeb565b610197906108d1565b81156109f8570690565b6101976101976101979260ff1690565b929093610b55600090565b50610b64610aa2610a80610a86565b03610c5657610b71610a90565b8091610c3b575b50610be76109e9610be1610bd1610b8f6006610a73565b610bb9610b9b60405190565b8092610bad60208301918d8d84610ac2565b90810382520382610b01565b610bcb610bc4825190565b9160200190565b20610b27565b610bdb60646108d1565b90610b30565b92610b3a565b10610bf95750505061019760006108d1565b610c2c610c3192610bb961019795610c116007610a73565b92610bad610c1e60405190565b948593602085019384610ac2565b610b30565b61098a60016108d1565b610c509150610c4a600a610a73565b90610a9a565b38610b78565b5050505061019760006108d1565b61019790610ceb565b6109c76101976101979290565b60070b60016001603f1b031981146109075760000390565b610ca19060070b5b9160070b90565b019060016001603f1b03821360016001603f1b031983121761090757565b610ccb9060070b610c9a565b9081156109f85760016001603f1b03198114600019831416610907570590565b610d5161019791610d03610cfd600090565b916109fd565b50939091600090610d1382610c6d565b610d1d8260070b90565b12610d9857610d39610d4991610d336004610c6d565b90610c92565b610d436009610c6d565b90610cbf565b935b50610c6d565b610d5b8260070b90565b12610d7757610d39610d7191610d336004610c6d565b90610919565b610d93610d39610d89610d7193610c7a565b610d336004610c6d565b610c7a565b610d93610d39610d89610daa93610c7a565b93610d4b565b610197929190610e7d565b610197600a610a73565b6108bd6101976101979260ff1690565b610de1610de79161019e565b9161019e565b0290610df28261019e565b91820361090757565b9190820391821161090757565b6101976019610a73565b610e1f6101976101979290565b61ffff1690565b6101976064610e12565b610e1f6101976101979260ff1690565b610e4c9060070b610c9a565b9081156109f8570790565b610e676101976101979260070b90565b60000b90565b610a806101976101979260000b90565b91610e8783611070565b908115610fb9575b5015610ea15750506101976006610a73565b610ec0610954610eb084610fd6565b610eba60096109ab565b90610dd5565b610eca60006108d1565b8111610fa0575b610ee46109e9610edf610e08565b610b3a565b10610f9457610f27610f1c610bad610bb9610f2c94610f03600c610a73565b90610f0d60405190565b93849260208401928a84610ac2565b610bdb6127106108d1565b610a73565b610f40610f3a610e1f610e26565b91610e30565b11610f8957610f51610197916109fd565b50915050610f84610f7e610f79610f74600194610f6e6005610c6d565b90610e40565b610e57565b610e6d565b91610a73565b610a9a565b506101976006610a73565b50506101976006610a73565b610fb490610fae60046108d1565b90610dfb565b610ed1565b9050610fce610de1610fc9610dbb565b610dc5565b101538610e8f565b610fe190600061099d565b50819050600083610ff182610c6d565b610ffb8260070b90565b1261105a575b5061100b90610c6d565b6110158260070b90565b1261104a575b506110268160070b90565b6110308360070b90565b13156110405750610197906108ad565b61019791506108ad565b6110549150610c7a565b3861101b565b61100b91945061106990610c7a565b9390611001565b61107b90600061099d565b50506000199161108a83610c6d565b6110948260070b90565b121592836110db575b50826110c2575b50816110ae575090565b90506110bd610c9a6001610c6d565b131590565b9091506110d2610c9a6001610c6d565b131590386110a4565b6110e6919350610c6d565b6110f08260070b90565b1215913861109d565b610432929190611118565b6101976002610a73565b6101976004610a73565b9092909161112660006108d1565b9361113f6111348686611317565b610a60610edf610e08565b85811461129f575b60029061118f61115f611159846108d1565b836109e3565b61098a83610c2c610bad610bb96111766064610a73565b8d61118060405190565b9384928d602085019384610ac2565b9587871461128d575b6111a0611104565b6111ac60ff8716610aa2565b14611265575b9161098a916111f3949360086111c7816108d1565b8311611245575b50610bb96111e86111e2610c2c94956108d1565b856109e3565b95610c116065610a73565b938414611233575b611210610aa2611209610a86565b9260ff1690565b1461121757565b916112309061098a61122a610edf61110e565b826109e3565b91565b925061123f60016108d1565b926111fb565b610c2c92506111e86111e261125c610bb9936108d1565b945050506111ce565b959161098a916112816111f3959461098a61122a610edf61110e565b979193945091506111b2565b955061129960016108d1565b95611198565b506112aa60016108d1565b611147565b6112bb9060070b610c9a565b90039060016001603f1b0319821260016001603f1b0383131761090757565b6101976101976101979260070b90565b600160ff1b81146109075760000390565b9190808303926000909112801582851316918412161761090757565b61134361133e61132c6113369361099d600090565b50509390946109fd565b5050946112af565b6112da565b91600091611350836108d1565b84126113f6575b61133e6113679261096c926112af565b81126113e8575b6001603f1b61137c816108d1565b83136113ca575b61138c906108d1565b81136113af575b808213156113a55750610197906108d1565b61019791506108d1565b6113c5906113c0600160401b6108d1565b6112fb565b611393565b9161138c906113e0906113c0600160401b6108d1565b929050611383565b6113f1906112ea565b61136e565b9261133e6113679261140a61096c936112ea565b959250925050611357565b6101979061142b565b610197600160ff1b6108d1565b61143661019761141e565b8103611447575061019760006108d1565b61145e6101979161145860006108d1565b90611317565b61097261096c600192610a60610edf610e08565b611480959493929190611487565b9192909190565b959492906114a3610432959361149b600090565b508289611af3565b966114ce565b6101976005610a73565b6101976003610a73565b60ff1660ff81146109075760010190565b949360006114e66114de88610ceb565b9594976109fd565b5050600093916114f8610c9a86610c6d565b1490816119b0575b501561152357505050505050611514611104565b9161151f6001610a73565b1790565b95909691929394965b60ff87165b60ff8716116119a657506115456003610a73565b611590610f2761158687610bb98a8d610bad8861156160405190565b95869460208601948592610adf6001610ae794610ad9602088610adf859b9a83999052565b610bdb60146108d1565b906115b261159e6001610a73565b85166115ad610aa26001610a73565b141590565b90818061197d575b156115eb575050506115316115e26115d0611104565b936115db6001610a73565b17966114bd565b9592905061152c565b6116076115f86002610a73565b86166115ad610aa26002610a73565b91828061192f575b1561163157505050506115316115e26116266114b3565b936115db6002610a73565b61164d61163e6004610a73565b87166115ad610aa26004610a73565b91828061188c575b156116785750505050506115316115e261166d61110e565b936115db6004610a73565b6116946116856008610a73565b88166115ad610aa26008610a73565b94856116d7575b50505050506000146116c0576115316115e26116b56114a9565b936115db6008610a73565b6115316115e26116d1969396610a86565b936114bd565b6116e691929394955060ff1690565b14928315611875575b8315611851575b831561182d575b8315611809575b83156117d8575b83156117a7575b8315611776575b831561172d575b505050388080808061169b565b9091925061173b604d610a73565b60ff891614928361176e575b5082611766575b508161175e575b50388080611720565b905038611755565b91503861174e565b925038611747565b9250611782604e610a73565b60ff891614806117a0575b80611799575b92611719565b5082611793565b508161178d565b92506117b3604e610a73565b60ff891614806117d1575b806117ca575b92611712565b50816117c4565b50806117be565b92506117e4604e610a73565b60ff89161480611802575b806117fb575b9261170b565b50826117f5565b50806117ef565b9250611815604f610a73565b60ff89161480611826575b92611704565b5081611820565b9250611839604f610a73565b60ff8916148061184a575b926116fd565b5082611844565b925061185d604f610a73565b60ff8916148061186e575b926116f6565b5080611868565b92506118816050610a73565b60ff891614926116ef565b506118976002610a73565b60ff861614801561191a575b80156118fd575b80156118e0575b8061165557506118c1604e610a73565b60ff8b1614806118d9575b8015611655575083611655565b50816118cc565b506118eb604f610a73565b60ff8b161480156118b15750836118b1565b50611908604f610a73565b60ff8b161480156118aa5750816118aa565b506119256050610a73565b60ff8b16146118a3565b5061193a6001610a73565b60ff8516148015611968575b8061160f5750611956604f610a73565b60ff8a1614801561160f57508061160f565b506119736050610a73565b60ff8a1614611946565b5061198786610a73565b60ff841614806115ba575061199c6050610a73565b60ff8916146115ba565b9650935093505050565b90506119be610c9a85610c6d565b1438611500565b6101976057610a73565b939190925b600182116119e0575050565b90919280820481116109075760018316611a02575b8002929160011c906119d4565b938402936119f5565b9291928115611a8e578015611a86578080600114611a7d57600214611a685760208210610133821016604e8310600b83101617611a5e5792611a519181939460016119cf565b8092048111610907570290565b0a91821161090757565b5060ff81116109075760020a91821161090757565b50600193505050565b506000925050565b506001925050565b61019791611aa9610aa260ff9360ff1690565b90611a0b565b6101976028610a73565b6101976000610a73565b611acf9060ff16610aa2565b90039060ff821161090757565b611ae89060ff16610aa2565b029060ff8216610df2565b90600092611b0084610a73565b90611b0961110e565b611b1560ff8316610aa2565b03611dcd575050611b26600f610a73565b925b611b53611b35606f610a73565b610bb9611b4160405190565b8092610bad6020830191888a84610ac2565b611b65610f27606492610bdb846108d1565b90611b82610a80611b74611aaf565b611b7d84610a73565b611ac3565b60ff83161015611d91575050611b9790610a73565b905b600491611ba583610a73565b60ff821610611bd657505061151f9150611bd1610f7e600f92611bcb610f7e6002610a73565b90611a96565b611adc565b6003611be181610a73565b60ff831603611c8c575050611c14610f27611c0b611c2e9495610bb9611c1e95610c116070610a73565b610bdb866108d1565b610c4a6001610a73565b611c286007610a73565b90611adc565b611c386015610a73565b60ff821603611c5c575061151f90611bd1610f7e600d92611bcb610f7e6002610a73565b611c69610aa2601c610a73565b14611c72575090565b61151f90611bd1610f7e600b92611bcb610f7e6002610a73565b9091600292611c9a84610a73565b60ff821603611d2c5750610f7e611c14610f27611cc7611cd1969798610bb9611c2896610c116070610a73565b610bdb60066108d1565b611cdb600f610a73565b60ff821603611cfd5750611bd1610f7e61151f93611bcb610f7e600595610a73565b611d0a610aa26012610a73565b14611d1457505090565b611bd1610f7e61151f93611bcb610f7e600a95610a73565b90929150611d3d610aa26001610a73565b14611d4a575b5050505090565b611bcb611d7a611d80611d7a610f27611d71611d8799610bb9611c2899610c116070610a73565b610bdb896108d1565b93610a73565b9283611a96565b1738808080611d43565b610aa2610a80611da692611b7d610f7e610dbb565b10159050611dbe57611db86001610a73565b90611b99565b611dc86002610a73565b611db8565b611dd89491946119c5565b90611de36001610a73565b91611e04611df060405190565b610bb98160208101610bad888b8d84610ac2565b90611e1d610aa2610a80610f27606495610bdb876108d1565b116120d3575b90849291611e2f611aaf565b611e64610aa2610a80610f27611e5b8c610bb9611e4c6002610a73565b9b8c92610bad610c1e60405190565b610bdb876108d1565b11611e73575b50505050611b28565b8690611e8198949598610e08565b87611e8c6003610a73565b91611eba610aa2610a80610f27611d71611ea560405190565b610bb9818c610bad8c8c602085019384610ac2565b1115611f735750505050611ecc611ab9565b611ed860ff8316610aa2565b148015611f58575b15611efe575050611ef16008610a73565b1717925b38808080611e6a565b9091959250611f0b610a86565b611f1760ff8316610aa2565b14908115611f41575b50611f2c575b50611ef5565b909317611f396004610a73565b179238611f26565b9050611f51610aa26112096114b3565b1438611f20565b50611f61611104565b611f6d60ff8316610aa2565b14611ee0565b610f27611f9d93610bdb61096c610f7e95610bb9610a809660329e9c9e9a610bad610c1e60405190565b111561203a57611fab611ab9565b611fb760ff8316610aa2565b03611fd15750509050611fca6008610a73565b1792611ef5565b611fd9610a86565b611fe560ff8316610aa2565b03611ff457505017925b611ef5565b909250611fff611104565b61200b60ff8316610aa2565b0361201857501792611ef5565b9094915061202a610aa26112096114b3565b03611fef5792611fca6004610a73565b612045939193611ab9565b61205160ff8316610aa2565b0361205f5750501792611ef5565b9091925061206b610a86565b61207760ff8316610aa2565b03612088575050611fca6004610a73565b612090611104565b61209c60ff8316610aa2565b036120ad575050611fca6008610a73565b6120be610aa26112099794976114b3565b146120c95750611ef5565b9093179238611f26565b955090816120eb85936120e66002610a73565b611a96565b9690919250611e23565b610197929190611af3565b61210990612143565b919394909293929190565b610197906121286109e96101979460ff1690565b901c90565b61213a6101976101979290565b63ffffffff1690565b9061215a610f2761215460f8610a73565b84612114565b9161216e61216860e8610a73565b82612114565b6121876121826201000092610bdb846108d1565b610e12565b936121ea6121826121b96121b46121a76121a160c8610a73565b88612114565b610bdb600160201b6108d1565b61212d565b93610bdb61096c6121d9612182611c0b6121d360b8610a73565b8b612114565b976121e460a8610a73565b90612114565b93565b610197959493929190612238565b6101979061220f6109e96101979460ff1690565b901b90565b6101976101976101979261ffff1690565b6101976101976101979263ffffffff1690565b6122b161228d61098a9561098a6122a761228d6101979b9a9761098a61229d610be161098a9a61098a6122936122bb9f61227d61228d91612277600090565b50610b3a565b61228760f8610a73565b906121fb565b92612214565b61228760e8610a73565b61228760e0610a73565b61228760d0610a73565b61228760c0610a73565b91612225565b6122ce9060005b506122da565b94959394929391929091565b906122eb610f2761215460f8610a73565b6122f861215460e8610a73565b61230c6121826201000092610bdb846108d1565b9361232b610f2761232061215460e0610a73565b610bdb6101006108d1565b936101976121b461236b61218261235a61218261235161234b60d0610a73565b89612114565b610bdb8a6108d1565b96610bdb61096c61234b60c0610a73565b93610bdb600160201b6108d1565b61238e61148091612388600090565b50610e30565b612438565b906101726123a060405190565b9283610b01565b6001600160401b038111610b225760200290565b6123c7610197916123a7565b612393565b634e487b7160e01b600052603260045260246000fd5b90600b8110156123f3576020020190565b6123cc565b6124099061ffff165b9161ffff1690565b019061ffff821161090757565b61019791611aa9610aa261ffff9361ffff1690565b6109ed9061ffff16612401565b9061256661255e612449600b6123bb565b612461600061245781610e12565b61ffff1690830152565b61247961246e600a610e12565b61ffff166020830152565b6124916124866031610e12565b61ffff166040830152565b6124a961249e6077610e12565b61ffff166060830152565b6124b661050160d0610e12565b6124cf6124c4610148610e12565b61ffff1660a0830152565b6124e86124dd61020c610e12565b61ffff1660c0830152565b6125016124f661033a610e12565b61ffff1660e0830152565b61251b61250f6104f5610e12565b61ffff16610100830152565b612535612529610e46610e12565b61ffff16610120830152565b61254f612543611aee610e12565b61ffff16610140830152565b61255885612214565b906123e2565b5161ffff1690565b9160089061257382610e12565b61ffff8216111561259557505061258b6101ec6108d1565b905b610197610dbb565b6125e9916125de6125d86125c86125b86125e4956125b36001610e12565b6123f8565b6125c26003610a73565b90612416565b6125d26005610e12565b9061242b565b91610e12565b906123f8565b612214565b9061258d565b61019791906126189061261361096c6126229461260a600090565b50600293611317565b6108f4565b610a6060056108d1565b61262c60006108d1565b8103610197575061019760016108d1565b6101979061019790612214565b6101979061266f6126229161265d600090565b5061261361096c60029261145861141e565b610a6060066108d1565b60001981146109075760010190565b91908110156123f3576020020190565b356101978161015c565b906126ad60006108d1565b91825b828410156126e6576126da6126e09161098a6126d56126d0888888612688565b612698565b6126ed565b93612679565b926126b0565b9250505090565b6126f89060006122c8565b50939150915060019161272d6124016127256125e461271c6002966125d288610e12565b6125b388610e12565b9561ffff1690565b1461273757505090565b610197929161097261096c6111e261098a946108d1565b6101979190611317565b61043291906127da916127d4610f276127926127746066610a73565b610bb961278060405190565b8092610bad6020830191898b84610ac2565b610bdb61096c610bad610bb96127b0610f27600996610bdb886108d1565b976127bb6067610a73565b906127c560405190565b93849260208401928d84610ac2565b916127fd565b9061019760026109ab565b6127f19060070b610c9a565b0290610df28260070b90565b610d7161019793610d33610a0a61285d6128639661285761286961284161283b61282c61283b9b61099d600090565b509d9160099491949d8e610c6d565b906127e5565b95610d33610a0a61285d6004996128578b610c6d565b906112af565b92610dc5565b9a610c6d565b91610c6d565b6101979161261361019792612882600090565b5061097261096c600192610a60600a6108d156fea264697066735822122041f4fbeca2d12742f854361aff4432345def4b764975da853386133d3d0f292e64736f6c63430008140033",
  "libraries": {
    "PureDungeon": "0xC63688CDDFC63d6E75189F89966E0F894DE65838"
  },
  "devdoc": {
    "kind": "dev",
    "methods": {},
    "version": 1
  },
  "userdoc": {
    "kind": "user",
    "methods": {},
    "version": 1
  },
  "storageLayout": {
    "storage": [],
    "types": null
  }
}