{
  "address": "0x970Ff410987336b953E5d0E6DFE9f07D93681af5",
  "abi": [
    {
      "anonymous": false,
      "inputs": [
        {
          "indexed": true,
          "internalType": "address",
          "name": "owner",
          "type": "address"
        },
        {
          "indexed": true,
          "internalType": "address",
          "name": "operator",
          "type": "address"
        },
        {
          "indexed": false,
          "internalType": "bool",
          "name": "approved",
          "type": "bool"
        }
      ],
      "name": "ApprovalForAll",
      "type": "event"
    },
    {
      "anonymous": false,
      "inputs": [
        {
          "indexed": true,
          "internalType": "uint256",
          "name": "id",
          "type": "uint256"
        },
        {
          "indexed": true,
          "internalType": "uint256",
          "name": "data",
          "type": "uint256"
        }
      ],
      "name": "DataUpdate",
      "type": "event"
    },
    {
      "anonymous": false,
      "inputs": [
        {
          "indexed": true,
          "internalType": "uint256",
          "name": "from",
          "type": "uint256"
        },
        {
          "indexed": true,
          "internalType": "uint256",
          "name": "to",
          "type": "uint256"
        },
        {
          "indexed": true,
          "internalType": "uint256",
          "name": "id",
          "type": "uint256"
        }
      ],
      "name": "SubTransfer",
      "type": "event"
    },
    {
      "anonymous": false,
      "inputs": [
        {
          "indexed": true,
          "internalType": "address",
          "name": "from",
          "type": "address"
        },
        {
          "indexed": true,
          "internalType": "address",
          "name": "to",
          "type": "address"
        },
        {
          "indexed": true,
          "internalType": "uint256",
          "name": "id",
          "type": "uint256"
        }
      ],
      "name": "Transfer",
      "type": "event"
    },
    {
      "inputs": [
        {
          "internalType": "address",
          "name": "from",
          "type": "address"
        },
        {
          "internalType": "address",
          "name": "to",
          "type": "address"
        },
        {
          "internalType": "uint256[]",
          "name": "ids",
          "type": "uint256[]"
        }
      ],
      "name": "batchTransferFrom",
      "outputs": [],
      "stateMutability": "nonpayable",
      "type": "function"
    },
    {
      "inputs": [
        {
          "internalType": "uint256",
          "name": "id",
          "type": "uint256"
        }
      ],
      "name": "getData",
      "outputs": [
        {
          "internalType": "uint256",
          "name": "",
          "type": "uint256"
        }
      ],
      "stateMutability": "view",
      "type": "function"
    },
    {
      "inputs": [
        {
          "internalType": "address",
          "name": "owner",
          "type": "address"
        },
        {
          "internalType": "address",
          "name": "operator",
          "type": "address"
        }
      ],
      "name": "isApprovedForAll",
      "outputs": [
        {
          "internalType": "bool",
          "name": "",
          "type": "bool"
        }
      ],
      "stateMutability": "view",
      "type": "function"
    },
    {
      "inputs": [
        {
          "internalType": "uint256",
          "name": "subOwner",
          "type": "uint256"
        },
        {
          "internalType": "uint256",
          "name": "data",
          "type": "uint256"
        }
      ],
      "name": "mint",
      "outputs": [
        {
          "internalType": "uint256",
          "name": "id",
          "type": "uint256"
        }
      ],
      "stateMutability": "nonpayable",
      "type": "function"
    },
    {
      "inputs": [
        {
          "internalType": "uint256",
          "name": "id",
          "type": "uint256"
        },
        {
          "internalType": "uint256",
          "name": "subOwner",
          "type": "uint256"
        }
      ],
      "name": "mintId",
      "outputs": [],
      "stateMutability": "nonpayable",
      "type": "function"
    },
    {
      "inputs": [
        {
          "internalType": "uint256",
          "name": "id",
          "type": "uint256"
        }
      ],
      "name": "ownerOf",
      "outputs": [
        {
          "internalType": "address",
          "name": "",
          "type": "address"
        }
      ],
      "stateMutability": "view",
      "type": "function"
    },
    {
      "inputs": [
        {
          "internalType": "address",
          "name": "dungeon",
          "type": "address"
        }
      ],
      "name": "postUpgrade",
      "outputs": [],
      "stateMutability": "nonpayable",
      "type": "function"
    },
    {
      "inputs": [
        {
          "internalType": "address",
          "name": "operator",
          "type": "address"
        },
        {
          "internalType": "bool",
          "name": "approved",
          "type": "bool"
        }
      ],
      "name": "setApprovalForAll",
      "outputs": [],
      "stateMutability": "nonpayable",
      "type": "function"
    },
    {
      "inputs": [
        {
          "internalType": "uint256",
          "name": "id",
          "type": "uint256"
        },
        {
          "internalType": "uint256",
          "name": "data",
          "type": "uint256"
        }
      ],
      "name": "setData",
      "outputs": [],
      "stateMutability": "nonpayable",
      "type": "function"
    },
    {
      "inputs": [
        {
          "internalType": "uint256",
          "name": "subOwner",
          "type": "uint256"
        }
      ],
      "name": "subBalanceOf",
      "outputs": [
        {
          "internalType": "uint256",
          "name": "",
          "type": "uint256"
        }
      ],
      "stateMutability": "view",
      "type": "function"
    },
    {
      "inputs": [
        {
          "internalType": "address",
          "name": "owner",
          "type": "address"
        },
        {
          "internalType": "uint256",
          "name": "from",
          "type": "uint256"
        },
        {
          "internalType": "uint256",
          "name": "to",
          "type": "uint256"
        },
        {
          "internalType": "uint256[]",
          "name": "ids",
          "type": "uint256[]"
        }
      ],
      "name": "subBatchTransferFrom",
      "outputs": [],
      "stateMutability": "nonpayable",
      "type": "function"
    },
    {
      "inputs": [
        {
          "internalType": "uint256",
          "name": "id",
          "type": "uint256"
        }
      ],
      "name": "subBurn",
      "outputs": [],
      "stateMutability": "nonpayable",
      "type": "function"
    },
    {
      "inputs": [
        {
          "internalType": "uint256",
          "name": "id",
          "type": "uint256"
        }
      ],
      "name": "subOwnerOf",
      "outputs": [
        {
          "internalType": "uint256",
          "name": "",
          "type": "uint256"
        }
      ],
      "stateMutability": "view",
      "type": "function"
    },
    {
      "inputs": [
        {
          "internalType": "address",
          "name": "owner",
          "type": "address"
        },
        {
          "internalType": "uint256",
          "name": "from",
          "type": "uint256"
        },
        {
          "internalType": "uint256",
          "name": "to",
          "type": "uint256"
        },
        {
          "internalType": "uint256",
          "name": "id",
          "type": "uint256"
        }
      ],
      "name": "subTransferFrom",
      "outputs": [],
      "stateMutability": "nonpayable",
      "type": "function"
    },
    {
      "inputs": [
        {
          "internalType": "address",
          "name": "from",
          "type": "address"
        },
        {
          "internalType": "address",
          "name": "to",
          "type": "address"
        },
        {
          "internalType": "uint256",
          "name": "id",
          "type": "uint256"
        }
      ],
      "name": "transferFrom",
      "outputs": [],
      "stateMutability": "nonpayable",
      "type": "function"
    }
  ],
  "transactionHash": "0x706b492696a4382000e2c9c3fae35c5d359b817a8faa521579d22ad55cd7b26e",
  "args": [],
  "numDeployments": 1,
  "solcInputHash": "6d7638b8eb90dc0512d07a375af2f893",
  "bytecode": "0x60806040523461001a57604051611369610020823961136990f35b600080fdfe6080604052600436101561001257600080fd5b60003560e01c80630178fe3f146101025780631b2ef1ca146100fd57806323b872dd146100f85780634848b1a5146100f3578063603d4ca0146100ee5780636352211e146100e95780636611a8d4146100e457806369f648a1146100df5780637ba764f7146100da578063a22cb465146100d5578063b6721898146100d0578063c79b2430146100cb578063c9a59e47146100c6578063e985e9c5146100c15763f3993d1103610107576104e3565b610473565b610435565b61041d565b6103ed565b610398565b610344565b6102a7565b61028e565b610267565b610236565b61021d565b6101ff565b610191565b61013f565b600080fd5b805b0361010757565b905035906101228261010c565b565b906020828203126101075761013891610115565b90565b9052565b346101075761016a61015a610155366004610124565b610890565b6040519182918290815260200190565b0390f35b919060408382031261010757610138906101888185610115565b93602001610115565b346101075761016a61015a6101a736600461016e565b90610654565b6001600160a01b031690565b61010e816101ad565b90503590610122826101b9565b9091606082840312610107576101386101e884846101c2565b936101f681602086016101c2565b93604001610115565b34610107576102186102123660046101cf565b91610e27565b604051005b346101075761021861023036600461016e565b906107f3565b3461010757610218610249366004610124565b6108fa565b61013b906101ad565b602081019291610122919061024e565b346101075761016a61028261027d366004610124565b610a11565b60405191829182610257565b34610107576102186102a136600461016e565b9061122e565b346101075761016a61015a6102bd366004610124565b6109b7565b909182601f83011215610107578135916001600160401b03831161010757602001926020830284011161010757565b906080828203126101075761030681836101c2565b926103148260208501610115565b9260409261032481858401610115565b936001806060850135921b0381116101075761034092016102c2565b9091565b34610107576102186103573660046102f1565b93929092610c77565b80151561010e565b9050359061012282610360565b9190604083820312610107576101389061038f81856101c2565b93602001610368565b34610107576102186103ab366004610375565b9061112c565b608081830312610107576103c582826101c2565b926101386103d68460208501610115565b936103e48160408601610115565b93606001610115565b34610107576102186104003660046103b1565b92919091610b05565b9060208282031261010757610138916101c2565b3461010757610218610430366004610409565b6111a0565b346101075761016a61015a61044b366004610124565b610535565b9190604083820312610107576101389061046a81856101c2565b936020016101c2565b346101075761016a61048f610489366004610450565b90611185565b6040515b91829182901515815260200190565b91606083830312610107576104b782846101c2565b926104c583602083016101c2565b9260408201356001600160401b0381116101075761034092016102c2565b34610107576102186104f63660046104a2565b92919091610fb1565b6101386101386101389290565b90610516906104ff565b600052602052604060002090565b6101389081565b6101389054610524565b61054c61013891610544600090565b50600461050c565b61052b565b61013890546101ad565b1561056257565b60405162461bcd60e51b81526020600482015260136024820152721393d517d055551213d49256915117d3525395606a1b6044820152606490fd5b634e487b7160e01b600052601160045260246000fd5b60001981146105c25760010190565b61059d565b90600019905b9181191691161790565b906105e76101386105ee926104ff565b82546105c7565b9055565b906001600160a01b03906105cd565b610138906101ad906001600160a01b031682565b61013890610601565b61013890610615565b906106376101386105ee9261061e565b82546105f2565b6101ad6101386101389290565b6101389061063e565b90919061071f906106803361067a61067461066f6000610551565b6101ad565b916101ad565b1461055b565b61069261068d600161052b565b6105b3565b61069d8160016105d7565b80946106b3836106ae84600361050c565b6105d7565b6106d36106c184600461050c565b6106cd61068d8261052b565b906105d7565b6106f06106e06000610551565b6106eb84600261050c565b610627565b6106ff816106ae84600861050c565b6107176000805160206112f4833981519152926104ff565b9384916104ff565b9161072960405190565b600090a36000908261073a8361064b565b61074384610551565b61076461075e6000805160206113148339815191529361061e565b9161061e565b9161076e60405190565b600090a461079361078d6000805160206112d4833981519152936104ff565b916104ff565b9161079d60405190565b600090a4565b906105169061061e565b156107b457565b60405162461bcd60e51b81526020600482015260176024820152764e4f545f415554484f52495a45445f5345545f4441544160481b6044820152606490fd5b9061082d61080a61080584600261050c565b610551565b33610814816101ad565b61081d836101ad565b14918215610869575b50506107ad565b61083c816106ae84600861050c565b61085761078d6000805160206112f4833981519152936104ff565b9161086160405190565b80805b0390a3565b61088992509061087d6108829260066107a3565b6107a3565b5460ff1690565b3880610826565b61054c6101389161089f600090565b50600861050c565b156108ae57565b60405162461bcd60e51b81526020600482015260176024820152762727aa2fa0aaaa2427a924ad22a22fa9aaa12fa12aa92760491b6044820152606490fd5b80156105c2576000190190565b61092e61090b61080583600261050c565b33610915816101ad565b61091e836101ad565b1491821561099c575b50506108a7565b6003908061095861094261054c838661050c565b936106ae61095060006104ff565b94859261050c565b61097761096684600461050c565b6106cd6109728261052b565b6108ed565b61099261078d6000805160206112d4833981519152946104ff565b9261079d60405190565b6109b092509061087d6108829260066107a3565b3880610927565b61054c610138916109c6600090565b50600361050c565b156109d557565b60405162461bcd60e51b81526020600482015260146024820152731d1bdad95b88191bd95cc81b9bdd08195e1a5cdd60621b6044820152606490fd5b610805610a2891610a20600090565b50600261050c565b610138610a3861066f600061064b565b610a41836101ad565b14156109ce565b15610a4f57565b60405162461bcd60e51b815260206004820152601b60248201527a2727aa2fa0aaaa2427a924ad22a22fa9aaa12faa2920a729a322a960291b6044820152606490fd5b15610a9957565b60405162461bcd60e51b81526020600482015260096024820152683737ba1037bbb732b960b91b6044820152606490fd5b15610ad157565b60405162461bcd60e51b815260206004820152600c60248201526b3737ba1039bab127b73bb2b960a11b6044820152606490fd5b610b4c9093929193610b3233610b1a816101ad565b610b23846101ad565b14908115610baf575b50610a48565b610b4661067461066f61080587600261050c565b14610a92565b610b8b6106c1826003610b7c826106ae88610b6a61054c828761050c565b94610b778c875b14610aca565b61050c565b610b776109666004928361050c565b610992610ba9610ba96000805160206112d4833981519152956104ff565b926104ff565b610bc391506108829061087d8560066107a3565b38610b2c565b15610bd057565b60405162461bcd60e51b815260206004820152602160248201527f4e4f545f415554484f52495a45445f5355425f42415443485f5452414e5346456044820152602960f91b6064820152608490fd5b634e487b7160e01b600052603260045260246000fd5b9190811015610c45576020020190565b610c1f565b356101388161010c565b9190610c5f565b9290565b82039182116105c257565b919082018092116105c257565b919092949394610ca233610c8a816101ad565b610c93866101ad565b14908115610d8e575b50610bc9565b8594610cae60006104ff565b86811015610d4c5780610ccd610cc8610d47938b87610c35565b610c4a565b610cea610ce161066f61080584600261050c565b610b46896101ad565b610d0f866106ae836003610b778d610b71610d0b610c5b61054c878761050c565b9190565b6000805160206112d483398151915290610d28896104ff565b610d34610ba9896104ff565b92610d3e60405190565b600090a46105b3565b610cae565b509550506106cd9150610d7f906101229493610b77610d6d6004928361050c565b6106cd87610d7a8361052b565b610c54565b91610d898361052b565b610c6a565b610da291506108829061087d8760066107a3565b38610c9c565b15610daf57565b60405162461bcd60e51b815260206004820152600a602482015269696e76616c696420746f60b01b6044820152606490fd5b15610de857565b60405162461bcd60e51b81526020600482015260176024820152762727aa2fa0aaaa2427a924ad22a22faa2920a729a322a960491b6044820152606490fd5b91906000610e4a610e3a61066f8361064b565b610e43846101ad565b1415610da8565b610e6f33610e57816101ad565b610e60876101ad565b14908115610f4b575b50610de1565b610e95826106eb856002610b77610e89610805848461050c565b610b466106748c6101ad565b82600391610ea661054c838561050c565b92610eb461054c848361050c565b610ec0610d0b846104ff565b03610eee575b50505050610992610ba9610ee86000805160206113148339815191529561061e565b9261061e565b6106ae610efd610f05936104ff565b93849261050c565b610f1361096683600461050c565b610f2b6000805160206112d4833981519152926104ff565b610f34856104ff565b92610f3e60405190565b600090a438828180610ec6565b610f5f91506108829061087d8860066107a3565b38610e69565b15610f6c57565b60405162461bcd60e51b815260206004820152601d60248201527f4e4f545f415554484f52495a45445f42415443485f5452414e534645520000006044820152606490fd5b9190939293600091610fc8610e3a61066f8561064b565b610fed33610fd5816101ad565b610fde876101ad565b149081156110f2575b50610f65565b610ff6836104ff565b868110156110e95780611010610cc861108f938a86610c35565b611037856106eb836002610b778c610b46610674611031610805878761050c565b926101ad565b60038161104761054c828461050c565b9161105561054c838361050c565b611061610d0b8b6104ff565b03611094575b505050600080516020611314833981519152906110838861061e565b610d34610ba98861061e565b610ff6565b6110a4906106ae610efd8b6104ff565b6110b261096683600461050c565b6110ca6000805160206112d4833981519152926104ff565b6110d3846104ff565b926110dd60405190565b600090a4388181611067565b50505050509050565b61110691506108829061087d8860066107a3565b38610fe7565b9060ff906105cd565b906111256101386105ee92151590565b825461110c565b33611145836111408461087d8560066107a3565b611115565b61086461117b6111757f17307eab39ab6107e8899845ad3d59bd9653f200f220920489ca2b5937696c319361061e565b9361061e565b9361049360405190565b6101389161087d61088292611198600090565b5060066107a3565b61012290611225565b1561010757565b610122906111ca6000805160206112b48339815191525490565b6111d761066f600061064b565b6111e0826101ad565b0361120357506001600160a01b036000805160206112b48339815191525561121a565b61121a9061121461067433926101ad565b146111a9565b610122906000610627565b610122906111b0565b906112433361067a61067461066f6000610551565b611252816106ae84600361050c565b6112606106c182600461050c565b61126d6106e06000610551565b6000906112798261064b565b61128283610551565b936112a761078d6112a16000805160206113148339815191529461061e565b9661061e565b94859261076e6040519056feb53127684a568b3173ae13b9f8a6016e243e63b6e8ee1178d6a717850b5d61038641d9f2365a4c17a0f807e0ba24c82176c417f81cbdde43da4954c1c402704d9b0b427d54b1902d475dd6da2557b731e9aa63c7a9bd8d6021eef24f2d0eaf48ddf252ad1be2c89b69c2b068fc378daa952ba7f163c4a11628f55a4df523b3efa264697066735822122003efbb97f868d0a092e90e99412286b7b43620b0de3a69a31fe8a051220d7d0864736f6c63430008140033",
  "devdoc": {
    "kind": "dev",
    "methods": {},
    "version": 1
  },
  "userdoc": {
    "kind": "user",
    "methods": {},
    "version": 1
  },
  "storageLayout": {
    "storage": [
      {
        "astId": 13397,
        "contract": "src/tokens/Rooms.sol:Rooms",
        "label": "_minter",
        "offset": 0,
        "slot": "0",
        "type": "t_address"
      },
      {
        "astId": 13399,
        "contract": "src/tokens/Rooms.sol:Rooms",
        "label": "_lastId",
        "offset": 0,
        "slot": "1",
        "type": "t_uint256"
      },
      {
        "astId": 13403,
        "contract": "src/tokens/Rooms.sol:Rooms",
        "label": "_owners",
        "offset": 0,
        "slot": "2",
        "type": "t_mapping(t_uint256,t_address)"
      },
      {
        "astId": 13407,
        "contract": "src/tokens/Rooms.sol:Rooms",
        "label": "_subOwners",
        "offset": 0,
        "slot": "3",
        "type": "t_mapping(t_uint256,t_uint256)"
      },
      {
        "astId": 13411,
        "contract": "src/tokens/Rooms.sol:Rooms",
        "label": "_subNumNFTPerAddress",
        "offset": 0,
        "slot": "4",
        "type": "t_mapping(t_uint256,t_uint256)"
      },
      {
        "astId": 13415,
        "contract": "src/tokens/Rooms.sol:Rooms",
        "label": "_numNFTPerAddress",
        "offset": 0,
        "slot": "5",
        "type": "t_mapping(t_address,t_uint256)"
      },
      {
        "astId": 13421,
        "contract": "src/tokens/Rooms.sol:Rooms",
        "label": "_operatorsForAll",
        "offset": 0,
        "slot": "6",
        "type": "t_mapping(t_address,t_mapping(t_address,t_bool))"
      },
      {
        "astId": 13425,
        "contract": "src/tokens/Rooms.sol:Rooms",
        "label": "_operators",
        "offset": 0,
        "slot": "7",
        "type": "t_mapping(t_uint256,t_address)"
      },
      {
        "astId": 13429,
        "contract": "src/tokens/Rooms.sol:Rooms",
        "label": "_data",
        "offset": 0,
        "slot": "8",
        "type": "t_mapping(t_uint256,t_uint256)"
      }
    ],
    "types": {
      "t_address": {
        "encoding": "inplace",
        "label": "address",
        "numberOfBytes": "20"
      },
      "t_bool": {
        "encoding": "inplace",
        "label": "bool",
        "numberOfBytes": "1"
      },
      "t_mapping(t_address,t_bool)": {
        "encoding": "mapping",
        "key": "t_address",
        "label": "mapping(address => bool)",
        "numberOfBytes": "32",
        "value": "t_bool"
      },
      "t_mapping(t_address,t_mapping(t_address,t_bool))": {
        "encoding": "mapping",
        "key": "t_address",
        "label": "mapping(address => mapping(address => bool))",
        "numberOfBytes": "32",
        "value": "t_mapping(t_address,t_bool)"
      },
      "t_mapping(t_address,t_uint256)": {
        "encoding": "mapping",
        "key": "t_address",
        "label": "mapping(address => uint256)",
        "numberOfBytes": "32",
        "value": "t_uint256"
      },
      "t_mapping(t_uint256,t_address)": {
        "encoding": "mapping",
        "key": "t_uint256",
        "label": "mapping(uint256 => address)",
        "numberOfBytes": "32",
        "value": "t_address"
      },
      "t_mapping(t_uint256,t_uint256)": {
        "encoding": "mapping",
        "key": "t_uint256",
        "label": "mapping(uint256 => uint256)",
        "numberOfBytes": "32",
        "value": "t_uint256"
      },
      "t_uint256": {
        "encoding": "inplace",
        "label": "uint256",
        "numberOfBytes": "32"
      }
    }
  }
}