{
  "address": "0x481D5462CeD4e9EBbA45dE98bdc32c1210BEbA7F",
  "abi": [
    {
      "anonymous": false,
      "inputs": [
        {
          "indexed": false,
          "internalType": "address",
          "name": "account",
          "type": "address"
        },
        {
          "indexed": false,
          "internalType": "uint256",
          "name": "amount",
          "type": "uint256"
        },
        {
          "indexed": false,
          "internalType": "uint256",
          "name": "slot",
          "type": "uint256"
        }
      ],
      "name": "Claimed",
      "type": "event"
    },
    {
      "anonymous": false,
      "inputs": [
        {
          "indexed": false,
          "internalType": "address",
          "name": "from",
          "type": "address"
        },
        {
          "indexed": false,
          "internalType": "uint256",
          "name": "amount",
          "type": "uint256"
        }
      ],
      "name": "Received",
      "type": "event"
    },
    {
      "inputs": [],
      "name": "MAX_FOOD",
      "outputs": [
        {
          "internalType": "uint256",
          "name": "",
          "type": "uint256"
        }
      ],
      "stateMutability": "view",
      "type": "function"
    },
    {
      "inputs": [],
      "name": "SLOT_INTERVAL",
      "outputs": [
        {
          "internalType": "uint256",
          "name": "",
          "type": "uint256"
        }
      ],
      "stateMutability": "view",
      "type": "function"
    },
    {
      "inputs": [],
      "name": "claimUBF",
      "outputs": [],
      "stateMutability": "nonpayable",
      "type": "function"
    },
    {
      "inputs": [
        {
          "internalType": "uint256",
          "name": "characterId",
          "type": "uint256"
        }
      ],
      "name": "claimUBFAsCharacter",
      "outputs": [],
      "stateMutability": "nonpayable",
      "type": "function"
    },
    {
      "inputs": [
        {
          "internalType": "address",
          "name": "account",
          "type": "address"
        }
      ],
      "name": "getActivity",
      "outputs": [
        {
          "internalType": "uint256",
          "name": "activity",
          "type": "uint256"
        }
      ],
      "stateMutability": "view",
      "type": "function"
    },
    {
      "inputs": [
        {
          "internalType": "address",
          "name": "account",
          "type": "address"
        }
      ],
      "name": "getClaimAmount",
      "outputs": [
        {
          "internalType": "uint256",
          "name": "amount",
          "type": "uint256"
        }
      ],
      "stateMutability": "view",
      "type": "function"
    },
    {
      "inputs": [
        {
          "internalType": "address",
          "name": "account",
          "type": "address"
        }
      ],
      "name": "getInfo",
      "outputs": [
        {
          "internalType": "uint256",
          "name": "amount",
          "type": "uint256"
        },
        {
          "internalType": "uint256",
          "name": "ubfBalance",
          "type": "uint256"
        },
        {
          "internalType": "uint256",
          "name": "slot",
          "type": "uint256"
        },
        {
          "internalType": "uint256",
          "name": "nextSlotTime",
          "type": "uint256"
        },
        {
          "internalType": "bool",
          "name": "claimed",
          "type": "bool"
        }
      ],
      "stateMutability": "view",
      "type": "function"
    },
    {
      "inputs": [
        {
          "internalType": "contract Characters",
          "name": "charactersContract",
          "type": "address"
        }
      ],
      "name": "postUpgrade",
      "outputs": [],
      "stateMutability": "nonpayable",
      "type": "function"
    },
    {
      "inputs": [
        {
          "internalType": "address",
          "name": "account",
          "type": "address"
        },
        {
          "internalType": "uint256",
          "name": "txCharge",
          "type": "uint256"
        },
        {
          "internalType": "uint256",
          "name": "poolFee",
          "type": "uint256"
        }
      ],
      "name": "recordCharge",
      "outputs": [],
      "stateMutability": "payable",
      "type": "function"
    },
    {
      "inputs": [],
      "name": "register",
      "outputs": [],
      "stateMutability": "nonpayable",
      "type": "function"
    },
    {
      "stateMutability": "payable",
      "type": "receive"
    }
  ],
  "transactionHash": "0x74265d8fa93471e090e75896a4a76efda92ff5ca5b1751e685f5ccfd2915e549",
  "args": [],
  "numDeployments": 2,
  "solcInputHash": "dd8ef9e4cb12f6b7c300326f49f4b58b",
  "bytecode": "0x60806040523461001a57604051610e726100208239610e7290f35b600080fdfe60806040526004361015610023575b361561001957600080fd5b610021610525565b005b60003560e01c80631aa3a008146100c35780631e42fdd0146100be57806341db47a0146100b957806366d13fb6146100b4578063820bef34146100af578063b7ad765c146100aa578063c79b2430146100a5578063dde070e8146100a0578063ef7375451461009b5763ffdd5cf10361000e57610314565b6102b8565b610285565b61026d565b610225565b610211565b6101c6565b610178565b610123565b6100d8565b60009103126100d357565b600080fd5b346100d3576100e83660046100c8565b6100f06104a0565b604051005b0390f35b6101066101066101069290565b90565b610106620143706100f9565b610106610109565b9052565b565b346100d3576101333660046100c8565b6100f561013e610115565b6040519182918290815260200190565b805b036100d357565b905035906101218261014e565b906020828203126100d35761010691610157565b346100d3576100f061018b366004610164565b6107ae565b6001600160a01b031690565b61015081610190565b905035906101218261019c565b906020828203126100d357610106916101a5565b346100d3576100f561013e6101dc3660046101b2565b610933565b90916060828403126100d3576101066101fa84846101a5565b936102088160208601610157565b93604001610157565b6100f061021f3660046101e1565b91610657565b346100d3576102353660046100c8565b6106e4565b61010690610190565b6101508161023a565b9050359061012182610243565b906020828203126100d3576101069161024c565b346100d3576100f0610280366004610259565b61043d565b346100d3576100f561013e61029b3660046101b2565b610962565b61010666038d7ea4c680006100f9565b6101066102a0565b346100d3576102c83660046100c8565b6100f561013e6102b0565b909594926101219461030561030c926102fe6080966102f760a088019c6000890152565b6020870152565b6040850152565b6060830152565b019015159052565b346100d3576100f561032f61032a3660046101b2565b6108b3565b9161033c95939560405190565b958695866102d3565b6101906101066101069290565b61010690610345565b156100d357565b6101219061037c600080516020610e1d8339815191525490565b61038e6103896000610352565b610190565b61039782610190565b036103ba57506001600160a01b03600080516020610e1d83398151915255610432565b6103d7906103d16103cb3392610190565b91610190565b1461035b565b610432565b906001600160a01b03905b9181191691161790565b61010690610190906001600160a01b031682565b610106906103f1565b61010690610405565b9061042761010661042e9261040e565b82546103dc565b9055565b610121906001610417565b61012190610362565b610106905461023a565b6020808252601290820152711053149150511657d49151d254d51154915160721b604082015260600190565b1561048357565b60405162461bcd60e51b81528061049c60048201610450565b0390fd5b336104b66103896104b16000610446565b61040e565b6104bf82610190565b036104c75750565b610121906104f76104db6104b16000610446565b916104b16000936104f16103cb61038987610352565b1461047c565b90610417565b61011d90610190565b916020610121929493610521604082019660008301906104fd565b0152565b33347f88a5966d370b9919b20f3e2c13ff65706f196a4e32cc2c12bf57088f885258749161055e61055560405190565b92839283610506565b0390a1565b6020808252600e908201526d1393d517d055551213d49256915160921b604082015260600190565b1561059257565b60405162461bcd60e51b81528061049c60048201610563565b634e487b7160e01b600052601260045260246000fd5b634e487b7160e01b600052601160045260246000fd5b906105e1565b9190565b9081156105ec570490565b6105ab565b906105fb9061040e565b600052602052604060002090565b906105fb906100f9565b6101069081565b6101069054610613565b9190820180921161063157565b6105c1565b90600019906103e7565b9061065061010661042e926100f9565b8254610636565b61012192506106a26106b1916106803361067a6103cb6103896104b16000610446565b1461058b565b61069d6106954261068f610109565b906105d7565b9160026105f1565b610609565b916106ac8361061a565b610624565b90610640565b6020808252601390820152725553455f4348415241435445525f434c41494d60681b604082015260600190565b60405162461bcd60e51b81528061049c600482016106b7565b634e487b7160e01b600052604160045260246000fd5b90601f01601f191681019081106001600160401b0382111761073457604052565b6106fd565b905051906101218261014e565b906020828203126100d35761010691610739565b6040513d6000823e3d90fd5b6020808252600e908201526d2727aa2fa4a72fa22aa723a2a7a760911b604082015260600190565b1561079557565b60405162461bcd60e51b81528061049c60048201610766565b6020610804916107cb3361067a6103cb6103896104b16000610446565b6107d86104b16001610446565b6107f6633038bb086107e960405190565b9586948593849360e01b90565b835260048301526024820190565b03915afa80156108745761083c6108419161012193600091610846575b5061083761082f60006100f9565b82141561078e565b610345565b610405565b610ae7565b610867915060203d811161086d575b61085f8183610713565b810190610746565b38610821565b503d610855565b61075a565b8181029291811591840414171561063157565b81156105ec570690565b9190820391821161063157565b60ff1690565b61010690546108a3565b6108bc81610cbb565b916108c63061040e565b3191429161010661092e6108d8610109565b9461092861091d6109156108ec89856105d7565b9361090f859a610909836106ac8361090460026100f9565b610879565b9261088c565b90610896565b9660036105f1565b9161090f60016100f9565b90610609565b6108a9565b61095d61010691610942600090565b5061092861091d6109554261068f610109565b9260026105f1565b61061a565b61010690610cbb565b6020808252600e908201526d15d0525517d391561517d4d313d560921b604082015260600190565b1561099a57565b60405162461bcd60e51b81528061049c6004820161096b565b6020808252600f908201526e1053149150511657d0d31052535151608a1b604082015260600190565b156109e357565b60405162461bcd60e51b81528061049c600482016109b3565b6020808252600b908201526a4e4f5f414354495649545960a81b604082015260600190565b15610a2857565b60405162461bcd60e51b81528061049c600482016109fc565b60208082526010908201526f4e4f5448494e475f544f5f434c41494d60801b604082015260600190565b15610a7257565b60405162461bcd60e51b81528061049c60048201610a41565b9060ff906103e7565b151590565b90610aa961010661042e92610a94565b8254610a8b565b60208101929161012191906104fd565b6040906105216101219496959396610ae0606084019860008501906104fd565b6020830152565b610af34261068f610109565b6000610b09610b01826100f9565b831415610993565b600391610b1684846105f1565b91610b41610b3c610b3861092e600196610928610b32896100f9565b88610896565b1590565b6109dc565b610b79610b6761095d610b558860026105f1565b610928610b61886100f9565b87610896565b610b736105dd846100f9565b11610a21565b610bb783610bb2610ba688610b8d81610cbb565b98610ba1610b9a886100f9565b8b11610a6b565b6105f1565b610928610b61846100f9565b610a99565b610bc36104b182610446565b92634e0fb1f493803b156100d357610be9948391610be060405190565b96879260e01b90565b8252818881610bfb8c60048301610ab0565b03925af191821561087457610c1a9461090f93610c52575b50506100f9565b9161055e7f987d620f307ff6b94d58743cb7a7509f24071586a77759b77c2d4e29f75a2f9a93610c4960405190565b93849384610ac0565b81610c7192903d10610c78575b610c698183610713565b8101906100c8565b3880610c13565b503d610c5f565b91906040838203126100d35761010690610c998185610739565b93602001610739565b610caf6101066101069290565b66ffffffffffffff1690565b90610cf56040610cca3061040e565b3193610cd96104b16000610446565b610cea638fc0f5eb6107e960405190565b835260048301610ab0565b03915afa90811561087457600091610db1575b50610d116102a0565b80821115610d27575050905061010660006100f9565b610d80610d4a600086610d44610d3e6103e8610ca2565b926100f9565b91610df4565b61068f610d7a610d5a8686610896565b92610d6f86610d7561271096610d6f886100f9565b90610879565b6105d7565b916100f9565b93808511610da9575b50610d948483610624565b8110610d9e575050565b610106929350610896565b935038610d89565b610dd2915060403d8111610dd7575b610dca8183610713565b810190610c7f565b610d08565b503d610dc0565b6101066101066101069266ffffffffffffff1690565b610e1161010693926109046106ac93610e0b600090565b50610dde565b61068f6127106100f956feb53127684a568b3173ae13b9f8a6016e243e63b6e8ee1178d6a717850b5d6103a26469706673582212204946a44a82e87e04ef4ced396ce1a5b1dbc367fab2d6e7b1459e2881af8b1da864736f6c63430008140033",
  "devdoc": {
    "kind": "dev",
    "methods": {},
    "version": 1
  },
  "userdoc": {
    "kind": "user",
    "methods": {},
    "version": 1
  },
  "storageLayout": {
    "storage": [
      {
        "astId": 12232,
        "contract": "src/player/UBF.sol:UBF",
        "label": "_playerContract",
        "offset": 0,
        "slot": "0",
        "type": "t_contract(Player)11695"
      },
      {
        "astId": 12235,
        "contract": "src/player/UBF.sol:UBF",
        "label": "_charactersContract",
        "offset": 0,
        "slot": "1",
        "type": "t_contract(Characters)743"
      },
      {
        "astId": 12241,
        "contract": "src/player/UBF.sol:UBF",
        "label": "_timeSlots",
        "offset": 0,
        "slot": "2",
        "type": "t_mapping(t_address,t_mapping(t_uint256,t_uint256))"
      },
      {
        "astId": 12247,
        "contract": "src/player/UBF.sol:UBF",
        "label": "_claimedSlots",
        "offset": 0,
        "slot": "3",
        "type": "t_mapping(t_address,t_mapping(t_uint256,t_bool))"
      }
    ],
    "types": {
      "t_address": {
        "encoding": "inplace",
        "label": "address",
        "numberOfBytes": "20"
      },
      "t_bool": {
        "encoding": "inplace",
        "label": "bool",
        "numberOfBytes": "1"
      },
      "t_contract(Characters)743": {
        "encoding": "inplace",
        "label": "contract Characters",
        "numberOfBytes": "20"
      },
      "t_contract(Player)11695": {
        "encoding": "inplace",
        "label": "contract Player",
        "numberOfBytes": "20"
      },
      "t_mapping(t_address,t_mapping(t_uint256,t_bool))": {
        "encoding": "mapping",
        "key": "t_address",
        "label": "mapping(address => mapping(uint256 => bool))",
        "numberOfBytes": "32",
        "value": "t_mapping(t_uint256,t_bool)"
      },
      "t_mapping(t_address,t_mapping(t_uint256,t_uint256))": {
        "encoding": "mapping",
        "key": "t_address",
        "label": "mapping(address => mapping(uint256 => uint256))",
        "numberOfBytes": "32",
        "value": "t_mapping(t_uint256,t_uint256)"
      },
      "t_mapping(t_uint256,t_bool)": {
        "encoding": "mapping",
        "key": "t_uint256",
        "label": "mapping(uint256 => bool)",
        "numberOfBytes": "32",
        "value": "t_bool"
      },
      "t_mapping(t_uint256,t_uint256)": {
        "encoding": "mapping",
        "key": "t_uint256",
        "label": "mapping(uint256 => uint256)",
        "numberOfBytes": "32",
        "value": "t_uint256"
      },
      "t_uint256": {
        "encoding": "inplace",
        "label": "uint256",
        "numberOfBytes": "32"
      }
    }
  }
}