{
  "address": "0xEa58345191c7370c9a7De88A1D680793771275Fe",
  "abi": [
    {
      "anonymous": false,
      "inputs": [
        {
          "indexed": false,
          "internalType": "address",
          "name": "account",
          "type": "address"
        },
        {
          "indexed": false,
          "internalType": "uint256",
          "name": "amount",
          "type": "uint256"
        },
        {
          "indexed": false,
          "internalType": "uint256",
          "name": "slot",
          "type": "uint256"
        }
      ],
      "name": "Claimed",
      "type": "event"
    },
    {
      "anonymous": false,
      "inputs": [
        {
          "indexed": false,
          "internalType": "address",
          "name": "from",
          "type": "address"
        },
        {
          "indexed": false,
          "internalType": "uint256",
          "name": "amount",
          "type": "uint256"
        }
      ],
      "name": "Received",
      "type": "event"
    },
    {
      "inputs": [],
      "name": "MAX_FOOD",
      "outputs": [
        {
          "internalType": "uint256",
          "name": "",
          "type": "uint256"
        }
      ],
      "stateMutability": "view",
      "type": "function"
    },
    {
      "inputs": [],
      "name": "SLOT_INTERVAL",
      "outputs": [
        {
          "internalType": "uint256",
          "name": "",
          "type": "uint256"
        }
      ],
      "stateMutability": "view",
      "type": "function"
    },
    {
      "inputs": [],
      "name": "claimUBF",
      "outputs": [],
      "stateMutability": "nonpayable",
      "type": "function"
    },
    {
      "inputs": [
        {
          "internalType": "uint256",
          "name": "characterId",
          "type": "uint256"
        }
      ],
      "name": "claimUBFAsCharacter",
      "outputs": [],
      "stateMutability": "nonpayable",
      "type": "function"
    },
    {
      "inputs": [
        {
          "internalType": "address",
          "name": "account",
          "type": "address"
        }
      ],
      "name": "getClaimAmount",
      "outputs": [
        {
          "internalType": "uint256",
          "name": "amount",
          "type": "uint256"
        }
      ],
      "stateMutability": "view",
      "type": "function"
    },
    {
      "inputs": [
        {
          "internalType": "address",
          "name": "account",
          "type": "address"
        }
      ],
      "name": "getInfo",
      "outputs": [
        {
          "internalType": "uint256",
          "name": "amount",
          "type": "uint256"
        },
        {
          "internalType": "uint256",
          "name": "ubfBalance",
          "type": "uint256"
        },
        {
          "internalType": "uint256",
          "name": "slot",
          "type": "uint256"
        },
        {
          "internalType": "uint256",
          "name": "nextSlotTime",
          "type": "uint256"
        },
        {
          "internalType": "bool",
          "name": "claimed",
          "type": "bool"
        }
      ],
      "stateMutability": "view",
      "type": "function"
    },
    {
      "inputs": [
        {
          "internalType": "contract Characters",
          "name": "charactersContract",
          "type": "address"
        }
      ],
      "name": "postUpgrade",
      "outputs": [],
      "stateMutability": "nonpayable",
      "type": "function"
    },
    {
      "inputs": [
        {
          "internalType": "address",
          "name": "account",
          "type": "address"
        },
        {
          "internalType": "uint256",
          "name": "txCharge",
          "type": "uint256"
        },
        {
          "internalType": "uint256",
          "name": "poolFee",
          "type": "uint256"
        }
      ],
      "name": "recordCharge",
      "outputs": [],
      "stateMutability": "payable",
      "type": "function"
    },
    {
      "inputs": [],
      "name": "register",
      "outputs": [],
      "stateMutability": "nonpayable",
      "type": "function"
    },
    {
      "stateMutability": "payable",
      "type": "receive"
    }
  ],
  "transactionHash": "0x7c96b03ac4514e794c3d365fc20fddccb1b0c27171cc57c085ff29cb9788c812",
  "args": [],
  "numDeployments": 2,
  "solcInputHash": "90ef69df07aa634af9adf868f6be93e6",
  "bytecode": "0x6080806040523461001657610831908161001c8239f35b600080fdfe608060409080825260049081361015610050575b5050361561002057600080fd5b807f88a5966d370b9919b20f3e2c13ff65706f196a4e32cc2c12bf57088f885258749151338152346020820152a1005b600090813560e01c9081631aa3a0081461039c575080631e42fdd01461037e57806341db47a0146102da578063820bef3414610281578063b7ad765c14610261578063c79b2430146101e0578063dde070e8146101b3578063ef737545146101915763ffdd5cf10361001357823461018d57602036600319011261018d576100d661041a565b916100e0836106b8565b924792620143709283420492620286e04281019586821161017a574206420301948511610167576001600160a01b03168152600360205281812060001984018481116101545760a0985091839160ff9382526020522054169381519586526020860152840152606083015215156080820152f35b634e487b7160e01b835260118952602483fd5b634e487b7160e01b825260118852602482fd5b634e487b7160e01b845260118a52602484fd5b5080fd5b50823461018d578160031936011261018d576020905166038d7ea4c680008152f35b50823461018d57602036600319011261018d576020906101d96101d461041a565b6106b8565b9051908152f35b50903461018d57602036600319011261018d57356001600160a01b038181169182900361025d577fb53127684a568b3173ae13b9f8a6016e243e63b6e8ee1178d6a717850b5d6103805482168061024f5750555b6bffffffffffffffffffffffff60a01b600154161760015580f35b915050330315610234575080fd5b8280fd5b503461027e578060031936011261027e5761027b336104cd565b80f35b80fd5b5082606036600319011261018d5761029761041a565b82546001600160a01b0391906102b09083163314610435565b1682526002602052808220620143704204835260205281206102d56024358254610472565b905580f35b50913461025d57602036600319011261025d5782546001600160a01b0391906103069083163314610435565b60208260015416936024835180968193630607176160e31b83528035908301525afa90811561037557508390610342575b61027b9250166104cd565b506020823d821161036d575b8161035b60209383610495565b8101031261025d5761027b9151610337565b3d915061034e565b513d85823e3d90fd5b50823461018d578160031936011261018d5760209051620143708152f35b8391503461025d578260031936011261025d578254916001600160a01b038316338190036103c8578480f35b6103e45750506001600160a01b03191633178155818080808480f35b62461bcd60e51b825260209082015260126024820152711053149150511657d49151d254d51154915160721b6044820152606490fd5b600435906001600160a01b038216820361043057565b600080fd5b1561043c57565b60405162461bcd60e51b815260206004820152600e60248201526d1393d517d055551213d49256915160921b6044820152606490fd5b9190820180921161047f57565b634e487b7160e01b600052601160045260246000fd5b90601f8019910116810190811067ffffffffffffffff8211176104b757604052565b634e487b7160e01b600052604160045260246000fd5b62014370420480156106825760018060a01b039182811692600084815260209060038252604093848220600019870196871161066e57868352835260ff85832054166106385761051c906106b8565b92831561060157868252600383528482208683528352848220805460ff19166001179055815416803b1561018d57908084926024875180958193631383ec7d60e21b83528c60048401525af180156105f5576105a8575b505082519485528401528201527f987d620f307ff6b94d58743cb7a7509f24071586a77759b77c2d4e29f75a2f9a90606090a1565b67ffffffffffffffff82116105e157508352817f987d620f307ff6b94d58743cb7a7509f24071586a77759b77c2d4e29f75a2f9a610573565b634e487b7160e01b81526041600452602490fd5b508451903d90823e3d90fd5b845162461bcd60e51b815260048101849052601060248201526f4e4f5448494e475f544f5f434c41494d60801b6044820152606490fd5b845162461bcd60e51b815260048101849052600f60248201526e1053149150511657d0d31052535151608a1b6044820152606490fd5b634e487b7160e01b83526011600452602483fd5b60405162461bcd60e51b815260206004820152600e60248201526d15d0525517d391561517d4d313d560921b6044820152606490fd5b6000805460408051638fc0f5eb60e01b81526001600160a01b03948516600482015247959491929091839183916024918391165afa9182156107f25783926107c4575b505066038d7ea4c6800090818111600014610717575090925050565b6103e885810290810486036107b05761271080910482840394848611610788578286028681048414858714171561079c57859004918281029281840414901517156107885750049480861161077e575b508461077291610472565b1161077a5750565b9150565b9450610772610767565b634e487b7160e01b81526011600452602490fd5b634e487b7160e01b82526011600452602482fd5b634e487b7160e01b84526011600452602484fd5b90809250813d83116107eb575b6107db8183610495565b8101031261018d575138806106fb565b503d6107d1565b513d84823e3d90fdfea264697066735822122004eb8fcbf5168a23511a4284f4ffceb72f44101e0aa88f8b69016c2618c1504264736f6c63430008140033",
  "devdoc": {
    "kind": "dev",
    "methods": {},
    "version": 1
  },
  "userdoc": {
    "kind": "user",
    "methods": {},
    "version": 1
  },
  "storageLayout": {
    "storage": [
      {
        "astId": 11586,
        "contract": "src/player/UBF.sol:UBF",
        "label": "_playerContract",
        "offset": 0,
        "slot": "0",
        "type": "t_contract(Player)11097"
      },
      {
        "astId": 11589,
        "contract": "src/player/UBF.sol:UBF",
        "label": "_charactersContract",
        "offset": 0,
        "slot": "1",
        "type": "t_contract(Characters)464"
      },
      {
        "astId": 11595,
        "contract": "src/player/UBF.sol:UBF",
        "label": "_timeSlots",
        "offset": 0,
        "slot": "2",
        "type": "t_mapping(t_address,t_mapping(t_uint256,t_uint256))"
      },
      {
        "astId": 11601,
        "contract": "src/player/UBF.sol:UBF",
        "label": "_claimedSlots",
        "offset": 0,
        "slot": "3",
        "type": "t_mapping(t_address,t_mapping(t_uint256,t_bool))"
      }
    ],
    "types": {
      "t_address": {
        "encoding": "inplace",
        "label": "address",
        "numberOfBytes": "20"
      },
      "t_bool": {
        "encoding": "inplace",
        "label": "bool",
        "numberOfBytes": "1"
      },
      "t_contract(Characters)464": {
        "encoding": "inplace",
        "label": "contract Characters",
        "numberOfBytes": "20"
      },
      "t_contract(Player)11097": {
        "encoding": "inplace",
        "label": "contract Player",
        "numberOfBytes": "20"
      },
      "t_mapping(t_address,t_mapping(t_uint256,t_bool))": {
        "encoding": "mapping",
        "key": "t_address",
        "label": "mapping(address => mapping(uint256 => bool))",
        "numberOfBytes": "32",
        "value": "t_mapping(t_uint256,t_bool)"
      },
      "t_mapping(t_address,t_mapping(t_uint256,t_uint256))": {
        "encoding": "mapping",
        "key": "t_address",
        "label": "mapping(address => mapping(uint256 => uint256))",
        "numberOfBytes": "32",
        "value": "t_mapping(t_uint256,t_uint256)"
      },
      "t_mapping(t_uint256,t_bool)": {
        "encoding": "mapping",
        "key": "t_uint256",
        "label": "mapping(uint256 => bool)",
        "numberOfBytes": "32",
        "value": "t_bool"
      },
      "t_mapping(t_uint256,t_uint256)": {
        "encoding": "mapping",
        "key": "t_uint256",
        "label": "mapping(uint256 => uint256)",
        "numberOfBytes": "32",
        "value": "t_uint256"
      },
      "t_uint256": {
        "encoding": "inplace",
        "label": "uint256",
        "numberOfBytes": "32"
      }
    }
  }
}